:020000040000FA
:0600000036EF33F01200A0
:020006001200E6
:06000800C3EF27F0120017
:02000E00C250DE
:08001000020B01E0010E1200D9
:06001800B9EF27F0120011
:02001E000400DC
:100020003E67000060020000060000001C67000040
:1000300022020000220000000067000044020000CD
:100040001C000000DE66000000020000220000002C
:10005000BA0EE66E550EE66ED4EC21F0E552E5528E
:100060000101735101E111D110EC2EF0AB0EE66EDF
:10007000550EE66ED4EC21F0E552E552470EE66EE1
:10008000030EE66E2FC114F030C115F0166A176A20
:1000900015AE02D016681768E80E0B6E030E0C6ED4
:1000A0000D6A0E6A14C006F015C007F016C008F0FD
:1000B00017C009F0C3EC31F002C014F003C015F012
:1000C00004C016F005C017F0020E1526000E162209
:1000D00017220B6A040E0C6E0D6A0E6A14C006F02D
:1000E00015C007F016C008F017C009F020EC20F08A
:1000F00006C014F007C015F008C016F009C017F0CC
:1001000014C0E6FF15C0E6FF16C0E6FF17C0E6FF05
:10011000ABEC23F0186E060EE15E185063EC22F093
:100120009C0EE66E550EE66ED4EC21F0E552E552DB
:10013000470EE66E030EE66E33C114F034C115F0BF
:10014000166A176A15AE02D016681768E80E0B6EAD
:10015000030E0C6E0D6A0E6A14C006F015C007F08F
:1001600016C008F017C009F0C3EC31F002C014F05B
:1001700003C015F004C016F005C017F0020E1526D6
:10018000000E162217220B6A040E0C6E0D6A0E6A00
:1001900014C006F015C007F016C008F017C009F02B
:1001A00020EC20F006C014F007C015F008C016F0CF
:1001B00009C017F014C0E6FF15C0E6FF16C0E6FF41
:1001C00017C0E6FFABEC23F0186E060EE15E185088
:1001D00063EC22F08D0EE66E550EE66ED4EC21F047
:1001E000E552E552470EE66E030EE66E31C114F09D
:1001F00032C115F0166A176A15AE02D01668176874
:10020000E80E0B6E030E0C6E0D6A0E6A14C006F03B
:1002100015C007F016C008F017C009F0C3EC31F0A4
:1002200002C014F003C015F004C016F005C017F0AA
:10023000020E1526000E162217220B6A040E0C6EF3
:100240000D6A0E6A14C006F015C007F016C008F05B
:1002500017C009F020EC20F006C014F007C015F01C
:1002600008C016F009C017F014C0E6FF15C0E6FF7D
:1002700016C0E6FF17C0E6FFABEC23F0186E060EC3
:10028000E15E185063EC22F008D0760EE66E550E53
:10029000E66ED4EC21F0E552E5521200D9CFE6FF2C
:1002A000E1CFD9FF030EE126020EDB6A100EDE6EEF
:1002B000DD6ADECF14F0DDCF15F0153404E2145002
:1002C000F608000E155428E35CEC30F0DFCFE6FFB3
:1002D0007EEC30F0E552000911E1020EDB2A720ECD
:1002E000E66E550EE66ED4EC21F0E552E552DFCF16
:1002F000E6FF86EC22F0E55263EC22F06EEC30F083
:10030000020EE66EE66AB1EC09F0E552E552020E25
:10031000DE26000EDD22CDD7020EDB50146E030E5A
:10032000E15C03E200D0E16AE552E16E1450E5526F
:10033000E7CFD9FF1200D9CFE6FFE1CFD9FF050EF5
:10034000E126020153390F0B010B09E0620EE66E44
:10035000550EE66ED4EC21F0E552E55208D0520E6F
:10036000E66E550EE66ED4EC21F0E552E552470EEE
:10037000E66E550EE66ED4EC21F0E552E552010131
:10038000705101E10FD1706BD950010FE96EDACFD6
:10039000EAFFE50EEE6E010EED6E010EDF6EDFCFB1
:1003A00014F0070EE76E1418E8AE02D0143403D030
:1003B000E750D880145401E29BD0300EDF24E66E63
:1003C000F4EC21F0E552410EE66E550EE66ED4ECEB
:1003D00021F0E552E552D950010FE96EDACFEAFF7C
:1003E000EECFF3FFEDCFF4FF020EEE26000EEF226C
:1003F000F3CFE9FFF4CFEAFF030EEECFDBFF040EED
:10040000EDCFDBFF030EDBCFE6FF040EDBCFE6FF15
:100410009AEC22F0E552E552090EE66EF4EC21F07A
:10042000E552250EE66EE66AFF0EE76E030EDBCFA1
:1004300014F0040EDBCF15F0E7501416156A166A97
:10044000176A640E0B6E0C6A0D6A0E6A14C006F011
:1004500015C007F016C008F017C009F0C3EC31F062
:1004600002C014F003C015F004C016F005C017F068
:10047000F00E0B6E0C6A0D6A0E6A14C006F015C001
:1004800007F016C008F017C009F020EC20F006C0F5
:1004900014F007C015F008C016F009C017F014C01A
:1004A000E6FF15C0E6FF16C0E6FF17C0E6FFABEC9F
:1004B00023F0186E060EE15E1850030EDBCF14F029
:1004C000040EDBCF15F0000E1416FF0E1516145097
:1004D00002E1010E151808E03B0EE66E550EE66EC1
:1004E000D4EC21F0E552E55263EC22F0DF2A57D735
:1004F000350EE66E550EE66ED4EC21F0E552E5526F
:10050000020E086E096A8EC10DF08FC10EF081ECEB
:1005100020F0030E06C0DBFF040E07C0DBFFD9503E
:10052000030FE96EDACFEAFF800EEE26130EED22FE
:10053000E66A030EE66EDBCF14F0040EDBCF15F097
:10054000166A176A14C0E6FF15C0E6FF16C0E6FF7C
:1005500017C0E6FFABEC23F0186E060EE15E1850F4
:10056000260EE66E550EE66ED4EC21F0E552E5520D
:10057000E66AE66A9EC114F09FC115F0A0C116F0AC
:10058000176A14C0E6FF15C0E6FF16C0E6FF17C0E5
:10059000E6FFABEC23F0186E060EE15E185063EC3C
:1005A00022F008D0160EE66E550EE66ED4EC21F061
:1005B000E552E552050EE15C02E2E16AE552E16EC8
:1005C000E552E7CFD9FF1200D9CFE6FFE1CFD9FF3F
:1005D000020EE126050EE66E550EE66ED4EC21F015
:1005E000E552E5525CEC30F0430EE66E7EEC30F006
:1005F000E552000901E043D0E66AB2EC30F0E55282
:10060000166E176A16C017F0166A16C0E6FF17C0F6
:10061000E6FF010EE66EB2EC30F0E552E552E7CFB0
:1006200017F0E552E7CF16F000011610146E17C050
:1006300015F014C0DEFF15C0DDFF6EEC30F0E66A89
:10064000010EE66EDECF14F0DDCF15F0166A176AE4
:1006500014C0E6FF15C0E6FF16C0E6FF17C0E6FFB0
:10066000ABEC23F0186E060EE15E1850D30EE66E6A
:10067000540EE66ED4EC21F0E552E5520AD06EEC51
:1006800030F0CC0EE66E540EE66ED4EC21F0E5525E
:10069000E552020EE15C02E2E16AE552E16EE552EA
:1006A000E7CFD9FF1200740EE66E540EE66ED4EC5E
:1006B00021F0E552E552D5EC22F0000901E1FBD72B
:1006C0005CEC30F0420EE66E7EEC30F0E552000954
:1006D00001E03BD0430EE66E7EEC30F0E5520009BF
:1006E00001E033D06EEC30F0580EE66E540EE66E3C
:1006F000D4EC21F0E552E552D5EC22F0000901E1FD
:10070000FBD75CEC30F0420EE66E7EEC30F0E5524A
:10071000000901E01AD0450EE66E7EEC30F0E5529D
:10072000000901E012D06EEC30F0320EE66EE66A9F
:10073000B1EC09F0E552E552530EE66E540EE66E4A
:10074000D4EC21F0E552E5520AD06EEC30F0CC0E3C
:10075000E66E540EE66ED4EC21F0E552E55212003E
:10076000D9CFE6FFE1CFD9FFE652400EE66E540E38
:10077000E66ED4EC21F0E552E5520101755101E13C
:1007800079D0550E4A5D09E1310EE66E540EE66EE3
:10079000D4EC21F0E552E55208D0220EE66E540E5C
:1007A000E66ED4EC21F0E552E552F40EE66E18EC5C
:1007B00018F0E552000901E15DD0230EE66EE66A0D
:1007C000B1EC09F0E552E552BCEC17F0DF6E190E02
:1007D000E66E540EE66ED4EC21F0E552E552E66A80
:1007E000E66A48C114F049C115F0166A176A14C0C8
:1007F000E6FF15C0E6FF16C0E6FF17C0E6FFABEC4C
:1008000023F0186E060EE15E18504BC1E6FF18EC9F
:1008100018F0E552000901E12DD00A0EE66EE66AF5
:10082000B1EC09F0E552E552BCEC17F0DF6E110EA9
:10083000E66E540EE66ED4EC21F0E552E552E66A1F
:10084000E66A48C114F049C115F0166A176A14C067
:10085000E6FF15C0E6FF16C0E6FF17C0E6FFABECEB
:1008600023F0186E060EE15E185063EC22F063EC84
:1008700022F00AD06EEC30F0CC0EE66E540EE66E2E
:10088000D4EC21F0E552E552E552E552E7CFD9FF2D
:100890001200D9CFE6FFE1CFD9FF020EE126010E0B
:1008A000F36EFE0EDB5004E0D890F336E806FCE170
:1008B000F350E76E010EE7CFDBFFDF6ADFCF14F006
:1008C0000A0EE76E1418E8AE02D0E73402D0E75003
:1008D000145C0FE2010EDB5001014D1B72EC10F0B5
:1008E000C80EE66EE66AB1EC09F0E552E552DF2A81
:1008F000E5D7020EE15C02E2E16AE552E16EE55203
:10090000E7CFD9FF1200D9CFE6FFE1CFD9FF020E22
:10091000E126010EDB6A040EE66E540EE66ED4ECA0
:1009200021F0E552E552D80EE66E530EE66ED4EC99
:1009300021F0E552E552BD0EE66E530EE66ED4ECA4
:1009400021F0E552E55240DEAF0EE66E530EE66E44
:10095000D4EC21F0E552E552940EE66E530EE66EAD
:10096000D4EC21F0E552E552D5EC22F0000901E18A
:10097000FBD70101010E7E6F9D8A04C129F12A6B0C
:1009800029BF2A6905C12BF12C6B2BBF2C69ACEC5C
:1009900015F001017F5101E1D2D158EC16F054EC71
:1009A00027F0010EDB5001E1BAD03B0EE66E030EDC
:1009B000E66E52C114F053C115F0166A176A15AEEF
:1009C00002D016681768B40E0B6E0C6A0D6A0E6AB8
:1009D00014C006F015C007F016C008F017C009F0E3
:1009E000C3EC31F002C014F003C015F004C016F0DF
:1009F00005C017F0460E0B6E0C0E0C6E0D6A0E6ADB
:100A000014C006F015C007F016C008F017C009F0B2
:100A100020EC20F006C014F007C015F008C016F056
:100A200009C017F014C0E6FF15C0E6FF16C0E6FFC8
:100A300017C0E6FFABEC23F0186E060EE15E18500F
:100A40003B0EE66EE66A89C014F08AC015F0166A9D
:100A5000176A15AE02D01668176814C0E6FF15C0F5
:100A6000E6FF16C0E6FF17C0E6FFABEC23F0186EFA
:100A7000060EE15E18503B0EE66EE66A8BC014F07F
:100A80008CC015F0166A176A15AE02D01668176882
:100A900014C0E6FF15C0E6FF16C0E6FF17C0E6FF6C
:100AA000ABEC23F0186E060EE15E18503B0EE66EBE
:100AB000E66A29C114F02AC115F0166A176A15AE44
:100AC00002D01668176814C0E6FF15C0E6FF16C00E
:100AD000E6FF17C0E6FFABEC23F0186E060EE15EF2
:100AE00018503B0EE66EE66A2BC114F02CC115F0CF
:100AF000166A176A15AE02D01668176814C0E6FFAA
:100B000015C0E6FF16C0E6FF17C0E6FFABEC23F00A
:100B1000186E060EE15E185063EC22F00ED1200E26
:100B2000E66EE66A52C114F053C115F0166A176AF0
:100B300015AE02D016681768B40E0B6E0C6A0D6AFB
:100B40000E6A14C006F015C007F016C008F017C0F2
:100B500009F0C3EC31F002C014F003C015F004C07A
:100B600016F005C017F0460E0B6E0C0E0C6E0D6ADB
:100B70000E6A14C006F015C007F016C008F017C0C2
:100B800009F020EC20F006C014F007C015F008C0F2
:100B900016F009C017F014C0E6FF15C0E6FF16C036
:100BA000E6FF17C0E6FFABEC23F0186E060EE15E21
:100BB0001850910EE66E530EE66ED4EC21F0E5521D
:100BC000E552E66AE66A0001800E8A1509E089C0EE
:100BD00014F08AC015F0146C151E000E152204D0F6
:100BE00089C014F08AC015F0166A176A15AE02D0D3
:100BF0001668176814C0E6FF15C0E6FF16C0E6FFCA
:100C000017C0E6FFABEC23F0186E060EE15E18503D
:100C10000001800E8A1506E14E0EE66EF4EC21F01E
:100C2000E55205D0530EE66EF4EC21F0E552910E3C
:100C3000E66E530EE66ED4EC21F0E552E552E66A1C
:100C4000E66A0001800E8C1509E08BC014F08CC0A0
:100C500015F0146C151E000E152204D08BC014F074
:100C60008CC015F0166A176A15AE02D016681768A0
:100C700014C0E6FF15C0E6FF16C0E6FF17C0E6FF8A
:100C8000ABEC23F0186E060EE15E18500001800EEA
:100C90008C1506E1450EE66EF4EC21F0E55205D028
:100CA000570EE66EF4EC21F0E552890EE66E530E17
:100CB000E66ED4EC21F0E552E552200EE66EE66ACF
:100CC00029C114F02AC115F0166A176A15AE02D0B0
:100CD0001668176814C0E6FF15C0E6FF16C0E6FFE9
:100CE00017C0E6FFABEC23F0186E060EE15E18505D
:100CF000840EE66E530EE66ED4EC21F0E552E5521A
:100D0000200EE66EE66A2BC114F02CC115F0166AAF
:100D1000176A15AE02D01668176814C0E6FF15C032
:100D2000E6FF16C0E6FF17C0E6FFABEC23F0186E37
:100D3000060EE15E185063EC22F001017F6B27D6AE
:100D4000020EE15C02E2E16AE552E16EE552E7CFB4
:100D5000D9FF1200D9CFE6FFE1CFD9FF040EE1267B
:100D6000700EE66E530EE66ED4EC21F0E552E552BD
:100D7000E66A020EE66E83EC31F0E552E552F3CFFF
:100D800014F0F4CF15F0166A15BE1668310E0C6E0D
:100D90000D6A0E6A14C007F015C008F016C009F0FD
:100DA0009FEC20F004C014F005C015F006C016F04A
:100DB000050E1426000E152216220A0E0C6E0D6A60
:100DC0000E6A14C007F015C008F016C009F0F3EC65
:100DD0001FF007C014F008C015F009C016F0176A1C
:100DE00016BE176814C0DFFF010E15C0DBFF020E30
:100DF00016C0DBFF030E17C0DBFF680EE66E530E56
:100E0000E66ED4EC21F0E552E552560EE66E030E86
:100E1000E66ED9CFE9FFDACFEAFFEECFE6FFEECFFD
:100E2000E6FFEECFE6FFEFCFE6FFABEC23F0146E6C
:100E3000060EE15E145063EC22F0E66A010EE66EE7
:100E400083EC31F0E552E552F3CF14F0F4CF15F016
:100E5000166A15BE1668310E0C6E0D6A0E6A14C045
:100E600007F015C008F016C009F09FEC20F004C090
:100E700014F005C015F006C016F0050E1426000E7D
:100E8000152216220A0E0C6E0D6A0E6A14C007F0A7
:100E900015C008F016C009F0F3EC1FF007C014F0FD
:100EA00008C015F009C016F0176A16BE176814C0FE
:100EB000DFFF010E15C0DBFF020E16C0DBFF030EC5
:100EC00017C0DBFF600EE66E530EE66ED4EC21F029
:100ED000E552E552560EE66E030EE66ED9CFE9FFF7
:100EE000DACFEAFFEECFE6FFEECFE6FFEECFE6FF8A
:100EF000EFCFE6FFABEC23F0146E060EE15E14506C
:100F000063EC22F0E66A040EE66E83EC31F0E55203
:100F1000E552F3CF14F0F4CF15F0166A15BE16683B
:100F2000310E0C6E0D6A0E6A14C007F015C008F081
:100F300016C009F09FEC20F004C014F005C015F0B5
:100F400006C016F0050E1426000E152216220A0EF3
:100F50000C6E0D6A0E6A14C007F015C008F016C0BA
:100F600009F0F3EC1FF007C014F008C015F009C039
:100F700016F0176A16BE176814C0DFFF010E15C001
:100F8000DBFF020E16C0DBFF030E17C0DBFF580E9F
:100F9000E66E530EE66ED4EC21F0E552E552560EA5
:100FA000E66E030EE66ED9CFE9FFDACFEAFFEECFA9
:100FB000E6FFEECFE6FFEECFE6FFEFCFE6FFABECCE
:100FC00023F0146E060EE15E145063EC22F063EC25
:100FD00022F0E66AE66A83EC31F0E552E552F3CF9F
:100FE00014F0F4CF15F0166A15BE16682E0E0C6EAE
:100FF0000D6A0E6A14C007F015C008F016C009F09B
:101000009FEC20F004C014F005C015F006C016F0E7
:10101000090E1426000E15221622110E0C6E0D6AF2
:101020000E6A14C007F015C008F016C009F0F3EC02
:101030001FF007C014F008C015F009C016F0176AB9
:1010400016BE176814C0DFFF010E15C0DBFF020ECD
:1010500016C0DBFF030E17C0DBFF510EE66E530E0A
:10106000E66ED4EC21F0E552E552560EE66E020E25
:10107000E66ED9CFE9FFDACFEAFFEECFE6FFEECF9B
:10108000E6FFEECFE6FFEFCFE6FFABEC23F0146E0A
:10109000060EE15E1450D9CFE9FFDACFEAFFD8900F
:1010A000030EEB50000A08E6840EEE5C030EEE58C9
:1010B000000EEE58000EEE5809E2390EE66E530EA1
:1010C000E66ED4EC21F0E552E5521AD0D9CFE9FF13
:1010D000DACFEAFFD890030EEB50000A08E6B60E0E
:1010E000EE5C030EEE58000EEE58000EEE5808E2CD
:1010F000260EE66E530EE66ED4EC21F0E552E55274
:1011000063EC22F0E66A030EE66E83EC31F0E55202
:10111000E552F3CF14F0F4CF15F0166A15BE166839
:10112000310E0C6E0D6A0E6A14C007F015C008F07F
:1011300016C009F09FEC20F004C014F005C015F0B3
:1011400006C016F0050E1426000E152216220A0EF1
:101150000C6E0D6A0E6A14C007F015C008F016C0B8
:1011600009F0F3EC1FF007C014F008C015F009C037
:1011700016F0176A16BE176814C0DFFF010E15C0FF
:10118000DBFF020E16C0DBFF030E17C0DBFF1E0ED7
:10119000E66E530EE66ED4EC21F0E552E552560EA3
:1011A000E66E030EE66ED9CFE9FFDACFEAFFEECFA7
:1011B000E6FFEECFE6FFEECFE6FFEFCFE6FFABECCC
:1011C00023F0146E060EE15E145063EC22F0040E60
:1011D000E15C02E2E16AE552E16EE552E7CFD9FF58
:1011E00012001200D9CFE6FFE1CFD9FFE652F29EFE
:1011F00011EC0BF0B7EC31F0680EE66EE66A3C0ECF
:10120000E66E3EEC31F0E552E552E55293EC27F004
:10121000F29ADF6ADFCF14F0200EE76E1418E8AE02
:1012200002D0E73402D0E750145C0CE2DFCFE9FFD4
:10123000EA6AE9BEEA686E0EE926010EEA22EF6A62
:10124000DF2AE8D70101010E6E6F8E6B8F6B20ECE9
:101250000BF00101010E016F64EC2EF02E0EE66E14
:10126000B4EC10F0E552800EE66EB4EC10F0E552EE
:10127000020EE66EA7EC10F0E552510EE66EA7ECFA
:1012800010F0E552F28CF28E89EC15F0640EE66EE9
:10129000E66AB1EC09F0E552E552C4EC2DF001012B
:1012A000396B3A6B3B6B73510CE0200EE66EA7EC8A
:1012B00010F0E5526BEC2BF0200EE66EB4EC10F063
:1012C000E5524DEC18F0230EE66EE66AB1EC09F03B
:1012D000E552E55210EC16F0320EE66EE66AB1EC1D
:1012E00009F0E552E552640EE66EE66AB1EC09F0EB
:1012F000E552E552010EE66E96EC1AF0E552010158
:101300006E5103E18050100B13E1040EE66EA7EC62
:1013100010F0E552080EE66EB4EC10F0E552010153
:10132000735105E0200EE66EA7EC10F0E5520FD0E9
:10133000080EE66EA7EC10F0E552040EE66EB4EC73
:1013400010F0E552200EE66EB4EC10F0E55264ECBD
:101350002EF0FEEC1AF0D3D7E552E552E7CFD9FFD5
:02136000120079
:0E136200D9CFE6FFE1CFD9FF030EE126F2500E
:10137000200B01E0010EE76E020EE7CFDBFFF29AD1
:10138000FD0EDBCFDEFFDBCFDDFFD9CFE9FFDACF0C
:10139000EAFFEE50ED1008E0F2A4FED7F294DF066B
:1013A000010E01E2DB06F1D7020EDB50E8B0F28A53
:1013B000E8A0F29A030EE15C02E2E16AE552E16E16
:1013C000E552E7CFD9FF1200D9CFE6FFE1CFD9FF31
:1013D000050EE126F250200B01E0010EE76E040E2F
:1013E000E7CFDBFFF29ADE6ADD6ADECF14F0DDCFF5
:1013F00015F0FD0EDBCF16F0FE0EDBCF17F00A0E58
:101400001702F3CF17F01602F3CF16F0F450172699
:1014100015501718E8AE02D0173404D01650145CDB
:101420001750155837E2080EF36E020EF3CFDBFFAC
:10143000030EDB6AD950020FE96EDACFEAFFEE50F5
:10144000ED1009E0F2A4FED7F294020EDB06030EC3
:1014500001E2DB06EFD7F1EC08F09DAA0DD0010107
:10146000A3510101A45D07E0040EDB50E8B0F28A4D
:10147000E8A0F29A15D009D09EAA07D0040EDB503E
:10148000E8B0F28AE8A0F29A0BD0DF2A010E01E35D
:10149000DB2AABD7040EDB50E8B0F28AE8A0F29A60
:1014A000050EE15C02E2E16AE552E16EE552E7CF4A
:1014B000D9FF1200D9CFE6FFE1CFD9FFFD0EDBCF78
:1014C00016F0FE0EDBCF17F00001800E17141BE0A4
:1014D000FD0EDBCF18F0FE0EDBCF19F0186C191ED5
:1014E000000E1922FC0EDB5018C014F019C015F0C4
:1014F00005E0D89015321432E804FBE1146C151E97
:10150000000E152212D0FD0EDBCF1AF0FE0EDBCF3F
:101510001BF0FC0EDB501AC014F01BC015F005E0E8
:10152000D89015321432E804FBE114C0F3FF15C063
:10153000F4FF00D0E552E7CFD9FF1200D9CFE6FF84
:10154000E1CFD9FFD950FC0FE96EFF0EDA20EA6E29
:10155000020ED890EB50000A06E6000EEE5C000E7C
:10156000EE58000EEF583CE2FC0EDBCF17F0FD0EFC
:10157000DBCF18F0FE0EDBCF19F00C680D680E689B
:1015800017C007F018C008F019C009F09FEC20F050
:1015900004C017F005C018F006C019F0FB0EDB50B0
:1015A0001F0B17C014F018C015F019C016F006E094
:1015B000D890163215321432E806FAE10C680D683C
:1015C0000E6814C007F015C008F016C009F09FECB3
:1015D00020F004C014F005C015F006C016F016D0B7
:1015E000D950FC0FE96EFF0EDA20EA6EFB0EDB50DD
:1015F0001F0BEECF14F0EECF15F0EECF16F006E095
:10160000D890163215321432E806FAE114C007F009
:1016100015C008F016C009F000D0E552E7CFD9FF99
:1016200012003F0E926E020EC16EC00E816E400E11
:10163000936E600E826E840E946EC78CF19E1200C3
:10164000D9CFE6FFE1CFD9FFE652DF6ADFCF14F052
:10165000040EE76E1418E8AE02D0E73402D0E7506B
:10166000145C11E2DFCFE9FFEA6AE9BEEA68D890CC
:10167000E936EA36580EE926010EEA22010EEE6E30
:10168000ED6ADF2AE3D70101770E566F56C157F195
:1016900001016F6B000E0101116F126B01010F6FE1
:1016A000106B01010D6F0E6B0101466F476B01015D
:1016B0006C6F6D6B0101686F696B0101666F676B21
:1016C0000101376B386B0101366B36C135F1010111
:1016D000156F166B0101136F146B0101176F186BF7
:1016E00001011D6B1E6B01014C6B01019E6B9F6B19
:1016F000A06BE552E552E7CFD9FF1200D9CFE6FF44
:10170000E1CFD9FFFD0EDBCF14F0FE0EDBCF15F0DD
:101710000001800E15140BE0D950FD0FE96EFF0E8D
:10172000DA20EA6E8C0EEE26180EED22EBD7FD0EB7
:10173000DBCF14F0FE0EDBCF15F0D890155004E689
:101740008C0E145C180E15580BE3D950FD0FE96E82
:10175000FF0EDA20EA6E8C0EEE5E180EED5AE7D719
:10176000FD0EDBCF14F0FE0EDBCF15F014C0F3FF3F
:1017700015C0F4FF00D0E552E7CFD9FF1200D9CF52
:10178000E6FFE1CFD9FF0A0EE126FD0EDBCF14F014
:10179000FE0EDBCF15F0040ED89015321432E8049B
:1017A000FBE11450DF6E0F0EE76EFD0EDBCF14F081
:1017B000FE0EDBCF15F0E7501416156A010E14C0AB
:1017C000DBFF156ADF34FE0B1536146EFB0EDB50A3
:1017D0001424E96EFC0EDB501520EA6E040EEECFE9
:1017E000DBFF050EEDCFDBFFDF2A156ADF34FE0BD2
:1017F0001536146EFB0EDB501424E96EFC0EDB5024
:101800001520EA6E060EEECFDBFF070EEDCFDBFFF5
:10181000010EDB50186E196A060EDBCF16F0070EAC
:10182000DBCF17F0040EDB50165C146E050EDB5098
:101830001758156E14C008F015C009F018C00DF047
:1018400019C00EF054EC20F0020E06C0DBFF030EB0
:1018500007C0DBFF040EDBCF16F0050EDBCF17F061
:1018600016C0E6FF17C0E6FF040EE66E020EDBCFE1
:10187000E6FF030EDBCFE6FF1DDEE552E552E55243
:10188000E552E7CF17F0E552E7CF16F01650F324F4
:10189000146E1750F420156E080E14C0DBFF090EED
:1018A00015C0DBFF080EDBCF14F0090EDBCF15F0FF
:1018B00014C0F3FF15C0F4FF0A0EE15C03E200D090
:1018C000E16AE552E16EE552E7CFD9FF1200D9CFC8
:1018D000E6FFE1CFD9FF030EE126FD0EDBCF14F0CA
:1018E000FE0EDBCF15F00001800E15140BE0D95071
:1018F000FD0FE96EFF0EDA20EA6E8C0EEE26180E52
:10190000ED22EBD7FD0EDBCF14F0FE0EDBCF15F092
:10191000D890155004E68C0E145C180E15580BE385
:10192000D950FD0FE96EFF0EDA20EA6E8C0EEE5EE6
:10193000180EED5AE7D7FD0EDBCF14F0FE0EDBCF0D
:1019400015F0D890155004E6460E145C0C0E155890
:1019500002E2000E01D0010EE76E020EE7CFDBFFC0
:10196000DB500AE0D950FD0FE96EFF0EDA20EA6E77
:10197000460EEE5E0C0EED5A000EE66E020EE66EA0
:10198000FD0EDBCF14F0FE0EDBCF15F0166A15BE90
:10199000166815C016F014C015F014C015F0146ABE
:1019A000230E1426060E1522000E1622460E0C6E6D
:1019B0000C0E0D6E0E6A14C007F015C008F016C0AC
:1019C00009F0F3EC1FF007C014F008C015F009C0CF
:1019D00016F014C0E6FF15C0E6FFD1DEE552E55271
:1019E000E552E552F3CFDEFFF4CFDDFF020EDB5010
:1019F0000CE008680968DECF0DF0DDCF0EF054EC86
:101A000020F006C0DEFF07C0DDFFDECF14F0DDCF23
:101A100015F014C0F3FF15C0F4FF030EE15C03E200
:101A200000D0E16AE552E16EE552E7CFD9FF12003E
:101A3000D9CFE6FFE1CFD9FFFD0EDBCF14F0FE0ECC
:101A4000DBCF15F0230E1426060E152214C0E6FF78
:101A500015C0E6FF3CDFE552E55200D0E552E7CF86
:101A6000D9FF1200D9CFE6FFE1CFD9FF0E0EE12654
:101A7000FD0EDBCF18F0FE0EDBCF19F00001800E5B
:101A800019140BE0FD0EDBCF14F0FE0EDBCF15F0CA
:101A9000146C151E000E152206D0FD0EDBCF14F0BF
:101AA000FE0EDBCF15F0166A176A15AE02D0166867
:101AB0001768040E14C0DBFF050E15C0DBFF060E11
:101AC00016C0DBFF070E17C0DBFFFB0EDBCF18F0E5
:101AD000FC0EDBCF19F0800E19140BE0FB0EDBCFF0
:101AE00014F0FC0EDBCF15F0146C151E000E152241
:101AF00006D0FB0EDBCF14F0FC0EDBCF15F0166A20
:101B0000176A15AE02D01668176814C0DFFF010E01
:101B100015C0DBFF020E16C0DBFF030E17C0DBFF94
:101B2000D950FB0FE96EFF0EDA20EA6EEE50ED1091
:101B30001FE1FD0EDBCF14F0FE0EDBCF15F0800EA3
:101B400015140BE0DD0EF36E0C0EF3CFDBFFF90E78
:101B5000F36E0D0EF3CFDBFF0AD0230EF36E0C0EE7
:101B6000F3CFDBFF060EF36E0D0EF3CFDBFF32D1AA
:101B7000D950FD0FE96EFF0EDA20EA6EEE50ED103F
:101B800018E1FB0EDBCF14F0FC0EDBCF15F0800E5E
:101B900015140AE0460EF36E0C0EF3CFDBFFF36E66
:101BA0000D0EF3CFDBFF04D00C0EDB6A0D0EDB6AEB
:101BB00011D1040EDBCF14F0050EDBCF15F0060EAD
:101BC000DBCF16F0070EDBCF17F0050ED8901436DA
:101BD000153616361736E806F9E114C006F015C0BA
:101BE00007F016C008F017C009F0DFCF0BF0010EA8
:101BF000DBCF0CF0020EDBCF0DF0030EDBCF0EF0CF
:101C000020EC20F0080E06C0DBFF090E07C0DBFF4A
:101C10000A0E08C0DBFF0B0E09C0DBFFD950080F0E
:101C2000E96EDACFEAFFD890030EEB50000A08E61F
:101C3000000EEE5C010EEE58000EEE58000EEE584F
:101C400016E2220EE66E020EE66E080EDBCFE6FF0F
:101C5000090EDBCFE6FF93DDE552E552E552E55292
:101C60000C0EF3CFDBFF0D0EF4CFDBFF61D0D950AC
:101C7000080FE96EDACFEAFFEE52EE06000EEE5ADA
:101C8000EE5A42C214F043C215F0166A176A15AE36
:101C900002D016681768080EDBCF18F0090EDBCFEC
:101CA00019F00A0EDBCF1AF00B0EDBCF1BF0020E81
:101CB000D8901B321A3219321832E806F9E118505E
:101CC0001426195015221A5016221B5017220C0EDA
:101CD00014C0DBFF0D0E15C0DBFF0C0EDBCF16F0C2
:101CE0000D0EDBCF17F00001800E171403E0146A0D
:101CF000156A18D00C0EDBCF18F00D0EDBCF19F0E3
:101D0000193404E218502308060E195405E2230E74
:101D1000146E060E156E06D00C0EDBCF14F00D0EF1
:101D2000DBCF15F00C0E14C0DBFF0D0E15C0DBFF72
:101D3000FB0EDBCF14F0FC0EDBCF15F00001800EA4
:101D400015142EE0FD0EDBCF14F0FE0EDBCF15F0E8
:101D5000153404E214500008000E155411E20C0E64
:101D6000DBCF14F00D0EDBCF15F0460ED8801456E5
:101D70000C0E155614C0DBFF0D0E15C0DBFF0FD087
:101D80000C0EDBCF14F00D0EDBCF15F0460E142633
:101D90000C0E152214C0DBFF0D0E15C0DBFF1AD090
:101DA000FD0EDBCF14F0FE0EDBCF15F0800E151408
:101DB00011E00C0EDBCF14F00D0EDBCF15F08C0E06
:101DC000D8801456180E15560C0E14C0DBFF0D0EDD
:101DD00015C0DBFF0C0EDBCF14F00D0EDBCF15F0C2
:101DE00014C0F3FF15C0F4FF0E0EE15C03E200D057
:101DF000E16AE552E16EE552E7CFD9FF1200D9CF93
:101E0000E6FFE1CFD9FF020EE126E66AE66A83EC3F
:101E100031F0E552E552F3CF14F0F4CF15F0030E94
:101E2000D89015321432E804FBE114C0DEFF15C06F
:101E3000DDFF010EE66EA1C116F0176A16BE176827
:101E4000DE501624146EDD501720156E010E142678
:101E5000000E152214C0E6FF15C0E6FF5AEC0AF08A
:101E6000E552E552E552F3CFA1F1A1C114F0156A94
:101E700014BE156855C216F0176A16BE17681550BD
:101E80001718E8AE02D0173404D01650145C17505F
:101E9000155802E3000E01D0010E010B0101726F13
:101EA000725124E09AC114F09BC115F09CC116F048
:101EB0009DC117F0400E1416156A166A176A145061
:101EC00015101610171009E1800EE66E40D9E55284
:101ED000040EE66E3CD9E55208D0800EE66E44D979
:101EE000E552040EE66E40D9E5522ED0805124E032
:101EF0009AC114F09BC115F09CC116F09DC117F05A
:101F0000800E1416156A166A176A145015101610EA
:101F1000171009E1800EE66E1AD9E552040EE66E3E
:101F200016D9E55208D0800EE66E1ED9E552040E91
:101F3000E66E1AD9E55208D0800EE66E15D9E55244
:101F4000040EE66E11D9E552020EE15C02E2E16A8E
:101F5000E552E16EE552E7CFD9FF12000101960785
:101F6000000E975B965197113DE127C114F028C1EF
:101F700015F0FF0ED8801456000E1556030ED8909B
:101F800015321432E804FBE1050E01011424966FAA
:101F9000000E1520976F0101815105E0510EE66E8C
:101FA000D6D8E5521FD001014DA909D0510EE66ED9
:101FB000DBD8E552010EE66ECAD8E55213D04DA12A
:101FC00009D0510EE66ED0D8E552400EE66EBFD86D
:101FD000E55208D0510EE66EC7D8E552100EE66EF7
:101FE000B6D8E552120002015351E840E8403F0BD9
:101FF000010B4DE02E0EE66EB7D8E55214C114F079
:10200000156A000EE76E1418E8AE02D0143403D03F
:10201000E750D880145405E2040EE66E98D8E552D5
:1020200011D014C114F0156AFF0EE76E1418E8AE53
:1020300002D0E73402D0E750145C04E2080EE66EEA
:1020400086D8E55216C114F0156A000EE76E141812
:10205000E8AE02D0143403D0E750D880145405E21F
:10206000200EE66E74D8E55211D016C114F0156A30
:10207000FF0EE76E1418E8AE02D0E73402D0E75046
:10208000145C04E2020EE66E62D8E5522AD0535187
:10209000E00BE838E840010B24E02E0EE66E64D831
:1020A000E5520101513504E250510008000E51552E
:1020B00005E2080EE66E4BD8E55207D0800E5115AA
:1020C00004E0040EE66E43D8E55201014F3504E208
:1020D0004E51F008000E4F5504E2200EE66E37D840
:1020E000E5521200D9CFE6FFE1CFD9FF020EE1267B
:1020F0004DC1DFFF828A94988296DE52080EDD6E13
:10210000010EDB5016E0DFAE02D0828801D082984B
:10211000DF9EDF46010EE66E52EC33F0E55282861A
:10212000010EE66E52EC33F0E5528296010EDB06AC
:10213000E7D78282829282869488020EE15C02E274
:10214000E16AE552E16EE552E7CFD9FF1200D9CF3F
:10215000E6FFE1CFD9FFFE0EDB5001014D13C2DFD8
:10216000E552E7CFD9FF1200D9CFE6FFE1CFD9FF83
:10217000FE0EDB1C01014D17B5DFE552E7CFD9FF9D
:0221800012004B
:0E218200D9CFE6FFE1CFD9FF030EE126000121
:10219000F05105E0010EDB6A020EDB6A2FD0010E62
:1021A000DB6A020EDB6AFE0EDB50DF6EFD0EDB50DB
:1021B000D880DF5423E3D950010FE96EDACFEAFF6C
:1021C0000A0EEC02F3CFEDFFEF02F3CFEEFFF45077
:1021D000ED26DF50EA6A9B0FE96E000EEA22EF500F
:1021E000D00F146E156AD950010FE96EDACFEAFFED
:1021F0001450EE261550ED22DF2AD8D7010EDBCF82
:1022000014F0020EDBCF15F014C0F3FF15C0F4FF7D
:10221000030EE15C03E200D0E16AE552E16EE552B3
:10222000E7CFD9FF1200D9CFE6FFE1CFD9FF0D0EDE
:10223000E1260001F05109E0090EDB6A0A0EDB6AB3
:102240000B0EDB6A0C0EDB6A68D1FE0EDB50EA6A0D
:102250009B0FE96E000EEA22EF502D0805E1060EF5
:10226000DB6AFE0EDB2A05D0010EF36E060EF3CFFD
:10227000DBFFFE0EDB50E66ED950040FE96EDACFBD
:10228000EAFFE552E750EE6EED6A040EDBCFE9FFA0
:10229000050EDBCFEAFF9B0EE926000EEA22EF5087
:1022A0002E081BE0040EDBCF14F0050EDBCF15F07B
:1022B000FD0EDB50166E176A17501518E8AE02D0E7
:1022C000153404D01450165C1550175806E3040E4C
:1022D000DB2A050E01E3DB2AD8D7040EDBCF14F08E
:1022E000050EDBCF15F01406000E155A1450E66EDD
:1022F000FE0EDBCFE6FF45DFE552E552070EF3CFDA
:10230000DBFF080EF4CFDBFFFD0EDBCFE6FF040E94
:10231000DBCF16F0050EDBCF17F0010E1624E66EAC
:1023200030DFE552E552F3CF14F0F4CF15F014C0CE
:1023300008F015C009F049EC1EF0090E07C0DBFFDC
:102340000A0E08C0DBFF0B0E09C0DBFF0C0E0AC033
:10235000DBFFFD0EDB50166E176A040EDB50165CB9
:10236000146E050EDB501758156E020E14C0DBFFFD
:10237000030E15C0DBFF010EDE6EDD6ADECF14F04A
:10238000DDCF15F0020EDBCF16F0030EDBCF17F01A
:1023900017501518E8AE02D0153404D01450165C4E
:1023A000155017582AE3146A156A200E166E410E4E
:1023B000176ED950090FE96EDACFEAFFEECF07F0BA
:1023C000EECF08F0EECF09F0EFCF0AF014C00CF01A
:1023D00015C00DF016C00EF017C00FF0F3EC1EF094
:1023E0000AC0EDFF09C0EDFF08C0EDFF07C0EFFF19
:1023F000DF2A010E01E3DB2AC1D7060EDB503BE0EA
:10240000070EDBCF08F0080EDBCF09F049EC1EF019
:1024100007C014F008C015F009C016F00AC017F084
:10242000090EDBCF18F00A0EDBCF19F00B0EDBCF55
:102430001AF00C0EDBCF1BF018C00CF019C00DF019
:102440001AC00EF01BC00FF014C007F015C008F042
:1024500016C009F017C00AF05DEC1EF0090E07C0A7
:10246000DBFF0A0E08C0DBFF0B0E09C0DBFF0C0E02
:102470000AC0DBFF52D0070EDBCF08F0080EDBCF1F
:1024800009F049EC1EF007C018F008C019F009C0A7
:102490001AF00AC01BF0090EDBCF1CF00A0EDBCFCE
:1024A0001DF00B0EDBCF1EF00C0EDBCF1FF01CC09F
:1024B0000CF01DC00DF01EC00EF01FC00FF018C0B4
:1024C00007F019C008F01AC009F01BC00AF05DEC53
:1024D0001EF007C014F008C015F009C016F00AC0BD
:1024E00017F00C6A0D6A800E0E6EBF0E0F6E14C0D0
:1024F00007F015C008F016C009F017C00AF046EC46
:102500001FF0090E07C0DBFF0A0E08C0DBFF0B0E31
:1025100009C0DBFF0C0E0AC0DBFF090EDBCF14F095
:102520000A0EDBCF15F00B0EDBCF16F00C0EDBCF57
:1025300017F014C006F015C007F016C008F017C059
:1025400009F00D0EE15C03E200D0E16AE552E16EB4
:10255000E552E7CFD9FF1200D9CFE6FFE1CFD9FF8F
:102560000C0EE1260001F05109E0080EDB6A090EAD
:10257000DB6A0A0EDB6A0B0EDB6A83D0FD0EDB50D2
:10258000F90FE66EFE0EDBCFE6FFFBDDE552E5520E
:10259000F3CF14F0F4CF15F014C008F015C009F013
:1025A00049EC1EF007C0DEFF08C0DEFF09C0DEFFF9
:1025B0000AC0DDFFDD52DD52FD0EDBCFE6FFFD0E72
:1025C000DB50FA0FE66E2FDEE552E552040E06C030
:1025D000DBFF050E07C0DBFF060E08C0DBFF070EA2
:1025E00009C0DBFFD9CFE9FFDACFEAFFEECF14F065
:1025F000EECF15F0EECF16F0EFCF17F0040EDBCFD5
:102600001CF0050EDBCF1DF0060EDBCF1EF0070E13
:10261000DBCF1FF0890E0C6E880E0D6E0E6E3C0E19
:102620000F6E1CC007F01DC008F01EC009F01FC0CF
:102630000AF046EC1FF007C018F008C019F009C0F6
:102640001AF00AC01BF018C00CF019C00DF01AC027
:102650000EF01BC00FF014C007F015C008F016C034
:1026600009F017C00AF05DEC1EF0080E07C0DBFF92
:10267000090E08C0DBFF0A0E09C0DBFF0B0E0AC003
:10268000DBFF080EDBCF14F0090EDBCF15F00A0ECE
:10269000DBCF16F00B0EDBCF17F014C006F015C021
:1026A00007F016C008F017C009F00C0EE15C03E259
:1026B00000D0E16AE552E16EE552E7CFD9FF1200A2
:1026C000EBC0EEF00001EE05EF6FEB51EA6A9B0FF5
:1026D000E96E000EEA22EF502C0822E0EB51EA6A84
:1026E0009B0FE96E000EEA22EF502A0819E0EC5128
:1026F000EB5D14E2EB51EA6A9B0FE96E000EEA22F1
:10270000EF502C080BE0EB51EA6A9B0FE96E000ECC
:10271000EA22EF502A0802E0EB2BE9D7EB05EF6F36
:10272000EB2BEE51EF5D02E3000E01D0010EF06FD6
:102730001200D9CFE6FFE1CFD9FF090EE126C0DFB5
:10274000BFDFBEDFEFC0E6FFEEC0E6FF05DFE5520C
:10275000E55206C014F007C015F008C016F009C015
:1027600017F0C60E0C6E6B0E0D6ED90E0E6E470E68
:102770000F6E14C007F015C008F016C009F017C09E
:102780000AF046EC1FF017EC21F006C0DEFF07C090
:10279000DEFF08C0DEFF09C0DDFFDD52DD5290DF45
:1027A0000001EE51EA6A9B0FE96E000EEA22EF503B
:1027B00053081CE1D9CFE9FFDACFEAFFEECF06F0EC
:1027C000EECF07F0EECF08F0EFCF09F00B680C6802
:1027D0000D680E68C3EC31F002C0DEFF03C0DEFFFF
:1027E00004C0DEFF05C0DDFFDD52DD5269DFEFC052
:1027F000E6FFEEC0E6FFB0DEE552E55206C014F09B
:1028000007C015F008C016F009C017F0C60E0C6E10
:102810006B0E0D6ED90E0E6E470E0F6E14C007F0C4
:1028200015C008F016C009F017C00AF046EC1FF0FA
:1028300017EC21F0040E06C0DBFF050E07C0DBFF1E
:10284000060E08C0DBFF070E09C0DBFF39DF000101
:10285000EE51EA6A9B0FE96E000EEA22EF5057082C
:102860001EE1040EDBCF06F0050EDBCF07F0060EEF
:10287000DBCF08F0070EDBCF09F00B680C680D68A2
:102880000E68C3EC31F0040E02C0DBFF050E03C07E
:10289000DBFF060E04C0DBFF070E05C0DBFF10DF09
:1028A000EFC0E6FFEEC0E6FF6CDCE552E552080E35
:1028B000F3CFDBFF05DFEFC0E6FFEEC0E6FF61DC34
:1028C000E552E552F3CFFFF0FBDEFADEEFC0E6FFA4
:1028D000EEC0E6FFA8DCE552E55206C014F007C0E2
:1028E00015F008C016F009C017F00C6A0D6A0E6AE0
:1028F0003F0E0F6E14C007F015C008F016C009F0A7
:1029000017C00AF05DEC1EF0E8EC20F008C093F070
:1029100009C094F0080EDB50000802E3000E01D05D
:10292000010E01017F6F0001FE5120E001017F5186
:102930001DE0DFCF81F0010EDBCF82F0020EDBCF96
:1029400083F0030EDBCF84F0040EDBCF85F0050EA1
:10295000DBCF86F0060EDBCF87F0070EDBCF88F0EB
:1029600093C095F094C096F00001FE6BD9CFE9FFBB
:10297000DACFEAFF00018151EE5C146E8251EE580D
:10298000156E8351EE58166E8451EE58176E14C0B2
:1029900089F015C08AF0D950040FE96EDACFEAFF4A
:1029A0008551EE5C146E8651EE58156E8751EE58C7
:1029B000166E8851EE58176E14C08BF015C08CF04F
:1029C000090EE15C02E2E16AE552E16EE552E7CF11
:1029D000D9FF12000101A4510101A35D01E198D0CA
:1029E0000001995101E184D0010A67E0020A2EE05A
:1029F000010A01E08DD0B4EC22F000019A6F9A51E7
:102A00000101A21B0001EC51EA6A9B0FE96E000E66
:102A1000EA229AC0EFFFEC2B2A0E9A5D03E0500EDB
:102A2000EC5D05E1F36BF16B030E996F0ED0240E94
:102A30009A5D09E1EC6BEB6BED6B0101A26B0001A0
:102A4000010E996F02D0A2C1F2F062D0B4EC22F074
:102A500000019A6F020EF35D27E2410E9A5D13E3C7
:102A6000100EF103F350146E156A0A0E9A25166EB5
:102A7000176A000E1722410E165E000E175A1450E8
:102A80001624F16F0FD0100EF103F350146E156A77
:102A90009A51166E176A300E165E000E175A1450B1
:102AA0001624F16FF32B08D0F151F25D02E0000E15
:102AB00001D0010E806F996B2BD0B4EC22F0000195
:102AC0009A6F9A510101A21B0001ED51EA6A600F51
:102AD000E96E020EEA22EF509A5D08E1040EED5D08
:102AE00003E1020E996F01D0ED2B01D0996B10D04C
:102AF000B4EC22F000019A6F240E9A5D08E1EC6BB1
:102B0000EB6BED6B0101A26B0001010E996F00D020
:102B10001200D9CFE6FFE1CFD9FFE652000E000147
:102B2000896F8A6B8B6F8C6B01017E6B0001806BF0
:102B30000001010EFE6F01017F6B0101546B556BAB
:102B40000001996BEC6BECC0EBF0200E9A6FE55234
:102B5000E552E7CFD9FF12000001805114E0020EC8
:102B6000E66EA7EC10F0E552040EE66EB4EC10F041
:102B7000E5520001806BDDDD01017F5103E00101C1
:102B8000546B556B31D09AC114F09BC115F09CC1A8
:102B900016F09DC117F00F0E1416156A166A176A03
:102BA00014501510161017101FE154C114F055C120
:102BB00015F0166A176A15AE02D016681768173432
:102BC000000E171809E6D880140E1454000E155480
:102BD000000E1654000E175403E201017F6B04D05F
:102BE0000101542B000E5523020EE66EB4EC10F0DA
:102BF000E55201017F5106E0040EE66EB4EC10F0E0
:102C0000E55205D0040EE66EA7EC10F0E552120076
:102C1000D9CFE6FFE1CFD9FFE552E7CFD9FF1200C8
:102C20005CEC30F0420EE66E7EEC30F0E5520009CE
:102C300001E039D0470EE66E7EEC30F0E552000937
:102C400001E031D0740EE66E7EEC30F0E552000902
:102C500001E029D0720EE66E7EEC30F0E5520009FC
:102C600001E021D06EEC30F05CEC30F0420EE66E0C
:102C70007EEC30F0E552000901E015D04C0EE66E16
:102C80007EEC30F0E552000901E00DD06EEC30F042
:102C9000320EE66EE66AB1EC09F0E552E55201014A
:102CA000010E746F04D00101746B6EEC30F01200F1
:102CB000D9CFE6FFE1CFD9FF0B0EE1260101745118
:102CC00001E150D15CEC30F0430EE66E7EEC30F06A
:102CD000E552E76E0A0EE7CFDBFFE66AB2EC30F0B2
:102CE000E552166E176A16C017F0166A16C0E6FF90
:102CF00017C0E6FF010EE66EB2EC30F0E552E55289
:102D0000E7CF17F0E552E7CF16F000011610146E6A
:102D100017C015F0040E14C0DBFF050E15C0DBFF55
:102D20006EEC30F0040EDBCF14F0050EDBCF15F0A7
:102D3000166A176A15AE02D016681768460E0B6E33
:102D40000C0E0C6E0D6A0E6A14C006F015C007F06A
:102D500016C008F017C009F0C3EC31F002C014F03F
:102D600003C015F004C016F005C017F0080E0B6E76
:102D7000070E0C6E0D6A0E6A14C006F015C007F03F
:102D800016C008F017C009F020EC20F006C014F0BF
:102D900007C015F008C016F009C017F0230E145E26
:102DA000060E155A000E165A175A060E14C0DBFFEF
:102DB000070E15C0DBFF080E16C0DBFF090E17C09B
:102DC000DBFF060EDBCFE6FF070EDBCFE6FF7EEC78
:102DD0000BF0E552E552F3CF52F1F4CF53F1D95055
:102DE000040FE96EDACFEAFF0F0E0D6E0E6AEECF1A
:102DF00008F0EDCF09F0CDEC1FF008C0EEFF09C0E0
:102E0000EDFF040EDBCFDEFFDBCFDDFF01014F3531
:102E100004E24E51F008000E4F5508E20101506BDC
:102E2000516B01014E07000E4F5B9CD0F00E4E1906
:102E300001E14F5107E1DECF4EF1DDCF4FF101014E
:102E4000506B516B0101DE504E5D146EDD504F59D9
:102E5000156E14C0DEFF15C0DDFFDECF14F0DDCF30
:102E600015F0153404E314508808FF0E155405E3DB
:102E7000F00EDE26000EDD2213D0DECF14F0DDCF03
:102E800015F0153404E214507808000E155408E2C9
:102E9000D9CFE9FFDACFEAFFF00EEE5E000EED5A71
:102EA000DECF16F0DDCF17F0D880175004E7EC0E18
:102EB000165CFF0E175804E2EC0E146E156813D062
:102EC000DECF18F0DDCF19F0193404E218501408E1
:102ED000000E195404E2140E146E156A04D0DECFED
:102EE00014F0DDCF15F014C0DEFF15C0DDFF080EB5
:102EF000E66E50C118F051C119F0030E1902F3CF5C
:102F000019F01802F3CF18F0F4501926DE501824E7
:102F1000166EDD501920176ED89016361736D890D9
:102F2000163617365EC21AF01B6A1ABE1B680001FD
:102F30001A501602F3CF14F0F4CF15F01702F35025
:102F400015261B501602F350152614C0E6FF15C0B7
:102F5000E6FF5AEC0AF0E552E552E552F3CF50F1A4
:102F6000F4CF51F10B0EE15C02E2E16AE552E16E51
:102F7000E552E7CFD9FF12005CEC30F0EE0EE66EC2
:102F80007EEC30F0E552000901E04BD0F60EE66E23
:102F90007EEC30F0E552000901E043D05CEC30F00B
:102FA000EF0EE66E7EEC30F0E552000901E039D01C
:102FB000010EE66EB2EC30F0E5520101486F496B4C
:102FC00048C149F1486B6EEC30F05CEC30F0EE0E2D
:102FD000E66E7EEC30F0E552000901E022D0F70EFB
:102FE000E66E7EEC30F0E552000901E01AD05CECB0
:102FF00030F0EF0EE66E7EEC30F0E552000901E0B5
:1030000010D0010EE66EB2EC30F0E552146E156A87
:10301000145001014813155049136EEC30F0010EA5
:1030200006D06EEC30F00101756B000E00D012007E
:10303000D9CFE6FFE1CFD9FF5CEC30F0EE0EE66EC3
:103040007EEC30F0E552000901E01FD0F40EE66E90
:103050007EEC30F0E552000901E017D0FE0EDBCF28
:10306000E6FF7EEC30F0E552000901E00ED06EEC98
:1030700030F0FE0EDB5001014B5D02E0000E01D08E
:10308000010E0101766F010E04D06EEC30F0000EDF
:1030900000D0E552E7CFD9FF1200D9CFE6FFE1CF4C
:1030A000D9FFE652000E0101986F996B0101466F3E
:1030B000476B5CEC30F0EE0EE66E7EEC30F0E552E5
:1030C000000901E05DD0D00EE66E7EEC30F0E552F6
:1030D000000901E055D05CEC30F0EF0EE66E7EECBE
:1030E00030F0E552000901E04BD0010EE66EB2EC83
:1030F00030F0E55201014A6F6EEC30F0550E0101DF
:103100004A5D04E101012E0E4B6F03D001016E0EEA
:103110004B6F4BC1E6FF8CDFE552000901E130D077
:103120000A0EE66EE66AB1EC09F0E552E55224DFDC
:10313000DF6E48C13FF149C140F10101416BF40E1E
:10314000E66E76DFE552000901E11AD01E0EE66E4A
:10315000E66AB1EC09F0E552E5520EDFDF6E48C1D8
:103160003CF149C13DF101013E6B4BC1E6FF60DF1F
:10317000E552000901E104D00101010E756F06D08E
:103180000101816B81C175F16EEC30F0E552E552C1
:10319000E7CFD9FF1200D9CFE6FFE1CFD9FF060E66
:1031A000E1260101982B000E99230101755101E1DF
:1031B000AAD1080E010199AF02D0D89003D0985D32
:1031C000000E995903E3010176510FE1200E010130
:1031D00099AF02D0D89003D0985D000E995901E2C2
:1031E00092D10101765101E08ED10101986B996B6A
:1031F000C3DE010801E087D10101765123E0F40E1E
:10320000E66E16DFE55201019251931107E048C1C5
:103210003FF149C140F10101416B13D048C117F0A2
:1032200049C118F0196A01013F51175C146E4051F1
:103230001858156E41511958166E14C044F115C036
:1032400045F161D14BC1E6FFF3DEE5520101925138
:1032500093110CE048C13CF149C13DF101013E6BC5
:103260000101816B0101466B476B4DD101014DBFDF
:1032700006D0800EE66EA7EC10F0E55205D0800E69
:10328000E66EB4EC10F0E5520101815106E1010156
:10329000426B436B0101010E816F01013C51010141
:1032A000485F01013D510101495B050EE66E47C2D1
:1032B00016F0176A16BE1768010116504403F3CFC3
:1032C00014F0F4CF15F04503F35000011526175004
:1032D00001014403F35000011526100E1426000EC0
:1032E000152214C0E6FF15C0E6FF5AEC0AF0E552BD
:1032F000E552E552F35001014827F450492342C1F9
:10330000DEFF43C1DDFF030EE66E070E086E096A9D
:1033100042C10DF043C10EF054EC20F00650010103
:103320004825146E07504921156E040E1426000E10
:10333000152214C0E6FF15C0E6FF5AEC0AF0E5526C
:10334000E552E552F3CF42F1F4CF43F10101DE50F3
:10335000425D146EDD504359156E040E14C0DBFF40
:10336000050E15C0DBFFD880435104E7FE0E425D19
:10337000FF0E435904E2FE0E426F43690DD0433500
:1033800004E242510808000E435504E2080E426F61
:10339000436B02D043C143F14CC214F0156A14BE12
:1033A000156842C108F043C109F014C00DF015C002
:1033B0000EF054EC20F0020E06C0DBFF030E07C037
:1033C000DBFF020EDBCF14F0030EDBCF15F00101A3
:1033D00015504719E8AE02D0473504D04651145C69
:1033E0004751155804E24607000E475B14D0020E01
:1033F000DBCF14F0030EDBCF15F047511518E8AE04
:1034000002D0153404D01450465D1550475903E2DC
:10341000462B000E4723020EDBCF14F0030EDBCF4A
:1034200015F015504719E8AE02D0473504D0465183
:10343000145C4751155803E24607000E475B5FC214
:103440001AF01B6A1ABE1B68040EDBCF16F0050EBD
:10345000DBCF17F0D880175004E7FB0E165CFF0E89
:10346000175804E2FB0E146E156817D0040EDBCF5C
:1034700018F0050EDBCF19F0193404E218500808D3
:10348000000E195404E2080E146E156A06D0040EDC
:10349000DBCF14F0050EDBCF15F014C008F015C01B
:1034A00009F01AC00DF01BC00EF054EC20F00650CD
:1034B0000101462707504723D880475104E7FB0EF8
:1034C000465DFF0E475904E2FB0E466F47690DD07B
:1034D000473504E246510F08000E475504E20F0E2F
:1034E000466F476B02D047C147F101014DBF06D07F
:1034F000800EE66EA7EC10F0E55205D0800EE66E69
:10350000B4EC10F0E552060EE15C02E2E16AE5522D
:0A351000E16EE552E7CFD9FF12008B
:06351A00D10EE66E560E14
:10352000E66ED4EC21F0E552E5521200D9CFE6FF69
:10353000E1CFD9FFFE0EDB5008E09C0EE66E5E0E7A
:10354000E66ED4EC21F0E552E552340EE66E5F0EE5
:10355000E66ED4EC21F0E552E5520101735109E029
:10356000C70EE66E560EE66ED4EC21F0E552E5523B
:1035700008D0B70EE66E560EE66ED4EC21F0E5529A
:10358000E552AE0EE66E560EE66ED4EC21F0E55234
:10359000E5520101745109E0A50EE66E560EE66E85
:1035A000D4EC21F0E552E55208D0B70EE66E560E87
:1035B000E66ED4EC21F0E552E5529A0EE66E560E18
:1035C000E66ED4EC21F0E552E5520101755109E0B7
:1035D000A50EE66E560EE66ED4EC21F0E552E552ED
:1035E00008D0B70EE66E560EE66ED4EC21F0E5522A
:1035F000E55293DFE552E7CFD9FF1200D9CFE6FFBE
:10360000E1CFD9FF0A0EE126D5EC22F0E76E030EDA
:10361000E7CFDBFF01017E5101E02FD3030EDB502A
:1036200001E12BD3030EDBCFE6FF32EC32F0E552A3
:10363000F3CF14F0F4CF15F01450151009E0030E79
:10364000DBCFE6FF44EC32F0E552030EF3CFDBFFB5
:10365000030EDB503F0A01E107D37D0A01E1FFD2EF
:10366000730A01E183D2030A01E180D2010A01E178
:103670007DD2070A01E17AD2010A01E177D2030A79
:1036800001E174D2010A01E171D20F0A01E16ED2A7
:103690006B0A01E167D21B0A01E160D2030A01E172
:1036A00059D2080A01E152D20A0A01E127D2080AD6
:1036B00001E120D2060A01E119D2630A01E111D227
:1036C000720A01E10AD2040A01E1AAD10A0A01E15F
:1036D000A3D1160A01E177D1030A62E0010A01E0F1
:1036E000CCD27F0EE66E560EE66ED4EC21F0E5529B
:1036F000E55201010151146E156A153404E21450AB
:103700007708000E155406E2320EE66EF4EC21F056
:10371000E55205D0310EE66EF4EC21F0E55264EC92
:103720002EF0010EF36E040EF3CFDBFF440EDE6EBF
:10373000020EDD6EDECF14F0DDCF15F05F0ED88007
:103740001454020E15542AE3730EE66E560EE66EFE
:10375000D4EC21F0E552E552040EDBCFF3FFDB2A77
:10376000F350E66E01EC22F0E5526F0EE66E560E57
:10377000E66ED4EC21F0E552E552DECFE9FFDDCF75
:10378000EAFF090EEFCFDBFFDBCFE6FF42EC22F0D2
:10379000E552DF2A010E01E3DB2ACCD7BEDE6DD273
:1037A000020EE66EA7EC10F0E552730EE66E560EB2
:1037B000E66ED4EC21F0E552E5521EEC23F0FF0F4B
:1037C000E76E040EE7CFDBFF6F0EE66E560EE66E79
:1037D000D4EC21F0E552E55255EC23F0E76E090EEA
:1037E000E7CFDBFF01010151146E156A153404E2C5
:1037F00014507708000E155408E2200EF36E050EE3
:10380000F3CFDBFF060EDB6A04D0050EDB6A060E83
:10381000DB6A040EDB50146E156A530E166E020E30
:10382000176E440E165E020E175A1650141802E157
:103830001750151802E1090EDB96090EDBCFE6FFE3
:10384000040EDB50E76E050EDBCF14F0060EDBCF67
:1038500015F0E7501426000E15221450E66ED1EC38
:103860002EF0E552E552040EDB50146E156A530E2D
:10387000166E020E176E440E165E020E175A165082
:10388000141802E1175015184EE101010151146E90
:10389000156A153404E214507708000E155405E239
:1038A000050EDB6A060EDB6A07D0200EF36E050EEE
:1038B000F3CFDBFF060EDB6A090EDB90DB94DB96B1
:1038C000DB9ADB9CDB9EDBCFE6FF040EDB50E76E72
:1038D000050EDBCF14F0060EDBCF15F0E7501426F3
:1038E000000E15221450E66E50EC2EF0E552ED0B52
:1038F000E552E710E76E090EE7CFDBFFDBCFE6FF0F
:10390000040EDB50E76E050EDBCF14F0060EDBCFA6
:1039100015F0E7501426000E15221450E66ED1EC77
:103920002EF0E552E55202014F3504E3FF0E4F033E
:10393000F35001D04F51166E176A16BE176852C267
:1039400018F0196A18BE1968000118501602F3CF52
:1039500014F0F4CF15F01702F35015261950160283
:10396000F3501526153404E214507F08000E155448
:1039700023E27F0E146E4FC20EF014C009F0B3ECB8
:103980001FF0090E09C0DBFFDBCFE6FF520E166EFB
:10399000020E176E440E165E020E175A050EDB500D
:1039A0001624146E060EDB501720156E1450E66EAA
:1039B000D1EC2EF0E552E552020EE66EB4EC10F0BA
:1039C000E552ABDD5AD15F0EE66E560EE66ED4ECD4
:1039D00021F0E552E55239C1E6FF42EC22F0E55212
:1039E000580EE66E560EE66ED4EC21F0E552E55226
:1039F0003AC1E6FF42EC22F0E552520EE66E560E58
:103A0000E66ED4EC21F0E552E5523BC1E6FF42EC14
:103A100022F0E55282DD31D19BEC01F07EDD2DD12B
:103A20004D0EE66E560EE66ED4EC21F0E552E552F0
:103A300000C1E6FF01EC22F0E552490EE66E560E9B
:103A4000E66ED4EC21F0E552E55204C1E6FF42EC0B
:103A500022F0E552450EE66E560EE66ED4EC21F0ED
:103A6000E552E55205C1E6FF42EC22F0E552410E77
:103A7000E66E560EE66ED4EC21F0E552E55206C134
:103A8000E6FF42EC22F0E5523D0EE66E560EE66E83
:103A9000D4EC21F0E552E55201C1E6FF01EC22F041
:103AA000E552390EE66E560EE66ED4EC21F0E55284
:103AB000E55202C1E6FF01EC22F0E552350EE66E5A
:103AC000560EE66ED4EC21F0E552E55203C1E6FF56
:103AD00001EC22F0E55221DDD0D0AAEC06F01DDD8C
:103AE000CCD00101010E7E6F9D8AC7D083EC04F01B
:103AF00014DDC3D028EC00F010DDBFD0210EE66E3F
:103B0000560EE66ED4EC21F0E552E552E66AE66A1E
:103B10004EEC01F0146E156A166A176A14C0E6FFBF
:103B200015C0E6FF16C0E6FF17C0E6FFABEC23F0BA
:103B3000186E060EE15E18500E0EE66E560EE66E1C
:103B4000D4EC21F0E552E552E8DC97D0E4EC02F049
:103B5000E4DC93D053EC03F0E0DC8FD0B0EC03F066
:103B6000DCDC8BD0E66AE2DCE55287D0FE0EE66E46
:103B7000550EE66ED4EC21F0E552E552030EDBCF94
:103B8000E6FFF4EC21F0E5523A0EE66EF4EC21F09B
:103B9000E552030EDB50380A4EE00F0A43E0010AFB
:103BA00038E0030A2DE0010A22E0070A17E0010AC3
:103BB0000CE0030A01E048D0F90EE66E550EE66E01
:103BC000D4EC21F0E552E5523FD0F40EE66E550EEE
:103BD000E66ED4EC21F0E552E55236D0F00EE66EFA
:103BE000550EE66ED4EC21F0E552E5522DD0EA0EEA
:103BF000E66E550EE66ED4EC21F0E552E55224D087
:103C0000E50EE66E550EE66ED4EC21F0E552E55277
:103C10001BD0DE0EE66E550EE66ED4EC21F0E552BA
:103C2000E55212D0D90EE66E550EE66ED4EC21F0B8
:103C3000E552E55209D0D20EE66E550EE66ED4EC92
:103C400021F0E552E55200D063EC22F0030EDB5088
:103C5000CF0FE66E49EC04F0E5525FDC0ED063EC6A
:103C600022F0F29E80EC3EF0B80EE66E5F0EE66E3D
:103C7000D4EC21F0E552E55250DC0A0EE15C02E2A0
:0E3C8000E16AE552E16EE552E7CFD9FF12008E
:023C8E00019E95
:103C900008D0019E09AE05D0086C091EE86A092209
:103CA000018E09C003F008C002F0136A126A8E0E7A
:103CB000046E056A6AEF21F00F7E016AA6EC21F01E
:103CC000BEEC21F001B64EEF21F001A20AD001AA0C
:103CD00003D001BE4EEF21F001A45AEF21F057EFBF
:103CE00021F001AA05D001AC5AEF21F057EF21F0E5
:103CF00001A00AD001A808D001BE04D001A402D0BE
:103D000063EF21F067EF21F0126A056A0F500A5C39
:103D1000116E10E307C013F008C002F009C003F0F1
:103D20000AC010F00CC007F00DC008F00EC009F07A
:103D3000013A09D00CC013F00DC002F00EC003F020
:103D40000FC010F0116C019E01BC018E10C004F078
:103D500001B096EF21F01A0E116096EF21F0046A7F
:103D60000A6A01A408D0076C081E091E0A1EE86A28
:103D7000082209220A2201AC08D0136C021E031E7D
:103D8000041EE86A022203220422066A115207E096
:103D90000A340932083207320632112EF9D7075099
:103DA000132608500222095003220A50042206C09A
:103DB00012F0019E04AE0BD0126C131E021E031EE5
:103DC000041EE86A1322022203220422018E04A0A8
:103DD00006D0D8800332023213321232102A10C0B9
:103DE00004F06AEF21F0016AA6EC21F0BEEC21F0AC
:103DF00001B64EEF21F001A205D001BA4EEF21F03D
:103E000055EF21F001BA61EF21F001A005D001B812
:103E10004EEF21F061EF21F001B855EF21F0056A76
:103E20007F0E0A24046EE86A05220F50045EE86AD9
:103E3000055A1A0E106E0A6A126A136A026A036A37
:103E40000C50075E0D50085A0E50095A000E0A5ABF
:103E500009E70C5007260D5008220E500922000ECB
:103E60000A2201D0128AD8900736083609360A3657
:103E7000D8901236133602360336102EE1D7095089
:103E800008100710D8A4128A6AEF21F0016AA6EC84
:103E900021F0BEEC21F001B64EEF21F001A205D0D9
:103EA00001B84EEF21F055EF21F001AA05D001B085
:103EB0004EEF21F055EF21F001B002D001A802D061
:103EC00061EF21F0056A0F500A24046EE86A0522AA
:103ED0007E0E045EE86A055A126A136A026A036A71
:103EE0000E500902F4CF03F0F3CF02F00D50090297
:103EF000F3501326F4500222000E03220E50080243
:103F0000F3501326F4500222000E03220C50090233
:103F1000F3501226F4501322000E022203220D50F9
:103F20000802F3501226F4501322000E022203223C
:103F30000E500702F3501226F4501322000E0222F4
:103F400003220C500802F4501226000E1322022203
:103F500003220D500702F4501226000E13220222F3
:103F600003226AEF21F0006A0EAEB9EF1FF00E6C6B
:103F7000001E09AEBEEF1FF0096C001E44EC33F0CA
:103F800009BEC8EF1FF000AE000C096C056C000CF8
:103F900000BEC5EF1FF00188FF0C006A0EAED6EF21
:103FA0001FF00D6C0E1EE86A0E22001E09AEDEEF39
:103FB0001FF0086C091EE86A0922001E20EC33F08D
:103FC00009BEEEEF1FF000AE000C086C091EE86A97
:103FD0000922046C051EE86A0522000C00BEE5EF0C
:103FE0001FF00188FF0C006A0EAEFEEF1FF00C6C94
:103FF0000D1E0E1EE86A0D220E22001E09AE08EFED
:1040000020F0076C081E091EE86A08220922001E1B
:104010009DEC32F009BE1BEF20F000AE000C076CE7
:10402000081E091EE86A08220922036C041E051EE8
:1040300004220522000C00BE0FEF20F00188FF0CC7
:10404000006AE86A0EAE2DEF20F00B6C0C1E0D1E00
:104050000E1E0C220D220E22001E09AE38EF20F09B
:10406000066C071E081E091E072208220922001ED0
:1040700058EC32F009BE4FEF20F000AE000C066C99
:10408000071E081E091EE86A072208220922026C80
:10409000031E041E051E032204220522000C00BE7E
:1040A0003FEF20F00188FF0C09C013F008C012F0A8
:1040B00008500D02F4CF07F0F3CF06F009500E02BE
:1040C000F4CF09F0F3CF08F00D02F3500726F450B7
:1040D0000822E86A092212500E02F3500726F45013
:1040E0000822E86A09220EAE7AEF20F01250085E2C
:1040F0001350095A13AE000C0D50085E0E50095AA9
:10410000000C08C012F008500D02F4CF07F0F3CFF6
:1041100006F009500E02F4CF09F0F3CF08F00D02BB
:10412000F3500726F4500822E86A092212500E02C2
:10413000F3500726F4500822E86A0922000C09C04F
:1041400013F008C012F007C011F007500C02F4CFB2
:1041500005F0F3CF04F008500D02F4CF07F0F3CFD1
:1041600006F00C02F3500526F4500622E86A0722F6
:1041700011500D02F3500526F4500622E86A07227A
:1041800009500C02F3500626F450072209500D0284
:10419000086AE86A0822F3500726F45008221150F2
:1041A0000E02F3500626F4500722096AE86A082234
:1041B000092212500E02F3500726F4500822E86A32
:1041C000092213500E02F3500826F4500922000C65
:1041D000016AA6EC21F001B6F2EF20F001A20ED0A8
:1041E00001B405D07F0E096EFF0E086E1FD0800E41
:1041F000096E086A1BD0096A086A18D001B0FBD79B
:104200008F0E0A60EDD77E0E0A64F5D78E0E0A5C1B
:1042100005E0D890093208320A2AF8D701A406D05E
:10422000086C091EE86A092209AEE5D71200016A86
:10423000A6EC21F001B621EF21F001A20FD001B4CC
:1042400007D07F0E096EFF0E086E076E066E25D032
:10425000800E096E01D0096A000EF6D701B0FBD7B7
:10426000066A9F0E0A60EBD77E0E0A64F4D79E0E94
:104270000A5C07E0D89009320832073206320A2A6F
:10428000F6D701A40AD0066C071E081E091EE86AAC
:1042900007220822092209AEDED712007F0E0A6E1D
:1042A000FF0E096E086E076E12007F0E01BEFF0E34
:1042B0000A6E02D07F0E0A6E800E096E086A076AC7
:1042C000F3D701AE04D0800E0A6E096AF7D70A6AE6
:1042D000096AF4D70350021013101210F8E005BE5B
:1042E000F0D703BE0CD004500510EBE0D890123686
:1042F0001336023603360406D8A00506F2D7055059
:10430000D4E10428D2E012AE11D07F0E121402E1E3
:1043100013A00CD0132AE86A0222032207E3D880F4
:10432000033202321332042A0428BFE00450C9E0E9
:1043300013C007F002C008F00334096E04300A6E9F
:1043400009320A9E01BE0A8E54EF21F009360A3660
:1043500002E30184017E06E101800A6A096A086AB3
:10436000076A12000A2803E0D88009321200D890A8
:10437000093202E101821200018612000E360F3668
:1043800002E3018C017E06E101880F6A0E6A0D6A64
:104390000C6A12000F2803E0D8800E321200D89069
:0843A0000E32EAE1018A12006D
:0843A800D9CFE6FFE1CFD9FFF8
:1043B000FD0EDBCFF6FFFE0EDBCFF7FF0800F5505A
:1043C0000FE0FD0EDBCFF6FFDB2AFE0EDBCFF7FFA3
:1043D00001E3DB2A0800F550E66E06D8E552E8D77F
:1043E000E552E7CFD9FF1200D9CFE6FFE1CFD9FFE1
:1043F0009EA8FED7FE0EDB50AD6EE552E7CFD9FF8B
:104400001200D9CFE6FFE1CFD9FF640E146E14C0BD
:104410000EF0FE0EDBCF09F044EC33F00950300F04
:10442000E66EE2DFE552640E146E14C00EF0FE0E6E
:10443000DBCF09F044EC33F0FE0E05C0DBFF0A0EC3
:10444000146E14C00EF0FE0EDBCF09F044EC33F016
:104450000950300FE66EC8DFE5520A0E146E14C024
:104460000EF0FE0EDBCF09F044EC33F0FE0E05C07B
:10447000DBFFDB50300FE66EB7DFE552E552E7CFEA
:10448000D9FF1200D9CFE6FFE1CFD9FFFE0EDBCF77
:1044900014F014340BE32D0EE66EA6DFE552FE0E8B
:1044A000DB50FF0DFE0EF3CFDBFF04D02B0EE66ECC
:1044B0009BDFE552FE0EDBCFE6FFA3DFE552E552C0
:1044C000E7CFD9FF12000D0EE66E8EDFE5520A0E21
:1044D000E66E8ADFE5521200D9CFE6FFE1CFD9FFC1
:1044E000FE0EDB50090808E2FE0EDB50410FF60F0E
:1044F000E66E7ADFE55206D0FE0EDB50300FE66E38
:1045000073DFE552E552E7CFD9FF1200D9CFE6FFBE
:10451000E1CFD9FFFE0EDB380F0BE66EDDDFE55293
:10452000FE0EDB500F0BE66ED7DFE552E552E7CF0C
:10453000D9FF1200D9CFE6FFE1CFD9FFFD0EDBCFC7
:1045400014F0FE0EDBCF15F015C014F0156A1450F0
:10455000E66EDCDFE552FD0EDBCFE6FFD7DFE5528E
:10456000E552E7CFD9FF1200D9CFE6FFE1CFD9FF5F
:10457000E6520101A351EA6AA50FE96E010EEA2293
:10458000EFCFDFFFA329146E156A166A176A3F0E74
:104590001416156A166A176A14C0A3F1DF5000D00A
:1045A000E552E552E7CFD9FF1200D9CFE6FFE1CFC0
:1045B000D9FFE6529DAA1FD00101A3510101A45DBC
:1045C00016E00101A351EA6AA50FE96E010EEA2285
:1045D000EFCFDFFFA329146E156A166A176A3F0E24
:1045E0001416156A166A176A14C0A3F101D0DF6A9F
:1045F000DF501FD01ED09EAA1AD0AB50020B03E191
:10460000AB50040B0CE0AB98AB8801018D5104E07A
:10461000210EE66EE9DEE552AE50DF6E08D0AE50F8
:10462000DF6EDFCFE6FFE0DEE552DF5002D0000EA6
:1046300000D0E552E552E7CFD9FF1200D9CFE6FF0F
:10464000E1CFD9FF020EE126010EDB6AAEDFDF6E9D
:10465000300EDF5CFBE3DF503908F8E3300EDF5C3F
:104660000A0D010EF3CFDBFFA0DFDF6E300EDF5C43
:10467000FBE3DF503908F8E3300EDF5C146E010E07
:10468000DBCFE7FF1450E726010EE7CFDBFFDB505F
:10469000146E020EE15C03E200D0E16AE552E16EC5
:1046A0001450E552E7CFD9FF1200D9CFE6FFE1CF92
:1046B000D9FF030EE126010EDB6A020EDB6A75DF0D
:1046C000DF6E300EDF5C03E3DF50390803E22D0EAE
:1046D000DF5CF5E12D0EDF5C0DE1010EF36E020EE5
:1046E000F3CFDBFF62DFDF6E300EDF5CFBE3DF501A
:1046F0003908F8E3300EDF5C0A0D010EF3CFDBFF63
:1047000054DFDF6E300EDF5CFBE3DF503908F8E387
:10471000300EDF5C146E010EDBCFE7FF1450E7268E
:10472000010EE7CFDBFF020EDB5006E0010EDB508F
:10473000FF0D010EF3CFDBFF010EDB50146E030EF5
:10474000E15C03E200D0E16AE552E16E1450E5520B
:10475000E7CFD9FF1200D9CFE6FFE1CFD9FF170E7F
:10476000E126D950FB0FE96EFF0EDA20EA6ED890F1
:10477000030EEB50000A08E6000EEE5C000EEE5849
:10478000000EEE58000EEE5823E22D0EE66E2CDEE3
:10479000E552FB0EDBCF06F0FC0EDBCF07F0FD0E83
:1047A000DBCF08F0FE0EDBCF09F00B680C680D685C
:1047B0000E68C3EC31F0FB0E02C0DBFFFC0E03C041
:1047C000DBFFFD0E04C0DBFFFE0E05C0DBFF04D0E7
:1047D000200EE66E09DEE5520C0EDB6AFB0EDBCF27
:1047E00006F0FC0EDBCF07F0FD0EDBCF08F0FE0E6F
:1047F000DBCF09F00A0E0B6E0C6A0D6A0E6A20EC14
:1048000020F00F0E06C0DBFF100E07C0DBFF110EFD
:1048100008C0DBFF120E09C0DBFF0F0EDBCF18F064
:10482000100EDBCF19F0110EDBCF1AF0120EDBCF1A
:104830001BF00A0E0B6E0C6A0D6A0E6A18C006F0A9
:1048400019C007F01AC008F01BC009F0C3EC31F022
:1048500002C018F003C019F004C01AF005C01BF024
:10486000D950FB0FE96EFF0EDA20EA6E1850EE5CAD
:10487000146E1950EE58156E1A50EE58166E1B50E5
:10488000EE58176E0D0E14C0DBFFDB50300FE66ED6
:10489000D9CF14F0DACF15F00C0EDBCFF3FFDB2A03
:1048A000F350166E176A16BE176814501624E96E78
:1048B00015501720EA6EE552E750EF6ED9500F0FF2
:1048C000E96EDACFEAFFFB0EEECFDBFFFC0EEECF98
:1048D000DBFFFD0EEECFDBFFFE0EEECFDBFFFB0EB0
:1048E000DBCF07F0FC0EDBCF08F0FD0EDBCF09F0CD
:1048F000FE0EDBCF0AF00A34000E0A1809E6D88053
:10490000000E0754000E0854000E0954000E0A54FD
:1049100001E264D70C0EDBCF14F0FA0EDB28E76E51
:104920001418E8AE02D0E73402D0E750145C16E267
:10493000FA0EDBCF15F0000EE76E1518E8AE02D0C8
:10494000153403D0E750D880155408E2300EE66ED7
:104950004BDDE5522E0EE66E47DDE552FA0EDBCF5B
:10496000E6FF0C0EDB50E552E75CFF0FE76E0E0E24
:10497000E7CFDBFFDBCF14F0143439E20E0EDBCFD0
:1049800014F0156A166A176A14AE03D01568166813
:104990001768130E14C0DBFF140E15C0DBFF150ED5
:1049A00016C0DBFF160E17C0DBFFD950130FE96EE0
:1049B000DACFEAFFD890030EEB50000A08E6000EAB
:1049C000EE5C000EEE58000EEE58000EEE580FE3AF
:1049D000300EE66E09DDE552D950130FE96EDACFDD
:1049E000EAFFEE06000EEE5AEE5AEE5ADED70C0E35
:1049F000DB06D9CF14F0DACF15F0DBCF16F0176A4B
:104A000016BE176814501624E96E15501720EA6E6A
:104A1000EF50E66EE9DCE552FA0EDB50F36E0C0E59
:104A2000DB50F35C12E10C0EDBCF14F0000EE76EEE
:104A30001418E8AE02D0143403D0E750D8801454D0
:104A400004E22E0EE66ED0DCE5520C0EDBCF14F045
:104A5000000EE76E1418E8AE02D0143403D0E7500D
:104A6000D8801454C4E3F90EDB5005E0F90EDBCF17
:104A7000E6FFBADCE552170EE15C02E2E16AE552BC
:0A4A8000E16EE552E7CFD9FF120006
:064A8A009AC114F09BC16B
:104A900015F09CC116F09DC117F00F0E1416156A83
:104AA000166A176A145015101610171026E1010126
:104AB00027C114F028C115F02707000E285B00015C
:104AC000800E151404E00101276B286B16D001013C
:104AD00027C116F028C117F02707000E285B1734EE
:104AE00004E21650F008000E175404E2F00E276F8F
:104AF000286B03D02707000E285B1200D9CFE6FFF2
:104B0000E1CFD9FF110EE126FB0EDBCF08F0FC0E42
:104B1000DBCF09F000018B51085C146E8C510958F1
:104B2000156E060E14C0DBFF070E15C0DBFFFD0E71
:104B3000DBCF08F0FE0EDBCF09F000018951085CE5
:104B4000146E8A510958156E080E14C0DBFF090E49
:104B500015C0DBFF080EDBCF1DF0090EDBCF1EF00A
:104B60001F6A1EBE1F68080EDBCF1AF0090EDBCFCE
:104B70001BF01C6A1BBE1C681AC007F01BC008F0A3
:104B80001CC009F01DC00CF01EC00DF01FC00EF0BF
:104B90009FEC20F004C017F005C018F006C019F013
:104BA000060EDBCF23F0070EDBCF24F0256A24BEF0
:104BB0002568060EDBCF20F0070EDBCF21F0226A3E
:104BC00021BE226820C007F021C008F022C009F0F1
:104BD00023C00CF024C00DF025C00EF09FEC20F097
:104BE00017500424146E18500520156E1950062015
:104BF000166E0E0E14C0DBFF0F0E15C0DBFF100E7D
:104C000016C0DBFFD9500E0FE96EDACFEAFF020EB5
:104C1000D890EB50000A06E6000EEE5C000EEE584F
:104C2000000EEF5805E2146A156A166A176A2CD04E
:104C30000E0EDBCF18F00F0EDBCF19F0100EDBCF0E
:104C40001AF01B6A1ABE1B681B34000E1B1809E6FB
:104C5000D880190E1854000E1954000E1A54000E64
:104C60001B5406E2190E146E156A166A176A0CD0E8
:104C70000E0EDBCF14F00F0EDBCF15F0100EDBCFD6
:104C800016F0176A16BE1768040E14C0DBFF050E77
:104C900015C0DBFF080EDBCFE6FF090EDBCFE6FF1A
:104CA000060EDBCF16F0070EDBCF17F0166C171EC3
:104CB000000E172216C0E6FF17C0E6FF32EC0DF01B
:104CC000E552E552E552E55201015251F35C146E92
:104CD0005351F458156E14C0E6FF15C0E6FF7EEC84
:104CE0000BF0E552E552F3CFDEFFF4CFDDFFDECF70
:104CF000E6FFDDCFE6FF67EC0CF0E552E552F3CFBF
:104D000014F0F4CF15F0146C151E000E152214C00B
:104D100008F015C009F0040EDBCF0DF0050EDBCF57
:104D20000EF054EC20F0086A096A07AE02D0086859
:104D30000968A00E0626000E072208220922400E4E
:104D40000B6E010E0C6E0D6A0E6A20EC20F00A0E3E
:104D500006C0DBFF0B0E07C0DBFF0A0EDBCF08F03F
:104D60000B0EDBCF09F008500101292709502A2337
:104D7000D8802A5104E7100E295DFF0E2A5904E25B
:104D8000100E296F2A690DD02A3504E22951F00846
:104D9000000E2A5504E2F00E296F2A6B02D02AC1B8
:104DA0002AF1DECFE6FFDDCFE6FF18EC0DF0E5528D
:104DB000E552F3CF14F0F4CF15F0146C151E000E6D
:104DC000152214C008F015C009F0040EDBCF0DF059
:104DD000050EDBCF0EF054EC20F0086A096A07AE2E
:104DE00002D008680968A00E0626000E07220822D5
:104DF0000922400E0B6E010E0C6E0D6A0E6A20EC3D
:104E000020F00C0E06C0DBFF0D0E07C0DBFF0C0E02
:104E1000DBCF08F00D0EDBCF09F0085001012B2786
:104E200009502C23D8802C5104E7100E2B5DFF0E67
:104E30002C5904E2100E2B6F2C690DD02C3504E296
:104E40002B51F008000E2C5504E2F00E2B6F2C6B4A
:104E500002D02CC12CF1110EE15C02E2E16AE552B4
:104E6000E16EE552E7CFD9FF120001017F511BE04F
:104E7000745119E082510AE189C08DF08AC08EF028
:104E80008BC08FF08CC090F0010E826F8FC0E6FF58
:104E900090C0E6FF8DC0E6FF8EC0E6FF2FDEE55234
:104EA000E552E552E552120001017F510AE0000E81
:104EB000E66EE66AE66EE66A21DEE552E552E55206
:104EC000E5521200010100510101276F286B04C156
:104ED00029F101012A6B29BF2A6905C12BF10101C2
:104EE0002C6B2BBF2C6906C12DF101012E6B2DBF40
:104EF0002E69ACEC15F001016E5103E06F5101E039
:104F000011D0815102E0B1DF0DD0826B010101515E
:104F1000146E156A153404E214507708000E155407
:064F200001E2C2DF1200F5
:0A4F2600530EE66EBAEC32F0E552CD
:104F3000310EE66E7CEC32F0E552840EE66EF1EC5A
:104F400032F0E552020153390F0B010BE8B0BD807E
:104F5000E8A0BD90FE0EE66ED6EC32F0E5524E0EA5
:104F6000CB6E0101A46BA4C1A3F1A4C1A2F19D9ACF
:104F70001200DACFE4FFE2CFDAFFE65200D0E552CA
:104F8000E5CFDAFF1100DACFE4FFE2CFDAFFE9CFB5
:104F9000E4FFEACFE4FFF6CFE4FFF7CFE4FFF5CF7D
:104FA000E4FFF3CFE4FFF4CFE4FFFACFE4FF00EE39
:104FB00000F0140EE80403E3EECFE4FFFBD700EEAD
:104FC00014F0120EE80403E3EECFE4FFFBD7E65241
:104FD000D9CFE6FFE1CFD9FFE6529EA20DD09E9237
:104FE0000101715103E04E0ECB6E14D1010E716FB1
:104FF000EA0ECB6E0101F36B9EA422D1CC6A9E9285
:105000000101716BBECFF7F1BFCFF8F10101F96B70
:10501000F70EE96E010EEA6E020EEB50F619E8AEDD
:1050200002D0F63506D0F451EE5CF551EE58F6514B
:10503000EE5805E2FF0EF45FF55B000EF65BF40E32
:10504000E96E010EEA6EEE50F75D296EEE50F859EA
:105050002A6EEE50F9592B6E010E1F0B29C026F057
:105060002AC027F02BC028F006E0D890283227323B
:105070002632E806FAE126C0FAF127C0FBF1F7C1B3
:10508000F4F1F8C1F5F1F9C1F6F1BD704E0ECB6E39
:10509000BD50010B266E020153390F0B010B261870
:1050A00021E00101F35101E11CD0020EF35D05E1A5
:1050B000FAC1E7F1FBC1E8F114D0040EF35D05E19C
:1050C000FAC1EBF1FBC1ECF10CD0060EF35D08E187
:1050D000FAC1EFF1FBC1F0F1EF510101026F01D014
:1050E00099D0ABD00101F30505E1FAC1E5F1FBC1AF
:1050F000E6F1A3D0030EF35D05E1FAC1E9F1FBC1CE
:10510000EAF19BD0050EF35D01E077D0FAC1EDF135
:10511000FBC1EEF1E6C126F0276A010E261801E177
:1051200027506AE1E8C128F0296A010E281801E138
:10513000295062E1EAC12AF02B6A010E2A1801E126
:105140002B505AE1ECC12CF02D6A010E2C1801E114
:105150002D5052E1EEC12EF02F6A010E2E1801E102
:105160002F504AE1020153417F0B010B1AE001016C
:10517000E9510101006FFF0E0101E515266E276A56
:10518000770E265E000E275A26C004F1FF0EE715A3
:10519000266E276A770E265E000E275A26C005F176
:1051A00019D00101E5510101006FFF0E0101E71562
:1051B000266E276A770E265E000E275A26C004F157
:1051C000FF0EE915266E276A770E265E000E275A17
:1051D00026C005F1FF0EEB15266E276A770E265EB8
:1051E000000E275A26C006F1ED510101016F0101A1
:1051F0006E6B010E706F21D00DD0070EF35D0AE1CA
:10520000FAC1F1F1FBC1F2F1F1510101036F0101AA
:10521000F36913D00101706B010E6E6F01019E2BBB
:10522000000E9F23A0230101F369020153390F0BE4
:10523000010B02E0BD8001D0BD909E940101F32BD3
:105240009E50200B3BE09D50200B38E09E9AAB50C7
:10525000020B03E1AB50040B0DE0AE50DF6E010119
:105260008D5105E0210EE66EF4EC21F0E552AB988D
:10527000AB881FD0AE50DF6E01018D5105E0DFCF4E
:10528000E6FFF4EC21F0E5520101A429266E276A1D
:10529000286A296A3F0E2616276A286A296A26C0C4
:1052A000A4F1A451EA6AA50FE96E010EEA22DFCF4C
:1052B000EFFF01017E5102E0EAEC14F0F250200B06
:1052C00006E0F250040B03E0F29402015407E552A9
:1052D000E552E7CFD9FFE55200EE25F0120EE804C3
:1052E00003E3E5CFEDFFFBD700EE13F0140EE80467
:1052F00003E3E5CFEDFFFBD7E5CFFAFFE5CFF4FF02
:10530000E5CFF3FFE5CFF5FFE5CFF7FFE5CFF6FFFC
:0E531000E5CFEAFFE5CFE9FFE5CFDAFF1100B8
:02531E005265D6
:10532000663A20200900202A2A204C4F57203C2092
:10533000392E3556202A2A2000202A2A204C49506E
:105340004F20414C41524D203C203956202A2A20E2
:1053500000426174743A09005961773A20200900CB
:1053600050697463683A0900526F6C6C3A20090006
:105370000D0A416E616C6F672063682E207465733F
:10538000740D0A000920503D0009202D3E20523D99
:10539000000920000D0A507265737320616E792038
:1053A0006B657920746F20636F6E742E0D0A004355
:1053B0004F4E4E454354204750530D0A00756E69B9
:1053C0007473204D657472657320616E642044654A
:1053D00067726565730D0A006D6F6E69746F727325
:1053E0002047505320696E70757420756E74696C17
:1053F0002066756C6C20706F7765722072657365BE
:10540000740D0A000D0A47505320746573740D0A19
:10541000000954656D703A200050726573733A202C
:105420000900547970653A09534D443530300D0AFE
:1054300000547970653A09424D503038350D0A00F4
:105440000D0A4261726F6D657465722074657374C4
:105450000D0A004F4B0D0A000D0A50726573732040
:10546000616E79206B657920746F2046494E4953EF
:10547000480D0A000D0A43616C69622E20636F6D4E
:1054800070617373200D0A526F7461746520686FC8
:1054900072697A6F6E74616C6C7920373230206477
:1054A000656720696E207E3330207365632E21206E
:1054B0000D0A507265737320616E79206B657920D7
:1054C000746F2053544152542E0D0A004641494CEA
:1054D0000D0A0064656720286E6F7420636F727216
:1054E000656374656420666F72206F7269656E749F
:1054F0006174696F6E206F6E206169726672616D92
:1055000065290D0A000D0A436F6D70617373207475
:105510006573740D0A00286E6F206E6577207661C2
:105520006C73290D0A006D530D0A476C697463682A
:1055300065733A09004761703A0900204641494CB9
:10554000003A092030780052782076616C733A0D69
:105550000A000D0A506F732E2052782050504D0DC6
:105560000A000D0A4E65672E2052782050504D0DCE
:105570000A00093078000D0A284163632E206E6FFF
:10558000742070726573656E74290D0A00446F771C
:105590006E2D3E55703A20202020090046726F6E15
:1055A000742D3E4261636B3A2009004C6566742D90
:1055B0003E52696768743A2009000D0A41636365C9
:1055C0006C65726F6D6574657220746573743A0DE5
:1055D0000A0042656570657200417578330059654F
:1055E0006C6C6F77004175783100477265656E00AD
:1055F00052656400426C75650041757832000D0A91
:105600004F757470757420746573740D0A0020648E
:10561000657669636528732920666F756E640D0A67
:10562000000D0A4932432064657669636573202E54
:105630002E2E0D0A002C373A002C363A002C353A23
:10564000002C593A002C4E3A002C523A000D0A54C4
:105650003A00205961773A0020507463683A000D8F
:105660000A4E65757472616C20526F6C6C3A002042
:105670003D20000D0A526567697374657220000D44
:105680000A506172616D65746572206C6973742073
:10569000666F72207365742023004261726F6D65BE
:1056A00074657220004F4E4C494E450D0A00436F01
:1056B0006D7061737320006E6F7420617661696C28
:1056C00061626C650D0A004F4E4C494E450D0A0053
:0656D000000D0A2320007A
:0A56D600D9CFE6FFE1CFD9FFE6527D
:1056E000020EE66EE66AE4EC09F0E552E5520101CD
:1056F000666B676B0101686B696B01016A6B6B6BB1
:10570000DF6A100EDF5C24E2A70EE66E4FEC2DF090
:10571000E552080B01E1F8D710EC2EF001012F51F2
:105720000101662701013051010167230101335155
:10573000010168270101345101016923010131513F
:1057400001016A270101325101016B23DF2AD9D7F8
:10575000040EE66E080E0101156A6625146E675187
:10576000152214C0E6FF15C0E6FF5AEC0AF0E55218
:10577000E552E552F3CF66F1F4CF67F1040EE66E21
:10578000080E0101156A6825146E6951152214C0AE
:10579000E6FF15C0E6FF5AEC0AF0E552E552E55285
:1057A000F3CF68F1F4CF69F1040EE66E080E010143
:1057B000156A6A25146E6B51152214C0E6FF15C0D8
:1057C000E6FF5AEC0AF0E552E552E552F3CF6AF1F2
:1057D000F4CF6BF10101D880675104E79D0E665D3F
:1057E000FF0E675904E29D0E146E15680FD06735E1
:1057F00004E266516308000E675504E2630E146EFE
:10580000156A04D066C114F067C115F014C039F1EF
:105810000101D880695104E79D0E685DFF0E69594A
:1058200004E29D0E146E15680FD0693504E26851CC
:105830006308000E695504E2630E146E156A04D005
:1058400068C114F069C115F014C03AF16AC116F0CC
:105850006BC117F0000E165E040E175AD880175051
:1058600004E79D0E165CFF0E175804E29D0E146EA1
:1058700015681BD06AC118F06BC119F0000E185ED4
:10588000040E195A193404E218506308000E195412
:1058900004E2630E146E156A08D06AC114F06BC17D
:1058A00015F0000E145E040E155A14C03BF1E552BB
:1058B000E552E7CFD9FF1200D9CFE6FFE1CFD9FFFC
:1058C000060EE1260101735101E1B2D010EC2EF079
:1058D0002FC166F130C167F131C16AF132C16BF19C
:1058E00033C168F134C169F15BC214F0156A14BEAA
:1058F000156814500101665F1550675B5CC214F0B7
:10590000156A14BE156814500101685F1550695B73
:1059100059C214F0156A14BE1568145001016A5F6B
:1059200015506B5B040E6B5F050EE66E13C114F031
:1059300014C115F0F10E1502F3CF15F0FF0E14028D
:10594000F3501526F10E1402F3CF14F0F45015267F
:10595000100E1426000E152214C0E6FF15C0E6FF37
:105960005AEC0AF0E552E552E552F3500101665F48
:10597000F450675B0101356B0101673504E2665144
:105980000A08000E675503E2010135690CD00A0EC2
:1059900067AF02D0D89003D0665D000E675903E26E
:1059A0000101010E356F0101686D691F000E692349
:1059B000050EE66E15C114F016C115F0F10E1502B4
:1059C000F3CF15F0FF0E1402F3501526F10E14025A
:1059D000F3CF14F0F4501526100E1426000E1522E5
:1059E00014C0E6FF15C0E6FF5AEC0AF0E552E55296
:1059F000E552F3500101685FF450695B0101366BB9
:105A00000101693504E268510A08000E695503E294
:105A1000010136690CD00A0E69AF02D0D89003D0CC
:105A2000685D000E695903E20101010E366F03D073
:105A300001016C6B6D6B060EE15C02E2E16AE552FE
:0A5A4000E16EE552E7CFD9FF120036
:065A4A00D9CFE6FFE1CF19
:105A5000D9FFE6529498829A080EDF6EDF501AE062
:105A60008296FE0EDBAE02D0828801D08298DBCF18
:105A7000F3FFF39EF346F3CFDBFF010EE66E52EC2D
:105A800033F0E5528286010EE66E52EC33F0E552B9
:105A9000DF06E4D7E552E552E7CFD9FF1200D9CFB0
