:020000040000FA
:0600000065EF20F0120084
:020006001200E6
:060008003DEF1AF01200AA
:02000E00C250DE
:08001000020B01E0010E1200D9
:0600180033EF1AF01200A4
:02001E000300DD
:10002000DF41000000010000EA000000584100002C
:1000300000030000870000003C410000A700000012
:040040001C000000A0
:0C004400010EE66E81EC20F0E552120087
:10005000D9CFE6FFE1CFD9FFE652010EDF6EF2DF26
:10006000938E81BE04D0DF2A01E101D0FAD7EADF06
:10007000DF5000D0E552E552E7CFD9FF1200D9CFCB
:10008000E6FFE1CFD9FFE652938CE2DFDF6E819C81
:10009000939CD8DF819E939EE552E552E7CFD9FF2E
:1000A0001200D9CFE6FFE1CFD9FFE652939C819CA5
:1000B000CFDFDF6E938CC6DFE552E552E7CFD9FF85
:1000C0001200D9CFE6FFE1CFD9FFE652080EDF6E6E
:1000D000DF5017E0FE0EDBAE02D0938C02D0819C85
:1000E000939CB6DF00090BE0819E939EFE0EDBCF52
:1000F000F3FFF39EF346F3CFDBFFDF06E9D7010EF4
:100100000FD0938CA5DF000909E08150400B01E07E
:10011000010EDF6E819E939EDF5002D0010E00D053
:10012000E552E552E7CFD9FF1200D9CFE6FFE1CF84
:10013000D9FF020EE126DF6A938CDE52080EDD6ED7
:10014000010EDB5010E084DF00090BE0DF9EDF468C
:1001500081AC02D0000EDF80819E939E010EDB06F3
:10016000EFD7000E11D0FE0EDB50E8B0818CE8A076
:10017000819C939C6DDF000905E0819E939EDF507A
:1001800003D002D0000E00D01E6E020EE15C02E22F
:10019000E16AE552E16E1E50E552E7CFD9FF120049
:1001A0006EDF420EE66E8DDFE552000901E03ED0C3
:1001B000470EE66E86DFE552000901E037D0740E87
:1001C000E66E7FDFE552000901E030D0720EE66E88
:1001D00078DFE552000901E029D063DF50DF420EED
:1001E000E66E6FDFE552000901E020D0770EE66E83
:1001F00068DFE552000901E019D0080EE66E61DF04
:10020000E552000901E012D0720EE66E5ADFE552A7
:10021000000901E00BD045DF020EE66EE66AEBEC6A
:1002200009F0E552E5520201010E896F51EF00F02D
:10023000D9CFE6FFE1CFD9FF060EE12602018951B1
:1002400001E101D11CDF430EE66E3BDFE552000900
:1002500005E027DF0201486B496BE5D0E66A65DF00
:10026000E552206E216A20C021F0206A20C0E6FFFE
:1002700021C0E6FF010EE66E58DFE552E552E7CFFA
:1002800021F0E552E7CF20F0000120101E6E21C0C2
:100290001FF0040E1EC0DBFF050E1FC0DBFF01DFD9
:1002A000D950040FE96EDACFEAFF0F0E0D6E0E6A19
:1002B000EECF08F0EDCF09F04FEC20F008C0EEFFD4
:1002C00009C0EDFF040EDBCFDEFFDBCFDDFF020157
:1002D000473504E24651F008000E475508E2020196
:1002E000486B496B02014607000E475B9CD0F00E3D
:1002F000461901E1475107E1DECF46F2DDCF47F273
:100300000201486B496B0201DE50465D1E6EDD50F6
:1003100047591F6E1EC0DEFF1FC0DDFFDECF1EF07F
:10032000DDCF1FF01F3404E31E508808FF0E1F545A
:1003300005E3F00EDE26000EDD2213D0DECF1EF028
:10034000DDCF1FF01F3404E21E507808000E1F544A
:1003500008E2D9CFE9FFDACFEAFFF00EEE5E000E39
:10036000ED5ADECF20F0DDCF21F0D880215004E718
:10037000EC0E205CFF0E215804E2EC0E1E6E1F688E
:1003800013D0DECF22F0DDCF23F0233404E222505D
:100390001408000E235404E2140E1E6E1F6A04D0CB
:1003A000DECF1EF0DDCF1FF01EC0DEFF1FC0DDFF61
:1003B000080EE66E48C222F049C223F0030E230263
:1003C000F3CF23F02202F3CF22F0F4502326DE50A5
:1003D0002224206EDD502320216ED8902036213635
:1003E000D89020362136C1C024F0256A24BE256865
:1003F000000124502002F3CF1EF0F4CF1FF02102A1
:10040000F3501F2625502002F3501F261EC0E6FF82
:100410001FC0E6FF93EC0AF0E552E552E552F3CF38
:1004200048F2F4CF49F20201925193110BE1DECF71
:1004300066F2DDCF67F20201D89066376737D89051
:100440006637673707D002019251931103E1020129
:10045000666B676B060EE15C02E2E16AE552E16EF3
:10046000E552E7CFD9FF12000ADEEE0EE66E29DE76
:10047000E552000901E03FD0F60EE66E22DEE552BD
:10048000000901E038D0FBDDEF0EE66E1ADEE55222
:10049000000901E030D0010EE66E47DEE5520201B0
:1004A0003E6F3F6B3EC23FF23E6BFBDDE8DDEE0E82
:1004B000E66E07DEE552000901E01DD0F70EE66E9C
:1004C00000DEE552000901E016D0D9DDEF0EE66E40
:1004D000F8DDE552000901E00ED0010EE66E25DEE2
:1004E000E5521E6E1F6A1E5002013E131F503F133D
:1004F000D8DD010E05D0D5DD02018A6B000E00D0DB
:100500001200D9CFE6FFE1CFD9FFB9DDEE0EE66EDE
:10051000D8DDE552000901E01CD0F40EE66ED1DD15
:10052000E552000901E015D0FE0EDBCFE6FFC9DD84
:10053000E552000901E00DD0B4DDFE0EDB500201F2
:10054000435D02E0000E01D0010E02018B6F010E2F
:1005500003D0A7DD000E00D0E552E7CFD9FF12008F
:10056000D9CFE6FFE1CFD9FFE652000E02019E6F20
:100570009F6B0201406F416B82DDEE0EE66EA1DDE6
:10058000E552000901E058D0D00EE66E9ADDE55242
:10059000000901E051D073DDEF0EE66E92DDE55209
:1005A000000901E049D0010EE66EBFDDE55202010F
:1005B000426F77DD550E0201425D04E102012E0E0D
:1005C000436F03D002016E0E436F43C2E6FF99DF13
:1005D000E552000901E130D00A0EE66EE66AEBEC66
:1005E00009F0E552E55240DFDF6E3EC237F23FC20E
:1005F00038F20201396BF40EE66E83DFE552000932
:1006000001E11AD01E0EE66EE66AEBEC09F0E55247
:10061000E5522ADFDF6E3EC234F23FC235F20201FC
:10062000366B43C2E6FF6DDFE552000901E104D0FD
:100630000201010E8A6F05D00201906B90C28AF20E
:1006400030DDE552E552E7CFD9FF1200D9CFE6FF02
:10065000E1CFD9FF060EE12602019E2B000E9F235B
:1006600002018A5101E1AAD1080E02019FAF02D016
:10067000D89003D09E5D000E9F5903E302018B5179
:100680000FE1200E02019FAF02D0D89003D09E5DF3
:10069000000E9F5901E292D102018B5101E08ED1EF
:1006A00002019E6B9F6BE0DE010801E087D1020131
:1006B0008B5123E0F40EE66E24DFE55202019451E3
:1006C000951107E03EC237F23FC238F20201396BA2
:1006D00013D03EC221F03FC222F0236A02013751FB
:1006E000215C1E6E385122581F6E39512358206EDE
:1006F0001EC03CF21FC03DF261D143C2E6FF01DFE4
:10070000E5520201945195110CE03EC234F23FC211
:1007100035F20201366B0201906B0201406B416BB6
:100720004DD1020145BF06D0800EE66EFDEC0CF007
:10073000E55205D0800EE66E0AEC0DF0E55202019E
:10074000905106E102013A6B3B6B0201010E906F82
:100750000201345102013E5F0201355102013F5B4B
:10076000050EE66EAAC020F0216A20BE21680201B3
:1007700020503C03F3CF1EF0F4CF1FF03D03F350A5
:1007800000011F26215002013C03F35000011F26E7
:10079000100E1E26000E1F221EC0E6FF1FC0E6FF21
:1007A00093EC0AF0E552E552E552F35002013E2780
:1007B000F4503F233AC2DEFF3BC2DDFF030EE66E7C
:1007C000070E086E096A3AC20DF03BC20EF04EECFD
:1007D0001EF0065002013E251E6E07503F211F6E7F
:1007E000040E1E26000E1F221EC0E6FF1FC0E6FFDD
:1007F00093EC0AF0E552E552E552F3CF3AF2F4CF2A
:100800003BF20201DE503A5D1E6EDD503B591F6E19
:10081000040E1EC0DBFF050E1FC0DBFFD8803B515E
:1008200004E7FE0E3A5DFF0E3B5904E2FE0E3A6FFE
:100830003B690DD03B3504E23A510808000E3B55A8
:1008400004E2080E3A6F3B6B02D03BC23BF2AFC0F2
:100850001EF01F6A1EBE1F683AC208F03BC209F0B4
:100860001EC00DF01FC00EF04EEC1EF0020E06C0B2
:10087000DBFF030E07C0DBFF020EDBCF1EF0030E13
:10088000DBCF1FF002011F504119E8AE02D0413505
:1008900004D040511E5C41511F5804E24007000E35
:1008A000415B14D0020EDBCF1EF0030EDBCF1FF036
:1008B00041511F18E8AE02D01F3404D01E50405DD5
:1008C0001F50415903E2402B000E4123020EDBCFA3
:1008D0001EF0030EDBCF1FF01F504119E8AE02D00F
:1008E000413504D040511E5C41511F5803E240077E
:1008F000000E415BC2C024F0256A24BE2568040EA8
:10090000DBCF20F0050EDBCF21F0D880215004E7AB
:10091000FB0E205CFF0E215804E2FB0E1E6E1F68CA
:1009200017D0040EDBCF22F0050EDBCF23F02334EB
:1009300004E222500808000E235404E2080E1E6E42
:100940001F6A06D0040EDBCF1EF0050EDBCF1FF0B2
:100950001EC008F01FC009F024C00DF025C00EF025
:100960004EEC1EF006500201402707504123D8806C
:10097000415104E7FB0E405DFF0E415904E2FB0EBE
:10098000406F41690DD0413504E240510F08000E1F
:10099000415504E20F0E406F416B02D041C241F25B
:1009A000020145BF06D0800EE66EFDEC0CF0E5526C
:1009B00005D0800EE66E0AEC0DF0E5520201925170
:1009C000931123E102018A511BE0040E40C268F238
:1009D00041C269F2000A06E00201D890683769371F
:1009E000E804FBE1040E3AC26AF23BC26BF2000A71
:1009F00006E00201D8906A376B37E804FBE105D0C6
:100A00000201686B696B6A6B6B6B060EE15C02E25C
:0E0A1000E16AE552E16EE552E7CFD9FF120030
:020A1E000201D3
:100A200019510201132702011A5102011423020174
:100A3000925193115FE1ABC01EF000011E6C1F6A62
:100A40001EBE1F681EC01FF01E6A020114511F182F
:100A5000E8AE02D01F3404D01E50135D1F5014594D
:100A60000AE2ABC013F2136D146B13BF146913C207
:100A700014F2136B1ED0ABC020F0216A20BE216897
:100A800020C021F0206A21501419E8AE02D014359C
:100A900004D01351205C1451215809E2ABC013F269
:100AA000146B13BF146913C214F2136B02D014C277
:100AB00014F229C21EF01F6A1EBE1F681E501327A3
:100AC0001F501423800E141507E0010E1325136F19
:100AD000000E1421146F0ED0143504E213510008D7
:100AE000000E145505E2010E135F000E145B02D0D8
:100AF000136B146B120002011B5102011527020136
:100B00001C51020116230201925193115FE1B0C002
:100B10001EF000011E6C1F6A1EBE1F681EC01FF063
:100B20001E6A020116511F18E8AE02D01F3404D00D
:100B30001E50155D1F5016590AE2B0C015F2156D12
:100B4000166B15BF166915C216F2156B1ED0B0C014
:100B500020F0216A20BE216820C021F0206A2150A7
:100B60001619E8AE02D0163504D01551205C165186
:100B7000215809E2B0C015F2166B15BF166915C2EF
:100B800016F2156B02D016C216F22AC21EF01F6AA8
:100B90001EBE1F681E5015271F501623800E1615E7
:100BA00007E0010E1525156F000E1621166F0ED0E9
:100BB000163504E215510008000E165505E2010E27
:100BC000155F000E165B02D0156B166B1200D9CFA5
:100BD000E6FFE1CFD9FF020EE12603C21EF01F6A35
:100BE0001EBE1F681E5002010B271F500C2302015E
:100BF000895168E00A0E020132251E6E1F6A1EBE70
:100C00001F681EC0DEFF1FC0DDFF03C21EF01F6A8B
:100C10001EBE1F68DECF20F0DDCF21F021501F184F
:100C2000E8AE02D01F3404D01E50205C1F50215863
:100C300004E202014669476B45D00A0E325D1E6E22
:100C40001F6A1EBE1F681EC0DEFF1FC0DDFF03C27D
:100C50001EF01F6A1EBE1F68DECF20F0DDCF21F020
:100C60001F502118E8AE02D0213404D020501E5C61
:100C700021501F5804E202014669476B23D002014C
:100C8000493504E248511E08000E495506E21E0E81
:100C900002010B5F000E0C5B15D0D880495104E7B0
:100CA000E20E485DFF0E495906E21E0E02010B27B7
:100CB000000E0C2307D0485102010B5F020149517D
:100CC00002010C5B02010B510201172702010C51BA
:100CD00002011823B5C01EF000011E6C1F6A1EBE63
:100CE0001F681EC01FF01E6A020118511F18E8AECF
:100CF00002D01F3404D01E50175D1F5018590AE24D
:100D0000B5C017F2176D186B17BF186917C218F224
:100D1000176B1ED0B5C020F0216A20BE216820C00C
:100D200021F0206A21501819E8AE02D0183504D0FD
:100D30001751205C1851215809E2B5C017F2186B01
:100D400017BF186917C218F2176B02D018C218F231
:100D5000800E181507E0010E1725176F000E1821D9
:100D6000186F0ED0183504E217510008000E185500
:100D700005E2010E175F000E185B02D0176B186BAF
:100D8000800E181507E0010E1725176F000E1821A9
:100D9000186F0ED0183504E217510008000E1855D0
:100DA00005E2010E175F000E185B02D0176B186B7F
:100DB000020EE15C02E2E16AE552E16EE552E7CF44
:100DC000D9FF1200010EE66E020EE66E0FEC1FF068
:100DD000E552E552F35002011927F4501A23010E8F
:100DE000E66EE66E0FEC1FF0E552E552F35002019D
:100DF0001B27F4501C231200D9CFE6FFE1CFD9FF07
:100E0000020EE126010E02011925196F000E1A21AA
:100E10001A6FD8901A331933010E02011B251B6F6C
:100E2000000E1C211C6FD8901C331B33020193351C
:100E300004E292510008000E935569E20201195133
:100E40000201132702011A510201142302011B514E
:100E50000201152702011C51020116230201010E95
:100E6000921901E1935152E1080E02011327000E7D
:100E70001423080E02011527000E162302018851C3
:100E800018E1BEC01EF01F6A1EBE1F68020113518A
:100E90001E24136F14511F20146FBFC01EF01F6A51
:100EA0001EBE1F68020115511E24156F16511F200A
:100EB000166F13C21EF014C21FF0040ED8901F321A
:100EC0001E32E804FBE11EC01DF21FC01EF215C257
:100ED0001EF016C21FF0040ED8901F321E32E80416
:100EE000FBE11EC01FF21FC020F20201216B226B2A
:100EF00002012A6B2AC229F22AC215F20201166BDC
:100F000015BF166915C213F216C214F2B5D002014C
:100F10001D510201195F02011E5102011A5B0201FB
:100F20001F5102011B5F0201205102011C5B0001E5
:100F3000B6A13CD00201195102011B251E6E02010F
:100F40001A5102011C211F6E1EC0DEFF1FC0DDFFF3
:100F50000201195102011B5F02011A5102011C5BBF
:100F6000DECF19F2DDCF1AF20201D89019371A3705
:100F7000030E0D6E0E6A19C208F01AC209F028ECB1
:100F80001EF008C019F209C01AF20201D8901B37EE
:100F90001C37030E0D6E0E6A1BC208F01CC209F04E
:100FA00028EC1EF008C01BF209C01CF219C26CF23A
:100FB0001AC26DF21BC26EF21CC26FF2010EE66E17
:100FC00002011F6A19251E6E1A511F221EC0E6FF5C
:100FD0001FC0E6FF93EC0AF0E552E552E552F3CF6D
:100FE00007F2F4CF08F21BDD010EE66E02011F6A64
:100FF0001B251E6E1C511F221EC0E6FF1FC0E6FFF0
:1010000093EC0AF0E552E552E552F3CF09F2F4CF42
:101010000AF271DDE66A040EE66E0FEC1FF0E5528F
:10102000E552F3CF0BF2F4CF0CF20201D8900C335F
:101030000B33D8900C330B3302012151221104E100
:101040000BC221F20CC222F2215102010B5F0201FC
:10105000225102010C5BBBDD0BC270F20CC271F2BB
:1010600013C272F214C273F215C274F216C275F290
:1010700017C276F218C277F2020EE15C02E2E16A70
:10108000E552E16EE552E7CFD9FF120077EC14F09C
:10109000040EE66EA7C022F0236A22BE2368020176
:1010A00022500703F3CF20F0F4CF21F00803F350D0
:1010B00000012126235002010703F35000012126DD
:1010C000A9C026F0276A26BE27680201075102013F
:1010D0000D5D246E0E5102010855256E24C008F0E6
:1010E00025C009F026C00DF027C00EF04EEC1EF012
:1010F000205006241E6E215007201F6E080E1E264B
:10110000000E1F221EC0E6FF1FC0E6FF93EC0AF090
:10111000E552E552E552F3CF58F2F4CF59F202010D
:10112000925193112AE1080EE66EA8C020F0216AC0
:1011300020BE2168020120501303F3CF1EF0F4CF2C
:101140001FF01403F35000011F2621500201130366
:10115000F35000011F26800E1E26000E1F221EC007
:10116000E6FF1FC0E6FF93EC0AF0E552E552E552B8
:10117000F35002015827F450592301C21EF01F6A90
:101180001EBE1F681E500201585F1F50595B040E9F
:10119000E66EACC022F0236A22BE23680201225010
:1011A0000903F3CF20F0F4CF21F00A03F35000013C
:1011B0002126235002010903F35000012126AEC06D
:1011C00026F0276A26BE27680201095102010F5D39
:1011D000246E105102010A55256E24C008F025C066
:1011E00009F026C00DF027C00EF04EEC1EF0205086
:1011F00006241E6E215007201F6E080E1E26000EAC
:101200001F221EC0E6FF1FC0E6FF93EC0AF0E55266
:10121000E552E552F3CF5AF2F4CF5BF2020192515C
:1012200093112AE1080EE66EADC020F0216A20BEBF
:101230002168020120501503F3CF1EF0F4CF1FF0F8
:101240001603F35000011F26215002011503F3502D
:1012500000011F26800E1E26000E1F221EC0E6FF64
:101260001FC0E6FF93EC0AF0E552E552E552F35059
:1012700002015A27F4505B2302C21EF01F6A1EBEF1
:101280001F681E5002015A5F1F505B5B040EE66E22
:10129000B1C022F0236A22BE2368020122500B0350
:1012A000F3CF20F0F4CF21F00C03F35000012126FE
:1012B000235002010B03F35000012126B3C026F096
:1012C000276A26BE276802010B510201115D246EB8
:1012D000125102010C55256E24C008F025C009F0FA
:1012E00026C00DF027C00EF04EEC1EF02050062454
:1012F0001E6E215007201F6E080E1E26000E1F2294
:101300001EC0E6FF1FC0E6FF93EC0AF0E552E5526F
:10131000E552F3CF5CF2F4CF5DF2080EE66EB2C098
:1013200020F0216A20BE2168020120501703F3CF6C
:101330001EF0F4CF1FF01803F35000011F262150B8
:1013400002011703F35000011F26800E1E26000E17
:101350001F221EC0E6FF1FC0E6FF93EC0AF0E55215
:10136000E552E552F35002015C27F4505D23B4C00E
:101370001EF000011E6C1F6A1EBE1F6802015D5137
:101380001F18E8AE02D01F3404D01E505C5D1F5001
:101390005D5907E2B4C05CF25C6D5D6B5CBF5D697A
:1013A00018D0B4C020F0216A20BE216821505D19F8
:1013B000E8AE02D05D3504D05C51205C5D5121580F
:1013C00006E2B4C05CF25D6B5CBF5D6902D05DC2D9
:0613D0005DF233EF0CF0AA
:0A13D600D9CFE6FFE1CFD9FF030EE7
:1013E000E126F250200B01E0010EE76E020EE7CF7E
:1013F000DBFFF29ADE6ADD6ADECF1EF0DDCF1FF082
:10140000FD0EDBCF20F0FE0EDBCF21F01F502118A8
:10141000E8AE02D0213404D020501E5C21501F5869
:1014200008E2F2A4FED7F294DF2A010E01E3DB2AE0
:10143000E3D7020EDB50E8B0F28AE8A0F29A030E7E
:10144000E15C02E2E16AE552E16EE552E7CFD9FFE5
:101450001200D9CFE6FFE1CFD9FF050EE126F25009
:10146000200B01E0010EE76E040EE7CFDBFFF29ADE
:10147000DE6ADD6ADECF1EF0DDCF1FF0FD0EDBCFB2
:1014800020F0FE0EDBCF21F00A0E2102F3CF21F077
:101490002002F3CF20F0F45021261F502118E8AE8F
:1014A00002D0213404D020501E5C21501F582BE262
:1014B000020EDB6A030EDB6A020EDBCF1EF0030EA8
:1014C000DBCF1FF0D8901F5004E6080E1E5C000E04
:1014D0001F5809E2F2A4FED7F294020EDB2A030E93
:1014E00001E3DB2AE9D79EEC10F09EAA07D0040E98
:1014F000DB50E8B0F28AE8A0F29A0BD0DF2A010EA6
:1015000001E3DB2AB7D7040EDB50E8B0F28AE8A08B
:10151000F29A050EE15C02E2E16AE552E16EE55203
:10152000E7CFD9FF1200D9CFE6FFE1CFD9FFFD0EFB
:10153000DBCF20F0FE0EDBCF21F00001800E211466
:101540001BE0FD0EDBCF22F0FE0EDBCF23F0226C82
:10155000231E000E2322FC0EDB5022C01EF023C0EF
:101560001FF005E0D8901F321E32E804FBE11E6C2C
:101570001F1E000E1F2212D0FD0EDBCF24F0FE0E28
:10158000DBCF25F0FC0EDB5024C01EF025C01FF081
:1015900005E0D8901F321E32E804FBE11EC0F3FFC5
:1015A0001FC0F4FF00D0E552E7CFD9FF12003F0E75
:1015B000926E020EC16EC00E816E400E936E600E72
:1015C000826E840E946EC78CF18E12000201010EA1
:1015D0004D6F4DC24CF24DC24BF24DC24AF2020168
:1015E000770E4E6F4EC24FF20201836B000E020166
:1015F000116F126B02010F6F106B02010D6F0E6BFA
:101600000201406F416B0201646F656B0201606F04
:10161000616B02015E6F5F6B02012E6B2F6B02012B
:101620002A6B2AC229F20201156F166B0201136F91
:10163000146B0201176F186B0201446B0201A06B5F
:10164000A16BA26B1200D9CFE6FFE1CFD9FF020E4A
:10165000E126E66AE66A0FEC1FF0E552E552F3CFA9
:101660001EF0F4CF1FF0030ED8901F321E32E80494
:10167000FBE11EC0DEFF1FC0DDFF010EE66EA3C250
:1016800020F0216A20BE2168DE5020241E6EDD502D
:1016900021201F6E010E1E26000E1F221EC0E6FF17
:1016A0001FC0E6FF40DFE552E552E552F3CFA3F25B
:1016B000A3C21EF01F6A1EBE1F68B8C020F0216AB8
:1016C00020BE21681F502118E8AE02D0213404D07A
:1016D00020501E5C21501F5802E3000E01D0010E65
:1016E000010B0201876F87511CE0320E02019BAF94
:1016F00002D0D89003D09A5D000E9B5909E2800E6B
:10170000E66E7BD9E552040EE66E77D9E55208D035
:10171000800EE66E7FD9E552040EE66E7BD9E55267
:1017200053D00201915126E0320E02019BAF02D04C
:10173000D89003D09A5D000E9B5913E2020E02016D
:101740009DAF02D0D89003D09C5D000E9D5909E258
:10175000800EE66E52D9E552040EE66E4ED9E55281
:1017600008D0800EE66E56D9E552040EE66E52D9C8
:10177000E5522AD08F5120E0320E02019BAF02D0F9
:10178000D89003D09A5D000E9B590DE202019C5146
:101790009D1109E1800EE66E30D9E552040EE66E29
:1017A0002CD9E55208D0800EE66E34D9E552040EED
:1017B000E66E30D9E55208D0800EE66E2BD9E552A0
:1017C000040EE66E27D9E552020EE15C02E2E16A00
:1017D000E552E16EE552E7CFD9FF1200020198070A
:1017E000000E995B985199113DE1020100511E6E66
:1017F0001F6AFF0ED8801E56000E1F56030ED8908B
:101800001F321E32E804FBE1050E02011E24986F10
:10181000000E1F20996F0201905105E0510EE66EF7
:10182000ECD8E5521FD0020145A909D0510EE66E51
:10183000F1D8E552010EE66EE0D8E55213D045A18D
:1018400009D0510EE66EE6D8E552400EE66ED5D8C8
:10185000E55208D0510EE66EDDD8E552100EE66E68
:10186000CCD8E55212000001B651E840E8403F0BE9
:10187000010B4DE02E0EE66ECDD8E55214C21EF0DF
:101880001F6A000EE76E1E18E8AE02D01E3403D0A9
:10189000E750D8801E5405E2040EE66EAED8E5523D
:1018A00011D014C21EF01F6AFF0EE76E1E18E8AEBC
:1018B00002D0E73402D0E7501E5C04E2080EE66E68
:1018C0009CD8E55216C21EF01F6A000EE76E1E1865
:1018D000E8AE02D01E3403D0E750D8801E5405E293
:1018E000200EE66E8AD8E55211D016C21EF01F6A8D
:1018F000FF0EE76E1E18E8AE02D0E73402D0E750C4
:101900001E5C04E2020EE66E78D8E5522AD0B6518B
:10191000E00BE838E840010B24E02E0EE66E7AD8A2
:10192000E5520201493504E248510008000E4955CC
:1019300005E2080EE66E61D8E55207D0800E491523
:1019400004E0040EE66E59D8E5520201473504E280
:101950004651F008000E475504E2200EE66E4DD8C1
:10196000E552120002019A519B110DE1640E9A6F2B
:101970009B6B02019C519D1103E1080E9C6F9D6BB6
:101980009C07000E9D5B02019A07000E9B5B1200F4
:10199000D9CFE6FFE1CFD9FF020EE12645C2DFFF36
:1019A000828A94988296DE52080EDD6E010EDB501C
:1019B00016E0DFAE02D0828801D08298DF9EDF463B
:1019C000010EE66E81EC20F0E5528286010EE66E95
:1019D00081EC20F0E5528296010EDB06E7D7828289
:1019E000829282869488020EE15C02E2E16AE5520C
:1019F000E16EE552E7CFD9FF1200D9CFE6FFE1CF84
:101A0000D9FFFE0EDB5002014513C2DFE552E7CFDE
:101A1000D9FF1200D9CFE6FFE1CFD9FFFE0EDB1CC4
:101A200002014517B5DFE552E7CFD9FF1200D9CF44
:101A3000E6FFE1CFD9FFE652DF6ADFCF1EF00B0EE3
:101A4000E76E1E18E8AE02D01E3403D0E750D880EF
:101A50001E541BE3DFCFE9FFEA6AE9BEEA68D890CB
:101A6000E936EA36660EE926020EEA22EECFE6FFF6
:101A7000EFCFE6FF59EC19F0E552E5523B0EE66E6A
:101A8000B3EC18F0E552DF2AD8D722EC19F0E55272
:081A9000E552E7CFD9FF120077
:081A9800D9CFE6FFE1CFD9FF31
:101AA000FD0EDBCF1EF0FE0EDBCF1FF01F3404E275
:101AB0001E50F008000E1F5402E2F00E2CD0FD0E56
:101AC000DBCF1EF0FE0EDBCF1FF0BDC020F0216A81
:101AD00020BE21681F502118E8AE02D0213404D066
:101AE00020501E5C21501F5803E20001BD5113D04D
:101AF000FD0EDBCF1EF0FE0EDBCF1FF0D8901F5087
:101B000004E6010E1E5C000E1F5802E2010E03D017
:101B1000FD0EDB5000D0E552E7CFD9FF1200D9CF40
:101B2000E6FFE1CFD9FF040EE12602010051DE6E8F
:101B3000DD6A0001B6A149D0DE5002015A2502013A
:101B4000506FDD5002015B210201516F02015851BB
:101B50000201505F020159510201515B02015A51C9
:101B6000DE5C0201526F02015B51DD580201536FCE
:101B70000201585102015227020159510201532317
:101B800002015A51DE5C0201546F02015B51DD58C3
:101B90000201556F020158510201545F020159516F
:101BA0000201555BDE5002015A250201566FDD50DD
:101BB00002015B210201576F0201585102015627B1
:101BC000020159510201572328D002015851DE5C0D
:101BD0000201506F02015951DD580201516FDE5070
:101BE000020158250201526FDD5002015921020104
:101BF000536F02015A51DE5C0201546F02015B51C6
:101C0000DD580201556FDE5002015A250201566F60
:101C1000DD5002015B210201576F02015C5102019C
:101C2000542702015D510201552302015C5102015A
:101C3000562702015D510201572302015C51020146
:101C4000505F02015D510201515B02015C510201D2
:101C5000525F02015D510201535B020164510201B6
:101C6000542702016551020155230201645102010A
:101C700056270201655102015723020164510201F6
:101C800050270201655102015123020164510201F2
:101C90005227020165510201532302014051020102
:101CA0005427020141510201552302014051020112
:101CB00056270201415102015723020140510201FE
:101CC00050270201415102015123020140510201FA
:101CD00052270201415102015323DECF1EF0DDCF16
:101CE0001FF0BDC020F0216A20BE216821501F18BE
:101CF000E8AE02D01F3404D01E50205C1F50215883
:101D000001E34CD10201575102015519E8AE02D04E
:101D1000553507D054510201565D0201555102015B
:101D2000575943E2BDC01EF01F6A1EBE1F68020164
:101D300057511F18E8AE02D01F3404D01E50565D14
:101D40001F50575932E2BDC020F0216A20BE2168E1
:101D50002050565D1E6E215057591F6E020E1EC038
:101D6000DBFF030E1FC0DBFF020EDBCF08F0030E0C
:101D7000DBCF09F008500201542709505523020E09
:101D8000DBCF08F0030EDBCF09F00850020150272B
:101D900009505123020EDBCF08F0030EDBCF09F010
:101DA00008500201522709505323020155510201E4
:101DB0005719E8AE02D0573507D056510201545D8D
:101DC000020157510201555943E2BDC01EF01F6A7E
:101DD0001EBE1F68020155511F18E8AE02D01F3405
:101DE00004D01E50545D1F50555932E2BDC020F042
:101DF000216A20BE21682050545D1E6E2150555925
:101E00001F6E020E1EC0DBFF030E1FC0DBFF020EA3
:101E1000DBCF08F0030EDBCF09F008500201562794
:101E200009505723020EDBCF08F0030EDBCF09F079
:101E300008500201502709505123020EDBCF08F051
:101E4000030EDBCF09F0085002015227095053233B
:101E50000201535102015119E8AE02D0513507D0A9
:101E600050510201525D020151510201535943E2A6
:101E7000BDC01EF01F6A1EBE1F68020153511F180D
:101E8000E8AE02D01F3404D01E50525D1F5053598B
:101E900032E2BDC020F0216A20BE21682050525D90
:101EA0001E6E215053591F6E020E1EC0DBFF030E23
:101EB0001FC0DBFF020EDBCF08F0030EDBCF09F003
:101EC00008500201502709505123020EDBCF08F0C1
:101ED000030EDBCF09F008500201542709505523A7
:101EE000020EDBCF08F0030EDBCF09F00850020131
:101EF0005627095057230201515102015319E8AEE8
:101F000002D0533507D052510201505D02015351A6
:101F10000201515943E2BDC01EF01F6A1EBE1F6878
:101F2000020151511F18E8AE02D01F3404D01E50D8
:101F3000505D1F50515932E2BDC020F0216A20BED1
:101F400021682050505D1E6E215051591F6E020EA7
:101F50001EC0DBFF030E1FC0DBFF020EDBCF08F04D
:101F6000030EDBCF09F0085002015227095053231A
:101F7000020EDBCF08F0030EDBCF09F008500201A0
:101F8000542709505523020EDBCF08F0030EDBCF98
:101F900009F00850020156270950572354C2E6FFA2
:101FA00055C2E6FF79DDE552E55202014A6F50C2A3
:101FB000E6FF51C2E6FF70DDE552E55202014B6FCC
:101FC00052C2E6FF53C2E6FF67DDE552E552020169
:101FD0004C6F56C2E6FF57C2E6FF5EDDE552E552A2
:101FE00002014D6F040EE15C02E2E16AE552E16E2E
:101FF000E552E7CFD9FF1200D9CFE6FFE1CFD9FFF5
:10200000040EE126B9C01EF01F6A1EBE1F6813C26F
:1020100008F014C209F01EC00DF01FC00EF028EC2D
:102020001EF008C0DEFF09C0DDFFC0C01EF01F6A41
:102030001EBE1F6815C208F016C209F01EC00DF0C2
:102040001FC00EF028EC1EF0020E08C0DBFF030ECE
:1020500009C0DBFF02018D5105E0770EDE26000E80
:10206000DD2205D002010651DE26000EDD2202012E
:1020700005511E6E1F6AD950020FE96EDACFEAFFD2
:102080001E50EE261F50ED22DECF20F0DDCF21F0D6
:10209000D890215004E6010E205C000E215804E285
:1020A000010E1E6E1F6A13D0DECF22F0DDCF23F0AB
:1020B000233404E22250F008000E235404E2F00E10
:1020C0001E6E1F6A04D0DECF1EF0DDCF1FF01EC0D3
:1020D0004EF2020EDBCF20F0030EDBCF21F0D890C2
:1020E000215004E6010E205C000E215804E2010E8E
:1020F0001E6E1F6A17D0020EDBCF22F0030EDBCF5D
:1021000023F0233404E22250F008000E235404E2AA
:10211000F00E1E6E1F6A06D0020EDBCF1EF0030EFD
:10212000DBCF1FF01EC04FF2040EE15C02E2E16A59
:0E213000E552E16EE552E7CFD9FF1200120032
:02213E004C0E45
:10214000E66E3C0EE66E93EC18F0E552E552120096
:10215000D9CFE6FFE1CFD9FFFE0EDB500BE0000E3A
:10216000E66E010EE66E75EC18F0E552E5520201DE
:10217000010E046F6B0EE66E010EE66E75EC18F044
:10218000E552E5520201885109E0430EE66E3C0E2D
:10219000E66E93EC18F0E552E55208D0330EE66E89
:1021A0003C0EE66E93EC18F0E552E5522A0EE66E10
:1021B0003C0EE66E93EC18F0E552E55202018951AF
:1021C00009E0430EE66E3C0EE66E93EC18F0E55225
:1021D000E55208D0330EE66E3C0EE66E93EC18F036
:1021E000E552E552240EE66E3C0EE66E93EC18F0D6
:1021F000E552E55202018A5116E0550E0201425D98
:1022000009E11B0EE66E3C0EE66E93EC18F0E5520B
:10221000E55208D0120EE66E3C0EE66E93EC18F016
:10222000E552E55208D0330EE66E3C0EE66E93ECB6
:1022300018F0E552E552E6EC1CF0060EE66E3C0E98
:10224000E66E93EC18F0E552E5520001B6417F0BC3
:10225000010B06E0330EE66EB3EC18F0E55205D044
:10226000310EE66EB3EC18F0E552EB0EE66E3B0E67
:10227000E66E93EC18F0E552E552020104511E6E31
:102280001F6A1F3404E21E507708000E1F5406E236
:10229000320EE66EB3EC18F0E55205D0310EE66E64
:1022A000B3EC18F0E5524BDFE552E7CFD9FF12004F
:1022B000D9CFE6FFE1CFD9FF090EE12673EC19F083
:1022C000E76E020EE7CFDBFFDB5001E115D2020E15
:1022D000DBCFE6FF86EC1FF0E552F3CF1EF0F4CF24
:1022E0001FF01E501F1009E0020EDBCFE6FF98EC36
:1022F0001FF0E552020EF3CFDBFF020EDB503F0A68
:1023000001E1F0D17D0A01E1EBD1100A01E161D1D7
:102310001C0A01E135D11D0A01E12ED11E0A62E03D
:10232000010A01E0E9D1D00EE66E3B0EE66E93ECB9
:1023300018F0E552E552020104511E6E1F6A1F3467
:1023400004E21E507708000E1F5406E2320EE66EBD
:10235000B3EC18F0E55205D0310EE66EB3EC18F090
:10236000E552E6EC1CF0010EF36E030EF3CFDBFF3B
:10237000A70EDE6E000EDD6EDECF1EF0DDCF1FF08D
:10238000C20ED8801E54000E1F542AE3C40EE66EFF
:102390003B0EE66E93EC18F0E552E552030EDBCFF0
:1023A000F3FFDB2AF350E66EC0EC18F0E552C00EE6
:1023B000E66E3B0EE66E93EC18F0E552E552DECF8A
:1023C000E9FFDDCFEAFF080EEFCFDBFFDBCFE6FF53
:1023D00001EC19F0E552DF2A010E01E3DB2ACCD72C
:1023E000AEDE8AD1020EE66EFDEC0CF0E552C40EB4
:1023F000E66E3B0EE66E93EC18F0E552E55294EC77
:1024000019F0FF0FE76E030EE7CFDBFFC00EE66E9D
:102410003B0EE66E93EC18F0E552E552D5EC19F060
:10242000E76E080EE7CFDBFF020104511E6E1F6A44
:102430001F3404E21E507708000E1F5408E2200EDD
:10244000F36E040EF3CFDBFF050EDB6A04D0040E3F
:10245000DB6A050EDB6A030EDB501E6E1F6AB60ECA
:10246000206E000E216EA70E205E000E215A205015
:102470001E1802E121501F1802E1080EDB96080E1B
:10248000DBCFE6FF030EDB50E76E040EDBCF1EF062
:10249000050EDBCF1FF0E7501E26000E1F221E5038
:1024A000E66E52EC1DF0E552E552030EDB501E6E57
:1024B0001F6AB60E206E000E216EA70E205E000E63
:1024C000215A20501E1802E121501F184EE102012E
:1024D00004511E6E1F6A1F3404E21E507708000E5E
:1024E0001F5405E2040EDB6A050EDB6A07D0200EDE
:1024F000F36E040EF3CFDBFF050EDB6A080EDB90F4
:10250000DB94DB96DB9ADB9CDB9EDBCFE6FF030EE6
:10251000DB50E76E040EDBCF1EF0050EDBCF1FF0A5
:10252000E7501E26000E1F221E50E66ED2EC1CF055
:10253000E552ED0BE552E710E76E080EE7CFDBFF43
:10254000DBCFE6FF030EDB50E76E040EDBCF1EF0A1
:10255000050EDBCF1FF0E7501E26000E1F221E5077
:10256000E66E52EC1DF0E552E552020EE66E0AEC04
:102570000DF0E552E4DDC0D0E66AEADDE552BCD0FC
:10258000B00EE66E3B0EE66E93EC18F0E552E552A7
:102590002BC2E6FF01EC19F0E552A90EE66E3B0EE8
:1025A000E66E93EC18F0E552E5522CC2E6FF01EC22
:1025B00019F0E552A30EE66E3B0EE66E93EC18F0B2
:1025C000E552E5522DC2E6FF01EC19F0E552B7DD08
:1025D00093D09E0EE66E3B0EE66E93EC18F0E5523D
:1025E000E55200C2E6FFC0EC18F0E5522C0EE66E94
:1025F000B3EC18F0E552520EE66EB3EC18F0E5526B
:102600003A0EE66EB3EC18F0E55201C2E6FF01ECBB
:1026100019F0E5522C0EE66EB3EC18F0E5524E0EB2
:10262000E66EB3EC18F0E5523A0EE66EB3EC18F035
:10263000E55202C2E6FF01EC19F0E5522C0EE66EFF
:10264000B3EC18F0E552590EE66EB3EC18F0E55213
:102650003A0EE66EB3EC18F0E55203C2E6FF01EC69
:1026600019F0E5522C0EE66EB3EC18F0E552350E7B
:10267000E66EB3EC18F0E5523A0EE66EB3EC18F0E5
:10268000E55204C2E6FFC0EC18F0E5522C0EE66EEF
:10269000B3EC18F0E552360EE66EB3EC18F0E552E6
:1026A0003A0EE66EB3EC18F0E55205C2E6FFC0EC58
:1026B00018F0E5522C0EE66EB3EC18F0E552370E2A
:1026C000E66EB3EC18F0E5523A0EE66EB3EC18F095
:1026D000E55206C2E6FFC0EC18F0E55230DD0CD042
:1026E00080EC3EF0000EE66E030EE66E75EC18F020
:1026F000E552E55224DD00D0090EE15C02E2E16A18
:0C270000E552E16EE552E7CFD9FF120070
:04270C00D9CFE6FF3C
:10271000E1CFD9FFE652020EE66EE66A29EC0AF036
:10272000E552E55202015E6B5F6B0201606B616B0B
:102730000201626B636BDF6A100EDF5C24E2A70E9E
:10274000E66EDCEC1BF0E552080B01E1F8D792ECE9
:102750001CF00201235102015E27020124510201F3
:102760005F23020127510201602702012851020163
:102770006123020125510201622702012651020153
:102780006323DF2AD9D7040EE66E080E02011F6A02
:102790005E251E6E5F511F221EC0E6FF1FC0E6FFB2
:1027A00093EC0AF0E552E552E552F3CF5EF2F4CF36
:1027B0005FF2040EE66E080E02011F6A60251E6EAF
:1027C00061511F221EC0E6FF1FC0E6FF93EC0AF016
:1027D000E552E552E552F3CF60F2F4CF61F2040E18
:1027E000E66E080E02011F6A62251E6E63511F22EB
:1027F0001EC0E6FF1FC0E6FF93EC0AF0E552E5526B
:10280000E552F3CF62F2F4CF63F20201D8805F5158
:1028100004E79D0E5E5DFF0E5F5904E29D0E1E6E85
:102820001F680FD05F3504E25E516308000E5F55EC
:1028300004E2630E1E6E1F6A04D05EC21EF05FC209
:102840001FF01EC02BF20201D880615104E79D0EDB
:10285000605DFF0E615904E29D0E1E6E1F680FD071
:10286000613504E260516308000E615504E2630EB5
:102870001E6E1F6A04D060C21EF061C21FF01EC02F
:102880002CF262C220F063C221F0000E205E040E22
:10289000215AD880215004E79D0E205CFF0E21585C
:1028A00004E29D0E1E6E1F681BD062C222F063C23E
:1028B00023F0000E225E040E235A233404E2225039
:1028C0006308000E235404E2630E1E6E1F6A08D0D4
:1028D00062C21EF063C21FF0000E1E5E040E1F5A7D
:1028E0001EC02DF2E552E552E7CFD9FF12000201DA
:1028F000885101E17AD192EC1CF023C25EF224C22D
:102900005FF225C262F226C263F227C260F228C2D9
:1029100061F2BEC01EF01F6A1EBE1F681E5002017B
:102920005E5F1F505F5BBFC01EF01F6A1EBE1F6848
:102930001E500201605F1F50615BBCC01EF01F6A29
:102940001EBE1F681E500201625F1F50635B040EB3
:10295000635F0201925193110CE15EC278F25FC293
:1029600079F260C27AF261C27BF262C27CF263C227
:102970007DF20201625102012E2702016351020120
:102980002F23080EE66E040EE66E080E236A2E252F
:10299000226E2F51232222C0E6FF23C0E6FF93ECD4
:1029A0000AF0E552E552E552F3CF20F0F4CF21F0E2
:1029B000BBC024F0256A24BE2568000124502002F3
:1029C000F3CF1EF0F4CF1FF02102F3501F26255045
:1029D0002002F3501F26800E1E26000E1F221EC04E
:1029E000E6FF1FC0E6FF93EC0AF0E552E552E55220
:1029F000F3CF62F2F4CF63F202019A51030B43E189
:102A00000201655102016319E8AE02D0633507D0B7
:102A100062510201645D020163510201655905E2E0
:102A20000201642B000E652314D0020163510201E0
:102A30006519E8AE02D0653507D064510201625DC8
:102A4000020165510201635904E202016407000EAC
:102A5000655B0201D880655104E7F60E645DFF0EE8
:102A6000655904E2F60E646F65690DD0653504E2C0
:102A700064510A08000E655504E20A0E646F656B26
:102A800002D065C265F20201D8802F5104E7F60E2C
:102A90002E5DFF0E2F5907E20A0E2E252E6F000E17
:102AA0002F212F6F0ED02F3504E22E510A08000E71
:102AB0002F5505E20A0E2E5F000E2F5B02D02FC2AB
:102AC0002FF2050EE66E13C21EF014C21FF0F10EB7
:102AD0001F02F3CF1FF0FF0E1E02F3501F26F10E50
:102AE0001E02F3CF1EF0F4501F26100E1E26000EFD
:102AF0001F221EC0E6FF1FC0E6FF93EC0AF0E5525E
:102B0000E552E552F35002015E5FF4505F5B020153
:102B1000195102015E5F02011A5102015F5B02015D
:102B2000296B02015F3504E25E510A08000E5F5511
:102B300003E2020129690CD00A0E5FAF02D0D890DF
:102B400003D05E5D000E5F5903E20201010E296FA2
:102B50000201606D611F000E6123050EE66E15C255
:102B60001EF016C21FF0F10E1F02F3CF1FF0FF0E72
:102B70001E02F3501F26F10E1E02F3CF1EF0F4507A
:102B80001F26100E1E26000E1F221EC0E6FF1FC0AD
:102B9000E6FF93EC0AF0E552E552E552F3500201EC
:102BA000605FF450615B02011B510201605F020132
:102BB0001C510201615B02012A6B0201613504E2D2
:102BC00060510A08000E615503E202012A690CD027
:102BD0000A0E61AF02D0D89003D0605D000E61593B
:102BE00003E20201010E2A6F0AD00201646B656BD9
:102BF0000201786B796B7A6B7B6B7C6B7D6B12005F
:102C0000010E0201966F976B020100511E6E1F6A42
:102C1000D8901F5004E61A0E1E5C000E1F5827E3C2
:102C2000825101E024D084511FE09EEC10F002019B
:102C3000846B9607000E975B973504E29651000867
:102C4000000E975511E345B506D0040EE66EFDEC77
:102C50000CF0E55205D0040EE66E0AEC0DF0E552DC
:102C60000A0E0201966F976B58EC11F0CDD7040E47
:102C7000E66E0AEC0DF0E5521200D9CFE6FFE1CF87
:102C8000D9FF020EE126020184513DE0953504E2B0
:102C900094510008000E95550CE29851010B03E188
:102CA0009407000E955B9451951102E100C233F236
:102CB0002AD00A0E335D03E2DE6ADD6A04D00A0E12
:102CC000335DDE6EDD6A4B0E005D02E29469956B4A
:102CD00000511E6E1F6ADECF20F0DDCF21F01F50A5
:102CE0002118E8AE02D0213404D020501E5C2150BF
:102CF0001F5802E29469956B0A0E3325D88000555F
:102D000002E29469956B020EE15C02E2E16AE5522F
:102D1000E16EE552E7CFD9FF1200140E0201966F63
:102D2000976B020EE66EE66A29EC0AF0E552E55270
:102D300058EC11F0020182510FE080A80CD09607E8
:102D4000000E975B9651971105E1010E916F020EEF
:102D5000966F976B01D0916B8251E3E18050100B1D
:102D6000E0E01200D9CFE6FFE1CFD9FF020EE12665
:102D7000F29ED7EC0AF0190EE66EE66A3C0EE66E9D
:102D8000CAEC1EF0E552E552E55243EC1FF0530E3B
:102D9000E66EE9EC1FF0E552310EE66EACEC1FF08A
:102DA000E552840EE66E20EC20F0E5520001B639C3
:102DB0000F0B010BE8B0BD80E8A0BD90FE0EE66EE3
:102DC00005EC20F0E5524E0ECB6EDF6A080EDF5C9C
:102DD00011E2DF50EA6A820FE96E020EEA22EF6A20
:102DE000DF50EA6A8A0FE96E020EEA22000EEF6EE9
:102DF000DF2AECD70201010E826F456B2E0EE66EC4
:102E00000AEC0DF0E552E6EC0AF0E6EC1CF0F28C70
:102E1000F28E040EE66EFDEC0CF0E552010EE66E4D
:102E2000E66A29EC0AF0E552E55251EC1CF0020189
:102E30002B6B2C6B2D6B885102E086EC13F002019A
:102E40003369010EE66EE66A29EC0AF0E552E552B6
:102E5000D0EC00F0B0EC02F0010EE66EA8EC10F041
:102E6000E5520201770E066F06C205F2010E046FED
:102E700004C200F2800EE66E0AEC0DF0E552F29A02
:102E80002E0EE66E0AEC0DF0E552040EE66EFDEC39
:102E90000CF0E5520201885105E0200EE66EFDECD3
:102EA0000CF0E552E6EC0AF002013369F28E35DFF0
:102EB000E6EC1CF0A5DE0201825101E0D7D7966B4B
:102EC000976B9A6B9B6B9C6B9D6B100E926F936BC9
:102ED0009469956B1E0E065D02E3000E01D0010E93
:102EE0008D6F80A8F2D0000EE66EE66ACDEC1FF082
:102EF000E552E552F294F28AB2EC0CF0000E0201B7
:102F00001B6F1C6B196F1A6BE2EC06F0000E0001D0
:102F1000E76EB719E8AE02D0B73503D0E750D880D6
:102F2000B75501E2F3D718EC01F026EC03F0F29A62
:102F3000E2EC06F0E6EC1CF0FCEC06F0020182513B
:102F400020E083511EE09A510F0B03E1962B000EF7
:102F50009723C80E97AF02D0D89003D0965D000E8D
:102F600097590EE2010E916F2E0EE66E0AEC0DF0EF
:102F7000E55230C201F231C202F232C203F276D01F
:102F8000A4D0835110E000511E6E1F6A1F3404E26A
:102F90001E501A08000E1F5406E3010EDB06DB501C
:102FA000000801E263D0825118E183510AE0005128
:102FB0001E6E1F6A1F3404E21E501A08000E1F54B2
:102FC0000CE2835134E10051206E216A213404E285
:102FD00020502208000E21542AE3020E0001B727D8
:102FE000100E0201926F936B9469956BE6EC0AF0F8
:102FF00002011D6B1E6B1F6B206B216B226B8251BC
:1030000004E08050100B01E060D02E0EE66E0AEC5A
:103010000DF0E552510EE66E0AEC0DF0E552080E89
:10302000E66EFDEC0CF0E55258EC11F041D0835106
:103030000EE101C230F202C231F203C232F246693D
:10304000476B58EC11F0010E0201986F996B010E5D
:10305000836F916B966B976BDE52640EDD6E080E7C
:10306000E66EFDEC0CF0E552EEEC0BF002015E6B4F
:103070005F6B606B616B01DE0201933504E292517C
:103080000008000E935504E29207000E935B04D0F3
:1030900046EC08F08FEC0DF007C20DF208C20EF2FC
:1030A00009C20FF20AC210F20BC211F20CC212F2E4
:1030B000FCEC0FF09EEC10F023EC0BF002019251AF
:1030C000931102E117EC0DF00CD7800EE66E0AECBE
:1030D0000DF0E552D4D6020EE15C02E2E16AE5525F
:0A30E000E16EE552E7CFD9FF1200C0
:0630EA00D9CFE6FFE1CFA3
:1030F000D9FFFD0EDBCFE9FFFE0EDBCFEAFFEF507D
:103100000EE0FD0EDBCFE9FFDB2AFE0EDBCFEAFF90
:1031100001E3DB2AEF50E66E26D8E552EAD7E55206
:10312000E7CFD9FF1200D9CFE6FFE1CFD9FFFD0EDF
:10313000DBCFF6FFFE0EDBCFF7FF0800F5500FE008
:10314000FD0EDBCFF6FFDB2AFE0EDBCFF7FF01E340
:10315000DB2A0800F550E66E06D8E552E8D7E552BE
:10316000E7CFD9FF1200D9CFE6FFE1CFD9FF9EA864
:10317000FED7FE0EDB50AD6EE552E7CFD9FF120051
:10318000D9CFE6FFE1CFD9FF640E1E6E1EC00EF050
:10319000FE0EDBCF09F073EC20F00950300FE66E25
:1031A000E2DFE552640E1E6E1EC00EF0FE0EDBCF97
:1031B00009F073EC20F0FE0E05C0DBFF0A0E1E6E58
:1031C0001EC00EF0FE0EDBCF09F073EC20F00950AC
:1031D000300FE66EC8DFE5520A0E1E6E1EC00EF0FE
:1031E000FE0EDBCF09F073EC20F0FE0E05C0DBFF16
:1031F000DB50300FE66EB7DFE552E552E7CFD9FF7F
:103200001200D9CFE6FFE1CFD9FFFE0EDBCF1EF0D3
:103210001E340BE32D0EE66EA6DFE552FE0EDB50EC
:10322000FF0DFE0EF3CFDBFF04D02B0EE66E9BDF0F
:10323000E552FE0EDBCFE6FFA3DFE552E552E7CF16
:10324000D9FF12000D0EE66E8EDFE5520A0EE66E15
:103250008ADFE5521200D9CFE6FFE1CFD9FFFE0E9B
:10326000DB50090808E2FE0EDB50410FF60FE66E58
:103270007ADFE55206D0FE0EDB50300FE66E73DFCC
:10328000E552E552E7CFD9FF1200D9CFE6FFE1CFF3
:10329000D9FFFE0EDB380F0BE66EDDDFE552FE0ECA
:1032A000DB500F0BE66ED7DFE552E552E7CFD9FFD3
:1032B0001200D9CFE6FFE1CFD9FFFD0EDBCF1EF024
:1032C000FE0EDBCF1FF01FC01EF01F6A1E50E66E01
:1032D000DCDFE552FD0EDBCFE6FFD7DFE552E5523E
:1032E000E7CFD9FF1200D9CFE6FFE1CFD9FFE652F1
:1032F0009EAA13D0AB50020B03E1AB50040B05E0C8
:10330000AB98AB88AE50DF6E08D0AE50DF6EDFCF2B
:10331000E6FF29DFE552DF5002D0000E00D0E55273
:10332000E552E7CFD9FF1200D9CFE6FFE1CFD9FFB1
:10333000020EE126010EDB6AD6DFDF6E300EDF5CA7
:10334000FBE3DF503908F8E3300EDF5CE76E010E77
:10335000E7CFDBFF0A0E1E6E010EDBCFE7FF1E502C
:10336000E702010EF3CFDBFFBEDFDF6E300EDF5C66
:10337000FBE3DF503908F8E3300EDF5C1E6E010E10
:10338000DBCFE7FF1E50E726010EE7CFDBFFDB5068
:103390001E6E020EE15C03E200D0E16AE552E16ECE
:1033A0001E50E552E7CFD9FF1200D9CFE6FFE1CF9B
:1033B000D9FF020EE126010EDB6A0201866B93DF64
:1033C000DF6E300EDF5C03E3DF50390803E22D0EC1
:1033D000DF5CF5E12D0EDF5C0BE10201010E866F73
:1033E00082DFDF6E300EDF5CFBE3DF503908F8E38D
:1033F000300EDF5CE76E010EE7CFDBFF0A0E1E6EBC
:10340000010EDBCFE7FF1E50E702010EF3CFDBFF1B
:103410006ADFDF6E300EDF5CFBE3DF503908F8E374
:10342000300EDF5C1E6E010EDBCFE7FF1E50E7267D
:10343000010EE7CFDBFF0201865106E0010EDB50F3
:10344000FF0D010EF3CFDBFF010EDB501E6E020EEF
:10345000E15C03E200D0E16AE552E16E1E50E55204
:06346000E7CFD9FF1200C6
:0A346600DACFE4FFE2CFDAFFE6520E
:1034700000D0E552E5CFDAFF1100DACFE4FFE2CF6A
:10348000DAFFE9CFE4FFEACFE4FFE6529EA20DD0D7
:103490009E920201855103E04E0ECB6E3CD1010E8F
:1034A000856FEA0ECB6E00019E6B9EA44AD1CC6A5A
:1034B0009E920201856BBECFA2F0BFCFA3F00001A8
:1034C000A46BA20EE96E000EEA6E020EEB50A1197B
:1034D000E8AE02D0A13506D09F51EE5CA051EE5867
:1034E000A151EE5805E2FF0E9F5FA05B000EA15BAD
:1034F0009F0EE96E000EEA6EEE50A25D176EEE5062
:10350000A359186EEE50A459196E010E1F0B17C067
:1035100014F018C015F019C016F006E0D890163255
:1035200015321432E806FAE114C0A5F015C0A6F071
:10353000A2C09FF0A3C0A0F0A4C0A1F0BD704E0E29
:10354000CB6EBD50010B146E0001B6390F0B010B91
:10355000141827E000019E5101E122D0020E9E5D69
:1035600005E1A5C092F0A6C093F01AD0040E9E5DAE
:1035700005E1A5C096F0A6C097F012D0060E9E5D9C
:103580000EE1A5C09AF0A6C09BF09BC014F0156A8E
:10359000010E141801E1155001E0BDD001D0BBD0DF
:1035A000CDD000019E0505E1A5C090F0A6C091F028
:1035B000C5D0030E9E5D05E1A5C094F0A6C095F0B0
:1035C000BDD0050E9E5D2EE1A5C098F0A6C099F075
:1035D00091C014F0156A010E141801E1155021E193
:1035E00093C016F0176A010E161801E1175019E181
:1035F00095C018F0196A010E181801E1195011E16F
:1036000097C01AF01B6A010E1A1801E11B5009E15C
:1036100099C01CF01D6A010E1C1801E11D5001E14A
:103620008DD079D0070E9E5D76E1A5C09CF0A6C036
:103630009DF09DC014F0156A010E141801E115509B
:1036400001E069D00001B6417F0B010B2FE00001C2
:1036500098510201006FFF0E00019415146E156A57
:10366000770E145E000E155A14C001F2FF0E92156B
:10367000146E156A770E145E000E155A14C002F20D
:10368000FF0E9015146E156A770E145E000E155A13
:1036900014C003F29A510201046F00019651020115
:1036A000056F00019C510201066F2ED000019A5156
:1036B0000201006FFF0E00019015146E156A770E5F
:1036C000145E000E155A14C001F2FF0E9615146E0A
:1036D000156A770E145E000E155A14C002F2FF0E22
:1036E0009C15146E156A770E145E000E155A14C0E0
:1036F00003F294510201046F000198510201056F19
:10370000000192510201066F0201826B010E846F6B
:1037100000019E6913D00201846B010E826F0201C9
:10372000A02B000EA123A22300019E690001B6393F
:103730000F0B010B02E0BD8001D0BD909E940001F3
:103740009E2BF250040B06E0F250200B03E0F294A3
:103750000001B707E552E5CFEAFFE5CFE9FFE5CF86
:04376000DAFF11007B
:0C376400D9CFE6FFE1CFD9FFE6529498E0
:10377000829A080EDF6EDF501AE08296FE0EDBAEF4
:1037800002D0828801D08298DBCFF3FFF39EF3460C
:10379000F3CFDBFF010EE66E81EC20F0E55282866E
:1037A000010EE66E81EC20F0E552DF06E4D7E5522B
:1037B000E552E7CFD9FF1200D9CFE6FFE1CFD9FF1D
:1037C000E652FE0EDBCFE6FFCDDFE55294880BD844
:1037D000DF6EFE0EDBAC828ADF5000D0E552E55290
:1037E000E7CFD9FF1200D9CFE6FFE1CFD9FF020E14
:1037F000E126080EDF6EDF5016E08296010EE66EBF
:1038000081EC20F0E552010EDBCFF3FFF39EF3468F
:10381000F3CFDBFF82B8DB808286E66E81EC20F09E
:10382000E552DF06E8D7010EDB501E6E020EE15CAA
:1038300003E200D0E16AE552E16E1E50E552E7CFA7
:10384000D9FF1200D9CFE6FFE1CFD9FFE652FD0E36
:10385000DBCFE6FF87DFE552080EDF6EDF501AE0B0
:103860008296FE0EDBAE02D0828801D08298DBCF3A
:10387000F3FFF39EF346F3CFDBFF010EE66E81EC20
:1038800020F0E5528286010EE66E81EC20F0E552D2
:10389000DF06E4D7828A9488E552E552E7CFD9FF64
:1038A0001200828A210EE66E4A0EE66ECBDFE552EA
:1038B000E5528F0EE66E80DFE552E86E3A0EE85C68
:1038C00030E1200EE66EC70EE66EBCDFE552E55233
:1038D000220EE66EE66AB6DFE552E552300EE66E7F
:1038E000480EE66EAFDFE552E552340EE66EE66A4C
:1038F000A9DFE552E552350EE66EFC0EE66EA2DF5C
:10390000E552E552360EE66EE6689CDFE552E5527A
:10391000380EE66EE66A96DFE552E5520201010EC8
:10392000886F1200D9CFE6FFE1CFD9FFE652A70E8C
:10393000E66E42DFE552DF6EE80EE66E3DDFE552F1
:103940000201236F246B4FDF1E6E1F6A1EC01FF023
:103950001E6A1E50020123131F50241344DF02016C
:10396000256F266B40DF1E6E1F6A1EC01FF01E6A89
:103970001E50020125131F50261335DF0201276F49
:10398000286B31DF1E6E1F6A1EC01FF01E6A1E509C
:10399000020127131F502813828AE552E552E7CF10
:0439A000D9FF120039
:0C39A400D9CFE6FFE1CFD9FFE652FE0EBE
:1039B000DB50A96EA69EA680A850DF6EA66ADF50D7
:1039C00000D0E552E552E7CFD9FF1200D9CFE6FF8C
:1039D000E1CFD9FF050EE126020104511E6E1F6AD8
:1039E0001F3404E21E507708000E1F5408E2200E18
:1039F000F36E030EF3CFDBFF040EDB6A04D0030E7D
:103A0000DB6A040EDB6AA70EDE6E000EDD6EDECF13
:103A10001EF0DDCF1FF0C20ED8801E54000E1F54C2
:103A20001AE3030EDBCF1EF0DB2A040EDBCF1FF000
:103A300001E3DB2A1E50E66EB5DFE552E66EDECF0F
:103A4000E9FFDDCFEAFFE552E750EF6EDF2A010E16
:103A500001E3DB2ADCD7B8C0A3F2020E0001E76E57
:103A6000B719E8AE02D0E73402D0E750B75D03E201
:103A7000020EB76F0DD0140EE76EB719E8AE02D084
:103A8000B73503D0E750D880B75502E2140EB76FB0
:103A9000050EE15C02E2E16AE552E16EE552E7CF34
:103AA000D9FF1200D9CFE6FFE1CFD9FF020EE12600
:103AB000FE0EDBCFE6FF76DFE552DF6EFD0EDB505C
:103AC000DF5C1DE0FD0EDB50A86EFE0EDB50A96E24
:103AD000A69EA684F250800B01E0010EE76E010E57
:103AE000E7CFDBFFF29E550EA76EAA0EA76EA68249
:103AF000A6B2FED7010EDB5001E0F28EA694020EB4
:103B0000E15C02E2E16AE552E16EE552E7CFD9FFFE
:103B10001200D9CFE6FFE1CFD9FF050EE126FE0E58
:103B2000DB0405E1030EDB6A040EDB6A07D0200E1E
:103B3000F36E030EF3CFDBFF040EDB6AA70EDE6E1F
:103B4000000EDD6EDECF1EF0DDCF1FF0C20ED8807E
:103B50001E54000E1F5419E3DFCFE9FFDF2A010EC8
:103B6000DBCFEAFF01E3DB2AEF50E66E030EDBCF8B
:103B70001EF0DB2A040EDBCF1FF001E3DB2A1E5010
:103B8000E66E90DFE552E552DDD7050EE15C02E21C
:0E3B9000E16AE552E16EE552E7CFD9FF12007F
:023B9E000D0A0E
:103BA000543A00205961773A0020507463683A0013
:103BB0000D0A4E65757472616C20526F6C6C3A0020
:103BC000203D20000D0A52656769737465722000FC
:103BD0000D0A506172616D65746572206C69737451
:103BE00020666F72207365742023000D0A53656C84
:103BF000656374656420706172616D6574657220BF
:103C00007365743A20005468726F74746C65204355
:103C10006800534D443530300D0A00424D50303865
:103C2000350D0A004261726F2000436F6D70617341
:103C30007320006E6F7420617661696C61626C65DF
:103C40000D0A004F4E4C494E450D0A000D0A3E002C
:103C5000006A0EAE31EF1EF00D6C0E1EE86A0E22E9
:103C6000001E09AE39EF1EF0086C091EE86A092231
:103C7000001E4FEC20F009BE49EF1EF000AE000C14
:103C8000086C091EE86A0922046C051EE86A052210
:103C9000000C00BE40EF1EF00188FF0C09C013F0BD
:103CA00008C012F008500D02F4CF07F0F3CF06F071
:103CB00009500E02F4CF09F0F3CF08F00D02F350D3
:103CC0000726F4500822E86A092212500E02F35027
:103CD0000726F4500822E86A09220EAE74EF1EF09F
:103CE0001250085E1350095A13AE000C0D50085EB6
:063CF0000E50095A000C01
:0A3CF6001E0EF66E000EF76E000EB3
:103D0000F86E01010900F550EF6F0900F550F06FF2
:103D100003E1EF6701D03DD00900F550EA6F0900DB
:103D2000F550EB6F0900F550EC6F09000900F550F4
:103D3000E96E0900F550EA6E090009000900F55026
:103D4000ED6F0900F550EE6F09000900F6CFF1F1B3
:103D5000F7CFF2F1F8CFF3F1EAC1F6FFEBC1F7FFCD
:103D6000ECC1F8FF0101ED5302E1EE5307E0090059
:103D7000F550EE6EED07F8E2EE07F9D7F1C1F6FF68
:103D8000F2C1F7FFF3C1F8FF0101EF07000EF05B8E
:043D9000BFD7120087
:0C3D9400D9CFE6FFDACFE6FFE1CFD9FF80
:103DA000E2CFDAFFAC6AAB6AFD0EDBB0AC88DBA217
:103DB00002D0AC8CAB8CDBB4AC8EDBA602D0AB8873
:103DC00001D0AB8ADBB8AC849E98DBBAAC86DBACA6
:103DD00002D09D8A01D09D9A9E9ADBAE02D09D882A
:103DE00001D09D98FB0EDB50AF6EFB0EFC0EDBCFBF
:103DF0001FF01FC01EF01F6A1E50B06EAC8AAB8E43
:103E0000949C948EAC50100B04E0AC50800B01E1FC
:0E3E1000948CE552E5CFDAFFE7CFD9FF120020
:023E1E00D9CFFA
:103E2000E6FFE1CFD9FF030EE126FD0EDB50E8B03F
:103E3000C188E8A0C198FE0EDB50080DF350E66E75
:103E400038EC20F0E5529CEC20F007EC00F0000983
:103E500001E0FBD78CEC20F0F3CFDEFFF4CFDDFFE9
:103E6000DECF1EF0DDCF1FF01EC0F3FF1FC0F4FF3A
:103E7000030EE15C03E200D0E16AE552E16EE55237
:103E8000E7CFD9FF12000A0EE66E040EE66EAB0E07
:0E3E9000E66E4FEC1FF0E552E552E5521200CF
:023E9E00D9CF7A
:103EA000E6FFDACFE6FFE1CFD9FFE2CFDAFFC26A61
:103EB000C06AFC0EDB407F0B3C0BC26EFB0EDBCFFF
:103EC000E6FFFC0EDB38F00B300BE552E710C16E5D
:103ED000FD0EDB50040DF350380B1F6EFD0EDB386A
:103EE0000F0B070B1E6EFD0EDB50800B1E101F10FC
:103EF000C06EFC0EDBAE03D09E9C9D8CF28CC2800B
:0C3F0000E552E5CFDAFFE7CFD9FF120051
:043F0C00F36AF46AF6
:103F1000FF0EE124E96EFF0EE220EA6EED6607D0A7
:103F2000600EEF6404D07B0EEF6001D0F32A120024
:103F3000FF0EE124E96EFF0EE220EA6EEDCFF4FF02
:103F4000EFCFF3FFF46607D0600EF36404D07B0E6E
:083F5000F36001D0F39A1200A6
:083F5800D9CFE6FFDACFE6FF46
:103F6000E1CFD9FFE2CFDAFFFD0EDB507E0BCD6E45
:103F7000FD0EDBAC02D0CD8E01D0CD9ECF6ACE6AD5
:103F80009E90DBAE02D09D8001D09D90CD80E55209
:0A3F9000E5CFDAFFE7CFD9FF1200FA
:063F9A00D9CFE6FFDACFEB
:103FA000E6FFE1CFD9FFE2CFDAFFE652E652FC0EA0
:103FB000DBCFDEFFDBCFDDFF010EDB50D76EDF5046
:103FC000D66EE552E552E552E5CFDAFFE7CFD9FFED
:023FD0001200DD
:0E3FD200D9CFE6FFDACFE6FFE1CFD9FFE2CF8D
:103FE000DAFFFD0EDB507F0BD56ED76AD66AF294EE
:103FF000FD0EDBAE02D0F28A01D0F29AD58EE552E8
:0A400000E5CFDAFFE7CFD9FF120089
:06400A00D9CFE6FFDACF7A
:10401000E6FFE1CFD9FFE2CFDAFFFD0EDB50FB0B6D
:10402000CA6ECC6A9E92FD0EDBAE02D09D8201D09C
:104030009D92CA84E552E5CFDAFFE7CFD9FF12009F
:10404000D9CFE6FFDACFE6FFE1CFD9FFE2CFDAFF43
:10405000FD0EDB500F0BBD6EFD0EDBAE02D09E944D
:104060009D849484E552E5CFDAFFE7CFD9FF1200B3
:10407000D9CFE6FFDACFE6FFE1CFD9FFE2CFDAFF13
:10408000C30EC2141E6EFD0EDB407F0B3C0B1E10D8
:0E409000C26EE552E5CFDAFFE7CFD9FF12008E
:02409E00056AB1
:1040A000046A100EE76ED8900836093604360536D5
:1040B0000D50045C0E50055805E30D50045E0E5083
:0A40C000055A082AE72EF0D7120077
:0640CA0015EE00F025EEEA
:1040D00000F0F86A019C7BEC1EF003EC00F0B2ECFF
:0640E00016F0FBD71200F0
:0A40E600056A080EE76ED89009364F
:1040F00005360E50055C02E3056E092AE72EF7D758
:024100001200AB
:0E410200FF0EE350E84E1200000000D000D087
:0841100000D0E82EFAD71200DE
:08411800C450216E206AC3505F
:0A4120002010F36E21C0F4FF12001E
:06412A0000EE00F00F0E94
:08413000EE6AEA62FDD71200FD
:04413800C28212002D
:04413C001204D80D84
:10414000101204D80210142806320600042B0400B2
:0841500008002800000405042A
:084158000D0A436F6D6D616EED
:1041600064733A0D0A4C2E2E2E4C697374207061C4
:1041700072616D0D0A4D2E2E2E4D6F646966792089
:10418000706172616D0D0A532E2E2E53686F772069
:1041900073657475700D0A4E2E2E2E4E65757472F1
:1041A000616C2076616C7565730D0A522E2E2E534C
:1041B000686F7720726563656976657220636861F0
:1041C0006E6E656C730D0A422E2E2E7374617274BE
:0F41D00020426F6F742D4C6F616465720D0A0091
:0141DF000DD2
:1041E0000A5541565020332E31356D335F313866D4
:1041F00020436F70797269676874202863292032C0
:104200003030372D3920472E4B2E204567616E20E8
:104210002620572E204D616872696E6765720D0AFF
:1042200054686973206973204652454520534F46B0
:1042300054574152452C207365652047504C206CE3
:104240006963656E7365210D0A000D0A554156506C
:104250002056332E31356D335F31386620726561FB
:1042600064792E0D0A44656275673A2053656E7352
:104270006F72730D0A52783A2050504D2044534DBE
:10428000320D0A4553433A2050504D0D0A4779727A
:104290006F733A20414458525333303020285961CB
:1042A00077292C204944473330302028526F6C6CDA
:1042B0002F5069746368290D0A416363656C6572E8
:0942C0006F6D65746572732000D6
:107D00007D0EFA6E1FD0F926420C6F0C6F0C740CAE
:107D1000200C320C2E0C300C000C450C520C520C6A
:107D2000000C430C530C550C4D0C000C4F0C4B0C21
:107D3000000C530C550C430C430C450C530C530CCA
:107D4000210C000C0001F29EA66AD56AA40E946E66
:107D5000936A190EAF6E240EAC6ED86A900EAB6E9D
:107D6000816A010ED0EC3FF0106AD86A00EE60F034
:107D7000200EBFEC3FF09EAAFED7AE50ABB256D05D
:107D8000ABB454D0EF6E3A08D8B4DAEF3EF0EF3827
:107D90000F0BFD0FD8B4DAEF3EF0FF0FD8B4DAEFD7
:107DA0003EF00A0EEF5CD8B4DCEF3EF0FD0FD8A435
:107DB00016EF3FF0E92ADFD700EE60F0EF503A0807
:107DC000D8A416EF3FF0E92A186AB6EC3FF0166E19
:107DD0004008D8A016EF3FF0B6EC3FF0126EB6ECBC
:107DE0003FF0116EC00E1114136E3F0E1114146E7D
:107DF000B6EC3FF0000FD8B403EF3FF0FF0FD8B45C
:107E000069EF3FF031D010EE60F016C019F0B6EC1B
:107E10003FF0E66E192EFBD7B6EC3FF01850D8B401
:107E20001CEF3FF01B0ED0EC3FF09FD7AB98130E2A
:107E3000D0EC3FF0AB8899D7280EBFEC3FF0125042
:107E4000D8A42CEF3FF01150D8A42CEF3FF050EC09
:107E50003FF038EC3FF008D07D0E125CD8B034EF24
:107E60003FF038EC3FF000D0250ED0EC3FF07DD74E
:107E70009EEC3FF000EE60F010EE20F01450000F8A
:107E8000D8B447EF3FF0196EE652192EFDD716C051
:107E900019F0EE50E66E192EFCD780EC3FF0120080
:107EA00060C01CF061C01DF062C01EF063C01FF016
:107EB000EF0E616ED8907D0E1A6E1A321AC062F003
:107EC000000E1A6E1A321AC060F0F00E636E108047
:107ED0001200CFEC3FF010A00FD0116A126A136AA3
:107EE0009EEC3FF01CC020F01DC021F01EC022F00F
:107EF0001FC023F080EC3FF02B0ED0EC3FF0FFD7FB
:107F0000AAEC3FF0940E97EC3FF00A0000EE20F050
:107F1000020E1A6E200E196EEE50F56E0F00192E1D
:107F2000FBD7840E97EC3FF01A2EF4D71200A66E02
:107F3000550EA76EAA0EA76EA6821200AAEC3FF0FD
:107F400000EE20F0400E196E0900F550EE6E192E6D
:107F5000FBD71200F86A12C0F7FF13C0F6FF120039
:107F6000300EEF5CEFBCF90FE92A1200B0EC3FF0E5
:107F7000176E173AB0EC3FF01710182612001B6E60
:107F800082928296080E196E1B368298D8B082882B
:107F900082868296192EF8D7828282921200250E4E
:107FA000196E195083EC3EF0000FD8A4DFEF3FF0BC
:107FB0000D0EE4EC3FF00A0EE4EC3FF01200E4ECAE
:107FC0003FF0192A192AEDD79EA8FED7AD6E1200F0
:107FD00000000000000000000000000000000000A1
:107FE0000000000000000000000000000000000091
:107FF000000000000000000000000000000012006F
:020000040030CA
:0100010002FC
:010002001EDF
:010003001EDE
:0100050001F9
:010006008178
:00000001FF
