:020000040000FA
:060000003CEF22F01200AB
:020006001200E6
:060008001EEF1BF01200C8
:02000E00C250DE
:08001000020B01E0010E1200D9
:0600180014EF1BF01200C2
:02001E000300DD
:100020008D45000000010000E600000006450000CC
:100030000003000087000000EA440000B80200004E
:040040001C000000A0
:0C004400010EE66E58EC22F0E5521200AE
:10005000D9CFE6FFE1CFD9FFE652010EDF6EF2DF26
:10006000938E81BE04D0DF2A01E101D0FAD7EADF06
:10007000DF5000D0E552E552E7CFD9FF1200D9CFCB
:10008000E6FFE1CFD9FFE652938CE2DFDF6E819C81
:10009000939CD8DF819E939EE552E552E7CFD9FF2E
:1000A0001200D9CFE6FFE1CFD9FFE652939C819CA5
:1000B000CFDFDF6E938CC6DFE552E552E7CFD9FF85
:1000C0001200D9CFE6FFE1CFD9FFE652080EDF6E6E
:1000D000DF5017E0FE0EDBAE02D0938C02D0819C85
:1000E000939CB6DF00090BE0819E939EFE0EDBCF52
:1000F000F3FFF39EF346F3CFDBFFDF06E9D7010EF4
:100100000FD0938CA5DF000909E08150400B01E07E
:10011000010EDF6E819E939EDF5002D0010E00D053
:10012000E552E552E7CFD9FF1200D9CFE6FFE1CF84
:10013000D9FF020EE126DF6A938CDE52080EDD6ED7
:10014000010EDB5010E084DF00090BE0DF9EDF468C
:1001500081AC02D0000EDF80819E939E010EDB06F3
:10016000EFD7000E11D0FE0EDB50E8B0818CE8A076
:10017000819C939C6DDF000905E0819E939EDF507A
:1001800003D002D0000E00D0146E020EE15C02E239
:10019000E16AE552E16E1450E552E7CFD9FF120053
:1001A0006EDF420EE66E8DDFE552000901E031D0D0
:1001B000470EE66E86DFE552000901E02AD0740E94
:1001C000E66E7FDFE552000901E023D0720EE66E95
:1001D00078DFE552000901E01CD063DF50DF420EFA
:1001E000E66E6FDFE552000901E013D04C0EE66EBB
:1001F00068DFE552000901E00CD053DF320EE66EF5
:10020000E66A0EEC0EF0E552E5520201010E9A6F1D
:1002100003D002019A6B45DF1200D9CFE6FFE1CF90
:10022000D9FF060EE12602019A5101E1E6D027DF4F
:10023000E66A7BDFE552166E176A16C017F0166A7B
:1002400016C0E6FF17C0E6FF010EE66E6EDFE55250
:10025000E552E7CF17F0E552E7CF16F00001161090
:10026000146E17C015F0040E14C0DBFF050E15C088
:10027000DBFF17DFD950040FE96EDACFEAFF0F0E6C
:100280000D6E0E6AEECF08F0EDCF09F026EC22F0ED
:1002900008C0EEFF09C0EDFF040EDBCFDEFFDBCFB1
:1002A000DDFF0201483504E24751F008000E4855D1
:1002B00008E20201496B4A6B02014707000E485BE6
:1002C0009CD0F00E471901E1485107E1DECF47F21B
:1002D000DDCF48F20201496B4A6B0201DE50475DF7
:1002E000146EDD504859156E14C0DEFF15C0DDFFD9
:1002F000DECF14F0DDCF15F0153404E31450880878
:10030000FF0E155405E3F00EDE26000EDD2213D09D
:10031000DECF14F0DDCF15F0153404E21450780868
:10032000000E155408E2D9CFE9FFDACFEAFFF00E4C
:10033000EE5E000EED5ADECF16F0DDCF17F0D8805E
:10034000175004E7EC0E165CFF0E175804E2EC0E93
:10035000146E156813D0DECF18F0DDCF19F0193404
:1003600004E218501408000E195404E2140E146E1E
:10037000156A04D0DECF14F0DDCF15F014C0DEFF17
:1003800015C0DDFF080EE66E49C218F04AC219F02A
:10039000030E1902F3CF19F01802F3CF18F0F4503E
:1003A0001926DE501824166EDD501920176ED890CD
:1003B00016361736D89016361736D2C21AF01B6A80
:1003C0001ABE1B6800011A501602F3CF14F0F4CFC6
:1003D00015F01702F35015261B501602F350152680
:1003E00014C0E6FF15C0E6FFA8EC0EF0E552E5529A
:1003F000E552F3CF49F2F4CF4AF2060EE15C02E295
:10040000E16AE552E16EE552E7CFD9FF120037DE2F
:10041000EE0EE66E56DEE552000901E03FD0F60E24
:10042000E66E4FDEE552000901E038D028DEEF0E1F
:10043000E66E47DEE552000901E030D0010EE66EBF
:1004400074DEE55202013F6F406B3FC240F23F6BEA
:1004500028DE15DEEE0EE66E34DEE552000901E020
:100460001DD0F70EE66E2DDEE552000901E016D034
:1004700006DEEF0EE66E25DEE552000901E00ED045
:10048000010EE66E52DEE552146E156A145002013A
:100490003F131550401305DE010E05D002DE0201A8
:1004A0009B6B000E00D01200D9CFE6FFE1CFD9FF41
:1004B000E6DDEE0EE66E05DEE552000901E01CD039
:1004C000F40EE66EFEDDE552000901E015D0FE0EE9
:1004D000DBCFE6FFF6DDE552000901E00DD0E1DDFE
:1004E000FE0EDB500201445D02E0000E01D0010E61
:1004F00002019C6F010E03D0D4DD000E00D0E55246
:10050000E7CFD9FF1200D9CFE6FFE1CFD9FFE652FE
:10051000000E0201B06FB16B0201416F426BAFDDA3
:10052000EE0EE66ECEDDE552000901E058D0D00EA9
:10053000E66EC7DDE552000901E051D0A0DDEF0E07
:10054000E66EBFDDE552000901E049D0010EE66E1E
:10055000ECDDE5520201436FA4DD550E0201435D5F
:1005600004E102012E0E446F03D002016E0E446FAF
:1005700044C2E6FF99DFE552000901E130D00A0EDE
:10058000E66EE66A0EEC0EF0E552E55240DFDF6EF5
:100590003FC238F240C239F202013A6BF40EE66E05
:1005A00083DFE552000901E11AD01E0EE66EE66A0D
:1005B0000EEC0EF0E552E5522ADFDF6E3FC235F257
:1005C00040C236F20201376B44C2E6FF6DDFE552EE
:1005D000000901E104D00201010E9B6F05D0020168
:1005E000A16BA1C29BF25DDDE552E552E7CFD9FFD9
:1005F0001200D9CFE6FFE1CFD9FF060EE1260201B6
:10060000B02B000EB12302019B5101E1BFD1020EBC
:100610000201B1AF02D0D89003D0B05D000EB15945
:1006200003E302019C510FE1080E0201B1AF02D0B9
:10063000D89003D0B05D000EB15901E2A7D10201FC
:100640009C5101E0A3D10201B06BB16BE0DE010867
:1006500001E09CD102019C5123E0F40EE66E24DF00
:10066000E5520201A651A71107E03FC238F240C28D
:1006700039F202013A6B13D03FC217F040C218F0B2
:10068000196A02013851175C146E39511858156EE9
:100690003A511958166E14C03DF215C03EF276D18B
:1006A00044C2E6FF01DFE5520201A651A7110CE0AA
:1006B0003FC235F240C236F20201376B0201A16B34
:1006C0000201416B426B62D1020146BF06D0800E2F
:1006D000E66E62EC12F0E55205D0800EE66E6FEC2D
:1006E00012F0E5520201A15106E102013B6B3C6BA5
:1006F0000201010EA16F0201355102013F5F0201AB
:1007000036510201405B050EE66EBBC216F0176A59
:1007100016BE1768020116503D03F3CF14F0F4CF54
:1007200015F03E03F35000011526175002013D035A
:10073000F35000011526100E1426000E152214C0C9
:10074000E6FF15C0E6FFA8EC0EF0E552E552E552D3
:10075000F35002013F27F45040233BC2DEFF3CC26E
:10076000DDFF030EE66E070E086E096A3BC20DF050
:100770003CC20EF003EC1FF0065002013F25146E40
:1007800007504021156E040E1426000E152214C0C9
:10079000E6FF15C0E6FFA8EC0EF0E552E552E55283
:1007A000F3CF3BF2F4CF3CF20201DE503B5D146E1E
:1007B000DD503C59156E040E14C0DBFF050E15C04C
:1007C000DBFFD8803C5104E7FE0E3B5DFF0E3C5939
:1007D00004E2FE0E3B6F3C690DD03C3504E23B5118
:1007E0000808000E3C5504E2080E3B6F3C6B02D03B
:1007F0003CC23CF2C0C214F0156A14BE15683BC27C
:1008000008F03CC209F014C00DF015C00EF003EC66
:100810001FF0020E06C0DBFF030E07C0DBFF020E57
:10082000DBCF14F0030EDBCF15F002011550421997
:10083000E8AE02D0423504D04151145C4251155803
:1008400004E24107000E425B14D0020EDBCF14F02D
:10085000030EDBCF15F042511518E8AE02D0153467
:1008600004D01450415D1550425903E2412B000E53
:100870004223020EDBCF14F0030EDBCF15F0155030
:100880004219E8AE02D0423504D04151145C4251C5
:10089000155804E24107000E425B14D0020EDBCF74
:1008A00014F0030EDBCF15F042511518E8AE02D05C
:1008B000153404D01450415D1550425903E2412BC8
:1008C000000E4223D3C21AF01B6A1ABE1B68040E24
:1008D000DBCF16F0050EDBCF17F0D880175004E7FA
:1008E000F80E165CFF0E175804E2F80E146E156829
:1008F00017D0040EDBCF18F0050EDBCF19F019343A
:1009000004E218500808000E195404E2080E146E90
:10091000156A06D0040EDBCF14F0050EDBCF15F000
:1009200014C008F015C009F01AC00DF01BC00EF07D
:1009300003EC1FF006500201412707504223D880E4
:10094000425104E7FB0E415DFF0E425904E2FB0EEB
:10095000416F42690DD0423504E241510F08000E4B
:10096000425504E20F0E416F426B02D042C242F286
:10097000020146BF06D0800EE66E62EC12F0E55230
:1009800005D0800EE66E6FEC12F0E552060EE15CCB
:1009900002E2E16AE552E16EE552E7CFD9FF1200CB
:1009A000D9CFE6FFE1CFD9FF020EE126FD0EDBCF66
:1009B00051F2FE0EDBCF52F251C24FF252C250F250
:1009C00051C24DF252C24EF2FD0EDBCF53F2FE0E7B
:1009D000DBCF54F20201C7A162D0020155510201DE
:1009E000575D166E585102015655176E0201595146
:1009F000165C146E5A511758156E145002014F2789
:100A0000155050230868096857C20DF058C20EF0FF
:100A100003EC1FF0065002015525166E07505621B3
:100A2000176E02015951165C146E5A511758156E03
:100A3000145002015127155052230868096857C203
:100A40000DF058C20EF003EC1FF002015551065C88
:100A5000166E56510758176E165002015925146E1E
:100A600017505A21156E145002014D2715504E2370
:100A70000201575102015525166E0201585102011B
:100A80005621176E165002015925146E17505A211F
:100A9000156E1450020153271550542345D0086891
:100AA000096855C20DF056C20EF003EC1FF00201AA
:100AB0005951065C146E5A510758156E14500201B4
:100AC0004F2715505023020159510201555D146EF4
:100AD000565102015A55156E1450020151271550F6
:100AE00052230868096857C20DF058C20EF003EC93
:100AF0001FF0065002015925146E07505A21156E39
:100B0000145002014D2715504E2302015751020186
:100B10005925146E0201585102015A21156E1450C4
:100B20000201532715505423020EE15C02E2E16AF0
:100B3000E552E16EE552E7CFD9FF1200D9CFE6FFCB
:100B4000E1CFD9FF100EE12602014E515019E8AE57
:100B500002D0503504D04F514D5D50514E5905E2F1
:100B60004FC214F050C215F004D04DC214F04EC262
:100B700015F0166A15BE16680A0E14C0DBFF0B0EC0
:100B800015C0DBFF0C0E16C0DBFF51C217F052C2BE
:100B900018F0196A18BE1968D9500A0FE96EDACF31
:100BA000EAFF020EEB501918E8AE02D0193406D055
:100BB0001750EE5C1850EE581950EE5808E251C22A
:100BC00014F052C215F0166A15BE166809D00A0E46
:100BD000DBCF14F00B0EDBCF15F00C0EDBCF16F0D5
:100BE0000A0E14C0DBFF0B0E15C0DBFF0C0E16C087
:100BF000DBFF53C217F054C218F0196A18BE196807
:100C0000D9500A0FE96EDACFEAFF020EEB5019183D
:100C1000E8AE02D0193406D01750EE5C1850EE58EA
:100C20001950EE5808E253C214F054C215F0166A77
:100C300015BE166809D00A0EDBCF14F00B0EDBCF01
:100C400015F00C0EDBCF16F00A0E14C0DBFF0B0EF6
:100C500015C0DBFF0C0E16C0DBFFFD0EDBCF17F05F
:100C6000FE0EDBCF18F0196A18BE1968D9500A0FAA
:100C7000E96EDACFEAFF1750EE5C146E1850EE58AA
:100C8000156E1950EE58166E0D0E14C0DBFF0E0EC9
:100C900015C0DBFF0F0E16C0DBFF0D0EDBCF14F00F
:100CA0000E0EDBCF15F00F0EDBCF16F01634000E54
:100CB000161807E6D880000E1454000E1554000EC6
:100CC000165401E36DD1F00E176E186A196AFD0E05
:100CD000DBCF1AF0FE0EDBCF1BF01C6A1BBE1C68BC
:100CE0001A50175C146E1B501858156E1C5019586A
:100CF000166E15C016F014C015F014C015F0146A65
:100D000014C007F015C008F016C009F00D0EDBCFB7
:100D10000CF00E0EDBCF0DF00F0EDBCF0EF0D6EC8D
:100D20001EF0040E07C0DBFF050E08C0DBFF060E39
:100D300009C0DBFFFD0EDBCF17F0FE0EDBCF18F096
:100D4000196A18BE1968CEC21AF01B6A1C6A1AAE5C
:100D500002D01B681C681A50175C146E1B50185880
:100D6000156E1C501958166E15C016F014C015F0EB
:100D700014C015F0146A14C007F015C008F016C0AE
:100D800009F00D0EDBCF0CF00E0EDBCF0DF00F0EC9
:100D9000DBCF0EF0D6EC1EF0070E07C0DBFF080E0F
:100DA00008C0DBFF090E09C0DBFF070EDBCF17F021
:100DB000080EDBCF18F0090EDBCF19F0D950040F65
:100DC000E96EDACFEAFF020EEB501918E8AE02D056
:100DD000193406D01750EE5C1850EE581950EE58E2
:100DE0000AE2040EDBCF14F0050EDBCF15F0060E81
:100DF000DBCF16F009D0070EDBCF14F0080EDBCFE7
:100E000015F0090EDBCF16F0010E14C0DBFF020E49
:100E100015C0DBFF030E16C0DBFFD950010FE96ED2
:100E2000DACFEAFF020ED890EB50000A06E6000E79
:100E3000EE5C010EEE58000EEF5801E3AED001015A
:100E4000010EF06F55C217F056C218F0196A18BE9D
:100E5000196817C007F018C008F019C009F0DBCFF7
:100E60000CF0020EDBCF0DF0030EDBCF0EF030ECFA
:100E70001FF004C014F005C015F006C016F0800E77
:100E80001426000E152216220C6A010E0D6E0E6A33
:100E900014C007F015C008F016C009F0D6EC1EF01B
:100EA00007C014F008C015F009C016F014C055F2C0
:100EB00015C056F257C217F058C218F0196A18BE7A
:100EC000196817C007F018C008F019C009F0010E22
:100ED000DBCF0CF0020EDBCF0DF0030EDBCF0EF0FC
:100EE00030EC1FF004C014F005C015F006C016F079
:100EF000800E1426000E152216220C6A010E0D6EAD
:100F00000E6A14C007F015C008F016C009F0D6EC40
:100F10001EF007C014F008C015F009C016F014C088
:100F200057F215C058F259C217F05AC218F0196A90
:100F300018BE196817C007F018C008F019C009F0EA
:100F4000010EDBCF0CF0020EDBCF0DF0030EDBCF7A
:100F50000EF030EC1FF004C014F005C015F006C010
:100F600016F0800E1426000E152216220C6A010EB1
:100F70000D6E0E6A14C007F015C008F016C009F017
:100F8000D6EC1EF007C014F008C015F009C016F02A
:100F900014C059F215C05AF202D00101F06B02D010
:100FA0000101F06B100EE15C02E2E16AE552E16ED4
:100FB000E552E7CFD9FF1200D9CFE6FFE1CFD9FF45
:100FC000040EE1260201615102014125166E020163
:100FD000625102014221176E0201005100011624E4
:100FE000146E000E1720156E020E14C0DBFF030EE8
:100FF00015C0DBFF020EDBCF16F0030EDBCF17F0C0
:10100000800E171403E0146A156A17D0020EDBCFA6
:1010100018F0030EDBCF19F0193404E21850D80889
:10102000000E195404E2D80E146E156A06D0020E92
:10103000DBCF14F0030EDBCF15F0020E14C0DBFF84
:10104000030E15C0DBFF020EDBCFE6FF030EDBCF86
:10105000E6FFA6DCE552E552020EDBCFE6FF030E0B
:10106000DBCFE6FF6BDDE552E5520101F05109E00F
:10107000020EDBCFE6FF030EDBCFE6FF91DCE5528D
:10108000E552040EE15C02E2E16AE552E16EE552EE
:10109000E7CFD9FF1200D9CFE6FFE1CFD9FF040E89
:1010A000E1260201A451A5112FE10201CA5103E179
:1010B0000201D15129E0CAC214F0156A14BE1568A4
:1010C00013C208F014C209F014C00DF015C00EF0E0
:1010D000B0EC1EF008C0DEFF09C0DDFFD1C214F085
:1010E000156A14BE156815C208F016C209F014C0BE
:1010F0000DF015C00EF0B0EC1EF0020E08C0DBFFC4
:10110000030E09C0DBFF0CD0010EF36E020EF3CF0D
:10111000DBFF030EDB6A020EDBCFDEFFDBCFDDFF82
:1011200002019E5105E0770EDE26000EDD2205D07D
:1011300002010651DE26000EDD2202010551146E69
:10114000156AD950020FE96EDACFEAFF1450EE2685
:101150001550ED22DECF16F0DDCF17F0D8901750E6
:1011600004E6010E165C000E175804E2010E146E20
:10117000156A13D0DECF18F0DDCF19F0193404E270
:101180001850F008000E195404E2F00E146E156A9F
:1011900004D0DECF14F0DDCF15F014C04BF2020EF8
:1011A000DBCF16F0030EDBCF17F0D890175004E614
:1011B000010E165C000E175804E2010E146E156A3B
:1011C00017D0020EDBCF18F0030EDBCF19F0193465
:1011D00004E21850F008000E195404E2F00E146EE8
:1011E000156A06D0020EDBCF14F0030EDBCF15F02C
:1011F00014C04CF2040EE15C02E2E16AE552E16ED9
:10120000E552E7CFD9FF1200000EE66EE66AA4ECC5
:1012100021F0E552E552F29400010F0E806F0F0E9F
:1012200081124DC281F053C282F04FC283F051C28D
:1012300084F04BC285F04CC286F068EC21F0F3CF0D
:1012400014F0F4CF15F0E90E145C000E155801E20D
:10125000F4D7F29EF2A4FED7F29402019D5105E06C
:1012600000013F0E806F3F0E811202019D7100014F
:101270008051816E0F0B12E0812F40EF09F08091B9
:10128000832F44EF09F08093842F48EF09F0809575
:10129000822F38EF09F0809738EF09F0F28E68EC72
:1012A00021F0F3CF14F0F4CF15F0E90E145C000E2A
:1012B000155801E2F4D7F29EF2A4FED70001805146
:1012C000816E300B0EE0852F67EF09F08099862F35
:1012D0006BEF09F0809B00000000000000005FEF52
:0612E00009F0F28E12007D
:0A12E6000201195102011327020151
:1012F0001A51020114230201A451A5115FE1BCC2DD
:1013000014F00001146C156A14BE156814C015F0B1
:10131000146A020114511518E8AE02D0153404D035
:101320001450135D155014590AE2BCC213F2136D28
:10133000146B13BF146913C214F2136B1ED0BCC21A
:1013400016F0176A16BE176816C017F0166A1750FF
:101350001419E8AE02D0143504D01351165C1451A0
:10136000175809E2BCC213F2146B13BF146913C2FD
:1013700014F2136B02D014C214F22DC214F0156AC9
:1013800014BE15681450132715501423800E14151D
:1013900007E0010E1325136F000E1421146F0ED0F9
:1013A000143504E213510008000E145505E2010E35
:1013B000135F000E145B02D0136B146B120002015A
:1013C0001B510201152702011C51020116230201C3
:1013D000A451A5115FE1C1C214F00001146C156A9B
:1013E00014BE156814C015F0146A020116511518C0
:1013F000E8AE02D0153404D01450155D15501659BE
:101400000AE2C1C215F2156D166B15BF166915C239
:1014100016F2156B1ED0C1C216F0176A16BE1768F9
:1014200016C017F0166A17501619E8AE02D0163516
:1014300004D01551165C1651175809E2C1C215F2B5
:10144000166B15BF166915C216F2156B02D016C2BF
:1014500016F22EC214F0156A14BE15681450152722
:1014600015501623800E161507E0010E1525156F71
:10147000000E1621166F0ED0163504E21551000825
:10148000000E165505E2010E155F000E165B02D028
:10149000156B166B1200D9CFE6FFE1CFD9FF020E14
:1014A000E12603C214F0156A14BE15681450020137
:1014B0000B2715500C2302019A513BE00201033522
:1014C00004E3FF0E0303F35001D00351146E0A0E20
:1014D000E76E1418E8AE02D0143403D0E750D88079
:1014E000145404E202014769486B23D002014A35D3
:1014F00004E249511E08000E4A5506E21E0E020182
:101500000B5F000E0C5B15D0D8804A5104E7E20E49
:10151000495DFF0E4A5906E21E0E02010B27000E1E
:101520000C2307D0495102010B5F02014A5102010D
:101530000C5B02010B510201172702010C51020141
:101540001823C6C214F00001146C156A14BE156885
:1015500014C015F0146A020118511518E8AE02D033
:10156000153404D01450175D155018590AE2C6C23C
:1015700017F2176D186B17BF186917C218F2176B9F
:101580001ED0C6C216F0176A16BE176816C017F02E
:10159000166A17501819E8AE02D0183504D0175142
:1015A000165C1851175809E2C6C217F2186B17BF1C
:1015B000186917C218F2176B02D018C218F2800E01
:1015C000181507E0010E1725176F000E1821186F68
:1015D0000ED0183504E217510008000E185505E228
:1015E000010E175F000E185B02D0176B186B800E90
:1015F000181507E0010E1725176F000E1821186F38
:101600000ED0183504E217510008000E185505E2F7
:10161000010E175F000E185B02D0176B186B020EDD
:10162000E15C02E2E16AE552E16EE552E7CFD9FF03
:101630001200010EE66E020EE66E72EC20F0E5522C
:10164000E552F35002011927F4501A23010EE66EF9
:10165000E66E72EC20F0E552E552F35002011B27D2
:10166000F4501C231200D9CFE6FFE1CFD9FF020EC0
:10167000E126010E02011925196F000E1A211A6FB9
:10168000D8901A331933010E02011B251B6F000E6F
:101690001C211C6FD8901C331B330201A53504E2BA
:1016A000A4510008000EA55569E20201195102017A
:1016B000132702011A510201142302011B510201D6
:1016C000152702011C51020116230201010EA41963
:1016D00001E1A55152E1080E02011327000E142367
:1016E000080E02011527000E16230201995118E178
:1016F000CFC214F0156A14BE1568020113511424E8
:10170000136F14511520146FD0C214F0156A14BE53
:101710001568020115511424156F16511520166F06
:1017200013C214F014C215F0040ED89015321432FE
:10173000E804FBE114C021F215C022F215C214F036
:1017400016C215F0040ED89015321432E804FBE1ED
:1017500014C023F215C024F20201256B266B02018E
:101760002E6B2EC22DF22EC215F20201166B15BF82
:10177000166915C213F216C214F2A1D0020121514A
:101780000201195F0201225102011A5B0201235179
:1017900002011B5F0201245102011C5B0201C7A16F
:1017A0003CD00201195102011B25146E02011A518D
:1017B00002011C21156E14C0DEFF15C0DDFF020101
:1017C000195102011B5F02011A5102011C5BDECF9D
:1017D00019F2DDCF1AF20201D89019371A37030E29
:1017E0000D6E0E6A19C208F01AC209F0B0EC1EF0B4
:1017F00008C019F209C01AF20201D8901B371C3731
:10180000030E0D6E0E6A1BC208F01CC209F0B0EC8C
:101810001EF008C01BF209C01CF2010EE66E0201A8
:10182000156A1925146E1A51152214C0E6FF15C049
:10183000E6FFA8EC0EF0E552E552E552F3CF07F2D1
:10184000F4CF08F250DD010EE66E0201156A1B2589
:10185000146E1C51152214C0E6FF15C0E6FFA8EC5B
:101860000EF0E552E552E552F3CF09F2F4CF0AF259
:10187000A6DDE66A040EE66E72EC20F0E552E55253
:10188000F3CF0BF2F4CF0CF20201D8900C330B33F0
:10189000D8900C330B3302012551261104E10BC201
:1018A00025F20CC226F2255102010B5F02012651DE
:1018B00002010C5B0BC21FF20CC220F2ECDD020E27
:1018C000E15C02E2E16AE552E16EE552E7CFD9FF61
:1018D00012004BEC1AF0040EE66EB8C218F0196A4A
:1018E00018BE1968020118500703F3CF16F0F4CFA1
:1018F00017F00803F35000011726195002010703DF
:10190000F35000011726BAC21CF01D6A1CBE1D68E8
:101910000201075102010D5D1A6E0E5102010855B8
:101920001B6E1AC008F01BC009F01CC00DF01DC0D2
:101930000EF003EC1FF016500624146E175007200B
:10194000156E080E1426000E152214C0E6FF15C0F1
:10195000E6FFA8EC0EF0E552E552E552F3CF55F262
:10196000F4CF56F20201A451A5112AE1080EE66E49
:10197000B9C216F0176A16BE176802011650130393
:10198000F3CF14F0F4CF15F01403F3500001152633
:10199000175002011303F35000011526800E142680
:1019A000000E152214C0E6FF15C0E6FFA8EC0EF0ED
:1019B000E552E552E552F35002015527F450562303
:1019C00001C214F0156A14BE156814500201555F67
:1019D0001550565B040EE66EBDC218F0196A18BEAB
:1019E0001968020118500903F3CF16F0F4CF17F06D
:1019F0000A03F35000011726195002010903F3509E
:101A000000011726BFC21CF01D6A1CBE1D68020122
:101A1000095102010F5D1A6E105102010A551B6E29
:101A20001AC008F01BC009F01CC00DF01DC00EF05C
:101A300003EC1FF016500624146E17500720156E85
:101A4000080E1426000E152214C0E6FF15C0E6FF8E
:101A5000A8EC0EF0E552E552E552F3CF57F2F4CF81
:101A600058F20201A451A5112AE1080EE66EBEC289
:101A700016F0176A16BE1768020116501503F3CF49
:101A800014F0F4CF15F01603F3500001152617508B
:101A900002011503F35000011526800E1426000ED6
:101AA000152214C0E6FF15C0E6FFA8EC0EF0E552C3
:101AB000E552E552F35002015727F450582302C271
:101AC00014F0156A14BE156814500201575F1550C2
:101AD000585B040EE66EC2C218F0196A18BE196887
:101AE000020118500B03F3CF16F0F4CF17F00C03DC
:101AF000F35000011726195002010B03F3500001A7
:101B00001726C4C21CF01D6A1CBE1D6802010B51C1
:101B10000201115D1A6E125102010C551B6E1AC0A2
:101B200008F01BC009F01CC00DF01DC00EF003EC46
:101B30001FF016500624146E17500720156E080E5D
:101B40001426000E152214C0E6FF15C0E6FFA8EC0F
:101B50000EF0E552E552E552F3CF59F2F4CF5AF2C6
:101B6000080EE66EC3C216F0176A16BE17680201A9
:101B700016501703F3CF14F0F4CF15F01803F350F9
:101B800000011526175002011703F3500001152616
:101B9000800E1426000E152214C0E6FF15C0E6FFC5
:101BA000A8EC0EF0E552E552E552F3500201592738
:101BB000F4505A23C5C214F00001146C156A14BE07
:101BC000156802015A511518E8AE02D0153404D038
:101BD0001450595D15505A5907E2C5C259F2596D52
:101BE0005A6B59BF5A6918D0C5C216F0176A16BE8B
:101BF000176817505A19E8AE02D05A3504D0595117
:101C0000165C5A51175806E2C5C259F25A6B59BFB1
:0C1C10005A6902D05AC25AF298EF11F043
:041C1C00D9CFE6FF37
:101C2000E1CFD9FF030EE126F250200B01E0010EB7
:101C3000E76E020EE7CFDBFFF29AFD0EDBCFDEFF91
:101C4000DBCFDDFFD9CFE9FFDACFEAFFEE50ED10B1
:101C500008E0F2A4FED7F294DF06010E01E2DB06F3
:101C6000F1D7020EDB50E8B0F28AE8A0F29A030E38
:101C7000E15C02E2E16AE552E16EE552E7CFD9FFAD
:101C80001200D9CFE6FFE1CFD9FF050EE126F250D1
:101C9000200B01E0010EE76E040EE7CFDBFFF29AA6
:101CA000DE6ADD6ADECF14F0DDCF15F0FD0EDBCF8E
:101CB00016F0FE0EDBCF17F00A0E1702F3CF17F067
:101CC0001602F3CF16F0F450172615501718E8AE89
:101CD00002D0173404D01650145C1750155828E25F
:101CE000080EF36E020EF3CFDBFF030EDB6AD95052
:101CF000020FE96EDACFEAFFEE50ED1009E0F2A430
:101D0000FED7F294020EDB06030E01E2DB06EFD7EC
:101D100004EC09F09EAA07D0040EDB50E8B0F28A6A
:101D2000E8A0F29A0BD0DF2A010E01E3DB2ABAD732
:101D3000040EDB50E8B0F28AE8A0F29A050EE15CEE
:101D400002E2E16AE552E16EE552E7CFD9FF120007
:101D5000D9CFE6FFE1CFD9FFFD0EDBCF16F0FE0EA7
:101D6000DBCF17F00001800E17141BE0FD0EDBCF58
:101D700018F0FE0EDBCF19F0186C191E000E192298
:101D8000FC0EDB5018C014F019C015F005E0D89017
:101D900015321432E804FBE1146C151E000E1522F6
:101DA00012D0FD0EDBCF1AF0FE0EDBCF1BF0FC0EC7
:101DB000DB501AC014F01BC015F005E0D8901532A6
:101DC0001432E804FBE114C0F3FF15C0F4FF00D0A7
:101DD000E552E7CFD9FF1200D9CFE6FFE1CFD9FF17
:101DE000D950FC0FE96EFF0EDA20EA6E020ED89091
:101DF000EB50000A06E6000EEE5C000EEE58000EF8
:101E0000EF583CE2FC0EDBCF17F0FD0EDBCF18F0F5
:101E1000FE0EDBCF19F00C680D680E6817C007F0D6
:101E200018C008F019C009F030EC1FF004C017F01A
:101E300005C018F006C019F0FB0EDB501F0B17C0D1
:101E400014F018C015F019C016F006E0D89016323C
:101E500015321432E806FAE10C680D680E6814C0F9
:101E600007F015C008F016C009F030EC1FF004C0F0
:101E700014F005C015F006C016F016D0D950FC0FAE
:101E8000E96EFF0EDA20EA6EFB0EDB501F0BEECF81
:101E900014F0EECF15F0EECF16F006E0D890163223
:101EA00015321432E806FAE114C007F015C008F044
:101EB00016C009F000D0E552E7CFD9FF12003F0E5F
:101EC000926E020EC16EC00E816E400E936E600E59
:101ED000826E840E946EC78CF19E1200D9CFE6FFFD
:101EE000E1CFD9FFE652DF6ADFCF14F0040EE76ED0
:101EF0001418E8AE02D0E73402D0E750145C11E2C7
:101F0000DFCFE9FFEA6AE9BEEA68D890E936EA3647
:101F10004D0EE926020EEA22010EEE6EED6ADF2A70
:101F2000E3D70201770E4B6F4BC24CF20201946B68
:101F3000000E0201116F126B02010F6F106B020194
:101F40000D6F0E6B0201416F426B0201616F626B9C
:101F500002015D6F5E6B02015B6F5C6B0201326BB5
:101F6000336B02012E6B2EC22DF20201156F166B20
:101F70000201136F146B0201176F186B02011D6BC6
:101F80001E6B0201456B0201B26BB36BB46BE55281
:101F9000E552E7CFD9FF1200D9CFE6FFE1CFD9FF55
:101FA000060EE126DE6ADE6A010EDE6EDD6ADD52B5
:101FB000DD52040EDB6A050EDB6ADECF07F0DECFF2
:101FC00008F0DECF09F0DDCF0AF0DD52DD520A3431
:101FD000000E0A1809E6D880000E0754000E0854B7
:101FE000000E0954000E0A5401E37ED0FB0EDBCF35
:101FF0001CF0FC0EDBCF1DF0FD0EDBCF1EF0FE0E45
:10200000DBCF1FF0040EDBCF18F0050EDBCF19F08D
:102010001A6A1B6A19AE02D01A681B68040EDBCF5D
:1020200014F0050EDBCF15F0166A176A15AE02D054
:102030001668176814C006F015C007F016C008F03F
:1020400017C009F018C00BF019C00CF01AC00DF041
:102050001BC00EF0B2EC20F01F500518E8AE02D005
:10206000053408D002501C5C03501D5804501E5803
:1020700005501F580EE2DFCF14F0010EDBCF15F034
:10208000D950040FE96EDACFEAFF1450EE5E155016
:10209000ED5AD9CFE9FFDACFEAFFEECF14F0EECF59
:1020A00015F0EECF16F0EFCF17F0D89017321632AA
:1020B0001532143214C0DFFF010E15C0DBFF020E13
:1020C00016C0DBFF030E17C0DBFFDFCF14F0010EDD
:1020D000DBCF15F0D950040FE96EDACFEAFF1450C8
:1020E000EE261550ED2269D7040EDBCF14F0050E55
:1020F000DBCF15F014C0F3FF15C0F4FF060EE15C52
:1021000003E200D0E16AE552E16EE552E7CFD9FF84
:102110001200D9CFE6FFE1CFD9FF020EE126E66A31
:10212000E66A72EC20F0E552E552F3CF14F0F4CFFA
:1021300015F0030ED89015321432E804FBE114C0F8
:10214000DEFF15C0DDFF010EE66EB5C216F0176AA0
:1021500016BE1768DE501624146EDD501720156E5B
:10216000010E1426000E152214C0E6FF15C0E6FF6E
:10217000EFDDE552E552E552F3CFB5F2B5C214F00A
:10218000156A14BE1568C9C216F0176A16BE17681C
:1021900015501718E8AE02D0173404D01650145C4E
:1021A0001750155802E3000E01D0010E010B020179
:1021B000986F98511CE0320E0201ADAF02D0D8905A
:1021C00003D0AC5D000EAD5909E2800EE66E7AD9FF
:1021D000E552040EE66E76D9E55208D0800EE66E22
:1021E0007ED9E552040EE66E7AD9E55252D0A2515C
:1021F00026E0320E0201ADAF02D0D89003D0AC5D24
:10220000000EAD5913E2020E0201AFAF02D0D8901A
:1022100003D0AE5D000EAF5909E2800EE66E52D9D2
:10222000E552040EE66E4ED9E55208D0800EE66EF9
:1022300056D9E552040EE66E52D9E5522AD0A05185
:1022400020E0320E0201ADAF02D0D89003D0AC5DD9
:10225000000EAD590DE20201AE51AF1109E1800E41
:10226000E66E30D9E552040EE66E2CD9E55208D060
:10227000800EE66E34D9E552040EE66E30D9E55292
:1022800008D0800EE66E2BD9E552040EE66E27D9F3
:10229000E552020EE15C02E2E16AE552E16EE552CE
:1022A000E7CFD9FF12000201AA07000EAB5BAA51CB
:1022B000AB113DE102010051146E156AFF0ED8808A
:1022C0001456000E1556030ED89015321432E80439
:1022D000FBE1050E02011424AA6F000E1520AB6F5E
:1022E0000201A15105E0510EE66EECD8E5521FD077
:1022F000020146A909D0510EE66EF1D8E552010E51
:10230000E66EE0D8E55213D046A109D0510EE66E34
:10231000E6D8E552400EE66ED5D8E55208D0510E0B
:10232000E66EDDD8E552100EE66ECCD8E55212000E
:102330000201C751E840E8403F0B010B4DE02E0E73
:10234000E66ECDD8E55214C214F0156A000EE76EA1
:102350001418E8AE02D0143403D0E750D8801454D7
:1023600005E2040EE66EAED8E55211D014C214F0A8
:10237000156AFF0EE76E1418E8AE02D0E73402D0FB
:10238000E750145C04E2080EE66E9CD8E55216C2D3
:1023900014F0156A000EE76E1418E8AE02D014347B
:1023A00003D0E750D880145405E2200EE66E8AD898
:1023B000E55211D016C214F0156AFF0EE76E14181C
:1023C000E8AE02D0E73402D0E750145C04E2020E1B
:1023D000E66E78D8E5522AD0C751E00BE838E840DD
:1023E000010B24E02E0EE66E7AD8E55202014A3542
:1023F00004E249510008000E4A5505E2080EE66E57
:1024000061D8E55207D0800E4A1504E0040EE66E4E
:1024100059D8E5520201483504E24751F008000E50
:10242000485504E2200EE66E4DD8E5521200020136
:10243000AC51AD110DE1640EAC6FAD6B0201AE514C
:10244000AF1103E1080EAE6FAF6BAE07000EAF5BCE
:102450000201AC07000EAD5B1200D9CFE6FFE1CF61
:10246000D9FF020EE12646C2DFFF828A9498829647
:10247000DE52080EDD6E010EDB5016E0DFAE02D03C
:10248000828801D08298DF9EDF46010EE66E58EC0E
:1024900022F0E5528286010EE66E58EC22F0E552FB
:1024A0008296010EDB06E7D782828292828694882A
:1024B000020EE15C02E2E16AE552E16EE552E7CF2D
:1024C000D9FF1200D9CFE6FFE1CFD9FFFE0EDB50D6
:1024D00002014613C2DFE552E7CFD9FF1200D9CF80
:1024E000E6FFE1CFD9FFFE0EDB1C02014617B5DF88
:0824F000E552E7CFD9FF12000D
:0824F800B80EE66E3F0EE66E21
:10250000BAEC17F0E552E5521200D9CFE6FFE1CF61
:10251000D9FFFE0EDB500BE0000EE66E010EE66EFC
:102520009CEC17F0E552E5520201010E046F6B0EB0
:10253000E66E010EE66E9CEC17F0E552E5520201E4
:10254000995109E0AF0EE66E3F0EE66EBAEC17F059
:10255000E552E55208D09F0EE66E3F0EE66EBAECED
:1025600017F0E552E552960EE66E3F0EE66EBAECB7
:1025700017F0E552E55202019A5109E0AF0EE66EFE
:102580003F0EE66EBAEC17F0E552E55208D09F0E0A
:10259000E66E3F0EE66EBAEC17F0E552E552900E8D
:1025A000E66E3F0EE66EBAEC17F0E552E552020118
:1025B0009B5116E0550E0201435D09E1870EE66E60
:1025C0003F0EE66EBAEC17F0E552E55208D07E0EEB
:1025D000E66E3F0EE66EBAEC17F0E552E55208D013
:1025E0009F0EE66E3F0EE66EBAEC17F0E552E5522E
:1025F000C7EC1DF0720EE66E3F0EE66EBAEC17F0F9
:10260000E552E5520201C7417F0B010B06E0330E94
:10261000E66EDAEC17F0E55205D0310EE66EDAEC34
:1026200017F0E552570EE66E3F0EE66EBAEC17F065
:10263000E552E55202010451146E156A153404E2A4
:1026400014507708000E155406E2320EE66EDAECEE
:1026500017F0E55205D0310EE66EDAEC17F0E552D0
:102660004BDFE552E7CFD9FF1200D9CFE6FFE1CF2C
:10267000D9FF090EE1269AEC18F0E76E020EE7CFBB
:10268000DBFFDB5001E1EBD1020EDBCFE6FF21ECFB
:1026900021F0E552F3CF14F0F4CF15F014501510DB
:1026A00009E0020EDBCFE6FF33EC21F0E552020E2B
:1026B000F3CFDBFF020EDB503F0A01E1C6D17D0AFA
:1026C00001E1C1D1100A01E161D11C0A01E135D15A
:1026D0001D0A01E12ED11E0A62E0010A01E0BFD10C
:1026E0003C0EE66E3F0EE66EBAEC17F0E552E55290
:1026F00002010451146E156A153404E2145077086F
:10270000000E155406E2320EE66EDAEC17F0E552D2
:1027100005D0310EE66EDAEC17F0E552C7EC1DF08D
:10272000010EF36E030EF3CFDBFFB80EDE6E020E6A
:10273000DD6EDECF14F0DDCF15F0D30ED88014544B
:10274000020E15542AE3300EE66E3F0EE66EBAEC2A
:1027500017F0E552E552030EDBCFF3FFDB2AF3500F
:10276000E66EE7EC17F0E5522C0EE66E3F0EE66ED5
:10277000BAEC17F0E552E552DECFE9FFDDCFEAFF14
:10278000080EEFCFDBFFDBCFE6FF28EC18F0E552B9
:10279000DF2A010E01E3DB2ACCD7AEDE60D1020EC8
:1027A000E66E62EC12F0E552300EE66E3F0EE66E1B
:1027B000BAEC17F0E552E552BBEC18F0FF0FE76EEC
:1027C000030EE7CFDBFF2C0EE66E3F0EE66EBAEC93
:1027D00017F0E552E552FCEC18F0E76E080EE7CF73
:1027E000DBFF02010451146E156A153404E2145023
:1027F0007708000E155408E2200EF36E040EF3CF96
:10280000DBFF050EDB6A04D0040EDB6A050EDB6A13
:10281000030EDB50146E156AC70E166E020E176E8D
:10282000B80E165E020E175A1650141802E1175011
:10283000151802E1080EDB96080EDBCFE6FF030E4B
:10284000DB50E76E040EDBCF14F0050EDBCF15F086
:10285000E7501426000E15221450E66E33EC1EF0DD
:10286000E552E552030EDB50146E156AC70E166E64
:10287000020E176EB80E165E020E175A1650141876
:1028800002E1175015184EE102010451146E156A49
:10289000153404E214507708000E155405E2040EB6
:1028A000DB6A050EDB6A07D0200EF36E040EF3CF51
:1028B000DBFF050EDB6A080EDB90DB94DB96DB9A10
:1028C000DB9CDB9EDBCFE6FF030EDB50E76E040EE6
:1028D000DBCF14F0050EDBCF15F0E7501426000E09
:1028E00015221450E66EB3EC1DF0E552ED0BE552E7
:1028F000E710E76E080EE7CFDBFFDBCFE6FF030E46
:10290000DB50E76E040EDBCF14F0050EDBCF15F0C5
:10291000E7501426000E15221450E66E33EC1EF01C
:10292000E552E552020EE66E6FEC12F0E552E4DD80
:1029300096D0E66AEADDE55292D01C0EE66E3F0EB6
:10294000E66EBAEC17F0E552E5522FC2E6FF28EC2E
:1029500018F0E552150EE66E3F0EE66EBAEC17F073
:10296000E552E55230C2E6FF28EC18F0E5520F0EB2
:10297000E66E3F0EE66EBAEC17F0E552E55231C254
:10298000E6FF28EC18F0E552B7DD69D00A0EE66ED6
:102990003F0EE66EBAEC17F0E552E55200C2E6FFD4
:1029A000E7EC17F0E552060EE66E3F0EE66EBAEC67
:1029B00017F0E552E55201C2E6FF28EC18F0E552A7
:1029C000020EE66E3F0EE66EBAEC17F0E552E552E7
:1029D00002C2E6FF28EC18F0E552FE0EE66E3E0E4F
:1029E000E66EBAEC17F0E552E55203C2E6FF28ECBA
:1029F00018F0E552FA0EE66E3E0EE66EBAEC17F0EF
:102A0000E552E55204C2E6FFE7EC17F0E552F60E98
:102A1000E66E3E0EE66EBAEC17F0E552E55205C2E0
:102A2000E6FFE7EC17F0E552F20EE66E3E0EE66EBC
:102A3000BAEC17F0E552E55206C2E6FFE7EC17F0F4
:102A4000E5525ADD0CD080EC3EF0000EE66E030E2F
:102A5000E66E9CEC17F0E552E5524EDD00D0090E13
:102A6000E15C02E2E16AE552E16EE552E7CFD9FFAF
:022A7000120052
:0E2A7200010E0201A86FA96B02010051146E43
:102A8000156AD890155004E61A0E145C000E1558FD
:102A900027E3935101E024D095511FE004EC09F0A5
:102AA0000201956BA807000EA95BA93504E2A851A5
:102AB0000008000EA95511E346B506D0040EE66ED7
:102AC00062EC12F0E55205D0040EE66E6FEC12F0E7
:102AD000E5520A0E0201A86FA96B35EC13F0CDD7B1
:102AE000040EE66E6FEC12F0E5521200D9CFE6FF4D
:102AF000E1CFD9FF020EE126020195513DE0A73555
:102B000004E2A6510008000EA7550CE2AA51010BE1
:102B100003E1A607000EA75BA651A71102E100C2C0
:102B200034F22AD00A0E345D03E2DE6ADD6A04D094
:102B30000A0E345DDE6EDD6A4B0E005D02E2A669B0
:102B4000A76B0051146E156ADECF16F0DDCF17F0BB
:102B500015501718E8AE02D0173404D01650145C84
:102B60001750155802E2A669A76B0A0E3425D880C3
:102B7000005502E2A669A76B020EE15C02E2E16A7F
:102B8000E552E16EE552E7CFD9FF1200140E0201C3
:102B9000A86FA96B020EE66EE66A41EC0EF0E552F4
:102BA000E55235EC13F0020193510FE080A80CD0F0
:102BB000A807000EA95BA851A91105E1010EA26F9B
:102BC000020EA86FA96B01D0A26B9351E3E1805074
:102BD000100BE0E01200D9CFE6FFE1CFD9FF020EE3
:102BE000E126F29E5FEC0FF0190EE66EE66A3C0EEF
:102BF000E66E2DEC20F0E552E552E552A6EC20F011
:102C0000530EE66EC0EC21F0E552310EE66E47EC55
:102C100021F0E552840EE66EF7EC21F0E552020158
:102C2000C7390F0B010BE8B0BD80E8A0BD90FE0EC8
:102C3000E66EDCEC21F0E5524E0ECB6E100EDF6E30
:102C4000DF5009E0DF50EA6A930FE96E020EEA22D4
:102C5000EF6ADF06F5D70201010E936F466B2E0E69
:102C6000E66E6FEC12F0E5526EEC0FF0C7EC1DF063
:102C7000F28CF28E040EE66E62EC12F0E552010E5A
:102C8000E66EE66A41EC0EF0E552E55232EC1DF0DC
:102C900002012F6B306B316B995102E05AEC19F045
:102CA00002013469010EE66EE66A41EC0EF0E5526F
:102CB000E552D0EC00F083EC02F0010EE66E85ECFC
:102CC00012F0E5520201010E066F06C205F2A36B77
:102CD000010E046F04C200F2800EE66E6FEC12F07B
:102CE000E552F29A2E0EE66E6FEC12F0E552040EEB
:102CF000E66E62EC12F0E5520201995105E0200EF9
:102D0000E66E62EC12F0E5526EEC0FF002013469EF
:102D1000F28E3CDFC7EC1DF0ACDE0201935101E006
:102D2000D7D7A86BA96BAC6BAD6BAE6BAF6B100E4E
:102D3000A46FA56BA669A76B1E0E065D02E3000ECD
:102D400001D0010E9E6F80A8E7D0000EE66EE66A05
:102D5000A4EC21F0E552E552F294F28A17EC12F05D
:102D6000000E02011B6F1C6B196F1A6B19EC0BF034
:102D7000000E0201E76EC819E8AE02D0C83503D0D4
:102D8000E750D880C85501E2F3D70DEC01F0F9EC1B
:102D900002F0F29A19EC0BF0C7EC1DF033EC0BF0DB
:102DA0000201935120E094511EE0AC510F0B03E15E
:102DB000A82B000EA923C80EA9AF02D0D89003D02B
:102DC000A85D000EA9590EE2010EA26F2E0EE66E4E
:102DD0006FEC12F0E5520201036B03C202F203C270
:102DE00001F271D099D0945110E00051146E156A1F
:102DF000153404E214501A08000E155406E3010EAF
:102E0000DB06DB50000801E25ED0935118E19451DB
:102E10000AE00051146E156A153404E214501A08C1
:102E2000000E15540CE2945135E10051166E176AEC
:102E3000173404E216502208000E17542BE3020E3A
:102E40000201C827100E0201A46FA56BA669A76B2B
:102E50006EEC0FF0000E0201256F266B236F246BC2
:102E6000216F226B935104E08050100B01E054D08D
:102E70002E0EE66E6FEC12F0E552510EE66E6FEC20
:102E800012F0E552080EE66E62EC12F0E55235ECF7
:102E900013F03BD0945108E14769486B35EC13F0CF
:102EA000010E0201AA6FAB6B010E946FA26BA86BAF
:102EB000A96BDE52640EDD6E080EE66E62EC12F057
:102EC000E55253EC11F002015B6B5C6B5D6B5E6B6A
:102ED0000DDE0201A53504E2A4510008000EA5553F
:102EE00004E2A407000EA55B04D069EC0CF0DCEC56
:102EF00007F007C20DF208C20EF209C20FF20AC2B1
:102F000010F20BC211F20CC212F24BEC08F004ECFE
:102F100009F089EC10F017D7800EE66E6FEC12F016
:102F2000E552DFD6020EE15C02E2E16AE552E16EB3
:082F3000E552E7CFD9FF1200C2
:082F3800D9CFE6FFE1CFD9FF7C
:102F4000FD0EDBCFE9FFFE0EDBCFEAFFEF500EE018
:102F5000FD0EDBCFE9FFDB2AFE0EDBCFEAFF01E34C
:102F6000DB2AEF50E66E26D8E552EAD7E552E7CFE6
:102F7000D9FF1200D9CFE6FFE1CFD9FFFD0EDBCF9D
:102F8000F6FFFE0EDBCFF7FF0800F5500FE0FD0E59
:102F9000DBCFF6FFDB2AFE0EDBCFF7FF01E3DB2AF8
:102FA0000800F550E66E06D8E552E8D7E552E7CFBF
:102FB000D9FF1200D9CFE6FFE1CFD9FF9EA8FED7F7
:102FC000FE0EDB50AD6EE552E7CFD9FF1200D9CF30
:102FD000E6FFE1CFD9FF640E146E14C00EF0FE0EB2
:102FE000DBCF09F04AEC22F00950300FE66EE2DF49
:102FF000E552640E146E14C00EF0FE0EDBCF09F025
:103000004AEC22F0FE0E05C0DBFF0A0E146E14C05F
:103010000EF0FE0EDBCF09F04AEC22F00950300F23
:10302000E66EC8DFE5520A0E146E14C00EF0FE0EF6
:10303000DBCF09F04AEC22F0FE0E05C0DBFFDB50CF
:10304000300FE66EB7DFE552E552E7CFD9FF120049
:10305000D9CFE6FFE1CFD9FFFE0EDBCF14F0143459
:103060000BE32D0EE66EA6DFE552FE0EDB50FF0DE4
:10307000FE0EF3CFDBFF04D02B0EE66E9BDFE55296
:10308000FE0EDBCFE6FFA3DFE552E552E7CFD9FF27
:1030900012000D0EE66E8EDFE5520A0EE66E8ADF36
:1030A000E5521200D9CFE6FFE1CFD9FFFE0EDB508B
:1030B000090808E2FE0EDB50410FF60FE66E7ADFDC
:1030C000E55206D0FE0EDB50300FE66E73DFE552A0
:1030D000E552E7CFD9FF1200D9CFE6FFE1CFD9FF04
:1030E000FE0EDB380F0BE66EDDDFE552FE0EDB5029
:1030F0000F0BE66ED7DFE552E552E7CFD9FF12009E
:10310000D9CFE6FFE1CFD9FFFD0EDBCF14F0FE0EE5
:10311000DBCF15F015C014F0156A1450E66EDCDF35
:10312000E552FD0EDBCFE6FFD7DFE552E552E7CFF4
:10313000D9FF1200D9CFE6FFE1CFD9FFE6529EAA10
:1031400013D0AB50020B03E1AB50040B05E0AB987E
:10315000AB88AE50DF6E08D0AE50DF6EDFCFE6FF3B
:1031600029DFE552DF5002D0000E00D0E552E552D3
:10317000E7CFD9FF1200D9CFE6FFE1CFD9FF020E8A
:10318000E126010EDB6AD6DFDF6E300EDF5CFBE38B
:10319000DF503908F8E3300EDF5CE76E010EE7CF51
:1031A000DBFF0A0E146E010EDBCFE7FF1450E702BF
:1031B000010EF3CFDBFFBEDFDF6E300EDF5CFBE323
:1031C000DF503908F8E3300EDF5C146E010EDBCF00
:1031D000E7FF1450E726010EE7CFDBFFDB50146E4C
:1031E000020EE15C03E200D0E16AE552E16E1450A8
:1031F000E552E7CFD9FF1200D9CFE6FFE1CFD9FFE3
:10320000020EE126010EDB6A0201976B93DFDF6E8F
:10321000300EDF5C03E3DF50390803E22D0EDF5C84
:10322000F5E12D0EDF5C0BE10201010E976F82DFED
:10323000DF6E300EDF5CFBE3DF503908F8E3300E61
:10324000DF5CE76E010EE7CFDBFF0A0E146E010EA6
:10325000DBCFE7FF1450E702010EF3CFDBFF6ADF9D
:10326000DF6E300EDF5CFBE3DF503908F8E3300E31
:10327000DF5C146E010EDBCFE7FF1450E726010E72
:10328000E7CFDBFF0201975106E0010EDB50FF0D97
:10329000010EF3CFDBFF010EDB50146E020EE15C7A
:1032A00003E200D0E16AE552E16E1450E552E7CF47
:0432B000D9FF120030
:0C32B400D9CFE6FFE1CFD9FFE652020EB1
:1032C000E66EE66A41EC0EF0E552E55202015B6BF8
:1032D0005C6B02015D6B5E6B02015F6B606BDF6AB2
:1032E000100EDF5C24E2A70EE66EBDEC1CF0E5528A
:1032F000080B01E1F8D773EC1DF002012751020120
:103300005B270201285102015C2302012B510201BB
:103310005D2702012C5102015E23020129510201A5
:103320005F2702012A5102016023DF2AD9D7040E48
:10333000E66E080E0201156A5B25146E5C511522BB
:1033400014C0E6FF15C0E6FFA8EC0EF0E552E5520A
:10335000E552F3CF5BF2F4CF5CF2040EE66E080E9A
:103360000201156A5D25146E5E51152214C0E6FF38
:1033700015C0E6FFA8EC0EF0E552E552E552F3CF9A
:103380005DF2F4CF5EF2040EE66E080E0201156ADD
:103390005F25146E6051152214C0E6FF15C0E6FFCC
:1033A000A8EC0EF0E552E552E552F3CF5FF2F4CF10
:1033B00060F20201D8805C5104E79D0E5B5DFF0E58
:1033C0005C5904E29D0E146E15680FD05C3504E262
:1033D0005B516308000E5C5504E2630E146E156ABF
:1033E00004D05BC214F05CC215F014C02FF20201CD
:1033F000D8805E5104E79D0E5D5DFF0E5E5904E2CC
:103400009D0E146E15680FD05E3504E25D516308A1
:10341000000E5E5504E2630E146E156A04D05DC2A0
:1034200014F05EC215F014C030F25FC216F060C234
:1034300017F0000E165E040E175AD880175004E7D6
:103440009D0E165CFF0E175804E29D0E146E156853
:103450001BD05FC218F060C219F0000E185E040E97
:10346000195A193404E218506308000E195404E282
:10347000630E146E156A08D05FC214F060C215F0B6
:10348000000E145E040E155A14C031F2E552E552D6
:10349000E7CFD9FF1200D9CFE6FFE1CFD9FF060E63
:1034A000E1260201995101E1B2D073EC1DF027C26F
:1034B0005BF228C25CF229C25FF22AC260F22BC220
:1034C0005DF22CC25EF2CFC214F0156A14BE15680C
:1034D000145002015B5F15505C5BD0C214F0156A9A
:1034E00014BE1568145002015D5F15505E5BCDC2BD
:1034F00014F0156A14BE1568145002015F5F155070
:10350000605B040E605F050EE66E13C214F014C219
:1035100015F0F10E1502F3CF15F0FF0E1402F35063
:103520001526F10E1402F3CF14F0F4501526100EE8
:103530001426000E152214C0E6FF15C0E6FFA8EC05
:103540000EF0E552E552E552F35002015B5FF45094
:103550005C5B02012D6B02015C3504E25B510A08E1
:10356000000E5C5503E202012D690CD00A0E5CAF1F
:1035700002D0D89003D05B5D000E5C5903E20201DB
:10358000010E2D6F02015D6D5E1F000E5E23050EA4
:10359000E66E15C214F016C215F0F10E1502F3CF47
:1035A00015F0FF0E1402F3501526F10E1402F3CF9E
:1035B00014F0F4501526100E1426000E152214C017
:1035C000E6FF15C0E6FFA8EC0EF0E552E552E55225
:1035D000F35002015D5FF4505E5B02012E6B02014D
:1035E0005E3504E25D510A08000E5E5503E20201F9
:1035F0002E690CD00A0E5EAF02D0D89003D05D5D6C
:10360000000E5E5903E20201010E2E6F03D002018B
:10361000616B626B060EE15C02E2E16AE552E16E0B
:08362000E552E7CFD9FF1200CB
:08362800DACFE4FFE2CFDAFF84
:10363000E65200D0E552E5CFDAFF1100DACFE4FF21
:10364000E2CFDAFFE9CFE4FFEACFE4FFE6529EA241
:103650000DD09E920201965103E04E0ECB6E3CD1EE
:10366000010E966FEA0ECB6E00019E6B9EA44AD1AE
:10367000CC6A9E920201966BBECFA2F0BFCFA3F0A0
:103680000001A46BA20EE96E000EEA6E020EEB5072
:10369000A119E8AE02D0A13506D09F51EE5CA05131
:1036A000EE58A151EE5805E2FF0E9F5FA05B000EA1
:1036B000A15B9F0EE96E000EEA6EEE50A25D236ED6
:1036C000EE50A359246EEE50A459256E010E1F0B27
:1036D00023C020F024C021F025C022F006E0D890BD
:1036E000223221322032E806FAE120C0A5F021C0C2
:1036F000A6F0A2C09FF0A3C0A0F0A4C0A1F0BD702E
:103700004E0ECB6EBD50010B206E0201C7390F0B60
:10371000010B201827E000019E5101E122D0020E8A
:103720009E5D05E1A5C092F0A6C093F01AD0040EEC
:103730009E5D05E1A5C096F0A6C097F012D0060EDA
:103740009E5D0EE1A5C09AF0A6C09BF09BC020F044
:10375000216A010E201801E1215001E0BDD001D005
:10376000BBD0CDD000019E0505E1A5C090F0A6C05C
:1037700091F0C5D0030E9E5D05E1A5C094F0A6C0F2
:1037800095F0BDD0050E9E5D2EE1A5C098F0A6C0B7
:1037900099F091C020F0216A010E201801E121501A
:1037A00021E193C022F0236A010E221801E1235087
:1037B00019E195C024F0256A010E241801E1255075
:1037C00011E197C026F0276A010E261801E1275063
:1037D00009E199C028F0296A010E281801E1295051
:1037E00001E18DD079D0070E9E5D76E1A5C09CF0F9
:1037F000A6C09DF09DC020F0216A010E201801E1B5
:10380000215001E069D00201C7417F0B010B2FE07D
:10381000000198510201006FFF0E00019415206E07
:10382000216A770E205E000E215A20C001F2FF0EA1
:103830009215206E216A770E205E000E215A20C05C
:1038400002F2FF0E9015206E216A770E205E000EA8
:10385000215A20C003F29A510201046F00019651CF
:103860000201056F00019C510201066F2ED000017C
:103870009A510201006FFF0E00019015206E216A1F
:10388000770E205E000E215A20C001F2FF0E961521
:10389000206E216A770E205E000E215A20C002F2AF
:1038A000FF0E9C15206E216A770E205E000E215AB5
:1038B00020C003F294510201046F000198510201EB
:1038C000056F000192510201066F0201936B010E18
:1038D000956F00019E6913D00201956B010E936FE5
:1038E0000201B22B000EB323B42300019E69020132
:1038F000C7390F0B010B02E0BD8001D0BD909E9433
:1039000000019E2BF250040B06E0F250200B03E066
:10391000F2940201C807E552E5CFEAFFE5CFE9FFDF
:06392000E5CFDAFF110003
:0A392600D9CFE6FFE1CFD9FFE6524A
:103930009498829A080EDF6EDF501AE08296FE0E8F
:10394000DBAE02D0828801D08298DBCFF3FFF39EFA
:10395000F346F3CFDBFF010EE66E58EC22F0E552A2
:103960008286010EE66E58EC22F0E552DF06E4D7BF
:10397000E552E552E7CFD9FF1200D9CFE6FFE1CFFC
:10398000D9FFE652FE0EDBCFE6FFCDDFE55294888D
:103990000BD8DF6EFE0EDBAC828ADF5000D0E55222
:1039A000E552E7CFD9FF1200D9CFE6FFE1CFD9FF2B
:1039B000020EE126080EDF6EDF5016E08296010E41
:1039C000E66E58EC22F0E552010EDBCFF3FFF39EDA
:1039D000F346F3CFDBFF82B8DB808286E66E58ECDD
:1039E00022F0E552DF06E8D7010EDB50146E020E1E
:1039F000E15C03E200D0E16AE552E16E1450E55269
:103A0000E7CFD9FF1200D9CFE6FFE1CFD9FFE652C9
:103A1000FD0EDBCFE6FF87DFE552080EDF6EDF50DD
:103A20001AE08296FE0EDBAE02D0828801D0829828
:103A3000DBCFF3FFF39EF346F3CFDBFF010EE66E21
:103A400058EC22F0E5528286010EE66E58EC22F028
:103A5000E552DF06E4D7828A9488E552E552E7CF43
:103A6000D9FF1200828A210EE66E4A0EE66ECBDF87
:103A7000E552E5528F0EE66E80DFE552E86E3A0EB3
:103A8000E85C30E1200EE66EC70EE66EBCDFE55264
:103A9000E552220EE66EE66AB6DFE552E552300EDA
:103AA000E66E480EE66EAFDFE552E552340EE66E86
:103AB000E66AA9DFE552E552350EE66EFC0EE66ECB
:103AC000A2DFE552E552360EE66EE6689CDFE5526F
:103AD000E552380EE66EE66A96DFE552E5520201DF
:103AE000010E996F1200D9CFE6FFE1CFD9FFE65260
:103AF000A70EE66E42DFE552DF6EE80EE66E3DDFB2
:103B0000E5520201276F286B4FDF146E156A14C04F
:103B100015F0146A1450020127131550281344DFBE
:103B20000201296F2A6B40DF146E156A14C015F06C
:103B3000146A14500201291315502A1335DF0201AB
:103B40002B6F2C6B31DF146E156A14C015F0146ADC
:103B5000145002012B1315502C13828AE552E552A2
:063B6000E7CFD9FF1200BF
:0A3B6600D9CFE6FFE1CFD9FFE65208
:103B7000FE0EDB50A96EA69EA680A850DF6EA66A38
:103B8000DF5000D0E552E552E7CFD9FF1200D9CF80
:103B9000E6FFE1CFD9FF050EE12602010451146EC4
:103BA000156A153404E214507708000E155408E223
:103BB000200EF36E030EF3CFDBFF040EDB6A04D09E
:103BC000030EDB6A040EDB6AB80EDE6E020EDD6EDB
:103BD000DECF14F0DDCF15F0D30ED8801454020ED2
:103BE00015541AE3030EDBCF14F0DB2A040EDBCFEF
:103BF00015F001E3DB2A1450E66EB5DFE552E66E00
:103C0000DECFE9FFDDCFEAFFE552E750EF6EDF2AB6
:103C1000010E01E3DB2ADCD7C9C2B5F2020E0201B4
:103C2000E76EC819E8AE02D0E73402D0E750C85DAD
:103C300003E2020EC86F0DD0140EE76EC819E8AE8D
:103C400002D0C83503D0E750D880C85502E2140E20
:103C5000C86F050EE15C02E2E16AE552E16EE552F1
:103C6000E7CFD9FF1200D9CFE6FFE1CFD9FF020E8F
:103C7000E126FE0EDBCFE6FF76DFE552DF6EFD0EBE
:103C8000DB50DF5C1DE0FD0EDB50A86EFE0EDB504E
:103C9000A96EA69EA684F250800B01E0010EE76E8D
:103CA000010EE7CFDBFFF29E550EA76EAA0EA76EA0
:103CB000A682A6B2FED7010EDB5001E0F28EA694DA
:103CC000020EE15C02E2E16AE552E16EE552E7CF05
:103CD000D9FF1200D9CFE6FFE1CFD9FF050EE126CB
:103CE000FE0EDB0405E1030EDB6A040EDB6A07D07F
:103CF000200EF36E030EF3CFDBFF040EDB6AB80E6B
:103D0000DE6E020EDD6EDECF14F0DDCF15F0D30EC9
:103D1000D8801454020E155419E3DFCFE9FFDF2ACF
:103D2000010EDBCFEAFF01E3DB2AEF50E66E030E64
:103D3000DBCF14F0DB2A040EDBCF15F001E3DB2A26
:103D40001450E66E90DFE552E552DDD7050EE15CDA
:103D500002E2E16AE552E16EE552E7CFD9FF1200D7
:103D6000006A0EAEB9EF1EF00D6C0E1EE86A0E2250
:103D7000001E09AEC1EF1EF0086C091EE86A092298
:103D8000001E26EC22F009BED1EF1EF000AE000CA2
:103D9000086C091EE86A0922046C051EE86A0522FF
:103DA000000C00BEC8EF1EF00188FF0C006A0EAECA
:103DB000E1EF1EF00C6C0D1E0E1EE86A0D220E22A5
:103DC000001E09AEEBEF1EF0076C081E091EE86A24
:103DD00008220922001E87EC21F009BEFEEF1EF02A
:103DE00000AE000C076C081E091EE86A08220922B2
:103DF000036C041E051E04220522000C00BEF2EF17
:103E00001EF00188FF0C09C013F008C012F0085022
:103E10000D02F4CF07F0F3CF06F009500E02F4CFF5
:103E200009F0F3CF08F00D02F3500726F4500822F2
:103E3000E86A092212500E02F3500726F4500822B5
:103E4000E86A09220EAE29EF1FF01250085E1350E7
:103E5000095A13AE000C0D50085E0E50095A000CA2
:103E600009C013F008C012F007C011F007500C028F
:103E7000F4CF05F0F3CF04F008500D02F4CF07F0B3
:103E8000F3CF06F00C02F3500526F4500622E86A40
:103E9000072211500D02F3500526F4500622E86A5D
:103EA000072209500C02F3500626F450072209504D
:103EB0000D02086AE86A0822F3500726F450082227
:103EC00011500E02F3500626F4500722096AE86AE0
:103ED0000822092212500E02F3500726F45008223D
:103EE000E86A092213500E02F3500826F450092202
:023EF000000CC4
:0E3EF2002C373A002C363A002C353A002C5969
:103F00003A002C4E3A002C523A000D0A543A002046
:103F10005961773A0020507463683A000D0A4E6583
:103F2000757472616C20526F6C6C3A00203D2000F9
:103F30000D0A526567697374657220000D0A50613D
:103F400072616D65746572206C69737420666F723E
:103F5000207365742023000D0A53656C65637465D6
:103F60006420706172616D65746572207365743A66
:103F700020005468726F74746C6520436800534D60
:103F8000443530300D0A00424D503038350D0A00AE
:103F90004261726F2000436F6D7061737320006E19
:103FA0006F7420617661696C61626C650D0A004F07
:0C3FB0004E4C494E450D0A000D0A3E0023
:043FBC001E0EF66E71
:103FC000000EF76E000EF86E01010900F550EB6F60
:103FD0000900F550EC6F03E1EB6701D03DD009001B
:103FE000F550E66F0900F550E76F0900F550E86FEE
:103FF00009000900F550E96E0900F550EA6E090064
:1040000009000900F550E96F0900F550EA6F090051
:104010000900F6CFEDF1F7CFEEF1F8CFEFF1E6C101
:10402000F6FFE7C1F7FFE8C1F8FF0101E95302E13C
:10403000EA5307E00900F550EE6EE907F8E2EA07F7
:10404000F9D7EDC1F6FFEEC1F7FFEFC1F8FF0101AF
:0A405000EB07000EEC5BBFD7120077
:06405A00D9CFE6FFDACF2A
:10406000E6FFE1CFD9FFE2CFDAFFAC6AAB6AFD0E23
:10407000DBB0AC88DBA202D0AC8CAB8CDBB4AC8EFA
:10408000DBA602D0AB8801D0AB8ADBB8AC849E98AB
:10409000DBBAAC86DBAC02D09D8A01D09D9A9E9A99
:1040A000DBAE02D09D8801D09D98FB0EDB50AF6E39
:1040B000FB0EFC0EDBCF15F015C014F0156A145082
:1040C000B06EAC8AAB8E949C948EAC50100B04E016
:1040D000AC50800B01E1948CE552E5CFDAFFE7CFDD
:0440E000D9FF1200F2
:0C40E400D9CFE6FFE1CFD9FF030EE126A3
:1040F000FD0EDB50E8B0C188E8A0C198FE0EDB5091
:10410000080DF350E66E0FEC22F0E55273EC22F04E
:1041100007EC00F0000901E0FBD763EC22F0F3CFDD
:10412000DEFFF4CFDDFFDECF14F0DDCF15F014C0DD
:10413000F3FF15C0F4FF030EE15C03E200D0E16A77
:10414000E552E16EE552E7CFD9FF12000A0EE66EA6
:10415000040EE66EAB0EE66EEAEC20F0E552E55298
:04416000E552120012
:0C41640006500B02F3CF02F0F4CF03F082
:104170000C02F3500326000EF420046E06500D02CC
:10418000F3500426000EF420056E06500E02F35084
:10419000052607500B02F3500326F4500422000EAC
:1041A000052207500C02F3500426F4500522075054
:1041B0000D02F350052608500B02F3500426F4506C
:1041C000052208500C02F350052609500B02F3504B
:0441D00005261200AE
:0C41D400D9CFE6FFDACFE6FFE1CFD9FF3C
:1041E000E2CFDAFFC26AC06AFC0EDB407F0B3C0BF9
:1041F000C26EFB0EDBCFE6FFFC0EDB38F00B300BA4
:10420000E552E710C16EFD0EDB50040DF350380B84
:10421000156EFD0EDB380F0B070B146EFD0EDB5019
:10422000800B14101510C06EFC0EDBAE03D09E9CEC
:104230009D8CF28CC280E552E5CFDAFFE7CFD9FF43
:0242400012006A
:0E424200F36AF46AFF0EE124E96EFF0EE2203B
:10425000EA6EED6607D0600EEF6404D07B0EEF606F
:1042600001D0F32A1200FF0EE124E96EFF0EE220D6
:10427000EA6EEDCFF4FFEFCFF3FFF46607D0600EE8
:0E428000F36404D07B0EF36001D0F39A1200B9
:02428E00D9CF86
:10429000E6FFDACFE6FFE1CFD9FFE2CFDAFFFD0E8E
:1042A000DB507E0BCD6EFD0EDBAC02D0CD8E01D08F
:1042B000CD9ECF6ACE6A9E90DBAE02D09D8001D0AB
:1042C0009D90CD80E552E5CFDAFFE7CFD9FF120010
:1042D000D9CFE6FFDACFE6FFE1CFD9FFE2CFDAFFB1
:1042E000E652E652D650DF6E010ED7CFDBFFDECFAF
:1042F00014F0DDCF15F014C0F3FF15C0F4FFE55244
:0E430000E552E552E5CFDAFFE7CFD9FF120014
:02430E00056A3E
:10431000046A036A180EE76ED89007360836093625
:104320000336043605360C50035C0D5004580E500D
:10433000055807E30C50035E0D50045A0E50055A01
:08434000072AE72EEAD712005C
:08434800D9CFE6FFDACFE6FF52
:10435000E1CFD9FFE2CFDAFFE652E652FC0EDBCF27
:10436000DEFFDBCFDDFF010EDB50D76EDF50D66EF8
:10437000E552E552E552E5CFDAFFE7CFD9FF12006B
:10438000D9CFE6FFDACFE6FFE1CFD9FFE2CFDAFF00
:10439000FD0EDB507F0BD56ED76AD66AF294FD0E08
:1043A000DBAE02D0F28A01D0F29AD58EE552E5CF8B
:0843B000DAFFE7CFD9FF12008C
:0843B800D9CFE6FFDACFE6FFE2
:1043C000E1CFD9FFE2CFDAFFFD0EDB50FB0BCA6E67
:1043D000CC6A9E92FD0EDBAE02D09D8201D09D92F2
:0E43E000CA84E552E5CFDAFFE7CFD9FF12001D
:0243EE00D9CF25
:1043F000E6FFDACFE6FFE1CFD9FFE2CFDAFFFD0E2D
:10440000DB500F0BBD6EFD0EDBAE02D09E949D8483
:0E4410009484E552E5CFDAFFE7CFD9FF120022
:02441E00D9CFF4
:10442000E6FFDACFE6FFE1CFD9FFE2CFDAFFC30E36
:10443000C214146EFD0EDB407F0B3C0B1410C26ED9
:0C444000E552E5CFDAFFE7CFD9FF12000C
:04444C00056A046A8F
:10445000100EE76ED89008360936043605360D5032
:10446000045C0E50055805E30D50045E0E50055ACD
:08447000082AE72EF0D7120024
:0844780015EE00F025EE00F046
:10448000F86A019CDEEC1FF003EC00F0EBEC15F099
:04449000FBD7120044
:0C449400056A080EE76ED8900936053660
:1044A0000E50055C02E3056E092AE72EF7D71200CD
:1044B000FF0EE350E84E1200000000D000D000D004
:0644C000E82EFAD71200FD
:0A44C600C450176E166AC35016109A
:0844D000F36E17C0F4FF1200A7
:0844D80000EE00F00F0EEE6A89
:0644E000EA62FDD71200A4
:0444E600C28212007C
:0644EA001204D80D1012AF
:1044F00004D80210142806320600042B0400080019
:0645000014000004050494
:0A4506000D0A436F6D6D616E647362
:104510003A0D0A4C2E2E2E4C697374207061726114
:104520006D0D0A4D2E2E2E4D6F64696679207061D7
:1045300072616D0D0A532E2E2E53686F77207365AE
:104540007475700D0A4E2E2E2E4E65757472616C48
:104550002076616C7565730D0A522E2E2E53686F8E
:1045600077207265636569766572206368616E6E37
:10457000656C730D0A422E2E2E7374617274204284
:0D4580006F6F742D4C6F616465720D0A0041
:03458D000D0A55BF
:1045900041565020332E31356D335F31386620431C
:1045A0006F7079726967687420286329203230300F
:1045B000372D3920472E4B2E204567616E2026204F
:1045C000572E204D616872696E6765720D0A5468D6
:1045D0006973206973204652454520534F4654570E
:1045E0004152452C207365652047504C206C69630F
:1045F000656E7365210D0A000D0A5541565020560F
:10460000332E31356D335F313866207265616479E0
:104610002E0D0A44656275673A204F46460D0A52D0
:10462000783A2050504D2044534D320D0A455343A3
:104630003A2050504D0D0A4779726F733A20414429
:104640005852533330302028596177292C2049445F
:10465000473330302028526F6C6C2F506974636878
:10466000290D0A416363656C65726F6D65746572CF
:03467000732000B4
:107D00007D0EFA6E1FD0F926420C6F0C6F0C740CAE
:107D1000200C320C2E0C300C000C450C520C520C6A
:107D2000000C430C530C550C4D0C000C4F0C4B0C21
:107D3000000C530C550C430C430C450C530C530CCA
:107D4000210C000C0001F29EA66AD56AA40E946E66
:107D5000936A190EAF6E240EAC6ED86A900EAB6E9D
:107D6000816A010ED0EC3FF0106AD86A00EE60F034
:107D7000200EBFEC3FF09EAAFED7AE50ABB256D05D
:107D8000ABB454D0EF6E3A08D8B4DAEF3EF0EF3827
:107D90000F0BFD0FD8B4DAEF3EF0FF0FD8B4DAEFD7
:107DA0003EF00A0EEF5CD8B4DCEF3EF0FD0FD8A435
:107DB00016EF3FF0E92ADFD700EE60F0EF503A0807
:107DC000D8A416EF3FF0E92A186AB6EC3FF0166E19
:107DD0004008D8A016EF3FF0B6EC3FF0126EB6ECBC
:107DE0003FF0116EC00E1114136E3F0E1114146E7D
:107DF000B6EC3FF0000FD8B403EF3FF0FF0FD8B45C
:107E000069EF3FF031D010EE60F016C019F0B6EC1B
:107E10003FF0E66E192EFBD7B6EC3FF01850D8B401
:107E20001CEF3FF01B0ED0EC3FF09FD7AB98130E2A
:107E3000D0EC3FF0AB8899D7280EBFEC3FF0125042
:107E4000D8A42CEF3FF01150D8A42CEF3FF050EC09
:107E50003FF038EC3FF008D07D0E125CD8B034EF24
:107E60003FF038EC3FF000D0250ED0EC3FF07DD74E
:107E70009EEC3FF000EE60F010EE20F01450000F8A
:107E8000D8B447EF3FF0196EE652192EFDD716C051
:107E900019F0EE50E66E192EFCD780EC3FF0120080
:107EA00060C01CF061C01DF062C01EF063C01FF016
:107EB000EF0E616ED8907D0E1A6E1A321AC062F003
:107EC000000E1A6E1A321AC060F0F00E636E108047
:107ED0001200CFEC3FF010A00FD0116A126A136AA3
:107EE0009EEC3FF01CC020F01DC021F01EC022F00F
:107EF0001FC023F080EC3FF02B0ED0EC3FF0FFD7FB
:107F0000AAEC3FF0940E97EC3FF00A0000EE20F050
:107F1000020E1A6E200E196EEE50F56E0F00192E1D
:107F2000FBD7840E97EC3FF01A2EF4D71200A66E02
:107F3000550EA76EAA0EA76EA6821200AAEC3FF0FD
:107F400000EE20F0400E196E0900F550EE6E192E6D
:107F5000FBD71200F86A12C0F7FF13C0F6FF120039
:107F6000300EEF5CEFBCF90FE92A1200B0EC3FF0E5
:107F7000176E173AB0EC3FF01710182612001B6E60
:107F800082928296080E196E1B368298D8B082882B
:107F900082868296192EF8D7828282921200250E4E
:107FA000196E195083EC3EF0000FD8A4DFEF3FF0BC
:107FB0000D0EE4EC3FF00A0EE4EC3FF01200E4ECAE
:107FC0003FF0192A192AEDD79EA8FED7AD6E1200F0
:107FD00000000000000000000000000000000000A1
:107FE0000000000000000000000000000000000091
:107FF000000000000000000000000000000012006F
:020000040030CA
:0100010002FC
:010002001EDF
:010003001EDE
:0100050001F9
:010006008178
:00000001FF
