:020000040800F2
:10000000000002204DBA010805430108074301081A
:100010000F430108174301081F43010800000000B7
:10002000000000000000000000000000274301085D
:1000300029430108000000002B430108E5420108A4
:10004000A1BA0108A1BA0108A1BA0108A1BA010820
:10005000A1BA0108A1BA0108A1BA0108A1BA010810
:10006000A1BA0108A1BA0108A1BA0108A1BA010800
:10007000A1BA0108A1BA0108A1BA0108A1BA0108F0
:10008000A1BA0108FD430108A1BA0108A1BA0108FB
:10009000A1BA0108A1BA0108A1BA0108A1BA0108D0
:1000A000A1BA0108A1BA0108A1BA0108A1BA0108C0
:1000B0002D4301088D430108A1BA010857440108E6
:1000C00051440108634401085D440108A1BA0108D4
:1000D000A1BA0108454401084B440108A1BA01082E
:1000E000A1BA0108A1BA0108A1BA0108A1BA010880
:1000F000A1BA0108A1BA0108A1BA0108A1BA010870
:10010000A1BA0108A1BA0108A1BA0108A1BA01085F
:10011000A1BA0108A1BA0108A1BA0108A1BA01084F
:10012000A1BA0108A1BA0108A1BA0108A1BA01083F
:10013000A1BA0108A1BA0108A1BA0108A1BA01082F
:10014000A1BA0108A1BA0108A1BA0108A1BA01081F
:10015000A1BA0108A1BA0108B5430108A1BA010872
:10016000A1BA0108A1BA0108A1BA0108A1BA0108FF
:10017000A1BA0108A1BA0108A1BA0108A1BA0108EF
:08018000A1BA0108A1BA0108AF
:1080000010B540F6B014C2F20004237863B940F210
:108010000000C0F2000028B14DF2D820C0F60100E7
:10802000AFF300800121217010BD00BF08B540F200
:108030000003C0F200034BB14DF2D82040F6B4115A
:10804000C0F60100C2F20001AFF3008040F6AC10B0
:10805000C2F20000016829B140F20003C0F200033F
:1080600003B1984708BD00BF4FF6FF732DE9F04FED
:10807000C4F20F4321F0004583B09D420E460F46E7
:1080800004461FDD0023C7F6F0739D4200F3C38052
:1080900014BF0023012300280CBF002203F00102BB
:1080A000002A40F0B88042F2FB1642F618543346DC
:1080B000CBF6F976C3F6F973C5F244440029C8BF7C
:1080C0001E46B0E04FF6FF73C3F6DB739D4200F32C
:1080D000BE804FF6FF73C3F61F639D4240F3A88036
:1080E0004FF0FF3C2246334620463146CDF804C0CF
:1080F00002F0E4FE02460B4682468B4602F0DEFEAC
:1081000095A3D3E900238046894602F0D7FE94A3C5
:10811000D3E9002302F020FD42464B4602F0CEFE9A
:1081200091A3D3E9002302F017FD42464B4602F02B
:10813000C5FE8FA3D3E9002302F00EFD42464B4655
:1081400002F0BCFE8CA3D3E9002302F005FD4246F9
:108150004B4602F0B3FE8AA3D3E9002302F0FCFCF5
:1081600052465B4602F0AAFE87A3D3E9002382466B
:108170008B464046494602F0A1FE85A3D3E9002381
:1081800002F0E8FC42464B4602F098FE82A3D3E997
:10819000002302F0DFFC42464B4602F08FFE80A334
:1081A000D3E9002302F0D6FC42464B4602F086FE9D
:1081B0007DA3D3E9002302F0CDFC42464B4602F0FA
:1081C0007DFEDDF804C0BCF1FF3F02460B4664D0E3
:1081D0004BF6D8255046C0F60105594605EBCC05AF
:1081E00002F0BAFC2246334602F068FED5E90823C5
:1081F00002F0B0FC2246334602F0ACFC02460B46CD
:10820000D5E9000102F0A6FC002F0E460446B8BFD7
:1082100001F1004607E0204622463146334602F08F
:108220009BFC04460E462046314603B0BDE8F08F65
:108230005FA3D3E9002302F08FFC00230022C3F6E2
:10824000F07303F0CBF800283FF44AAFEBE700F0FF
:10825000F5F84FF6FF73C3F6F2739D4280468946E8
:108260002CDC4FF6FF73C3F6E5739D425EDC0246DD
:108270000B464FF0000CCDF804C002F06DFC00235B
:108280000022C3F6F07302F065FC00224FF0804339
:1082900004460D46404649462EE05046594602F0F7
:1082A0005BFC2246334602F009FE02460B4620469E
:1082B000314602F04FFC04460E46B4E747F6FF7322
:1082C000C4F203039D4224DC00230022C3F6F873AA
:1082D0004FF0020CCDF804C002F03CFC0023002259
:1082E000C3F6F87304460D464046494602F0E6FDE3
:1082F00000230022C3F6F07302F02EFC02460B4668
:108300002046294602F004FFDDF804C004460E466C
:10831000E8E600210020CBF6F07142464B4602F021
:10832000F7FE4FF0030C04460E46DBE60023002266
:10833000C3F6F0734FF0010CCDF804C002F00AFC54
:1083400000230022C3F6F07304460D46404649461A
:10835000D2E700BFAFF3008011DA22E33AAD903FDD
:10836000EB0D76244B7BA93F513DD0A0660DB13F6C
:108370006E204CC5CD45B73FFF8300922449C23FD4
:108380000D5555555555D53F2F6C6A2C44B4A2BF99
:108390009AFDDE522DDEAD3F6D9A74AFF2B0B33F61
:1083A000711623FEC671BC3FC4EB98999999C93FD9
:1083B0009C7500883CE4377E70B542F2FB16C3F62C
:1083C000E97621F00043B34286B01CDD4FF6FF7220
:1083D000C7F6EF72934205DD02460B4602F0BAFB88
:1083E00006B070BD02AA00F0C7FE00F00303DDE98D
:1083F0000201012B13D0022B0AD0C3B9DDE90423FB
:1084000001F0BEFAECE70022002301F0B9FAE7E739
:10841000DDE9042301F0B4FA01F10041E0E7009343
:10842000DDE9042301F0F0FF01F10041D8E7012369
:108430000093DDE9042301F0E7FFD1E721F00041DB
:10844000704700BF70B542F2FB16C3F6E97621F023
:108450000043B34286B01EDD4FF6FF72C7F6EF72DF
:10846000934205DD02460B4602F074FB06B070BD78
:1084700002AA00F081FE00F0030001281DD00228AE
:1084800010D008BB0123DDE902010093DDE90423DC
:1084900001F0BAFFEAE7002200230024009401F073
:1084A000B3FFE3E70123DDE902010093DDE90423E3
:1084B00001F0AAFF01F10041D8E7DDE90201DDE9A1
:1084C000042301F05DFAD1E7DDE90201DDE90423CF
:1084D00001F056FA01F10041C8E700BF2DE9D04391
:1084E0008AB08046894600F077F940F20004C2F273
:1084F000000494F90030013306460F4604D040468C
:10850000494602F0DDF820B9304639460AB0BDE8E8
:10851000D08340464946FFF791FF00230022C3F66F
:10852000F07302F05BFF0028EED04DF2BC204DF25C
:10853000B823C0F60100C0F60103CDE90489019318
:108540000123CDE9028900930023089302F002F988
:1085500094F90030022BCDE9060108D0684602F0FC
:10856000F7F820B1089B3BB9DDE90667CCE703F0DB
:108570008BFA21230360F5E703F086FA089B03607A
:10858000F2E700BF00F05CBB2DE9D0438AB006469D
:108590000F4600F069FC40F20004C2F2000494F9B6
:1085A000003001338046894638D03046394601F0E4
:1085B000DFFF002832D0304639462DA3D3E900230F
:1085C00002F00CFF00282ED1304639462AA3D3E909
:1085D000002302F0E5FE08B394F900104DF2C02329
:1085E0000422C0F601038DE80C000023002208934A
:1085F00000230229CDE90467CDE90267CDE906230E
:1086000031D0684602F0A4F800282CD0089B1BB19A
:1086100003F03AFA089B0360DDE9068940464946C3
:108620000AB0BDE8D08321784DF2C023C0F6010323
:108630000322CDE904678DE80C000023CDE9026731
:10864000089341B94FF6FF734FF06042C4F2EF73E5
:10865000CDE90623D5E7002200230229C7F6F073EF
:10866000CDE90623CDD103F00FFA22230360CDE735
:10867000EF39FAFE422E864051302DD5104987C081
:108680002DE9D04F8AB006460F4600F099FF40F220
:108690000004C2F2000494F9003001338046894698
:1086A00031D03046394602F00BF800282BD04FF07D
:1086B000000A4FF0000B3046394652465B4602F046
:1086C0006FFE00B324784DF2C423C0F601030122EB
:1086D000CDE904678DE80C000023CDE9026708931B
:1086E000B4B15046594652465B4602F011FD022C89
:1086F000CDE906010ED103F0C7F921230360089BE1
:1087000073B9DDE90689404649460AB0BDE8D08F15
:10871000CDE906AB684602F01BF80028EFD1EAE786
:1087200003F0B2F9089B0360EBE700BF01F024B847
:1087300070B58AB0064601F0CBF840F20004C2F2F0
:10874000000494F900300133054630D0304602F081
:10875000B5F900282BD03046002103F06DF930B375
:108760004DF2CC233046C0F6010301930123009360
:108770000023089302F04EFB2478CDE90401CDE9F3
:108780000201BCB10020002102460B4602F0C0FCF1
:10879000022CCDE9060111D103F076F92123036003
:1087A000089B8BB9DDE9060102F04AFE0546284622
:1087B0000AB070BD00220023CDE90623684601F00F
:1087C000C7FF0028ECD1E7E703F05EF9089B0360E0
:1087D000E8E700BF000000004FF6FF732DE9F04FFF
:1087E000C3F6EF7321F0004487B09C420D468846E3
:1087F000064616DD04F14044034604F58014234385
:1088000000F00B8102460B4602F0A4F902460B462B
:1088100002F07EFC06460D463046294607B0BDE80C
:10882000F08F4FF6FF73C3F6DF739C4210DCB4F198
:10883000795F80F2658196A3D3E9002302F08CF979
:1088400000230022C3F6F07302F0C8FD0028E3D134
:1088500030462946FFF7F2FD0B4600210246C3F6DB
:10886000F071002002F076F900230022C3F6E073D5
:1088700002F024FB88A3D3E9002306460F4602F04A
:108880001DFB87A3D3E9002302F066F932463B467D
:1088900002F014FB84A3D3E9002302F05BF9324613
:1088A0003B4602F00BFB82A3D3E9002302F054F90C
:1088B00032463B4602F002FB7FA3D3E9002302F0DD
:1088C00049F932463B4602F0F9FA7DA3D3E9002389
:1088D00002F042F932463B4602F0F0FA7AA3D3E9BD
:1088E0000023CDE900013046394602F0E7FA78A3CB
:1088F000D3E9002302F02EF932463B4602F0DEFABD
:1089000075A3D3E9002302F027F932463B4602F073
:10891000D5FA73A3D3E9002302F01CF932463B4693
:1089200002F0CCFA00230022C3F6F07302F014F92F
:10893000CDE904013046394600F042FE43F23233BD
:10894000C3F6EF739C4282468B467DDC02460B46A3
:108950000D460024CDE9024502F0FEF8DDE90423CE
:1089600004460D46DDE9000102F0D2FB02460B464B
:108970002046294602F0A2FACDE90001DDE9020114
:1089800002460B4602F09AFA02460B46304639463A
:1089900002F0E0F8DDE9022304460D465046594650
:1089A00002F0DAF802460B462046294602F0B0FBF8
:1089B00002460B4602F0D0F802460B464AA1D1E926
:1089C000000102F0C7F802460B46DDE9000102F0A3
:1089D000C1F80D460446DDE9020102460B4602F0ED
:1089E000BBF802460B4642A1D1E9000102F0B2F801
:1089F00002460B462046294602F0ACF802460B46DA
:108A00003BA1D1E9000102F0A5F806460D46B8F1F8
:108A1000000FD8BF05F10045FEE637A3D3E90023D8
:108A200002F04CFA30A3D3E9002380468946304651
:108A3000294602F043FA02460B464046494602F0F8
:108A40008BF806460D46E7E6DDE90423DDE9000183
:108A500002F05EFB02460B465046594602F02EFAE3
:108A600052465B4602F078F802460B4602F074F874
:108A70001DA3D3E9002302F06DF802460B461EA1A8
:108A8000D1E9000102F066F806460D46BFE700BFD7
:108A90009C7500883CE4377E09F7FD0DE13D023FFF
:108AA00088B20175E0EF493F3B8F68B52882A43F4B
:108AB0005544880E55C1C93F7D6FEB0312D6D43F94
:108AC000555555555555C53F82922EB1C5B8B33F42
:108AD00059018D1B6C06E63FC88A599CE52A004067
:108AE0004B2D8A1C273A0340075C143326A6913C81
:108AF000182D4454FB21E93F182D4454FB21F93F24
:108B000002460B4602F0DAF939A3D3E90023804686
:108B1000894602F0D3F938A3D3E9002302F01CF808
:108B200042464B4602F0CAF935A3D3E9002302F0CE
:108B300011F842464B4602F0C1F933A3D3E90023B2
:108B400002F00AF842464B4602F0B8F930A3D3E9E6
:108B5000002301F0FFFF42464B4602F0AFF92EA37F
:108B6000D3E9002301F0F8FF42464B4602F0A6F994
:108B70002BA3D3E9002382468B464046494602F0A8
:108B80009DF929A3D3E9002301F0E4FF42464B46B7
:108B900002F094F926A3D3E9002301F0DDFF424659
:108BA0004B4602F08BF924A3D3E9002301F0D2FF56
:108BB00042464B4602F082F900230022C3F6F073CE
:108BC00001F0CAFF02460B465046594602F0A0FA91
:108BD00002460B463046294602F070F902460B4623
:108BE0003046294601F0B8FF06460D4614E600BFA0
:108BF00009F7FD0DE13D023F88B20175E0EF493F05
:108C00003B8F68B52882A43F5544880E55C1C93FA3
:108C10007D6FEB0312D6D43F555555555555C53F7D
:108C200082922EB1C5B8B33F59018D1B6C06E63F49
:108C3000C88A599CE52A00404B2D8A1C273A0340DC
:108C40002DE9F04F83B014461D46CDE90023524272
:108C50002243002325F00047C7F6F07347EAD2729B
:108C600082469A428B4606464ED8424221F0004C3C
:108C7000024388464CEAD2729A4245D805F14043F5
:108C800003F58013234363D0AB175CEA060603F0B9
:108C9000020343EAD17944D03C4351D00023C7F6C4
:108CA000F0739F4267D00023C7F6F0739C4547D00E
:108CB000C7EB0C073F153C2F59DC17F13C0FACBF3D
:108CC0000027012717EAD57700F0848000200021D3
:108CD000B9F1010F04BF824601F1004B1CD0B9F17C
:108CE000020F68D082468B46B9F1000F14D04CA316
:108CF000D3E9002301F02EFF4BA3D3E9002301F0B9
:108D000029FF82468B4607E050465946DDE900239D
:108D100001F022FF82468B465046594603B0BDE81B
:108D2000F08FB9F1030FB7D801A353F829F000BFB2
:108D3000198D0008198D0008658D00085B8D0008ED
:108D4000B8F1000F32DB0FF2E80BDBE900ABE3E731
:108D500003B0BDE8F04FFFF787B90FF2DC0BDBE99A
:108D600000ABD9E70FF2C00BDBE900ABD4E730A1D1
:108D7000D1E90001ACE7BC4537D0B9F1030F92D877
:108D800001A353F829F000BFA38D0008998D0008B6
:108D9000658D00085B8D00084FF0000A4FF0004B16
:108DA000BAE74FF0000A4FF0000BB5E70FF2900B57
:108DB000DBE900ABB0E71AA3D3E9002301F0CAFE58
:108DC00002460B4618A1D1E9000101F0C3FE82461C
:108DD0008B46A1E7DDE900235046594602F098F999
:108DE000FFF72CFBFFF740F972E7B9F1030FA7D8A3
:108DF000DFE809F0110C07020FF24C0BDBE900ABC6
:108E00008AE70FF24C0BDBE900AB85E70FF2480B6A
:108E1000DBE900AB80E70FF2480BDBE900AB7BE757
:108E2000075C143326A6A13C182D4454FB210940AD
:108E3000182D4454FB21F93F182D4454FB2109C03F
:108E4000182D4454FB21F9BFD221337F7CD902C0B5
:108E5000D221337F7CD90240182D4454FB21E9BF35
:108E6000182D4454FB21E93F42F6416321F00042B2
:108E7000C4F286032DE9F04FCD0F9A4283B0064627
:108E80000F4615D94FF6FF73C7F6EF739A4237D9DD
:108E900021F07F44024624F470040B4604432AD197
:108EA000002D40F039813046394603B0BDE8F08FDF
:108EB00042F64263C3F6D6739A4200F2E3804FF65D
:108EC000FF73C3F62F639A4288BF4FF000085FD844
:108ED00093A3D3E9002301F03FFE00230022C3F651
:108EE000F07302F07BFA002852D000233046394656
:108EF0000022C3F6F07301F02FFE06460F46D2E7BC
:108F000089A3D3E9002302F069FA002840F0FA802F
:108F10003046394686A3D3E9002302F041FA0028FF
:108F200040F0FA8084A3D3E900233046394601F0AB
:108F3000C5FF4BF61833C0F6010303EBC505D5E9B1
:108F4000082301F009FE02F053FA804601F050FFB9
:108F50007BA3D3E9002304460D4601F0AFFF024690
:108F60000B463046394601F0F5FD77A3D3E90023DF
:108F7000CDE900012046294601F0A0FF82468B463C
:108F8000DDE9000152465B4601F0E4FD06460F466E
:108F900032463B463046394601F090FF6CA3D3E998
:108FA000002304460D4601F089FF6BA3D3E900239B
:108FB00001F0D0FD22462B4601F080FF68A3D3E9E3
:108FC000002301F0C9FD22462B4601F077FF66A37E
:108FD000D3E9002301F0BEFD22462B4601F06EFFCF
:108FE00063A3D3E9002301F0B7FD22462B4601F02D
:108FF00065FF02460B463046394601F0ABFD04469C
:109000000D46B8F1000F59D002460B46304639469E
:1090100001F054FF22462B4606460F4600204FF033
:10902000804101F097FD02460B463046394602F07A
:109030006FF802460B465046594601F08BFDDDE9BC
:10904000002301F087FD0B4600210246C3F6F071B4
:10905000002001F07FFD6FF47F739845A2BF4FEAB7
:109060000858064608EB0107BFF61DAF08F57A75EC
:1090700000224FF0B8732D05691801F01FFF064656
:109080000F4610E74AF2B123C3F6F0739A423FF657
:1090900049AF4BF61834C5F10008C0F6010404EBE3
:1090A000C504C5EB080505F10108D4E9002301F06A
:1090B00051FDD4E904ABCDE9000161E73046394602
:1090C00022462B4601F0FAFE00224FF080438046F4
:1090D00089462046294601F03DFD02460B464046A2
:1090E000494602F015F832463B4601F033FD0B4687
:1090F00000210246C3F6F071002001F02BFD064668
:109100000F46D0E606A1D1E9000102460B4601F068
:10911000D5FE06460F46C6E600260027C3E600BF7A
:109120009C7500883CE4377EEF39FAFE422E86407B
:1091300051302DD5104987C0FE822B654715F73F6A
:109140000000E0FE422EE63F763C7935EF39EA3DFD
:10915000D0A4BE726937663EF16BD2C541BDBB3E3D
:109160002CDE25AF6A56113F93BDBE166CC1663F1B
:109170003E5555555555C53F42F2FB132DE9F04F6D
:10918000C3F6E97321F000468FB09E4204460D46B7
:109190008846174640F3A3804DF67B13C4F20203C2
:1091A0009E4226DC002996A3D3E9002340F3B28136
:1091B00001F0D0FC42F2FB13C3F6F9739E428046E5
:1091C000894600F0A18090A3D3E90023012401F097
:1091D000C1FC02460B46C7E900014046494601F082
:1091E000B9FC89A3D3E9002301F0B4FCC7E902016B
:1091F0007CE042F2FB13C4F239139E4240F3A1809B
:109200004FF6FF73C7F6EF739E4273DC4FEA2659A1
:109210008246A9F58269A9F106094FEA0951731A34
:1092200019469B4602F0E4F801F0E2FD04460D46C3
:1092300002460B4650465946CDE9084501F08AFCE6
:1092400000230022C4F2701301F038FE04460D46DC
:1092500002F0CEF801F0CCFD02460B4682468B466A
:1092600020462946CDE90AAB01F074FC0023002218
:10927000C4F27013032401F021FE00220023CDE983
:109280000C0102F083F890B10324504659460022A5
:1092900000230AAD013C02F079F840B175E9020102
:1092A00000220023013C02F071F80028F6D1234689
:1092B0005D4C08A839464A4601940224009400F007
:1092C00087FCB8F1000F044610DA7A684442FB6864
:1092D00002F100427A6003F10043FB6006E0C2E95C
:1092E0000045002400220023C7E9022320460FB0D6
:1092F000BDE8F08F02460B4601F02CFC0024C7E9C4
:109300000201C7E90001F1E741A3D3E900230124E9
:1093100001F020FC40A3D3E900238046894601F0F8
:1093200019FC02460B46C7E900014046494601F0D8
:1093300011FC39A3D3E9002301F00CFCC7E90201B9
:10934000D4E7FFF77BF836A3D3E9002382468B46A8
:1093500001F0B4FD00230022C3F6E07301F0FCFB32
:1093600002F046F8044601F043FD25A3D3E90023AB
:10937000CDE9040101F0A2FD02460B4650465946D4
:1093800001F0E8FB20A3D3E9002382468B46DDE908
:10939000040101F093FD1F2CCDE90201504659460E
:1093A00044DC4BF64833621EC0F6010353F822300A
:1093B000B3423BD0DDE9022301F0CCFB81460D46F0
:1093C00002460B46C7E900234A462B4650465946FB
:1093D00001F0C0FBDDE9022301F0BCFBB8F1000F96
:1093E00002460B46C7E9022380DA05F1004501F188
:1093F0000041C7F8009064427D60B860F96075E78D
:1094000000004054FB21F93F3163621A61B4D03D42
:109410000000601A61B4D03D7370032E8A19A33B1B
:1094200083C8C96D305FE43FC8BB0108DDE9022392
:10943000361501F08FFBC1F30A538146F31A0D462E
:10944000102BC7E90001BFDD53A3D3E90023DDE9F9
:10945000040101F033FDCDE902015046DDE90223AC
:10946000594601F077FBCDE9060150465946DDE942
:10947000062301F06FFBDDE9022301F06BFB48A33B
:10948000D3E9002382468B46DDE9040101F016FD95
:1094900052465B4601F05EFBCDE90201DDE90223A5
:1094A000DDE9060101F056FBC1F30A538146F31AC8
:1094B0000D46312BC7E900016BDD3BA3D3E9002347
:1094C000DDE9040101F0FAFCCDE90201DDE9022346
:1094D000DDE9060101F03EFB82468B4652465B46C3
:1094E000DDE9060101F036FBDDE9022301F032FB84
:1094F0002FA3D3E90023CDE90201DDE9040101F046
:10950000DDFCDDE9022301F025FBCDE90201504637
:1095100059464FE701F020FB42F2FB13C3F6F97303
:109520009E428046894616D023A3D3E900234FF0FC
:10953000FF3401F011FB02460B46C7E9000140462B
:10954000494601F007FB1CA3D3E9002301F004FB0B
:10955000C7E90201CAE610A3D3E900234FF0FF34A4
:1095600001F0FAFA0EA3D3E900238046894601F000
:10957000F3FA02460B46C7E900014046494601F0AE
:10958000E9FA07A3D3E9002301F0E6FAC7E90201EB
:10959000ACE6DDE906AB17E70000601A61B4D03D28
:1095A0007370032E8A19A33B0000002E8A19A33B77
:1095B000C14920259A837B393163621A61B4D03D59
:1095C0002DE9F84300242546C7F6F074C7F6F07578
:1095D0000C40AC4206460F4689460B46024600F058
:1095E000AB8000297FDD091500F08880A1F57E7C25
:1095F00023F07F43C90723F47003ACF1070C43F455
:10960000801362D5D10F002701EB43034FEA6C0CA6
:109610005200162438464FF400114518D60F9D42CB
:109620004FEA4202DEBFC5EB030368187F18490802
:10963000013C06EB4303F0D12026A0464FF0004149
:10964000984201EB08050EDB834214BF4FF000097E
:109650004FF0010995428CBF4FF0000909F0010954
:10966000B9F1000F0ED005F0004905EB0108B9F182
:10967000004F23D081461B1A954288BF013B521BE5
:1096800064184846D50F49085200013E05EB4303D4
:10969000D6D113431ED164087B10FA0703F17E5321
:1096A00048BF44F0004403F5C0034FEA0C5C0CEBE8
:1096B0000307264630463946BDE8F883B8F1000F67
:1096C000A8BF00F10109D6DAD4E7D10F520001EBAF
:1096D000430397E7611C1CBF04F001031C19DAD196
:1096E00001373446D8E721F000440443E2D0002992
:1096F00036D1D30A15395205002BFAD013F4801055
:109700002AD15B000130DC02FBD5C0F10105C0F1BC
:10971000200432FA04F449192343A1F57E7C8240E7
:1097200023F07F43C90723F47003ACF1070C43F423
:1097300080133FF567AFC8E702460B4601F0BEFB5A
:1097400002460B463046394601F006FA06460F46F9
:1097500030463946BDE8F883202401250020D8E7AB
:1097600002460B4601F0F6F902460B4601F0D0FC2A
:1097700006460F469EE700BFF8B520F00044B4F15E
:10978000FF4F21F00046D4BF00270127B6F1FF4F5D
:10979000C8BF47F001070346002F45D1B1F17E5FF6
:1097A0004CD08F1707F0020747EAD0774CB9022F49
:1097B0003FD0032F03D140F6DB73CCF249031846A8
:1097C000F8BD36B3B6F1FF4F55D0B4F1FF4F20D0FE
:1097D000A41BE4153C2CC4BF40F6DB70C3F6C97073
:1097E00030DD012F08BF00F10043E8D0022F33D055
:1097F0000346002FE3D04BF62E51C3F2BB3101F0EC
:1098000075FE40F6DB71C4F2490101F06DFE0346BE
:10981000D5E7002840F6DB73B8BFCBF6C973CEDBC3
:10982000C3F6C9731846F8BD01F060FE034618463A
:10983000F8BD40F6DB73C4F24903C0E7BDE8F84069
:1098400001F01AB814F13C0FACBF0024012414EA53
:10985000D1741DD00020C4E74BF62E51C3F2BB31AA
:1098600001F044FE014640F6DB70C4F2490001F00D
:109870003BFE0346A3E7B4F1FF4F10D0022FD8D030
:10988000032F98D00023012F99D14FF0004396E782
:1098900001F0E8FF01F00EF900F0EEFFA1E7022F62
:1098A00004BF4CF6E433C4F2160388D0032F04BF80
:1098B0004CF6E433CCF2160381D0012F40F6DB7373
:1098C00018BFC3F649737FF47AAFCBF6497376E7D6
:1098D00020F000420346B2F1FF4F70B5044639D282
:1098E000002A35D000283FDBC115B2F5000F09D2A0
:1098F00010F4000240D15B0001321802FBD5C2F126
:109900000102891823F07F43A1F17F0223F40003B1
:10991000D10743F4000348BF5B000026541019210F
:109920005B0035464FF08072A8189842DEBFC0EB4E
:1099300003038518B61852085B000139F4D113B13E
:1099400006F001039E197610E40506F17C56A41971
:10995000204670BD014601F0D1FE0146204601F0CF
:10996000C5FD0446204670BD014601F0BDFD01461F
:1099700001F078FF0446EBE701228918C2E700BF37
:109980002DE9F04F21F0004487B0B4F1795F8046B3
:109990008946CDE900236DDA01F02AFD002800F0A8
:1099A000F78042464B464046494601F087FA7CA381
:1099B000D3E9002306460F4601F080FA7AA3D3E9E3
:1099C000002301F0C9F832463B4601F077FA78A34C
:1099D000D3E9002301F0BEF832463B4601F06EFAAF
:1099E00075A3D3E9002301F0B7F832463B4601F0F6
:1099F00065FA73A3D3E9002301F0ACF832463B4685
:109A000001F05CFA70A3D3E9002301F0A5F8324617
:109A10003B4601F053FA82468B4600230022304633
:109A20003946C3F6E07301F049FA52465B46CDE988
:109A300002013046394601F041FADDE900230446CF
:109A40000D464046494601F039FA02460B4620468B
:109A5000294601F07FF802460B46DDE9020101F0DC
:109A600079F80B4600210246C3F6F071002001F0A0
:109A700071F87FE002460B4601F020FA48A3D3E9D3
:109A8000002306460F4601F019FA47A3D3E9002345
:109A900001F062F832463B4601F010FA44A3D3E9E4
:109AA000002301F057F832463B4601F007FA42A383
:109AB000D3E9002301F050F832463B4601F0FEF9AD
:109AC0003FA3D3E9002301F045F832463B4601F0BD
:109AD000F5F93DA3D3E9002301F03EF83B463246B9
:109AE00001F0ECF943F23233C3F6D3739C42824661
:109AF0008B4692DD0023C3F6E9739C423DDC0021D6
:109B0000A4F5001300220020C3F6F07114461D4690
:109B100001F020F8CDE9040100230022C3F6E07330
:109B20003046394601F0CAF922462B4601F012F8B8
:109B300052465B46CDE902013046394601F0BEF996
:109B4000DDE9002304460D464046494601F0B6F9DA
:109B500002460B462046294600F0FCFF02460B4613
:109B6000DDE9020100F0F6FF02460B46DDE90401E3
:109B700000F0F0FF07B0BDE8F08F002300250022C1
:109B8000C3F6E7730024CDE90423C3F6D275C3E717
:109B900000210020C3F6F071ECE700BFAFF30080B6
:109BA000D43888BEE9FAA8BDC4B1B4BD9EEE213E4A
:109BB000AD529C804F7E923E9015CB19A001FA3E8B
:109BC0007751C1166CC1563F4C5555555555A53F5B
:109BD0002DE9F04F4AF6AB25D41EC2F6AA25ADF505
:109BE0001B7D03F1FF3C85FB0475CDF808C0E4172D
:109BF0004BF6D046DDF890C2C0F601061F4606902F
:109C00000891C4EBA50456F82C6024EAE4740A9485
:109C1000E343029C099603EB430314EB060802EBB3
:109C2000C303079318D40A9E08F10108A598351BB1
:109C30004FEA88080CAE002400EB850900200021C3
:109C4000002D03DB59F8040001F0D2F8043401358B
:109C50004445E6E90201F1D1099C002C33DB099D62
:109C60000DF5B87ABB465EAE06EBC5060096DDF88C
:109C700008C0BCF1000FBCBF4FF000084FF0000956
:109C80001ADB0DF1380E069D0EEBCB064FF00008E7
:109C90004FF00009002476E902230134F5E80201BF
:109CA00001F00CF902460B464046494600F054FFCD
:109CB000BC4280468946EED1009D0BF1010BEAE9DA
:109CC0000289AA45D3D1099E0DF5067C9AAC731E74
:109CD0000CEB860C00969B00CDF830C0E4180B937B
:109CE0000D94009C9AAD009EE400002E05EB040349
:109CF000049453E93C892ADD5EAE85AD3419002316
:109D00000022C3F670634046494601F0D7F801F0DF
:109D10006FFB01F06DF800230022C4F2701382463D
:109D20008B4601F0CBF802460B464046494600F010
:109D300011FF01F05DFB52465B4645F8040F74E9E4
:109D4000020100F009FFB44280468946D7D1079A44
:109D50004046494600F004FD00224FF07F53044680
:109D60000D4601F0ABF800F00BFC00230022C4F21A
:109D7000200301F0A3F802460B462046294600F0D6
:109D8000E9FE0D46044601F033FB064601F030F8CB
:109D900002460B462046294600F0DCFEDDF81CC0DA
:109DA000BCF1000F8046894640F3C081009C9AAD0B
:109DB000CCF11801631ECCF1170405EB830353F8B3
:109DC000502C52FA01F0361810FA01F1521A43F8E9
:109DD000502C52FA04F5002D3FDD009C0136002C7A
:109DE00040F3D08186AB03EB8400002407E021B16F
:109DF0000124C1F1807143F8041C83420ED053F852
:109E0000041B002CF3D04FF6FF7201248342C0F2F2
:109E1000FF02C1EB020243F8042CF0D1DDF81CC0B4
:109E2000BCF1000F16DDBCF1010F00F08A81BCF11E
:109E3000020F0FD1DDF800C00DF51A7E0CF1FF33D3
:109E40000EEB830353F8502C22F07F4222F44002A1
:109E500043F8502C022D00F08580404649460022F0
:109E6000002301F093FA002800F0A180009C601EFE
:109E7000099C844210DCDDF800C00DF5067E0C9CC8
:109E800000220EEB8C0353F8041DA34242EA0102A8
:109E9000F9D1002A40F07C820D9C54F8503C002BF4
:109EA00040F074820B9D86AE0123721952F8041D96
:109EB00001330029FAD0DDF800C063440CF1010A37
:109EC0009A4505934BDC0A9D029C0CEB050BA59E65
:109ED00004EB0A03049D013B06EB8B0B0DF1380CE0
:109EE0005EAC0CEBC30C6419CDF800C004945BF8B5
:109EF000040F00F07DFFDDF808C0009EBCF1000FEC
:109F0000BCBF4FF000084FF00009E6E902010096DF
:109F10001CDB0AEB07060DF1380E069D4FF000081A
:109F20004FF0000900240EEBC60676E90223013447
:109F3000F5E8020100F0C2FF02460B4640464946E2
:109F400000F00AFEBC4280468946EED1059D0AF12A
:109F5000010A049CAA45E4E902890494C7DD059E30
:109F60000096BEE6002142464B460020C3F6F07143
:109F700000F0F0FD80468946002C3FF46EAF0021D2
:109F8000079A0020C3F6F07100F0EAFB02460B4688
:109F90004046494600F0DEFD002200238046894607
:109FA0004046494601F0F2F900287FF45FAF05967C
:109FB0000495002840F00782DDF81CC04046494661
:109FC000CCF1000200F0CCFB00230022C4F270139D
:109FD00006460F4601F0F8F9002800F0F981002349
:109FE0000022C3F670633046394600F067FF009DDB
:109FF0000DF51A7C0CEB850401F0FAF9013500959A
:10A0000000F0F6FE009D00230DF51A7E0022C4F23A
:10A0100070130EEB85058046894600F04FFF02461F
:10A020000B463046394600F095FD079E18360796D8
:10A0300001F0DEF9494644F8500C404601F0D8F9E9
:10A0400045F8500C00210020C3F6F071079A00F08B
:10A0500087FB009C002C06460F465DDB01340DF5A6
:10A06000067C0DF5BC7E5EAD06950CEB84050EEB13
:10A07000C40455F8040D00F0BBFE32463B4600F028
:10A080001DFF00230022C3F6706364E9020130461D
:10A09000394600F013FFDDF818C0644506460F4648
:10A0A000E7D1009C0027DDF824800DF1D80B04F1E6
:10A0B000FF3ACDF808B0D146B8F1000FC0F2558193
:10A0C000002FC0F252810DF5BC7C994D0CEBC906F6
:10A0D0004FF0000A4FF0000B002401E0BC4210DCFE
:10A0E000F6E902230134F5E9020100F0E7FE024639
:10A0F0000B465046594600F02FFDA04582468B4640
:10A10000ECDA029D09F1FF3905EBC703013719F1BC
:10A11000020FC3E900ABCFD1A49C032C00F2B580A1
:10A12000DFE814F00801BB00BB0032001AD1DDF8F3
:10A1300000C00DF51A7E0EEB8C0353F8545CED1540
:10A1400049E6DDF800C00DF51A7E0CF1FF330EEB89
:10A15000830353F8502C22F07F4222F4000243F88C
:10A16000502C77E600230022C3F6E073002501F0AF
:10A170002BF900283FF471AE009C02250136002C1B
:10A180003FF730AE002449E6009E00230DF1D80BC6
:10A190001946002E60DDDDF800C00DF1D80B0DF181
:10A1A000E00A0CF101050BEBC5052C4654E90289C8
:10A1B00054E9046742464B463046394600F0CCFC31
:10A1C000CDE902013046DDE90223394600F0C2FC48
:10A1D00002460B464046494600F0BEFCDDE90267F8
:10A1E00064E90201544544E90267DFD1DDF800C0AB
:10A1F00000231946BCF1010F2EDD0BF1100A2C468D
:10A2000054E9028954E9046742464B4630463946D0
:10A2100000F0A2FCCDE900013046DDE9002339461B
:10A2200000F098FC02460B464046494600F094FC7C
:10A23000DDE9006764E90201544544E90267DFD1C2
:10A2400000231C461846214675E9022300F084FCD1
:10A25000554503460C46F5D1049C002C00F0C58002
:10A26000089E01F10041DBF80050DBF80800DBF844
:10A270000440DBF80C2004F10044356002F1004298
:10A280007460B060F26033617161DDF814C00CF08D
:10A2900007000DF51B7DBDE8F08FDDF800C0002341
:10A2A0000DF1D80B1946BCF1000F13DBDDF800C02F
:10A2B0000DF1D80B00230CF101041D460BEBC40477
:10A2C0001846294674E9022300F046FC5C45034623
:10A2D0000D46F5D1049C01F1004204B90A46DDF8AF
:10A2E00020C00D461E461746DBE900011A46CCE9A0
:10A2F00000672B4600F02EFC009C002C03460CDD72
:10A300000BEBC4040D4618462946FBE9022300F076
:10A3100023FCA34503460D46F5D1049D0DB101F183
:10A320000041089E1C460D46C6E90245ADE700BF48
:10A33000D8BC0108009C00200146002C0BDB013436
:10A3400036AD002005EBC404014674E9022300F099
:10A3500003FCAC42F9D1049D0DB101F10041089E0E
:10A3600002460B46C6E900238FE7029D09F1FF393B
:10A370004FF0000A4FF0000B05EBC703013719F14E
:10A38000020FC3E900AB7FF497AEC5E6012392E567
:10A390000596049583009AADEA18079C009052F840
:10A3A000502C183C0794002A7FF44CAE86AE02462F
:10A3B000F318214653F8040D013A18390028F9D052
:10A3C000009207913EE6DDF800C00CF1FF30E1E7B6
:10A3D000DDF800C00DF51A7E304639460EEB8C04D0
:10A3E00001F006F844F8500C2CE6DDF820C01C46BD
:10A3F000DBE900670D46DBE90223CCE90445CCE943
:10A400000067CCE9022340E72DE9F04F85B006460E
:10A410000F46CDE9002321F00043B3F1795F03DA61
:10A4200000F0E6FF00286ED032463B463046394603
:10A4300000F044FD32463B4604460D4600F03EFD2A
:10A440003FA3D3E90023804689462046294600F0F1
:10A4500035FD3DA3D3E9002300F07CFB22462B46CB
:10A4600000F02CFD3AA3D3E9002300F075FB22464F
:10A470002B4600F023FD38A3D3E9002300F06AFB4C
:10A4800022462B4600F01AFD35A3D3E9002300F045
:10A4900063FB0E9B82468B46002B39D000230022A3
:10A4A000C3F6E073DDE9000100F008FD52465B46AB
:10A4B000CDE902014046494600F000FD02460B4648
:10A4C000DDE9020100F046FB22462B4600F0F6FCD7
:10A4D000DDE9002300F03EFB23A3D3E9002304467B
:10A4E0000D464046494600F0E9FC02460B46204630
:10A4F000294600F031FB02460B463046394600F053
:10A5000029FB06460F463046394605B0BDE8F08FB8
:10A5100002460B462046294600F0D0FC12A3D3E9A0
:10A52000002300F017FB42464B4600F0C7FC0246F2
:10A530000B463046394600F00FFB06460F46E2E771
:10A540007CD5CF5A3AD9E53DEB9C2B8AE6E55A3EBD
:10A550007DFEB157E31DC73ED561C119A0012A3F59
:10A56000A6F810111111813F495555555555C53F54
:10A5700021F0004000F1004000F58010C00F70474E
:10A580002DE9F04FC1F30A56A6F57E7483B0073C5F
:10A590008246132C8B46804627DC002C51DB4FF67D
:10A5A000FF73C0F20F0353FA04F606EA01050543F0
:10A5B00016D041A3D3E90023019100F0CDFA002287
:10A5C000002300F00BFFDDF804C0002835D0BCF1FB
:10A5D000000F69DB2CEA060C4FF00008E346C24688
:10A5E0005046594603B0BDE8F08F332C09DDB4F571
:10A5F000806FF5D102460B4600F0AEFA82468B46DC
:10A60000EEE7A6F582634FF0FF32033B32FA03F523
:10A610000542E5D028A3D3E90023019100F09CFA7C
:10A620000022002300F0DAFEDDF804C028B1BCF1FE
:10A63000000F28DB28EA050800E0DC46E346C246B6
:10A64000CEE71DA3D3E9002300F086FA0022002301
:10A6500000F0C4FE0028F0D0BBF1000FA4BF4FF003
:10A660000008C446EADA2BF000484FF0000C48EA34
:10A670000A08CBF6F07CB8F1000F08BFDC4618BF23
:10A680004FF00008DAE7142C09D0C6F586634FF0C6
:10A690000108033308FA03F818EB0A08CAD30CF1CF
:10A6A000010C28EA0508C9E74FF4801353FA04F4B3
:10A6B000A4448FE7AFF300809C7500883CE4377EAC
:10A6C0000B4650EA030110B402D1022010BC7047BF
:10A6D000D0F1010238BF0022B3F1004F14BF0021B6
:10A6E00002F001010029F0D14FF6FF71A3F58010AF
:10A6F000C7F6DF7103F1FE44884204F570048CBF95
:10A70000002001208C428CBF014640F00101042052
:10A710000029DBD1B3F5801F03F100402CBF0021DD
:10A720000121B0F5801F38BF41F0010109B10320BC
:10A73000CCE713F5801FC7F6F07114BF002001208D
:10A740008B4214BF034640F0010302EA0300BDE759
:10A750000020704700210020C7F6F871704700BF45
:10A760002DE9F843C1F30A5704460D4616460B4639
:10A77000002F2DD121F00043034325D000230022D8
:10A78000C4F2503300F09AFB43F6B043CFF6FF73A8
:10A790009E4204460D463EDBC1F30A5740F2FE726C
:10A7A000363F0B46BF199742C4BF22462B461BDDDE
:10A7B0002DA1D1E9000100F0BFF92BA3D3E90023BB
:10A7C00000F07CFB04460D4620462946BDE8F88390
:10A7D00040F2FF72974229D040F2FE72BF199742B1
:10A7E000C4BF22462B46E3DC002FC2BF23F0FE434A
:10A7F00023F4700343EA0755E6DC17F1350F1FDA3F
:10A800004CF2503322469E422B46D1DC18A1D1E9AE
:10A81000000100F091F916A3D3E9002300F04EFBEC
:10A8200004460D4620462946BDE8F88302460B46FD
:10A8300000F092F904460D4620462946BDE8F8830B
:10A84000363723F0FE4323F47003204643EA0755CE
:10A85000002329460022C3F6904300F02FFB044654
:10A860000D46B1E7AFF300809C7500883CE4377E6D
:10A8700059F3F8C21F6EA5012DE9F04120F0004503
:10A88000B5F1A14F044606460EDBB5F1FF4F00F3CC
:10A89000A480002840F6DB74C8BFC3F6C97440F337
:10A8A000D9802046BDE8F0814FF6FF73C3F6DF6321
:10A8B0009D4200F3A780B5F1445FC0F295804FF050
:10A8C000FF372146204600F019FF0146804600F080
:10A8D00015FF46F6D711C3F68541054600F00EFF79
:10A8E0004DF65921C3F64B5100F000FE294600F009
:10A8F00005FF46F63531C3F6885100F0F7FD2946CD
:10A9000000F0FCFE42F66E61C3F6BA5100F0EEFDB7
:10A91000294600F0F3FE44F62511C3F6126100F05B
:10A92000E5FD294600F0EAFE4AF6AB21C3F6AA612E
:10A9300000F0DCFD414600F0E1FE4AF22121CBF6B9
:10A9400015518046284600F0D9FE4FF26B11C3F630
:10A950006E5100F0C9FD294600F0D0FE48F2957115
:10A96000C3F69D5100F0C0FD294600F0C7FE48F631
:10A970003861C3F6E35100F0B7FD294600F0BEFE92
:10A980004CF6CD41C3F64C6100F0AEFD294600F017
:10A99000B5FE7B1C014651D04BF62055404600F0D9
:10A9A000A5FDC0F60105214600F0A8FE05EB8703D2
:10A9B000196900F099FD214600F096FD014655F811
:10A9C000270000F091FD002EB8BF00F10044FFF613
:10A9D00068AF04462046BDE8F081014600F086FDE0
:10A9E00004462046BDE8F0814FF2CA21C7F2491162
:10A9F00000F07CFD4FF07E5101F03CF800283FF460
:10AA00005EAF4EE700F056F84FF6FF73C3F697734C
:10AA10009D424FF6FF7304461FDCC3F62F739D4221
:10AA20003DDC0146002700F061FD4FF07E5100F053
:10AA30005BFD4FF08041054620461FE0404600F098
:10AA400055FD214600F05AFE0146204600F04CFD1F
:10AA5000044626E7CBF6C97423E7C4F21B039D42E4
:10AA600014DC4FF07F51022700F03EFD4FF07F5184
:10AA70000546204600F042FE4FF07E5100F036FDC4
:10AA80000146284600F0EEFE04461AE70020214663
:10AA9000CBF68070032700F0E5FE044611E74FF087
:10AAA0007E51012700F020FD4FF07E5105462046E3
:10AAB000E4E700BF20F00040704700BFD0F1010381
:10AAC00038BF0023B0F1004F08BF43F001030BB1C2
:10AAD00002207047A0F5000300F1FF42B3F1FE4FE2
:10AAE0002CBF00230123B2F1FE4F38BF43F0010316
:10AAF0000BB1042070474FF6FE73411EC0F27F0376
:10AB000000F10042013A99428CBF002101219A4292
:10AB10008CBF0B4641F001030BB10320704710F5C9
:10AB2000000F14BF00230123B0F1FF4F14BF1846DC
:10AB300043F00100704700BF03F0004321F00042E2
:10AB400030B443EA020130BC704700BF81F00041DD
:10AB500002E000BF83F0004330B54FEA41044FEA02
:10AB6000430594EA050F08BF90EA020F1FBF54EA9D
:10AB7000000C55EA020C7FEA645C7FEA655C00F039
:10AB8000E2804FEA5454D4EB5555B8BF6D420CDD0A
:10AB90002C4480EA020281EA030382EA000083EA8D
:10ABA000010180EA020281EA0303362D88BF30BD2D
:10ABB00011F0004F4FEA01314FF4801C4CEA113183
:10ABC00002D0404261EB410113F0004F4FEA0333E2
:10ABD0004CEA133302D0524263EB430394EA050F6D
:10ABE00000F0A780A4F10104D5F1200E0DDB02FADC
:10ABF0000EFC22FA05F2801841F1000103FA0EF270
:10AC0000801843FA05F359410EE0A5F120050EF135
:10AC1000200E012A03FA0EFC28BF4CF0020C43FA66
:10AC200005F3C01851EBE37101F0004507D54FF073
:10AC3000000EDCF1000C7EEB00006EEB0101B1F5C3
:10AC4000801F1BD3B1F5001F0CD349085FEA300009
:10AC50004FEA3C0C04F101044FEA445212F5800F14
:10AC600080F09A80BCF1004F08BF5FEA500C50F1B1
:10AC7000000041EB045141EA050130BD5FEA4C0C94
:10AC8000404141EB010111F4801FA4F10104E9D11D
:10AC900091F0000F04BF01460020B1FA81F308BF14
:10ACA0002033A3F10B03B3F120020CDA0C3208DDE0
:10ACB00002F1140CC2F10C0201FA0CF021FA02F1BB
:10ACC0000CE002F11402D8BFC2F1200C01FA02F12B
:10ACD00020FA0CFCDCBF41EA0C019040E41AA2BF50
:10ACE00001EB0451294330BD6FEA04041F3C1CDA18
:10ACF0000C340EDC04F11404C4F1200220FA04F038
:10AD000001FA02F340EA030021FA04F345EA0301E1
:10AD100030BDC4F10C04C4F1200220FA02F001FAA3
:10AD200004F340EA0300294630BD21FA04F0294625
:10AD300030BD94F0000F83F4801306BF81F48011BE
:10AD40000134013D4EE77FEA645C18BF7FEA655C31
:10AD500029D094EA050F08BF90EA020F05D054EA03
:10AD6000000C04BF1946104630BD91EA030F1EBF08
:10AD70000021002030BD5FEA545C05D1400049410C
:10AD800028BF41F0004130BD14F580043CBF01F5FF
:10AD9000801130BD01F0004545F0FE4141F47001E5
:10ADA0004FF0000030BD7FEA645C1ABF19461046C0
:10ADB0007FEA655C1CBF0B46024650EA013406BFC1
:10ADC00052EA033591EA030F41F4002130BD00BF80
:10ADD00090F0000F04BF0021704730B54FF480643D
:10ADE00004F132044FF000054FF0000150E700BFBE
:10ADF00090F0000F04BF0021704730B54FF480641D
:10AE000004F1320410F0004548BF40424FF0000109
:10AE10003EE700BF42004FEAE2014FEA31014FEA4C
:10AE200002701FBF12F07F4393F07F4F81F060519B
:10AE3000704792F0000F14BF93F07F4F704730B50A
:10AE40004FF4607401F0004521F0004120E700BF9D
:10AE500050EA010208BF704730B54FF000050AE024
:10AE600050EA010208BF704730B511F0004502D525
:10AE7000404261EB41014FF4806404F132045FEA27
:10AE8000915C3FF4DCAE4FF003025FEADC0C18BFCC
:10AE900003325FEADC0C18BF033202EBDC02C2F1C2
:10AEA000200300FA03FC20FA02F001FA03FE40EA54
:10AEB0000E0021FA02F11444C1E600BF70B54FF054
:10AEC000FF0C4CF4E06C1CEA11541DBF1CEA135536
:10AED00094EA0C0F95EA0C0F00F0DEF82C4481EA9E
:10AEE000030621EA4C5123EA4C5350EA013518BFBE
:10AEF00052EA033541F4801143F4801338D0A0FBAB
:10AF000002CE4FF00005E1FB02E506F00042E0FB57
:10AF100003E54FF00006E1FB03569CF0000F18BF5D
:10AF20004EF0010EA4F1FF04B6F5007F64F5407405
:10AF300004D25FEA4E0E6D4146EB060642EAC62198
:10AF400041EA55514FEAC52040EA5E504FEACE2E05
:10AF5000B4F1FD0C88BFBCF5E06F1ED8BEF1004F08
:10AF600008BF5FEA500E50F1000041EB045170BD84
:10AF700006F0004646EA010140EA020081EA0301C8
:10AF8000B4EB5C04C2BFD4EB0C0541EA045170BDC4
:10AF900041F480114FF0000E013C00F3AB8014F13E
:10AFA000360FDEBF002001F0004170BDC4F1000487
:10AFB000203C35DA0C341BDC04F11404C4F1200508
:10AFC00000FA05F320FA04F001FA05F240EA020063
:10AFD00001F0004221F0004110EBD37021FA04F699
:10AFE00042EB06015EEA430E08BF20EAD37070BD53
:10AFF000C4F10C04C4F1200500FA04F320FA05F0B2
:10B0000001FA04F240EA020001F0004110EBD370B3
:10B0100041F100015EEA430E08BF20EAD37070BD23
:10B02000C4F1200500FA05F24EEA020E20FA04F3FC
:10B0300001FA05F243EA020321FA04F001F00041AB
:10B0400021FA04F220EA020000EBD3705EEA430E1C
:10B0500008BF20EAD37070BD94F0000F0FD101F04B
:10B060000046400041EB010111F4801F08BF013C84
:10B07000F7D041EA060195F0000F18BF704703F0C2
:10B080000046520043EB030313F4801F08BF013D49
:10B09000F7D043EA0603704794EA0C0F0CEA135505
:10B0A00018BF95EA0C0F0CD050EA410618BF52EABF
:10B0B0004306D1D181EA030101F000414FF00000C5
:10B0C00070BD50EA410606BF1046194652EA4306D3
:10B0D00019D094EA0C0F02D150EA013613D195EA47
:10B0E0000C0F05D152EA03361CBF104619460AD18F
:10B0F00081EA030101F0004141F0FE4141F4700199
:10B100004FF0000070BD41F0FE4141F4780170BD88
:10B1100070B54FF0FF0C4CF4E06C1CEA11541DBFED
:10B120001CEA135594EA0C0F95EA0C0F00F0A7F8EF
:10B13000A4EB050481EA030E52EA03354FEA01311C
:10B1400000F088804FEA03334FF0805545EA13132F
:10B1500043EA12634FEA022245EA111545EA1065F7
:10B160004FEA00260EF000419D4208BF964244F18E
:10B17000FD0404F5407402D25B084FEA3202B61AAD
:10B1800065EB03055B084FEA32024FF480104FF481
:10B19000002CB6EB020E75EB030E22BFB61A7546F5
:10B1A00040EA0C005B084FEA3202B6EB020E75EB88
:10B1B000030E22BFB61A754640EA5C005B084FEAF0
:10B1C0003202B6EB020E75EB030E22BFB61A7546BD
:10B1D00040EA9C005B084FEA3202B6EB020E75EBC8
:10B1E000030E22BFB61A754640EADC0055EA060E89
:10B1F00018D04FEA051545EA16754FEA06164FEACC
:10B20000C30343EA52734FEAC2025FEA1C1CC0D177
:10B2100011F4801F0BD141EA00014FF000004FF004
:10B22000004CB6E711F4801F04BF01430020B4F1C5
:10B23000FD0C88BFBCF5E06F3FF6AFAEB5EB030C7D
:10B2400004BFB6EB020C5FEA500C50F1000041EB7A
:10B25000045170BD0EF0004E4EEA113114EB5C0447
:10B26000C2BFD4EB0C0541EA045170BD41F480111A
:10B270004FF0000E013C90E645EA060E8DE60CEA22
:10B28000135594EA0C0F08BF95EA0C0F3FF43BAF3F
:10B2900094EA0C0F0AD150EA01347FF434AF95EAF6
:10B2A0000C0F7FF425AF104619462CE795EA0C0FDA
:10B2B00006D152EA03353FF4FDAE1046194622E7A7
:10B2C00050EA410618BF52EA43067FF4C5AE50EA81
:10B2D00041047FF40DAF52EA43057FF4EBAE12E771
:10B2E0004FF0FF3C06E000BF4FF0010C02E000BF52
:10B2F0004FF0010C4DF804CD4FEA410C7FEA6C5C35
:10B300004FEA430C18BF7FEA6C5C1BD001B050EAD7
:10B31000410C0CBF52EA430C91EA030F02BF90EAC2
:10B32000020F0020704710F1000F91EA030F58BF81
:10B33000994208BF90422CBFD8176FEAE37040F0E3
:10B34000010070474FEA410C7FEA6C5C02D150EA81
:10B35000013C07D14FEA430C7FEA6C5CD6D152EA3C
:10B36000033CD3D05DF8040B704700BF8446104601
:10B3700062468C461946634600E000BF01B5FFF700
:10B38000B7FF002848BF10F1000F01BD4DF808EDD0
:10B39000FFF7F4FF0CBF012000205DF808FB00BFA1
:10B3A0004DF808EDFFF7EAFF34BF012000205DF8FB
:10B3B00008FB00BF4DF808EDFFF7E0FF94BF012048
:10B3C00000205DF808FB00BF4DF808EDFFF7CEFF49
:10B3D00094BF012000205DF808FB00BF4DF808ED88
:10B3E000FFF7C4FF34BF012000205DF808FB00BF59
:10B3F0004FEA410212F5001215D211D56FF478739D
:10B40000B3EB625212D94FEAC12343F0004343EA3F
:10B41000505311F0004F23FA02F018BF404270471A
:10B420004FF00000704750EA013005D111F00040A4
:10B4300008BF6FF0004070474FF00000704700BF3A
:10B440004FEA4102B2F1E04324BFB3F5001CDCF146
:10B45000FE5C0DD901F0004C4FEAC0024CEA50707E
:10B46000B2F1004F40EB830008BF20F001007047AD
:10B4700011F0804F21D113F13872BCBF01F00040B0
:10B48000704741F480114FEA5252C2F11802C2F1E2
:10B49000200C10FA0CF320FA02F018BF40F0010063
:10B4A0004FEAC1234FEAD32303FA0CFC40EA0C0015
:10B4B00023FA02F34FEA4303CCE77FEA625307D152
:10B4C00050EA01331EBF4FF0FE4040F44000704789
:10B4D00001F0004040F0FE4040F40000704700BF23
:10B4E00080F0004002E000BF81F0004142001FBF39
:10B4F0005FEA410392EA030F7FEA226C7FEA236C42
:10B500006AD04FEA1262D2EB1363C1BFD218414036
:10B5100048404140B8BF5B42192B88BF704710F0CC
:10B52000004F40F4000020F07F4018BF404211F06F
:10B53000004F41F4000121F07F4118BF494292EAD7
:10B54000030F3FD0A2F1010241FA03FC10EB0C0003
:10B55000C3F1200301FA03F100F0004302D5494290
:10B5600060EB4000B0F5000F13D3B0F1807F06D33D
:10B5700040084FEA310102F10102FE2A51D2B1F135
:10B58000004F40EBC25008BF20F0010040EA03002A
:10B590007047490040EB000010F4000FA2F10102D7
:10B5A000EDD1B0FA80FCACF1080CB2EB0C0200FA61
:10B5B0000CF0AABF00EBC25052421843BCBFD040AF
:10B5C0001843704792F0000F81F4000106BF80F429
:10B5D00000000132013BB5E74FEA41037FEA226CEC
:10B5E00018BF7FEA236C21D092EA030F04D092F0B7
:10B5F000000F08BF0846704790EA010F1CBF0020EB
:10B60000704712F07F4F04D1400028BF40F0004047
:10B61000704712F100723CBF00F50000704700F067
:10B62000004343F0FE4040F4000070477FEA22628E
:10B6300016BF08467FEA23630146420206BF5FEA5F
:10B64000412390EA010F40F4800070474FF000035F
:10B6500004E000BF10F0004348BF40425FEA000C26
:10B6600008BF704743F0964301464FF000001CE0CE
:10B6700050EA010208BF70474FF000030AE000BF24
:10B6800050EA010208BF704711F0004302D5404262
:10B6900061EB41015FEA010C02BF844601460020D4
:10B6A00043F0B64308BFA3F18053A3F50003BCFAEF
:10B6B0008CF2083AA3EBC25310DB01FA02FC63449C
:10B6C00000FA02FCC2F12002BCF1004F20FA02F2A3
:10B6D00043EB020008BF20F00100704702F1200296
:10B6E00001FA02FCC2F1200250EA4C0021FA02F2F7
:10B6F00043EB020008BF20EADC7070474FF0FF0CFC
:10B700001CEAD0521EBF1CEAD15392EA0C0F93EAF6
:10B710000C0F6FD01A4480EA010C400218BF5FEA98
:10B7200041211ED04FF0006343EA501043EA51110B
:10B73000A0FB01310CF00040B1F5000F3EBF490005
:10B7400041EAD3715B0040EA010062F17F02FD2A09
:10B750001DD8B3F1004F40EBC25008BF20F00100EC
:10B76000704790F0000F0CF0004C08BF49024CEA03
:10B77000502040EA51207F3AC2BFD2F1FF0340EA95
:10B78000C250704740F400004FF00003013A5DDC06
:10B7900012F1190FDCBF00F000407047C2F1000247
:10B7A000410021FA02F1C2F1200200FA02FC5FEA34
:10B7B000310040F1000053EA4C0308BF20EADC707E
:10B7C000704792F0000F00F0004C02BF400010F4F0
:10B7D000000F013AF9D040EA0C0093F0000F01F09D
:10B7E000004C02BF490011F4000F013BF9D041EABF
:10B7F0000C018FE70CEAD15392EA0C0F18BF93EAC1
:10B800000C0F0AD030F0004C18BF31F0004CD8D1EA
:10B8100080EA010000F00040704790F0000F17BF71
:10B8200090F0004F084691F0000F91F0004F14D0B7
:10B8300092EA0C0F01D142020FD193EA0C0F03D10F
:10B840004B0218BF084608D180EA010000F0004012
:10B8500040F0FE4040F40000704740F0FE4040F4ED
:10B86000400070474FF0FF0C1CEAD0521EBF1CEA8C
:10B87000D15392EA0C0F93EA0C0F69D0A2EB0302AA
:10B8800080EA010C49024FEA402037D04FF0805344
:10B8900043EA111143EA10130CF000408B4238BF09
:10B8A0005B0042F17D024FF4000C8B4224BF5B1A17
:10B8B00040EA0C00B3EB510F24BFA3EB510340EA65
:10B8C0005C00B3EB910F24BFA3EB910340EA9C0013
:10B8D000B3EBD10F24BFA3EBD10340EADC001B0183
:10B8E00018BF5FEA1C1CE0D1FD2A3FF650AF8B4227
:10B8F00040EBC25008BF20F0010070470CF0004C34
:10B900004CEA50207F32C2BFD2F1FF0340EAC2505E
:10B91000704740F400004FF00003013A37E792F01F
:10B92000000F00F0004C02BF400010F4000F013A7D
:10B93000F9D040EA0C0093F0000F01F0004C02BF78
:10B94000490011F4000F013BF9D041EA0C0195E7E1
:10B950000CEAD15392EA0C0F08D142027FF47DAF7A
:10B9600093EA0C0F7FF470AF084676E793EA0C0F6A
:10B9700004D14B023FF44CAF08466EE730F0004C68
:10B9800018BF31F0004CCAD130F000427FF45CAFF8
:10B9900031F000437FF43CAF5FE700BF4FF0FF3C66
:10B9A00006E000BF4FF0010C02E000BF4FF0010CB9
:10B9B0004DF804CD4FEA40024FEA41037FEA226C82
:10B9C00018BF7FEA236C11D001B052EA530C18BFA4
:10B9D00090EA010F58BFB2EB030088BFC81738BF09
:10B9E0006FEAE17018BF40F0010070477FEA226CF7
:10B9F00002D15FEA402C05D17FEA236CE4D15FEAF3
:10BA0000412CE1D05DF8040B704700BF8446084626
:10BA10006146FFE70FB5FFF7C9FF002848BF10F1E7
:10BA2000000F0FBD4DF808EDFFF7F4FF0CBF01202C
:10BA300000205DF808FB00BF4DF808EDFFF7EAFFB6
:10BA400034BF012000205DF808FB00BF4DF808ED71
:10BA5000FFF7E0FF94BF012000205DF808FB00BF66
:10BA60004DF808EDFFF7D2FF94BF012000205DF8EC
:10BA700008FB00BF4DF808EDFFF7C8FF34BF0120F9
:10BA800000205DF808FB00BF40F20403C2F200038F
:10BA90001868704770B54DF2F0264DF2F025C0F6EB
:10BAA0000106C0F60105761BB61006D0002455F835
:10BAB000043B01349847A642F9D14DF2F4264DF2E9
:10BAC000F025C0F60106C0F60105761B11F004FC56
:10BAD000B61006D0002455F8043B01349847A6421E
:10BAE000F9D170BD032A2DE9F00109D82AB100234C
:10BAF000CC5CC45401339342FAD1BDE8F0017047E5
:10BB000085070244034605D011F8014B03F8014BA9
:10BB10009C07F9D111F0030542D0D41A6E42032CD0
:10BB20008F5912DDC5F1040CED004FEACC0C043145
:10BB300027FA05F88C59274604FA0CF444EA08045D
:10BB400043F8044BD41A032CF1DC9A42D5D90022D5
:10BB50008D5C9D540132A242FAD1CEE70C681C6084
:10BB60004C685C608C689C60CC68DC600C691C6113
:10BB70004C695C618C699C61CC69DC610C6A1C62FB
:10BB80004C6A5C628C6A9C62CC6ADC620C6B1C63E3
:10BB90004C6B5C638C6B9C63CC6B4031DC634033DF
:10BBA000D41A3F2CDADC0AE00C681C604C685C603C
:10BBB0008C689C60CC681031DC601033D41A0F2C78
:10BBC000F2DC04E051F8044B43F8044BD41A032C84
:10BBD000F8DCBAE7032AC9B270B407D822B100234F
:10BBE000C15401339342FBD170BC704785070244B6
:10BBF000034603D003F8011B9C07FBD10C02D51AA6
:10BC0000641826043F2D34441ADD1C605C609C607F
:10BC1000DC601C615C619C61DC611C625C629C623A
:10BC2000DC621C635C639C63DC634033D51A3F2D8C
:10BC3000EBDC05E01C605C609C60DC601033D51AB6
:10BC40000F2DF7DC02E043F8044BD51A032DFADC84
:10BC50009342C9D203F8011B9342FBD1C4E700BF52
:10BC600040F0BE61024B41F42020D860704700BF15
:10BC700000ED00E0C37810B52BB3184AD4684278C1
:10BC8000E14301F4E0631B0AC3F1040C5FFA8CF496
:10BC900012FA04F10F2454FA03F2847890F800C0E9
:10BCA000C9B202EA040343EA01020D4B0CEB0301A3
:10BCB000120181F800230378012203F01F005909C3
:10BCC00012FA00F306E002780123510902F01F0086
:10BCD00083402031024840F8213010BD00ED00E0E3
:10BCE00000E100E043680A6830B523F0407424F4B2
:10BCF00080750B7945EA020C4CEA0324CD680A6989
:10BD00004460846845EA02038D680A4A43EA050CE8
:10BD100004EA02034A794CEA030C4CEA42038360CA
:10BD2000097DC26A4B1E22F47002D9B242EA015365
:10BD3000C36230BDFDF7FFC0002101230160017126
:10BD400041718160C160016103757047094A10B596
:10BD50005368094C03EA040C90E8120021438468FC
:10BD6000C06841EA040343EA000141EA0C0353605E
:10BD700010BD00BF00230140E030FCFF0023036042
:10BD800043608360C3607047836811B143F001036F
:10BD900001E023F0010383607047092970B54FEA81
:10BDA00041040BD964181E3CC6680725A54026EA45
:10BDB0000505A34045EA0304C4600AE00669641867
:10BDC0000725A54026EA050513FA04F445EA04030D
:10BDD0000361062A0CD8013A02EB8202446B1F234E
:10BDE000934024EA030C91404CEA0102426370BD87
:10BDF0000C2A4FEA82030CD89A18046B233A1F23AB
:10BE0000934024EA030C11FA02F24CEA02010163A6
:10BE100070BD9A18C46A413A1F23934024EA030C68
:10BE200011FA02F24CEA0201C16270BD816841F070
:10BE3000804383607047836811B143F4807301E0ED
:10BE400023F4807383607047836811B143F40073F7
:10BE500001E023F40073836070470000016821F063
:10BE60000103036000212123016041608160C16002
:10BE7000016143612C4B98421CD02C4B984220D03E
:10BE80002B4B984225D02B4B98422AD02A4B9842D4
:10BE90002FD02A4B984233D0294B984237D0294B88
:10BEA000984204D14FF03D5243F8AC2C7047264BDA
:10BEB000984203D13D2043F8080C7047234B984229
:10BEC00004D14FF4746143F8201C7047204B984212
:10BED00004D14FF4741243F8382C70471D4B98422C
:10BEE00004D14FF0746043F8500C70471A4B9842DD
:10BEF00003D11A4943F8641C7047194B984203D187
:10BF0000184A43F87C2C7047174B984203D11748C6
:10BF100043F8940C7047164B984204BF4FF03D52C3
:10BF200043F8AC2C704700BF10600240286002400C
:10BF300040600240586002407060024088600240E9
:10BF4000A0600240B86002401064024028640240D1
:10BF50004064024058640240706402403D0000208A
:10BF600088640240400F0020A064024000003D2091
:10BF7000B86402400268164B10B502EA030CCC68A4
:10BF80000A684B6922438C691343CA6923430C6ACC
:10BF90001A434B6A22438C6A13434A6B23438C6BCC
:10BFA0001A4342EA040343EA0C0202604469CB6A82
:10BFB00024F007020C6B44EA030C0B694CEA020202
:10BFC000426143604A688B688260C36010BD00BFF5
:10BFD0003F801CF00023036043608360C360036103
:10BFE00043618361C361036243628362C36203632B
:10BFF000436383637047036811B143F0010301E0B9
:10C0000023F001030360704741607047406880B2CD
:10C010007047006800F0010070470B0607D54369C0
:10C0200012B143F0800301E023F0800343618029D3
:10C0300009D001F01E01036812B119430160704775
:10C0400023EA01020260704730B5074B074A084CEB
:10C05000084DA04288BF13460D4011F0005F14BF89
:10C06000DD609D6030BD00BF0060024000640240A2
:10C070000F6402407D0F7D0F044B1A69002A03DA1A
:10C080000349044859605860704700BF003C0240B3
:10C0900023016745AB89EFCD024B186940F00042A0
:10C0A0001A617047003C0240014BD860704700BFE6
:10C0B000003C02400C4BDA68D0030ED4D868C106AD
:10C0C0000DD4D96811F0EF0F0BD1DA6802F002033A
:10C0D000002B0CBF08200720704701207047052067
:10C0E00070470620704700BF003C024007B5082398
:10C0F0008DF80730FFF7DEFF8DF807009DF8070089
:10C100000128F7D09DF807000EBD000070B5044669
:10C110000E46FFF7EBFF082813D10A4D2A6922F4D7
:10C1200040702861296941F400732B612A6942F04B
:10C13000010028612660FFF7D9FF296921F001037A
:10C140002B6170BD003C024070B5044641B101292D
:10C1500008D0022914BF4FF440764FF4007603E074
:10C160000E4601E04FF48076FFF7C0FF08281ED18D
:10C170000F4D286920F440732B612A6916432E6104
:10C18000296921F0F80028612B6943F00202144369
:10C190002C61296941F480302861FFF7A7FF2B69E2
:10C1A00023F002022A61296921F0F8032B6170BD96
:10C1B000003C02402DE9F04100230F681A4601249B
:10C1C000944004EA0705A54231D1032406689C4047
:10C1D000E443264006600E79D0F800C006FA03F862
:10C1E000013EF6B248EA0C0C012EC0F800C016D889
:10C1F000866891F805C02640866086680CFA03FCC4
:10C200004CEA06068660466826EA05068D79466091
:10C21000466895401FFA85FC4CEA06054560C568EE
:10C220002540C560CC79C5689C402C43C460013270
:10C230000233102AC3D1BDE8F08100234FF6FF710D
:10C240000160037143718371C371704703691942BF
:10C250000CBF002001207047018370474183704765
:10C2600030B501F00705C9080831AB000F2450F8BC
:10C2700021509C4025EA040440F8214050F8214018
:10C2800012FA03F31C4340F8214030BD08B5134BAC
:10C29000984207D14FF40010012100F05FF94FF4EC
:10C2A000001014E00E49884207D14FF480000121AC
:10C2B00000F054F94FF4800009E00A4A90420BD193
:10C2C0004FF40000012100F049F94FF40000002173
:10C2D000BDE8084000F042B908BD00BF005400406E
:10C2E00000580040005C0040F0B5838823F03F0216
:10C2F000044685B01004060C68460D4600F0B6F8FA
:10C300002E490298B0FBF1F7BFB23E43A680B4F8C5
:10C3100000C02CF001031A04110C294B2A6821805B
:10C320009A4209D85200B0FBF2F18BB20137278450
:10C33000032B98BF042322E0B5F806E04BF6FF7C00
:10C34000E64505D102EB4203B0FBF3F083B206E011
:10C3500019235343B0FBF3F291B241F48043190522
:10C36000080D08B943F001034FF4967257434FF498
:10C370007A7E97FBFEF7013743F400432784A383BB
:10C38000B4F800E01FFA8EFC4CF0010121802088F7
:10C3900020F4806222F00A036889AA8819040B0C31
:10C3A00040EA020E43EA0E012889AB89218040EA67
:10C3B000030CA4F808C005B0F0BD00BF40420F0058
:10C3C000A086010041F28833002103604BF6FF7222
:10C3D0004FF480438180C280018141818381704715
:10C3E000038819B19BB243F0010303E023F001027B
:10C3F00011040B0C03807047038819B19BB243F4FE
:10C40000807303E023F4807211040B0C03807047E7
:10C41000038819B19BB243F4007303E023F4007264
:10C4200011040B0C0380704712B141F0010101E0CF
:10C4300001F0FE0101827047038819B19BB243F4F9
:10C44000806303E023F4806211040B0C03807047C7
:10C4500001827047008AC0B2704783889BB20AB1DC
:10C46000194301E023EA010181807047254B9A6856
:10C4700002F00C02042A10B503D0082A03D0224B84
:10C4800024E0224B22E05C685968620201F03F011F
:10C490000AD55A681D4B47F6C07C02EA0C04A20973
:10C4A000B3FBF1F3534309E05A6847F6C07402EA5C
:10C4B0000403154C9B09B4FBF1F14B43114C61682B
:10C4C00001F44032D40BA11CB3FBF1F30D4903601E
:10C4D0008C6804F0F00213090D4A0468D35C34FA46
:10C4E00003F343608C6804F4E054A40A145D33FA47
:10C4F00004F48460896801F46041490B525CD340C4
:10C50000C36010BD003802400024F40000127A001D
:10C51000F8000020044B1A6B09B1104301E022EA35
:10C5200000001863704700BF00380240044B1A6CCB
:10C5300009B1104301E022EA00001864704700BF0F
:10C5400000380240044B5A6C09B1104301E022EA62
:10C5500000005864704700BF00380240044B1A6A5C
:10C5600009B1104301E022EA00001862704700BFE1
:10C5700000380240044B5A6A09B1104301E022EA34
:10C5800000005862704700BF00380240024B586FED
:10C5900040F080725A67704700380240B0F820C0FF
:10C5A00030B52CF001052C04250C0584048BB0F863
:10C5B00020C024F0F3052C04250C42EA05042CF0DD
:10C5C0000A0544EA03142B041A0C42F001050D433A
:10C5D0000483058430BDB0F820C030B52CF01005C0
:10C5E0002C04250C0584048BB0F820C024F440757D
:10C5F0002C05250D45EA02242CF0A00544EA03345D
:10C600002B041A0C42F0100545EA01150483058439
:10C6100030BD000008B5474B984205D101200146C6
:10C62000FFF7A8FF01203DE0B0F1804F05D10120C8
:10C630000146FFF793FF012076E03F49884205D18C
:10C6400002200121FFF78AFF02206DE03B4A904261
:10C6500005D104200121FFF781FF042064E0384B5D
:10C66000984205D108200121FFF778FF08205BE000
:10C670003449884205D110200121FFF76FFF1020B7
:10C6800052E0314A904205D120200121FFF766FF98
:10C69000202049E02D4B984209D102200121FFF7CB
:10C6A00069FF02200021BDE80840FFF763BF284969
:10C6B000884207D14FF480300121FFF75BFF4FF430
:10C6C0008030EFE7234A904207D14FF40030012138
:10C6D000FFF750FF4FF40030E4E71F4B984207D1BB
:10C6E0004FF480200121FFF745FF4FF48020D9E768
:10C6F0001A49884205D140200121FFF72FFF402031
:10C7000012E0174A904205D180200121FFF726FF51
:10C71000802009E0134B98420BD14FF48070012127
:10C72000FFF71CFF4FF480700021BDE80840FFF7C1
:10C7300015BF08BD00000140000400400008004093
:10C74000000C0040001000400014004000040140B4
:10C7500000400140004401400048014000180040F2
:10C76000001C0040002000401B4A038890420ED06D
:10C770001A4A90420BD0B0F1804F08D0184A90422C
:10C7800005D0184A904202D0174A904206D14FF67F
:10C790008F7203EA020C4B884CEA0303134A90425F
:10C7A00009D0134A904206D04FF6FF4203EA020C2A
:10C7B0000B894CEA030303804B680A88C362064B6B
:10C7C0000285984202D0054A904201D1897A0186B9
:10C7D00001238382704700BF000001400004014034
:10C7E0000004004000080040000C00400010004021
:10C7F0000014004000234FF0FF31416003800381AB
:10C80000438083727047038819B19BB243F00103E0
:10C8100003E023F0010211040B0C038070470000B9
:10C82000028CB1F80CC022F0010370B51E04340C68
:10C830000484068C8488058B25F0730213041A0C7B
:10C8400026F002031E04330C0D884E882A4346EA64
:10C850000C051FFA85FC134DA8424CEA030302D0D5
:10C86000114DA84218D14FF6F77603EA0605CB8999
:10C870004FF6FB7645EA030C8B880CEA0606334339
:10C88000B1F810C04E8A4FF6FF45254046EA0C0429
:10C890001FFA84FC4CEA05048968848002834163A2
:10C8A000038470BD0000014000040140B0F820C0C6
:10C8B0002CF0100230B515042C0C0484B0F820C004
:10C8C0008488038B23F4E64215040B882A0C2CF091
:10C8D000200542EA03222B048D89B1F802C01B0C0B
:10C8E00043EA0513124DA84243EA0C1302D0114D3E
:10C8F000A84217D14FF67F7503EA050CCB894CEAA5
:10C900000315B1F804C04FF6BF732B4043EA0C1374
:10C910004FF2FF35B1F810C025404C8A45EA8C052E
:10C9200045EA84048968848002838163038430BD7E
:10C930000000014000040140B0F820C02CF48072D7
:10C9400030B515042C0C0484B0F820C08488838B87
:10C9500023F0730215040B882A0C2CF400751A437B
:10C960002B048D89B1F802C01B0C43EA0523134D3B
:10C97000A84243EA0C2302D0114DA84217D14FF22E
:10C98000FF7503EA050CCB894CEA0325B1F804C016
:10C990004FF6FF332B4043EA0C234CF6FF75B1F8FA
:10C9A00010C025404C8A45EA0C1545EA04148968F4
:10C9B00084808283C163038430BD00BF00000140D6
:10C9C00000040140B0F820C02CF4805230B51504AA
:10C9D0002C0C0484B0F820C08488838B23F4E642B6
:10C9E00015040B882A0C2CF4005542EA03222B0470
:10C9F0008D89B1F802C01B0C43EA0533094DA842EA
:10CA000043EA0C3302D0084DA84205D14BF6FF751E
:10CA100025400C8A45EA84148968848082830164F5
:10CA2000038430BD00000140000401400023038066
:10CA30004380838083608381C38103824382704704
:10CA400000230122038043808280C38003817047DA
:10CA5000406B7047806B7047C06B7047006C7047CD
:10CA6000028B22F00C031A04130C0383B0F818C0D5
:10CA70001FFA8CF241EA020303837047028B22F40F
:10CA800040631A04130C0383B0F818C01FFA8CF229
:10CA900042EA012303837047828B22F00C031A04BD
:10CAA000130C8383B0F81CC01FFA8CF241EA020316
:10CAB00083837047828B22F440631A04130C8383B0
:10CAC000B0F81CC01FFA8CF242EA0123838370473E
:10CAD0002DE9F0410B880D4604464988AA8843B9E0
:10CAE0002B89FFF75BFDE9882046BDE8F041FFF7A1
:10CAF000B7BF042B08D12B89FFF76DFDE9882046CD
:10CB0000BDE8F041FFF7BABF082BB5F8088023D184
:10CB1000038C23F480764FEA06474FEA17430384D9
:10CB2000868BB0F820C026F0F3073B041E0C2CF4D3
:10CB3000206346EA08171E04360C46EA012CBFB2F1
:10CB40001FFA8CF343F480713A4382830184E988AD
:10CB5000BDE8F041FFF7A0BF068C26F480531F0408
:10CB60003F0C0784868BB0F820C026F440731E0566
:10CB7000360D46EA02222CF4005342EA08385A04E1
:10CB8000530C43EA013C1FFA8CF242F48051A0F8A6
:10CB90001C800184E988BDE8F041FFF78BBFB0F845
:10CBA000443021B16FEA43436FEA534301E0590433
:10CBB0004B0CA0F84430704783899BB20AB11943EB
:10CBC00001E023EA010181817047038A828911EA29
:10CBD000030092B203D011420CBF00200120704725
:10CBE000C94301827047000008B5234B984205D124
:10CBF00010200121FFF7BEFC102037E01F498842BA
:10CC000007D14FF400300121FFF7A8FC4FF40030AA
:10CC100009E01B4A90420BD14FF480200121FFF71D
:10CC20009DFC4FF480200021BDE80840FFF796BC32
:10CC3000144B984207D14FF400200121FFF78EFCDE
:10CC40004FF40020EFE71049884207D14FF48010DD
:10CC50000121FFF783FC4FF48010E4E70B4A904278
:10CC600009D120200121FFF785FC20200021BDE80B
:10CC70000840FFF77FBC08BD0010014000440040A1
:10CC800000480040004C00400050004000140140AB
:10CC900030B5B0F810E02EF440521304CA881B0CD3
:10CCA00013430382B0F80CC02CF4B05E2EF00C02DB
:10CCB000B1F804C013040A890D46498942EA0C02FE
:10CCC00042EA010E1B0C1FFA8EFC4CEA0301818123
:10CCD000828A22F440731904AA890B0C43EA0201E8
:10CCE00085B0044681826846FFF7C0FB1C4B9C421E
:10CCF00002D01C48844201D1039B00E0029BA28920
:10CD00000FFA82FC4FF01901BCF1000F2A6801FBF9
:10CD100003F101DA520000E092006423B1FBF2F16A
:10CD2000B1FBF3F21201100903FB1011A0890FFAF5
:10CD300080FEBEF1000F06DAC9003231B1FBF3F319
:10CD400003F0070305E009013231B1FBF3F000F015
:10CD50000F0343EA020CA4F808C005B030BD00BFC1
:10CD6000001001400014014000234FF416510C2222
:10CD700001608380C38003814281838170478389FE
:10CD800019B19BB243F4005303E023F400521104A1
:10CD90000B0C83817047CA05D10D81807047818853
:10CDA000C805C00D7047838A9BB20AB1194301E0E0
:10CDB00023EA010181827047CBB210B55B090124DF
:10CDC00001F01F0114FA01F1A34201D10C3004E07B
:10CDD000022B01D1103000E0143003680AB119436E
:10CDE00001E023EA0101016010BD038819420CBF74
:10CDF00000200120704710B5CCB20122640901F077
:10CE00001F039A40012C01D1838903E0022C0CBF3F
:10CE1000038A838A9BB20088134082B243B1080A16
:10CE2000012313FA00F111420CBF0020012010BDB4
:10CE3000184610BD0349044B0A7853F822100CF031
:10CE40005BB900BFF41C00200801002007480378EC
:10CE5000042B0AD10649B1F88E20501CA1F88E008F
:10CE600004494B7843F002024A707047AC650020D9
:10CE70009C5400202566002038B5124B587900F0EC
:10CE80002004E4B26CB11A7902F02001C8B220B1DA
:10CE90000020BDE8384007F0FDBABDE8384007F093
:10CEA00005BB094D02F0ACF82B68984209D902F095
:10CEB000A7F800F5FA7028602046BDE8384007F072
:10CEC00001BB38BD25660020D0090020174B18494A
:10CED0001A68501C18600A78164800EB8203D3EDDC
:10CEE000006A00221448F02303FB020191ED327A1C
:10CEF000D1ED330A37EE600A91ED346AB5EEC00A1F
:10CF0000F1EE10FA48BFB1EE400AB4EEC60AF1EEF7
:10CF100010FAC8BF81ED340A67EE267A0132032A7F
:10CF200081ED337AC1ED307ADCD17047CC09002035
:10CF3000F41C00201CBE0108280A002070B52DED4D
:10CF4000028B5D4D5D4B2A7803EB8201D1ED007AB7
:10CF50000446B7EE007A84B0594987EE278A0CF070
:10CF6000CBF82046297804F059FD20460CF005F94D
:10CF70002B78032B204600F0948052490CF0BCF82B
:10CF8000204651490CF0B8F8204650490CF0B4F84E
:10CF900020460BF005FD782802D07A28F8D182E0EF
:10CFA000287830B904B0BDEC028BBDE8704006F0C3
:10CFB0002DBC474D0024022007F06CFAC5F82C4226
:10CFC000C5F82042C5F814420194C5F83042C5F8AE
:10CFD0002442C5F818420294C5F83442C5F82842E4
:10CFE000C5F81C420394C5F810423A4C94F804C0AA
:10CFF0000CF02001C8B2002844D0642606F0FEF9E7
:10D00000354AB2F9020001EE900AB8EEE11A01A920
:10D0100071EE480ABDEEE00A10EE103A538000238C
:10D0200032F903E003EE90EA91ED003AF8EEE32ADC
:10D03000023333EE222A062BA1EC012AF0D1013E65
:10D040000520F6B201F0E2FF002ED7D19FED234A72
:10D05000DDED015A9DED025ADDED034AC5EE845A1D
:10D0600085EE045A84EE844AC5ED8B5AC5ED855A87
:10D0700085ED8C5A85ED865A85ED8D4A85ED874A7A
:10D0800008F076FC012108200EF0EEFA022007F0ED
:10D090000DFA617941F02002627104B0BDEC028B9F
:10D0A00070BD0F4901E00F49204604B0BDEC028B72
:10D0B000BDE870400CF020B8F41C00201CBE010834
:10D0C00040BD010860BD01088BBD0108A6BD010877
:10D0D0009C54002025660020EE1C00200000C84261
:10D0E000D0BD0108E4BD010838B5284A284B294CB9
:10D0F000C3F8A0220020C3F8D000C3F8C800C3F8CA
:10D10000C400C3F8C001C3F8B801C3F8B401C3F840
:10D11000B002C3F8A802C3F8A40207F03BFB05461F
:10D1200018B107F099FB022307E007F0BFF818B128
:10D1300007F03AF8257001E003232370164BD3ED76
:10D140008B0A93ED8C0AF5EE400AF1EE10FAD3ED5E
:10D150008D7AB5EE400A14BF00220122F1EE10FADA
:10D1600014BF002002F00100F5EE407A0B4AF1EE08
:10D1700010FA92F805C014BF002300F0010383F0F9
:10D18000010161F3451C82F805C038BD000080BF75
:10D19000280A0020F41C00209C5400202566002052
:10D1A000052804D8034B33F8100080B270470020E4
:10D1B000704700BFF81C0020044B4FF400621A8037
:10D1C0005A809A80DA801A815A817047F81C0020B0
:10D1D00008B509F0D7FA104A1048114B0321117015
:10D1E000042201701A7007F09AF90E4B93F800C0F0
:10D1F00058784CF0080140F0400219705A7007F05E
:10D20000B7F901F039FB04F041FB00200DF0F2FB0F
:10D210000EF04AFAF3E700BFAC650020BC1D002009
:10D22000B01D00202566002037B501F0E9FE0A4B4D
:10D230000024186009490A480A4B0090182505FB8C
:10D240000415094A68691B6800210EF07FF9013452
:10D25000032C6861EED13EBDDC090020241D0020B6
:10D26000CDCC4C3EB81D002000247449014B186001
:10D27000704700BF984E00202DE9F0412DED028B44
:10D280003A483B4C03780BB1002341E0394E3A4F0A
:10D290004FF04040FFF7EAFFB57805F02002D1B229
:10D2A000364D002936D0364BD3ED007AB1EE008AE8
:10D2B000F4EEC87AF1EE10FA984605DD01F0A0FE12
:10D2C00000F56A50183068622E4991EDA87AB8EEE0
:10D2D000040AB4EEC07AF1EE10FA06D5D8ED000AD1
:10D2E000F4EEC80AF1EE10FA31D901F089FE6A6A4B
:10D2F00090420CD9F17801F08000C3B23BBB224BC5
:10D300001A78042A23D02149087803281FD03B68C3
:10D31000236026E01E4E97ED002AD6ED001A32EE6D
:10D32000611A84ED001A01F06BFEAA6A904218D9C6
:10D3300001F066FE174BD4ED002A93ED003AF4EEAF
:10D34000C32A00F57A70F1EE10FAA86201D5FFF752
:10D350003FFFD6ED004A9FED104A74EE843AC6EDC9
:10D36000003ABDEC028BBDE8F08100BF9A5400206A
:10D37000605A0020256600201C5A0020B06500205D
:10D38000744E0020280A0020B01D0020BC1D002083
:10D39000041D0020245A00200AD7A33C054B93F813
:10D3A00003C018784CF0010140F00902D9701A70DE
:10D3B000FFF762BF256600200E4B196AD3F808C03C
:10D3C000D9610D49C3F804C08B78C87891F805C0BD
:10D3D0006FF3041003F0FB02C8706FF341020CF00E
:10D3E000F700064B8A706FF38610002248711A709E
:10D3F000704700BF241D002025660020B01D0020BE
:10D40000D0B52DED048B424A08EE901A517901F007
:10D41000400309EE100AD8B23E4B20B941F040015A
:10D42000C3ED008A51713C4CD4ED177AB4EEE79A03
:10D43000F1EE10FA93ED008A64DD38EEC88A18EE3A
:10D44000100A0DF007FF07EE100AB5EEC07AF1EEF4
:10D4500010FA18EE100A0BD50DF0FCFEDFED2F0AC6
:10D4600000EE100AB4EEE00AF1EE10FA0BDC49E02F
:10D470000DF0F0FEDFED2A1A01EE100AB4EEE11A0B
:10D48000F1EE10FA3ED518EE100AFDF7C3FCFAF7DC
:10D49000D9FF064619EE100A0F46FDF7BBFC0246FF
:10D4A0000B4630463946FDF709FD0646A06E0F468D
:10D4B000FDF7B0FC02460B4630463946FDF7FEFC50
:10D4C000FDF7BEFF9FED177A07EE900AF4EEC77ADC
:10D4D000F1EE10FAA06509D49FED132AF4EE427A1A
:10D4E000F1EE10FAC8BFF0EE427A01E0F0EE477AB2
:10D4F00078EEA72A12EE900ABDEC048BBDE8D0406E
:10D500000DF08CBE18EE900ABDEC048BD0BD00BFB0
:10D5100025660020E4090020241D0020DB0F49BF00
:10D52000DB0F493F920A06BF920A063F264B274A65
:10D5300093ED007A264BD3ED1D0A92ED000A27EEFB
:10D54000607ADFED247A27EE007A13B5224C67EE7D
:10D55000276A94ED797AF1EE477AF4EEE76AF1EE14
:10D5600010FA08D4F4EE476AF1EE10FACCBFF0EEF0
:10D57000477AF0EE667A94EDB11AB5EEC01AF1EE84
:10D5800010FAF5EEC07A4CBF4FF0FF310121F1EEF9
:10D5900010FA124A4CBF4FF0FF3001208142C2ED19
:10D5A000007A02D00021C4F8C4120D4A10680D4A56
:10D5B000009017EE901AD4F8C402D3F880300DF022
:10D5C000C5FFC4F8C4021CBDE0090020C01D002036
:10D5D000241D00200AD7233C280A0020D809002057
:10D5E000AC1D0020002474492DE9F04F2DED028B75
:10D5F000B24CB34EB34F85B008EE901A08EE100A45
:10D6000001F0FEFC2168431A01EE903ADFEDAE0A0C
:10D61000B8EE611A4FF0000961EE200AC6ED000A6B
:10D6200001F0EEFCDFEDA97A97ED120A30EE677A91
:10D63000DFEDA77A67EE277A2060F5EEC07AF1EE8B
:10D6400010FA09D4B7EE002AF4EE427AF1EE10FA9D
:10D65000C8BFF0EE427A01E007EE909A97ED024AD9
:10D66000D7ED083A87ED008A38EE448AC7ED068A7E
:10D6700078EEE38A28EE083A08EEA83A954C13EEC5
:10D68000100AC4ED007A87ED038AC7ED098AFDF719
:10D69000C1FBFAF7F5FFFDF7D3FEF96808EE100AB3
:10D6A000786AFBF743F80DF0B9FD014618EE100A51
:10D6B000FFF7A6FED7ED172AB4EEE28AF1EE10FAD4
:10D6C000A2467865844C26D5844B854993ED006A43
:10D6D000D1ED006A76EEC65A97ED195AF5EEC05AAA
:10D6E000F1EE10FA48BFF1EE655AD7ED184AF4EEA4
:10D6F000C55AF1EE10FAA378B4EEE48A54BF0020C4
:10D700000120F1EE10FA60F3410354BF0022012220
:10D7100062F3820304E0A27802F0FB036FF341039B
:10D72000A3709AED007AB5EEC07AF1EE10FA40F3EC
:10D73000BA80B5EEC08AF1EE10FA40F3B48094F8E6
:10D7400002E00EF0040C5FFA8CF0002840F0AB8091
:10D750006148427802F01001CBB2002B00F0A380A8
:10D76000604A614DDFF85CB1D7ED150AD2ED007A61
:10D7700030EEE70AA84610EE100A0DF06BFD5B4B89
:10D78000286019785A4D71B1FFF7D0FE5949D5ED8F
:10D79000B11A91ED001A21EEC11A002085ED751A1B
:10D7A000C5F8E40081E09BED1B2ADBED1E7A28EE34
:10D7B000027AF1EE676AB4EEE67AF1EE10FA07D477
:10D7C000B4EE677AF1EE10FAD8BFF0EE477A01E0D6
:10D7D000F0EE667A484BD3ED134AD7ED1C3A37EE9C
:10D7E000E44A9AED003A64EE232ADFED447A62EED1
:10D7F000832A9FED437A62EEA77AF4EEC77AF1EEC0
:10D8000010FA0BD49FED3F5AF4EE457AF1EE10FA80
:10D81000CCBF15EE101A17EE901A01E017EE101A91
:10D820003668394A0096D7F88430386D0DF08EFE90
:10D8300006463865D8F80000FDF7ECFACDE902019C
:10D84000FAF7BAFD82468B4686F00040FDF7E2FA11
:10D8500052465B46FDF732FBFDF7F2FDC5F8E400EA
:10D86000DDE90201FAF7EEFD82468B463046FDF710
:10D87000D1FA5B465246FDF721FBFDF7E1FDC5F805
:10D88000D401237803F0020C5FFA8CF040B1124B04
:10D89000987800F00201CAB212B9FFF747FE04E01F
:10D8A000C5F8C49201E0FFF7BFFC617941F00802BE
:10D8B000627105B0BDEC028BBDE8F08FDC09002081
:10D8C000AC1D0020241D00206F12833ACCCCCC3D2F
:10D8D000E4388E3FC01D002025660020744E0020D5
:10D8E000984E0020504E0020E00900209A5400205D
:10D8F000280A0020D4090020004F00200AD7233C2A
:10D90000C2B832BFC2B8323F002474490B4B002268
:10D91000C3F804225A62C3F81421094B197801F0A4
:10D920004000C2B24AB1197901F06000602804D108
:10D93000044A5068D169FFF757BE7047280A002093
:10D9400025660020241D002038B50F4C01F058FB3F
