:020000040000FA
:06000000F9EF33F01200DD
:020006001200E6
:060008007BEF2BF012005B
:02000E00C250DE
:08001000020B01E0010E1200D9
:0600180071EF2BF0120055
:02001E000400DC
:10002000C46800006002000006000000A268000032
:100030002202000022000000866800004402000046
:100040001C000000646800000002000022000000A4
:10005000730EE66E550EE66EAEEC22F0E552E552FA
:100060000101735101E111D1C9EC2FF0640EE66E6C
:10007000550EE66EAEEC22F0E552E552470EE66E06
:10008000030EE66E2FC100F030C101F0026A036A70
:1000900001AE02D002680368E80E396E030E3A6EB4
:1000A0003B6A3C6A00C034F001C035F002C036F053
:1000B00003C037F086EC32F030C000F031C001F000
:1000C00032C002F033C003F0020E0126000E0222FD
:1000D0000322396A040E3A6E3B6A3C6A00C034F06F
:1000E00001C035F002C036F003C037F0DEEC20F07E
:1000F00034C000F035C001F036C002F037C003F064
:1001000000C0E6FF01C0E6FF02C0E6FF03C0E6FF55
:100110007EEC24F0046E060EE15E04503DEC23F00C
:10012000550EE66E550EE66EAEEC22F0E552E55247
:10013000470EE66E030EE66E33C100F034C101F0E7
:10014000026A036A01AE02D002680368E80E396EE3
:10015000030E3A6E3B6A3C6A00C034F001C035F0D1
:1001600002C036F003C037F086EC32F030C000F049
:1001700031C001F032C002F033C003F0020E01269C
:10018000000E02220322396A040E3A6E3B6A3C6A70
:1001900000C034F001C035F002C036F003C037F0C3
:1001A000DEEC20F034C000F035C001F036C002F0C3
:1001B00037C003F000C0E6FF01C0E6FF02C0E6FF63
:1001C00003C0E6FF7EEC24F0046E060EE15E0450F0
:1001D0003DEC23F0460EE66E550EE66EAEEC22F0D8
:1001E000E552E552470EE66E030EE66E31C100F0B1
:1001F00032C101F0026A036A01AE02D002680368EC
:10020000E80E396E030E3A6E3B6A3C6A00C034F069
:1002100001C035F002C036F003C037F086EC32F092
:1002200030C000F031C001F032C002F033C003F042
:10023000020E0126000E02220322396A040E3A6ED3
:100240003B6A3C6A00C034F001C035F002C036F0B1
:1002500003C037F0DEEC20F034C000F035C001F010
:1002600036C002F037C003F000C0E6FF01C0E6FF71
:1002700002C0E6FF03C0E6FF7EEC24F0046E060E2B
:10028000E15E04503DEC23F008D02F0EE66E550ED3
:10029000E66EAEEC22F0E552E5521200D9CFE6FF51
:1002A000E1CFD9FF030EE126020EDB6A100EDE6EEF
:1002B000DD6ADECF00F0DDCF01F0013404E2005052
:1002C000F608000E015428E31FEC31F0DFCFE6FF03
:1002D00041EC31F0E552000911E1020EDB2A2B0E50
:1002E000E66E550EE66EAEEC22F0E552E552DFCF3B
:1002F000E6FF60EC23F0E5523DEC23F031EC31F009
:10030000020EE66EE66A71EC09F0E552E552020E65
:10031000DE26000EDD22CDD7020EDB50006E030E6E
:10032000E15C03E200D0E16AE552E16E0050E55283
:10033000E7CFD9FF1200D9CFE6FFE1CFD9FF050EF5
:10034000E126020153390F0B010B09E01B0EE66E8B
:10035000550EE66EAEEC22F0E552E55208D00B0EDB
:10036000E66E550EE66EAEEC22F0E552E552000E5A
:10037000E66E550EE66EAEEC22F0E552E552010156
:10038000705101E10FD1706BD950010FE96EDACFD6
:10039000EAFFE50EEE6E010EED6E010EDF6EDFCFB1
:1003A00000F0070EE76E0018E8AE02D0003403D06C
:1003B000E750D880005401E29BD0300EDF24E66E77
:1003C000CEEC22F0E552FA0EE66E540EE66EAEEC7E
:1003D00022F0E552E552D950010FE96EDACFEAFF7B
:1003E000EECFF3FFEDCFF4FF020EEE26000EEF226C
:1003F000F3CFE9FFF4CFEAFF030EEECFDBFF040EED
:10040000EDCFDBFF030EDBCFE6FF040EDBCFE6FF15
:1004100074EC23F0E552E552090EE66ECEEC22F0C4
:10042000E552250EE66EE66AFF0EE76E030EDBCFA1
:1004300000F0040EDBCF01F0E7500016016A026AFB
:10044000036A640E396E3A6A3B6A3C6A00C034F053
:1004500001C035F002C036F003C037F086EC32F050
:1004600030C000F031C001F032C002F033C003F000
:10047000F00E396E3A6A3B6A3C6A00C034F001C043
:1004800035F002C036F003C037F0DEEC20F034C0A7
:1004900000F035C001F036C002F037C003F000C0F4
:1004A000E6FF01C0E6FF02C0E6FF03C0E6FF7EEC08
:1004B00024F0046E060EE15E0450030EDBCF00F064
:1004C000040EDBCF01F0000E0016FF0E01160050E7
:1004D00002E1010E011808E0F40EE66E540EE66E1D
:1004E000AEEC22F0E552E5523DEC23F0DF2A57D77F
:1004F000EE0EE66E540EE66EAEEC22F0E552E552DC
:10050000020E366E376A8EC13BF08FC13CF03FEC75
:1005100021F0030E34C0DBFF040E35C0DBFFD950E1
:10052000030FE96EDACFEAFF800EEE26130EED22FE
:10053000E66A030EE66EDBCF00F0040EDBCF01F0BF
:10054000026A036A00C0E6FF01C0E6FF02C0E6FFE0
:1005500003C0E6FF7EEC24F0046E060EE15E04505C
:10056000DF0EE66E540EE66EAEEC22F0E552E5527A
:10057000E66AE66A9EC100F09FC101F0A0C102F0E8
:10058000036A00C0E6FF01C0E6FF02C0E6FF03C049
:10059000E6FF7EEC24F0046E060EE15E04503DECB6
:1005A00023F008D0CF0EE66E540EE66EAEEC22F0CD
:1005B000E552E552050EE15C02E2E16AE552E16EC8
:1005C000E552E7CFD9FF1200D9CFE6FFE1CFD9FF3F
:1005D000020EE126BE0EE66E540EE66EAEEC22F082
:1005E000E552E5521FEC31F0430EE66E41EC31F07E
:1005F000E552000901E043D0E66A75EC31F0E552BE
:10060000026E036A02C003F0026A02C0E6FF03C082
:10061000E6FF010EE66E75EC31F0E552E552E7CFEC
:1006200003F0E552E7CF02F000010210006E03C0B4
:1006300001F000C0DEFF01C0DDFF31EC31F0E66A01
:10064000010EE66EDECF00F0DDCF01F0026A036A34
:1006500000C0E6FF01C0E6FF02C0E6FF03C0E6FF00
:100660007EEC24F0046E060EE15E04508B0EE66E06
:10067000540EE66EAEEC22F0E552E5520AD031ECB3
:1006800031F0840EE66E540EE66EAEEC22F0E552CA
:10069000E552020EE15C02E2E16AE552E16EE552EA
:1006A000E7CFD9FF12002C0EE66E540EE66EAEECCC
:1006B00022F0E552E552AFEC23F0000901E1FBD74F
:1006C0001FEC31F0420EE66E41EC31F0E5520009CC
:1006D00001E03BD0430EE66E41EC31F0E5520009FB
:1006E00001E033D031EC31F0100EE66E540EE66EC0
:1006F000AEEC22F0E552E552AFEC23F0000901E147
:10070000FBD71FEC31F0420EE66E41EC31F0E552C2
:10071000000901E01AD0450EE66E41EC31F0E552D9
:10072000000901E012D031EC31F0320EE66EE66ADB
:1007300071EC09F0E552E5520B0EE66E540EE66ED2
:10074000AEEC22F0E552E5520AD031EC31F0840EE5
:10075000E66E540EE66EAEEC22F0E552E552120063
:10076000D9CFE6FFE1CFD9FF070EE126F80EE66EFE
:10077000530EE66EAEEC22F0E552E55201017651E1
:1007800001E1E9D0550E4A5D09E1E90EE66E530E2E
:10079000E66EAEEC22F0E552E55208D0DA0EE66ED7
:1007A000530EE66EAEEC22F0E552E552F40EE66E24
:1007B000D6EC18F0E552000901E1CDD0230EE66E2B
:1007C000E66A71EC09F0E552E5527AEC18F0DF6E5A
:1007D000010E48C1DBFF020E49C1DBFFD10EE66E00
:1007E000530EE66EAEEC22F0E552E552E66AE66A9A
:1007F000010EDBCF00F0020EDBCF01F0026A036ACC
:1008000000C0E6FF01C0E6FF02C0E6FF03C0E6FF4E
:100810007EEC24F0046E060EE15E04504BC1E6FF50
:10082000D6EC18F0E552000901E195D00A0EE66E0B
:10083000E66A71EC09F0E552E5527AEC18F0DF6EE9
:10084000030E48C1DBFF040E49C1DBFFC90EE66E93
:10085000530EE66EAEEC22F0E552E552E66AE66A29
:10086000030EDBCF00F0040EDBCF01F0026A036A57
:1008700000C0E6FF01C0E6FF02C0E6FF03C0E6FFDE
:100880007EEC24F0046E060EE15E0450C10EE66EAE
:10089000530EE66EAEEC22F0E552E552010EDBCFD0
:1008A00002F0020EDBCF03F002C0E6FF03C0E6FF5A
:1008B000050EE66E47C206F0076A06BE0768030E1D
:1008C000DBCF36F0040EDBCF37F006C03BF007C0BD
:1008D0003CF012EC21F034C004F035C005F0100EED
:1008E0000426000E052204C0E6FF05C0E6FF1AEC50
:1008F0000AF0E552E552E552E552E7CF03F0E55242
:10090000E7CF02F00250F324006E0350F420016E92
:10091000050E00C0DBFF060E01C0DBFFE66AE66ADB
:10092000050EDBCF00F0060EDBCF01F0026A036A92
:1009300000C0E6FF01C0E6FF02C0E6FF03C0E6FF1D
:100940007EEC24F0046E060EE15E04503DEC23F0D4
:100950003DEC23F00AD031EC31F0840EE66E540EFB
:10096000E66EAEEC22F0E552E552070EE15C02E2E3
:10097000E16AE552E16EE552E7CFD9FF1200D9CF27
:10098000E6FFE1CFD9FF020EE126010EF36EFE0E67
:10099000DB5004E0D890F336E806FCE1F350E76E54
:1009A000010EE7CFDBFFDF6ADFCF00F00A0EE76E54
:1009B0000018E8AE02D0E73402D0E750005C0FE246
:1009C000010EDB5001014D1B28EC11F0C80EE66E44
:1009D000E66A71EC09F0E552E552DF2AE5D7020E2E
:1009E000E15C02E2E16AE552E16EE552E7CFD9FF50
:1009F0001200D9CFE6FFE1CFD9FFE652B40EE66E82
:100A0000530EE66EAEEC22F0E552E552880EE66E2D
:100A1000530EE66EAEEC22F0E552E5526D0EE66E38
:100A2000530EE66EAEEC22F0E552E552CDDD5F0EE0
:100A3000E66E530EE66EAEEC22F0E552E552440E41
:100A4000E66E530EE66EAEEC22F0E552E552AFECE8
:100A500023F0000901E1FBD7010EE66E92EC22F0D3
:100A6000E55267EC16F001017F5101E12DD104C17F
:100A700029F12A6B29BF2A6905C12BF12C6B2BBFE9
:100A80002C6913EC17F0000EE66EE66AE66EE66A75
:100A900051EC26F0E552E552E552E552200EE66EA5
:100AA000E66A52C100F053C101F0026A036A01AE66
:100AB00002D002680368B40E396E3A6A3B6A3C6A37
:100AC00000C034F001C035F002C036F003C037F08A
:100AD00086EC32F030C000F031C001F032C002F0DC
:100AE00033C003F0460E396E0C0E3A6E3B6A3C6A18
:100AF00000C034F001C035F002C036F003C037F05A
:100B0000DEEC20F034C000F035C001F036C002F059
:100B100037C003F000C0E6FF01C0E6FF02C0E6FFF9
:100B200003C0E6FF7EEC24F0046E060EE15E045086
:100B30000101755105E03F0EE66ECEEC22F0E55264
:100B4000410EE66E530EE66EAEEC22F0E552E55233
:100B5000E66AE66A0001800E8A1509E089C000F0A5
:100B60008AC001F0006C011E000E012204D089C071
:100B700000F08AC001F0026A036A01AE02D0026886
:100B8000036800C0E6FF01C0E6FF02C0E6FF03C045
:100B9000E6FF7EEC24F0046E060EE15E04500001D8
:100BA000800E8A1506E14E0EE66ECEEC22F0E5527E
:100BB00005D0530EE66ECEEC22F0E552410EE66E05
:100BC000530EE66EAEEC22F0E552E552E66AE66AB6
:100BD0000001800E8C1509E08BC000F08CC001F084
:100BE000006C011E000E012204D08BC000F08CC0EE
:100BF00001F0026A036A01AE02D00268036800C015
:100C0000E6FF01C0E6FF02C0E6FF03C0E6FF7EECA0
:100C100024F0046E060EE15E04500001800E8C1577
:100C200006E1450EE66ECEEC22F0E55205D0570EF9
:100C3000E66ECEEC22F0E552390EE66E530EE66E0D
:100C4000AEEC22F0E552E552200EE66EE66A29C1CE
:100C500000F02AC101F0026A036A01AE02D0026804
:100C6000036800C0E6FF01C0E6FF02C0E6FF03C064
:100C7000E6FF7EEC24F0046E060EE15E0450340EB6
:100C8000E66E530EE66EAEEC22F0E552E552200E13
:100C9000E66EE66A2BC100F02CC101F0026A036A1D
:100CA00001AE02D00268036800C0E6FF01C0E6FFA3
:100CB00002C0E6FF03C0E6FF7EEC24F0046E060EE1
:100CC000E15E04503DEC23F001017F6BCAD6E55292
:100CD000E552E7CFD9FF1200D9CFE6FFE1CFD9FF28
:100CE000040EE126200EE66E530EE66EAEEC22F008
:100CF000E552E552E66A020EE66E46EC32F0E55247
:100D0000E552F3CF00F0F4CF01F0026A01BE0268B1
:100D1000310E3A6E3B6A3C6A00C035F001C036F0D5
:100D200002C037F05DEC21F032C000F033C001F0BA
:100D300034C002F0050E0026000E012202220A0E27
:100D40003A6E3B6A3C6A00C035F001C036F002C022
:100D500037F0B1EC20F035C000F036C001F037C0FC
:100D600002F0036A02BE036800C0DFFF010E01C08B
:100D7000DBFF020E02C0DBFF030E03C0DBFF180E19
:100D8000E66E530EE66EAEEC22F0E552E552560EDC
:100D9000E66E030EE66ED9CFE9FFDACFEAFFEECFBB
:100DA000E6FFEECFE6FFEECFE6FFEFCFE6FF7EEC0D
:100DB00024F0006E060EE15E00503DEC23F0E66A82
:100DC000010EE66E46EC32F0E552E552F3CF00F04C
:100DD000F4CF01F0026A01BE0268310E3A6E3B6A3E
:100DE0003C6A00C035F001C036F002C037F05DEC5F
:100DF00021F032C000F033C001F034C002F0050E23
:100E00000026000E012202220A0E3A6E3B6A3C6A5C
:100E100000C035F001C036F002C037F0B1EC20F070
:100E200035C000F036C001F037C002F0036A02BEE0
:100E3000036800C0DFFF010E01C0DBFF020E02C02D
:100E4000DBFF030E03C0DBFF100EE66E530EE66EF3
:100E5000AEEC22F0E552E552560EE66E030EE66E5B
:100E6000D9CFE9FFDACFEAFFEECFE6FFEECFE6FF1C
:100E7000EECFE6FFEFCFE6FF7EEC24F0006E060E2D
:100E8000E15E00503DEC23F0E66A040EE66E46ECAF
:100E900032F0E552E552F3CF00F0F4CF01F0026AF0
:100EA00001BE0268310E3A6E3B6A3C6A00C035F002
:100EB00001C036F002C037F05DEC21F032C000F026
:100EC00033C001F034C002F0050E0026000E0122EE
:100ED00002220A0E3A6E3B6A3C6A00C035F001C03D
:100EE00036F002C037F0B1EC20F035C000F036C06B
:100EF00001F037C002F0036A02BE036800C0DFFFE2
:100F0000010E01C0DBFF020E02C0DBFF030E03C0B7
:100F1000DBFF080EE66E530EE66EAEEC22F0E552F5
:100F2000E552560EE66E030EE66ED9CFE9FFDACF34
:100F3000EAFFEECFE6FFEECFE6FFEECFE6FFEFCF24
:100F4000E6FF7EEC24F0006E060EE15E00503DEC04
:100F500023F03DEC23F0E66AE66A46EC32F0E55217
:100F6000E552F3CF00F0F4CF01F0026A01BE02684F
:100F70002E0E3A6E3B6A3C6A00C035F001C036F076
:100F800002C037F05DEC21F032C000F033C001F058
:100F900034C002F0090E0026000E01220222110EBA
:100FA0003A6E3B6A3C6A00C035F001C036F002C0C0
:100FB00037F0B1EC20F035C000F036C001F037C09A
:100FC00002F0036A02BE036800C0DFFF010E01C029
:100FD000DBFF020E02C0DBFF030E03C0DBFF010ECE
:100FE000E66E530EE66EAEEC22F0E552E552560E7A
:100FF000E66E020EE66ED9CFE9FFDACFEAFFEECF5A
:10100000E6FFEECFE6FFEECFE6FFEFCFE6FF7EECAA
:1010100024F0006E060EE15E0050D9CFE9FFDACF72
:10102000EAFFD890030EEB50000A08E6840EEE5C4F
:10103000030EEE58000EEE58000EEE5809E2E90ECF
:10104000E66E520EE66EAEEC22F0E552E5521AD094
:10105000D9CFE9FFDACFEAFFD890030EEB50000AB0
:1010600008E6B60EEE5C030EEE58000EEE58000ECB
:10107000EE5808E2D60EE66E520EE66EAEEC22F0A8
:10108000E552E5523DEC23F0E66A030EE66E46ECCF
:1010900032F0E552E552F3CF00F0F4CF01F0026AEE
:1010A00001BE0268310E3A6E3B6A3C6A00C035F000
:1010B00001C036F002C037F05DEC21F032C000F024
:1010C00033C001F034C002F0050E0026000E0122EC
:1010D00002220A0E3A6E3B6A3C6A00C035F001C03B
:1010E00036F002C037F0B1EC20F035C000F036C069
:1010F00001F037C002F0036A02BE036800C0DFFFE0
:10110000010E01C0DBFF020E02C0DBFF030E03C0B5
:10111000DBFFCE0EE66E520EE66EAEEC22F0E5522E
:10112000E552560EE66E030EE66ED9CFE9FFDACF32
:10113000EAFFEECFE6FFEECFE6FFEECFE6FFEFCF22
:10114000E6FF7EEC24F0006E060EE15E00503DEC02
:1011500023F0040EE15C02E2E16AE552E16EE55241
:10116000E7CFD9FF12001200D9CFE6FFE1CFD9FFB8
:10117000E652F29ED1EC0AF07AEC32F0680EE66E9E
:10118000E66A3C0EE66E01EC32F0E552E552E552BD
:1011900048EC2BF0F29ADF6ADFCF00F0200EE76E0A
:1011A0000018E8AE02D0E73402D0E750005C0CE251
:1011B000DFCFE9FFEA6AE9BEEA686E0EE926010EB2
:1011C000EA22EF6ADF2AE8D701018E6B8F6BE0EC31
:1011D0000AF00101010E016F39EC0BF02E0EE66EE4
:1011E0006AEC11F0E552800EE66E6AEC11F0E55201
:1011F000020EE66E5DEC11F0E552510EE66E5DEC0E
:1012000011F0E552F28CF28E44EC16F0640EE66EAC
:10121000E66A71EC09F0E552E55270EC2FF001013D
:10122000396B3A6B3B6B73510CE0200EE66E5DEC54
:1012300011F0E55217EC2DF0200EE66E6AEC11F07D
:10124000E5520BEC19F0230EE66EE66A71EC09F03C
:10125000E552E552CBEC16F0320EE66EE66A71EC22
:1012600009F0E552E552640EE66EE66A71EC09F0AB
:10127000E552E552010EE66E54EC1BF0E552010119
:101280006E5103E08050100B13E1040EE66E5DEC2E
:1012900011F0E552080EE66E6AEC11F0E55201011C
:1012A000735105E0200EE66E5DEC11F0E5520FD0B3
:1012B000080EE66E5DEC11F0E552040EE66E6AEC87
:1012C00011F0E552200EE66E6AEC11F0E55239ECB1
:1012D0000BF0BCEC1BF0D3D7E552E552E7CFD9FFBA
:0212E0001200FA
:0E12E200D9CFE6FFE1CFD9FF030EE126F2508F
:1012F000200B01E0010EE76E020EE7CFDBFFF29A52
:10130000FD0EDBCFDEFFDBCFDDFFD9CFE9FFDACF8C
:10131000EAFFEE50ED1008E0F2A4FED7F294DF06EB
:10132000010E01E2DB06F1D7020EDB50E8B0F28AD3
:10133000E8A0F29A030EE15C02E2E16AE552E16E96
:10134000E552E7CFD9FF1200D9CFE6FFE1CFD9FFB1
:10135000050EE126F250200B01E0010EE76E040EAF
:10136000E7CFDBFFF29ADE6ADD6ADECF00F0DDCF89
:1013700001F0FD0EDBCF02F0FE0EDBCF03F00A0E14
:101380000302F3CF03F00202F3CF02F0F45003267E
:1013900001500318E8AE02D0033404D00250005CC0
:1013A0000350015837E2080EF36E020EF3CFDBFF55
:1013B000030EDB6AD950020FE96EDACFEAFFEE5076
:1013C000ED1009E0F2A4FED7F294020EDB06030E44
:1013D00001E2DB06EFD7B3EC08F09DAA0DD00101C6
:1013E000A3510101A45D07E0040EDB50E8B0F28ACE
:1013F000E8A0F29A15D009D09EAA07D0040EDB50BF
:10140000E8B0F28AE8A0F29A0BD0DF2A010E01E3DD
:10141000DB2AABD7040EDB50E8B0F28AE8A0F29AE0
:10142000050EE15C02E2E16AE552E16EE552E7CFCA
:10143000D9FF1200D9CFE6FFE1CFD9FFFD0EDBCFF8
:1014400002F0FE0EDBCF03F00001800E03141BE060
:10145000FD0EDBCF04F0FE0EDBCF05F0046C051EA5
:10146000000E0522FC0EDB5004C000F005C001F0A8
:1014700005E0D89001320032E804FBE1006C011E67
:10148000000E012212D0FD0EDBCF06F0FE0EDBCFE8
:1014900007F0FC0EDB5006C000F007C001F005E0CD
:1014A000D89001320032E804FBE100C0F3FF01C034
:1014B000F4FF00D0E552E7CFD9FF1200D9CFE6FF05
:1014C000E1CFD9FFD950FC0FE96EFF0EDA20EA6EAA
:1014D000020ED890EB50000A06E6000EEE5C000EFD
:1014E000EE58000EEF583CE2FC0EDBCF03F0FD0E91
:1014F000DBCF04F0FE0EDBCF05F03A683B683C68BA
:1015000003C035F004C036F005C037F05DEC21F0C3
:1015100032C003F033C004F034C005F0FB0EDB50E2
:101520001F0B03C000F004C001F005C002F006E08C
:10153000D890023201320032E806FAE13A683B689C
:101540003C6800C035F001C036F002C037F05DECF9
:1015500021F032C000F033C001F034C002F016D0E8
:10156000D950FC0FE96EFF0EDA20EA6EFB0EDB505D
:101570001F0BEECF00F0EECF01F0EECF02F006E051
:10158000D890023201320032E806FAE100C035F0AC
:1015900001C036F002C037F000D0E552E7CFD9FFE6
:1015A00012003F0E926E020EC16EC00E816E400E92
:1015B000936E600E826E840E946EC78CF19E120044
:1015C000D9CFE6FFE1CFD9FFE652DF6ADFCF00F0E7
:1015D000040EE76E0018E8AE02D0E73402D0E75000
:1015E000005C11E2DFCFE9FFEA6AE9BEEA68D89061
:1015F000E936EA36580EE926010EEA22010EEE6EB1
:10160000ED6ADF2AE3D70101770E566F56C157F115
:1016100001016F6B000E0101466F476B01016C6F9A
:101620006D6B0101686F696B0101666F676B01018A
:10163000376B386B01014C6B01019E6B9F6BA06B8C
:10164000E552E552E7CFD9FF1200D9CFE6FFE1CF4F
:10165000D9FFE652FE0EDB50A96EA69EA680A850CA
:10166000DF6EA66ADF5000D0E552E552E7CFD9FF22
:101670001200D9CFE6FFE1CFD9FF050EE126010127
:101680000151006E016A013404E200507708000E37
:10169000015408E2200EF36E030EF3CFDBFF040EBD
:1016A000DB6A04D0030EDB6A040EDB6A440EDE6ED6
:1016B000020EDD6EDECF00F0DDCF01F05F0ED880D0
:1016C0000054020E01541AE3030EDBCF00F0DB2AB4
:1016D000040EDBCF01F001E3DB2A0050E66EB5DF3C
:1016E000E552E66EDECFE9FFDDCFEAFFE552E750D7
:1016F000EF6EDF2A010E01E3DB2ADCD755C2A1F130
:10170000020E0201E76E5419E8AE02D0E73402D0AF
:10171000E750545D02E2020E0ED0140EE76E54192B
:10172000E8AE02D0543503D0E750D880545502E2D9
:10173000140E01D05451546F050EE15C02E2E16ACF
:10174000E552E16EE552E7CFD9FF1200D9CFE6FFAF
:10175000E1CFD9FF020EE126FE0EDBCFE6FF75DFFB
:10176000E552DF6EFD0EDB50DF5C1DE0FD0EDB5051
:10177000A86EFE0EDB50A96EA69EA684F250800BCA
:1017800001E0010EE76E010EE7CFDBFFF29E550E82
:10179000A76EAA0EA76EA682A6B2FED7010EDB50D8
:1017A00001E0F28EA694020EE15C02E2E16AE552EB
:1017B000E16EE552E7CFD9FF1200D9CFE6FFE1CFC6
:1017C000D9FF050EE126FE0EDB0405E1030EDB6A00
:1017D000040EDB6A07D0200EF36E030EF3CFDBFF9F
:1017E000040EDB6A440EDE6E020EDD6EDECF00F00C
:1017F000DDCF01F05F0ED8800054020E015419E3D2
:10180000DFCFE9FFDF2A010EDBCFEAFF01E3DB2AAE
:10181000EF50E66E030EDBCF00F0DB2A040EDBCFC9
:1018200001F001E3DB2A0050E66E90DFE552E5525D
:10183000DDD7050EE15C02E2E16AE552E16EE552B8
:10184000E7CFD9FF1200D9CFE6FFE1CFD9FF020ED3
:10185000E1260FDF020EE15C02E2E16AE552E16E91
:10186000E552E7CFD9FF1200D9CFE6FFE1CFD9FF8C
:10187000FD0EDBCF00F0FE0EDBCF01F00001800E8D
:1018800001140BE0D950FD0FE96EFF0EDA20EA6E6D
:101890008C0EEE26180EED22EBD7FD0EDBCF00F0FE
:1018A000FE0EDBCF01F0D890015004E68C0E005CF8
:1018B000180E01580BE3D950FD0FE96EFF0EDA2028
:1018C000EA6E8C0EEE5E180EED5AE7D7FD0EDBCFFA
:1018D00000F0FE0EDBCF01F000C0F3FF01C0F4FF0B
:1018E00000D0E552E7CFD9FF1200D9CFE6FFE1CF14
:1018F000D9FF0A0EE126FD0EDBCF00F0FE0EDBCF96
:1019000001F0040ED89001320032E804FBE10050EF
:10191000DF6E0F0EE76EFD0EDBCF00F0FE0EDBCFAD
:1019200001F0E7500016016A010E00C0DBFF016AFA
:10193000DF34FE0B0136006EFB0EDB500024E96E37
:10194000FC0EDB500120EA6E040EEECFDBFF050E2D
:10195000EDCFDBFFDF2A016ADF34FE0B0136006EBC
:10196000FB0EDB500024E96EFC0EDB500120EA6E1A
:10197000060EEECFDBFF070EEDCFDBFF010EDB50D7
:10198000046E056A060EDBCF02F0070EDBCF03F014
:10199000040EDB50025C006E050EDB500358016E36
:1019A00000C036F001C037F004C03BF005C03CF089
:1019B00012EC21F0020E34C0DBFF030E35C0DBFF5A
:1019C000040EDBCF02F0050EDBCF03F002C0E6FF12
:1019D00003C0E6FF040EE66E020EDBCFE6FF030E49
:1019E000DBCFE6FF27DDE552E552E552E552E7CFD2
:1019F00003F0E552E7CF02F00250F324006E0350EB
:101A0000F420016E080E00C0DBFF090E01C0DBFFF1
:101A1000080EDBCF00F0090EDBCF01F000C0F3FFB2
:101A200001C0F4FF0A0EE15C03E200D0E16AE55276
:101A3000E16EE552E7CFD9FF1200D9CFE6FFE1CF43
:101A4000D9FF030EE126FD0EDBCF00F0FE0EDBCF4B
:101A500001F00001800E01140BE0D950FD0FE96E7A
:101A6000FF0EDA20EA6E8C0EEE26180EED22EBD772
:101A7000FD0EDBCF00F0FE0EDBCF01F0D890015061
:101A800004E68C0E005C180E01580BE3D950FD0FD4
:101A9000E96EFF0EDA20EA6E8C0EEE5E180EED5A3D
:101AA000E7D7FD0EDBCF00F0FE0EDBCF01F0D890C4
:101AB000015004E6460E005C0C0E015802E2000ED6
:101AC00001D0010EE76E020EE7CFDBFFDB500AE02C
:101AD000D950FD0FE96EFF0EDA20EA6E460EEE5E7B
:101AE0000C0EED5A000EE66E020EE66EFD0EDBCF1A
:101AF00000F0FE0EDBCF01F0026A01BE026801C0F9
:101B000002F000C001F000C001F0006A230E0026C0
:101B1000060E0122000E0222460E3A6E0C0E3B6E9D
:101B20003C6A00C035F001C036F002C037F0B1ECBD
:101B300020F035C000F036C001F037C002F000C020
:101B4000E6FF01C0E6FFD1DEE552E552E552E5527F
:101B5000F3CFDEFFF4CFDDFF020EDB500CE0366882
:101B60003768DECF3BF0DDCF3CF012EC21F034C023
:101B7000DEFF35C0DDFFDECF00F0DDCF01F000C0BD
:101B8000F3FF01C0F4FF030EE15C03E200D0E16A61
:101B9000E552E16EE552E7CFD9FF1200D9CFE6FF5B
:101BA000E1CFD9FFFD0EDBCF00F0FE0EDBCF01F061
:101BB000230E0026060E012200C0E6FF01C0E6FF4C
:101BC0003CDFE552E55200D0E552E7CFD9FF1200E5
:101BD000D9CFE6FFE1CFD9FF0E0EE126FD0EDBCF18
:101BE00004F0FE0EDBCF05F00001800E05140BE0C3
:101BF000FD0EDBCF00F0FE0EDBCF01F0006C011E0E
:101C0000000E012206D0FD0EDBCF00F0FE0EDBCF72
:101C100001F0026A036A01AE02D002680368040E92
:101C200000C0DBFF050E01C0DBFF060E02C0DBFFBC
:101C3000070E03C0DBFFFB0EDBCF04F0FC0EDBCF97
:101C400005F0800E05140BE0FB0EDBCF00F0FC0E60
:101C5000DBCF01F0006C011E000E012206D0FB0E4E
:101C6000DBCF00F0FC0EDBCF01F0026A036A01AEAD
:101C700002D00268036800C0DFFF010E01C0DBFF75
:101C8000020E02C0DBFF030E03C0DBFFD950FB0FC7
:101C9000E96EFF0EDA20EA6EEE50ED101FE1FD0E48
:101CA000DBCF00F0FE0EDBCF01F0800E01140BE065
:101CB000DD0EF36E0C0EF3CFDBFFF90EF36E0D0E9F
:101CC000F3CFDBFF0AD0230EF36E0C0EF3CFDBFF56
:101CD000060EF36E0D0EF3CFDBFF32D1D950FD0FA0
:101CE000E96EFF0EDA20EA6EEE50ED1018E1FB0E01
:101CF000DBCF00F0FC0EDBCF01F0800E01140AE018
:101D0000460EF36E0C0EF3CFDBFFF36E0D0EF3CF2A
:101D1000DBFF04D00C0EDB6A0D0EDB6A11D1040E62
:101D2000DBCF00F0050EDBCF01F0060EDBCF02F0BB
:101D3000070EDBCF03F0050ED890003601360236D1
:101D40000336E806F9E100C034F001C035F002C006
:101D500036F003C037F0DFCF39F0010EDBCF3AF0B9
:101D6000020EDBCF3BF0030EDBCF3CF0DEEC20F0CD
:101D7000080E34C0DBFF090E35C0DBFF0A0E36C08B
:101D8000DBFF0B0E37C0DBFFD950080FE96EDACF4F
:101D9000EAFFD890030EEB50000A08E6000EEE5C56
:101DA000010EEE58000EEE58000EEE5816E2220E0E
:101DB000E66E020EE66E080EDBCFE6FF090EDBCF05
:101DC000E6FF93DDE552E552E552E5520C0EF3CF06
:101DD000DBFF0D0EF4CFDBFF61D0D950080FE96EA9
:101DE000DACFEAFFEE52EE06000EEE5AEE5A42C28B
:101DF00000F043C201F0026A036A01AE02D0026839
:101E00000368080EDBCF04F0090EDBCF05F00A0EE5
:101E1000DBCF06F00B0EDBCF07F0020ED8900732B7
:101E2000063205320432E806F9E104500026055076
:101E3000012206500222075003220C0E00C0DBFFD5
:101E40000D0E01C0DBFF0C0EDBCF02F00D0EDBCF61
:101E500003F00001800E031403E0006A016A18D049
:101E60000C0EDBCF04F00D0EDBCF05F0053404E2E1
:101E700004502308060E055405E2230E006E060EDC
:101E8000016E06D00C0EDBCF00F00D0EDBCF01F0A3
:101E90000C0E00C0DBFF0D0E01C0DBFFFB0EDBCF25
:101EA00000F0FC0EDBCF01F00001800E01142EE0EB
:101EB000FD0EDBCF00F0FE0EDBCF01F0013404E2BB
:101EC00000500008000E015411E20C0EDBCF00F0B0
:101ED0000D0EDBCF01F0460ED88000560C0E0156D9
:101EE00000C0DBFF0D0E01C0DBFF0FD00C0EDBCFFF
:101EF00000F00D0EDBCF01F0460E00260C0E012285
:101F000000C0DBFF0D0E01C0DBFF1AD0FD0EDBCFE2
:101F100000F0FE0EDBCF01F0800E011411E00C0E7C
:101F2000DBCF00F00D0EDBCF01F08C0ED880005619
:101F3000180E01560C0E00C0DBFF0D0E01C0DBFFBA
:101F40000C0EDBCF00F00D0EDBCF01F000C0F3FF75
:101F500001C0F4FF0E0EE15C03E200D0E16AE5523D
:101F6000E16EE552E7CFD9FF1200D9CFE6FFE1CF0E
:101F7000D9FF020EE126E66AE66A46EC32F0E55247
:101F8000E552F3CF00F0F4CF01F0030ED890013208
:101F90000032E804FBE100C0DEFF01C0DDFF010EFE
:101FA000E66EA1C102F0036A02BE0368DE5002249D
:101FB000006EDD500320016E010E0026000E01228E
:101FC00000C0E6FF01C0E6FF1AEC0AF0E552E55258
:101FD000E552F3CFA1F1A1C100F0016A00BE016892
:101FE00055C202F0036A02BE036801500318E8AE4E
:101FF00002D0033404D00250005C0350015802E3C5
:10200000000E01D0010E010B0101726F725124E02C
:102010009AC100F09BC101F09CC102F09DC103F088
:10202000400E0016016A026A036A00500110021095
:10203000031009E1800EE66E40D9E552040EE66E0B
:102040003CD9E55208D0800EE66E44D9E552040E24
:10205000E66E40D9E5522ED0805124E09AC100F0BE
:102060009BC101F09CC102F09DC103F0800E0016DF
:10207000016A026A036A005001100210031009E1AC
:10208000800EE66E1AD9E552040EE66E16D9E552B8
:1020900008D0800EE66E1ED9E552040EE66E1AD9FF
:1020A000E55208D0800EE66E15D9E552040EE66EB4
:1020B00011D9E552020EE15C02E2E16AE552E16EFD
:1020C000E552E7CFD9FF120001019607000E975B9A
:1020D000965197113DE127C100F028C101F0FF0E94
:1020E000D8800056000E0156030ED89001320032FF
:1020F000E804FBE1050E01010024966F000E0120AB
:10210000976F0101815105E0510EE66ED6D8E55278
:102110001FD001014DA909D0510EE66EDBD8E55262
:10212000010EE66ECAD8E55213D04DA109D0510E6A
:10213000E66ED0D8E552400EE66EBFD8E55208D024
:10214000510EE66EC7D8E552100EE66EB6D8E552CF
:10215000120002015351E840E8403F0B010B4DE0F3
:102160002E0EE66EB7D8E55214C100F0016A000EDB
:10217000E76E0018E8AE02D0003403D0E750D880F4
:10218000005405E2040EE66E98D8E55211D014C151
:1021900000F0016AFF0EE76E0018E8AE02D0E734E7
:1021A00002D0E750005C04E2080EE66E86D8E552E5
:1021B00016C100F0016A000EE76E0018E8AE02D00A
:1021C000003403D0E750D880005405E2200EE66EBC
:1021D00074D8E55211D016C100F0016AFF0EE76E07
:1021E0000018E8AE02D0E73402D0E750005C04E209
:1021F000020EE66E62D8E5522AD05351E00BE83861
:10220000E840010B24E02E0EE66E64D8E552010191
:10221000513504E250510008000E515505E2080EF8
:10222000E66E4BD8E55207D0800E511504E0040E3F
:10223000E66E43D8E55201014F3504E24E51F008F5
:10224000000E4F5504E2200EE66E37D8E55212001C
:10225000D9CFE6FFE1CFD9FF020EE1264DC1DFFF66
:10226000828A94988296DE52080EDD6E010EDB5053
:1022700016E0DFAE02D0828801D08298DF9EDF4672
:10228000010EE66E15EC34F0E5528286010EE66E24
:1022900015EC34F0E5528296010EDB06E7D7828218
:1022A000829282869488020EE15C02E2E16AE55243
:1022B000E16EE552E7CFD9FF1200D9CFE6FFE1CFBB
:1022C000D9FFFE0EDB5001014D13C2DFE552E7CF0F
:1022D000D9FF1200D9CFE6FFE1CFD9FFFE0EDB1CFC
:1022E00001014D17B5DFE552E7CFD9FF120012000B
:1022F000D9CFE6FFE1CFD9FF030EE1260001F0516F
:1023000005E0010EDB6A020EDB6A2FD0010EDB6AEC
:10231000020EDB6AFE0EDB50DF6EFD0EDB50D88056
:10232000DF5423E3D950010FE96EDACFEAFF0A0E3A
:10233000EC02F3CFEDFFEF02F3CFEEFFF450ED260A
:10234000DF50EA6A9B0FE96E000EEA22EF50D00FD1
:10235000006E016AD950010FE96EDACFEAFF005032
:10236000EE260150ED22DF2AD8D7010EDBCF00F098
:10237000020EDBCF01F000C0F3FF01C0F4FF030E3B
:10238000E15C03E200D0E16AE552E16EE552E7CF9D
:10239000D9FF1200D9CFE6FFE1CFD9FF0D0EE1261C
:1023A0000001F05109E0090EDB6A0A0EDB6A0B0E30
:1023B000DB6A0C0EDB6A68D1FE0EDB50EA6A9B0F0B
:1023C000E96E000EEA22EF502D0805E1060EDB6AE9
:1023D000FE0EDB2A05D0010EF36E060EF3CFDBFFF7
:1023E000FE0EDB50E66ED950040FE96EDACFEAFF3D
:1023F000E552E750EE6EED6A040EDBCFE9FF050E05
:10240000DBCFEAFF9B0EE926000EEA22EF502E08F2
:102410001BE0040EDBCF00F0050EDBCF01F0FD0E5C
:10242000DB50026E036A03500118E8AE02D001349B
:1024300004D00050025C0150035806E3040EDB2A6E
:10244000050E01E3DB2AD8D7040EDBCF00F0050E22
:10245000DBCF01F00006000E015A0050E66EFE0EC2
:10246000DBCFE6FF45DFE552E552070EF3CFDBFF9A
:10247000080EF4CFDBFFFD0EDBCFE6FF040EDBCF53
:1024800002F0050EDBCF03F0010E0224E66E30DF12
:10249000E552E552F3CF00F0F4CF01F000C036F082
:1024A00001C037F007EC1FF0090E35C0DBFF0A0E44
:1024B00036C0DBFF0B0E37C0DBFF0C0E38C0DBFF76
:1024C000FD0EDB50026E036A040EDB50025C006EF0
:1024D000050EDB500358016E020E00C0DBFF030E39
:1024E00001C0DBFF010EDE6EDD6ADECF00F0DDCF66
:1024F00001F0020EDBCF02F0030EDBCF03F003503E
:102500000118E8AE02D0013404D00050025C015042
:1025100003582AE3006A016A200E026E410E036E20
:10252000D950090FE96EDACFEAFFEECF35F0EECFE2
:1025300036F0EECF37F0EFCF38F000C03AF001C000
:102540003BF002C03CF003C03DF0B1EC1FF038C0DE
:10255000EDFF37C0EDFF36C0EDFF35C0EFFFDF2ADE
:10256000010E01E3DB2AC1D7060EDB503BE0070E6C
:10257000DBCF36F0080EDBCF37F007EC1FF035C0AD
:1025800000F036C001F037C002F038C003F0090E89
:10259000DBCF04F00A0EDBCF05F00B0EDBCF06F02D
:1025A0000C0EDBCF07F004C03AF005C03BF006C0CC
:1025B0003CF007C03DF000C035F001C036F002C06D
:1025C00037F003C038F01BEC1FF0090E35C0DBFFFD
:1025D0000A0E36C0DBFF0B0E37C0DBFF0C0E38C017
:1025E000DBFF52D0070EDBCF36F0080EDBCF37F023
:1025F00007EC1FF035C004F036C005F037C006F018
:1026000038C007F0090EDBCF08F00A0EDBCF09F067
:102610000B0EDBCF0AF00C0EDBCF0BF008C03AF04C
:1026200009C03BF00AC03CF00BC03DF004C035F0DF
:1026300005C036F006C037F007C038F01BEC1FF0BD
:1026400035C000F036C001F037C002F038C003F0EA
:102650003A6A3B6A800E3C6EBF0E3D6E00C035F09C
:1026600001C036F002C037F003C038F004EC20F0AF
:10267000090E35C0DBFF0A0E36C0DBFF0B0E37C07C
:10268000DBFF0C0E38C0DBFF090EDBCF00F00A0EBB
:10269000DBCF01F00B0EDBCF02F00C0EDBCF03F033
:1026A00000C034F001C035F002C036F003C037F08E
:1026B0000D0EE15C03E200D0E16AE552E16EE55205
:1026C000E7CFD9FF1200D9CFE6FFE1CFD9FF0C0E3B
:1026D000E1260001F05109E0080EDB6A090EDB6A11
:1026E0000A0EDB6A0B0EDB6A83D0FD0EDB50F90F9E
:1026F000E66EFE0EDBCFE6FFFBDDE552E552F3CFE3
:1027000000F0F4CF01F000C036F001C037F007EC64
:102710001FF035C0DEFF36C0DEFF37C0DEFF38C039
:10272000DDFFDD52DD52FD0EDBCFE6FFFD0EDB509F
:10273000FA0FE66E2FDEE552E552040E34C0DBFFE1
:10274000050E35C0DBFF060E36C0DBFF070E37C0B7
:10275000DBFFD9CFE9FFDACFEAFFEECF00F0EECF13
:1027600001F0EECF02F0EFCF03F0040EDBCF08F064
:10277000050EDBCF09F0060EDBCF0AF0070EDBCF2C
:102780000BF0890E3A6E880E3B6E3C6E3C0E3D6E31
:1027900008C035F009C036F00AC037F00BC038F079
:1027A00004EC20F035C004F036C005F037C006F068
:1027B00038C007F004C03AF005C03BF006C03CF05A
:1027C00007C03DF000C035F001C036F002C037F060
:1027D00003C038F01BEC1FF0080E35C0DBFF090EFC
:1027E00036C0DBFF0A0E37C0DBFF0B0E38C0DBFF45
:1027F000080EDBCF00F0090EDBCF01F00A0EDBCFB5
:1028000002F00B0EDBCF03F000C034F001C035F056
:1028100002C036F003C037F00C0EE15C03E200D0DA
:10282000E16AE552E16EE552E7CFD9FF1200EBC055
:10283000EEF00001EE05EF6FEB51EA6A9B0FE96ED7
:10284000000EEA22EF502C0822E0EB51EA6A9B0FBF
:10285000E96E000EEA22EF502A0819E0EC51EB5D18
:1028600014E2EB51EA6A9B0FE96E000EEA22EF5088
:102870002C080BE0EB51EA6A9B0FE96E000EEA228E
:10288000EF502A0802E0EB2BE9D7EB05EF6FEB2BBB
:10289000EE51EF5D02E3000E01D0010EF06F120069
:1028A000D9CFE6FFE1CFD9FF090EE126C0DFBFDFB8
:1028B000BEDFEFC0E6FFEEC0E6FF05DFE552E55202
:1028C00034C000F035C001F036C002F037C003F06C
:1028D000C60E3A6E6B0E3B6ED90E3C6E470E3D6EC9
:1028E00000C035F001C036F002C037F003C038F048
:1028F00004EC20F0D5EC21F034C0DEFF35C0DEFF63
:1029000036C0DEFF37C0DDFFDD52DD5290DF000153
:10291000EE51EA6A9B0FE96E000EEA22EF5053086F
:102920001CE1D9CFE9FFDACFEAFFEECF34F0EECFEA
:1029300035F0EECF36F0EFCF37F039683A683B68C4
:102940003C6886EC32F030C0DEFF31C0DEFF32C0C2
:10295000DEFF33C0DDFFDD52DD5269DFEFC0E6FF91
:10296000EEC0E6FFB0DEE552E55234C000F035C0FF
:1029700001F036C002F037C003F0C60E3A6E6B0E9F
:102980003B6ED90E3C6E470E3D6E00C035F001C067
:1029900036F002C037F003C038F004EC20F0D5EC7C
:1029A00021F0040E34C0DBFF050E35C0DBFF060E40
:1029B00036C0DBFF070E37C0DBFF39DF0001EE5109
:1029C000EA6A9B0FE96E000EEA22EF5057081EE1FB
:1029D000040EDBCF34F0050EDBCF35F0060EDBCF77
:1029E00036F0070EDBCF37F039683A683B683C6851
:1029F00086EC32F0040E30C0DBFF050E31C0DBFF89
:102A0000060E32C0DBFF070E33C0DBFF10DFEFC066
:102A1000E6FFEEC0E6FF6CDCE552E552080EF3CFB0
:102A2000DBFF05DFEFC0E6FFEEC0E6FF61DCE5524D
:102A3000E552F3CFFFF0FBDEFADEEFC0E6FFEEC0BB
:102A4000E6FFA8DCE552E55234C000F035C001F0E5
:102A500036C002F037C003F03A6A3B6A3C6A3F0E68
:102A60003D6E00C035F001C036F002C037F003C043
:102A700038F01BEC1FF0A6EC21F036C093F037C005
:102A800094F0080EDB50000802E3000E01D0010EA6
:102A900001017F6F0001FE5120E001017F511DE027
:102AA000DFCF81F0010EDBCF82F0020EDBCF83F0AF
:102AB000030EDBCF84F0040EDBCF85F0050EDBCFF9
:102AC00086F0060EDBCF87F0070EDBCF88F093C0D1
:102AD00095F094C096F00001FE6BD9CFE9FFDACFF4
:102AE000EAFF00018151EE5C006E8251EE58016EEA
:102AF0008351EE58026E8451EE58036E00C089F087
:102B000001C08AF0D950040FE96EDACFEAFF85518F
:102B1000EE5C006E8651EE58016E8751EE58026EE3
:102B20008851EE58036E00C08BF001C08CF09551B7
:102B3000935F9651945B090EE15C02E2E16AE55213
:102B4000E16EE552E7CFD9FF12000101A451010166
:102B5000A35D01E198D00001995101E184D0010AFF
:102B600067E0020A2EE0010A01E08DD08EEC23F02E
:102B700000019A6F9A510101A21B0001EC51EA6A0F
:102B80009B0FE96E000EEA229AC0EFFFEC2B2A0E93
:102B90009A5D03E0500EEC5D05E1F36BF16B030E03
:102BA000996F0ED0240E9A5D09E1EC6BEB6BED6B27
:102BB0000101A26B0001010E996F02D0A2C1F2F0D7
:102BC00062D08EEC23F000019A6F020EF35D27E2D3
:102BD000410E9A5D13E3100EF103F350006E016A8B
:102BE0000A0E9A25026E036A000E0322410E025E4F
:102BF000000E035A00500224F16F0FD0100EF103A3
:102C0000F350006E016A9A51026E036A300E025E42
:102C1000000E035A00500224F16FF32B08D0F1513B
:102C2000F25D02E0000E01D0010E806F996B2BD097
:102C30008EEC23F000019A6F9A510101A21B000152
:102C4000ED51EA6A600FE96E020EEA22EF509A5DDA
:102C500008E1040EED5D03E1020E996F01D0ED2B4A
:102C600001D0996B10D08EEC23F000019A6F240EE6
:102C70009A5D08E1EC6BEB6BED6B0101A26B00015F
:102C8000010E996F00D01200D9CFE6FFE1CFD9FF36
:102C9000E652000E0001896F8A6B8B6F8C6B01010D
:102CA0007E6B0001806B0001010EFE6F01017F6BE6
:102CB0000101546B556B0001996BEC6BECC0EBF0B0
:102CC000200E9A6FE552E552E7CFD9FF12000001BE
:102CD000805114E0020EE66E5DEC11F0E552040E38
:102CE000E66E6AEC11F0E5520001806BD9DD01015E
:102CF0007F5103E00101546B556B31D09AC100F054
:102D00009BC101F09CC102F09DC103F00F0E0016A3
:102D1000016A026A036A00500110021003101FE1E9
:102D200054C100F055C101F0026A036A01AE02D03D
:102D3000026803680334000E031809E6D880140EF5
:102D40000054000E0154000E0254000E035403E21E
:102D500001017F6B04D00101542B000E5523020E9C
:102D6000E66E6AEC11F0E55201017F5106E0040EB7
:102D7000E66E6AEC11F0E55205D0040EE66E5DECED
:102D800011F0E5521200D9CFE6FFE1CFD9FFE552AD
:062D9000E7CFD9FF12009D
:0A2D96001FEC31F0420EE66E41EC36
:102DA00031F0E552000901E039D0470EE66E41EC02
:102DB00031F0E552000901E031D0740EE66E41ECCD
:102DC00031F0E552000901E029D0720EE66E41ECC7
:102DD00031F0E552000901E021D031EC31F01FEC77
:102DE00031F0420EE66E41EC31F0E552000901E0AF
:102DF00015D04C0EE66E41EC31F0E552000901E0D1
:102E00000DD031EC31F0320EE66EE66A71EC09F06D
:102E1000E552E5520101010E746F04D00101746B9B
:102E200031EC31F01200D9CFE6FFE1CFD9FF0B0E24
:102E3000E1260101745101E153D11FEC31F0430E41
:102E4000E66E41EC31F0E552000902E1000E01D0DE
:102E5000010E0101756FE66A75EC31F0E552026E04
:102E6000036A02C003F0026A02C0E6FF03C0E6FF85
:102E7000010EE66E75EC31F0E552E552E7CF03F056
:102E8000E552E7CF02F000010210006E03C001F02E
:102E9000040E00C0DBFF050E01C0DBFF31EC31F09A
:102EA000040EDBCF00F0050EDBCF01F0026A036AEF
:102EB00001AE02D002680368460E396E0C0E3A6EFF
:102EC0003B6A3C6A00C034F001C035F002C036F005
:102ED00003C037F086EC32F030C000F031C001F0B2
:102EE00032C002F033C003F0080E396E070E3A6E9E
:102EF0003B6A3C6A00C034F001C035F002C036F0D5
:102F000003C037F0DEEC20F034C000F035C001F033
:102F100036C002F037C003F0230E005E060E015AE1
:102F2000000E025A035A060E00C0DBFF070E01C056
:102F3000DBFF080E02C0DBFF090E03C0DBFF060E3D
:102F4000DBCFE6FF070EDBCFE6FF34EC0CF0E552FB
:102F5000E552F3CF52F1F4CF53F1D950040FE96E9B
:102F6000DACFEAFF0F0E3B6E3C6AEECF36F0EDCFC4
:102F700037F08BEC20F036C0EEFF37C0EDFF040ECB
:102F8000DBCFDEFFDBCFDDFF01014F3504E24E5129
:102F9000F008000E4F5508E20101506B516B010122
:102FA0004E07000E4F5B9CD0F00E4E1901E14F51C1
:102FB00007E1DECF4EF1DDCF4FF10101506B516BD8
:102FC0000101DE504E5D006EDD504F59016E00C0B4
:102FD000DEFF01C0DDFFDECF00F0DDCF01F0013408
:102FE00004E300508808FF0E015405E3F00EDE26CE
:102FF000000EDD2213D0DECF00F0DDCF01F0013472
:1030000004E200507808000E015408E2D9CFE9FF2D
:10301000DACFEAFFF00EEE5E000EED5ADECF02F0E0
:10302000DDCF03F0D880035004E7EC0E025CFF0E06
:10303000035804E2EC0E006E016813D0DECF04F0FA
:10304000DDCF05F0053404E204501408000E0554E9
:1030500004E2140E006E016A04D0DECF00F0DDCF72
:1030600001F000C0DEFF01C0DDFF080EE66E50C1BA
:1030700004F051C105F0030E0502F3CF05F0040280
:10308000F3CF04F0F4500526DE500424026EDD5028
:103090000520036ED89002360336D89002360336E8
:1030A0005EC206F0076A06BE07680001065002020B
:1030B000F3CF00F0F4CF01F00302F35001260750E4
:1030C0000202F350012600C0E6FF01C0E6FF1AEC41
:1030D0000AF0E552E552E552F3CF50F1F4CF51F149
:1030E0000B0EE15C02E2E16AE552E16EE552E7CFE8
:1030F000D9FF12001FEC31F0EE0EE66E41EC31F01C
:10310000E552000901E04BD0F60EE66E41EC31F0DD
:10311000E552000901E043D01FEC31F0EF0EE66EFE
:1031200041EC31F0E552000901E039D0010EE66EC4
:1031300075EC31F0E5520101486F496B48C149F126
:10314000486B31EC31F01FEC31F0EE0EE66E41ECE5
:1031500031F0E552000901E022D0F70EE66E41ECB5
:1031600031F0E552000901E01AD01FEC31F0EF0E0A
:10317000E66E41EC31F0E552000901E010D0010E9D
:10318000E66E75EC31F0E552006E016A0050010107
:1031900048130150491331EC31F0010E06D031ECE7
:1031A00031F00101766B000E00D01200D9CFE6FF9E
:1031B000E1CFD9FF1FEC31F0EE0EE66E41EC31F0BD
:1031C000E552000901E01FD0F40EE66E41EC31F04B
:1031D000E552000901E017D0FE0EDBCFE6FF41EC1F
:1031E00031F0E552000901E00ED031EC31F0FE0E75
:1031F000DB5001014B5D02E0000E01D0010E010128
:10320000776F010E04D031EC31F0000E00D0E552A2
:10321000E7CFD9FF1200D9CFE6FFE1CFD9FFE652C1
:10322000000E0101986F996B0101466F476B1FEC0F
:1032300031F0EE0EE66E41EC31F0E552000901E0AE
:103240005DD0D00EE66E41EC31F0E552000901E0B0
:1032500055D01FEC31F0EF0EE66E41EC31F0E55247
:10326000000901E04BD0010EE66E75EC31F0E5523D
:1032700001014A6F31EC31F0550E01014A5D04E164
:1032800001012E0E4B6F03D001016E0E4B6F4BC12F
:10329000E6FF8CDFE552000901E130D00A0EE66E50
:1032A000E66A71EC09F0E552E55224DFDF6E48C1B1
:1032B0003FF149C140F10101416BF40EE66E76DF4A
:1032C000E552000901E11AD01E0EE66EE66A71ECC5
:1032D00009F0E552E5520EDFDF6E48C13CF149C10D
:1032E0003DF101013E6B4BC1E6FF60DFE552000995
:1032F00001E104D00101010E766F06D00101816B5E
:1033000081C176F131EC31F0E552E552E7CFD9FFDA
:103310001200D9CFE6FFE1CFD9FF060EE126010169
:10332000982B000E99230101765101E1AAD1080ED4
:10333000010199AF02D0D89003D0985D000E995941
:1033400003E3010177510FE1200E010199AF02D093
:10335000D89003D0985D000E995901E292D10101F5
:10336000775101E08ED10101986B996BC3DE0108A2
:1033700001E087D10101775123E0F40EE66E16DFFC
:10338000E55201019251931107E048C13FF149C153
:1033900040F10101416B13D048C103F049C104F071
:1033A000056A01013F51035C006E40510458016EF3
:1033B00041510558026E00C044F101C045F161D190
:1033C0004BC1E6FFF3DEE5520101925193110CE08F
:1033D00048C13CF149C13DF101013E6B0101816BE6
:1033E0000101466B476B4DD101014DBF06D0800EE8
:1033F000E66E5DEC11F0E55205D0800EE66E6AECEB
:1034000011F0E5520101815106E10101426B436B6C
:103410000101010E816F01013C510101485F010171
:103420003D510101495B050EE66E47C202F0036A99
:1034300002BE0368010102504403F3CF00F0F4CF51
:1034400001F04503F350000101260350010144033C
:10345000F35000010126100E0026000E012200C0CC
:10346000E6FF01C0E6FF1AEC0AF0E552E552E5522C
:10347000F35001014827F450492342C1DEFF43C104
:10348000DDFF030EE66E070E366E376A42C13BF073
:1034900043C13CF012EC21F0345001014825006E8C
:1034A00035504921016E040E0026000E012200C095
:1034B000E6FF01C0E6FF1AEC0AF0E552E552E552DC
:1034C000F3CF42F1F4CF43F10101DE50425D006ED3
:1034D000DD504359016E040E00C0DBFF050E01C034
:1034E000DBFFD880435104E7FE0E425DFF0E4359D7
:1034F00004E2FE0E426F43690DD0433504E24251AF
:103500000808000E435504E2080E426F436B02D0D8
:1035100043C143F14CC200F0016A00BE016842C1E0
:1035200036F043C137F000C03BF001C03CF012EC74
:1035300021F0020E34C0DBFF030E35C0DBFF020EAC
:10354000DBCF00F0030EDBCF01F001010150471982
:10355000E8AE02D0473504D04651005C47510158CF
:1035600004E24607000E475B14D0020EDBCF00F0EA
:10357000030EDBCF01F047510118E8AE02D0013451
:1035800004D00050465D0150475903E2462B000E1F
:103590004723020EDBCF00F0030EDBCF01F001501A
:1035A0004719E8AE02D0473504D04651005C475178
:1035B000015803E24607000E475B5FC206F0076A48
:1035C00006BE0768040EDBCF02F0050EDBCF03F06A
:1035D000D880035004E7FB0E025CFF0E035804E2A0
:1035E000FB0E006E016817D0040EDBCF04F0050E51
:1035F000DBCF05F0053404E204500808000E055442
:1036000004E2080E006E016A06D0040EDBCF00F063
:10361000050EDBCF01F000C036F001C037F006C068
:103620003BF007C03CF012EC21F03450010146277A
:1036300035504723D880475104E7FB0E465DFF0E07
:10364000475904E2FB0E466F47690DD0473504E247
:1036500046510F08000E475504E20F0E466F476BA8
:1036600002D047C147F101014DBF06D0800EE66E82
:103670005DEC11F0E55205D0800EE66E6AEC11F0BB
:10368000E552060EE15C02E2E16AE552E16EE552C6
:06369000E7CFD9FF120094
:0A3696008A0EE66E560EE66EAEECEC
:1036A00022F0E552E5521200D9CFE6FFE1CFD9FF73
:1036B000FE0EDB5008E0120EE66E600EE66EAEEC1B
:1036C00022F0E552E552AA0EE66E600EE66EAEEC12
:1036D00022F0E552E5520101735109E0800EE66ED9
:1036E000560EE66EAEEC22F0E552E55208D0700EB2
:1036F000E66E560EE66EAEEC22F0E552E552670E2F
:10370000E66E560EE66EAEEC22F0E552E552010191
:10371000745109E05E0EE66E560EE66EAEEC22F0D7
:10372000E552E55208D0700EE66E560EE66EAEEC2F
:1037300022F0E552E552530EE66E560EE66EAEEC02
:1037400022F0E552E5520101765109E05E0EE66E87
:10375000560EE66EAEEC22F0E552E55208D0700E41
:10376000E66E560EE66EAEEC22F0E552E55293DFC1
:10377000E552E7CFD9FF1200D9CFE6FFE1CFD9FF5D
:103780000A0EE126AFEC23F0E76E030EE7CFDBFF76
:1037900001017E5101E02FD3030EDB5001E12BD359
:1037A000030EDBCFE6FFF5EC32F0E552F3CF00F08D
:1037B000F4CF01F00050011009E0030EDBCFE6FF6B
:1037C00007EC33F0E552030EF3CFDBFF030EDB50C3
:1037D0003F0A01E107D37D0A01E1FFD2730A01E14B
:1037E00083D2030A01E180D2010A01E17DD2070AF6
:1037F00001E17AD2010A01E177D2030A01E174D230
:10380000010A01E171D20F0A01E16ED26B0A01E1F6
:1038100067D21B0A01E160D2030A01E159D2080A0A
:1038200001E152D20A0A01E127D2080A01E120D2BD
:10383000060A01E119D2630A01E111D2720A01E11B
:103840000AD2040A01E1AAD10A0A01E1A3D1160AA7
:1038500001E177D1030A62E0010A01E0CCD2380E1F
:10386000E66E560EE66EAEEC22F0E552E552010130
:103870000151006E016A013404E200507708000E25
:10388000015406E2320EE66ECEEC22F0E55205D08F
:10389000310EE66ECEEC22F0E55239EC0BF0010E63
:1038A000F36E040EF3CFDBFF440EDE6E020EDD6E10
:1038B000DECF00F0DDCF01F05F0ED8800054020EA5
:1038C00001542AE32C0EE66E560EE66EAEEC22F0A4
:1038D000E552E552040EDBCFF3FFDB2AF350E66E30
:1038E000DBEC22F0E552280EE66E560EE66EAEECEC
:1038F00022F0E552E552DECFE9FFDDCFEAFF090E07
:10390000EFCFDBFFDBCFE6FF1CEC23F0E552DF2A35
:10391000010E01E3DB2ACCD7BEDE6DD2020EE66ECD
:103920005DEC11F0E5522C0EE66E560EE66EAEEC36
:1039300022F0E552E552F1EC23F0FF0FE76E040EA2
:10394000E7CFDBFF280EE66E560EE66EAEEC22F0F9
:10395000E552E55228EC24F0E76E090EE7CFDBFFD5
:1039600001010151006E016A013404E20050770840
:10397000000E015408E2200EF36E050EF3CFDBFFBC
:10398000060EDB6A04D0050EDB6A060EDB6A040E47
:10399000DB50006E016A530E026E020E036E440E7F
:1039A000025E020E035A0250001802E10350011891
:1039B00002E1090EDB96090EDBCFE6FF040EDB50B9
:1039C000E76E050EDBCF00F0060EDBCF01F0E7500F
:1039D0000026000E01220050E66EA6EC0BF0E55228
:1039E000E552040EDB50006E016A530E026E020EA9
:1039F000036E440E025E020E035A0250001802E1EA
:103A0000035001184EE101010151006E016A0134B9
:103A100004E200507708000E015405E2050EDB6A4F
:103A2000060EDB6A07D0200EF36E050EF3CFDBFF28
:103A3000060EDB6A090EDB90DB94DB96DB9ADB9CDF
:103A4000DB9EDBCFE6FF040EDB50E76E050EDBCF1F
:103A500000F0060EDBCF01F0E7500026000E012239
:103A60000050E66E25EC0BF0E552ED0BE552E71049
:103A7000E76E090EE7CFDBFFDBCFE6FF040EDB507E
:103A8000E76E050EDBCF00F0060EDBCF01F0E7504E
:103A90000026000E01220050E66EA6EC0BF0E55267
:103AA000E55202014F3504E3FF0E4F03F35001D0FE
:103AB0004F51026E036A02BE036852C204F0056AE7
:103AC00004BE0568000104500202F3CF00F0F4CFF9
:103AD00001F00302F350012605500202F3500126C3
:103AE000013404E200507F08000E015423E27F0EEF
:103AF000006E4FC23CF000C037F071EC20F0090EB0
:103B000037C0DBFFDBCFE6FF520E026E020E036E04
:103B1000440E025E020E035A050EDB500224006EB4
:103B2000060EDB500320016E0050E66EA6EC0BF093
:103B3000E552E552020EE66E6AEC11F0E552ABDD9D
:103B40005AD1180EE66E560EE66EAEEC22F0E55235
:103B5000E55239C1E6FF1CEC23F0E552110EE66E8A
:103B6000560EE66EAEEC22F0E552E5523AC1E6FFA3
:103B70001CEC23F0E5520B0EE66E560EE66EAEEC34
:103B800022F0E552E5523BC1E6FF1CEC23F0E55282
:103B900082DD31D19BEC01F07EDD2DD1060EE66E8B
:103BA000560EE66EAEEC22F0E552E55200C1E6FF9D
:103BB000DBEC22F0E552020EE66E560EE66EAEEC3F
:103BC00022F0E552E55204C1E6FF1CEC23F0E55279
:103BD000FE0EE66E550EE66EAEEC22F0E552E552B4
:103BE00005C1E6FF1CEC23F0E552FA0EE66E550E19
:103BF000E66EAEEC22F0E552E55206C1E6FF1CECA3
:103C000023F0E552F60EE66E550EE66EAEEC22F0AF
:103C1000E552E55201C1E6FFDBEC22F0E552F20E7F
:103C2000E66E550EE66EAEEC22F0E552E55202C1AC
:103C3000E6FFDBEC22F0E552EE0EE66E550EE66E88
:103C4000AEEC22F0E552E55203C1E6FFDBEC22F0D8
:103C5000E55221DDD0D06CEC06F01DDDCCD00101A9
:103C6000010E7E6F9D8AC7D0F9EC04F014DDC3D03D
:103C700028EC00F010DDBFD0DA0EE66E550EE66ED1
:103C8000AEEC22F0E552E552E66AE66A4EEC01F04F
:103C9000006E016A026A036A00C0E6FF01C0E6FF27
:103CA00002C0E6FF03C0E6FF7EEC24F0046E060EC1
:103CB000E15E0450C70EE66E550EE66EAEEC22F0E5
:103CC000E552E552E8DC97D0E4EC02F0E4DC93D076
:103CD00053EC03F0E0DC8FD0B0EC03F0DCDC8BD0F5
:103CE000E66AE2DCE55287D0B70EE66E550EE66E68
:103CF000AEEC22F0E552E552030EDBCFE6FFCEEC50
:103D000022F0E5523A0EE66ECEEC22F0E552030EBA
:103D1000DB50380A4EE00F0A43E0010A38E0030A9C
:103D20002DE0010A22E0070A17E0010A0CE0030A6D
:103D300001E048D0B20EE66E550EE66EAEEC22F013
:103D4000E552E5523FD0AD0EE66E550EE66EAEEC96
:103D500022F0E552E55236D0A90EE66E550EE66E1B
:103D6000AEEC22F0E552E5522DD0A30EE66E550ED4
:103D7000E66EAEEC22F0E552E55224D09E0EE66EE1
:103D8000550EE66EAEEC22F0E552E5521BD0970ED2
:103D9000E66E550EE66EAEEC22F0E552E55212D01C
:103DA000920EE66E550EE66EAEEC22F0E552E5524E
:103DB00009D08B0EE66E550EE66EAEEC22F0E552A3
:103DC000E55200D03DEC23F0030EDB50CF0FE66E42
:103DD000BFEC04F0E5525FDC0ED03DEC23F0F29E28
:103DE00080EC3EF03F0EE66E610EE66EAEEC22F029
:103DF000E552E55250DC0A0EE15C02E2E16AE5526E
:0A3E0000E16EE552E7CFD9FF120092
:063E0A002F9E08D02F9E40
:103E100037AE05D0366C371EE86A37222F8E37C092
:103E200031F036C030F0416A406A8E0E326E336A2D
:103E300028EF22F03D7E2F6A64EC22F07CEC22F029
:103E40002FB60CEF22F02FA20AD02FAA03D02FBE3C
:103E50000CEF22F02FA418EF22F015EF22F02FAA7A
:103E600005D02FAC18EF22F015EF22F02FA00AD0CA
:103E70002FA808D02FBE04D02FA402D021EF22F00B
:103E800025EF22F0406A336A3D50385C3F6E10E304
:103E900035C041F036C030F037C031F038C03EF0A8
:103EA0003AC035F03BC036F03CC037F02F3A09D06D
:103EB0003AC041F03BC030F03CC031F03DC03EF074
:103EC0003F6C2F9E2FBC2F8E3EC032F02FB054EF90
:103ED00022F01A0E3F6054EF22F0326A386A2FA4A3
:103EE00008D0356C361E371E381EE86A3622372257
:103EF00038222FAC08D0416C301E311E321EE86AC9
:103F0000302231223222346A3F5207E038343732CD
:103F10003632353234323F2EF9D7355041263650BD
:103F20003022375031223850322234C040F02F9E98
:103F300032AE0BD0406C411E301E311E321EE86A7C
:103F400041223022312232222F8E32A006D0D88058
:103F500031323032413240323E2A3EC032F028EF18
:103F600022F02F6A64EC22F07CEC22F02FB60CEFEA
:103F700022F02FA205D02FBA0CEF22F013EF22F07F
:103F80002FBA1FEF22F02FA005D02FB80CEF22F090
:103F90001FEF22F02FB813EF22F0336A7F0E382480
:103FA000326EE86A33223D50325EE86A335A1A0EA6
:103FB0003E6E386A406A416A306A316A3A50355E0C
:103FC0003B50365A3C50375A000E385A09E73A509F
:103FD00035263B5036223C503722000E382201D085
:103FE000408AD8903536363637363836D89040360F
:103FF0004136303631363E2EE1D737503610351047
:10400000D8A4408A28EF22F02F6A64EC22F07CECDE
:1040100022F02FB60CEF22F02FA205D02FB80CEF14
:1040200022F013EF22F02FAA05D02FB00CEF22F0D0
:1040300013EF22F02FB002D02FA802D01FEF22F0F2
:10404000336A3D503824326EE86A33227E0E325E87
:10405000E86A335A406A416A306A316A3C50370232
:10406000F4CF31F0F3CF30F03B503702F35041261C
:10407000F4503022000E31223C503602F3504126DB
:10408000F4503022000E31223A503702F3504026CD
:10409000F4504122000E302231223B503602F350C0
:1040A0004026F4504122000E302231223C5035028D
:1040B000F3504026F4504122000E302231223A5073
:1040C0003602F4504026000E4122302231223B506D
:1040D0003502F4504026000E41223022312228EFD2
:1040E00022F02E6A3CAE77EF20F03C6C2E1E37AEED
:1040F0007CEF20F0376C2E1E07EC34F037BE86EFD5
:1041000020F02EAE000C376C336C000C2EBE83EF0B
:1041100020F02F88FF0C2E6A3CAE94EF20F03B6C11
:104120003C1EE86A3C222E1E37AE9CEF20F0366C17
:10413000371EE86A37222E1EE3EC33F037BEACEFB1
:1041400020F02EAE000C366C371EE86A3722326C37
:10415000331EE86A3322000C2EBEA3EF20F02F8816
:10416000FF0C2E6A3CAEBCEF20F03A6C3B1E3C1EAE
:10417000E86A3B223C222E1E37AEC6EF20F0356C9B
:10418000361E371EE86A362237222E1E60EC33F0C8
:1041900037BED9EF20F02EAE000C356C361E371E20
:1041A000E86A36223722316C321E331E3222332225
:1041B000000C2EBECDEF20F02F88FF0C2E6AE86A8F
:1041C0003CAEEBEF20F0396C3A1E3B1E3C1E3A220F
:1041D0003B223C222E1E37AEF6EF20F0346C351E0B
:1041E000361E371E3522362237222E1E1BEC33F0A8
:1041F00037BE0DEF21F02EAE000C346C351E361E8E
:10420000371EE86A352236223722306C311E321EC4
:10421000331E312232223322000C2EBEFDEF20F05D
:104220002F88FF0C37C041F036C040F036503B02BB
:10423000F4CF35F0F3CF34F037503C02F4CF37F001
:10424000F3CF36F03B02F3503526F4503622E86ABD
:10425000372240503C02F3503526F4503622E86AAB
:1042600037223CAE38EF21F04050365E4150375A8D
:1042700041AE000C3B50365E3C50375A000C36C005
:1042800040F036503B02F4CF35F0F3CF34F03750E6
:104290003C02F4CF37F0F3CF36F03B02F350352633
:1042A000F4503622E86A372240503C02F35035265B
:1042B000F4503622E86A3722000C37C041F036C08D
:1042C00040F035C03FF035503A02F4CF33F0F3CF31
:1042D00032F036503B02F4CF35F0F3CF34F03A02EF
:1042E000F3503326F4503422E86A35223F503B0223
:1042F000F3503326F4503422E86A352237503A021C
:10430000F3503426F450352237503B02366AE86ABF
:104310003622F3503526F45036223F503C02F350FB
:104320003426F4503522376AE86A36223722405064
:104330003C02F3503526F4503622E86A37224150C9
:104340003C02F3503626F4503722000C2F6A64ECFE
:1043500022F02FB6B0EF21F02FA20ED02FB405D04F
:104360007F0E376EFF0E366E1FD0800E376E366AA8
:104370001BD0376A366A18D02FB0FBD78F0E386043
:10438000EDD77E0E3864F5D78E0E385C05E0D890F8
:1043900037323632382AF8D72FA406D0366C371E7B
:1043A000E86A372237AEE5D712002F6A64EC22F0B4
:1043B0002FB6DFEF21F02FA20FD02FB407D07F0E42
:1043C000376EFF0E366E356E346E25D0800E376E2A
:1043D00001D0376A000EF6D72FB0FBD7346A9F0E94
:1043E0003860EBD77E0E3864F4D79E0E385C07E059
:1043F000D8903732363235323432382AF6D72FA4B5
:104400000AD0346C351E361E371EE86A3522362235
:10441000372237AEDED712007F0E386EFF0E376EB2
:10442000366E356E12007F0E2FBEFF0E386E02D034
:104430007F0E386E800E376E366A356AF3D72FAE30
:1044400004D0800E386E376AF7D7386A376AF4D7E7
:104450003150301041104010F8E033BEF0D731BE7B
:104460000CD032503310EBE0D89040364136303625
:1044700031363206D8A03306F2D73350D4E1322891
:10448000D2E040AE11D07F0E401402E141A00CD02A
:10449000412AE86A3022312207E3D88031323032B3
:1044A0004132322A3228BFE03250C9E041C035F0F3
:1044B00030C036F03134376E3230386E3732389E95
:1044C0002FBE388E12EF22F03736383602E32F84B3
:1044D0002F7E06E12F80386A376A366A356A120005
:1044E000382803E0D88037321200D890373202E102
:1044F0002F8212002F8612003C363D3602E32F8CAD
:104500002F7E06E12F883D6A3C6A3B6A3A6A1200B8
:104510003D2803E0D8803C321200D8903C32EAE1DA
:044520002F8A1200CC
:0C452400D9CFE6FFE1CFD9FFFE0EDB503F
:1045300001017E190FE0FE0EDBCF7EF1DB50E8B00B
:104540009D8AE8A09D9A0A0EE66EE66A71EC09F073
:10455000E552E552E552E7CFD9FF1200D9CFE6FF89
:10456000E1CFD9FFFD0EDBCFF6FFFE0EDBCFF7FF6D
:104570000800F5500FE0FD0EDBCFF6FFDB2AFE0E44
:10458000DBCFF7FF01E3DB2A0800F550E66E06D823
:10459000E552E8D7E552E7CFD9FF1200D9CFE6FFC1
:1045A000E1CFD9FF9EA8FED7FE0EDB50AD6EE552DF
:1045B000E7CFD9FF1200D9CFE6FFE1CFD9FF640ED4
:1045C000006E00C03CF0FE0EDBCF37F007EC34F09D
:1045D0003750300FE66EE2DFE552640E006E00C029
:1045E0003CF0FE0EDBCF37F007EC34F0FE0E33C0AC
:1045F000DBFF0A0E006E00C03CF0FE0EDBCF37F092
:1046000007EC34F03750300FE66EC8DFE5520A0E83
:10461000006E00C03CF0FE0EDBCF37F007EC34F04C
:10462000FE0E33C0DBFFDB50300FE66EB7DFE55226
:10463000E552E7CFD9FF1200D9CFE6FFE1CFD9FF8E
:10464000FE0EDBCF00F000340BE32D0EE66EA6DF8E
:10465000E552FE0EDB50FF0DFE0EF3CFDBFF04D064
:104660002B0EE66E9BDFE552FE0EDBCFE6FFA3DFEF
:10467000E552E552E7CFD9FF12000D0EE66E8EDF50
:10468000E5520A0EE66E8ADFE5521200D9CFE6FF48
:10469000E1CFD9FFFE0EDB50090808E2FE0EDB5029
:1046A000410FF60FE66E7ADFE55206D0FE0EDB50C4
:1046B000300FE66E73DFE552E552E7CFD9FF120007
:1046C000D9CFE6FFE1CFD9FFFE0EDB380F0BE66E48
:1046D000DDDFE552FE0EDB500F0BE66ED7DFE55255
:1046E000E552E7CFD9FF1200D9CFE6FFE1CFD9FFDE
:1046F000FD0EDBCF00F0FE0EDBCF01F001C000F0BD
:10470000016A0050E66EDCDFE552FD0EDBCFE6FF0E
:10471000D7DFE552E552E7CFD9FF1200D9CFE6FF48
:10472000E1CFD9FFE6520101A351EA6AA50FE96E74
:10473000010EEA22EFCFDFFFA329006E016A026AB1
:10474000036A3F0E0016016A026A036A00C0A3F101
:10475000DF5000D0E552E552E7CFD9FF1200D9CFA4
:10476000E6FFE1CFD9FFE6529DAA1FD00101A35178
:104770000101A45D16E00101A351EA6AA50FE96EEB
:10478000010EEA22EFCFDFFFA329006E016A026A61
:10479000036A3F0E0016016A026A036A00C0A3F1B1
:1047A00001D0DF6ADF5018D017D09EAA13D0AB50CB
:1047B000020B03E1AB50040B05E0AB98AB88AE50A5
:1047C000DF6E08D0AE50DF6EDFCFE6FFE7DEE552EA
:1047D000DF5002D0000E00D0E552E552E7CFD9FFFE
:1047E0001200D9CFE6FFE1CFD9FF020EE126010E7C
:1047F000DB6AB5DFDF6E300EDF5CFBE3DF503908CC
:10480000F8E3300EDF5C0A0D010EF3CFDBFFA7DF0C
:10481000DF6E300EDF5CFBE3DF503908F8E3300E6B
:10482000DF5C006E010EDBCFE7FF0050E726010ED4
:10483000E7CFDBFFDB50006E020EE15C03E200D04D
:10484000E16AE552E16E0050E552E7CFD9FF120070
:10485000D9CFE6FFE1CFD9FF030EE126010EDB6AD7
:10486000020EDB6A7CDFDF6E300EDF5C03E3DF50BD
:10487000390803E22D0EDF5CF5E12D0EDF5C0DE162
:10488000010EF36E020EF3CFDBFF69DFDF6E300E39
:10489000DF5CFBE3DF503908F8E3300EDF5C0A0D24
:1048A000010EF3CFDBFF5BDFDF6E300EDF5CFBE37F
:1048B000DF503908F8E3300EDF5C006E010EDBCF0D
:1048C000E7FF0050E726010EE7CFDBFF020EDB50CB
:1048D00006E0010EDB50FF0D010EF3CFDBFF010EF2
:1048E000DB50006E030EE15C03E200D0E16AE552AA
:1048F000E16E0050E552E7CFD9FF1200D9CFE6FFB5
:10490000E1CFD9FF170EE126D950FB0FE96EFF0E5C
:10491000DA20EA6ED890030EEB50000A08E6000E8B
:10492000EE5C000EEE58000EEE58000EEE5823E23C
:104930002D0EE66E33DEE552FB0EDBCF34F0FC0EBF
:10494000DBCF35F0FD0EDBCF36F0FE0EDBCF37F0E0
:1049500039683A683B683C6886EC32F0FB0E30C040
:10496000DBFFFC0E31C0DBFFFD0E32C0DBFFFE0EB5
:1049700033C0DBFF04D0200EE66E10DEE5520C0ED5
:10498000DB6AFB0EDBCF34F0FC0EDBCF35F0FD0E27
:10499000DBCF36F0FE0EDBCF37F00A0E396E3A6A07
:1049A0003B6A3C6ADEEC20F00F0E34C0DBFF100ED9
:1049B00035C0DBFF110E36C0DBFF120E37C0DBFF48
:1049C0000F0EDBCF04F0100EDBCF05F0110EDBCFA6
:1049D00006F0120EDBCF07F00A0E396E3A6A3B6A18
:1049E0003C6A04C034F005C035F006C036F007C09C
:1049F00037F086EC32F030C004F031C005F032C040
:104A000006F033C007F0D950FB0FE96EFF0EDA2035
:104A1000EA6E0450EE5C006E0550EE58016E0650D2
:104A2000EE58026E0750EE58036E0D0E00C0DBFF0D
:104A3000DB50300FE66ED9CF00F0DACF01F00C0E6C
:104A4000DBCFF3FFDB2AF350026E036A02BE03687A
:104A500000500224E96E01500320EA6EE552E7504F
:104A6000EF6ED9500F0FE96EDACFEAFFFB0EEECFF3
:104A7000DBFFFC0EEECFDBFFFD0EEECFDBFFFE0E0D
:104A8000EECFDBFFFB0EDBCF35F0FC0EDBCF36F0DD
:104A9000FD0EDBCF37F0FE0EDBCF38F03834000EE2
:104AA000381809E6D880000E3554000E3654000E32
:104AB0003754000E385401E264D70C0EDBCF00F0FF
:104AC000FA0EDB28E76E0018E8AE02D0E73402D019
:104AD000E750005C16E2FA0EDBCF01F0000EE76E45
:104AE0000118E8AE02D0013403D0E750D880015459
:104AF00008E2300EE66E52DDE5522E0EE66E4EDD19
:104B0000E552FA0EDBCFE6FF0C0EDB50E552E75C18
:104B1000FF0FE76E0E0EE7CFDBFFDBCF00F00034B8
:104B200039E20E0EDBCF00F0016A026A036A00AEC2
:104B300003D0016802680368130E00C0DBFF140E87
:104B400001C0DBFF150E02C0DBFF160E03C0DBFF4A
:104B5000D950130FE96EDACFEAFFD890030EEB506D
:104B6000000A08E6000EEE5C000EEE58000EEE584D
:104B7000000EEE580FE3300EE66E10DDE552D95010
:104B8000130FE96EDACFEAFFEE06000EEE5AEE5A88
:104B9000EE5ADED70C0EDB06D9CF00F0DACF01F0EB
:104BA000DBCF02F0036A02BE036800500224E96E04
:104BB00001500320EA6EEF50E66EF0DCE552FA0E8B
:104BC000DB50F36E0C0EDB50F35C12E10C0EDBCF0E
:104BD00000F0000EE76E0018E8AE02D0003403D0FB
:104BE000E750D880005404E22E0EE66ED7DCE55282
:104BF0000C0EDBCF00F0000EE76E0018E8AE02D01E
:104C0000003403D0E750D8800054C4E3F90EDB50E1
:104C100005E0F90EDBCFE6FFC1DCE552170EE15CE3
:104C200002E2E16AE552E16EE552E7CFD9FF1200F8
:104C30009AC100F09BC101F09CC102F09DC103F03C
:104C40000F0E0016016A026A036A0050011002107A
:104C5000031026E1010127C100F028C101F0270758
:104C6000000E285B0001800E011404E00101276B97
:104C7000286B16D0010127C102F028C103F02707D5
:104C8000000E285B033404E20250F008000E0354C7
:104C900004E2F00E276F286B03D02707000E285B75
:104CA0001200D9CFE6FFE1CFD9FF0C0EE126FB0EB3
:104CB000DBCF36F0FC0EDBCF37F000018B51365CDA
:104CC000006E8C513758016E040E00C0DBFF050EDC
:104CD00001C0DBFFFD0EDBCF36F0FE0EDBCF37F081
:104CE00000018951365C006E8A513758016E060EFC
:104CF00000C0DBFF070E01C0DBFF060EDBCF08F0B4
:104D0000070EDBCF09F00001800E09140BE0060E40
:104D1000DBCF06F0070EDBCF07F0066C071E000E98
:104D2000072206D0060EDBCF06F0070EDBCF07F01A
:104D3000040EDBCF0CF0050EDBCF0DF0800E0D1452
:104D40000BE0040EDBCF0AF0050EDBCF0BF00A6C94
:104D50000B1E000E0B2206D0040EDBCF0AF0050E50
:104D6000DBCF0BF007500B18E8AE02D00B3404D0A9
:104D70000A50065C0B5007581BE2040EDBCF0EF006
:104D8000050EDBCF0FF0800E0F140BE0040EDBCF0F
:104D900004F0050EDBCF05F0046C051E000E0522A5
:104DA00006D0040EDBCF04F0050EDBCF05F01AD0E1
:104DB000060EDBCF10F0070EDBCF11F0800E1114C2
:104DC0000BE0060EDBCF04F0070EDBCF05F0046C22
:104DD000051E000E052206D0060EDBCF04F0070EDE
:104DE000DBCF05F0800E051405E0006A016A026A57
:104DF000036A08D1060EDBCF18F0070EDBCF19F0DF
:104E0000800E19140BE0060EDBCF16F0070EDBCF79
:104E100017F0166C171E000E172206D0060EDBCFF9
:104E200016F0070EDBCF17F0040EDBCF1CF0050EDB
:104E3000DBCF1DF0800E1D140BE0040EDBCF1AF04B
:104E4000050EDBCF1BF01A6C1B1E000E1B2206D0BA
:104E5000040EDBCF1AF0050EDBCF1BF017501B182A
:104E6000E8AE02D01B3404D01A50165C1B50175801
:104E70001BE2040EDBCF1EF0050EDBCF1FF0800E11
:104E80001F140BE0040EDBCF12F0050EDBCF13F086
:104E9000126C131E000E132206D0040EDBCF12F08C
:104EA000050EDBCF13F01AD0060EDBCF20F0070E75
:104EB000DBCF21F0800E21140BE0060EDBCF12F0C9
:104EC000070EDBCF13F0126C131E000E132206D058
:104ED000060EDBCF12F0070EDBCF13F0146A156A53
:104EE00013AE02D0146815681534000E151809E6C3
:104EF000D880190E1254000E1354000E1454000ED4
:104F0000155406E2190E006E016A026A036A7AD02D
:104F1000060EDBCF24F0070EDBCF25F0800E251424
:104F20000BE0060EDBCF22F0070EDBCF23F0226C66
:104F3000231E000E232206D0060EDBCF22F0070E22
:104F4000DBCF23F0040EDBCF28F0050EDBCF29F0FA
:104F5000800E29140BE0040EDBCF26F0050EDBCF0C
:104F600027F0266C271E000E272206D0040EDBCF6A
:104F700026F0050EDBCF27F023502718E8AE02D02D
:104F8000273404D02650225C275023581BE2040EFD
:104F9000DBCF2AF0050EDBCF2BF0800E2B140BE0BD
:104FA000040EDBCF00F0050EDBCF01F0006C011E1C
:104FB000000E012206D0040EDBCF00F0050EDBCF81
:104FC00001F01AD0060EDBCF2CF0070EDBCF2DF050
:104FD000800E2D140BE0060EDBCF00F0070EDBCFAA
:104FE00001F0006C011E000E012206D0060EDBCF80
:104FF00000F0070EDBCF01F0026A036A01AE02D0B7
:1050000002680368020E00C0DBFF030E01C0DBFF75
:10501000060EDBCFE6FF070EDBCFE6FF040EDBCF8D
:10502000E6FF050EDBCFE6FFE8EC0DF0E552E552BA
:10503000E552E55201015251F35C006E5351F458B0
:10504000016E00C0E6FF01C0E6FF34EC0CF0E55253
:10505000E552F3CFDEFFF4CFDDFFDECFE6FFDDCF9D
:10506000E6FF1DEC0DF0E552E552F3CF00F0F4CF72
:1050700001F0006C011E000E012200C036F001C0DC
:1050800037F0020EDBCF3BF0030EDBCF3CF012EC2F
:1050900021F0366A376A35AE02D036683768A00E1E
:1050A0003426000E352236223722400E396E010E8C
:1050B0003A6E3B6A3C6ADEEC20F0080E34C0DBFF3F
:1050C000090E35C0DBFF080EDB5001012925000168
:1050D000006E090EDB5001012A210001016ED8800B
:1050E000015004E7100E005CFF0E015805E20101BB
:1050F000100E296F2A691FD0080EDB5001012925E7
:105100000001026E090EDB5001012A210001036E2D
:10511000033404E20250F008000E035405E20101DA
:10512000F00E296F2A6B07D0080EDB5001012927EA
:10513000090EDB502A23DECFE6FFDDCFE6FFCEEC03
:105140000DF0E552E552F3CF00F0F4CF01F0006C22
:10515000011E000E012200C036F001C037F0020E21
:10516000DBCF3BF0030EDBCF3CF012EC21F0366AD4
:10517000376A35AE02D036683768A00E3426000E86
:10518000352236223722400E396E010E3A6E3B6AC6
:105190003C6ADEEC20F00A0E34C0DBFF0B0E35C09B
:1051A000DBFF0A0EDB5001012B250001006E0B0E08
:1051B000DB5001012C210001016ED880015004E771
:1051C000100E005CFF0E015805E20101100E2B6F5E
:1051D0002C691FD00A0EDB5001012B250001026E45
:1051E0000B0EDB5001012C210001036E033404E29D
:1051F0000250F008000E035405E20101F00E2B6F7F
:105200002C6B07D00A0EDB5001012B270B0EDB5055
:105210002C230C0EE15C02E2E16AE552E16EE552FC
:10522000E7CFD9FF1200010100510101276F286B60
:1052300004C129F101012A6B29BF2A6905C12BF19B
:1052400001012C6B2BBF2C6906C12DF101012E6BC6
:105250002DBF2E6967EC16F001016F5103E06E510E
:1052600001E134D07F5132E081511AE082510AE1EC
:1052700089C08DF08AC08EF08BC08FF08CC090F00A
:10528000010E826F8FC0E6FF90C0E6FF8DC0E6FF83
:105290008EC0E6FF06DDE552E552E552E55216D036
:1052A000826B01010151006E016A013404E2005079
:1052B0007708000E01540AE2000EE66EE66AE66E1A
:0E52C000E66AEFDCE552E552E552E5521200D7
:0252CE00526527
:1052D000663A20200900202A2A204C4F57203C20E3
:1052E000392E3556202A2A2000202A2A204C4950BF
:1052F0004F20414C41524D203C203956202A2A2033
:1053000000426174743A09005961773A202009001B
:1053100050697463683A0900526F6C6C3A20090056
:105320000D0A416E616C6F672063682E207465738F
:10533000740D0A000920503D0009202D3E20523DE9
:10534000000920000D0A507265737320616E792088
:105350006B657920746F20636F6E742E0D0A0043A5
:105360004F4E4E454354204750530D0A00756E6909
:105370007473204D657472657320616E642044659A
:1053800067726565730D0A006D6F6E69746F727375
:105390002047505320696E70757420756E74696C67
:1053A0002066756C6C20706F77657220726573650E
:1053B000740D0A000D0A47505320746573740D0A6A
:1053C0000009436F6D703A20000954656D703A20F2
:1053D0000050726573733A200900547970653A0978
:1053E000534D443530300D0A00547970653A094206
:1053F0004D503038350D0A000D0A4261726F6D65EF
:1054000074657220746573740D0A004F4B0D0A00A9
:105410000D0A507265737320616E79206B65792077
:10542000746F2046494E4953480D0A000D0A4361E6
:105430006C69622E20636F6D70617373200D0A5268
:105440006F7461746520686F72697A6F6E74616CD5
:105450006C79203732302064656720696E207E3396
:1054600030207365632E21200D0A507265737320FE
:10547000616E79206B657920746F205354415254CA
:105480002E0D0A004641494C0D0A00206465672034
:10549000286E6F7420636F72726563746564206632
:1054A0006F72206F7269656E746174696F6E206FC0
:1054B0006E206169726672616D65290D0A000D0AC0
:1054C000436F6D7061737320746573740D0A0028E7
:1054D0006E6F206E65772076616C73290D0A006D02
:1054E000530D0A476C6974636865733A0900476134
:1054F000703A0900204641494C003A0920307800B2
:1055000052782076616C733A0D0A000D0A506F7361
:105510002E2052782050504D0D0A000D0A4E65671E
:105520002E2052782050504D0D0A00093078000D81
:105530000A284163632E206E6F7420707265736554
:105540006E74290D0A00446F776E2D3E55703A2017
:10555000202020090046726F6E742D3E4261636BFD
:105560003A2009004C6566742D3E52696768743AAA
:105570002009000D0A416363656C65726F6D657487
:10558000657220746573743A0D0A00426565706532
:105590007200417578330059656C6C6F7700417506
:1055A000783100477265656E0052656400426C7523
:1055B000650041757832000D0A4F7574707574205E
:1055C000746573740D0A00206465766963652873D9
:1055D0002920666F756E640D0A000D0A493243205A
:1055E00064657669636573202E2E2E0D0A002C37B4
:1055F0003A002C363A002C353A002C593A002C4E01
:105600003A002C523A000D0A543A00205961773A78
:105610000020507463683A000D0A4E65757472611B
:105620006C20526F6C6C3A00203D20000D0A5265D0
:1056300067697374657220000D0A506172616D654F
:10564000746572206C69737420666F722073657460
:105650002023004261726F6D6574657220004F4EA9
:105660004C494E450D0A00436F6D70617373200005
:105670006E6F7420617661696C61626C650D0A0001
:0F5680004F4E4C494E450D0A00000D0A232000E5
:10569000530EE66E7DEC33F0E552310EE66E3FECD4
:1056A00033F0E552840EE66EB4EC33F0E5520201BD
:1056B00053390F0B010BE8B0BD80E8A0BD90FE0E82
:1056C000E66E99EC33F0E5524E0ECB6E0101A46B01
:1056D000A4C1A3F1A4C1A2F1E66A92EC22F0E552C2
:1056E0001200DACFE4FFE2CFDAFFE65200D0E55253
:1056F000E5CFDAFF1100DACFE4FFE2CFDAFFE9CF3E
:10570000E4FFEACFE4FFF6CFE4FFF7CFE4FFF5CF05
:10571000E4FFF3CFE4FFF4CFE4FFFACFE4FF00EEC1
:105720002EF0140EE80403E3EECFE4FFFBD700EE07
:1057300000F02E0EE80403E3EECFE4FFFBD7E652C1
:10574000D9CFE6FFE1CFD9FFE6529EA203D09E92C9
:105750000101F36B9EA40CD1CC6A9E920101716B86
:10576000BECFF7F1BFCFF8F10101F96BF70EE96E8B
:10577000010EEA6E020EEB50F619E8AE02D0F635D5
:1057800006D0F451EE5CF551EE58F651EE5805E2B4
:10579000FF0EF45FF55B000EF65BF40EE96E010E92
:1057A000EA6EEE50F75D456EEE50F859466EEE50DB
:1057B000F959476E010E1F0B45C042F046C043F039
:1057C00047C044F006E0D890443243324232E80603
:1057D000FAE142C0FAF143C0FBF1F7C1F4F1F8C1BC
:1057E000F5F1F9C1F6F10101F351070A01E1A7D082
:1057F000010A01E19BD0030A20E0010A19E0070A2F
:1058000012E0010A0BE0030A04E0010A01E0A1D062
:10581000ACD0FAC1E5F1FBC1E6F1A7D0FAC1E7F1DE
:10582000FBC1E8F1A2D0FAC1E9F1FBC1EAF19DD0D8
:10583000FAC1EBF1FBC1ECF198D0FAC1EDF1FBC17B
:10584000EEF1E6C142F0436A010E421801E1435015
:105850006CE1E8C144F0456A010E441801E145508D
:1058600064E1EAC146F0476A010E461801E147507B
:105870005CE1ECC148F0496A010E481801E1495069
:1058800054E1EEC14AF04B6A010E4A1801E14B5057
:105890004CE1020153417F0B010B1AE00101E95178
:1058A0000101006FFF0E0101E515426E436A770E9C
:1058B000425E000E435A42C004F1FF0EE715426EED
:1058C000436A770E425E000E435A42C005F119D07A
:1058D0000101E5510101006FFF0E0101E715426E64
:1058E000436A770E425E000E435A42C004F1FF0E37
:1058F000E915426E436A770E425E000E435A42C07B
:1059000005F1FF0EEB15426E436A770E425E000E04
:10591000435A42C006F1ED510101016F0101010E30
:10592000706F70C16EF121D001D013D0FAC1EFF1C8
:10593000FBC1F0F10101EF510101026F16D0FAC174
:10594000F1F1FBC1F2F1F1510101036F0101F369C2
:105950000CD00101706B70C16EF101019E2B000E25
:105960009F23A0230101F36900D09E940101F32B32
:105970009E50200B2BE09D50200B28E09E9AAB50B0
:10598000020B03E1AB50040B05E0AE50DF6EAB98A9
:10599000AB8817D0AE50DF6E0101A429426E436A76
:1059A000446A456A3F0E4216436A446A456A42C0E9
:1059B000A4F1A451EA6AA50FE96E010EEA22DFCF35
:1059C000EFFF01017E5102E0A5EC15F0F250200B33
:1059D00006E0F250040B03E0F29402015407E55292
:1059E000E552E7CFD9FFE55200EE2DF02E0EE80488
:1059F00003E3E5CFEDFFFBD700EE41F0140EE80422
:105A000003E3E5CFEDFFFBD7E5CFFAFFE5CFF4FFEA
:105A1000E5CFF3FFE5CFF5FFE5CFF7FFE5CFF6FFE5
:0E5A2000E5CFEAFFE5CFE9FFE5CFDAFF1100A1
:025A2E00D9CFCE
:105A3000E6FFE1CFD9FFE652020EE66EE66AA4EC7D
:105A400009F0E552E5520101666B676B0101686B75
:105A5000696B01016A6B6B6BDF6A100EDF5C24E21D
:105A6000A70EE66EFBEC2EF0E552080B01E1F8D72D
:105A7000C9EC2FF001012F510101662701013051BE
:105A800001016723010133510101682701013451EC
:105A9000010169230101315101016A2701013251DC
