:020000040000FA
:0600000090EF35F0120044
:020006001200E6
:060008003FEF2EF0120094
:02000E00C250DE
:08001000020B01E0010E1200D9
:0600180035EF2EF012008E
:02001E000400DC
:10002000F26B0000F901000006000000D06B000038
:10003000CA00000022000000B46B00007C02000037
:100040001C000000926B0000CD01000022000000A7
:10005000D9CFE6FFE1CFD9FF030EE126F250200B06
:1000600001E0010EE76E020EE7CFDBFFF29AFD0E14
:10007000DBCFDEFFDBCFDDFFD9CFE9FFDACFEAFF51
:10008000EE50ED1008E0F2A4FED7F294DF06010E68
:1000900001E2DB06F1D7020EDB50E8B0F28AE8A0FD
:1000A000F29A030EE15C02E2E16AE552E16EE5528A
:1000B000E7CFD9FF1200D9CFE6FFE1CFD9FF050E78
:1000C000E126F250200B01E0010EE76E040EE7CFAF
:1000D000DBFFF29ADE6ADD6ADECF14F0DDCF15F0C9
:1000E000FD0EDBCF16F0FE0EDBCF17F00A0E170267
:1000F000F3CF17F01602F3CF16F0F4501726155071
:100100001718E8AE02D0173404D01650145C1750FC
:10011000155837E2080EF36E020EF3CFDBFF030E25
:10012000DB6AD950020FE96EDACFEAFFEE50ED102C
:1001300009E0F2A4FED7F294020EDB06030E01E200
:10014000DB06EFD7ADEC12F09DAA0DD0000188516F
:100150000001895D07E0040EDB50E8B0F28AE8A0F8
:10016000F29A15D009D09EAA07D0040EDB50E8B051
:10017000F28AE8A0F29A0BD0DF2A010E01E3DB2A13
:10018000ABD7040EDB50E8B0F28AE8A0F29A050E75
:10019000E15C02E2E16AE552E16EE552E7CFD9FFA8
:1001A0001200D9CFE6FFE1CFD9FFFD0EDBCF16F06D
:1001B000FE0EDBCF17F00001800E17141BE0FD0EC2
:1001C000DBCF18F0FE0EDBCF19F0186C191E000EF5
:1001D0001922FC0EDB5018C014F019C015F005E010
:1001E000D89015321432E804FBE1146C151E000E91
:1001F000152212D0FD0EDBCF1AF0FE0EDBCF1BF066
:10020000FC0EDB501AC014F01BC015F005E0D890AE
:1002100015321432E804FBE114C0F3FF15C0F4FFFB
:1002200000D0E552E7CFD9FF1200D9CFE6FFE1CFEA
:10023000D9FFD950FC0FE96EFF0EDA20EA6E020EEC
:10024000D890EB50000A06E6000EEE5C000EEE5869
:10025000000EEF583CE2FC0EDBCF17F0FD0EDBCFBB
:1002600018F0FE0EDBCF19F00C680D680E6817C091
:1002700007F018C008F019C009F0AAEC1EF004C07D
:1002800017F005C018F006C019F0FB0EDB501F0B6D
:1002900017C014F018C015F019C016F006E0D89079
:1002A000163215321432E806FAE10C680D680E6851
:1002B00014C007F015C008F016C009F0AAEC1EF033
:1002C00004C014F005C015F006C016F016D0D950C1
:1002D000FC0FE96EFF0EDA20EA6EFB0EDB501F0BFF
:1002E000EECF14F0EECF15F0EECF16F006E0D8907A
:1002F000163215321432E806FAE114C007F015C0C0
:1003000008F016C009F000D0E552E7CFD9FF12007F
:100310003F0E926E020EC16EC00E816E400E936E45
:10032000600E826E840E946EC78CF19E1200D9CF3F
:10033000E6FFE1CFD9FFE652DF6ADFCF14F0040E0B
:10034000E76E1418E8AE02D0E73402D0E750145C30
:1003500011E2DFCFE9FFEA6AE9BEEA68D890E93640
:10036000EA36550EE926010EEA22010EEE6EED6A1E
:10037000DF2AE3D70101770E536F53C154F1010116
:10038000966B000E0101116F126B01010F6F106B64
:1003900001010D6F0E6B0101496F4A6B0101636F23
:1003A000646B01013A6B3B6B0101366B36C135F171
:1003B0000101156F166B0101136F146B0101176FAB
:1003C000186B01014D6B0101C76BC86BC96BE5521E
:1003D000E552E7CFD9FF1200D9CFE6FFE1CFD9FF31
:1003E000E652FE0EDB50A96EA69EA680A850DF6ED8
:1003F000A66ADF5000D0E552E552E7CFD9FF1200E0
:10040000D9CFE6FFE1CFD9FF050EE1260101045166
:10041000146E156A153404E214507708000E155452
:1004200008E2200EF36E030EF3CFDBFF040EDB6A4F
:1004300004D0030EDB6A040EDB6A7C0EDE6E020E55
:10044000DD6EDECF14F0DDCF15F0970ED88014549A
:10045000020E15541AE3030EDBCF14F0DB2A040E50
:10046000DBCF15F001E3DB2A1450E66EB5DFE55271
:10047000E66EDECFE9FFDDCFEAFFE552E750EF6E33
:10048000DF2A010E01E3DB2ADCD78DC2CAF1020E9E
:100490000201E76E8C19E8AE02D0E73402D0E750D3
:1004A0008C5D02E2020E0ED0140EE76E8C19E8AEDF
:1004B00002D08C3503D0E750D8808C5502E2140E60
:1004C00001D08C518C6F050EE15C02E2E16AE552CD
:1004D000E16EE552E7CFD9FF1200D9CFE6FFE1CFB9
:1004E000D9FF020EE126FE0EDBCFE6FF75DFE552F7
:1004F000DF6EFD0EDB50DF5C1DE0FD0EDB50A86EF5
:10050000FE0EDB50A96EA69EA684F250800B01E081
:10051000010EE76E010EE7CFDBFFF29E550EA76ED0
:10052000AA0EA76EA682A6B2FED7010EDB5001E08E
:10053000F28EA694020EE15C02E2E16AE552E16EFF
:10054000E552E7CFD9FF1200D9CFE6FFE1CFD9FFBF
:10055000050EE126FE0EDB0405E1030EDB6A040E48
:10056000DB6A07D0200EF36E030EF3CFDBFF040E21
:10057000DB6A7C0EDE6E020EDD6EDECF14F0DDCFA8
:1005800015F0970ED8801454020E155419E3DFCFDE
:10059000E9FFDF2A010EDBCFEAFF01E3DB2AEF50A0
:1005A000E66E030EDBCF14F0DB2A040EDBCF15F072
:1005B00001E3DB2A1450E66E90DFE552E552DDD709
:1005C000050EE15C02E2E16AE552E16EE552E7CF39
:1005D000D9FF1200D9CFE6FFE1CFD9FF020EE12605
:1005E0000FDF020EE15C02E2E16AE552E16EE552E4
:1005F000E7CFD9FF1200D9CFE6FFE1CFD9FFFD0E3B
:10060000DBCF14F0FE0EDBCF15F00001800E1514C9
:100610000BE0D950FD0FE96EFF0EDA20EA6E8C0E6A
:10062000EE26180EED22EBD7FD0EDBCF14F0FE0EFA
:10063000DBCF15F0D890155004E68C0E145C180E24
:1006400015580BE3D950FD0FE96EFF0EDA20EA6E64
:100650008C0EEE5E180EED5AE7D7FD0EDBCF14F0D0
:10066000FE0EDBCF15F014C0F3FF15C0F4FF00D071
:10067000E552E7CFD9FF1200D9CFE6FFE1CFD9FF8E
:100680000A0EE126FD0EDBCF14F0FE0EDBCF15F0D7
:10069000040ED89015321432E804FBE11450DF6EDA
:1006A0000F0EE76EFD0EDBCF14F0FE0EDBCF15F064
:1006B000E7501416156A010E14C0DBFF156ADF340B
:1006C000FE0B1536146EFB0EDB501424E96EFC0E87
:1006D000DB501520EA6E040EEECFDBFF050EEDCFEA
:1006E000DBFFDF2A156ADF34FE0B1536146EFB0EB6
:1006F000DB501424E96EFC0EDB501520EA6E060E6A
:10070000EECFDBFF070EEDCFDBFF010EDB50186EE7
:10071000196A060EDBCF16F0070EDBCF17F0040EBA
:10072000DB50165C146E050EDB501758156E14C0A6
:1007300008F015C009F018C00DF019C00EF07DECDE
:100740001EF0020E06C0DBFF030E07C0DBFF040E27
:10075000DBCF16F0050EDBCF17F016C0E6FF17C093
:10076000E6FF040EE66E020EDBCFE6FF030EDBCFE4
:10077000E6FF17DDE552E552E552E552E7CF17F007
:10078000E552E7CF16F01650F324146E1750F420FC
:10079000156E080E14C0DBFF090E15C0DBFF080E36
:1007A000DBCF14F0090EDBCF15F014C0F3FF15C03A
:1007B000F4FF0A0EE15C03E200D0E16AE552E16E6B
:1007C000E552E7CFD9FF1200D9CFE6FFE1CFD9FF3D
:1007D000030EE126FD0EDBCF14F0FE0EDBCF15F08D
:1007E0000001800E15140BE0D950FD0FE96EFF0ECD
:1007F000DA20EA6E8C0EEE26180EED22EBD7FD0EF7
:10080000DBCF14F0FE0EDBCF15F0D890155004E6C8
:100810008C0E145C180E15580BE3D950FD0FE96EC1
:10082000FF0EDA20EA6E8C0EEE5E180EED5AE7D758
:10083000FD0EDBCF14F0FE0EDBCF15F0D890155077
:1008400004E6460E145C0C0E155802E2000E01D0B0
:10085000010EE76E020EE7CFDBFFDB500AE0D95056
:10086000FD0FE96EFF0EDA20EA6E460EEE5E0C0E0C
:10087000ED5ACD0EE66E010EE66EFD0EDBCF14F0E6
:10088000FE0EDBCF15F0166A15BE166815C016F001
:1008900014C015F014C015F0146A230E1426060EA9
:1008A0001522000E1622460E0C6E0C0E0D6E0E6AF0
:1008B00014C007F015C008F016C009F01CEC1EF0BB
:1008C00007C014F008C015F009C016F014C0E6FF08
:1008D00015C0E6FFD1DEE552E552E552E552F3CF11
:1008E000DEFFF4CFDDFF020EDB500CE00868096884
:1008F000DECF0DF0DDCF0EF07DEC1EF006C0DEFF8A
:1009000007C0DDFFDECF14F0DDCF15F014C0F3FF1C
:1009100015C0F4FF030EE15C03E200D0E16AE5528A
:10092000E16EE552E7CFD9FF1200D9CFE6FFE1CF64
:10093000D9FFFD0EDBCF14F0FE0EDBCF15F0230E3A
:100940001426060E152214C0E6FF15C0E6FF3CDF94
:10095000E552E55200D0E552E7CFD9FF1200D9CFDA
:10096000E6FFE1CFD9FF0E0EE126FD0EDBCF18F03A
:10097000FE0EDBCF19F00001800E19140BE0FD0E06
:10098000DBCF14F0FE0EDBCF15F0146C151E000E3D
:10099000152206D0FD0EDBCF14F0FE0EDBCF15F0D6
:1009A000166A176A15AE02D016681768040E14C0CE
:1009B000DBFF050E15C0DBFF060E16C0DBFF070EC2
:1009C00017C0DBFFFB0EDBCF18F0FC0EDBCF19F0FE
:1009D000800E19140BE0FB0EDBCF14F0FC0EDBCF06
:1009E00015F0146C151E000E152206D0FB0EDBCF81
:1009F00014F0FC0EDBCF15F0166A176A15AE02D0A4
:100A00001668176814C0DFFF010E15C0DBFF020E69
:100A100016C0DBFF030E17C0DBFFD950FB0FE96EDA
:100A2000FF0EDA20EA6EEE50ED101FE1FD0EDBCF77
:100A300014F0FE0EDBCF15F0800E15140BE0DD0E6A
:100A4000F36E0C0EF3CFDBFFF90EF36E0D0EF3CF4A
:100A5000DBFF0AD0230EF36E0C0EF3CFDBFF060E86
:100A6000F36E0D0EF3CFDBFF32D1D950FD0FE96EDF
:100A7000FF0EDA20EA6EEE50ED1018E1FB0EDBCF30
:100A800014F0FC0EDBCF15F0800E15140AE0460EB4
:100A9000F36E0C0EF3CFDBFFF36E0D0EF3CFDBFF27
:100AA00004D00C0EDB6A0D0EDB6A11D1040EDBCF15
:100AB00014F0050EDBCF15F0060EDBCF16F0070E97
:100AC000DBCF17F0050ED8901436153616361736CC
:100AD000E806F9E114C006F015C007F016C008F0EA
:100AE00017C009F0DFCF0BF0010EDBCF0CF0020EC8
:100AF000DBCF0DF0030EDBCF0EF049EC1EF0080E3D
:100B000006C0DBFF090E07C0DBFF0A0E08C0DBFFD3
:100B10000B0E09C0DBFFD950080FE96EDACFEAFFF0
:100B2000D890030EEB50000A08E6000EEE5C010EB2
:100B3000EE58000EEE58000EEE5816E2CA0EE66EA3
:100B4000000EE66E080EDBCFE6FF090EDBCFE6FFF8
:100B500093DDE552E552E552E5520C0EF3CFDBFF93
:100B60000D0EF4CFDBFF61D0D950080FE96EDACF5C
:100B7000EAFFEE52EE06000EEE5AEE5AEAC014F00C
:100B8000EBC015F0166A176A15AE02D01668176822
:100B9000080EDBCF18F0090EDBCF19F00A0EDBCF01
:100BA0001AF00B0EDBCF1BF0020ED8901B321A325C
:100BB00019321832E806F9E1185014261950152296
:100BC0001A5016221B5017220C0E14C0DBFF0D0EFC
:100BD00015C0DBFF0C0EDBCF16F00D0EDBCF17F0D0
:100BE0000001800E171403E0146A156A18D00C0E69
:100BF000DBCF18F00D0EDBCF19F0193404E21850DA
:100C00002308060E195405E2230E146E060E156E07
:100C100006D00C0EDBCF14F00D0EDBCF15F00C0E52
:100C200014C0DBFF0D0E15C0DBFFFB0EDBCF14F095
:100C3000FC0EDBCF15F00001800E15142EE0FD0E2A
:100C4000DBCF14F0FE0EDBCF15F0153404E21450A8
:100C50000008000E155411E20C0EDBCF14F00D0E3F
:100C6000DBCF15F0460ED88014560C0E155614C066
:100C7000DBFF0D0E15C0DBFF0FD00C0EDBCF14F029
:100C80000D0EDBCF15F0460E14260C0E152214C0E7
:100C9000DBFF0D0E15C0DBFF1AD0FD0EDBCF14F00D
:100CA000FE0EDBCF15F0800E151411E00C0EDBCF1D
:100CB00014F00D0EDBCF15F08C0ED8801456180EE4
:100CC00015560C0E14C0DBFF0D0E15C0DBFF0C0E0D
:100CD000DBCF14F00D0EDBCF15F014C0F3FF15C001
:100CE000F4FF0E0EE15C03E200D0E16AE552E16E32
:100CF000E552E7CFD9FF1200D9CFE6FFE1CFD9FF08
:100D0000020EE126E66AE66AC1EC33F0E552E552EE
:100D1000F3CF14F0F4CF15F0030ED890153214323F
:100D2000E804FBE114C0DEFF15C0DDFF010EE66E36
:100D3000CAC116F0176A16BE1768DE501624146E64
:100D4000DD501720156E010E1426000E152214C05A
:100D5000E6FF15C0E6FFD1EC00F0E552E552E552A2
:100D6000F3CFCAF1CAC114F0156A14BE15688DC25A
:100D700016F0176A16BE176815501718E8AE02D09D
:100D8000173404D01650145C1750155802E3000EA7
:100D900001D0010E010B0101996F995124E0C3C1EB
:100DA00014F0C4C115F0C5C116F0C6C117F0400E4D
:100DB0001416156A166A176A1450151016101710B3
:100DC00009E1800EE66E40D9E552040EE66E3CD98C
:100DD000E55208D0800EE66E44D9E552040EE66E68
:100DE00040D9E5522ED0A75124E0C3C114F0C4C1AC
:100DF00015F0C5C116F0C6C117F0800E1416156A9D
:100E0000166A176A145015101610171009E1800E93
:100E1000E66E1AD9E552040EE66E16D9E55208D0F0
:100E2000800EE66E1ED9E552040EE66E1AD9E55222
:100E300008D0800EE66E15D9E552040EE66E11D983
:100E4000E552020EE15C02E2E16AE552E16EE55232
:100E5000E7CFD9FF12000101BD07000EBE5BBD51F7
:100E6000BE113DE125C114F026C115F0FF0ED8805A
:100E70001456000E1556030ED89015321432E8049D
:100E8000FBE1050E01011424BD6F000E1520BE6F9D
:100E90000101A85105E0510EE66ED6D8E5521FD0EB
:100EA00001014EA909D0510EE66EDBD8E552010EC4
:100EB000E66ECAD8E55213D04EA109D0510EE66EA7
:100EC000D0D8E552400EE66EBFD8E55208D0510E9C
:100ED000E66EC7D8E552100EE66EB6D8E55212009F
:100EE00002018B51E840E8403F0B010B4DE02E0E14
:100EF000E66EB7D8E55214C114F0156A000EE76E1D
:100F00001418E8AE02D0143403D0E750D88014543B
:100F100005E2040EE66E98D8E55211D014C114F023
:100F2000156AFF0EE76E1418E8AE02D0E73402D05F
:100F3000E750145C04E2080EE66E86D8E55216C14E
:100F400014F0156A000EE76E1418E8AE02D01434DF
:100F500003D0E750D880145405E2200EE66E74D812
:100F6000E55211D016C114F0156AFF0EE76E141881
:100F7000E8AE02D0E73402D0E750145C04E2020E7F
:100F8000E66E62D8E5522AD08B51E00BE838E84093
:100F9000010B24E02E0EE66E64D8E55201015235B5
:100FA00004E251510008000E525505E2080EE66EAB
:100FB0004BD8E55207D0800E521504E0040EE66EC1
:100FC00043D8E5520101503504E24F51F008000EBC
:100FD000505504E2200EE66E37D8E5521200D9CF04
:100FE000E6FFE1CFD9FF020EE1264EC1DFFF828A84
:100FF00094988296DE52080EDD6E010EDB5016E0EC
:10100000DFAE02D0828801D08298DF9EDF46010EDB
:10101000E66EACEC35F0E5528286010EE66EACEC85
:1010200035F0E5528296010EDB06E7D78282829286
:1010300082869488020EE15C02E2E16AE552E16E8A
:10104000E552E7CFD9FF1200D9CFE6FFE1CFD9FFB4
:10105000FE0EDB5001014E13C2DFE552E7CFD9FF90
:101060001200D9CFE6FFE1CFD9FFFE0EDB1C010154
:101070004E17B5DFE552E7CFD9FF1200D9CFE6FF13
:10108000E1CFD9FFE652DF6ADFCF14F0170EE76E2B
:101090001418E8AE02D0143403D0E750D8801454AA
:1010A0001BE3DFCFE9FFEA6AE9BEEA68D890E936D8
:1010B000EA36650EE926010EEA22EECFE6FFEFCF13
:1010C000E6FFA5EC20F0E552E5523B0EE66EFFECA4
:1010D0001FF0E552DF2AD8D76EEC20F0E552E5523A
:0610E000E7CFD9FF12006A
:0A10E600D9CFE6FFE1CFD9FF030EDA
:1010F000E1260201785105E0010EDB6A020EDB6A8F
:101100002FD0010EDB6A020EDB6AFE0EDB50DF6EB3
:10111000FD0EDB50D880DF5423E3D950010FE96E78
:10112000DACFEAFF0A0EEC02F3CFEDFFEF02F3CFC6
:10113000EEFFF450ED26DF50EA6A230FE96E020E4F
:10114000EA22EF50D00F146E156AD950010FE96EE4
:10115000DACFEAFF1450EE261550ED22DF2AD8D759
:10116000010EDBCF14F0020EDBCF15F014C0F3FF3D
:1011700015C0F4FF030EE15C03E200D0E16AE55222
:10118000E16EE552E7CFD9FF1200D9CFE6FFE1CFFC
:10119000D9FF0D0EE1260201785109E0090EDB6A44
:1011A0000A0EDB6A0B0EDB6A0C0EDB6A68D1FE0EE0
:1011B000DB50EA6A230FE96E020EEA22EF502D0897
:1011C00005E1060EDB6AFE0EDB2A05D0010EF36E8A
:1011D000060EF3CFDBFFFE0EDB50E66ED950040F98
:1011E000E96EDACFEAFFE552E750EE6EED6A040EE3
:1011F000DBCFE9FF050EDBCFEAFF230EE926020E67
:10120000EA22EF502E081BE0040EDBCF14F0050E8F
:10121000DBCF15F0FD0EDB50166E176A1750151850
:10122000E8AE02D0153404D01450165C155017588F
:1012300006E3040EDB2A050E01E3DB2AD8D7040EF1
:10124000DBCF14F0050EDBCF15F01406000E155A97
:101250001450E66EFE0EDBCFE6FF45DFE552E552A9
:10126000070EF3CFDBFF080EF4CFDBFFFD0EDBCF65
:10127000E6FF040EDBCF16F0050EDBCF17F0010EF4
:101280001624E66E30DFE552E552F3CF14F0F4CFCA
:1012900015F014C008F015C009F072EC1CF0090E2E
:1012A00007C0DBFF0A0E08C0DBFF0B0E09C0DBFF27
:1012B0000C0E0AC0DBFFFD0EDB50166E176A040E23
:1012C000DB50165C146E050EDB501758156E020EBF
:1012D00014C0DBFF030E15C0DBFF010EDE6EDD6AFE
:1012E000DECF14F0DDCF15F0020EDBCF16F0030ECB
:1012F000DBCF17F017501518E8AE02D0153404D024
:101300001450165C155017582AE3146A156A200EFB
:10131000166E410E176ED950090FE96EDACFEAFF4B
:10132000EECF07F0EECF08F0EECF09F0EFCF0AF0E6
:1013300014C00CF015C00DF016C00EF017C00FF061
:101340001CEC1DF00AC0EDFF09C0EDFF08C0EDFF69
:1013500007C0EFFFDF2A010E01E3DB2AC1D7060E2B
:10136000DB503BE0070EDBCF08F0080EDBCF09F0C7
:1013700072EC1CF007C014F008C015F009C016F09C
:101380000AC017F0090EDBCF18F00A0EDBCF19F0F8
:101390000B0EDBCF1AF00C0EDBCF1BF018C00CF0DD
:1013A00019C00DF01AC00EF01BC00FF014C007F0EA
:1013B00015C008F016C009F017C00AF086EC1CF042
:1013C000090E07C0DBFF0A0E08C0DBFF0B0E09C0C9
:1013D000DBFF0C0E0AC0DBFF52D0070EDBCF08F09C
:1013E000080EDBCF09F072EC1CF007C018F008C043
:1013F00019F009C01AF00AC01BF0090EDBCF1CF06F
:101400000A0EDBCF1DF00B0EDBCF1EF00C0EDBCF78
:101410001FF01CC00CF01DC00DF01EC00EF01FC050
:101420000FF018C007F019C008F01AC009F01BC06F
:101430000AF086EC1CF007C014F008C015F009C0D3
:1014400016F00AC017F00C6A0D6A800E0E6EBF0E01
:101450000F6E14C007F015C008F016C009F017C0D1
:101460000AF06FEC1DF0090E07C0DBFF0A0E08C082
:10147000DBFF0B0E09C0DBFF0C0E0AC0DBFF090E01
:10148000DBCF14F00A0EDBCF15F00B0EDBCF16F01E
:101490000C0EDBCF17F014C006F015C007F016C015
:1014A00008F017C009F00D0EE15C03E200D0E16A1C
:1014B000E552E16EE552E7CFD9FF1200D9CFE6FF42
:1014C000E1CFD9FF0C0EE1260201785109E0080EA8
:1014D000DB6A090EDB6A0A0EDB6A0B0EDB6A83D05D
:1014E000FD0EDB50F90FE66EFE0EDBCFE6FFFBDDF7
:1014F000E552E552F3CF14F0F4CF15F014C008F024
:1015000015C009F072EC1CF007C0DEFF08C0DEFF5A
:1015100009C0DEFF0AC0DDFFDD52DD52FD0EDBCF6C
:10152000E6FFFD0EDB50FA0FE66E2FDEE552E552C8
:10153000040E06C0DBFF050E07C0DBFF060E08C069
:10154000DBFF070E09C0DBFFD9CFE9FFDACFEAFFE7
:10155000EECF14F0EECF15F0EECF16F0EFCF17F080
:10156000040EDBCF1CF0050EDBCF1DF0060EDBCF2B
:101570001EF0070EDBCF1FF0890E0C6E880E0D6E6D
:101580000E6E3C0E0F6E1CC007F01DC008F01EC092
:1015900009F01FC00AF06FEC1DF007C018F008C07A
:1015A00019F009C01AF00AC01BF018C00CF019C0DD
:1015B0000DF01AC00EF01BC00FF014C007F015C0DC
:1015C00008F016C009F017C00AF086EC1CF0080EEF
:1015D00007C0DBFF090E08C0DBFF0A0E09C0DBFFF6
:1015E0000B0E0AC0DBFF080EDBCF14F0090EDBCFB9
:1015F00015F00A0EDBCF16F00B0EDBCF17F014C080
:1016000006F015C007F016C008F017C009F00C0E60
:10161000E15C03E200D0E16AE552E16EE552E7CF1A
:10162000D9FF120073C276F202017605776F73510B
:10163000EA6A230FE96E020EEA22EF502C0822E03C
:101640007351EA6A230FE96E020EEA22EF502A086C
:1016500019E07451735D14E27351EA6A230FE96E65
:10166000020EEA22EF502C080BE07351EA6A230FB6
:10167000E96E020EEA22EF502A0802E0732BE9D746
:101680007305776F732B7651775D02E3000E01D0FF
:10169000010E786F1200D9CFE6FFE1CFD9FF090E16
:1016A000E126C0DFBFDFBEDF77C2E6FF76C2E6FF1E
:1016B00005DFE552E55206C014F007C015F008C07A
:1016C00016F009C017F0C60E0C6E6B0E0D6ED90E1B
:1016D0000E6E470E0F6E14C007F015C008F016C04E
:1016E00009F017C00AF06FEC1DF022EC1FF006C0E5
:1016F000DEFF07C0DEFF08C0DEFF09C0DDFFDD52F0
:10170000DD5290DF02017651EA6A230FE96E020E84
:10171000EA22EF5053081CE1D9CFE9FFDACFEAFF04
:10172000EECF06F0EECF07F0EECF08F0EFCF09F0E6
:101730000B680C680D680E6801EC34F002C0DEFF27
:1017400003C0DEFF04C0DEFF05C0DDFFDD52DD5259
:1017500069DF77C2E6FF76C2E6FFB0DEE552E5520A
:1017600006C014F007C015F008C016F009C017F045
:10177000C60E0C6E6B0E0D6ED90E0E6E470E0F6EF2
:1017800014C007F015C008F016C009F017C00AF021
:101790006FEC1DF022EC1FF0040E06C0DBFF050EFF
:1017A00007C0DBFF060E08C0DBFF070E09C0DBFF2A
:1017B00039DF02017651EA6A230FE96E020EEA224E
:1017C000EF5057081EE1040EDBCF06F0050EDBCF0D
:1017D00007F0060EDBCF08F0070EDBCF09F00B6831
:1017E0000C680D680E6801EC34F0040E02C0DBFFDB
:1017F000050E03C0DBFF060E04C0DBFF070E05C0AD
:10180000DBFF10DF77C2E6FF76C2E6FF6CDCE55255
:10181000E552080EF3CFDBFF05DF77C2E6FF76C2A5
:10182000E6FF61DCE552E552F3CFEDF0FBDEFADED8
:1018300077C2E6FF76C2E6FFA8DCE552E55206C0B5
:1018400014F007C015F008C016F009C017F00C6AB4
:101850000D6A0E6A3F0E0F6E14C007F015C008F037
:1018600016C009F017C00AF086EC1CF0F3EC1EF06D
:1018700008C01BF209C01CF2080EDB50000802E38E
:10188000000E01D0010E0101A66F0001EC5120E015
:101890000101A6511DE0DFCF01F2010EDBCF02F204
:1018A000020EDBCF03F2030EDBCF04F2040EDBCF1C
:1018B00005F2050EDBCF06F2060EDBCF07F2070EB0
:1018C000DBCF08F21BC21DF21CC21EF20001EC6B42
:1018D000D9CFE9FFDACFEAFF02010151EE5C096FCF
:1018E0000251EE580A6F0351EE580B6F0451EE5837
:1018F0000C6FD950040FE96EDACFEAFF0551EE5CA8
:101900000D6F0651EE580E6F0751EE580F6F0851CC
:10191000EE58106F1D511B5F1E511C5B090EE15CE0
:1019200002E2E16AE552E16EE552E7CFD9FF12002B
:10193000000189510001885D01E198D00201215127
:1019400001E184D0010A67E0020A2EE0010A01E009
:101950008DD0BFEC20F00201226F22510001871BC5
:1019600002017451EA6A230FE96E020EEA2222C2D2
:10197000EFFF742B2A0E225D03E0500E745D05E12B
:101980007B6B796B030E216F0ED0240E225D09E173
:10199000746B736B756B0001876B0201010E216F15
:1019A00002D087C07AF262D0BFEC20F00201226F31
:1019B000020E7B5D27E2410E225D13E3100E7903D8
:1019C000F350146E156A0A0E2225166E176A000E61
:1019D0001722410E165E000E175A14501624796F06
:1019E0000FD0100E7903F350146E156A2251166E43
:1019F000176A300E165E000E175A14501624796FAF
:101A00007B2B08D079517A5D02E0000E01D0010EE7
:101A1000006F216B2BD0BFEC20F00201226F22510E
:101A20000001871B02017551EA6AF90FE96E010E88
:101A3000EA22EF50225D08E1040E755D03E1020E1B
:101A4000216F01D0752B01D0216B10D0BFEC20F09D
:101A50000201226F240E225D08E1746B736B756BBB
:101A60000001876B0201010E216F00D01200D9CF57
:101A7000E6FFE1CFD9FFE6520201096B0A6B0B6B5F
:101A80000C6B09C20DF20AC20EF20BC20FF20CC2AD
:101A900010F20101A56B0201006B0001010EEC6F59
:101AA0000101A66B0101BB6BBC6B0201216B746B66
:101AB00074C273F2200E226FE552E552E7CFD9FFD0
:101AC00012000201005114E0020EE66E24EC08F050
:101AD000E552040EE66E31EC08F0E5520201006BAF
:101AE000DADD0101A65103E00101BB6BBC6B31D013
:101AF000C3C114F0C4C115F0C5C116F0C6C117F0BA
:101B00000F0E1416156A166A176A1450151016105F
:101B100017101FE1BBC114F0BCC115F0166A176A9B
:101B200015AE02D0166817681734000E171809E6AC
:101B3000D880140E1454000E1554000E1654000EC6
:101B4000175403E20101A66B04D00101BB2B000E68
:101B5000BC23020EE66E31EC08F0E5520101A651FD
:101B600006E0040EE66E31EC08F0E55205D0040EF6
:101B7000E66E24EC08F0E5521200D9CFE6FFE1CF83
:0A1B8000D9FFE552E7CFD9FF1200AC
:061B8A00D9CFE6FFE1CF18
:101B9000D9FF020EE126FD0EDBCF16F0FE0EDBCFE5
:101BA00017F0010E1A6E02019251E76E1A18E8AE94
:101BB00002D0E73402D0E7501A5C02E2925101D021
:101BC000010E186E196A18BE196817501918E8AE78
:101BD00002D0193404D01850165C1950175814E26A
:101BE000010E1B6E9251E76E1B18E8AE02D0E7346F
:101BF00002D0E7501B5C02E2925101D0010E146E3C
:101C0000156A14BE156817D0FD0EDBCF1CF0FE0E52
:101C1000DBCF1DF01D3404E21C50F008000E1D54F3
:101C200004E2F00E146E156A06D0FD0EDBCF14F040
:101C3000FE0EDBCF15F014C0DEFF15C0DDFFDF5058
:101C4000146E020EE15C03E200D0E16AE552E16E3F
:101C50001450E552E7CFD9FF1200D9CFE6FFE1CF0C
:101C6000D9FF020EE126FD0EDBCF59F1FE0EDBCFD0
:101C70005AF159C157F15AC158F159C155F15AC1D8
:101C800056F1FD0EDBCF5BF1FE0EDBCF5CF1020106
:101C90008BA162D001015D5101015F5D166E605143
:101CA00001015E55176E01016151165C146E62519F
:101CB0001758156E145001015727155058230868FE
:101CC00009685FC10DF060C10EF07DEC1EF006509A
:101CD00001015D25166E07505E21176E01016151ED
:101CE000165C146E62511758156E14500101592775
:101CF00015505A23086809685FC10DF060C10EF0E5
:101D00007DEC1EF001015D51065C166E5E510758B8
:101D1000176E165001016125146E17506221156E61
:101D20001450010155271550562301015F5101013F
:101D30005D25166E0101605101015E21176E16507E
:101D400001016125146E17506221156E14500101B6
:101D50005B2715505C2345D0086809685DC10DF00C
:101D60005EC10EF07DEC1EF001016151065C146E47
:101D700062510758156E145001015727155058230A
:101D80000101615101015D5D146E5E5101016255F9
:101D9000156E14500101592715505A230868096817
:101DA0005FC10DF060C10EF07DEC1EF00650010128
:101DB0006125146E07506221156E145001015527DC
:101DC0001550562301015F5101016125146E010177
:101DD000605101016221156E145001015B271550FD
:101DE0005C23020EE15C02E2E16AE552E16EE5523B
:101DF000E7CFD9FF1200D9CFE6FFE1CFD9FF100E10
:101E0000E126010156515819E8AE02D0583504D0E8
:101E10005751555D5851565905E257C114F058C1F4
:101E200015F004D055C114F056C115F0166A15BE50
:101E300016680A0E14C0DBFF0B0E15C0DBFF0C0E7C
:101E400016C0DBFF59C117F05AC118F0196A18BE45
:101E50001968D9500A0FE96EDACFEAFF020EEB508B
:101E60001918E8AE02D0193406D01750EE5C18509D
:101E7000EE581950EE5808E259C114F05AC115F045
:101E8000166A15BE166809D00A0EDBCF14F00B0EC9
:101E9000DBCF15F00C0EDBCF16F00A0E14C0DBFF03
:101EA0000B0E15C0DBFF0C0E16C0DBFF5BC117F07D
:101EB0005CC118F0196A18BE1968D9500A0FE96E8A
:101EC000DACFEAFF020EEB501918E8AE02D019344F
:101ED00006D01750EE5C1850EE581950EE5808E234
:101EE0005BC114F05CC115F0166A15BE166809D006
:101EF0000A0EDBCF14F00B0EDBCF15F00C0EDBCF90
:101F000016F00A0E14C0DBFF0B0E15C0DBFF0C0E23
:101F100016C0DBFFFD0EDBCF17F0FE0EDBCF18F097
:101F2000196A18BE1968D9500A0FE96EDACFEAFFAC
:101F30001750EE5C146E1850EE58156E1950EE588E
:101F4000166E0D0E14C0DBFF0E0E15C0DBFF0F0E5C
:101F500016C0DBFFFD0EDBCF14F0FE0EDBCF15F05D
:101F600092C216F0176A16BE176815501718E8AE19
:101F700002D0173404D01650145C175015580AE2DA
:101F8000010EDB6A020EDB6A030EDB6A0101010E41
:101F9000FF6F85D10D0EDBCF14F00E0EDBCF15F0E9
:101FA0000F0EDBCF16F01634000E161807E6D88099
:101FB000000E1454000E1554000E165401E36DD19A
:101FC000F00E176E186A196AFD0EDBCF1AF0FE0EBE
:101FD000DBCF1BF01C6A1BBE1C681A50175C146E0A
:101FE0001B501858156E1C501958166E15C016F057
:101FF00014C015F014C015F0146A14C007F015C011
:1020000008F016C009F00D0EDBCF0CF00E0EDBCF82
:102010000DF00F0EDBCF0EF01CEC1EF0040E07C00F
:10202000DBFF050E08C0DBFF060E09C0DBFFFD0E5F
:10203000DBCF17F0FE0EDBCF18F0196A18BE196857
:1020400092C21AF01B6A1C6A1AAE02D01B681C6886
:102050001A50175C146E1B501858156E1C501958E6
:10206000166E15C016F014C015F014C015F0146AE1
:1020700014C007F015C008F016C009F00D0EDBCF34
:102080000CF00E0EDBCF0DF00F0EDBCF0EF01CECC4
:102090001EF0070E07C0DBFF080E08C0DBFF090EAD
:1020A00009C0DBFF070EDBCF17F0080EDBCF18F0FF
:1020B000090EDBCF19F0D950040FE96EDACFEAFF31
:1020C000020EEB501918E8AE02D0193406D01750A2
:1020D000EE5C1850EE581950EE580AE2040EDBCFB1
:1020E00014F0050EDBCF15F0060EDBCF16F009D08D
:1020F000070EDBCF14F0080EDBCF15F0090EDBCF97
:1021000016F0010E14C0DBFF020E15C0DBFF030E3C
:1021100016C0DBFFD950010FE96EDACFEAFF020EDD
:10212000D890EB50000A06E6000EEE5C010EEE5869
:10213000000EEF5801E3AED00101010EFF6F5DC14B
:1021400017F05EC118F0196A18BE196817C007F0B9
:1021500018C008F019C009F0DBCF0CF0020EDBCF7D
:102160000DF0030EDBCF0EF0AAEC1EF004C014F04D
:1021700005C015F006C016F0800E1426000E1522BC
:1021800016220C6A010E0D6E0E6A14C007F015C0FF
:1021900008F016C009F01CEC1EF007C014F008C0CF
:1021A00015F009C016F014C05DF115C05EF15FC1F5
:1021B00017F060C118F0196A18BE196817C007F047
:1021C00018C008F019C009F0010EDBCF0CF0020EA8
:1021D000DBCF0DF0030EDBCF0EF0AAEC1EF004C037
:1021E00014F005C015F006C016F0800E1426000E7F
:1021F000152216220C6A010E0D6E0E6A14C007F02D
:1022000015C008F016C009F01CEC1EF007C014F051
:1022100008C015F009C016F014C05FF115C060F1D8
:1022200061C117F062C118F0196A18BE196817C0A9
:1022300007F018C008F019C009F0010EDBCF0CF050
:10224000020EDBCF0DF0030EDBCF0EF0AAEC1EF07A
:1022500004C014F005C015F006C016F0800E142658
:10226000000E152216220C6A010E0D6E0E6A14C0A5
:1022700007F015C008F016C009F01CEC1EF007C0EE
:1022800014F008C015F009C016F014C061F115C0B3
:1022900062F102D00101FF6B02D00101FF6B100E51
:1022A000E15C02E2E16AE552E16EE552E7CFD9FF77
:1022B0001200D9CFE6FFE1CFD9FF040EE1260101DC
:1022C000635101014925166E0101645101014A2142
:1022D000176E010125511624146E26511720156E14
:1022E000020E14C0DBFF030E15C0DBFF020EDBCFB6
:1022F00016F0030EDBCF17F00001800E171403E079
:10230000146A156A17D0020EDBCF18F0030EDBCF6C
:1023100019F0193404E21850D808000E195404E2D8
:10232000D80E146E156A06D0020EDBCF14F0030E21
:10233000DBCF15F0020E14C0DBFF030E15C0DBFF70
:10234000020EDBCFE6FF030EDBCFE6FF86DCE552B5
:10235000E552020EDBCFE6FF030EDBCFE6FF4BDDDF
:10236000E552E5520101FF5109E0020EDBCFE6FF25
:10237000030EDBCFE6FF71DCE552E55255C1E6FF07
:1023800056C1E6FFC5EC0DF0E552E5520101556F6F
:10239000566B5BC1E6FF5CC1E6FFC5EC0DF0E55294
:1023A000E55201015B6F5C6B57C1E6FF58C1E6FF68
:1023B000C5EC0DF0E552E5520101576F586B59C15C
:1023C000E6FF5AC1E6FFC5EC0DF0E552E55201010A
:1023D000596F5A6B040EE15C02E2E16AE552E16E6C
:1023E000E552E7CFD9FF1200D9CFE6FFE1CFD9FF01
:1023F000040EE1260101B551B6112FE102018E5103
:1024000003E10201955129E08EC214F0156A14BE51
:10241000156813C108F014C109F014C00DF015C0FF
:102420000EF0F6EC1DF008C0DEFF09C0DDFF95C21E
:1024300014F0156A14BE156815C108F016C109F02C
:1024400014C00DF015C00EF0F6EC1DF0020E08C021
:10245000DBFF030E09C0DBFF0CD0010EF36E020E92
:10246000F3CFDBFF030EDB6A020EDBCFDEFFDBCF39
:10247000DDFF0101A05105E0770EDE26000EDD2212
:1024800005D001010651DE26000EDD2201010551B5
:10249000146E156AD950020FE96EDACFEAFF1450B4
:1024A000EE261550ED22DECF16F0DDCF17F0D890D6
:1024B000175004E6010E165C000E175804E2010ED8
:1024C000146E156A13D0DECF18F0DDCF19F0193471
:1024D00004E21850F008000E195404E2F00E146ED5
:1024E000156A04D0DECF14F0DDCF15F014C053F11F
:1024F000020EDBCF16F0030EDBCF17F0D89017508B
:1025000004E6010E165C000E175804E2010E146E6C
:10251000156A17D0020EDBCF18F0030EDBCF19F0CF
:10252000193404E21850F008000E195404E2F00EB9
:10253000146E156A06D0020EDBCF14F0030EDBCF4B
:1025400015F014C054F1040EE15C02E2E16AE552B8
:10255000E16EE552E7CFD9FF120025C181F126C116
:1025600082F127C183F128C184F129C185F12AC1F3
:1025700086F12BC187F12CC188F155C189F156C173
:102580008AF15BC18BF15CC18CF157C18DF158C1EF
:102590008EF159C18FF15AC190F1010153510101DE
:1025A000916F926B010154510101936F946B120072
:1025B000010119510101132701011A5101011423CD
:1025C0000101B551B6115FE180C214F00001146C35
:1025D000156A14BE156814C015F0146A010114516F
:1025E0001518E8AE02D0153404D01450135D155000
:1025F00014590AE280C213F1136D146B13BF1469EE
:1026000013C114F1136B1ED080C216F0176A16BEE8
:10261000176816C017F0166A17501419E8AE02D0E2
:10262000143504D01351165C1451175809E280C2B6
:1026300013F1146B13BF146913C114F1136B02D09F
:1026400014C114F135C114F0156A14BE1568145084
:10265000132715501423800E141507E0010E1325BF
:10266000136F000E1421146F0ED0143504E21351B1
:102670000008000E145505E2010E135F000E145BF6
:1026800002D0136B146B120001011B5101011527BD
:1026900001011C51010116230101B551B6115FE181
:1026A00085C214F00001146C156A14BE156814C0BC
:1026B00015F0146A010116511518E8AE02D0153450
:1026C00004D01450155D155016590AE285C215F153
:1026D000156D166B15BF166915C116F1156B1ED059
:1026E00085C216F0176A16BE176816C017F0166A6C
:1026F00017501619E8AE02D0163504D01551165CE5
:102700001651175809E285C215F1166B15BF1669E7
:1027100015C116F1156B02D016C116F136C114F0B1
:10272000156A14BE15681450152715501623800E0F
:10273000161507E0010E1525156F000E1621166FF0
:102740000ED0163504E215510008000E165505E2AC
:10275000010E155F000E165B02D0156B166B120092
:10276000D9CFE6FFE1CFD9FF020EE12601012B51BF
:1027700001010B2701012C5101010C2301019B5187
:102780003FE00101800E2C1509E02BC114F02CC193
:1027900015F0146C151E000E152204D02BC114F078
:1027A0002CC115F0153404E214500A08000E15541B
:1027B00004E201014F69506B23D00101523504E25C
:1027C00051511E08000E525506E21E0E01010B5F0C
:1027D000000E0C5B15D0D880525104E7E20E515D1B
:1027E000FF0E525906E21E0E01010B27000E0C23AC
:1027F00007D0515101010B5F0101525101010C5BE6
:1028000001010B510101172701010C51010118238E
:102810008AC214F00001146C156A14BE156814C045
:1028200015F0146A010118511518E8AE02D01534DC
:1028300004D01450175D155018590AE28AC217F1D6
:10284000176D186B17BF186917C118F1176B1ED0D9
:102850008AC216F0176A16BE176816C017F0166AF5
:1028600017501819E8AE02D0183504D01751165C6D
:102870001851175809E28AC217F1186B17BF186967
:1028800017C118F1176B02D018C118F1800E181576
:1028900007E0010E1725176F000E1821186F0ED0D4
:1028A000183504E217510008000E185505E2010E14
:1028B000175F000E185B02D0176B186B800E18158F
:1028C00007E0010E1725176F000E1821186F0ED0A4
:1028D000183504E217510008000E185505E2010EE4
:1028E000175F000E185B02D0176B186B020EE15CCD
:1028F00002E2E16AE552E16EE552E7CFD9FF12004C
:10290000E66A010EE66EC1EC33F0E552E552F35093
:1029100001011927F4501A23E66A020EE66EC1EC93
:1029200033F0E552E552F35001011B27F4501C230C
:102930001200D9CFE6FFE1CFD9FF020EE126010E4A
:1029400001011925196F000E1A211A6FD8901A3338
:102950001933010E01011B251B6F000E1C211C6F7A
:10296000D8901C331B330101B63504E2B551000881
:10297000000EB65569E20101195101011327010149
:102980001A510101142301011B51010115270101F5
:102990001C51010116230101010EB51901E1B651C7
:1029A00052E1080E01011327000E1423080E010145
:1029B0001527000E162301019A5118E193C214F055
:1029C000156A14BE1568010113511424136F1451B4
:1029D0001520146F94C214F0156A14BE1568010115
:1029E00015511424156F16511520166F13C114F0CC
:1029F00014C115F0040ED89015321432E804FBE12E
:102A000014C01FF115C020F115C114F016C115F046
:102A1000040ED89015321432E804FBE114C021F101
:102A200015C022F10101236B246B0101366B36C105
:102A300035F136C115F10101166B15BF166915C1C7
:102A400013F116C114F1E3D001011F510101195F07
:102A50000101205101011A5B0101215101011B5F9C
:102A60000101225101011C5B02018BA13CD001013B
:102A7000195101011B25146E01011A5101011C217C
:102A8000156E14C0DEFF15C0DDFF010119510101F3
:102A90001B5F01011A5101011C5BDECF19F1DDCF73
:102AA0001AF10101D89019371A37030E0D6E0E6A0C
:102AB00019C108F01AC109F0F6EC1DF008C019F1AF
:102AC00009C01AF10101D8901B371C37030E0D6E97
:102AD0000E6A1BC108F01CC109F0F6EC1DF008C01D
:102AE0001BF109C01CF119C16BF11AC16CF11BC1BA
:102AF0006DF11CC16EF1020EE66E0101156A192519
:102B0000146E1A51152214C0E6FF15C0E6FFD1EC71
:102B100000F0E552E552E552F3CF07F1F4CF08F1AA
:102B2000010EE66E0101156A1925146E1A5115225F
:102B300014C0E6FF15C0E6FFD1EC00F0E552E55207
:102B4000E552F3CF19F1F4CF1AF132DD020EE66E41
:102B50000101156A1B25146E1C51152214C0E6FFD5
:102B600015C0E6FFD1EC00F0E552E552E552F3CF97
:102B700009F1F4CF0AF1010EE66E0101156A1B2579
:102B8000146E1C51152214C0E6FF15C0E6FFD1ECEF
:102B900000F0E552E552E552F3CF1BF1F4CF1CF102
:102BA00073DDE66A040EE66EC1EC33F0E552E552E1
:102BB000F3CF0BF1F4CF0CF10101D8900C330B33B0
:102BC000D8900C330B3301012351241104E10BC1C4
:102BD00023F10CC124F1235101010B5F01012451A8
:102BE00001010C5B0BC11DF10CC11EF1B9DD0BC164
:102BF0006FF10CC170F113C171F114C172F115C103
:102C000073F116C174F117C175F118C176F1020E96
:102C1000E15C02E2E16AE552E16EE552E7CFD9FFFD
:102C20001200E4EC2CF0040EE66E7CC218F0196A77
:102C300018BE1968010118500703F3CF16F0F4CF3E
:102C400017F00803F350000117261950010107037C
:102C5000F350000117267EC21CF01D6A1CBE1D68C1
:102C60000101075101010D5D1A6E0E510101085558
:102C70001B6E1AC008F01BC009F01CC00DF01DC06F
:102C80000EF07DEC1EF016500624146E175007202F
:102C9000156E080E1426000E152214C0E6FF15C08E
:102CA000E6FFD1EC00F0E552E552E552F3CF5DF1DD
:102CB000F4CF5EF10101B551B6112AE1080EE66EBE
:102CC0007DC216F0176A16BE17680101165013036D
:102CD000F3CF14F0F4CF15F01403F35000011526D0
:102CE000175001011303F35000011526800E14261E
:102CF000000E152214C0E6FF15C0E6FFD1EC00F06F
:102D0000E552E552E552F35001015D27F4505E2390
:102D10000101275101015D5F0101285101015E5B45
:102D2000040EE66E81C218F0196A18BE1968010116
:102D300018500903F3CF16F0F4CF17F00A03F3503D
:102D400000011726195001010903F350000117264D
:102D500083C21CF01D6A1CBE1D68010109510101DE
:102D60000F5D1A6E105101010A551B6E1AC008F052
:102D70001BC009F01CC00DF01DC00EF07DEC1EF054
:102D800016500624146E17500720156E080E1426D0
:102D9000000E152214C0E6FF15C0E6FFD1EC00F0CE
:102DA000E552E552E552F3CF5FF1F4CF60F1010156
:102DB000B551B6112AE1080EE66E82C216F0176A06
:102DC00016BE1768010116501503F3CF14F0F4CFA7
:102DD00015F01603F35000011526175001011503D5
:102DE000F35000011526800E1426000E152214C083
:102DF000E6FF15C0E6FFD1EC00F0E552E552E552E2
:102E0000F35001015F27F4506023010129510101B2
:102E10005F5F01012A510101605B040EE66E86C20C
:102E200018F0196A18BE1968010118500B03F3CF86
:102E300016F0F4CF17F00C03F350000117261950C9
:102E400001010B03F3500001172688C21CF01D6A14
:102E50001CBE1D6801010B510101115D1A6E12515A
:102E600001010C551B6E1AC008F01BC009F01CC0F4
:102E70000DF01DC00EF07DEC1EF016500624146EF1
:102E800017500720156E080E1426000E152214C0C8
:102E9000E6FF15C0E6FFD1EC00F0E552E552E55241
:102EA000F3CF61F1F4CF62F1080EE66E87C216F03F
:102EB000176A16BE1768010116501703F3CF14F0F6
:102EC000F4CF15F01803F350000115261750010137
:102ED0001703F35000011526800E1426000E15224C
:102EE00014C0E6FF15C0E6FFD1EC00F0E552E55254
:102EF000E552F35001016127F450622389C214F0B6
:102F00000001146C156A14BE156801016251151890
:102F1000E8AE02D0153404D01450615D15506259EA
:102F200007E289C261F1616D626B61BF626918D0AD
:102F300089C216F0176A16BE176817506219E8AEF4
:102F400002D0623504D06151165C6251175806E216
:102F500089C261F1626B61BF626902D062C162F1D4
:042F600070EF07F017
:0C2F640035EC32F0420EE66E57EC32F015
:102F7000E552000901E039D0470EE66E57EC32F019
:102F8000E552000901E031D0740EE66E57EC32F0E4
:102F9000E552000901E029D0720EE66E57EC32F0DE
:102FA000E552000901E021D047EC32F035EC32F077
:102FB000420EE66E57EC32F0E552000901E015D002
:102FC0004C0EE66E57EC32F0E552000901E00DD0F0
:102FD00047EC32F0320EE66EE66A28EC00F0E5527D
:102FE000E5520101010E9B6F04D001019B6B47EC80
:102FF00032F01200D9CFE6FFE1CFD9FF0B0EE12668
:1030000001019B5101E160D135EC32F0430EE66ED7
:1030100057EC32F0E552E76E0A0EE7CFDBFFE66AC7
:103020008BEC32F0E552166E176A16C017F0166A6E
:1030300016C0E6FF17C0E6FF010EE66E8BEC32F01D
:10304000E552E552E7CF17F0E552E7CF16F0000161
:103050001610146E17C015F0040E14C0DBFF050E19
:1030600015C0DBFF47EC32F0040EDBCF14F0050E89
:10307000DBCF15F0166A176A15AE02D0166817680E
:10308000460E0B6E0C0E0C6E0D6A0E6A14C006F026
:1030900015C007F016C008F017C009F001EC34F0B5
:1030A00002C014F003C015F004C016F005C017F0FC
:1030B000080E0B6E070E0C6E0D6A0E6A14C006F039
:1030C00015C007F016C008F017C009F049EC1EF053
:1030D00006C014F007C015F008C016F009C017F0BC
:1030E000230E145E060E155A000E165A175A060EB7
:1030F00014C0DBFF070E15C0DBFF080E16C0DBFF98
:10310000090E17C0DBFF060EDBCFE6FF070EDBCF95
:10311000E6FFFBEC02F0E552E552F3CF2DF1F4CFE0
:103120002EF1D950040FE96EDACFEAFF0F0E0D6EC3
:103130000E6AEECF08F0EDCF09F0F6EC1DF008C0F6
:10314000EEFF09C0EDFF040EDBCFDEFFDBCFDDFFBE
:103150000101503504E24F51F008000E505508E2CD
:103160000101516B526B01014F07000E505B9CD067
:10317000F00E4F1901E1505107E1DECF4FF1DDCFE5
:1031800050F10101516B526B0101DE504F5D146E25
:10319000DD505059156E14C0DEFF15C0DDFFDECFC7
:1031A00014F0DDCF15F0153404E314508808FF0E39
:1031B000155405E3F00EDE26000EDD2213D0DECF1F
:1031C00014F0DDCF15F0153404E214507808000E29
:1031D000155408E2D9CFE9FFDACFEAFFF00EEE5E30
:1031E000000EED5ADECF16F0DDCF17F0D880175065
:1031F00004E7EC0E165CFF0E175804E2EC0E146E9A
:10320000156813D0DECF18F0DDCF19F0193404E2C1
:1032100018501408000E195404E2140E146E156AA6
:1032200004D0DECF14F0DDCF15F014C0DEFF15C0E2
:10323000DDFF080EE66E51C118F052C119F0030E01
:103240001902F3CF19F01802F3CF18F0F450192631
:10325000DE501824166EDD501920176ED8901636E1
:103260001736D8901636173696C21AF01B6A1ABE51
:103270001B6800011A501602F3CF14F0F4CF15F0BA
:103280001702F35015261B501602F350152614C0D2
:10329000E6FF15C0E6FFD1EC00F0E552E552E5523D
:1032A000F3CF51F1F4CF52F10101B551B6110BE159
:1032B000DECF65F1DDCF66F10101D8906537663765
:1032C000D890653766370AD001012D6B2E6B01014E
:1032D000B551B61103E10101656B666B0B0EE15C44
:1032E00002E2E16AE552E16EE552E7CFD9FF120052
:1032F00035EC32F0EE0EE66E57EC32F0E552000996
:1033000001E04BD0F60EE66E57EC32F0E5520009C4
:1033100001E043D035EC32F0EF0EE66E57EC32F0C0
:10332000E552000901E039D0010EE66E8BEC32F077
:10333000E5520101476F486B47C148F1476B47ECC5
:1033400032F035EC32F0EE0EE66E57EC32F0E5522C
:10335000000901E022D0F70EE66E57EC32F0E5529C
:10336000000901E01AD035EC32F0EF0EE66E57ECB2
:1033700032F0E552000901E010D0010EE66E8BEC50
:1033800032F0E552146E156A1450010147131550BE
:10339000481347EC32F0010E06D047EC32F0010141
:1033A0009C6B000E00D01200D9CFE6FFE1CFD9FF11
:1033B00035EC32F0EE0EE66E57EC32F0E5520009D5
:1033C00001E01FD0F40EE66E57EC32F0E552000932
:1033D00001E017D0FE0EDBCFE6FF57EC32F0E552EE
:1033E000000901E00ED047EC32F0FE0EDB50010187
:1033F0004C5D02E0000E01D0010E01019D6F010E37
:1034000004D047EC32F0000E00D0E552E7CFD9FFF0
:103410001200D9CFE6FFE1CFD9FFE652000E01013D
:10342000C16FC26B0101496F4A6B35EC32F0EE0E91
:10343000E66E57EC32F0E552000901E05DD0D00EA7
:10344000E66E57EC32F0E552000901E055D035EC5C
:1034500032F0EF0EE66E57EC32F0E552000901E073
:103460004BD0010EE66E8BEC32F0E55201014B6F52
:1034700047EC32F0550E01014B5D04E101012E0EC7
:103480004C6F03D001016E0E4C6F4CC1E6FF8CDF18
:10349000E552000901E130D00A0EE66EE66A28EC3A
:1034A00000F0E552E55224DFDF6E47C140F148C12C
:1034B00041F10101426BF40EE66E76DFE552000940
:1034C00001E11AD01E0EE66EE66A28EC00F0E55225
:1034D000E5520EDFDF6E47C13DF148C13EF101010B
:1034E0003F6B4CC1E6FF60DFE552000901E104D00B
:1034F0000101010E9C6F06D00101A86BA8C19CF1CF
:1035000047EC32F0E552E552E7CFD9FF1200D9CFB0
:10351000E6FFE1CFD9FF060EE1260101C12B000E27
:10352000C22301019C5101E1AAD1080E0101C2AFE1
:1035300002D0D89003D0C15D000EC25903E301014F
:103540009D510FE1200E0101C2AF02D0D89003D0EF
:10355000C15D000EC25901E292D101019D5101E00D
:103560008ED10101C16BC26BC3DE010801E087D1BE
:1035700001019D5123E0F40EE66E16DFE5520101D4
:10358000B751B81107E047C140F148C141F101010D
:10359000426B13D047C117F048C118F0196A0101F6
:1035A0004051175C146E41511858156E425119580C
:1035B000166E14C045F115C046F161D14CC1E6FF4D
:1035C000F3DEE5520101B751B8110CE047C13DF1FE
:1035D00048C13EF101013F6B0101A86B0101496B3C
:1035E0004A6B4DD101014EBF06D0800EE66E24EC31
:1035F00008F0E55205D0800EE66E31EC08F0E55299
:103600000101A85106E10101436B446B0101010E68
:10361000A86F01013D510101475F01013E510101C8
:10362000485B050EE66E7FC216F0176A16BE176875
:10363000010116504503F3CF14F0F4CF15F0460303
:10364000F35000011526175001014503F350000106
:103650001526100E1426000E152214C0E6FF15C004
:10366000E6FFD1EC00F0E552E552E552F3500101DE
:103670004727F450482343C1DEFF44C1DDFF030E5A
:10368000E66E070E086E096A43C10DF044C10EF0E4
:103690007DEC1EF0065001014725146E07504821AD
:1036A000156E040E1426000E152214C0E6FF15C078
:1036B000E6FFD1EC00F0E552E552E552F3CF43F1DD
:1036C000F4CF44F10101DE50435D146EDD504459E6
:1036D000156E040E14C0DBFF050E15C0DBFFD8808D
:1036E000445104E7FE0E435DFF0E445904E2FE0E12
:1036F000436F44690DD0443504E243510808000E7D
:10370000445504E2080E436F446B02D044C144F1B7
:1037100084C214F0156A14BE156843C108F044C190
:1037200009F014C00DF015C00EF07DEC1EF0020E75
:1037300006C0DBFF030E07C0DBFF020EDBCF14F079
:10374000030EDBCF15F0010115504A19E8AE02D087
:103750004A3504D04951145C4A51155804E24907CE
:10376000000E4A5B14D0020EDBCF14F0030EDBCF49
:1037700015F04A511518E8AE02D0153404D0145093
:10378000495D15504A5903E2492B000E4A23020EA7
:10379000DBCF14F0030EDBCF15F015504A19E8AE5D
:1037A00002D04A3504D04951145C4A51155803E2FD
:1037B0004907000E4A5B97C21AF01B6A1ABE1B68C3
:1037C000040EDBCF16F0050EDBCF17F0D8801750B4
:1037D00004E7FB0E165CFF0E175804E2FB0E146E96
:1037E000156817D0040EDBCF18F0050EDBCF19F0EB
:1037F000193404E218500808000E195404E2080EA7
:10380000146E156A06D0040EDBCF14F0050EDBCF64
:1038100015F014C008F015C009F01AC00DF01BC057
:103820000EF07DEC1EF006500101492707504A2397
:10383000D8804A5104E7FB0E495DFF0E4A5904E265
:10384000FB0E496F4A690DD04A3504E249510F0811
:10385000000E4A5504E20F0E496F4A6B02D04AC16E
:103860004AF101014EBF06D0800EE66E24EC08F04E
:10387000E55205D0800EE66E31EC08F0E55201010C
:10388000B551B61123E101019C511BE0040E49C161
:1038900067F14AC168F1000A06E00101D890673774
:1038A0006837E804FBE1040E43C169F144C16AF1E1
:1038B000000A06E00101D89069376A37E804FBE1A5
:1038C00005D00101676B686B696B6A6B060EE15C82
:1038D00002E2E16AE552E16EE552E7CFD9FF12005C
:1038E000019E08D0019E09AE05D0086C091EE86A49
:1038F0000922018E09C003F008C002F0136A126A9F
:103900008E0E046E056A75EF1FF00F7E016AB1EC32
:103910001FF0C9EC1FF001B659EF1FF001A20AD049
:1039200001AA03D001BE59EF1FF001A465EF1FF0FB
:1039300062EF1FF001AA05D001AC65EF1FF062EF46
:103940001FF001A00AD001A808D001BE04D001A434
:1039500002D06EEF1FF072EF1FF0126A056A0F506F
:103960000A5C116E10E307C013F008C002F009C032
:1039700003F00AC010F00CC007F00DC008F00EC034
:1039800009F0013A09D00CC013F00DC002F00EC0CE
:1039900003F00FC010F0116C019E01BC018E10C02D
:1039A00004F001B0A1EF1FF01A0E1160A1EF1FF09B
:1039B000046A0A6A01A408D0076C081E091E0A1EC0
:1039C000E86A082209220A2201AC08D0136C021E00
:1039D000031E041EE86A022203220422066A115210
:1039E00007E00A340932083207320632112EF9D7BD
:1039F0000750132608500222095003220A500422BD
:103A000006C012F0019E04AE0BD0126C131E021EF3
:103A1000031E041EE86A1322022203220422018EDE
:103A200004A006D0D8800332023213321232102A98
:103A300010C004F075EF1FF0016AB1EC1FF0C9EC83
:103A40001FF001B659EF1FF001A205D001BA59EFDE
:103A50001FF060EF1FF001BA6CEF1FF001A005D05E
:103A600001B859EF1FF06CEF1FF001B860EF1FF0C5
:103A7000056A7F0E0A24046EE86A05220F50045E70
:103A8000E86A055A1A0E106E0A6A126A136A026A06
:103A9000036A0C50075E0D50085A0E50095A000E6A
:103AA0000A5A09E70C5007260D5008220E50092229
:103AB000000E0A2201D0128AD8900736083609363D
:103AC0000A36D8901236133602360336102EE1D756
:103AD000095008100710D8A4128A75EF1FF0016A68
:103AE000B1EC1FF0C9EC1FF001B659EF1FF001A2B5
:103AF00005D001B859EF1FF060EF1FF001AA05D003
:103B000001B059EF1FF060EF1FF001B002D001A823
:103B100002D06CEF1FF0056A0F500A24046EE86AA9
:103B200005227E0E045EE86A055A126A136A026A6A
:103B3000036A0E500902F4CF03F0F3CF02F00D50E8
:103B40000902F3501326F4500222000E03220E50F5
:103B50000802F3501326F4500222000E03220C50E8
:103B60000902F3501226F4501322000E02220322FF
:103B70000D500802F3501226F4501322000E0222B8
:103B800003220E500702F3501226F4501322000EA7
:103B9000022203220C500802F4501226000E1322B7
:103BA000022203220D500702F4501226000E1322A7
:103BB0000222032275EF1FF0006A0EAEE2EF1DF045
:103BC0000E6C001E09AEE7EF1DF0096C001E9EECA6
:103BD00035F009BEF1EF1DF000AE000C096C056C6C
:103BE000000C00BEEEEF1DF00188FF0C006A0EAE67
:103BF000FFEF1DF00D6C0E1EE86A0E22001E09AECE
:103C000007EF1EF0086C091EE86A0922001E7AEC14
:103C100035F009BE17EF1EF000AE000C086C091E4F
:103C2000E86A0922046C051EE86A0522000C00BE41
:103C30000EEF1EF00188FF0C006A0EAE27EF1EF09B
:103C40000C6C0D1E0E1EE86A0D220E22001E09AE1F
:103C500031EF1EF0076C081E091EE86A08220922CF
:103C6000001EDBEC34F009BE44EF1EF000AE000C89
:103C7000076C081E091EE86A08220922036C041E4C
:103C8000051E04220522000C00BE38EF1EF001883C
:103C9000FF0C006AE86A0EAE56EF1EF00B6C0C1EAD
:103CA0000D1E0E1E0C220D220E22001E09AE61EF0B
:103CB0001EF0066C071E081E091E07220822092294
:103CC000001E96EC34F009BE78EF1EF000AE000C3A
:103CD000066C071E081E091EE86A07220822092230
:103CE000026C031E041E051E032204220522000C82
:103CF00000BE68EF1EF00188FF0C09C013F008C079
:103D000012F008500D02F4CF07F0F3CF06F009507F
:103D10000E02F4CF09F0F3CF08F00D02F35007269E
:103D2000F4500822E86A092212500E02F3500726C6
:103D3000F4500822E86A09220EAEA3EF1EF01250DA
:103D4000085E1350095A13AE000C0D50085E0E5059
:103D5000095A000C09C013F008C012F007C011F096
:103D600007500C02F4CF05F0F3CF04F008500D0219
:103D7000F4CF07F0F3CF06F00C02F3500526F45011
:103D80000622E86A072211500D02F3500526F4506E
:103D90000622E86A072209500C02F3500626F45066
:103DA000072209500D02086AE86A0822F350072624
:103DB000F450082211500E02F3500626F450072248
:103DC000096AE86A0822092212500E02F3500726F7
:103DD000F4500822E86A092213500E02F350082614
:103DE000F4500922000C016AB1EC1FF001B6FDEF9E
:103DF0001EF001A20ED001B405D07F0E096EFF0E99
:103E0000086E1FD0800E096E086A1BD0096A086A06
:103E100018D001B0FBD78F0E0A60EDD77E0E0A6472
:103E2000F5D78E0E0A5C05E0D890093208320A2ACE
:103E3000F8D701A406D0086C091EE86A092209AE69
:103E4000E5D71200016AB1EC1FF001B62CEF1FF0AC
:103E500001A20FD001B407D07F0E096EFF0E086ECD
:103E6000076E066E25D0800E096E01D0096A000E1D
:103E7000F6D701B0FBD7066A9F0E0A60EBD77E0E1D
:103E80000A64F4D79E0E0A5C07E0D8900932083223
:103E9000073206320A2AF6D701A40AD0066C071E9A
:103EA000081E091EE86A07220822092209AEDED789
:103EB00012007F0E0A6EFF0E096E086E076E12006A
:103EC0007F0E01BEFF0E0A6E02D07F0E0A6E800EBC
:103ED000096E086A076AF3D701AE04D0800E0A6E35
:103EE000096AF7D70A6A096AF4D703500210131057
:103EF0001210F8E005BEF0D703BE0CD00450051038
:103F0000EBE0D89012361336023603360406D8A0FA
:103F10000506F2D70550D4E10428D2E012AE11D044
:103F20007F0E121402E113A00CD0132AE86A0222B9
:103F3000032207E3D880033202321332042A042812
:103F4000BFE00450C9E013C007F002C008F003341A
:103F5000096E04300A6E09320A9E01BE0A8E5FEFB6
:103F60001FF009360A3602E30184017E06E1018072
:103F70000A6A096A086A076A12000A2803E0D880F8
:103F800009321200D890093202E101821200018642
:103F900012000E360F3602E3018C017E06E1018825
:103FA0000F6A0E6A0D6A0C6A12000F2803E0D880AF
:0E3FB0000E321200D8900E32EAE1018A1200A1
:023FBE00D9CF59
:103FC000E6FFE1CFD9FFFD0EDBCFF6FFFE0EDBCF24
:103FD000F7FF0800F5500FE0FD0EDBCFF6FFDB2A00
:103FE000FE0EDBCFF7FF01E3DB2A0800F550E66E9B
:103FF00006D8E552E8D7E552E7CFD9FF1200D9CF6E
:10400000E6FFE1CFD9FF9EA8FED7FE0EDB50AD6ED6
:10401000E552E7CFD9FF1200D9CFE6FFE1CFD9FFB4
:10402000640E146E14C00EF0FE0EDBCF09F09EEC91
:1040300035F00950300FE66EE2DFE552640E146E83
:1040400014C00EF0FE0EDBCF09F09EEC35F0FE0E34
:1040500005C0DBFF0A0E146E14C00EF0FE0EDBCF9F
:1040600009F09EEC35F00950300FE66EC8DFE552DE
:104070000A0E146E14C00EF0FE0EDBCF09F09EEC9B
:1040800035F0FE0E05C0DBFFDB50300FE66EB7DF0C
:10409000E552E552E7CFD9FF1200D9CFE6FFE1CFD5
:1040A000D9FFFE0EDBCF14F014340BE32D0EE66EB9
:1040B000A6DFE552FE0EDB50FF0DFE0EF3CFDBFF59
:1040C00004D02B0EE66E9BDFE552FE0EDBCFE6FF43
:1040D000A3DFE552E552E7CFD9FF12000D0EE66EE1
:1040E0008EDFE5520A0EE66E8ADFE5521200D9CF66
:1040F000E6FFE1CFD9FFFE0EDB50090808E2FE0E15
:10410000DB50410FF60FE66E7ADFE55206D0FE0E69
:10411000DB50300FE66E73DFE552E552E7CFD9FF93
:104120001200D9CFE6FFE1CFD9FFFE0EDB380F0B2F
:10413000E66EDDDFE552FE0EDB500F0BE66ED7DFDD
:10414000E552E552E7CFD9FF1200D9CFE6FFE1CF24
:10415000D9FFFD0EDBCF14F0FE0EDBCF15F015C03E
:1041600014F0156A1450E66EDCDFE552FD0EDBCF6D
:10417000E6FFD7DFE552E552E7CFD9FF1200D9CFEE
:10418000E6FFE1CFD9FFE65200018851EA6A8A0FC3
:10419000E96E000EEA22EFCFDFFF8829146E156A60
:1041A000166A176A3F0E1416156A166A176A14C043
:1041B00088F0DF5000D0E552E552E7CFD9FF12007A
:1041C000D9CFE6FFE1CFD9FFE6529DAA1FD000016B
:1041D00088510001895D16E000018851EA6A8A0F62
:1041E000E96E000EEA22EFCFDFFF8829146E156A10
:1041F000166A176A3F0E1416156A166A176A14C0F3
:1042000088F001D0DF6ADF5018D017D09EAA13D0F3
:10421000AB50020B03E1AB50040B05E0AB98AB884D
:10422000AE50DF6E08D0AE50DF6EDFCFE6FFE7DEC8
:10423000E552DF5002D0000E00D0E552E552E7CF44
:10424000D9FF1200D9CFE6FFE1CFD9FF020EE12658
:10425000010EDB6AB5DFDF6E300EDF5CFBE3DF50A3
:104260003908F8E3300EDF5C0A0D010EF3CFDBFFF7
:10427000A7DFDF6E300EDF5CFBE3DF503908F8E3C9
:10428000300EDF5C146E010EDBCFE7FF1450E72623
:10429000010EE7CFDBFFDB50146E020EE15C03E2A0
:1042A00000D0E16AE552E16E1450E552E7CFD9FF44
:1042B0001200D9CFE6FFE1CFD9FF030EE126010EB0
:1042C000DB6A020EDB6A7CDFDF6E300EDF5C03E34D
:1042D000DF50390803E22D0EDF5CF5E12D0EDF5CC7
:1042E0000DE1010EF36E020EF3CFDBFF69DFDF6E2F
:1042F000300EDF5CFBE3DF503908F8E3300EDF5CA3
:104300000A0D010EF3CFDBFF5BDFDF6E300EDF5CEB
:10431000FBE3DF503908F8E3300EDF5C146E010E6A
:10432000DBCFE7FF1450E726010EE7CFDBFF020EDD
:10433000DB5006E0010EDB50FF0D010EF3CFDBFF7B
:10434000010EDB50146E030EE15C03E200D0E16A63
:10435000E552E16E1450E552E7CFD9FF1200D9CFF4
:10436000E6FFE1CFD9FF170EE126D950FB0FE96E2A
:10437000FF0EDA20EA6ED890030EEB50000A08E632
:10438000000EEE5C000EEE58000EEE58000EEE58D9
:1043900023E22D0EE66E33DEE552FB0EDBCF06F098
:1043A000FC0EDBCF07F0FD0EDBCF08F0FE0EDBCFFF
:1043B00009F00B680C680D680E6801EC34F0FB0E18
:1043C00002C0DBFFFC0E03C0DBFFFD0E04C0DBFF01
:1043D000FE0E05C0DBFF04D0200EE66E10DEE552B7
:1043E0000C0EDB6AFB0EDBCF06F0FC0EDBCF07F01A
:1043F000FD0EDBCF08F0FE0EDBCF09F00A0E0B6ED0
:104400000C6A0D6A0E6A49EC1EF00F0E06C0DBFF47
:10441000100E07C0DBFF110E08C0DBFF120E09C033
:10442000DBFF0F0EDBCF18F0100EDBCF19F0110EF3
:10443000DBCF1AF0120EDBCF1BF00A0E0B6E0C6AEC
:104440000D6A0E6A18C006F019C007F01AC008F00D
:104450001BC009F001EC34F002C018F003C019F0E1
:1044600004C01AF005C01BF0D950FB0FE96EFF0E17
:10447000DA20EA6E1850EE5C146E1950EE58156E84
:104480001A50EE58166E1B50EE58176E0D0E14C0D3
:10449000DBFFDB50300FE66ED9CF14F0DACF15F02A
:1044A0000C0EDBCFF3FFDB2AF350166E176A16BE35
:1044B000176814501624E96E15501720EA6EE5525D
:1044C000E750EF6ED9500F0FE96EDACFEAFFFB0E1F
:1044D000EECFDBFFFC0EEECFDBFFFD0EEECFDBFF02
:1044E000FE0EEECFDBFFFB0EDBCF07F0FC0EDBCFCB
:1044F00008F0FD0EDBCF09F0FE0EDBCF0AF00A3428
:10450000000E0A1809E6D880000E0754000E085461
:10451000000E0954000E0A5401E264D70C0EDBCFE2
:1045200014F0FA0EDB28E76E1418E8AE02D0E73478
:1045300002D0E750145C16E2FA0EDBCF15F0000E45
:10454000E76E1518E8AE02D0153403D0E750D880D6
:10455000155408E2300EE66E52DDE5522E0EE66E80
:104560004EDDE552FA0EDBCFE6FF0C0EDB50E552D6
:10457000E75CFF0FE76E0E0EE7CFDBFFDBCF14F03B
:10458000143439E20E0EDBCF14F0156A166A176A7E
:1045900014AE03D0156816681768130E14C0DBFF3D
:1045A000140E15C0DBFF150E16C0DBFF160E17C06C
:1045B000DBFFD950130FE96EDACFEAFFD890030E74
:1045C000EB50000A08E6000EEE5C000EEE58000EFE
:1045D000EE58000EEE580FE3300EE66E10DDE55299
:1045E000D950130FE96EDACFEAFFEE06000EEE5A4D
:1045F000EE5AEE5ADED70C0EDB06D9CF14F0DACF26
:1046000015F0DBCF16F0176A16BE17681450162483
:10461000E96E15501720EA6EEF50E66EF0DCE552B9
:10462000FA0EDB50F36E0C0EDB50F35C12E10C0E55
:10463000DBCF14F0000EE76E1418E8AE02D014348D
:1046400003D0E750D880145404E22E0EE66ED7DC77
:10465000E5520C0EDBCF14F0000EE76E1418E8AE36
:1046600002D0143403D0E750D8801454C4E3F90EB8
:10467000DB5005E0F90EDBCFE6FFC1DCE552170E9B
:10468000E15C02E2E16AE552E16EE552E7CFD9FF73
:02469000120016
:0E469200560EE66E660EE66EDFEC1FF0E55289
:1046A000E5521200D9CFE6FFE1CFD9FFFE0EDB5075
:1046B0000BE0B60EE66E620EE66EDFEC1FF0E55222
:1046C000E5520101010E046F240EE66E630EE66EE4
:1046D000DFEC1FF0E552E55201019A5109E04D0E61
:1046E000E66E660EE66EDFEC1FF0E552E55208D08E
:1046F0003D0EE66E660EE66EDFEC1FF0E552E5520B
:10470000340EE66E660EE66EDFEC1FF0E552E55203
:1047100001019B5109E04D0EE66E660EE66EDFEC80
:104720001FF0E552E55208D03D0EE66E660EE66ECD
:10473000DFEC1FF0E552E5522E0EE66E660EE66ED9
:10474000DFEC1FF0E552E55201019C5116E0550ED9
:1047500001014B5D09E1250EE66E660EE66EDFECAB
:104760001FF0E552E55208D01C0EE66E660EE66EAE
:10477000DFEC1FF0E552E55208D03D0EE66E660E06
:10478000E66EDFEC1FF0E552E55200EC02F0100E91
:10479000E66E660EE66EDFEC1FF0E552E5520201B2
:1047A0008B417F0B010B06E0330EE66EFFEC1FF032
:1047B000E55205D0310EE66EFFEC1FF0E552F50E26
:1047C000E66E650EE66EDFEC1FF0E552E552010184
:1047D0000451146E156A153404E214507708000E63
:1047E000155406E2320EE66EFFEC1FF0E55205D0DE
:1047F000310EE66EFFEC1FF0E5524BDFE552E7CFDE
:10480000D9FF1200D9CFE6FFE1CFD9FF090EE1268B
:104810000101A55101E042D2E0EC20F0E76E020E6A
:10482000E7CFDBFFDB5001E139D2020EDBCFE6FF41
:1048300070EC34F0E552F3CF14F0F4CF15F01450CF
:10484000151009E0020EDBCFE6FF82EC34F0E552F2
:10485000020EF3CFDBFF020EDB503F0A01E114D260
:104860007D0A01E10CD2100A01E1ACD11C0A01E180
:1048700080D11D0A01E179D11E0A62E0010A01E03E
:104880000DD2DA0EE66E650EE66EDFEC1FF0E55235
:10489000E55201010451146E156A153404E21450F6
:1048A0007708000E155406E2320EE66EFFEC1FF09C
:1048B000E55205D0310EE66EFFEC1FF0E55200EC3C
:1048C00002F0010EF36E030EF3CFDBFF7C0EDE6E03
:1048D000020EDD6EDECF14F0DDCF15F0970ED8801E
:1048E0001454020E15542AE3CE0EE66E650EE66EE3
:1048F000DFEC1FF0E552E552030EDBCFF3FFDB2ABE
:10490000F350E66E0CEC20F0E552CA0EE66E650E32
:10491000E66EDFEC1FF0E552E552DECFE9FFDDCFBA
:10492000EAFF080EEFCFDBFFDBCFE6FF4DEC20F018
:10493000E552DF2A010E01E3DB2ACCD7AADEAED195
:1049400080B811D1020EE66E24EC08F0E552CE0ECE
:10495000E66E650EE66EDFEC1FF0E552E55222ECE6
:1049600021F0FF0FE76E030EE7CFDBFFCA0EE66E06
:10497000650EE66EDFEC1FF0E552E55259EC21F0D2
:10498000E76E080EE7CFDBFF01010451146E156AD4
:10499000153404E214507708000E155408E2200E76
:1049A000F36E040EF3CFDBFF050EDB6A04D0040EBA
:1049B000DB6A050EDB6A030EDB50146E156A8B0E84
:1049C000166E020E176E7C0E165E020E175A1650E9
:1049D000141802E11750151802E1080EDB96080EB4
:1049E000DBCFE6FF030EDB50E76E040EDBCF14F0E7
:1049F000050EDBCF15F0E7501426000E15221450DB
:104A0000E66E6DEC02F0E552E552030EDB50146EDB
:104A1000156A8B0E166E020E176E7C0E165E020E57
:104A2000175A1650141802E1175015184EE10101DB
:104A30000451146E156A153404E214507708000E00
:104A4000155405E2040EDB6A050EDB6A07D0200E62
:104A5000F36E040EF3CFDBFF050EDB6A080EDB906E
:104A6000DB94DB96DB9ADB9CDB9EDBCFE6FF030E61
:104A7000DB50E76E040EDBCF14F0050EDBCF15F034
:104A8000E7501426000E15221450E66EECEC01F0EF
:104A9000E552ED0BE552E710E76E080EE7CFDBFFBE
:104AA000DBCFE6FF030EDB50E76E040EDBCF14F026
:104AB000050EDBCF15F0E7501426000E152214501A
:104AC000E66E6DEC02F0E552E5520201873504E333
:104AD000FF0E8703F35001D08751166E176A16BE7A
:104AE00017688AC218F0196A18BE196800011850B0
:104AF0001602F3CF14F0F4CF15F01702F350152679
:104B000019501602F3501526153404E214507F088C
:104B1000000E155423E27F0E146E87C20EF014C0EF
:104B200009F0DCEC1DF0080E09C0DBFFDBCFE6FF6F
:104B30008A0E166E020E176E7C0E165E020E175A45
:104B4000040EDB501624146E050EDB501720156E74
:104B50001450E66E6DEC02F0E552E552020EE66E80
:104B600031EC08F0E55295DD99D0E66A9BDDE5521F
:104B700095D0BA0EE66E650EE66EDFEC1FF0E552DC
:104B8000E55237C1E6FF4DEC20F0E552B30EE66E7C
:104B9000650EE66EDFEC1FF0E552E55238C1E6FF28
:104BA0004DEC20F0E552AD0EE66E650EE66EDFECE4
:104BB0001FF0E552E55239C1E6FF4DEC20F0E55219
:104BC00068DD6CD0A80EE66E650EE66EDFEC1FF0B9
:104BD000E552E55200C1E6FF0CEC20F0E552A40ED0
:104BE000E66E650EE66EDFEC1FF0E552E55201C1A0
:104BF000E6FF4DEC20F0E552A00EE66E650EE66E87
:104C0000DFEC1FF0E552E55202C1E6FF4DEC20F06B
:104C1000E5529C0EE66E650EE66EDFEC1FF0E55287
:104C2000E55203C1E6FF4DEC20F0E552980EE66E2A
:104C3000650EE66EDFEC1FF0E552E55204C1E6FFBB
:104C40000CEC20F0E552940EE66E650EE66EDFEC9D
:104C50001FF0E552E55205C1E6FF0CEC20F0E552ED
:104C6000900EE66E650EE66EDFEC1FF0E552E55243
:104C700006C1E6FF0CEC20F0E5520BDD0FD080B84A
:104C800003D0F29E80EC3EF0A90EE66E630EE66E57
:104C9000DFEC1FF0E552E552FCDC00D0090EE15CD0
:104CA00002E2E16AE552E16EE552E7CFD9FF120078
:104CB000C3C114F0C4C115F0C5C116F0C6C117F0C8
:104CC0000F0E1416156A166A176A1450151016106E
:104CD000171026E1010125C114F026C115F02507A2
:104CE000000E265B0001800E151404E00101256B07
:104CF000266B16D0010125C116F026C117F0250735
:104D0000000E265B173404E21650F008000E17540C
:104D100004E2F00E256F266B03D02507000E265BFC
:104D20001200D9CFE6FFE1CFD9FF100EE126FB0E2E
:104D3000DBCF18F0FC0EDBCF19F01A6A1B6A19AE34
:104D400002D01A681B6802010D51185C146E0E51D6
:104D50001958156E0F511A58166E10511B58176EB0
:104D6000040E14C0DBFF050E15C0DBFFFD0EDBCF0C
:104D700018F0FE0EDBCF19F01A6A1B6A19AE02D0CA
:104D80001A681B6802010951185C146E0A511958FF
:104D9000156E0B511A58166E0C511B58176E060ED5
:104DA00014C0DBFF070E15C0DBFF040EDBCF16F0CF
:104DB000050EDBCF17F0D880175004E7C00E165C45
:104DC000FF0E175804E2C00E146E156817D0040EBB
:104DD000DBCF18F0050EDBCF19F0193404E21850C0
:104DE0004008000E195404E2400E146E156A06D0F5
:104DF000040EDBCF14F0050EDBCF15F0080E14C047
:104E0000DBFF090E15C0DBFF060EDBCF16F0070E29
:104E1000DBCF17F0D880175004E7C00E165CFF0EEA
:104E2000175804E2C00E146E156817D0060EDBCFBB
:104E300018F0070EDBCF19F0193404E218504008BF
:104E4000000E195404E2400E146E156A06D0060EC8
:104E5000DBCF14F0070EDBCF15F00A0E14C0DBFF1A
:104E60000B0E15C0DBFF080EDBCF08F0090EDBCF01
:104E700009F0080EDBCF0DF0090EDBCF0EF07DEC54
:104E80001EF006C01AF007C01BF00A0EDBCF08F0B8
:104E90000B0EDBCF09F00A0EDBCF0DF00B0EDBCFD4
:104EA0000EF07DEC1EF01A500624186E1B500720E1
:104EB000196E0001800E191405E0146A156A166A4D
:104EC000176A6DD0080EDBCF08F0090EDBCF09F0B2
:104ED000080EDBCF0DF0090EDBCF0EF07DEC1EF0DF
:104EE00006C020F007C021F00A0EDBCF08F00B0E41
:104EF000DBCF09F00A0EDBCF0DF00B0EDBCF0EF08F
:104F00007DEC1EF0205006241C6E215007201D6EE3
:104F10001E6A1F6A1DAE02D01E681F681F34000E75
:104F20001F1809E6D880900E1C54010E1D54000E67
:104F30001E54000E1F5407E2900E146E010E156EE3
:104F4000166A176A2CD0080EDBCF08F0090EDBCFEB
:104F500009F0080EDBCF0DF0090EDBCF0EF07DEC73
:104F60001EF006C022F007C023F00A0EDBCF08F0C7
:104F70000B0EDBCF09F00A0EDBCF0DF00B0EDBCFF3
:104F80000EF07DEC1EF022500624146E23500720F4
:104F9000156E166A176A15AE02D016681768020EEB
:104FA00014C0DBFF030E15C0DBFF060EDBCFE6FFF0
:104FB000070EDBCFE6FF040EDBCFE6FF050EDBCFEF
:104FC000E6FFAFEC04F0E552E552E552E55201018F
:104FD0002D51F35C146E2E51F458156E14C0E6FF7B
:104FE00015C0E6FFFBEC02F0E552E552F3CFDEFF21
:104FF000F4CFDDFFDECFE6FFDDCFE6FFE4EC03F02C
:10500000E552E552F3CF14F0F4CF15F014C008F0D8
:1050100015C009F0020EDBCF0DF0030EDBCF0EF052
:105020007DEC1EF0086A096A07AE02D008680968BC
:10503000550E06260D0E0722000E08220922AB0E81
:105040000B6E1A0E0C6E0D6A0E6A49EC1EF00C0EF9
:1050500006C0DBFF0D0E07C0DBFF0C0EDB500101AD
:1050600027250001146E0D0EDB50010128210001DF
:10507000156ED880155004E7100E145CFF0E1558FD
:1050800005E20101100E276F28691FD00C0EDB50BE
:10509000010127250001166E0D0EDB5001012821AC
:1050A0000001176E173404E21650F008000E175472
:1050B00005E20101F00E276F286B07D00C0EDB50C4
:1050C000010127270D0EDB502823DECFE6FFDDCFC1
:1050D000E6FF95EC04F0E552E552F3CF14F0F4CF7F
:1050E00015F0146C151E000E152214C008F015C022
:1050F00009F0020EDBCF0DF0030EDBCF0EF07DECDE
:105100001EF0086A096A07AE02D008680968550EE1
:1051100006260D0E0722000E08220922AB0E0B6E8A
:105120001A0E0C6E0D6A0E6A49EC1EF00E0E06C0C9
:10513000DBFF0F0E07C0DBFF0E0EDB500101292540
:105140000001146E0F0EDB5001012A210001156EC3
:10515000D880155004E7100E145CFF0E155805E2B8
:105160000101100E296F2A691FD00E0EDB500101BC
:1051700029250001166E0F0EDB5001012A210001C6
:10518000176E173404E21650F008000E175405E2AB
:105190000101F00E296F2A6B07D00E0EDB500101C2
:1051A00029270F0EDB502A23100EE15C02E2E16A90
:1051B000E552E16EE552E7CFD9FF1200010100513F
:1051C0000101256F266B01C127F10101286B27BF63
:1051D000286902C129F101012A6B29BF2A6903C18B
:1051E0002BF101012C6B2BBF2C6961EC0DF001013F
:1051F000955103E0965101E03CD0A6513AE0A85108
:1052000022E0A95112E109C211F20AC212F20BC244
:1052100013F20CC214F20DC215F20EC216F20FC236
:1052200017F210C218F2010EA96F15C2E6FF16C2DE
:10523000E6FF11C2E6FF12C2E6FF73DDE552E5525A
:10524000E552E55216D0A96B01010451146E156A9E
:10525000153404E214507708000E15540AE2000ECB
:10526000E66EE66AE66EE66A5CDDE552E552E55218
:04527000E5521200F1
:0C527400010E0101B96FBA6B010100517D
:10528000146E156AD890155004E61A0E145C000EC0
:10529000155827E3955101E024D097511FE0ADEC5C
:1052A00012F00101976BB907000EBA5BBA3504E240
:1052B000B9510008000EBA5511E34EB506D0040EE0
:1052C000E66E24EC08F0E55205D0040EE66E31ECF3
:1052D00008F0E5520A0E0101B96FBA6B02EC24F036
:1052E000CDD7040EE66E31EC08F0E5521200D9CFAE
:1052F000E6FFE1CFD9FF020EE126010197514AE016
:10530000B83504E2B7510008000EB8550CE2BD51A3
:10531000010B03E1B707000EB85BB751B81102E10A
:1053200025C13CF137D00A0E3C5D03E2DE6ADD6A3E
:1053300004D00A0E3C5DDE6EDD6A4B0E26AF02D055
:10534000D89003D0255D000E265902E2B769B86BEC
:10535000DECF14F0DDCF15F026511518E8AE02D0DF
:10536000153404D01450255D1550265902E2B76952
:10537000B86B0A0E3C25146E156A15502619E8AE56
:1053800002D0263504D02551145C2651155802E26E
:10539000B769B86B020EE15C02E2E16AE552E16EC8
:1053A000E552E7CFD9FF1200140E0101B96FBA6BB5
:1053B000020EE66EE66A5BEC00F0E552E55202ECA6
:1053C00024F0010195510FE080A80CD0B907000E20
:1053D000BA5BB951BA1105E1010EA76F020EB96FA0
:1053E000BA6B01D0A76B9551E3E18050100BE0E060
:1053F0001200D9CFE6FFE1CFD9FF020EE126F29EDF
:1054000088EC01F0680EE66EE66A3C0EE66E7CEC17
:1054100033F0E552E552E552F5EC33F00FEC2EF0A7
:10542000DF6A200EDF5C09E2DF50EA6A950FE96E61
:10543000010EEA22EF6ADF2AF4D70101010E956F0F
:105440004E6B2E0EE66E31EC08F0E552040EE66E61
:1054500024EC08F0E55297EC01F0EAEC02F0F28C53
:10546000F28E010EE66EE66A5BEC00F0E552E55264
:105470000EEC31F0B2EC17F009EC1AF037EC0DF04D
:10548000010EE66E52EC23F0E55201013C69010E7B
:10549000066F06C105F1C36BC46BC56BC66B010E0D
:1054A000046F256F266B006F800EE66E31EC08F0FE
:1054B000E552F29A0101A55109E0A56B9D9A0A0EE9
:1054C000E66EE66A28EC00F0E552E5522E0EE66E36
:1054D00031EC08F0E552040EE66E24EC08F0E552DB
:1054E00001019A5105E0200EE66E24EC08F0E55229
:1054F00097EC01F001013C69F28E56DF00EC02F0FE
:10550000B9DE0101955101E0CAD7B96BBA6B100E33
:10551000B56FB66BB769B86B1E0E065D02E3000E81
:1055200001D0010EA06F80A80BD10101C32B000E8A
:10553000C423C523C623A5510AE1010EA56F9D8A88
:105540000A0EE66EE66A28EC00F0E552E552000E1F
:10555000E66EE66AF8EC34F0E552E552F294F28A2F
:10556000000E01011B6F1C6B196F1A6B80EC14F09D
:10557000FAEC17F0DEEC28F0000E0201E76E8C1951
:10558000E8AE02D08C3503D0E750D8808C5501E2CC
:10559000F3D7F29A87EC1AF080EC14F000EC02F0EA
:1055A00099EC14F0010195513FE096513DE0C3C1E3
:1055B00014F0C4C115F0C5C116F0C6C117F00F0E26
:1055C0001416156A166A176A14501510161017105B
:1055D00003E1B92B000EBA23B9C114F0BAC115F01A
:1055E000166A176A15AE02D016681768D890175059
:1055F000000A08E6900E145C010E1558000E1658AD
:10560000000E175810E2010EA76F2E0EE66E31EC59
:1056100008F0E552000E01012B6F2C6B296F2A6BED
:10562000276F286B63D08CD096510DE0263504E2AD
:1056300025511A08000E265506E3010EDB06DB5045
:10564000000801E253D0955112E1965107E026354A
:1056500004E225511A08000E265509E2965130E160
:10566000263504E225512208000E265529E3020EB4
:1056700002018C27100E0101B56FB66BB769B86BCC
:1056800097EC01F0000E0101236F246B216F226B58
:105690001F6F206B955104E08050100B01E050D03B
:1056A0002E0EE66E31EC08F0E552510EE66E31EC4E
:1056B00008F0E552080EE66E24EC08F0E55233D00F
:1056C000965105E14F69506B010EBD6FBE6B010E27
:1056D000966FA76BB96BBA6BDE52640EDD6E080E67
:1056E000E66E24EC08F0E5522BEC07F000DE010139
:1056F000B63504E2B5510008000EB65504E2B50710
:10570000000EB65B04D011EC16F059EC11F007C195
:105710000DF108C10EF109C10FF10AC110F10BC161
:1057200011F10CC112F1F4EC11F0ADEC12F07CECC3
:1057300006F00101B551B61102E13EEC08F0F3D6D6
:10574000800EE66E31EC08F0E552B3D6020EE15C55
:1057500002E2E16AE552E16EE552E7CFD9FF1200BD
:10576000D9CFE6FFE1CFD9FF070EE126020EE66EA4
:10577000E66A5BEC00F0E552E552010EDB6A020ED0
:10578000DB6A030EDB6A040EDB6A050EDB6A060EBB
:10579000DB6ADF6A100EDF5C2AE2A70EE66E4DECD4
:1057A00030F0E552080B01E1F8D71BEC31F0D9508D
:1057B000010FE96EDACFEAFF01012F51EE263051D9
:1057C000ED22D950030FE96EDACFEAFF0101335120
:1057D000EE263451ED22D950050FE96EDACFEAFFFB
:1057E00001013151EE263251ED22DF2AD3D7040ECA
:1057F000E66E080EE76E010EDBCF14F0020EDBCF73
:1058000015F0E7501426000E152214C0E6FF15C04F
:10581000E6FFD1EC00F0E552E552E552DE52F3CF5F
:10582000DEFFF4CFDDFFDD52040EE66E080EE76EFC
:10583000030EDBCF14F0040EDBCF15F0E750142677
:10584000000E152214C0E6FF15C0E6FFD1EC00F0F3
:10585000E552E552E552030EF3CFDBFF040EF4CF21
:10586000DBFFE66E080EE76E050EDBCF14F0060ECA
:10587000DBCF15F0E7501426000E152214C0E6FF0A
:1058800015C0E6FFD1EC00F0E552E552E552050EF9
:10589000F3CFDBFF060EF4CFDBFF010EDBCF16F0FC
:1058A000020EDBCF17F0D880175004E79D0E165C70
:1058B000FF0E175804E29D0E146E156817D0010EE6
:1058C000DBCF18F0020EDBCF19F0193404E21850C8
:1058D0006308000E195404E2630E146E156A06D0B4
:1058E000010EDBCF14F0020EDBCF15F014C037F140
:1058F000030EDBCF16F0040EDBCF17F0D880175065
:1059000004E79D0E165CFF0E175804E29D0E146E00
:10591000156817D0030EDBCF18F0040EDBCF19F09B
:10592000193404E218506308000E195404E2630E9F
:10593000146E156A06D0030EDBCF14F0040EDBCF15
:1059400015F014C038F1050EDBCF16F0060EDBCFD4
:1059500017F0000E165E040E175AD880175004E791
:105960009D0E165CFF0E175804E29D0E146E15680E
:105970001FD0050EDBCF18F0060EDBCF19F0000E9E
:10598000185E040E195A193404E218506308000E08
:10599000195404E2630E146E156A0AD0050EDBCFAB
:1059A00014F0060EDBCF15F0000E145E040E155A2F
:1059B00014C039F1070EE15C02E2E16AE552E16EE2
:1059C000E552E7CFD9FF1200D9CFE6FFE1CFD9FFEB
:1059D0000C0EE12601019A5101E109D11BEC31F0D5
:1059E000060E2FC1DBFF070E30C1DBFF0A0E31C1EF
:1059F000DBFF0B0E32C1DBFF080E33C1DBFF090EEC
:105A000034C1DBFF93C214F0156A14BE1568D95077
:105A1000060FE96EDACFEAFF1450EE5E1550ED5A2C
:105A200094C214F0156A14BE1568D950080FE96EB7
:105A3000DACFEAFF1450EE5E1550ED5A91C214F021
:105A4000156A14BE1568D9500A0FE96EDACFEAFF5D
:105A50001450EE5E1550ED5AD9500A0FE96EDACFA8
:105A6000EAFFEE52040EED5E0101B551B6111AE1E6
:105A7000060EDBCF77F1070EDBCF78F1080EDBCF18
:105A800079F1090EDBCF7AF10A0EDBCF7BF10B0E39
:105A9000DBCF7CF13AC17DF13BC17EF163C17FF187
:105AA00064C180F1050EE66E13C116F014C117F043
