:020000040000FA
:06000000CBEF34F012000A
:020006001200E6
:06000800D9EF2CF01200FC
:02000E00C250DE
:08001000020B01E0010E1200D9
:06001800CFEF2CF01200F6
:02001E000400DC
:10002000686A0000F700000006000000466A000051
:1000300022020000220000002A6A000044020000A0
:100040001C000000086A00000002000022000000FE
:10005000F90EE66E570EE66EE8EC24F0E552E55236
:100060000101735101E169D16CEC2FF0EA0EE66EEB
:10007000570EE66EE8EC24F0E552E552470EE66EC8
:10008000030EE66E2FC114F030C115F0166A176A20
:1000900015AE02D016681768E80E0B6E030E0C6ED4
:1000A0000D6A0E6A14C006F015C007F016C008F0FD
:1000B00017C009F058EC33F002C014F003C015F07B
:1000C00004C016F005C017F0020E1526000E162209
:1000D00017220B6A040E0C6E0D6A0E6A14C006F02D
:1000E00015C007F016C008F017C009F019EC30F081
:1000F00006C014F007C015F008C016F009C017F0CC
:1001000014C0E6FF15C0E6FF16C0E6FF17C0E6FF05
:10011000B8EC26F0186E060EE15E18500101800E54
:10012000301509E02FC114F030C115F0146C151E04
:10013000000E152204D02FC114F030C115F0153473
:1001400004E214508008000E155408E2E20EE66E38
:10015000570EE66EE8EC24F0E552E55277EC25F018
:10016000D30EE66E570EE66EE8EC24F0E552E5524B
:10017000470EE66E030EE66E33C114F034C115F07F
:10018000166A176A15AE02D016681768E80E0B6E6D
:10019000030E0C6E0D6A0E6A14C006F015C007F04F
:1001A00016C008F017C009F058EC33F002C014F084
:1001B00003C015F004C016F005C017F0020E152696
:1001C000000E162217220B6A040E0C6E0D6A0E6AC0
:1001D00014C006F015C007F016C008F017C009F0EB
:1001E00019EC30F006C014F007C015F008C016F086
:1001F00009C017F014C0E6FF15C0E6FF16C0E6FF01
:1002000017C0E6FFB8EC26F0186E060EE15E185037
:100210000101800E341509E033C114F034C115F02A
:10022000146C151E000E152204D033C114F034C115
:1002300015F0153404E214508008000E155408E23D
:10024000E20EE66E570EE66EE8EC24F0E552E5525B
:1002500077EC25F0C40EE66E570EE66EE8EC24F05F
:10026000E552E552470EE66E030EE66E31C114F01C
:1002700032C115F0166A176A15AE02D016681768F3
:10028000E80E0B6E030E0C6E0D6A0E6A14C006F0BB
:1002900015C007F016C008F017C009F058EC33F08D
:1002A00002C014F003C015F004C016F005C017F02A
:1002B000020E1526000E162217220B6A040E0C6E73
:1002C0000D6A0E6A14C006F015C007F016C008F0DB
:1002D00017C009F019EC30F006C014F007C015F093
:1002E00008C016F009C017F014C0E6FF15C0E6FFFD
:1002F00016C0E6FF17C0E6FFB8EC26F0186E060E33
:10030000E15E18500101D890325104E6800E315D53
:10031000030E325907E3323504E231518008040EEE
:10032000325508E2E20EE66E570EE66EE8EC24F077
:10033000E552E55277EC25F008D0AD0EE66E570E8B
:10034000E66EE8EC24F0E552E5521200D9CFE6FF64
:10035000E1CFD9FF030EE126020EDB6A100EDE6E3E
:10036000DD6ADECF14F0DDCF15F0153404E2145051
:10037000F608000E155428E3F1EC31F0DFCFE6FF6C
:1003800013EC32F0E552000911E1020EDB2AA90E4E
:10039000E66E570EE66EE8EC24F0E552E552DFCF4C
:1003A000E6FF9AEC25F0E55277EC25F003EC32F00D
:1003B000020EE66EE66A5BEC0BF0E552E552020EC9
:1003C000DE26000EDD22CDD7020EDB50146E030EAA
:1003D000E15C03E200D0E16AE552E16E1450E552BF
:1003E000E7CFD9FF1200D9CFE6FFE1CFD9FF050E45
:1003F000E126020153390F0B010B09E0990EE66E5D
:10040000570EE66EE8EC24F0E552E55208D0890E6E
:10041000E66E570EE66EE8EC24F0E552E5527E0EED
:10042000E66E570EE66EE8EC24F0E552E552010167
:10043000705101E10FD1706BD950010FE96EDACF25
:10044000EAFFE70EEE6E010EED6E010EDF6EDFCFFE
:1004500014F0070EE76E1418E8AE02D0143403D07F
:10046000E750D880145401E29BD0300EDF24E66EB2
:1004700008EC25F0E552780EE66E570EE66EE8ECD5
:1004800024F0E552E552D950010FE96EDACFEAFFC8
:10049000EECFF3FFEDCFF4FF020EEE26000EEF22BB
:1004A000F3CFE9FFF4CFEAFF030EEECFDBFF040E3C
:1004B000EDCFDBFF030EDBCFE6FF040EDBCFE6FF65
:1004C000AEEC25F0E552E552090EE66E08EC25F09B
:1004D000E552250EE66EE66AFF0EE76E030EDBCFF1
:1004E00014F0040EDBCF15F0E7501416156A166AE7
:1004F000176A640E0B6E0C6A0D6A0E6A14C006F061
:1005000015C007F016C008F017C009F058EC33F01A
:1005100002C014F003C015F004C016F005C017F0B7
:10052000F00E0B6E0C6A0D6A0E6A14C006F015C050
:1005300007F016C008F017C009F019EC30F006C03B
:1005400014F007C015F008C016F009C017F014C069
:10055000E6FF15C0E6FF16C0E6FF17C0E6FFB8ECE1
:1005600026F0186E060EE15E1850030EDBCF14F075
:10057000040EDBCF15F0000E1416FF0E15161450E6
:1005800002E1010E151808E0720EE66E570EE66ED7
:10059000E8EC24F0E552E55277EC25F0DF2A57D756
:1005A0006C0EE66E570EE66EE8EC24F0E552E5526E
:1005B000020E086E096A8EC10DF08FC10EF07AEC42
:1005C00030F0030E06C0DBFF040E07C0DBFFD9507E
:1005D000030FE96EDACFEAFF800EEE26130EED224E
:1005E000E66A030EE66EDBCF14F0040EDBCF15F0E7
:1005F000166A176A14C0E6FF15C0E6FF16C0E6FFCC
:1006000017C0E6FFB8EC26F0186E060EE15E185033
:100610005D0EE66E570EE66EE8EC24F0E552E5520C
:10062000E66AE66AA0C114F0A1C115F0A2C116F0F5
:10063000176A14C0E6FF15C0E6FF16C0E6FF17C034
:10064000E6FFB8EC26F0186E060EE15E185077EC67
:1006500025F008D04D0EE66E570EE66EE8EC24F05D
:10066000E552E552050EE15C02E2E16AE552E16E17
:10067000E552E7CFD9FF1200D9CFE6FFE1CFD9FF8E
:10068000020EE1263C0EE66E570EE66EE8EC24F014
:10069000E552E552F1EC31F0430EE66E13EC32F028
:1006A000E552000901E043D0E66A47EC32F0E5523A
:1006B000166E176A16C017F0166A16C0E6FF17C046
:1006C000E6FF010EE66E47EC32F0E552E552E7CF69
:1006D00017F0E552E7CF16F000011610146E17C0A0
:1006E00015F014C0DEFF15C0DDFF03EC32F0E66A42
:1006F000010EE66EDECF14F0DDCF15F0166A176A34
:1007000014C0E6FF15C0E6FF16C0E6FF17C0E6FFFF
:10071000B8EC26F0186E060EE15E1850090EE66E73
:10072000570EE66EE8EC24F0E552E5520AD003ECF1
:1007300032F0020EE66E570EE66EE8EC24F0E5525B
:10074000E552020EE15C02E2E16AE552E16EE55239
:10075000E7CFD9FF1200AA0EE66E560EE66EE8EC61
:1007600024F0E552E552E9EC25F0000901E1FBD760
:10077000F1EC31F0420EE66E13EC32F0E552000976
:1007800001E03BD0430EE66E13EC32F0E552000977
:1007900001E033D003EC32F08E0EE66E560EE66EBC
:1007A000E8EC24F0E552E552E9EC25F0000901E11E
:1007B000FBD7F1EC31F0420EE66E13EC32F0E5526D
:1007C000000901E01AD0450EE66E13EC32F0E55256
:1007D000000901E012D003EC32F0320EE66EE66A58
:1007E0005BEC0BF0E552E552890EE66E560EE66EB6
:1007F000E8EC24F0E552E5520AD003EC32F0020EA8
:10080000E66E570EE66EE8EC24F0E552E552120073
:10081000D9CFE6FFE1CFD9FF070EE126760EE66ECF
:10082000560EE66EE8EC24F0E552E55201017651F1
:1008300001E1E9D0550E4A5D09E1670EE66E560EFC
:10084000E66EE8EC24F0E552E55208D0580EE66E6C
:10085000560EE66EE8EC24F0E552E552F40EE66E34
:100860008CEC16F0E552000901E1CDD0230EE66EC6
:10087000E66A5BEC0BF0E552E55230EC16F0DF6E09
:10088000010E48C1DBFF020E49C1DBFF4F0EE66ED1
:10089000560EE66EE8EC24F0E552E552E66AE66AAA
:1008A000010EDBCF14F0020EDBCF15F0166A176ACB
:1008B00014C0E6FF15C0E6FF16C0E6FF17C0E6FF4E
:1008C000B8EC26F0186E060EE15E18504BC1E6FF3C
:1008D0008CEC16F0E552000901E195D00A0EE66EA7
:1008E000E66A5BEC0BF0E552E55230EC16F0DF6E99
:1008F000030E48C1DBFF040E49C1DBFF470EE66E65
:10090000560EE66EE8EC24F0E552E552E66AE66A39
:10091000030EDBCF14F0040EDBCF15F0166A176A56
:1009200014C0E6FF15C0E6FF16C0E6FF17C0E6FFDD
:10093000B8EC26F0186E060EE15E18503F0EE66E1B
:10094000560EE66EE8EC24F0E552E552010EDBCFE0
:1009500016F0020EDBCF17F016C0E6FF17C0E6FF59
:10096000050EE66E47C21AF01B6A1ABE1B68030E1C
:10097000DBCF08F0040EDBCF09F01AC00DF01BC06E
:100980000EF04DEC30F006C018F007C019F0100E54
:100990001826000E192218C0E6FF19C0E6FF04EC65
:1009A0000CF0E552E552E552E552E7CF17F0E5527B
:1009B000E7CF16F01650F324146E1750F420156E7E
:1009C000050E14C0DBFF060E15C0DBFFE66AE66A03
:1009D000050EDBCF14F0060EDBCF15F0166A176A92
:1009E00014C0E6FF15C0E6FF16C0E6FF17C0E6FF1D
:1009F000B8EC26F0186E060EE15E185077EC25F084
:100A000077EC25F00AD003EC32F0020EE66E570EBA
:100A1000E66EE8EC24F0E552E552070EE15C02E2F6
:100A2000E16AE552E16EE552E7CFD9FF1200D9CF76
:100A3000E6FFE1CFD9FF020EE126010EF36EFE0EB6
:100A4000DB5004E0D890F336E806FCE1F350E76EA3
:100A5000010EE7CFDBFFDF6ADFCF14F00A0EE76E8F
:100A60001418E8AE02D0E73402D0E750145C0FE26D
:100A7000010EDB5001014D1B31EC14F0C80EE66E87
:100A8000E66A5BEC0BF0E552E552DF2AE5D7020E91
:100A9000E15C02E2E16AE552E16EE552E7CFD9FF9F
:100AA0001200D9CFE6FFE1CFD9FFE652320EE66E53
:100AB000560EE66EE8EC24F0E552E552020EE66EC4
:100AC000560EE66EE8EC24F0E552E552E70EE66ECF
:100AD000550EE66EE8EC24F0E552E552CDDDD90E78
:100AE000E66E550EE66EE8EC24F0E552E552BE0ED9
:100AF000E66E550EE66EE8EC24F0E552E552E9ECC0
:100B000025F0000901E1FBD7010EE66E8BEC2CF01D
:100B1000E552CAEC20F001017F5101E1F7D180508C
:100B2000100B0DE06E510BE004C129F12A6B29BFB7
:100B30002A6905C12BF12C6B2BBF2C6905D0000E47
:100B40002B6F2C6B296F2A6BC9EC14F0000EE66E2C
:100B5000E66AE66EE66A3AEC19F0E552E552E552CD
:100B6000E552E66AE66A52C114F053C115F0166AFE
:100B7000176A15AE02D016681768B40E0B6E0C6AB1
:100B80000D6A0E6A14C006F015C007F016C008F012
:100B900017C009F058EC33F002C014F003C015F090
:100BA00004C016F005C017F0460E0B6E0C0E0C6E4E
:100BB0000D6A0E6A14C006F015C007F016C008F0E2
:100BC00017C009F019EC30F006C014F007C015F09A
:100BD00008C016F009C017F014C0E6FF15C0E6FF04
:100BE00016C0E6FF17C0E6FFB8EC26F0186E060E3A
:100BF000E15E18500101755106E03F0EE66E08EC0B
:100C000025F0E55205D0200EE66E08EC25F0E55201
:100C1000B90EE66E550EE66EE8EC24F0E552E552AC
:100C2000E66AE66A81C014F0156A166A176A14C08B
:100C3000E6FF15C0E6FF16C0E6FF17C0E6FFB8ECFA
:100C400026F0186E060EE15E1850B50EE66E550ED3
:100C5000E66EE8EC24F0E552E552200EE66EE66A18
:100C6000FFC114F0156A166A176A14C0E6FF15C0B2
:100C7000E6FF16C0E6FF17C0E6FFB8EC26F0186ED8
:100C8000060EE15E1850B10EE66E550EE66EE8EC0B
:100C900024F0E552E552200EE66E020EE66E82C0AA
:100CA00014F083C015F0166A176A15AE02D01668E4
:100CB000176814C0E6FF15C0E6FF16C0E6FF17C0B0
:100CC000E6FFB8EC26F0186E060EE15E1850AD0E89
:100CD000E66E550EE66EE8EC24F0E552E552E66A63
:100CE000010EE66E96C014F097C015F0166A176AEA
:100CF00015AE02D01668176814C0E6FF15C0E6FFEF
:100D000016C0E6FF17C0E6FFB8EC26F0186E060E18
:100D1000E15E1850AA0EE66E550EE66EE8EC24F081
:100D2000E552E552E66AE66A8CC0E6FF8DC0E6FF52
:100D300032EC0DF0E552E552F3CF18F0F4CF19F094
:100D40000001800E191411E08CC0E6FF8DC0E6FF93
:100D500032EC0DF0E552E552F3CF14F0F4CF15F07C
:100D6000146C151E000E15220CD08CC0E6FF8DC031
:100D7000E6FF32EC0DF0E552E552F3CF14F0F4CF7C
:100D800015F0166A176A15AE02D01668176814C0F7
:100D9000E6FF15C0E6FF16C0E6FF17C0E6FFB8EC99
:100DA00026F01A6E060EE15E1A500001800E8D15B7
:100DB00006E16E0EE66E08EC25F0E55205D0730EE6
:100DC000E66E08EC25F0E552AA0EE66E550EE66ECC
:100DD000E8EC24F0E552E552E66AE66A8EC0E6FFEA
:100DE0008FC0E6FF32EC0DF0E552E552F3CF18F07C
:100DF000F4CF19F00001800E191411E08EC0E6FF47
:100E00008FC0E6FF32EC0DF0E552E552F3CF14F05F
:100E1000F4CF15F0146C151E000E15220CD08EC0E8
:100E2000E6FF8FC0E6FF32EC0DF0E552E552F3CF5E
:100E300014F0F4CF15F0166A176A15AE02D01668D2
:100E4000176814C0E6FF15C0E6FF16C0E6FF17C01E
:100E5000E6FFB8EC26F01A6E060EE15E1A500001AD
:100E6000800E8F1506E1650EE66E08EC25F0E55262
:100E700005D0770EE66E08EC25F0E552A20EE66E80
:100E8000550EE66EE8EC24F0E552E552200EE66ED3
:100E9000E66A29C114F02AC115F0166A176A15AE60
:100EA00002D01668176814C0E6FF15C0E6FF16C02A
:100EB000E6FF17C0E6FFB8EC26F0186E060EE15EFE
:100EC00018509D0EE66E550EE66EE8EC24F0E552E5
:100ED000E552200EE66EE66A2BC114F02CC115F027
:100EE000166A176A15AE02D01668176814C0E6FFB6
:100EF00015C0E6FF16C0E6FF17C0E6FFB8EC26F007
:100F0000186E060EE15E185077EC25F001017F6B3C
:100F100000D6E552E552E7CFD9FF1200D9CFE6FF60
:100F2000E1CFD9FF040EE126890EE66E550EE66E7E
:100F3000E8EC24F0E552E552E66A020EE66E18ECA3
:100F400033F0E552E552F3CF14F0F4CF15F0166A02
:100F500015BE1668320E0C6E0D6A0E6A14C007F0CC
:100F600015C008F016C009F098EC30F004C014F079
:100F700005C015F006C016F0050E1426000E152249
:100F800016220A0E0C6E0D6A0E6A14C007F015C008
:100F900008F016C009F0ECEC2FF007C014F008C000
:100FA00015F009C016F0176A16BE176814C0DFFFE7
:100FB000010E15C0DBFF020E16C0DBFF030E17C0CB
:100FC000DBFF810EE66E550EE66EE8EC24F0E5528E
:100FD000E552560EE66E030EE66ED9CFE9FFDACF84
:100FE000EAFFEECFE6FFEECFE6FFEECFE6FFEFCF74
:100FF000E6FFB8EC26F0146E060EE15E1450D9CF71
:10100000E9FFDACFEAFFD890030EEB50000A08E6BA
:10101000EE0EEE5C020EEE58000EEE58000EEE588C
:1010200018E3DECF07F0DECF08F0DECF09F0DDCF2A
:101030000AF0DD52DD520A34000E0A1809E6D880A3
:10104000D60E0754060E0854000E0954000E0A541A
:1010500008E26E0EE66E550EE66EE8EC24F0E55200
:10106000E55277EC25F0E66A010EE66E18EC33F0F7
:10107000E552E552F3CF14F0F4CF15F0166A15BE21
:101080001668320E0C6E0D6A0E6A14C007F015C099
:1010900008F016C009F098EC30F004C014F005C058
:1010A00015F006C016F0050E1426000E15221622A5
:1010B0000A0E0C6E0D6A0E6A14C007F015C008F017
:1010C00016C009F0ECEC2FF007C014F008C015F0C2
:1010D00009C016F0176A16BE176814C0DFFF010EAC
:1010E00015C0DBFF020E16C0DBFF030E17C0DBFFCF
:1010F000660EE66E550EE66EE8EC24F0E552E5521B
:10110000560EE66E030EE66ED9CFE9FFDACFEAFFA0
:10111000EECFE6FFEECFE6FFEECFE6FFEFCFE6FF46
:10112000B8EC26F0146E060EE15E1450D9CFE9FF3C
:10113000DACFEAFFD890030EEB50000A08E6EE0E75
:10114000EE5C020EEE58000EEE58000EEE5818E35C
:10115000DECF07F0DECF08F0DECF09F0DDCF0AF0FA
:10116000DD52DD520A34000E0A1809E6D880D60E88
:101170000754060E0854000E0954000E0A5408E2E3
:101180006E0EE66E550EE66EE8EC24F0E552E55282
:1011900077EC25F0E66A040EE66E18EC33F0E552C3
:1011A000E552F3CF14F0F4CF15F0166A15BE1668A9
:1011B000320E0C6E0D6A0E6A14C007F015C008F0EE
:1011C00016C009F098EC30F004C014F005C015F01A
:1011D00006C016F0050E1426000E152216220A0E61
:1011E0000C6E0D6A0E6A14C007F015C008F016C028
:1011F00009F0ECEC2FF007C014F008C015F009C09E
:1012000016F0176A16BE176814C0DFFF010E15C06E
:10121000DBFF020E16C0DBFF030E17C0DBFF5E0E06
:10122000E66E550EE66EE8EC24F0E552E552560EF9
:10123000E66E030EE66ED9CFE9FFDACFEAFFEECF16
:10124000E6FFEECFE6FFEECFE6FFEFCFE6FFB8EC2E
:1012500026F0146E060EE15E1450D9CFE9FFDACF06
:10126000EAFFD890030EEB50000A08E6D00EEE5CC1
:10127000070EEE58000EEE58000EEE5818E3DECFC3
:1012800007F0DECF08F0DECF09F0DDCF0AF0DD5247
:10129000DD520A34000E0A1809E6D880B80E075449
:1012A0000B0E0854000E0954000E0A5408E26E0E8C
:1012B000E66E550EE66EE8EC24F0E552E55277EC6A
:1012C00025F077EC25F0E66AE66A18EC33F0E55293
:1012D000E552F3CF14F0F4CF15F0166A15BE166878
:1012E0002E0E0C6E0D6A0E6A14C007F015C008F0C1
:1012F00016C009F098EC30F004C014F005C015F0E9
:1013000006C016F0090E1426000E15221622110E24
:101310000C6E0D6A0E6A14C007F015C008F016C0F6
:1013200009F0ECEC2FF007C014F008C015F009C06C
:1013300016F0176A16BE176814C0DFFF010E15C03D
:10134000DBFF020E16C0DBFF030E17C0DBFF570EDC
:10135000E66E550EE66EE8EC24F0E552E552560EC8
:10136000E66E020EE66ED9CFE9FFDACFEAFFEECFE6
:10137000E6FFEECFE6FFEECFE6FFEFCFE6FFB8ECFD
:1013800026F0146E060EE15E1450D9CFE9FFDACFD5
:10139000EAFFD890030EEB50000A08E6840EEE5CDC
:1013A000030EEE58000EEE58000EEE5809E23F0E06
:1013B000E66E550EE66EE8EC24F0E552E5521AD0E2
:1013C000D9CFE9FFDACFEAFFD890030EEB50000A3D
:1013D00008E6B60EEE5C030EEE58000EEE58000E58
:1013E000EE5808E22C0EE66E550EE66EE8EC24F0A0
:1013F000E552E55277EC25F0E66A030EE66E18EC4E
:1014000033F0E552E552F3CF14F0F4CF15F0166A3D
:1014100015BE1668320E0C6E0D6A0E6A14C007F007
:1014200015C008F016C009F098EC30F004C014F0B4
:1014300005C015F006C016F0050E1426000E152284
:1014400016220A0E0C6E0D6A0E6A14C007F015C043
:1014500008F016C009F0ECEC2FF007C014F008C03B
:1014600015F009C016F0176A16BE176814C0DFFF22
:10147000010E15C0DBFF020E16C0DBFF030E17C006
:10148000DBFF240EE66E550EE66EE8EC24F0E55226
:10149000E552560EE66E030EE66ED9CFE9FFDACFBF
:1014A000EAFFEECFE6FFEECFE6FFEECFE6FFEFCFAF
:1014B000E6FFB8EC26F0146E060EE15E1450D9CFAC
:1014C000E9FFDACFEAFFD890030EEB50000A08E6F6
:1014D000B80EEE5C0B0EEE58000EEE58000EEE58F5
:1014E00018E3DECF07F0DECF08F0DECF09F0DDCF66
:1014F0000AF0DD52DD520A34000E0A1809E6D880DF
:10150000A00E07540F0E0854000E0954000E0A5482
:1015100008E2E20EE66E570EE66EE8EC24F0E552C5
:10152000E55277EC25F0040EE15C02E2E16AE55257
:10153000E16EE552E7CFD9FF12001200D9CFE6FFE6
:10154000E1CFD9FFE652F29EB6EC0CF04CEC33F052
:10155000680EE66EE66A3C0EE66ED3EC32F0E552BB
:10156000E552E552A7EC2CF0F29ADF6ADFCF14F0D7
:10157000200EE76E1418E8AE02D0E73402D0E75030
:10158000145C0CE2DFCFE9FFEA6AE9BEEA686E0E9E
:10159000E926010EEA22EF6ADF2AE8D701018E6B05
:1015A0008F6BC5EC0CF00101010E016FC6EC0DF064
:1015B0002E0EE66E73EC14F0E552800EE66E73ECC0
:1015C00014F0E552020EE66E66EC14F0E552510E90
:1015D000E66E66EC14F0E552F28CF28EA3EC20F08D
:1015E000640EE66EE66A5BEC0BF0E552E55213EC36
:1015F0002FF00101396B3A6B3B6B73510CE0200EFD
:10160000E66E66EC14F0E55252EC28F0200EE66E21
:1016100073EC14F0E552C1EC16F0230EE66EE66AA8
:101620005BEC0BF0E552E55281EC14F0320EE66E05
:10163000E66A5BEC0BF0E552E552640EE66EE66A94
:101640005BEC0BF0E552E552010EE66E37EC21F053
:10165000E55201016E5103E08050100B13E1040EBE
:10166000E66E66EC14F0E552080EE66E73EC14F0CC
:10167000E5520101735105E0200EE66E66EC14F0B0
:10168000E5520FD0080EE66E66EC14F0E552040E3B
:10169000E66E73EC14F0E552200EE66E73EC14F077
:1016A000E552C6EC0DF09FEC21F0D3D7E552E552A0
:0616B000E7CFD9FF120094
:0A16B600D9CFE6FFE1CFD9FF030E04
:1016C000E126F250200B01E0010EE76E020EE7CF9B
:1016D000DBFFF29AFD0EDBCFDEFFDBCFDDFFD9CFE4
:1016E000E9FFDACFEAFFEE50ED1008E0F2A4FED7F2
:1016F000F294DF06010E01E2DB06F1D7020EDB50A9
:10170000E8B0F28AE8A0F29A030EE15C02E2E16A34
:10171000E552E16EE552E7CFD9FF1200D9CFE6FFDF
:10172000E1CFD9FF050EE126F250200B01E0010EBA
:10173000E76E040EE7CFDBFFF29ADE6ADD6ADECFEA
:1017400014F0DDCF15F0FD0EDBCF16F0FE0EDBCF73
:1017500017F00A0E1702F3CF17F01602F3CF16F0A8
:10176000F450172615501718E8AE02D0173404D0DD
:101770001650145C1750155837E2080EF36E020E1F
:10178000F3CFDBFF030EDB6AD950020FE96EDACF2D
:10179000EAFFEE50ED1009E0F2A4FED7F294020E3B
:1017A000DB06030E01E2DB06EFD79DEC0AF09DAAF3
:1017B0000DD00101A5510101A65D07E0040EDB502B
:1017C000E8B0F28AE8A0F29A15D009D09EAA07D014
:1017D000040EDB50E8B0F28AE8A0F29A0BD0DF2AC0
:1017E000010E01E3DB2AABD7040EDB50E8B0F28A2E
:1017F000E8A0F29A050EE15C02E2E16AE552E16ED0
:10180000E552E7CFD9FF1200D9CFE6FFE1CFD9FFEC
:10181000FD0EDBCF16F0FE0EDBCF17F00001800EC1
:1018200017141BE0FD0EDBCF18F0FE0EDBCF19F016
:10183000186C191E000E1922FC0EDB5018C014F093
:1018400019C015F005E0D89015321432E804FBE118
:10185000146C151E000E152212D0FD0EDBCF1AF0EF
:10186000FE0EDBCF1BF0FC0EDB501AC014F01BC0C9
:1018700015F005E0D89015321432E804FBE114C0ED
:10188000F3FF15C0F4FF00D0E552E7CFD9FF1200F7
:10189000D9CFE6FFE1CFD9FFD950FB0FE96EFF0E9C
:1018A000DA20EA6ED890030EEB50000A08E6000E2C
:1018B000EE5C000EEE58000EEE58000EEE5830E2D0
:1018C000FB0EDBCF18F0FC0EDBCF19F0FD0EDBCFEB
:1018D0001AF0FE0EDBCF1BF0000E186C191E192239
:1018E0001A1E1A221B1E1B22FA0EDB501F0B18C0D9
:1018F00014F019C015F01AC016F01BC017F007E05D
:10190000D8901732163215321432E806F9E1000E7B
:10191000146C151E1522161E1622171E172219D01A
:10192000D950FB0FE96EFF0EDA20EA6EFA0EDB509B
:101930001F0BEECF14F0EECF15F0EECF16F0EECF7A
:1019400017F007E0D8901732163215321432E80635
:10195000F9E114C006F015C007F016C008F017C072
:1019600009F000D0E552E7CFD9FF12003F0E926E8A
:10197000020EC16EC00E816E400E936E600E826EBE
:10198000840E946EC78CF19E1200D9CFE6FFE1CF92
:10199000D9FFE652DF6ADFCF14F0040EE76E1418A9
:1019A000E8AE02D0E73402D0E750145C11E2DFCF9A
:1019B000E9FFEA6AE9BEEA68D890E936EA36580EE5
:1019C000E926010EEA22010EEE6EED6ADF2AE3D768
:1019D0000101770E566F56C157F101016F6B000E72
:1019E0000101116F126B01010F6F106B01010D6F7F
:1019F0000E6B0101466F476B01016C6F6D6B01014E
:101A0000376B386B0101366B36C135F10101156F4B
:101A1000166B0101136F146B0101176F186B000136
:101A2000FE6BFEC0FDF001014C6B0101A06BA16BD0
:101A3000A26BE552E552E7CFD9FF1200D9CFE6FFFE
:101A4000E1CFD9FFE652FE0EDB50A96EA69EA6801E
:101A5000A850DF6EA66ADF5000D0E552E552E7CF0E
:101A6000D9FF1200D9CFE6FFE1CFD9FFFD0EDBCFC2
:101A700014F0FE0EDBCF15F0166A176A15AE02D011
:101A800016681768790E0B6E480E0C6E0D6A0E6A9A
:101A900014C006F015C007F016C008F017C009F012
:101AA00058EC33F002C014F003C015F004C016F077
:101AB00005C017F0A00E0B6E860E0C6E010E0D6E9B
:101AC0000E6A14C006F015C007F016C008F017C063
:101AD00009F019EC30F006C014F007C015F008C08A
:101AE00016F009C017F014C0F3FF15C0F4FF00D0C2
:101AF000E552E7CFD9FF1200D9CFE6FFE1CFD9FFFA
:101B0000FD0EDBCF14F0FE0EDBCF15F0166A176A60
:101B100015AE02D016681768A00E0B6E860E0C6EFE
:101B2000010E0D6E0E6A14C006F015C007F016C047
:101B300008F017C009F058EC33F002C014F003C0ED
:101B400015F004C016F005C017F0790E0B6E480EA4
:101B50000C6E0D6A0E6A14C006F015C007F016C0B0
:101B600008F017C009F019EC30F006C014F007C0F7
:101B700015F008C016F009C017F014C0F3FF15C027
:101B8000F4FF00D0E552E7CFD9FF1200D9CFE6FF2E
:101B9000E1CFD9FF050EE12601010151146E156A4E
:101BA000153404E214507708000E155408E2200E94
:101BB000F36E030EF3CFDBFF040EDB6A04D0030EDB
:101BC000DB6A040EDB6A440EDE6E020EDD6EDECFD3
:101BD00014F0DDCF15F05F0ED8801454020E1554AA
:101BE0001AE3030EDBCF14F0DB2A040EDBCF15F073
:101BF00001E3DB2A1450E66E21DFE552E66EDECF0C
:101C0000E9FFDDCFEAFFE552E750EF6EDF2A010E74
:101C100001E3DB2ADCD755C2A3F1020E0201E76E15
:101C20005419E8AE02D0E73402D0E750545D02E226
:101C3000020E0ED0140EE76E5419E8AE02D05435E1
:101C400003D0E750D880545502E2140E01D054510D
:101C5000546F050EE15C02E2E16AE552E16EE55285
:101C6000E7CFD9FF1200D9CFE6FFE1CFD9FF020EAF
:101C7000E126FE0EDBCFE6FFE1DEE552DF6EFD0E74
:101C8000DB50DF5C1DE0FD0EDB50A86EFE0EDB506E
:101C9000A96EA69EA684F250800B01E0010EE76EAD
:101CA000010EE7CFDBFFF29E550EA76EAA0EA76EC0
:101CB000A682A6B2FED7010EDB5001E0F28EA694FA
:101CC000020EE15C02E2E16AE552E16EE552E7CF25
:101CD000D9FF1200D9CFE6FFE1CFD9FF050EE126EB
:101CE000FE0EDB0405E1030EDB6A040EDB6A07D09F
:101CF000200EF36E030EF3CFDBFF040EDB6A440EFF
:101D0000DE6E020EDD6EDECF14F0DDCF15F05F0E5D
:101D1000D8801454020E155419E3DFCFE9FFDF2AEF
:101D2000010EDBCFEAFF01E3DB2AEF50E66E030E84
:101D3000DBCF14F0DB2A040EDBCF15F001E3DB2A46
:101D40001450E66E90DFE552E552DDD7050EE15CFA
:101D500002E2E16AE552E16EE552E7CFD9FF1200F7
:101D6000D9CFE6FFE1CFD9FF020EE1260FDF020E49
:101D7000E15C02E2E16AE552E16EE552E7CFD9FFAC
:101D80001200D9CFE6FFE1CFD9FFFD0EDBCF14F073
:101D9000FE0EDBCF15F00001800E15140BE0D950BC
:101DA000FD0FE96EFF0EDA20EA6E8C0EEE26180E9D
:101DB000ED22EBD7FD0EDBCF14F0FE0EDBCF15F0DE
:101DC000D890155004E68C0E145C180E15580BE3D1
:101DD000D950FD0FE96EFF0EDA20EA6E8C0EEE5E32
:101DE000180EED5AE7D7FD0EDBCF14F0FE0EDBCF59
:101DF00015F014C0F3FF15C0F4FF00D0E552E7CF93
:101E0000D9FF1200D9CFE6FFE1CFD9FF0A0EE126B4
:101E1000FD0EDBCF14F0FE0EDBCF15F0040ED890D4
:101E200015321432E804FBE11450DF6E0F0EE76E3A
:101E3000FD0EDBCF14F0FE0EDBCF15F0E7501416CD
:101E4000156A010E14C0DBFF156ADF34FE0B153670
:101E5000146EFB0EDB501424E96EFC0EDB501520D3
:101E6000EA6E040EEECFDBFF050EEDCFDBFFDF2ABF
:101E7000156ADF34FE0B1536146EFB0EDB5014248E
:101E8000E96EFC0EDB501520EA6E060EEECFDBFF8E
:101E9000070EEDCFDBFF010EDB50186E196A060E40
:101EA000DBCF16F0070EDBCF17F0040EDB50165C0D
:101EB000146E050EDB501758156E14C008F015C0CF
:101EC00009F018C00DF019C00EF04DEC30F0020E04
:101ED00006C0DBFF030E07C0DBFF040EDBCF16F0EE
:101EE000050EDBCF17F016C0E6FF17C0E6FF040EA5
:101EF000E66E020EDBCFE6FF030EDBCFE6FF84DCEF
:101F0000E552E552E552E552E7CF17F0E552E7CF4B
:101F100016F01650F324146E1750F420156E080EA8
:101F200014C0DBFF090E15C0DBFF080EDBCF14F079
:101F3000090EDBCF15F014C0F3FF15C0F4FF0A0E35
:101F4000E15C03E200D0E16AE552E16EE552E7CFE1
:101F5000D9FF1200D9CFE6FFE1CFD9FF030EE1266A
:101F6000FD0EDBCF14F0FE0EDBCF15F00001800E6E
:101F700015140BE0D950FD0FE96EFF0EDA20EA6E62
:101F80008C0EEE26180EED22EBD7FD0EDBCF14F0F3
:101F9000FE0EDBCF15F0D890155004E68C0E145CC5
:101FA000180E15580BE3D950FD0FE96EFF0EDA201D
:101FB000EA6E8C0EEE5E180EED5AE7D7FD0EDBCF03
:101FC00014F0FE0EDBCF15F0D890155004E6460E47
:101FD000145C0C0E155802E2000E01D0010EE76EE3
:101FE000020EE7CFDBFFDB500AE0D950FD0FE96EB0
:101FF000FF0EDA20EA6E460EEE5E0C0EED5A000E73
:10200000E66E020EE66EFD0EDBCF14F0FE0EDBCFA9
:1020100015F0166A15BE166815C016F014C015F036
:1020200014C015F0146A230E1426060E1522000E95
:102030001622460E0C6E0C0E0D6E0E6A14C007F0C2
:1020400015C008F016C009F0ECEC2FF007C014F032
:1020500008C015F009C016F014C0E6FF15C0E6FF71
:10206000D1DEE552E552E552E552F3CFDEFFF4CF83
:10207000DDFF020EDB500CE008680968DECF0DF0D2
:10208000DDCF0EF04DEC30F006C0DEFF07C0DDFF07
:10209000DECF14F0DDCF15F014C0F3FF15C0F4FF50
:1020A000030EE15C03E200D0E16AE552E16EE55225
:1020B000E7CFD9FF1200D9CFE6FFE1CFD9FFFD0E60
:1020C000DBCF14F0FE0EDBCF15F0230E1426060E28
:1020D000152214C0E6FF15C0E6FF3CDFE552E552CD
:1020E00000D0E552E7CFD9FF1200D9CFE6FFE1CF0C
:1020F000D9FF0E0EE126FD0EDBCF18F0FE0EDBCF72
:1021000019F00001800E19140BE0FD0EDBCF14F066
:10211000FE0EDBCF15F0146C151E000E152206D036
:10212000FD0EDBCF14F0FE0EDBCF15F0166A176A3A
:1021300015AE02D016681768040E14C0DBFF050E3A
:1021400015C0DBFF060E16C0DBFF070E17C0DBFF56
:10215000FB0EDBCF18F0FC0EDBCF19F0800E19144C
:102160000BE0FB0EDBCF14F0FC0EDBCF15F0146C94
:10217000151E000E152206D0FB0EDBCF14F0FC0E50
:10218000DBCF15F0166A176A15AE02D0166817680D
:1021900014C0DFFF010E15C0DBFF020E16C0DBFF0F
:1021A000030E17C0DBFFD950FB0FE96EFF0EDA20DC
:1021B000EA6EEE50ED101FE1FD0EDBCF14F0FE0EC7
:1021C000DBCF15F0800E15140BE0DD0EF36E0C0E58
:1021D000F3CFDBFFF90EF36E0D0EF3CFDBFF0AD06A
:1021E000230EF36E0C0EF3CFDBFF060EF36E0D0E17
:1021F000F3CFDBFF32D1D950FD0FE96EFF0EDA20AD
:10220000EA6EEE50ED1018E1FB0EDBCF14F0FC0E81
:10221000DBCF15F0800E15140AE0460EF36E0C0E9F
:10222000F3CFDBFFF36E0D0EF3CFDBFF04D00C0E0C
:10223000DB6A0D0EDB6A11D1040EDBCF14F0050E44
:10224000DBCF15F0060EDBCF16F0070EDBCF17F055
:10225000050ED8901436153616361736E806F9E10D
:1022600014C006F015C007F016C008F017C009F03A
:10227000DFCF0BF0010EDBCF0CF0020EDBCF0DF049
:10228000030EDBCF0EF019EC30F0080E06C0DBFFBA
:10229000090E07C0DBFF0A0E08C0DBFF0B0E09C0EA
:1022A000DBFFD950080FE96EDACFEAFFD890030EB2
:1022B000EB50000A08E6000EEE5C010EEE58000E30
:1022C000EE58000EEE5816E2220EE66E020EE66E94
:1022D000080EDBCFE6FF090EDBCFE6FF93DDE5520C
:1022E000E552E552E5520C0EF3CFDBFF0D0EF4CFB5
:1022F000DBFF61D0D950080FE96EDACFEAFFEE526A
:10230000EE06000EEE5AEE5A42C214F043C215F029
:10231000166A176A15AE02D016681768080EDBCF6A
:1023200018F0090EDBCF19F00A0EDBCF1AF00B0EF6
:10233000DBCF1BF0020ED8901B321A321932183242
:10234000E806F9E118501426195015221A501622E1
:102350001B5017220C0E14C0DBFF0D0E15C0DBFF47
:102360000C0EDBCF16F00D0EDBCF17F00001800E48
:10237000171403E0146A156A18D00C0EDBCF18F09E
:102380000D0EDBCF19F0193404E218502308060EA5
:10239000195405E2230E146E060E156E06D00C0EAF
:1023A000DBCF14F00D0EDBCF15F00C0E14C0DBFFED
:1023B0000D0E15C0DBFFFB0EDBCF14F0FC0EDBCFE8
:1023C00015F00001800E15142EE0FD0EDBCF14F089
:1023D000FE0EDBCF15F0153404E214500008000E99
:1023E000155411E20C0EDBCF14F00D0EDBCF15F0FF
:1023F000460ED88014560C0E155614C0DBFF0D0E79
:1024000015C0DBFF0FD00C0EDBCF14F00D0EDBCFB1
:1024100015F0460E14260C0E152214C0DBFF0D0E0F
:1024200015C0DBFF1AD0FD0EDBCF14F0FE0EDBCFA4
:1024300015F0800E151411E00C0EDBCF14F00D0E0C
:10244000DBCF15F08C0ED8801456180E15560C0ED6
:1024500014C0DBFF0D0E15C0DBFF0C0EDBCF14F03C
:102460000D0EDBCF15F014C0F3FF15C0F4FF0E0EF8
:10247000E15C03E200D0E16AE552E16EE552E7CFAC
:10248000D9FF1200D9CFE6FFE1CFD9FF040EE12634
:10249000DE6ADD6A020EDB6A010EF36E030EF3CF15
:1024A000DBFF020EDBCF14F0030EDBCF15F015348B
:1024B00004E214500008000E15544DE2000EDFCF68
:1024C00008F0010EDBCF09F0DECF0DF0DDCF0EF00E
:1024D0004DEC30F006C014F007C015F0FD0EDBCF58
:1024E00016F0FE0EDBCF17F017501518E8AE02D02D
:1024F000153404D01450165C155017580EE2020E15
:10250000DBCF14F0030EDBCF15F0D9CFE9FFDACF24
:10251000EAFF1450EE5E1550ED5A020EDBCF14F0B8
:10252000030EDBCF15F0D89015321432020E14C012
:10253000DBFF030E15C0DBFF020EDBCF14F0030E32
:10254000DBCF15F0D9CFE9FFDACFEAFF1450EE2642
:102550001550ED22A6D7DECF14F0DDCF15F014C054
:10256000F3FF15C0F4FF040EE15C03E200D0E16A62
:10257000E552E16EE552E7CFD9FF1200D9CFE6FF71
:10258000E1CFD9FF020EE126E66AE66A18EC33F0E5
:10259000E552E552F3CF14F0F4CF15F0030ED890C6
:1025A00015321432E804FBE114C0DEFF15C0DDFF74
:1025B000010EE66EA3C116F0176A16BE1768DE504C
:1025C0001624146EDD501720156E010E1426000E11
:1025D000152214C0E6FF15C0E6FF04EC0CF0E5522E
:1025E000E552E552F3CFA3F1A3C114F0156A14BE6E
:1025F000156855C216F0176A16BE176815501718D9
:10260000E8AE02D0173404D01650145C1750155899
:1026100002E3000E01D0010E010B0101726F725135
:1026200024E09CC114F09DC115F09EC116F09FC11D
:1026300017F0400E1416156A166A176A1450151012
:102640001610171009E1800EE66E40D9E552040E0F
:10265000E66E3CD9E55208D0800EE66E44D9E552CC
:10266000040EE66E40D9E5522ED0805124E09CC184
:1026700014F09DC115F09EC116F09FC117F0800E99
:102680001416156A166A176A1450151016101710CA
:1026900009E1800EE66E1AD9E552040EE66E16D9EF
:1026A000E55208D0800EE66E1ED9E552040EE66EA5
:1026B0001AD9E55208D0800EE66E15D9E552040EFF
:1026C000E66E11D9E552020EE15C02E2E16AE552E2
:1026D000E16EE552E7CFD9FF120001019607000E27
:1026E000975B965197113DE127C114F028C115F071
:1026F000FF0ED8801456000E1556030ED8901532D2
:102700001432E804FBE1050E01011424966F000E5B
:102710001520976F0101815105E0510EE66ED6D864
:10272000E5521FD001014DA909D0510EE66EDBD84C
:10273000E552010EE66ECAD8E55213D04DA109D07C
:10274000510EE66ED0D8E552400EE66EBFD8E55287
:1027500008D0510EE66EC7D8E552100EE66EB6D818
:10276000E552120002015351E840E8403F0B010BD3
:102770004DE02E0EE66EB7D8E55214C114F0156A7E
:10278000000EE76E1418E8AE02D0143403D0E75000
:10279000D880145405E2040EE66E98D8E55211D0A4
:1027A00014C114F0156AFF0EE76E1418E8AE02D0DB
:1027B000E73402D0E750145C04E2080EE66E86D8D7
:1027C000E55216C114F0156A000EE76E1418E8AE53
:1027D00002D0143403D0E750D880145405E2200E00
:1027E000E66E74D8E55211D016C114F0156AFF0ECA
:1027F000E76E1418E8AE02D0E73402D0E750145C5C
:1028000004E2020EE66E62D8E5522AD05351E00B84
:10281000E838E840010B24E02E0EE66E64D8E5525D
:102820000101513504E250510008000E515505E2F6
:10283000080EE66E4BD8E55207D0800E511504E025
:10284000040EE66E43D8E55201014F3504E24E51C5
:10285000F008000E4F5504E2200EE66E37D8E55220
:102860001200D9CFE6FFE1CFD9FF020EE1264DC11C
:10287000DFFF828A94988296DE52080EDD6E010E8A
:10288000DB5016E0DFAE02D0828801D08298DF9E56
:10289000DF46010EE66EE7EC34F0E5528286010E6B
:1028A000E66EE7EC34F0E5528296010EDB06E7D7E0
:1028B0008282829282869488020EE15C02E2E16A60
:1028C000E552E16EE552E7CFD9FF1200D9CFE6FF1E
:1028D000E1CFD9FFFE0EDB5001014D13C2DFE552FF
:1028E000E7CFD9FF1200D9CFE6FFE1CFD9FFFE0E27
:1028F000DB1C01014D17B5DFE552E7CFD9FF120010
:022900001200C3
:0E290200F1EC31F0420EE66E13EC32F0E552CD
:10291000000901E039D0470EE66E13EC32F0E552C3
:10292000000901E031D0740EE66E13EC32F0E5528E
:10293000000901E029D0720EE66E13EC32F0E55288
:10294000000901E021D003EC32F0F1EC31F0420E4D
:10295000E66E13EC32F0E552000901E015D04C0EA2
:10296000E66E13EC32F0E552000901E00DD003EC05
:1029700032F0320EE66EE66A5BEC0BF0E552E552A1
:102980000101010E746F04D00101746B03EC32F08D
:102990001200D9CFE6FFE1CFD9FF0B0EE1260101EE
:1029A000745101E153D1F1EC31F0430EE66E13ECBA
:1029B00032F0E552000902E1000E01D0010E0101E2
:1029C0007513E66A47EC32F0E552166E176A16C0C8
:1029D00017F0166A16C0E6FF17C0E6FF010EE66E96
:1029E00047EC32F0E552E552E7CF17F0E552E7CF7A
:1029F00016F000011610146E17C015F0040E14C066
:102A0000DBFF050E15C0DBFF03EC32F0040EDBCF5D
:102A100014F0050EDBCF15F0166A176A15AE02D05A
:102A200016681768460E0B6E0C0E0C6E0D6A0E6A59
:102A300014C006F015C007F016C008F017C009F062
:102A400058EC33F002C014F003C015F004C016F0C7
:102A500005C017F0080E0B6E070E0C6E0D6A0E6A9D
:102A600014C006F015C007F016C008F017C009F032
:102A700019EC30F006C014F007C015F008C016F0CD
:102A800009C017F0230E145E060E155A000E165AD2
:102A9000175A060E14C0DBFF070E15C0DBFF080E29
:102AA00016C0DBFF090E17C0DBFF060EDBCFE6FF0B
:102AB000070EDBCFE6FFC1EC0EF0E552E552F3CF97
:102AC00052F1F4CF53F1D950040FE96EDACFEAFF97
:102AD0000F0E0D6E0E6AEECF08F0EDCF09F0C6ECCA
:102AE0002FF008C0EEFF09C0EDFF040EDBCFDEFFC4
:102AF000DBCFDDFF01014F3504E24E51F008000E3F
:102B00004F5508E20101506B516B01014E07000E59
:102B10004F5B9CD0F00E4E1901E14F5107E1DECF23
:102B20004EF1DDCF4FF10101506B516B0101DE50D1
:102B30004E5D146EDD504F59156E14C0DEFF15C08A
:102B4000DDFFDECF14F0DDCF15F0153404E31450B3
:102B50008808FF0E155405E3F00EDE26000EDD2278
:102B600013D0DECF14F0DDCF15F0153404E214508D
:102B70007808000E155408E2D9CFE9FFDACFEAFF52
:102B8000F00EEE5E000EED5ADECF16F0DDCF17F040
:102B9000D880175004E7EC0E165CFF0E175804E2BD
:102BA000EC0E146E156813D0DECF18F0DDCF19F0DF
:102BB000193404E218501408000E195404E2140EDB
:102BC000146E156A04D0DECF14F0DDCF15F014C0FA
:102BD000DEFF15C0DDFF080EE66E50C118F051C1D2
:102BE00019F0030E1902F3CF19F01802F3CF18F001
:102BF000F4501926DE501824166EDD501920176E79
:102C0000D89016361736D890163617365EC21AF098
:102C10001B6A1ABE1B6800011A501602F3CF14F08B
:102C2000F4CF15F01702F35015261B501602F3507F
:102C3000152614C0E6FF15C0E6FF04EC0CF0E552C3
:102C4000E552E552F3CF50F1F4CF51F10B0EE15CB8
:102C500002E2E16AE552E16EE552E7CFD9FF1200E8
:102C6000F1EC31F0EE0EE66E13EC32F0E5520009B5
:102C700001E04BD0F60EE66E13EC32F0E55200099F
:102C800001E043D0F1EC31F0EF0EE66E13EC32F0E0
:102C9000E552000901E039D0010EE66E47EC32F052
:102CA000E5520101486F496B48C149F1486B03EC9B
:102CB00032F0F1EC31F0EE0EE66E13EC32F0E5524C
:102CC000000901E022D0F70EE66E13EC32F0E55277
:102CD000000901E01AD0F1EC31F0EF0EE66E13ECD2
:102CE00032F0E552000901E010D0010EE66E47EC2B
:102CF00032F0E552146E156A145001014813155054
:102D0000491303EC32F0010E06D003EC32F001015E
:102D1000766B000E00D01200D9CFE6FFE1CFD9FFCD
:102D2000F1EC31F0EE0EE66E13EC32F0E5520009F4
:102D300001E01FD0F40EE66E13EC32F0E55200090C
:102D400001E017D0FE0EDBCFE6FF13EC32F0E552C8
:102D5000000901E00ED003EC32F0FE0EDB50010161
:102D60004B5D02E0000E01D0010E0101776F010EF4
:102D700004D003EC32F0000E00D0E552E7CFD9FFCB
:102D80001200D9CFE6FFE1CFD9FFE652000E0101D4
:102D9000986F996B0101466F476BF1EC31F0EE0EC5
:102DA000E66E13EC32F0E552000901E05DD0D00E82
:102DB000E66E13EC32F0E552000901E055D0F1EC7B
:102DC00031F0EF0EE66E13EC32F0E552000901E04F
:102DD0004BD0010EE66E47EC32F0E55201014A6F2E
:102DE00003EC32F0550E01014A5D04E101012E0EA3
:102DF0004B6F03D001016E0E4B6F4BC1E6FF8CDFB2
:102E0000E552000901E130D00A0EE66EE66A5BEC9D
:102E10000BF0E552E55224DFDF6E48C13FF149C1B6
:102E200040F10101416BF40EE66E76DFE5520009D8
:102E300001E11AD01E0EE66EE66A5BEC0BF0E5527D
:102E4000E5520EDFDF6E48C13CF149C13DF10101A1
:102E50003E6B4BC1E6FF60DFE552000901E104D0A3
:102E60000101010E766F06D00101816B81C176F1FF
:102E700003EC32F0E552E552E7CFD9FF1200D9CF8B
:102E8000E6FFE1CFD9FF060EE1260101982B000EE7
:102E900099230101765101E1AAD1080E010199AFF0
:102EA00002D0D89003D0985D000E995903E3010138
:102EB00077510FE1200E010199AF02D0D89003D0D5
:102EC000985D000E995901E292D10101775101E01C
:102ED0008ED10101986B996BC3DE010801E087D1A7
:102EE0000101775123E0F40EE66E16DFE552010191
:102EF0009251931107E048C13FF149C140F10101EE
:102F0000416B13D048C117F049C118F0196A01018B
:102F10003F51175C146E40511858156E41511958A5
:102F2000166E14C044F115C045F161D14BC1E6FFE6
:102F3000F3DEE5520101925193110CE048C13CF1DE
:102F400049C13DF101013E6B0101816B0101466BFD
:102F5000476B4DD101014DBF06D0800EE66E66EC89
:102F600014F0E55205D0800EE66E73EC14F0E552D5
:102F70000101815106E10101426B436B0101010E28
:102F8000816F01013C510101485F01013D51010187
:102F9000495B050EE66E47C216F0176A16BE176843
:102FA000010116504403F3CF14F0F4CF15F045039C
:102FB000F35000011526175001014403F35000019E
:102FC0001526100E1426000E152214C0E6FF15C09B
:102FD000E6FF04EC0CF0E552E552E552F350010136
:102FE0004827F450492342C1DEFF43C1DDFF030EF1
:102FF000E66E070E086E096A42C10DF043C10EF07D
:103000004DEC30F0065001014825146E075049215F
:10301000156E040E1426000E152214C0E6FF15C00E
:10302000E6FF04EC0CF0E552E552E552F3CF42F135
:10303000F4CF43F10101DE50425D146EDD5043597F
:10304000156E040E14C0DBFF050E15C0DBFFD88023
:10305000435104E7FE0E425DFF0E435904E2FE0EAB
:10306000426F43690DD0433504E242510808000E17
:10307000435504E2080E426F436B02D043C143F153
:103080004CC214F0156A14BE156842C108F043C161
:1030900009F014C00DF015C00EF04DEC30F0020E2A
:1030A00006C0DBFF030E07C0DBFF020EDBCF14F010
:1030B000030EDBCF15F0010115504719E8AE02D021
:1030C000473504D04651145C4751155804E2460771
:1030D000000E475B14D0020EDBCF14F0030EDBCFE3
:1030E00015F047511518E8AE02D0153404D014502D
:1030F000465D1550475903E2462B000E4723020E4A
:10310000DBCF14F0030EDBCF15F015504719E8AEF6
:1031100002D0473504D04651145C4751155803E29C
:103120004607000E475B5FC21AF01B6A1ABE1B6897
:10313000040EDBCF16F0050EDBCF17F0D88017504A
:1031400004E7FB0E165CFF0E175804E2FB0E146E2C
:10315000156817D0040EDBCF18F0050EDBCF19F081
:10316000193404E218500808000E195404E2080E3D
:10317000146E156A06D0040EDBCF14F0050EDBCFFB
:1031800015F014C008F015C009F01AC00DF01BC0EE
:103190000EF04DEC30F00650010146270750472352
:1031A000D880475104E7FB0E465DFF0E475904E205
:1031B000FB0E466F47690DD0473504E246510F08B4
:1031C000000E475504E20F0E466F476B02D047C111
:1031D00047F101014DBF06D0800EE66E66EC14F09B
:1031E000E55205D0800EE66E73EC14F0E552060E43
:1031F000E15C02E2E16AE552E16EE552E7CFD9FF18
:023200001200BA
:0E3202009CC114F09DC115F09EC116F09FC135
:1032100017F00F0E1416156A166A176A1450151057
:103220001610171026E1010127C114F028C115F06E
:103230002707000E285B0001800E151404E0010131
:10324000276B286B16D0010127C116F028C117F093
:103250002707000E285B173404E21650F008000E12
:10326000175404E2F00E276F286B03D02707000ED7
:10327000285B1200D9CFE6FFE1CFD9FF100EE1267F
:10328000FB0EDBCF08F0FC0EDBCF09F000018E5106
:10329000085C146E8F510958156E080E14C0DBFFC0
:1032A000090E15C0DBFFFD0EDBCF08F0FE0EDBCFF5
:1032B00009F000018C51085C146E8D510958156E8F
:1032C0000A0E14C0DBFF0B0E15C0DBFF080EDBCFB0
:1032D00016F0090EDBCF17F00001800E17140BE07B
:1032E000080EDBCF14F0090EDBCF15F0146C151EA1
:1032F000000E152206D0080EDBCF14F0090EDBCF2E
:1033000015F0145015101EE10A0EDBCF1AF00B0E4B
:10331000DBCF1BF0800E1B140BE00A0EDBCF18F086
:103320000B0EDBCF19F0186C191E000E192206D0F7
:103330000A0EDBCF18F00B0EDBCF19F01850191066
:1033400001E119D30A0EDBCF18F00B0EDBCF19F019
:10335000800E19140BE00A0EDBCF16F00B0EDBCF3C
:1033600017F0166C171E000E172206D00A0EDBCFC0
:1033700016F00B0EDBCF17F0080EDBCF1CF0090E9A
:10338000DBCF1DF0800E1D140BE0080EDBCF1AF012
:10339000090EDBCF1BF01A6C1B1E000E1B2206D081
:1033A000080EDBCF1AF0090EDBCF1BF017501B18ED
:1033B000E8AE02D01B3404D01A50165C1B501758CC
:1033C0001BE2080EDBCF1EF0090EDBCF1FF0800ED4
:1033D0001F140BE0080EDBCF14F0090EDBCF15F045
:1033E000146C151E000E152206D0080EDBCF14F04B
:1033F000090EDBCF15F01AD00A0EDBCF20F00B0E32
:10340000DBCF21F0800E21140BE00A0EDBCF14F08D
:103410000B0EDBCF15F0146C151E000E152206D016
:103420000A0EDBCF14F00B0EDBCF15F0060E14C026
:10343000DBFF070E15C0DBFF060EDBCF14F0070E17
:10344000DBCF15F0166A176A15AE02D0166817683A
:10345000D8901750000A08E6320E145C000E15587A
:10346000000E1658000E175835E20A0EDBCF08F092
:103470000B0EDBCF09F00A0EDBCF0DF00B0EDBCF0E
:103480000EF04DEC30F006C016F007C017F0080E35
:10349000DBCF08F0090EDBCF09F0080EDBCF0DF013
:1034A000090EDBCF0EF04DEC30F016500624146EF2
:1034B00017500720156E14C0E6FF15C0E6FF42EC5A
:1034C00012F0E552E552060EF3CFDBFF070EF4CF04
:1034D000DBFF40D0060EDBCF18F0070EDBCF19F074
:1034E000800E191405E0146A156A166A176A2CD042
:1034F000060EDBCF1AF0070EDBCF1BF01C6A1D6A2D
:103500001BAE02D01C681D681D34000E1D1809E694
:10351000D880320E1A54000E1B54000E1C54000E9C
:103520001D5406E2320E146E156A166A176A0CD024
:10353000060EDBCF14F0070EDBCF15F0166A176A04
:1035400015AE02D016681768060E14C0DBFF070E12
:1035500015C0DBFF0A0EDBCFE6FF0B0EDBCFE6FF6D
:10356000080EDBCFE6FF090EDBCFE6FF75EC10F0AF
:10357000E552E552E552E55201015251F35C146EF9
:103580005351F458156E14C0E6FF15C0E6FFC1ECA8
:103590000EF0E552E552F3CFDEFFF4CFDDFF060E6D
:1035A000DBCF06F0070EDBCF07F0086A096A07AE2B
:1035B00002D008680968660E0B6E0C6A0D6A0E6A06
:1035C00058EC33F002C006F003C007F004C008F066
:1035D00005C009F00B6A010E0C6E0D6A0E6A19EC3B
:1035E00030F0020E06C0DBFF030E07C0DBFF040E47
:1035F00008C0DBFF050E09C0DBFFDECFE6FFDDCF35
:10360000E6FFAAEC0FF0E552E552F3CF14F0F4CF49
:1036100015F0166A176A15AE02D01668176814C03E
:1036200006F015C007F016C008F017C009F0020E2A
:10363000DBCF0BF0030EDBCF0CF0040EDBCF0DF075
:10364000050EDBCF0EF058EC33F002C006F003C0DD
:1036500007F004C008F005C009F00B6A010E0C6EFB
:103660000D6A0E6A19EC30F00C0E06C0DBFF0D0E71
:1036700007C0DBFFFDC018F0196A18BE19680C0EF0
:10368000DB501824166E0D0EDB501920176ED880F3
:10369000175004E7FF0E165CFF0E175803E214687C
:1036A000156825D0FDC01CF01D6A1CBE1D680C0EDF
:1036B000DB501C241A6E0D0EDB501D201B6E1B34BC
:1036C00004E21A500108000E1B5404E2010E146EAD
:1036D000156A0DD0FDC01EF01F6A1EBE1F680C0EBD
:1036E000DB501E24146E0D0EDB501F20156E14C00F
:1036F000FDF00C0EDB50010129250001166E0D0EA8
:10370000DB5001012A210001176EFDC018F0196A73
:1037100018BE196816501824146E17501920156E0B
:10372000D880155004E7100E145CFF0E155805E202
:103730000101100E296F2A693BD00C0EDB500101EC
:10374000292500011C6E0D0EDB5001012A2100010C
:103750001D6EFDC01EF01F6A1EBE1F681C501E2479
:103760001A6E1D501F201B6E1B3404E21A50F00805
:10377000000E1B5405E20101F00E296F2A6B18D0D0
:103780000C0EDB50010129250001206E0D0EDB50CF
:1037900001012A210001216EFDC022F0236A22BE10
:1037A0002368205022240101296F215023202A6FF1
:1037B000DECFE6FFDDCFE6FF5BEC10F0E552E55231
:1037C000F3CF14F0F4CF15F0166A176A15AE02D0D5
:1037D00016681768000E146C151E1522161E162288
:1037E000171E172214C006F015C007F016C008F007
:1037F00017C009F0020EDBCF0BF0030EDBCF0CF08D
:10380000040EDBCF0DF0050EDBCF0EF058EC33F0DD
:1038100002C006F003C007F004C008F005C009F0BC
:103820000B6A010E0C6E0D6A0E6A19EC30F00E0E6A
:1038300006C0DBFF0F0E07C0DBFFFEC018F0196AE1
:1038400018BE19680E0EDB501824166E0F0EDB50D2
:103850001920176ED880175004E7FF0E165CFF0E74
:10386000175803E21468156825D0FEC01CF01D6AC5
:103870001CBE1D680E0EDB501C241A6E0F0EDB5092
:103880001D201B6E1B3404E21A500108000E1B544D
:1038900004E2010E146E156A0DD0FEC01EF01F6A00
:1038A0001EBE1F680E0EDB501E24146E0F0EDB5062
:1038B0001F20156E14C0FEF00E0EDB5001012B25EB
:1038C0000001166E0F0EDB5001012C210001176E56
:1038D000FEC018F0196A18BE196816501824146E24
:1038E00017501920156ED880155004E7100E145C7F
:1038F000FF0E155805E20101100E2B6F2C693BD00D
:103900000E0EDB5001012B2500011C6E0F0EDB504B
:1039100001012C2100011D6EFEC01EF01F6A1EBE9B
:103920001F681C501E241A6E1D501F201B6E1B3456
:1039300004E21A50F008000E1B5405E20101F00EDB
:103940002B6F2C6B18D00E0EDB5001012B250001C4
:10395000206E0F0EDB5001012C210001216EFEC0F4
:1039600022F0236A22BE23682050222401012B6FFB
:10397000215023202C6F100EE15C02E2E16AE55237
:10398000E16EE552E7CFD9FF1200010100510101BC
:10399000276F286B04C129F101012A6B29BF2A690D
:1039A00005C12BF101012C6B2BBF2C6906C12DF138
:1039B00001012E6B2DBF2E69CAEC20F001016F5161
:1039C00003E06E5101E138D07F5136E00101015131
:1039D000146E156A153404E214507708000E15545D
:1039E0000DE20101826B000EE66EE66AE66EE66AA3
:1039F00041DCE552E552E552E5521ED0010181510C
:103A00001AE082510AE18CC090F08DC091F08EC016
:103A100092F08FC093F0010E826F92C0E6FF93C0C8
:103A2000E6FF90C0E6FF91C0E6FF24DCE552E552D8
:0A3A3000E552E55201D0826B12004E
:063A3A00D9CFE6FFE1CF49
:103A4000D9FF030EE126010EDB6A020EDB6A0001DC
:103A5000F3512BE1FE0EDB50DF6EFD0EDB50D88004
:103A6000DF5423E3D950010FE96EDACFEAFF0A0EE3
:103A7000EC02F3CFEDFFEF02F3CFEEFFF450ED26B3
:103A8000DF50EA6A9E0FE96E000EEA22EF50D00F77
:103A9000146E156AD950010FE96EDACFEAFF14509F
:103AA000EE261550ED22DF2AD8D7010EDBCF14F019
:103AB000020EDBCF15F014C0F3FF15C0F4FF030EA8
:103AC000E15C03E200D0E16AE552E16EE552E7CF46
:103AD000D9FF1200D9CFE6FFE1CFD9FF100EE126C2
:103AE0000C0EDB6A0D0EDB6A0E0EDB6A0F0EDB6A54
:103AF0000001F35101E0CFD0FD0EDB50F90FE66E6F
:103B0000FE0EDBCFE6FF99DFE552E552F3CF14F06E
:103B1000F4CF15F0166A176A15AE02D0166817684A
:103B200014C0DFFF010E15C0DBFF020E16C0DBFF65
:103B3000030E17C0DBFFFD0EDB50FB0FE66EFD0E24
:103B4000DB50FA0FE66E79DFE552E552F3CF14F061
:103B5000F4CF15F0166A176A15AE02D0166817680A
:103B6000040E14C0DBFF050E15C0DBFF060E16C0E9
:103B7000DBFF070E17C0DBFFFD0EDBCFE6FFFD0E00
:103B8000DB50FD0FE66E59DFE552E552F3CF14F03E
:103B9000F4CF15F0166A176A15AE02D016681768CA
:103BA000080E14C0DBFF090E15C0DBFF0A0E16C09D
:103BB000DBFF0B0E17C0DBFFD9CFE9FFDACFEAFF3F
:103BC000EECF18F0EECF19F0EECF1AF0EFCF1BF0DA
:103BD000C00E0B6E270E0C6E090E0D6E0E6A18C00D
:103BE00006F019C007F01AC008F01BC009F058EC25
:103BF00033F002C018F003C019F004C01AF005C079
:103C00001BF0040EDBCF1CF0050EDBCF1DF0060E03
:103C1000DBCF1EF0070EDBCF1FF0A00E0B6E860E63
:103C20000C6E010E0D6E0E6A1CC006F01DC007F072
:103C30001EC008F01FC009F058EC33F002C01CF0A1
:103C400003C01DF004C01EF005C01FF01C50182654
:103C50001D5019221E501A221F501B22D950080F26
:103C6000E96EDACFEAFF1850EE24146E1950EE20F8
:103C7000156E1A50EE20166E1B50EE20176E0C0EAD
:103C800014C0DBFF0D0E15C0DBFF0E0E16C0DBFFF0
:103C90000F0E17C0DBFF0C0EDBCF14F00D0EDBCFC9
:103CA00015F00E0EDBCF16F00F0EDBCF17F014C0A1
:103CB00006F015C007F016C008F017C009F0100E86
:103CC000E15C03E200D0E16AE552E16EE552E7CF44
:103CD000D9FF1200EEC0F1F00001F105F26FEE51D4
:103CE000EA6A9E0FE96E000EEA22EF502C0822E0ED
:103CF000EE51EA6A9E0FE96E000EEA22EF502A08A2
:103D000019E0EF51EE5D14E2EE51EA6A9E0FE96EA2
:103D1000000EEA22EF502C080BE0EE51EA6A9E0FEB
:103D2000E96E000EEA22EF502A0802E0EE2BE9D7F6
:103D3000EE05F26FEE2BF151F25D02E3000E01D0C1
:103D4000010EF36F1200D9CFE6FFE1CFD9FF080EC5
:103D5000E126C0DFBFDFBEDFF2C0E6FFF1C0E6FF55
:103D6000B9DEE552E55206C0DEFF07C0DEFF08C03F
:103D7000DEFF09C0DDFFDD52DD52ACDF0001F15195
:103D8000EA6A9E0FE96E000EEA22EF5053081CE12A
:103D9000D9CFE9FFDACFEAFFEECF06F0EECF07F09A
:103DA000EECF08F0EFCF09F00B680C680D680E68D5
:103DB00058EC33F002C0DEFF03C0DEFF04C0DEFFBC
:103DC00005C0DDFFDD52DD5285DFF2C0E6FFF1C048
:103DD000E6FF80DEE552E552040E06C0DBFF050E6D
:103DE00007C0DBFF060E08C0DBFF070E09C0DBFFC4
:103DF00071DF0001F151EA6A9E0FE96E000EEA22BE
:103E0000EF5057081EE1040EDBCF06F0050EDBCFA6
:103E100007F0060EDBCF08F0070EDBCF09F00B68CA
:103E20000C680D680E6858EC33F0040E02C0DBFF1E
:103E3000050E03C0DBFF060E04C0DBFF070E05C046
:103E4000DBFF48DFF2C0E6FFF1C0E6FFF6DDE5523A
:103E5000E552F3CF81F03EDFF2C0E6FFF1C0E6FFAE
:103E6000ECDDE552E552F3CFFFF134DF030E000144
:103E7000F25DE66EF1C0E6FFE0DDE552E552F3CF1C
:103E800014F0F4CF15F0640E1502F3CF15F0140200
:103E9000F3CF14F0F450152614C0E6FF15C0E6FF6A
:103EA000F2C0E6FF0001F205E66EC7DDE552E5521D
:103EB000E552E7CF15F0E552E7CF14F01450F324A4
:103EC0000001826F1550F420836F04DF020E0001A1
:103ED000F25DE66EF1C0E6FFB0DDE552E552F3CFEC
:103EE00014F0F4CF15F00A0E1502F3CF15F01402FA
:103EF000F3CF14F0F450152614C0E6FF15C0E6FF0A
:103F0000F2C0E6FFF2C0E6FF98DDE552E552E55269
:103F1000E7CF15F0E552E7CF14F01450F324000179
:103F2000966F1550F420976F010E815D04E3040E27
:103F30000101FF5D02E2000E01D0010E01017F6F61
:103F40007F5158E01E0E0101E76EFE19E8AE02D067
:103F5000E73402D0E750FE5D1FE201017F6B0101F3
:103F6000FE2BDFCF84F0010EDBCF85F0020EDBCF1E
:103F700086F0030EDBCF87F0040EDBCF88F0050E52
:103F8000DBCF89F0060EDBCF8AF0070EDBCF8BF09C
:103F900096C098F097C099F0D9CFE9FFDACFEAFF41
:103FA00000018451EE5C146E8551EE58156E8651F9
:103FB000EE58166E8751EE58176E14C08CF015C06F
:103FC0008DF0D950040FE96EDACFEAFF8851EE5C2C
:103FD000146E8951EE58156E8A51EE58166E8B513B
:103FE000EE58176E14C08EF015C08FF09851965F82
:103FF0009951975B080EE15C02E2E16AE552E16EDD
:10400000E552E7CFD9FF12000101A6510101A55DDC
:1040100001E198D000019C5101E184D0010A67E0E0
:10402000020A2EE0010A01E08DD0C8EC25F0000163
:104030009D6F9D510101A41B0001EF51EA6A9E0F83
:10404000E96E000EEA229DC0EFFFEF2B2A0E9D5D68
:1040500003E0500EEF5D05E1F66BF46B030E9C6F11
:104060000ED0240E9D5D09E1EF6BEE6BF06B01014C
:10407000A46B0001010E9C6F02D0A4C1F5F062D0C8
:10408000C8EC25F000019D6F020EF65D27E2410E9F
:104090009D5D13E3100EF403F350146E156A0A0EBF
:1040A0009D25166E176A000E1722410E165E000E31
:1040B000175A14501624F46F0FD0100EF403F35057
:1040C000146E156A9D51166E176A300E165E000E3C
:1040D000175A14501624F46FF62B08D0F451F55DDE
:1040E00002E0000E01D0010E806F9C6B2BD0C8EC5B
:1040F00025F000019D6F9D510101A41B0001F051AD
:10410000EA6AF70FE96E000EEA22EF509D5D08E1C2
:10411000040EF05D03E1020E9C6F01D0F02B01D084
:104120009C6B10D0C8EC25F000019D6F240E9D5DA6
:1041300008E1EF6BEE6BF06B0101A46B0001010E67
:104140009C6F00D01200D9CFE6FFE1CFD9FFE65235
:10415000000E00018C6F8D6B8E6F8F6B0101FF6BFA
:104160000001816B806B0101FE6B01017F6B01011E
:10417000546B556B640E01019A6F9B6B00019C6B35
:10418000EF6BEFC0EEF0200E9D6FE552E552E7CFEA
:10419000D9FF12000001805114E0020EE66E66ECB9
:1041A00014F0E552040EE66E73EC14F0E5520001D3
:1041B000806BC9DD01017F5103E00101546B556B38
:1041C00031D09CC114F09DC115F09EC116F09FC165
:1041D00017F00F0E1416156A166A176A1450151088
:1041E000161017101FE154C114F055C115F0166ACE
:1041F000176A15AE02D0166817681734000E171824
:1042000009E6D880140E1454000E1554000E1654EE
:10421000000E175403E201017F6B04D00101542BFF
:10422000000E5523020EE66E73EC14F0E552010108
:104230007F5106E0040EE66E73EC14F0E55205D0F3
:10424000040EE66E66EC14F0E5521200D9CFE6FFDC
:0C425000E1CFD9FFE552E7CFD9FF120003
:04425C00100EE66EEC
:10426000590EE66EE8EC24F0E552E5521200D9CF83
:10427000E6FFE1CFD9FFFE0EDB5008E0C20EE66E8E
:10428000610EE66EE8EC24F0E552E5525A0EE66E59
:10429000620EE66EE8EC24F0E552E552010173513E
:1042A00009E0060EE66E590EE66EE8EC24F0E552E3
:1042B000E55208D0F60EE66E580EE66EE8EC24F0F5
:1042C000E552E552ED0EE66E580EE66EE8EC24F08F
:1042D000E552E5520101745109E0E40EE66E580E14
:1042E000E66EE8EC24F0E552E55208D0F60EE66EF4
:1042F000580EE66EE8EC24F0E552E552D90EE66E73
:10430000580EE66EE8EC24F0E552E55201017651D4
:1043100009E0E40EE66E580EE66EE8EC24F0E55295
:10432000E55208D0F60EE66E580EE66EE8EC24F084
:10433000E552E55293DFE552E7CFD9FF1200D9CF1E
:10434000E6FFE1CFD9FF0A0EE126E9EC25F0E76EA2
:10435000030EE7CFDBFF01017E5101E02FD3030EF7
:10436000DB5001E12BD3030EDBCFE6FFC7EC33F0CC
:10437000E552F3CF14F0F4CF15F01450151009E006
:10438000030EDBCFE6FFD9EC33F0E552030EF3CF9B
:10439000DBFF030EDB503F0A01E107D37D0A01E199
:1043A000FFD2730A01E183D2030A01E180D2010A3C
:1043B00001E17DD2070A01E17AD2010A01E177D257
:1043C000030A01E174D2010A01E171D20F0A01E18D
:1043D0006ED26B0A01E167D21B0A01E160D2030AC7
:1043E00001E159D2080A01E152D20A0A01E127D2B9
:1043F000080A01E120D2060A01E119D2630A01E1AB
:1044000011D2720A01E10AD2040A01E1AAD10A0A10
:1044100001E1A3D1160A01E177D1030A62E0010AA2
:1044200001E0CCD2BE0EE66E580EE66EE8EC24F04B
:10443000E552E55201010151146E156A153404E28A
:1044400014507708000E155406E2320EE66E08ECA2
:1044500025F0E55205D0310EE66E08EC25F0E55268
:10446000C6EC0DF0010EF36E040EF3CFDBFF440E2D
:10447000DE6E020EDD6EDECF14F0DDCF15F05F0EC6
:10448000D8801454020E15542AE3B20EE66E580E6C
:10449000E66EE8EC24F0E552E552040EDBCFF3FFC4
:1044A000DB2AF350E66E15EC25F0E552AE0EE66E13
:1044B000580EE66EE8EC24F0E552E552DECFE9FF57
:1044C000DDCFEAFF090EEFCFDBFFDBCFE6FF56ECD7
:1044D00025F0E552DF2A010E01E3DB2ACCD7BEDE50
:1044E0006DD2020EE66E66EC14F0E552B20EE66E88
:1044F000580EE66EE8EC24F0E552E5522BEC26F07F
:10450000FF0FE76E040EE7CFDBFFAE0EE66E580E30
:10451000E66EE8EC24F0E552E55262EC26F0E76E38
:10452000090EE7CFDBFF01010151146E156A153446
:1045300004E214507708000E155408E2200EF36EC2
:10454000050EF3CFDBFF060EDB6A04D0050EDB6A37
:10455000060EDB6A040EDB50146E156A530E166EDF
:10456000020E176E440E165E020E175A16501418DD
:1045700002E11750151802E1090EDB96090EDBCF98
:10458000E6FF040EDB50E76E050EDBCF14F0060EDF
:10459000DBCF15F0E7501426000E15221450E66EFE
:1045A00033EC0EF0E552E552040EDB50146E156A42
:1045B000530E166E020E176E440E165E020E175A3A
:1045C0001650141802E1175015184EE1010101515F
:1045D000146E156A153404E214507708000E155451
:1045E00005E2050EDB6A060EDB6A07D0200EF36ECD
:1045F000050EF3CFDBFF060EDB6A090EDB90DB94C2
:10460000DB96DB9ADB9CDB9EDBCFE6FF040EDB5008
:10461000E76E050EDBCF14F0060EDBCF15F0E7508A
:104620001426000E15221450E66E1EEC0DF0E55215
:10463000ED0BE552E710E76E090EE7CFDBFFDBCFAE
:10464000E6FF040EDB50E76E050EDBCF14F0060E1E
:10465000DBCF15F0E7501426000E15221450E66E3D
:1046600033EC0EF0E552E55202014F3504E3FF0E44
:104670004F03F35001D04F51166E176A16BE1768DC
:1046800052C218F0196A18BE1968000118501602B3
:10469000F3CF14F0F4CF15F01702F350152619508C
:1046A0001602F3501526153404E214507F08000E4C
:1046B000155423E27F0E146E4FC20EF014C009F0A1
:1046C000ACEC2FF0090E09C0DBFFDBCFE6FF520E8A
:1046D000166E020E176E440E165E020E175A050E67
:1046E000DB501624146E060EDB501720156E145086
:1046F000E66E33EC0EF0E552E552020EE66E73EC18
:1047000014F0E552ABDD5AD19E0EE66E580EE66E01
:10471000E8EC24F0E552E55239C1E6FF56EC25F00D
:10472000E552970EE66E580EE66EE8EC24F0E55280
:10473000E5523AC1E6FF56EC25F0E552910EE66EE1
:10474000580EE66EE8EC24F0E552E5523BC1E6FF78
:1047500056EC25F0E55282DD31D1F3EC01F07EDD3F
:104760002DD18C0EE66E580EE66EE8EC24F0E55284
:10477000E55200C1E6FF15EC25F0E552880EE66E25
:10478000580EE66EE8EC24F0E552E55204C1E6FF6F
:1047900056EC25F0E552840EE66E580EE66EE8EC17
:1047A00024F0E552E55205C1E6FF56EC25F0E5524E
:1047B000800EE66E580EE66EE8EC24F0E552E55207
:1047C00006C1E6FF56EC25F0E5527C0EE66E580E6B
:1047D000E66EE8EC24F0E552E55201C1E6FF15EC87
:1047E00025F0E552780EE66E580EE66EE8EC24F001
:1047F000E552E55202C1E6FF15EC25F0E552740ED4
:10480000E66E580EE66EE8EC24F0E552E55203C180
:10481000E6FF15EC25F0E55221DDD0D08EEC07F057
:104820001DDDCCD00101010E7E6F9D8AC7D051ECF9
:1048300005F014DDC3D028EC00F010DDBFD0600E11
:10484000E66E580EE66EE8EC24F0E552E552E66AB4
:10485000E66AA6EC01F0146E156A166A176A14C0AF
:10486000E6FF15C0E6FF16C0E6FF17C0E6FFB8EC8E
:1048700026F0186E060EE15E18504D0EE66E580ECC
:10488000E66EE8EC24F0E552E552E8DC97D03CEC2B
:1048900003F0E4DC93D0ABEC03F0E0DC8FD008EC69
:1048A00004F0DCDC8BD0E66AE2DCE55287D03D0E1A
:1048B000E66E580EE66EE8EC24F0E552E552030E83
:1048C000DBCFE6FF08EC25F0E5523A0EE66E08EC89
:1048D00025F0E552030EDB50380A4EE00F0A43E0A4
:1048E000010A38E0030A2DE0010A22E0070A17E076
:1048F000010A0CE0030A01E048D0380EE66E580EBB
:10490000E66EE8EC24F0E552E5523FD0330EE66E59
:10491000580EE66EE8EC24F0E552E55236D02F0E44
:10492000E66E580EE66EE8EC24F0E552E5522DD026
:10493000290EE66E580EE66EE8EC24F0E552E552DC
:1049400024D0240EE66E580EE66EE8EC24F0E55214
:10495000E5521BD01D0EE66E580EE66EE8EC24F014
:10496000E552E55212D0180EE66E580EE66EE8ECEF
:1049700024F0E552E55209D0110EE66E580EE66EAF
:10498000E8EC24F0E552E55200D077EC25F0030E78
:10499000DB50CF0FE66E17EC05F0E5525FDC0ED072
:1049A00077EC25F0F29E80EC3EF0E30EE66E620EB0
:1049B000E66EE8EC24F0E552E55250DC0A0EE15CCC
:1049C00002E2E16AE552E16EE552E7CFD9FF12005B
:1049D000D9CFE6FFE1CFD9FFFD0EDBCFF6FFFE0E0C
:1049E000DBCFF7FF0800F5500FE0FD0EDBCFF6FF41
:1049F000DB2AFE0EDBCFF7FF01E3DB2A0800F550D0
:104A0000E66E06D8E552E8D7E552E7CFD9FF1200A7
:104A1000D9CFE6FFE1CFD9FF9EA8FED7FE0EDB502F
:104A2000AD6EE552E7CFD9FF1200D9CFE6FFE1CF57
:104A3000D9FF640E146E14C00EF0FE0EDBCF09F029
:104A4000D9EC34F00950300FE66EE2DFE552640E27
:104A5000146E14C00EF0FE0EDBCF09F0D9EC34F06A
:104A6000FE0E05C0DBFF0A0E146E14C00EF0FE0E23
:104A7000DBCF09F0D9EC34F00950300FE66EC8DF17
:104A8000E5520A0E146E14C00EF0FE0EDBCF09F0D4
:104A9000D9EC34F0FE0E05C0DBFFDB50300FE66EC4
:104AA000B7DFE552E552E7CFD9FF1200D9CFE6FFD5
:104AB000E1CFD9FFFE0EDBCF14F014340BE32D0E43
:104AC000E66EA6DFE552FE0EDB50FF0DFE0EF3CFC5
:104AD000DBFF04D02B0EE66E9BDFE552FE0EDBCF34
:104AE000E6FFA3DFE552E552E7CFD9FF12000D0E36
:104AF000E66E8EDFE5520A0EE66E8ADFE5521200A0
:104B0000D9CFE6FFE1CFD9FFFE0EDB50090808E25E
:104B1000FE0EDB50410FF60FE66E7ADFE55206D04F
:104B2000FE0EDB50300FE66E73DFE552E552E7CF45
:104B3000D9FF1200D9CFE6FFE1CFD9FFFE0EDB3857
:104B40000F0BE66EDDDFE552FE0EDB500F0BE66E5F
:104B5000D7DFE552E552E7CFD9FF1200D9CFE6FF04
:104B6000E1CFD9FFFD0EDBCF14F0FE0EDBCF15F049
:104B700015C014F0156A1450E66EDCDFE552FD0E28
:104B8000DBCFE6FFD7DFE552E552E7CFD9FF1200D2
:104B9000D9CFE6FFE1CFD9FFE6520101A551EA6A7C
:104BA000A70FE96E010EEA22EFCFDFFFA529146EF1
:104BB000156A166A176A3F0E1416156A166A176A7E
:104BC00014C0A5F1DF5000D0E552E552E7CFD9FF80
:104BD0001200D9CFE6FFE1CFD9FFE6529DAA1FD040
:104BE0000101A5510101A65D16E00101A551EA6A86
:104BF000A70FE96E010EEA22EFCFDFFFA529146EA1
:104C0000156A166A176A3F0E1416156A166A176A2D
:104C100014C0A5F101D0DF6ADF5018D017D09EAACA
:104C200013D0AB50020B03E1AB50040B05E0AB9883
:104C3000AB88AE50DF6E08D0AE50DF6EDFCFE6FF40
:104C4000E7DEE552DF5002D0000E00D0E552E5521B
:104C5000E7CFD9FF1200D9CFE6FFE1CFD9FF020E8F
:104C6000E126010EDB6AB5DFDF6E300EDF5CFBE3B1
:104C7000DF503908F8E3300EDF5C0A0D010EF3CF88
:104C8000DBFFA7DFDF6E300EDF5CFBE3DF503908B0
:104C9000F8E3300EDF5C146E010EDBCFE7FF14503B
:104CA000E726010EE7CFDBFFDB50146E020EE15C5E
:104CB00003E200D0E16AE552E16E1450E552E7CF1D
:104CC000D9FF1200D9CFE6FFE1CFD9FF030EE126CD
:104CD000010EDB6A020EDB6A7CDFDF6E300EDF5C0A
:104CE00003E3DF50390803E22D0EDF5CF5E12D0E02
:104CF000DF5C0DE1010EF36E020EF3CFDBFF69DF27
:104D0000DF6E300EDF5CFBE3DF503908F8E3300E76
:104D1000DF5C0A0D010EF3CFDBFF5BDFDF6E300ED1
:104D2000DF5CFBE3DF503908F8E3300EDF5C146E24
:104D3000010EDBCFE7FF1450E726010EE7CFDBFFC4
:104D4000020EDB5006E0010EDB50FF0D010EF3CF2B
:104D5000DBFF010EDB50146E030EE15C03E200D0BA
:104D6000E16AE552E16E1450E552E7CFD9FF120037
:104D7000D9CFE6FFE1CFD9FF170EE126D950FB0FBF
:104D8000E96EFF0EDA20EA6ED890030EEB50000AAF
:104D900008E6000EEE5C000EEE58000EEE58000E17
:104DA000EE5823E22D0EE66E33DEE552FB0EDBCF2E
:104DB00006F0FC0EDBCF07F0FD0EDBCF08F0FE0E99
:104DC000DBCF09F00B680C680D680E6858EC33F007
:104DD000FB0E02C0DBFFFC0E03C0DBFFFD0E04C0B8
:104DE000DBFFFE0E05C0DBFF04D0200EE66E10DEFA
:104DF000E5520C0EDB6AFB0EDBCF06F0FC0EDBCFC0
:104E000007F0FD0EDBCF08F0FE0EDBCF09F00A0E37
:104E10000B6E0C6A0D6A0E6A19EC30F00F0E06C0AC
:104E2000DBFF100E07C0DBFF110E08C0DBFF120E08
:104E300009C0DBFF0F0EDBCF18F0100EDBCF19F02F
:104E4000110EDBCF1AF0120EDBCF1BF00A0E0B6E29
:104E50000C6A0D6A0E6A18C006F019C007F01AC075
:104E600008F01BC009F058EC33F002C018F003C082
:104E700019F004C01AF005C01BF0D950FB0FE96E01
:104E8000FF0EDA20EA6E1850EE5C146E1950EE58E0
:104E9000156E1A50EE58166E1B50EE58176E0D0E0A
:104EA00014C0DBFFDB50300FE66ED9CF14F0DACF41
:104EB00015F00C0EDBCFF3FFDB2AF350166E176AEA
:104EC00016BE176814501624E96E15501720EA6EA6
:104ED000E552E750EF6ED9500F0FE96EDACFEAFFD7
:104EE000FB0EEECFDBFFFC0EEECFDBFFFD0EEECFB9
:104EF000DBFFFE0EEECFDBFFFB0EDBCF07F0FC0E81
:104F0000DBCF08F0FD0EDBCF09F0FE0EDBCF0AF0A1
:104F10000A34000E0A1809E6D880000E0754000E65
:104F20000854000E0954000E0A5401E264D70C0E16
:104F3000DBCF14F0FA0EDB28E76E1418E8AE02D0CF
:104F4000E73402D0E750145C16E2FA0EDBCF15F01E
:104F5000000EE76E1518E8AE02D0153403D0E75006
:104F6000D880155408E2300EE66E52DDE5522E0E62
:104F7000E66E4EDDE552FA0EDBCFE6FF0C0EDB509F
:104F8000E552E75CFF0FE76E0E0EE7CFDBFFDBCFEE
:104F900014F0143439E20E0EDBCF14F0156A166AE1
:104FA000176A14AE03D0156816681768130E14C07C
:104FB000DBFF140E15C0DBFF150E16C0DBFF160E4F
:104FC00017C0DBFFD950130FE96EDACFEAFFD89094
:104FD000030EEB50000A08E6000EEE5C000EEE58E1
:104FE000000EEE58000EEE580FE3300EE66E10DDA8
:104FF000E552D950130FE96EDACFEAFFEE06000E44
:10500000EE5AEE5AEE5ADED70C0EDB06D9CF14F06C
:10501000DACF15F0DBCF16F0176A16BE17681450FA
:105020001624E96E15501720EA6EEF50E66EF0DC9C
:10503000E552FA0EDB50F36E0C0EDB50F35C12E11E
:105040000C0EDBCF14F0000EE76E1418E8AE02D0A1
:10505000143403D0E750D880145404E22E0EE66EC8
:10506000D7DCE5520C0EDBCF14F0000EE76E1418FF
:10507000E8AE02D0143403D0E750D8801454C4E30F
:10508000F90EDB5005E0F90EDBCFE6FFC1DCE5529F
:10509000170EE15C02E2E16AE552E16EE552E7CF0C
:0450A000D9FF120022
:0C50A400D9CFE6FFE1CFD9FF070EE126CF
:1050B000020EE66EE66A8EEC0BF0E552E552010E4A
:1050C000DB6A020EDB6A030EDB6A040EDB6A050E86
:1050D000DB6A060EDB6ADF6A100EDF5C2AE2A70ECF
:1050E000E66E9EEC2EF0E552080B01E1F8D76CEC71
:1050F0002FF0D950010FE96EDACFEAFF01012F51ED
:10510000EE263051ED22D950030FE96EDACFEAFFD7
:1051100001013351EE263451ED22D950050FE96ECD
:10512000DACFEAFF01013151EE263251ED22DF2ABA
:10513000D3D7040EE66E080EE76E010EDBCF14F037
:10514000020EDBCF15F0E7501426000E152214C016
:10515000E6FF15C0E6FF04EC0CF0E552E552E5521F
:10516000DE52F3CFDEFFF4CFDDFFDD52040EE66E3C
:10517000080EE76E030EDBCF14F0040EDBCF15F044
:10518000E7501426000E152214C0E6FF15C0E6FFF6
:1051900004EC0CF0E552E552E552030EF3CFDBFFD1
:1051A000040EF4CFDBFFE66E080EE76E050EDBCFD4
:1051B00014F0060EDBCF15F0E7501426000E152272
:1051C00014C0E6FF15C0E6FF04EC0CF0E552E55212
:1051D000E552050EF3CFDBFF060EF4CFDBFF010E29
:1051E000DBCF16F0020EDBCF17F0D880175004E7A4
:1051F0009D0E165CFF0E175804E29D0E146E156886
:1052000017D0010EDBCF18F0020EDBCF19F01934E6
:1052100004E218506308000E195404E2630E146E81
:10522000156A06D0010EDBCF14F0020EDBCF15F0AD
:1052300014C039F1030EDBCF16F0040EDBCF17F0EC
:10524000D880175004E79D0E165CFF0E175804E235
:105250009D0E146E156817D0030EDBCF18F0040EE8
:10526000DBCF19F0193404E218506308000E19540A
:1052700004E2630E146E156A06D0030EDBCF14F041
:10528000040EDBCF15F014C03AF1050EDBCF16F09B
:10529000060EDBCF17F0000E165E040E175AD880EC
:1052A000175004E79D0E165CFF0E175804E29D0E82
:1052B000146E15681FD0050EDBCF18F0060EDBCF7D
:1052C00019F0000E185E040E195A193404E2185031
:1052D0006308000E195404E2630E146E156A0AD0B6
:1052E000050EDBCF14F0060EDBCF15F0000E145EBA
:1052F000040E155A14C03BF1070EE15C02E2E16AAC
:10530000E552E16EE552E7CFD9FF1200D9CFE6FFB3
:10531000E1CFD9FF0C0EE1260101735101E1F5D077
:105320006CEC2FF0060E2FC1DBFF070E30C1DBFF48
:105330000A0E31C1DBFF0B0E32C1DBFF080E33C199
:10534000DBFF090E34C1DBFF5BC214F0156A14BE2B
:105350001568D950060FE96EDACFEAFF1450EE5EF9
:105360001550ED5A5CC214F0156A14BE1568D95078
:10537000080FE96EDACFEAFF1450EE5E1550ED5AD1
:1053800059C214F0156A14BE1568D9500A0FE96E97
:10539000DACFEAFF1450EE5E1550ED5AD9500A0FDD
:1053A000E96EDACFEAFFEE52040EED5E050EE66E10
:1053B00013C116F014C117F0F10E1702F3CF17F056
:1053C000FF0E1602F3501726F10E1602F3CF16F059
:1053D000F4501726100E1626000E172216C0E6FFF0
:1053E00017C0E6FF04EC0CF0E552E552E552F3CFAE
:1053F00014F0F4CF15F0D950060FE96EDACFEAFFBA
:105400001450EE5E1550ED5A0101356B060EDBCFE0
:1054100014F0070EDBCF15F0153404E214500A081F
:10542000000E155402E2356910D0060EDBCF14F0E1
:10543000070EDBCF15F0D890155004E60A0E145C69
:10544000000E155802E2010E356F08680968080E53
:10545000DBCF0DF0090EDBCF0EF04DEC30F0080E77
:1054600006C0DBFF090E07C0DBFF050EE66E15C1A7
:1054700016F016C117F0F10E1702F3CF17F0FF0E5A
:105480001602F3501726F10E1602F3CF16F0F45061
:105490001726100E1626000E172216C0E6FF17C09C
:1054A000E6FF04EC0CF0E552E552E552F3CF14F0C0
:1054B000F4CF15F0D950080FE96EDACFEAFF145097
:1054C000EE5E1550ED5A0101366B080EDBCF14F07D
:1054D000090EDBCF15F0153404E214500A08000E53
:1054E000155402E2366910D0080EDBCF14F0090E15
:1054F000DBCF15F0D890155004E60A0E145C000EB0
:10550000155802E2010E366F03D001016C6B6D6B12
:105510000C0EE15C02E2E16AE552E16EE552E7CF92
:04552000D9FF12009D
:0C5524005265663A20200900202A2A2047
:105530004C4F57203C20392E3556202A2A20002057
:105540002A2A204C49504F20414C41524D203C20AA
:105550003956202A2A2000426174743A09005961A0
:10556000773A2020090050697463683A090020677F
:1055700079726F204E43206F72206661756C743FA4
:1055800000526F6C6C3A2009000D0A416E616C6F1D
:10559000672063682E20746573740D0A00092070FB
:1055A0003D0009202D3E20723D0009200072613D22
:1055B0000068643D0020733D002066783D000D0AC0
:1055C000507265737320616E79206B657920746FFA
:1055D00020636F6E742E0D0A00434F4E4E454354A8
:1055E000204750530D0A00756E697473204D657421
:1055F00072657320616E6420446567726565730D22
:105600000A006D6F6E69746F727320475053206982
:105610006E70757420756E74696C2066756C6C2084
:10562000706F776572207265636F6E6E6563740D5F
:105630000A000D0A47505320746573740D0A00095F
:10564000436F6D703A20000954656D703A20005028
:10565000726573733A200900547970653A09534DA5
:10566000443530300D0A00547970653A09424D5086
:105670003038350D0A000D0A4261726F6D65746530
:105680007220746573740D0A004F4B0D0A000D0AE9
:10569000507265737320616E79206B657920746F29
:1056A0002046494E4953480D0A000D0A43616C6972
:1056B000622E20636F6D70617373200D0A526F74D8
:1056C00061746520686F72697A6F6E74616C6C7951
:1056D000203732302064656720696E207E333020A9
:1056E0007365632E21200D0A507265737320616EFD
:1056F00079206B657920746F2053544152542E0DDC
:105700000A004641494C0D0A002064656720286E56
:105710006F7420636F7272656374656420666F7264
:10572000206F7269656E746174696F6E206F6E2090
:105730006169726672616D65290D0A000D0A436F19
:105740006D7061737320746573740D0A00286E6F39
:10575000206E65772076616C73290D0A006D530DFC
:105760000A476C6974636865733A09004761703A67
:105770000900204641494C003A092030780052780F
:105780002076616C733A0D0A000D0A506F732E205B
:1057900052782050504D0D0A000D0A4E65672E209C
:1057A00052782050504D0D0A00093078000D0A281B
:1057B0004163632E206E6F742070726573656E7422
:1057C000290D0A00446F776E2D3E55703A20202037
:1057D00020090046726F6E742D3E4261636B3A2061
:1057E0000900206661756C743F004C6566742D3E3F
:1057F00052696768743A2009000D0A416363656C59
:1058000065726F6D6574657220746573743A0D0A04
:105810000042656570657200417578330059656CAA
:105820006C6F77004175783100477265656E005284
:10583000656400426C75650041757832000D0A4F51
:10584000757470757420746573740D0A0020646536
:105850007669636528732920666F756E640D0A008A
:105860000D0A4932432064657669636573202E2EE4
:105870002E0D0A002C373A002C363A002C353A000F
:105880002C593A002C4E3A002C523A000D0A543A48
:1058900000205961773A0020507463683A000D0A7D
:1058A0004E65757472616C20526F6C6C3A00203DCD
:1058B00020000D0A526567697374657220000D0A35
:1058C000506172616D65746572206C6973742066D5
:1058D0006F72207365742023004261726F6D65746E
:1058E000657220004F4E4C494E450D0A00436F6DC6
:1058F0007061737320006E6F7420617661696C61F2
:10590000626C650D0A004F4E4C494E450D0A000071
:055910000D0A23200038
:0A591600D9CFE6FFE1CFD9FFFE0E66
:10592000DB5001017E5D0FE0FE0EDBCF7EF1DB5030
:10593000E8B09D8AE8A09D9A0A0EE66EE66A5BECE6
:105940000BF0E552E552E552E7CFD9FF1200530EB6
:10595000E66E4FEC34F0E552310EE66E11EC34F0A9
:10596000E552840EE66E86EC34F0E55202015339BE
:105970000F0B010BE8B0BD80E8A0BD90FE0EE66EF7
:105980006BEC34F0E5524E0ECB6E0101A66BA6C156
:10599000A5F1A6C1A4F1E66ABEDFE5521200DACF96
:1059A000E4FFE2CFDAFFE65200D0E552E5CFDAFFBE
:1059B0001100DACFE4FFE2CFDAFFE9CFE4FFEACF6C
:1059C000E4FFF6CFE4FFF7CFE4FFF5CFE4FFF3CF3A
:1059D000E4FFF4CFE4FFFACFE4FF00EE00F0140E92
:1059E000E80403E3EECFE4FFFBD700EE14F0100E63
:1059F000E80403E3EECFE4FFFBD7E652D9CFE6FF9E
:105A0000E1CFD9FFE6529EA203D09E920101F56B31
:105A10009EA40BD1CC6A9E920101716BBECFF9F1AD
:105A2000BFCFFAF10101FB6BF90EE96E010EEA6ED0
:105A3000020EEB50F819E8AE02D0F83506D0F65158
:105A4000EE5CF751EE58F851EE5805E2FF0EF65FA6
:105A5000F75B000EF85BF60EE96E010EEA6EEE5093
:105A6000F95D276EEE50FA59286EEE50FB59296EFB
:105A7000010E1F0B27C024F028C025F029C026F0F6
:105A800006E0D890263225322432E806FAE124C016
:105A9000FCF125C0FDF1F9C1F6F1FAC1F7F1FBC146
