:020000040800F2
:1000000000000120650301085DAD00085FAD000838
:1000100067AD00086FAD000877AD00080000000074
:100020000000000000000000000000007FAD00089C
:1000300081AD00080000000083AD00083DAD000860
:10004000A9030108A9030108A9030108A9030108DC
:10005000A9030108A9030108A9030108A9030108CC
:10006000A9030108A9030108A9030108A9030108BC
:10007000A9030108A9030108E9AD0008A9030108C3
:10008000A903010831AE0008A9030108A90301086A
:10009000A9030108A9030108A9030108A90301088C
:1000A000A9030108A9030108A9030108A90301087C
:1000B00085AD0008CDAD0008A903010885AE000894
:1000C0007FAE000891AE00088BAE0008A9030108BE
:1000D000A903010879AE0008A9030108A9030108D2
:1000E000A9030108A9030108A903010800000000F1
:1000F0000000000000000000000000000000000000
:0C01000000000000000000005FF808F1A3
:1001100010B5054C237833B9044B13B10448AFF341
:1001200000800123237010BD2C0B00200000000074
:10013000B413010808B5064B1BB106480649AFF3D6
:1001400000800648036813B1054B03B1984708BD0A
:1001500000000000B4130108300B00202C0B00201D
:100160000000000010B542F2FB14C3F6E97421F060
:100170000043A34286B01CDD4FF6FF72C7F6EF7254
:10018000934205DD02460B4602F020FB06B010BD8F
:1001900002AA00F0B1FC00F00303DDE90201012B2B
:1001A00013D0022B0AD0C3B9DDE9042301F0A8F86B
:1001B000ECE70022002301F0A3F8E7E7DDE90423E0
:1001C00001F09EF801F10041E0E70093DDE904232E
:1001D00001F0AAFD01F10041D8E701230093DDE918
:1001E000042301F0A1FDD1E710B542F2FB14C3F6E0
:1001F000E97421F00043A34286B01EDD4FF6FF7282
:10020000C7F6EF72934205DD02460B4602F0DEFAB6
:1002100006B010BD02AA00F06FFC00F00300012838
:100220001DD0022810D008BB0123DDE90201009394
:10023000DDE9042301F078FDEAE700220023002431
:10024000009401F071FDE3E70123DDE90201009371
:10025000DDE9042301F068FD01F10041D8E7DDE9A3
:100260000201DDE9042301F04BF8D1E7DDE90201E9
:10027000DDE9042301F044F801F10041C8E700BFC3
:100280002DE9D0438AB006460F4600F0F1F8214C24
:1002900094F9003001338046894604D0304639460F
:1002A00002F046F820B9404649460AB0BDE8D0837E
:1002B0003046394601F0A0FF00230022C3F6F07358
:1002C00002F0C8FE0028EED001230093124B134821
:1002D000CDE9046701930023CDE90267089302F09A
:1002E00071F894F90030022BCDE9060108D0684678
:1002F00002F066F820B1089B3BB9DDE90689D2E738
:1003000003F044FA21230360F5E703F03FFA089B6A
:100310000360F2E700000020981301089C13010815
:1003200000F0DABA2DE9D04F8AB006460F4600F049
:1003300007FE244C94F900300133804689462ED0C4
:100340003046394601F0F4FF002828D04FF0000A6B
:100350004FF0000B3046394652465B4602F05CFED9
:10036000E8B101230093184B2478CDE90467019389
:100370000023CDE902670893B4B15046594652466E
:100380005B4602F001FD022CCDE906010ED103F01F
:10039000FDF921230360089B73B9DDE90689404616
:1003A00049460AB0BDE8D08FCDE906AB684602F0F9
:1003B00007F80028EFD1EAE703F0E8F9089B0360AB
:1003C000EBE700BF00000020A013010800F094BE7E
:1003D00070B58AB0044600F03DFF224E96F9003019
:1003E000013305462CD0204602F0A2F940B3204646
:1003F000002103F05DF918B3012300931A4B204646
:1004000001930023089302F041FB3478CDE9040105
:10041000CDE90201BCB10020002102460B4602F0EA
:10042000B3FC022CCDE9060111D103F0AFF9212371
:100430000360089B8BB9DDE9060102F03DFE05462D
:1004400028460AB070BD00220023CDE90623684685
:1004500001F0B6FF0028ECD1E7E703F097F9089B1D
:100460000360E8E700000020A81301080000000076
:100470004FF6FF732DE9F04FC3F6EF7321F00046FE
:1004800087B09E420C460F46054616DD06F14046F3
:10049000034606F58016334300F009812A462346B9
:1004A00002F094F902460B4602F06EFC05460C463B
:1004B0002846214607B0BDE8F08F4FF6FF73C3F61C
:1004C000DF739E4210DCB6F1795F80F2658196A3FE
:1004D000D3E9002302F07CF900230022C3F6F07375
:1004E00002F0B8FD0028E3D12846214601F084FE41
:1004F0000B4600210246C3F6F071002002F066F9B7
:1005000000230022C3F6E07302F014FB88A3D3E9B2
:10051000002304460D4602F00DFB87A3D3E9002318
:1005200002F056F922462B4602F004FB84A3D3E9DD
:10053000002302F04BF922462B4602F0FBFA82A37D
:10054000D3E9002302F044F922462B4602F0F2FAE6
:100550007FA3D3E9002302F039F922462B4602F0AB
:10056000E9FA7DA3D3E9002302F032F922462B46B3
:1005700002F0E0FA7AA3D3E90023CDE90001204696
:10058000294602F0D7FA78A3D3E9002302F01EF936
:1005900022462B4602F0CEFA75A3D3E9002302F0DF
:1005A00017F922462B4602F0C5FA73A3D3E90023BC
:1005B00002F00CF922462B4602F0BCFA002300227E
:1005C000C3F6F07302F004F9CDE902012046294692
:1005D00000F0B6FC43F23233C3F6EF739E4280461E
:1005E00089467BDC42464B468B4602F0F1F8DDE95A
:1005F00002234FF0000ACDE90401DDE9000102F019
:10060000C3FB02460B46DDE9040102F093FA5246B1
:100610004B46CDE900015046494602F08BFA0246AE
:100620000B462046294602F0D1F852464B46044676
:100630000D464046494602F0CBF802460B4620469E
:10064000294602F0A1FB02460B4602F0C1F8024621
:100650000B464BA1D1E9000102F0B8F802460B4667
:10066000DDE9000102F0B2F852464B4604460D4661
:100670005046494602F0ACF802460B4642A1D1E989
:10068000000102F0A3F802460B462046294602F07C
:100690009DF802460B463CA1D1E9000102F096F814
:1006A00005460C46002FD8BF04F1004400E738A3EC
:1006B000D3E9002302F03EFA31A3D3E90023064632
:1006C0000F462846214602F035FA02460B463046D0
:1006D000394602F07DF805460C46E9E6DDE90223DD
:1006E000DDE9000102F050FB02460B464046494658
:1006F00002F020FA42464B4602F06AF802460B46E8
:1007000002F066F81EA3D3E9002302F05FF8024668
:100710000B461FA1D1E9000102F058F805460C462E
:10072000C0E700BFAFF300809C7500883CE4377ED3
:1007300009F7FD0DE13D023F88B20175E0EF493F49
:100740003B8F68B52882A43F5544880E55C1C93FE8
:100750007D6FEB0312D6D43F555555555555C53FC2
:1007600082922EB1C5B8B33F59018D1B6C06E63F8E
:10077000C88A599CE52A00404B2D8A1C273A034021
:10078000075C143326A6913C182D4454FB21E93F05
:10079000182D4454FB21F93F2A46234602F0CAF99A
:1007A00039A3D3E9002306460F4602F0C3F938A364
:1007B000D3E9002302F00CF832463B4602F0BAF9C6
:1007C00035A3D3E9002302F001F832463B4602F09C
:1007D000B1F933A3D3E9002301F0FAFF32463B46D7
:1007E00002F0A8F930A3D3E9002301F0EFFF32466D
:1007F0003B4602F09FF92EA3D3E9002301F0E8FF66
:1008000032463B4602F096F92BA3D3E900238046FB
:1008100089463046394602F08DF929A3D3E90023F1
:1008200001F0D4FF32463B4602F084F926A3D3E917
:10083000002301F0CDFF32463B4602F07BF924A3B2
:10084000D3E9002301F0C2FF32463B4602F072F9C1
:1008500000230022C3F6F07301F0BAFF02460B46F4
:100860004046494602F090FA02460B462846214689
:1008700002F060F902460B462846214601F0A8FF27
:1008800005460C4614E600BF09F7FD0DE13D023FA9
:1008900088B20175E0EF493F3B8F68B52882A43FDD
:1008A0005544880E55C1C93F7D6FEB0312D6D43F26
:1008B000555555555555C53F82922EB1C5B8B33FD4
:1008C00059018D1B6C06E63FC88A599CE52A0040F9
:1008D0004B2D8A1C273A03402DE9F04F5542154312
:1008E000894623F000440021C7F6F07144EAD5752B
:1008F00083B08D4280468246CDE90023CB464E46EA
:10090000404649D8454229F0004645EA08054F4689
:1009100046EAD5758D423FD803F1404101F580117B
:1009200011435AD09917304301F0020141EAD975B9
:100930003FD022434AD00022C7F6F072944261D0E1
:100940000022C7F6F072964240D0341B24153C2C8E
:1009500054DC14F13C0FACBF0024012414EAD3741E
:100960007ED000200021012D02BF0B46804603F1FE
:10097000004919D0022D64D080468946A5B14CA308
:10098000D3E9002301F022FF4BA3D3E9002301F0B8
:100990001DFF8046894607E040464946DDE90023C1
:1009A00001F016FF804689464046494603B0BDE83F
:1009B000F08F032DBDD801A151F825F0A909000839
:1009C000A9090008F3090008E9090008002F33DB32
:1009D0000FF2EC09D9E90089E6E74046494603B041
:1009E000BDE8F04F01F054BA0FF2DC09D9E90089F3
:1009F000DAE70FF2C409D9E90089D5E730A1D1E9D6
:100A00000001B0E7A64236D0032D99D801A151F8D4
:100A100025F000BF2F0A0008250A0008F309000886
:100A2000E90900084FF000084FF00049BCE74FF01B
:100A300000084FF00009B7E70FF29409D9E90089DF
:100A4000B2E71BA3D3E9002301F0C0FE02460B4628
:100A500019A1D1E9000101F0B9FE80468946A3E75A
:100A6000DDE900234046494602F08EF901F0C4FB5F
:100A700001F00EFA77E7032DA8D8DFE805F0110C96
:100A800007020FF25409D9E900898DE70FF25009E6
:100A9000D9E9008988E70FF25009D9E9008983E78D
:100AA0000FF24C09D9E900897EE700BFAFF300805F
:100AB000075C143326A6A13C182D4454FB210940A1
:100AC000182D4454FB21F93F182D4454FB2109C033
:100AD000182D4454FB21F9BFD221337F7CD902C0A9
:100AE000D221337F7CD90240182D4454FB21E9BF29
:100AF000182D4454FB21E93F42F2FB132DE9F04F3E
:100B0000C3F6E97321F000448FB09C420E461746AD
:100B100040F3A3804DF67B13C4F202039C4226DC13
:100B2000002995A3D3E9002340F3B28101F04EFEE2
:100B300042F2FB13C3F6F9739C428046894600F0EB
:100B4000A1808FA3D3E90023012501F03FFE0246D7
:100B50000B46C7E900014046494601F037FE88A32D
:100B6000D3E9002301F032FEC7E902017CE042F242
:100B7000FB13C4F239139C4240F3A1804FF6FF737C
:100B8000C7F6EF739C4273DC4FEA245A8046AAF5FD
:100B9000826AAAF1060AA4EB0A531946994602F0A2
:100BA00063FA01F061FF04460D4602460B464046DB
:100BB0004946CDE9084501F009FE00230022C4F2B0
:100BC000701301F0B7FF0D46044602F04DFA01F034
:100BD0004BFF02460B468046894620462946CDE912
:100BE0000A8901F0F3FD00230022C4F2701301F022
:100BF000A1FF0022002304460D46CDE90C4502F07A
:100C000001FA032490B1404649460022002302F035
:100C1000F9F903240AAD013C40B175E90201002253
:100C20000023013C02F0EEF90028F6D123465C4C8B
:100C300008A83946524601940224009400F088FC2A
:100C4000002E054610DA7A684542FB6802F1004240
:100C50007A6003F10043FB6006E00025C2E9000171
:100C600000230022C7E9022328460FB0BDE8F08F19
:100C700002460B4601F0AAFD0025C7E90201C7E9BB
:100C80000001F1E740A3D3E9002301F09FFD40A359
:100C9000D3E900230D46044601F098FD02460B46B9
:100CA000C7E9000129462046012501F08FFD38A340
:100CB000D3E9002301F08AFDC7E90201D4E701F07E
:100CC0009BFA35A3D3E900238046894601F032FF21
:100CD00000230022C3F6E07301F07AFD02F0C4F9AC
:100CE000054601F0C1FE24A3D3E90023CDE90201AA
:100CF00001F020FF02460B464046494601F066FDE2
:100D00001FA3D3E9002382468B46DDE9020101F0EF
:100D100011FF1F2DCDE904015046594644DC214BFB
:100D20006A1E53F82230A3423ED0DDE9042301F0CD
:100D30004DFD8146884602460B46C7E900234A46D8
:100D400043465046594601F041FDDDE9042301F0D8
:100D50003DFD002E02460B46C7E9022384DA08F166
:100D6000004301F10041C7F800906D427B60B8601C
:100D7000F96079E7AFF3008000004054FB21F93FB0
:100D80003163621A61B4D03D0000601A61B4D03D95
:100D90007370032E8A19A33B83C8C96D305FE43F8B
:100DA0002C040108AC030108DDE90423241501F03B
:100DB0000DFDC1F30A538146E31A8846102BC7E99B
:100DC0000001BCDD54A3D3E90023DDE9020101F0F9
:100DD000B1FE8046894642464B465046594601F090
:100DE000F5FCCDE906015046DDE90623594601F040
:100DF000EDFC42464B4601F0E9FC49A3D3E9002350
:100E000080468946DDE9020101F094FE42464B46E8
:100E100001F0DCFCCDE90401DDE90423DDE9060194
:100E200001F0D4FC88468146C8F30A53C7E90001A3
:100E3000E31A312B6BDD3CA3D3E90023DDE902018A
:100E400001F078FE8046894642464B46DDE90601C0
:100E500001F0BCFC82468B4652465B46DDE906014A
:100E600001F0B4FC42464B4601F0B0FC30A3D3E99C
:100E7000002380468946DDE9020101F05BFE42461F
:100E80004B4601F0A3FCCDE90401504659464CE71E
:100E900001F09EFC42F2FB13C3F6F9739C428046BC
:100EA000894616D024A3D3E900234FF0FF3501F083
:100EB0008FFC02460B46C7E900014046494601F057
:100EC00085FC1DA3D3E9002301F082FCC7E90201E0
:100ED000CAE611A3D3E9002301F07AFC10A3D3E9F9
:100EE00000230D46044601F073FC02460B46C7E999
:100EF0000001294620464FF0FF3501F067FC08A3AA
:100F0000D3E9002301F064FCC7E90201ACE6DDE9A6
:100F100006AB14E7AFF300800000601A61B4D03D67
:100F20007370032E8A19A33B0000002E8A19A33B7D
:100F3000C14920259A837B393163621A61B4D03D5F
:100F40002DE9F84300263746C7F6F076C7F6F07766
:100F50000E40BE4204460D4602460B4600F0AA80F3
:100F600000297EDD0A1500F08880A2F57E7621F04A
:100F70007F43073ED20723F4700343F4801362D506
:100F8000C20F4FF0000C02EB430376104200162410
:100F900060464FF400114518D70F9D424FEA4202B8
:100FA000DEBFC5EB030368188C444908013C07EB1E
:100FB0004303F0D12027A0464FF00041984201EBB7
:100FC00008050EDB834214BF4FF000094FF0010902
:100FD00095428CBF4FF0000909F00109B9F1000FEB
:100FE0000ED005F0004905EB0108B9F1004F23D000
:100FF00081461B1A954288BF013B521B6418484624
:10100000D50F49085200013F05EB4303D6D11343E6
:101010001ED167084FEA6C031CF0010F03F17E53E9
:1010200018BF47F0004703F5C0033C4603EB0655E5
:1010300020462946BDE8F883B8F1000FA8BF00F1AB
:101040000109D6DAD4E7C20F400002EB430397E769
:10105000631C08BF0CF1010CDCD004F001031C1967
:10106000D7E721F000460643E2D02A46002935D1D1
:10107000C10A153A40050029FAD011F4801329D18C
:1010800049000133CC02FBD5C3F10105C3F12004B3
:1010900030FA04F45219A2F57E7621439840073EB7
:1010A00021F07F43D20723F4700343F480133FF50C
:1010B00067AFC8E72046294601F03CFD02460B46D3
:1010C0002046294601F084FB04460D462046294669
:1010D000BDE8F883202401250023D9E722462B46CA
:1010E0002046294601F072FB02460B4601F04CFEF9
:1010F00004460D469CE700BF70B520F00045B5F1F1
:10110000FF4F21F00046D4BF00240124B6F1FF4F69
:10111000C8BF44F001040346002C30D1B1F17E5F1A
:1011200041D08C1704F0020444EAD07425B9022C93
:101130002FD0032C32D070BD26B3B6F1FF4F4ED066
:10114000B5F1FF4F56D0AD1BED153C2DC4BF40F699
:10115000DB70C3F6C9702ADD012C55D0022C30D0CB
:10116000002CE8D04BF62E51C3F2BB3101F0FAFF50
:1011700040F6DB71C4F2490101F0F2FF70BD01F0ED
:10118000F1FF70BD002B40F6DB703ADBC3F6C9708F
:1011900070BD40F6DB70C4F2490070BD40F6DB70F4
:1011A000CCF2490070BDBDE8704001F08DB915F179
:1011B0003C0FACBF0025012515EAD17527D00020D2
:1011C000CAE74BF62E51C3F2BB3101F0CBFF01460B
:1011D00040F6DB70C4F2490001F0C2FF70BDB5F10A
:1011E000FF4F1BD0022CD4D0032CD7D0012C20D001
:1011F000002070BD002B40F6DB70A8BFC3F6C9709D
:1012000099DACBF6C97070BD00F1004070BD02F0F4
:1012100065F901F089FA01F057F99DE7022C13D026
:10122000032C0CD0012C40F6DB7005D0C3F64970BE
:1012300070BD4FF0004070BDCBF6497070BD4CF6EC
:10124000E430CCF2160070BD4CF6E430C4F2160067
:1012500070BD00BF20F000420346B2F1FF4F70B5F1
:10126000044638D2002A34D000283EDBC415B2F53B
:10127000000F09D210F400023FD15B0001321902C5
:10128000FBD5C2F10102A41823F07F437F3C23F475
:101290000003E20743F400034FF0807248BF5B0095
:1012A0000026641019215B003546A8189842DEBF5D
:1012B000C0EB03038518B61852085B000139F4D15E
:1012C00013B106F001039E19761006F17C5606EB69
:1012D000C454204670BD214602F04CF80146204619
:1012E00001F040FF0446204670BD014601F038FF82
:1012F000014602F0F3F80446EBE70122A418C3E725
:101300002DE9F04F21F0004487B0B4F1795F8246B7
:101310008B46CDE900236DDA01F0A6FE002800F02F
:10132000F88052465B465046594601F003FC7CA3C8
:10133000D3E9002306460F4601F0FCFB7AA3D3E96C
:10134000002301F045FA32463B4601F0F3FB78A357
:10135000D3E9002301F03AFA32463B4601F0EAFBBA
:1013600075A3D3E9002301F033FA32463B4601F07E
:10137000E1FB73A3D3E9002301F028FA32463B4690
:1013800001F0D8FB70A3D3E9002301F021FA324623
:101390003B4601F0CFFB80468946002300223046C1
:1013A0003946C3F6E07301F0C5FB42464B46CDE932
:1013B00002013046394601F0BDFBDDE90023044659
:1013C0000D465046594601F0B5FB02460B462046F5
:1013D000294601F0FBF902460B46DDE9020101F066
:1013E000F5F90B4600210246C3F6F071002001F02A
:1013F000EDF982E002460B4601F09CFB48A3D3E9DD
:10140000002306460F4601F095FB47A3D3E90023CE
:1014100001F0DEF932463B4601F08CFB44A3D3E9F0
:10142000002301F0D3F932463B4601F083FB42A38F
:10143000D3E9002301F0CCF932463B4601F07AFBB8
:101440003FA3D3E9002301F0C1F932463B4601F046
:1014500071FB3DA3D3E9002301F0BAF93B463246C4
:1014600001F068FB43F23233C3F6D3739C428046EB
:10147000894692DD00230022C3F6E9739C424FF0B7
:1014800000033DDC0021A4F5001300220020C3F678
:10149000F07114461D4601F099F9CDE904010023CD
:1014A0000022C3F6E0733046394601F043FB224682
:1014B0002B4601F08BF942464B46CDE902013046FE
:1014C000394601F037FBDDE9002304460D4650465E
:1014D000594601F02FFB02460B462046294601F0F3
:1014E00075F902460B46DDE9020101F06FF902468B
:1014F0000B46DDE9040101F069F907B0BDE8F08FA2
:101500000025C3F6E7730024CDE90423C3F6D275A2
:10151000C5E700210020C3F6F071EEE7AFF30080CD
:10152000D43888BEE9FAA8BDC4B1B4BD9EEE213E50
:10153000AD529C804F7E923E9015CB19A001FA3E91
:101540007751C1166CC1563F4C5555555555A53F61
:101550002DE9F04F4AF6AB25D41EC2F6AA25ADF50B
:101560001B7D1F4685FB04357E1E7E4BE4170296CD
:10157000A49E0690C4EBA504089153F8263024EAF3
:10158000E4740A940993E343099D029C03EB43032B
:1015900014EB050802EBC303079318D40A9E08F165
:1015A0000108A598351B4FEA88080CAE002400EB13
:1015B000850900200021002D03DB59F8040001F00B
:1015C00053FA043401354445E6E90201F1D1099C9E
:1015D000002C30DB099C0DF5B87ABB465EAE06EBFD
:1015E000C4060096029D002DBCBF4FF000084FF0CE
:1015F000000919DB0EA8069D00EBCB064FF0000892
:101600004FF00009002476E902230134F5E80201D5
:1016100001F090FA02460B464046494601F0D8F8E0
:10162000BC4280468946EED1009D0BF1010BEAE9F0
:101630000289AA45D6D1099E86AC9AAD731E04EBE9
:10164000860400969B000C94ED180B930D95009C5E
:101650009AAD009EE400002E05EB0403049453E9C8
:101660003C4530DD04980DF5BC790DF5057809EBA6
:10167000000600230022C3F670632046294601F0CD
:1016800059FA01F0F1FC01F0EFF900230022C4F255
:10169000701382468B4601F04DFA02460B462046F7
:1016A000294601F093F801F0DFFC76E90245524645
:1016B0005B46294648F8040F204601F089F84E455C
:1016C00004460D46D5D1079A2046294600F080FEF3
:1016D00000224FF07F5304460D4601F02BFA00F034
:1016E0008FFD00230022C4F2200301F023FA0246FA
:1016F0000B462046294601F069F804460D4601F0E4
:10170000B3FC064601F0B0F902460B4620462946D6
:1017100001F05CF8079C002C8046894640F3AE81BE
:10172000009D9AA8C4F11801C4F117046B1E00EBC8
:10173000830353F8502C52FA01F0361810FA01F1D5
:10174000521A43F8502C52FA04F5002D3ADD009C51
:101750000136002C40F3B98186AB03EB84000024F2
:101760000AE000BF3805010821B10124C1F18071F0
:1017700043F8041C83420ED053F8041B002CF3D012
:101780004FF6FF7201248342C0F2FF02C1EB020256
:1017900043F8042CF0D10798002811DD012800F04F
:1017A000768102280CD100989AA9431E01EB83038D
:1017B00053F8502C22F07F4222F4400243F8502C80
:1017C000022D7CD0404649460022002301F01AFC3D
:1017D000002800F09980009C601E099C84420EDC69
:1017E000009C86A9002201EB84030C9C53F8041D85
:1017F000A34242EA0102F9D1002A40F05E820D9C28
:1018000054F8503C002B40F056820B9D86AE0123CD
:10181000721952F8041D01330029FAD0009CE31814
:1018200004F1010A9A45059346DC0A9E029D04EBE9
:10183000060BA59C05EB0A035EAE013B04EB8B0B8C
:10184000049C0EAD05EBC3050095361904965BF8B4
:10185000040F01F009F9029E009D002EBCBF4FF05D
:1018600000084FF00009E5E9020100951BDB0AEBD7
:1018700007060EA8069D4FF000084FF0000900244F
:1018800000EBC60676E902230134F5E8020101F017
:1018900051F902460B464046494600F099FFBC42CA
:1018A00080468946EED1059D0AF1010A049CAA45AD
:1018B000E4E902890494CADD059E0096C7E600218A
:1018C00042464B460020C3F6F07100F07FFF804691
:1018D0008946002C3FF476AF0021079A0020C3F61A
:1018E000F07100F075FD02460B464046494600F097
:1018F0006DFF00220023804689464046494601F09C
:1019000081FB00287FF467AF05960495002840F01E
:10191000EF81079C40464946624200F059FD002392
:101920000022C4F2701306460F4601F089FB00281E
:1019300000F0E18100230022C3F67063304639468F
:1019400001F0F8F8009C9AAA02EB840501F08CFBE8
:101950000134009401F088F800230022C4F27013CF
:101960008046894601F0E6F802460B463046394685
:1019700000F02CFF009C9AAB03EB840401F074FB95
:101980004946034645F8503C079D404618350795A3
:1019900001F06AFB44F8500C00210020C3F6F071FE
:1019A000079A00F015FD009C002C06460F465BDBF5
:1019B000013486A85EA95EAD069500EB840501EBB7
:1019C000C40455F8040D01F04FF832463B4601F0CF
:1019D000B1F800230022C3F6706380468946304682
:1019E000394664E9028901F0A5F8069A9442064650
:1019F0000F46E6D1009C0027DDF824800DF1D80BBE
:101A000004F1FF3ACDF808B0D146B8F1000FC0F2AA
:101A10004181002FC0F23E815EA88F4D00EBC906C8
:101A20004FF0000A4FF0000B002401E0BC4210DC34
:101A3000F6E902230134F5E9020101F07BF80246E0
:101A40000B465046594600F0C3FEA04582468B46E1
:101A5000ECDA029D09F1FF3905EBC703013719F1F3
:101A6000020FC3E900ABD0D1A49C032C00F2AC80E0
:101A7000DFE814F0F400B100B1002D0015D1009C96
:101A80009AAD05EB840353F8545CED155DE60099BF
:101A90009AAA4B1E02EB830353F8502C22F07F428C
:101AA00022F4000243F8502C8AE600230022C3F6F9
:101AB000E073002501F0C4FA00283FF483AE009CD7
:101AC00002250136002C3FF747AE002463E6009E56
:101AD00000230DF1D80B1946002E5CDD009C0DF1A2
:101AE000D80B0DF1E00A651C0BEBC5052C4654E93B
:101AF000028954E9046742464B463046394600F0B5
:101B000067FECDE902013046DDE90223394600F0E7
:101B10005DFE02460B464046494600F059FE64E928
:101B200002015445DDE9020144E90201DFD1009CD4
:101B300000231946012C2EDD0BF1100A2C4654E926
:101B4000028954E9046742464B463046394600F064
:101B50003FFECDE900013046DDE90023394600F0C3
:101B600035FE02460B464046494600F031FE64E928
:101B700002015445DDE9000144E90201DFD10023FF
:101B80001C461846214675E9022300F021FE554502
:101B900003460C46F5D1049C002C00F0B780089E4B
:101BA00001F10041DBF80050DBF80800DBF80440ED
:101BB000DBF80C2004F10044356002F1004274604F
:101BC000B060F26033617161059C04F007000DF5AF
:101BD0001B7DBDE8F08F009C00230DF1D80B19464A
:101BE000002C11DB009D0DF1D80B00236C1C1D4651
:101BF0000BEBC4041846294674E9022300F0E8FD03
:101C00005C4503460D46F5D1049E01F1004206B93C
:101C10000A461746089A0D461E46DBE90001C2E94E
:101C200000671A462B4600F0D1FD009C002C08DD11
:101C30000BEBC404FBE902230F4600F0C9FDA345EA
:101C4000F8D1049D0DB101F10041089E02460B46FA
:101C5000C6E90223B8E700BF40050108009D002047
:101C60000146002D0CDB6C1C002036AD014605EB57
:101C7000C40474E902230F4600F0AAFDAC42F8D177
:101C8000049E0EB101F10041089C02460B46C4E9D6
:101C9000002399E7029D09F1FF394FF0000A4FF048
:101CA000000B05EBC703013719F1020FC3E900ABC5
:101CB0007FF4ABAED8E60123B0E50596049583002A
:101CC0009AAEF218079D009052F8502C183D0795D7
:101CD000002A7FF461AE86A8009AC318294653F8FB
:101CE000040D013A18390028F9D00092079153E603
:101CF000009C601EE3E7009D9AA8394600EB85042E
:101D0000304601F0B1F944F8500C45E608981C46FD
:101D1000DBE900670D46DBE90223C0E90445C0E9C1
:101D20000067C0E902234FE72DE9F04F85B0064672
:101D30000F46CDE9022321F00043B3F1795F03DAC6
:101D400001F092F900286ED032463B4630463946C3
:101D500000F0F0FE32463B4604460D4600F0EAFE37
:101D60003FA3D3E90023CDE900012046294600F036
:101D7000E1FE3DA3D3E9002300F028FD22462B46D7
:101D800000F0D8FE3AA3D3E9002300F021FD22465B
:101D90002B4600F0CFFE38A3D3E9002300F016FD58
:101DA00022462B4600F0C6FE35A3D3E9002300F0FF
:101DB0000FFD0E9B80468946002B39D00023002260
:101DC000C3F6E073DDE9020100F0B4FE42464B4683
:101DD00082468B46DDE9000100F0ACFE02460B4670
:101DE0005046594600F0F2FC22462B4600F0A2FE77
:101DF000DDE9022300F0EAFC23A3D3E90023044633
:101E00000D46DDE9000100F095FE02460B46204636
:101E1000294600F0DDFC02460B463046394600F00C
:101E2000D5FC06460F463046394605B0BDE8F08F72
:101E300002460B462046294600F07CFE12A3D3E959
:101E4000002300F0C3FCDDE9002300F073FE02462E
:101E50000B463046394600F0BBFC06460F46E2E72B
:101E60007CD5CF5A3AD9E53DEB9C2B8AE6E55A3E24
:101E70007DFEB157E31DC73ED561C119A0012A3FC0
:101E8000A6F810111111813F495555555555C53FBB
:101E90002DE9F84F4FF6FF73C4F20F4321F00046CF
:101EA0009E420D468846044622DD0023C7F6F073A5
:101EB0009E4200F3C38014BF0023012300280CBFFF
:101EC000002203F00102002A40F0B88042F2FB1524
:101ED00042F618542B46CBF6F975C3F6F973C5F2E2
:101EE00044440029C8BF1D4620462946BDE8F88F56
:101EF0004FF6FF73C3F6DB739E4200F3BA804FF6D2
:101F0000FF73C3F61F639E4240F3A4804FF0FF3976
:101F100022462B462046294600F00CFE82468B4680
:101F200052465B4600F006FE99A3D3E9002306461D
:101F30000F4600F0FFFD98A3D3E9002300F048FC12
:101F400032463B4600F0F6FD95A3D3E9002300F0AE
:101F50003FFC32463B4600F0EDFD93A3D3E900235E
:101F600000F036FC32463B4600F0E4FD90A3D3E996
:101F7000002300F02DFC32463B4600F0DBFD8EA333
:101F8000D3E9002300F024FC52465B4600F0D2FD6A
:101F90008BA3D3E9002382468B463046394600F0B6
:101FA000C9FD89A3D3E9002300F010FC32463B466B
:101FB00000F0C0FD86A3D3E9002300F007FC324601
:101FC0003B4600F0B7FD84A3D3E9002300F0FEFBFD
:101FD00032463B4600F0AEFD81A3D3E9002300F07A
:101FE000F5FB32463B4600F0A5FDB9F1FF3F024646
:101FF0000B46504659466AD07D4E00F0E9FB22461A
:102000002B4606EBC90600F095FDD6E9082300F043
:10201000DDFB22462B4600F0D9FB02460B46D6E9F3
:10202000000100F0D3FBB8F1000F0D460446B8BF25
:1020300001F1004520462946BDE8F88F204622469A
:1020400029462B4600F0C4FB04460D46204629468F
:10205000BDE8F88F64A3D3E9002300F0B9FB0023A7
:102060000022C3F6F07300F0F5FF00283FF44EAFF6
:10207000ECE700F0C1F84FF6FF73C3F6F2739E422F
:1020800004460D4632DC4FF6FF73C3F6E5739E42FD
:1020900060DC02460B4600F09BFB00230022C3F6E7
:1020A000F07300F093FB00224FF080434FF00009E3
:1020B00006460F462046294600F08AFB02460B469C
:1020C0003046394600F060FE04460D4620E700F039
:1020D0007FFB22462B4600F02DFD02460B46204694
:1020E000294600F073FB04460D46AFE747F6FF7341
:1020F000C4F203039E4220DC00230022C3F6F873DF
:102100004FF0020900F062FB00230022C3F6F873CF
:1021100006460F462046294600F00CFD002300220B
:10212000C3F6F07300F054FB02460B4630463946C6
:1021300000F02AFE04460D46EAE6002122462B4620
:102140000020CBF6F0714FF0030900F01DFE0446AD
:102150000D46DDE600230022C3F6F0734FF00109BF
:1021600000F034FB00230022C3F6F07306460F464E
:102170002046294600F02CFB02460B4630463946E5
:1021800000F002FE04460D46C2E600BFAFF3008039
:1021900011DA22E33AAD903FEB0D76244B7BA93F59
:1021A000513DD0A0660DB13F6E204CC5CD45B73F27
:1021B000FF8300922449C23F0D5555555555D53FD3
:1021C0002F6C6A2C44B4A2BF9AFDDE522DDEAD3FC7
:1021D0006D9A74AFF2B0B33F711623FEC671BC3F67
:1021E000C4EB98999999C93F9C7500883CE4377E67
:1021F00088050108AFF3008021F00041704700BF5F
:102200002DE9F047C1F30A56A6F57E748046073CD7
:102210008946132C0D468A46074621DC002C43DBF9
:102220004FF6FF73C0F20F0353FA04F606EA0105F6
:10223000054313D03CA3D3E9002300F0C9FA0022E0
:10224000002300F007FF00284FD0B9F1000F62DB38
:102250002AEA060A4FF0000851464046BDE8F087DA
:10226000332C08DDB4F5806FF8D102460B4600F040
:10227000AFFABDE8F087A6F582634FF0FF32033B6B
:1022800032FA03F50542E9D027A3D3E9002300F091
:102290009FFA0022002300F0DDFE30B3B9F1000FF9
:1022A00028DB28EA050821E01FA3D3E9002300F07A
:1022B0008FFA0022002300F0CDFEB8B1B9F1000F73
:1022C000A4BF4FF00008C24610DA29F000484FF0D2
:1022D000000A48EA0708CBF6F07AB8F1000F08BF09
:1022E000CA4618BF4FF0000800E0CA4651464046B3
:1022F000BDE8F087142C09D0C6F586634FF00108BD
:10230000033308FA03F818EB0708CAD30AF1010AE5
:1023100028EA0508EAE74FF4801353FA04F409EBBE
:10232000040A95E7AFF300809C7500883CE4377E93
:1023300050EA01020B4610B402D1022010BC7047D3
:10234000D0F1010038BF0020B1F1004F14BF0022CE
:1023500000F00102002AF0D14FF6FF7201F1FE44B5
:10236000C7F6DF72A1F58011914204F570048CBFAD
:102370000021012194428CBF0A4641F001020AB1BA
:102380000420DBE7B3F5801F03F100412CBF0022DE
:102390000122B1F5801F38BF42F001020AB10320CB
:1023A000CCE713F5801FC7F6F07214BF002101219E
:1023B000934214BF0B4641F001031840BEE700BF33
:1023C0000020704700210020C7F6F871704700BF59
:1023D00038B5C1F30A5314460D46002B33D121F012
:1023E000004505432ED0002343F6B0450022C4F239
:1023F0005033CFF6FF7500F09DFBAC4243DBC1F3D9
:102400000A5340F2FE72363B0D461B19934223DD00
:1024100002460B4628A1D1E9000100F0C7F926A326
:10242000D3E9002300F086FB38BD363325F0FE45A6
:1024300025F47005002245EA03510023C3F69043BA
:1024400000F078FB38BD40F2FF72934221D01B1997
:1024500040F2FE729342DBDC002B06DD25F0FE45E8
:1024600025F4700545EA035138BD13F1350FDCDA68
:102470004CF2503302469C420B460FDC10A1D1E9CE
:10248000000100F093F90EA3D3E9002300F052FB02
:1024900038BD02460B4600F09BF938BD06A1D1E9D4
:1024A000000100F083F904A3D3E9002300F042FB0C
:1024B00038BD00BFAFF300809C7500883CE4377ED8
:1024C00059F3F8C21F6EA5012DE9F04120F0004537
:1024D000B5F1A14F044606460EDBB5F1FF4F00F300
:1024E000A280002840F6DB74C8BFC3F6C97440F36D
:1024F000DF802046BDE8F0814FF6FF73C3F6DF634F
:102500009D4200F3A580B5F1445FC0F293804FF087
:10251000FF382146204600F02DFF0746394600F0DF
:1025200029FF46F6D711C3F68541054600F022FF84
:102530004DF65921C3F64B5100F014FE294600F028
:1025400019FF46F63531C3F6885100F00BFE2946D7
:1025500000F010FF42F66E61C3F6BA5100F002FEC1
:10256000294600F007FF44F62511C3F6126100F07A
:10257000F9FD294600F0FEFE4AF6AB21C3F6AA613A
:1025800000F0F0FD394600F0F5FE4AF22121CBF6CD
:1025900015510746284600F0EDFE4FF26B11C3F6C9
:1025A0006E5100F0DDFD294600F0E4FE48F2957121
:1025B000C3F69D5100F0D4FD294600F0DBFE48F63D
:1025C0003861C3F6E35100F0CBFD294600F0D2FE9E
:1025D0004CF6CD41C3F64C6100F0C2FD294600F037
:1025E000C9FEB8F1FF3F014656D04E4D384600F0C7
:1025F000B9FD214600F0BEFE05EB8803196900F025
:10260000AFFD214600F0ACFD014655F8280000F072
:10261000A7FD002EB8BF00F10044FFF66AAF0446E4
:102620002046BDE8F081014600F09CFD04462046AE
:10263000BDE8F0814FF2CA21C7F2491100F092FDC6
:102640004FF07E5101F052F800283FF460AF50E7A0
:1026500000F06AF84FF6FF73C3F697739D424FF68A
:10266000FF73044627DCC3F62F739D4247DC014607
:102670004FF0000800F076FD4FF07E5100F070FD45
:102680004FF080410546204600F06CFD014628468B
:1026900000F024FF04463CE7384600F063FD214685
:1026A00000F068FE0146204600F05AFD044620E78F
:1026B000CBF6C9741DE7C4F21B039D4215DC4FF035
:1026C0007F514FF0020800F04BFD4FF07F5105465F
:1026D000204600F04FFE4FF07E5100F043FD0146D2
:1026E000284600F0FBFE044613E700202146CBF607
:1026F00080704FF0030800F0F1FE044609E74FF048
:102700007E514FF0010800F02BFD4FF07E51054641
:10271000204600F027FD0146284600F0DFFE044673
:10272000F7E600BFC805010820F00040704700BF71
:10273000D0F1010338BF0023B0F1004F08BF43F0D0
:1027400001030BB102207047A0F5000300F1FF4226
:10275000B3F1FE4F2CBF00230123B2F1FE4F38BF6F
:1027600043F001030BB1042070474FF6FE73411E86
:10277000C0F27F0300F10042013A99428CBF002170
:1027800001219A428CBF0B4641F001030BB103209B
:10279000704710F5000F14BF00230123B0F1FF4F65
:1027A00014BF184643F00100704700BF03F0004219
:1027B00021F0004330B40D46044642EA030130BC28
:1027C000704700BF81F0004102E000BF83F000438A
:1027D00030B54FEA41044FEA430594EA050F08BFBC
:1027E00090EA020F1FBF54EA000C55EA020C7FEA80
:1027F000645C7FEA655C00F0E2804FEA5454D4EBFD
:102800005555B8BF6D420CDD2C4480EA020281EAC6
:10281000030382EA000083EA010180EA020281EAFE
:102820000303362D88BF30BD11F0004F4FEA013150
:102830004FF4801C4CEA113102D0404261EB41015F
:1028400013F0004F4FEA03334CEA133302D05242E5
:1028500063EB430394EA050F00F0A780A4F10104A1
:10286000D5F1200E0DDB02FA0EFC22FA05F28018DB
:1028700041F1000103FA0EF2801843FA05F35941C1
:102880000EE0A5F120050EF1200E012A03FA0EFC40
:1028900028BF4CF0020C43FA05F3C01851EBE3716A
:1028A00001F0004507D54FF0000EDCF1000C7EEB87
:1028B00000006EEB0101B1F5801F1BD3B1F5001FC5
:1028C0000CD349085FEA30004FEA3C0C04F10104E4
:1028D0004FEA445212F5800F80F09A80BCF1004F0D
:1028E00008BF5FEA500C50F1000041EB045141EA8F
:1028F000050130BD5FEA4C0C404141EB010111F490
:10290000801FA4F10104E9D191F0000F04BF01463A
:102910000020B1FA81F308BF2033A3F10B03B3F118
:1029200020020CDA0C3208DD02F1140CC2F10C02A8
:1029300001FA0CF021FA02F10CE002F11402D8BF06
:10294000C2F1200C01FA02F120FA0CFCDCBF41EAD2
:102950000C019040E41AA2BF01EB0451294330BDA1
:102960006FEA04041F3C1CDA0C340EDC04F114047E
:10297000C4F1200220FA04F001FA02F340EA030055
:1029800021FA04F345EA030130BDC4F10C04C4F19B
:10299000200220FA02F001FA04F340EA030029467B
:1029A00030BD21FA04F0294630BD94F0000F83F4C5
:1029B000801306BF81F480110134013D4EE77FEAA8
:1029C000645C18BF7FEA655C29D094EA050F08BFF4
:1029D00090EA020F05D054EA000C04BF19461046D5
:1029E00030BD91EA030F1EBF0021002030BD5FEA19
:1029F000545C05D14000494128BF41F0004130BD41
:102A000014F580043CBF01F5801130BD01F0004594
:102A100045F0FE4141F470014FF0000030BD7FEA07
:102A2000645C1ABF194610467FEA655C1CBF0B4602
:102A3000024650EA013406BF52EA033591EA030F19
:102A400041F4002130BD00BF90F0000F04BF002111
:102A5000704730B54FF4806404F132044FF0000544
:102A60004FF0000150E700BF90F0000F04BF0021BD
:102A7000704730B54FF4806404F1320410F0004523
:102A800048BF40424FF000013EE700BF42004FEA1E
:102A9000E2014FEA31014FEA02701FBF12F07F439B
:102AA00093F07F4F81F06051704792F0000F14BF98
:102AB00093F07F4F704730B54FF4607401F00045DC
:102AC00021F0004120E700BF50EA010208BF704733
:102AD00030B54FF000050AE050EA010208BF704728
:102AE00030B511F0004502D5404261EB41014FF491
:102AF000806404F132045FEA915C3FF4DCAE4FF095
:102B000003025FEADC0C18BF03325FEADC0C18BF7B
:102B1000033202EBDC02C2F1200300FA03FC20FACC
:102B200002F001FA03FE40EA0E0021FA02F1144419
:102B3000C1E600BF70B54FF0FF0C4CF4E06C1CEA2E
:102B400011541DBF1CEA135594EA0C0F95EA0C0FA3
:102B500000F0DEF82C4481EA030621EA4C5123EA16
:102B60004C5350EA013518BF52EA033541F4801145
:102B700043F4801338D0A0FB02CE4FF00005E1FBF8
:102B800002E506F00042E0FB03E54FF00006E1FB42
:102B900003569CF0000F18BF4EF0010EA4F1FF0485
:102BA000B6F5007F64F5407404D25FEA4E0E6D41C5
:102BB00046EB060642EAC62141EA55514FEAC520D6
:102BC00040EA5E504FEACE2EB4F1FD0C88BFBCF552
:102BD000E06F1ED8BEF1004F08BF5FEA500E50F103
:102BE000000041EB045170BD06F0004646EA0101C9
:102BF00040EA020081EA0301B4EB5C04C2BFD4EBFB
:102C00000C0541EA045170BD41F480114FF0000EF3
:102C1000013C00F3AB8014F1360FDEBF002001F061
:102C2000004170BDC4F10004203C35DA0C341BDCDB
:102C300004F11404C4F1200500FA05F320FA04F0AD
:102C400001FA05F240EA020001F0004221F00041E1
:102C500010EBD37021FA04F642EB06015EEA430E54
:102C600008BF20EAD37070BDC4F10C04C4F1200584
:102C700000FA04F320FA05F001FA04F240EA020037
:102C800001F0004110EBD37041F100015EEA430E08
:102C900008BF20EAD37070BDC4F1200500FA05F228
:102CA0004EEA020E20FA04F301FA05F243EA0203A7
:102CB00021FA04F001F0004121FA04F220EA0200B6
:102CC00000EBD3705EEA430E08BF20EAD37070BDFC
:102CD00094F0000F0FD101F00046400041EB0101DC
:102CE00011F4801F08BF013CF7D041EA060195F0BE
:102CF000000F18BF704703F00046520043EB030378
:102D000013F4801F08BF013DF7D043EA0603704764
:102D100094EA0C0F0CEA135518BF95EA0C0F0CD06F
:102D200050EA410618BF52EA4306D1D181EA0301B5
:102D300001F000414FF0000070BD50EA410606BFAF
:102D40001046194652EA430619D094EA0C0F02D1F4
:102D500050EA013613D195EA0C0F05D152EA033639
:102D60001CBF104619460AD181EA030101F0004157
:102D700041F0FE4141F470014FF0000070BD41F0A0
:102D8000FE4141F4780170BD70B54FF0FF0C4CF47A
:102D9000E06C1CEA11541DBF1CEA135594EA0C0F99
:102DA00095EA0C0F00F0A7F8A4EB050481EA030EE6
:102DB00052EA03354FEA013100F088804FEA0333CD
:102DC0004FF0805545EA131343EA12634FEA02229B
:102DD00045EA111545EA10654FEA00260EF000415C
:102DE0009D4208BF964244F1FD0404F5407402D2AE
:102DF0005B084FEA3202B61A65EB03055B084FEA3F
:102E000032024FF480104FF4002CB6EB020E75EB3B
:102E1000030E22BFB61A754640EA0C005B084FEA63
:102E20003202B6EB020E75EB030E22BFB61A7546E0
:102E300040EA5C005B084FEA3202B6EB020E75EB2B
:102E4000030E22BFB61A754640EA9C005B084FEAA3
:102E50003202B6EB020E75EB030E22BFB61A7546B0
:102E600040EADC0055EA060E18D04FEA051545EA9F
:102E700016754FEA06164FEAC30343EA52734FEA48
:102E8000C2025FEA1C1CC0D111F4801F0BD141EAC1
:102E900000014FF000004FF0004CB6E711F4801F26
:102EA00004BF01430020B4F1FD0C88BFBCF5E06F06
:102EB0003FF6AFAEB5EB030C04BFB6EB020C5FEA16
:102EC000500C50F1000041EB045170BD0EF0004E6B
:102ED0004EEA113114EB5C04C2BFD4EB0C0541EA9D
:102EE000045170BD41F480114FF0000E013C90E69A
:102EF00045EA060E8DE60CEA135594EA0C0F08BF5E
:102F000095EA0C0F3FF43BAF94EA0C0F0AD150EA5C
:102F100001347FF434AF95EA0C0F7FF425AF1046EF
:102F200019462CE795EA0C0F06D152EA03353FF417
:102F3000FDAE1046194622E750EA410618BF52EA94
:102F400043067FF4C5AE50EA41047FF40DAF52EA68
:102F500043057FF4EBAE12E74FF0FF3C06E000BF05
:102F60004FF0010C02E000BF4FF0010C4DF804CD12
:102F70004FEA410C7FEA6C5C4FEA430C18BF7FEAD2
:102F80006C5C1BD001B050EA410C0CBF52EA430C00
:102F900091EA030F02BF90EA020F0020704710F180
:102FA000000F91EA030F58BF994208BF90422CBF0F
:102FB000D8176FEAE37040F0010070474FEA410C08
:102FC0007FEA6C5C02D150EA013C07D14FEA430C26
:102FD0007FEA6C5CD6D152EA033CD3D05DF8040B97
:102FE000704700BF8446104662468C4619466346C9
:102FF00000E000BF01B5FFF7B7FF002848BF10F1A0
:10300000000F01BD4DF808EDFFF7F4FF0CBF0120E4
:1030100000205DF808FB00BF4DF808EDFFF7EAFF60
:1030200034BF012000205DF808FB00BF4DF808ED1B
:10303000FFF7E0FF94BF012000205DF808FB00BF10
:103040004DF808EDFFF7CEFF94BF012000205DF89A
:1030500008FB00BF4DF808EDFFF7C4FF34BF0120A7
:1030600000205DF808FB00BF4FEA410212F5001294
:1030700015D211D56FF47873B3EB625212D94FEABF
:10308000C12343F0004343EA505311F0004F23FAA9
:1030900002F018BF404270474FF00000704750EAFE
:1030A000013005D111F0004008BF6FF000407047BB
:1030B0004FF00000704700BF4FEA4102B2F1E04319
:1030C00024BFB3F5001CDCF1FE5C0DD901F0004C0F
:1030D0004FEAC0024CEA5070B2F1004F40EB83005F
:1030E00008BF20F00100704711F0804F21D113F18B
:1030F0003872BCBF01F00040704741F480114FEAC4
:103100005252C2F11802C2F1200C10FA0CF320FA4C
:1031100002F018BF40F001004FEAC1234FEAD32369
:1031200003FA0CFC40EA0C0023FA02F34FEA4303D3
:10313000CCE77FEA625307D150EA01331EBF4FF05C
:10314000FE4040F44000704701F0004040F0FE4077
:1031500040F40000704700BF80F0004002E000BF74
:1031600081F0004142001FBF5FEA410392EA030F72
:103170007FEA226C7FEA236C6AD04FEA1262D2EBBC
:103180001363C1BFD218414048404140B8BF5B42C1
:10319000192B88BF704710F0004F40F4000020F05A
:1031A0007F4018BF404211F0004F41F4000121F070
:1031B0007F4118BF494292EA030F3FD0A2F10102BA
:1031C00041FA03FC10EB0C00C3F1200301FA03F1F8
:1031D00000F0004302D5494260EB4000B0F5000F1B
:1031E00013D3B0F1807F06D340084FEA310102F1DA
:1031F0000102FE2A51D2B1F1004F40EBC25008BF8C
:1032000020F0010040EA03007047490040EB000055
:1032100010F4000FA2F10102EDD1B0FA80FCACF184
:10322000080CB2EB0C0200FA0CF0AABF00EBC25083
:1032300052421843BCBFD0401843704792F0000F71
:1032400081F4000106BF80F400000132013BB5E7C4
:103250004FEA41037FEA226C18BF7FEA236C21D03A
:1032600092EA030F04D092F0000F08BF084670479F
:1032700090EA010F1CBF0020704712F07F4F04D16D
:10328000400028BF40F00040704712F100723CBF80
:1032900000F50000704700F0004343F0FE4040F4AA
:1032A000000070477FEA226216BF08467FEA236368
:1032B0000146420206BF5FEA412390EA010F40F453
:1032C000800070474FF0000304E000BF10F000439F
:1032D00048BF40425FEA000C08BF704743F0964386
:1032E00001464FF000001CE050EA010208BF7047A1
:1032F0004FF000030AE000BF50EA010208BF704728
:1033000011F0004302D5404261EB41015FEA010C3C
:1033100002BF84460146002043F0B64308BFA3F134
:103320008053A3F50003BCFA8CF2083AA3EBC25316
:1033300010DB01FA02FC634400FA02FCC2F1200235
:10334000BCF1004F20FA02F243EB020008BF20F06C
:103350000100704702F1200201FA02FCC2F12002D2
:1033600050EA4C0021FA02F243EB020008BF20EAC7
:10337000DC7070474FF0FF0C1CEAD0521EBF1CEAF5
:10338000D15392EA0C0F93EA0C0F6FD01A4480EAE3
:10339000010C400218BF5FEA41211ED04FF00063CC
:1033A00043EA501043EA5111A0FB01310CF00040F8
:1033B000B1F5000F3EBF490041EAD3715B0040EA1E
:1033C000010062F17F02FD2A1DD8B3F1004F40EBEE
:1033D000C25008BF20F00100704790F0000F0CF0C1
:1033E000004C08BF49024CEA502040EA51207F3A85
:1033F000C2BFD2F1FF0340EAC250704740F4000060
:103400004FF00003013A5DDC12F1190FDCBF00F050
:1034100000407047C2F10002410021FA02F1C2F1FE
:10342000200200FA02FC5FEA310040F1000053EA9A
:103430004C0308BF20EADC70704792F0000F00F0E8
:10344000004C02BF400010F4000F013AF9D040EAEE
:103450000C0093F0000F01F0004C02BF490011F482
:10346000000F013BF9D041EA0C018FE70CEAD15380
:1034700092EA0C0F18BF93EA0C0F0AD030F0004C00
:1034800018BF31F0004CD8D180EA010000F00040B4
:10349000704790F0000F17BF90F0004F084691F072
:1034A000000F91F0004F14D092EA0C0F01D14202AC
:1034B0000FD193EA0C0F03D14B0218BF084608D175
:1034C00080EA010000F0004040F0FE4040F40000BF
:1034D000704740F0FE4040F4400070474FF0FF0C52
:1034E0001CEAD0521EBF1CEAD15392EA0C0F93EA99
:1034F0000C0F69D0A2EB030280EA010C49024FEAEB
:10350000402037D04FF0805343EA111143EA1013A3
:103510000CF000408B4238BF5B0042F17D024FF45B
:10352000000C8B4224BF5B1A40EA0C00B3EB510F36
:1035300024BFA3EB510340EA5C00B3EB910F24BF1F
:10354000A3EB910340EA9C00B3EBD10F24BFA3EBA4
:10355000D10340EADC001B0118BF5FEA1C1CE0D16C
:10356000FD2A3FF650AF8B4240EBC25008BF20F01F
:10357000010070470CF0004C4CEA50207F32C2BF73
:10358000D2F1FF0340EAC250704740F400004FF010
:103590000003013A37E792F0000F00F0004C02BF41
:1035A000400010F4000F013AF9D040EA0C0093F00B
:1035B000000F01F0004C02BF490011F4000F013B65
:1035C000F9D041EA0C0195E70CEAD15392EA0C0FCD
:1035D00008D142027FF47DAF93EA0C0F7FF470AF05
:1035E000084676E793EA0C0F04D14B023FF44CAF48
:1035F00008466EE730F0004C18BF31F0004CCAD1DD
:1036000030F000427FF45CAF31F000437FF43CAF18
:103610005FE700BF4FF0FF3C06E000BF4FF0010C3A
:1036200002E000BF4FF0010C4DF804CD4FEA40021C
:103630004FEA41037FEA226C18BF7FEA236C11D066
:1036400001B052EA530C18BF90EA010F58BFB2EB19
:10365000030088BFC81738BF6FEAE17018BF40F099
:10366000010070477FEA226C02D15FEA402C05D14D
:103670007FEA236CE4D15FEA412CE1D05DF8040BD2
:10368000704700BF844608466146FFE70FB5FFF765
:10369000C9FF002848BF10F1000F0FBD4DF808ED1D
:1036A000FFF7F4FF0CBF012000205DF808FB00BF0E
:1036B0004DF808EDFFF7EAFF34BF012000205DF868
:1036C00008FB00BF4DF808EDFFF7E0FF94BF0120B5
:1036D00000205DF808FB00BF4DF808EDFFF7D2FFB2
:1036E00094BF012000205DF808FB00BF4DF808EDF5
:1036F000FFF7C8FF34BF012000205DF808FB00BFC2
:103700004FEA4002B2F1FE4F0FD34FF09E03B3EBEE
:1037100012620DD94FEA002343F0004310F0004F2E
:1037200023FA02F018BF404270474FF00000704784
:1037300012F1610F01D1420205D110F0004008BF23
:103740006FF0004070474FF00000704742000ED20B
:10375000B2F1FE4F0BD34FF09E03B3EB126209D4CC
:103760004FEA002343F0004323FA02F070474FF082
:103770000000704712F1610F01D1420202D14FF0F7
:10378000FF3070474FF00000704700BF40F2080361
:10379000C2F200031868704710F0030F034670B4BC
:1037A00041D0002A3DD0CEB201E0002A39D003F842
:1037B000016B541E13F0030F22461D46F5D1032C56
:1037C00029D9CAB20F2C84BF2B46264642EA0222D0
:1037D00042EA024211D9103E1A605A609A60DA60D9
:1037E00010330F2EF7D8A4F1100304F00F0423F0C8
:1037F0000F031033032C1D440DD92E462346043BE2
:1038000046F8042B032BFAD8231F04F0030423F0FB
:1038100003030433ED18C9B21CB1013C05F8011BC8
:10382000FBD170BC704705461446C8E740F0BE6047
:10383000024B40F42020D860704700BF00ED00E04C
:10384000C37810B5E3B1144B4178DB688478DB436F
:10385000C3F30223C3F1040291400F22DA40224055
:103860000A430E4B01781201CB18D2B283F8002321
:1038700003780122590903F01F0312FA03F307E04A
:1038800003780122590903F01F0312FA03F32031D0
:10389000024A42F8213010BD00ED00E000E100E0F6
:1038A00043680A6823F4702323F4807313430A796E
:1038B00010B543EA022343608A68CB6884681A43E0
:1038C000084B234013434A7943EA420383600B7C4D
:1038D000C26A013B22F47002DBB242EA0353C362C4
:1038E00010BD00BFFDF7F1FF0023036003714371BA
:1038F0008360C360012303747047836811B143F090
:10390000010301E023F0010383607047836811B174
:1039100043F4807301E023F480738360704783680D
:1039200043F00803836070478068C0F3C0007047AD
:10393000836843F00403836070478068C0F38000AD
:103940007047836811B143F4A00301E023F4A0039E
:1039500083607047092970B54FF003040BD94C43BD
:1039600007251E3CA540A340C66826EA050545EA92
:103970000304C4600AE04C430725A54013FA04F48D
:10398000066926EA050545EA04030361062A4FF0A5
:1039900005030BD8013A53431F229A4011FA03F34F
:1039A000446B24EA02021343436370BD0C2A0BD814
:1039B00053431F22233B9A409940046B24EA02029E
:1039C00042EA0103036370BD53431F22413B9A4007
:1039D0009940C46A24EA020242EA0103C36270BD4C
:1039E00002684FF6FE7313400360002303604360D8
:1039F0008360C3602D4B984229D02D4B984230D024
:103A00002C4B984237D02C4B98423ED02B4B9842AF
:103A100006D153F8542C42F4702243F8542C7047CA
:103A2000274B984206D153F8682C42F4700243F8B1
:103A3000682C7047234B984206D153F87C2C42F0F7
:103A4000706243F87C2C70471F4B984206D153F8A4
:103A5000042C42F00F0243F8042C70471B4B984291
:103A600006D153F8182C42F0F00243F8182C704796
:103A7000174B984206D153F82C2C42F4706243F84D
:103A80002C2C7047134B984206D153F8402C42F42B
:103A9000704243F8402C70470F4B984202BF53F8D6
:103AA000542C42F4702243F8542C70470800024012
:103AB0001C00024030000240440002405800024016
:103AC0006C00024080000240080402401C040240D6
:103AD0003004024044040240580402408B6810B590
:103AE0000C6A026823430C6922F4FE4223434C69AA
:103AF00022F0F00223438C692343CC6923434C6AB0
:103B000023438C6A234313430360CB6843600B68F1
:103B100083604B68C36010BD19B1036843F00103B3
:103B200003E002684FF6FE731340036070470368BA
:103B30000AB1194301E023EA0101016070474068BE
:103B400080B27047C3004CBF014B024B58607047B6
:103B50000004024000000240034B044A5A6002F194
:103B600088325A60704700BF002002402301674539
:103B7000014BD860704700BF00200240084BDA6854
:103B8000D20709D4DA68500708D4DB6813F0100FA5
:103B90000CBF0420032070470120704702207047AB
:103BA0000020024010B50446FFF7E8FF02E0FFF7EF
:103BB000E5FF013CA0F101014B4243EB0103002C66
:103BC0000CBF002303F00103002BF0D1002C08BF31
:103BD000052010BD70B504464FF400500E46FFF7A7
:103BE000E1FF04280ED1084D4FF400502B6943F03B
:103BF00001032B612680FFF7D5FF2A6941F6FE738A
:103C000013402B6170BD00BF0020024038B505464F
:103C10004FF43020FFF7C6FF042812D1094C4FF4AF
:103C20003020236943F0020323616561236943F077
:103C300040032361FFF7B6FF226941F6FD7313408D
:103C4000236138BD00200240CB782DE9F04303F01A
:103C50000F02DB0648BF8B780E8848BF1A4316F068
:103C6000FF0F1FD0046800234FF001084FF00F0C26
:103C700008FA03F707EA0605BD420FD19F000CFAC8
:103C800007F912FA07F724EA09043C43CF78282FF2
:103C900008BF456102D0482F08BF05610133082BDA
:103CA000E6D104600E88FF2E21D9446800234FF02E
:103CB00001084FF00F0C03F1080708FA07F707EAAD
:103CC0000605BD420FD19F000CFA07F912FA07F75B
:103CD00024EA09043C43CF78282F08BF456102D06D
:103CE000482F08BF05610133082BE4D14460BDE8CB
:103CF000F0834FF0FF330380022383700423C370EB
:103D00007047836819420CBF002001207047016191
:103D1000704741617047000030B5174B002800F430
:103D20004014B4BFDB695B68B4F5401F82B207D1B1
:103D3000114C23F07063656825F0706565600FE0D5
:103D4000C40205D5C0F30344032515FA04F403E0C7
:103D5000440D240112FA04F423EA040343F07063CF
:103D600019B1410D09018A401343034A0028B4BF29
:103D7000D361536030BD00BF0000014008B50B4B5C
:103D8000984207D14FF40010012100F043F94FF49D
:103D9000001006E04FF48000012100F03BF94FF4E1
:103DA00080000021BDE8084000F034B90054004014
:103DB00070B586B00446868801A80D4600F0B4F8B8
:103DC00003992D4826F03F063604B1FBF0F0360C7F
:103DD00080B20643A68022882B6822F001021204DA
:103DE000120C2280254A93420AD85B00B1FBF3F300
:103DF00001309BB280B22084032B98BF042321E0C2
:103E0000EE884BF6FF72964205D103225343B1FB75
:103E1000F3F39BB206E019225343B1FBF3F39BB2D9
:103E200043F480431A054FF4967208BF43F0010330
:103E300050434FF47A7290FBF2F0013080B243F4B9
:103E400000432084A383238869899BB243F0010344
:103E500023802388AA8823F4806323F00A031B04A9
:103E60000A431B0C13439BB223802A89AB8913435B
:103E70009BB2238106B070BD40420F00A0860100B6
:103E800041F288330360002383804BF6FF72038185
:103E900043814FF48043C28083817047038819B106
:103EA0009BB243F0010303E023F001031B041B0C4E
:103EB00003807047038819B19BB243F4807303E019
:103EC00023F480731B041B0C03807047038819B113
:103ED0009BB243F4007303E023F400731B041B0C38
:103EE00003807047038819B19BB243F4806303E0F9
:103EF00023F480631B041B0C0380704783889BB2F0
:103F00000AB1194301E023EA01018180704701826F
:103F10007047008AC0B2704712B141F0010101E060
:103F200001F0FE010182704710B51D4B5A6802F086
:103F30000C02042A01D0082A02D01A4B03600EE0BA
:103F40005A685968C2F383420232C90304D55B68D8
:103F50009B0358BF134B00D5134B5A430260104BC1
:103F600012495A680468C2F303128A5C34FA02F2F6
:103F700042605C68C4F302240C5D32FA04F484608D
:103F80005C68C4F3C224095DCA40C2605B6808492A
:103F9000C3F38133CB5CB2FBF3F2026110BD00BF0F
:103FA0000010024000127A0000093D003C0400208D
:103FB00038040020044B5A6909B1104301E022EA99
:103FC00000005861704700BF00100240044B9A691E
:103FD00009B1104301E022EA00009861704700BF78
:103FE00000100240044BDA6909B1104301E022EAF3
:103FF0000000D861704700BF00100240044BDA682F
:1040000009B1104301E022EA0000D860704700BF08
:1040100000100240044B1A6909B1104301E022EA82
:1040200000001861704700BF00100240024B5A6A3E
:1040300042F080725A6270470010024030B5048C22
:1040400024F001042404240C0484058B048CADB2F8
:1040500025F0F3052A4342EA0312194BA4B2C51A0C
:104060006B4243EB0503174D92B2A84208BF43F0E1
:104070000103D3B9A0F1804CDCF1000343EB0C0346
:10408000A5F59835A84208BF43F001036BB90E4B64
:1040900005F50065C3EB000CDCF1000343EB0C03FA
:1040A000A84208BF43F0010313B124F0020401E069
:1040B00024F00A0444F0010421430283018430BD4A
:1040C000002C0140003401400008004030B5058C50
:1040D00025F010052D042D0C0584048B058C24F48B
:1040E00040742405240D44EA022242EA03321C4BA8
:1040F000ADB2C41A634243EB04031A4C92B2A0421D
:1041000008BF43F00103D3B9A0F1804CDCF10003F8
:1041100043EB0C03A4F59834A04208BF43F001031D
:104120006BB9114B04F50064C3EB000CDCF1000328
:1041300043EB0C03A04208BF43F001033BB125F061
:10414000200545F0100545EA011189B204E025F08B
:10415000A00545F0100529430283018430BD00BF4E
:10416000002C0140003401400008004008B55A4BC3
:10417000984207D14FF400600121FFF73FFF4FF451
:104180000060A2E0B0F1804F05D101200146FFF7A9
:1041900041FF012007E0514B984209D10220012143
:1041A000FFF738FF02200021BDE80840FFF732BFCB
:1041B0004B4B984205D104200121FFF72BFF04202F
:1041C000F1E7484B984205D108200121FFF722FF73
:1041D0000820E8E7444B984205D110200121FFF761
:1041E00019FF1020DFE7414B984205D12020012123
:1041F000FFF710FF2020D6E73D4B984207D14FF440
:1042000000500121FFF7FAFE4FF400505DE0394BFA
:10421000984207D14FF400200121FFF7EFFE4FF441
:10422000002052E0344B984207D14FF48010012116
:10423000FFF7E4FE4FF4801047E0304B984207D17F
:104240004FF400100121FFF7D9FE4FF400103CE0BD
:104250002B4B984205D140200121FFF7DBFE402087
:10426000A1E7284B984205D180200121FFF7D2FE1B
:10427000802098E7244B984207D14FF480700121A9
:10428000FFF7C8FE4FF480708DE7204B984207D1AE
:104290004FF480300121FFF7B1FE4FF4803014E07D
:1042A0001B4B984207D14FF400300121FFF7A6FEC7
:1042B0004FF4003009E0174B98420BD14FF48020A7
:1042C0000121FFF79BFE4FF480200021BDE808404C
:1042D000FFF794BE08BD00BF002C01400004004061
:1042E00000080040000C0040001000400014004096
:1042F00000340140004C0140005001400054014096
:1043000000180040001C0040002000400040014018
:1043100000440140004801402B4A30B5C2EB000C7C
:10432000DCF10002294C038842EB0C02A04208BFDA
:1043300042F001029BB2C2B9A0F180456C4244EB4D
:104340000504234DA84208BF44F001046CB9214C78
:1043500005F50065C4EB000CDCF1000444EB0C0433
:10436000A84208BF44F001041CB14C8823F070033C
:104370002343194C194D041B18BF0124A8420CBF3C
:10438000002404F0010424B123F44073CC889BB2D0
:10439000234303808B8883850B8803857AB9104B70
:1043A000104AC3EB000CDCF1000343EB0C0390421A
:1043B00008BF43F0010313B90B4B984201D10B7AAC
:1043C00003860123838230BD002C0140003401406C
:1043D00000040040000800400010004000140040AD
:1043E000004001400044014000480140038C70B58A
:1043F00023F001031B041B0C0384038C8488028BB1
:104400000D8822F073021204120C4E882A430D8983
:1044100023F002031B0435431B0CADB22B43194D93
:10442000A4B2461B754245EB0605174EB04208BFC5
:1044300045F0010585B9154D06F58056C5EB000C14
:10444000DCF1000545EB0C05B04208BF45F0010565
:1044500015B90F4DA8420ED14D8923F008032B4307
:104460008D8823F004032B43CE898D8924F4407476
:104470003543ADB22C4384800283CA88828603848C
:1044800070BD00BF002C01400034014000400140DD
:1044900000480140038C70B523F010031B041B0C73
:1044A0000384038C8288048B0D8824F4E64424045E
:1044B000240C23F0200344EA05241B040D891B0C63
:1044C00043EA05134D88164E43EA0513154D92B283
:1044D000C5EB000CDCF1000545EB0C05B04208BF54
:1044E00045F00105A4B29BB2A5B14D8923F080032C
:1044F00043EA05134FF6BF751D408B8822F44062D6
:1045000045EA03138D899BB242EA8502CD8942EACE
:10451000850292B28280CA8804830287038470BDB8
:1045200000340140002C0140038C70B523F48073EB
:104530001B041B0C0384038C8288848B0D8824F05D
:1045400073042404240C23F400731B042C430D89EE
:104550001B0C43EA05234D8892B243EA0523134D11
:104560009BB2461B754245EB0605114EB04208BF93
:1045700045F00105A5B14D8923F4006343EA052305
:104580004FF6FF351D408B8822F4405245EA032345
:104590008D899BB242EA0512CD8942EA051292B298
:1045A0008280CA8884838287038470BD002C014086
:1045B00000340140038C70B523F480531B041B0CA2
:1045C0000384038C8488828B0D8822F4E6421204D3
:1045D000120C23F4005342EA05221B040D891B0C24
:1045E00043EA05334D880F4E43EA05330E4DA4B21E
:1045F000C5EB000CDCF1000545EB0C05B04208BF33
:1046000045F0010592B29BB22DB18D8924F480440E
:1046100044EA8514A4B284808283CA88A0F840202A
:10462000038470BD00340140002C01404FF0FF3383
:10463000838000230380C380438003727047038814
:1046400019B19BB243F0010303E023F001031B0403
:104650001B0C03807047B0F8443029B16FEA434324
:104660006FEA53439BB201E05B045B0CA0F844305B
:104670007047038B23F00C031B041B0C0383038B79
:104680009BB2194301837047038B23F440631B04DF
:104690001B0C0383038B9BB243EA012189B2018384
:1046A0007047838B23F00C031B041B0C8383838BC9
:1046B0009BB2194381837047838B23F440631B04AF
:1046C0001B0C8383838B9BB243EA012189B28183D4
:1046D00070470000F8B50B880D4604464988AA8843
:1046E00043B92B89FFF7AAFCE9882046BDE8F840CA
:1046F000FFF7BFBF042B08D12B89FFF7E7FCE98840
:104700002046BDE8F840FFF7BFBF082B0E462F89B3
:10471000008C49D120F480700004000C2084A38B0D
:10472000208C9BB223F0F30343EA0717454BBFB23B
:104730003A43E71A7B4243EB0703434F80B2BC4244
:1047400008BF43F00103D3B9A4F1804CDCF10003AE
:1047500043EB0C03A7F59837BC4208BF43F00103B5
:104760006BB93A4B07F50067C3EB040CDCF10003AF
:1047700043EB0C03BC4208BF43F001033BB120F400
:10478000007141EA062189B241F4807104E020F40D
:10479000206041F480710143A2832184E98820468E
:1047A000BDE8F840FFF77DBF20F480500004000C06
:1047B0002084A38B208C23F440731B051B0D43EA3C
:1047C0000223204A43EA0733A71A7A4242EB070240
:1047D0001D4F80B2BC4208BF42F001029BB2D2B969
:1047E000A4F1804CDCF1000242EB0C02A7F59837F3
:1047F000BC4208BF42F001026AB9144A07F50067DB
:10480000C2EB040CDCF1000242EB0C02BC4208BF1C
:1048100042F001023AB120F4005242EA063292B26A
:1048200042F4805205E047F6FF52024041F48051C5
:104830000A43E9882046A3832284BDE8F840FFF7B5
:104840003BBF00BF002C0140003401400008004085
:10485000808E80B27047008F80B27047808F80B2A8
:104860007047B0F8400080B27047038A82891142D5
:104870000CBF0020012019420CBF002000F00100F5
:104880007047C94389B201827047000030B5038A7E
:10489000CA8823F440531B041B0C134303820D46A8
:1048A00083890989AA8823F4B0530A43698923F0CC
:1048B0000C030A431B041B0C92B213438381838AAB
:1048C000AA8923F440731B041B0C87B013430446CE
:1048D000838201A8FFF728FB174BA2899C420CBFDB
:1048E000049B039B12B2002A4FF019012A6801FBB6
:1048F00003F101DA520000E092006423B1FBF2F10F
:10490000B1FBF3F21201100903FB1011A08900B2F0
:10491000002806DAC9003231B1FBF3F303F00703D4
:1049200005E009013231B1FBF3F303F00F031A4341
:1049300092B2228107B030BD003801404FF41653C7
:1049400003600C2200238380C38003814281838122
:104950007047838919B19BB243F4005303E023F4F9
:1049600000531B041B0C83817047C1F3421310B525
:1049700001F01F01012414FA01F1A34201D10C300E
:1049800004E0022B01D1103000E0143003680AB1BA
:10499000194301E023EA0101016010BD838A9BB243
:1049A0000AB1194301E023EA010181827047C90578
:1049B000C90D818070478088C005C00D704703888D
:1049C00019420CBF00200120704710B501F01F03F1
:1049D0000122C1F342149A40012C08BF838903D0FD
:1049E000022C0CBF038A838A9BB21340090A01225E
:1049F00012FA01F1028892B211420CBF002001208C
:104A0000002B0CBF002000F0010010BD034B1A78F2
:104A1000034B53F8221009F075BF00BF3812002075
:104A20004C040020064B1B78042B08D1054BDA8977
:104A30000132DA81044B5A7842F002025A70704710
:104A400092240020482400200125002010B50B4CA2
:104A5000A16E206EFEF784FBD4F8FC10E065D4F85C
:104A6000F400FEF77DFBD4F89011C4F8F000D4F800
:104A70008801FEF775FBC4F8840110BD780B002097
:104A800007B5084B01200093D0213B22032301905E
:104A900004F0B5FC20B903B05DF804EBFFF7C2BF2A
:104AA00003B000BD2A12002038B51E4B1E4C1B78E7
:104AB000022B16D11D4DFFF7E3FFB5F90200FEF7FB
:104AC00005FC2066B5F90000FEF700FCC4F8F40010
:104AD000B5F90400FEF7FAFB00F10040C4F88801C4
:104AE00006E000232366C4F8F430114BC4F8883183
:104AF0000C4B0D4C1A780F4B206E53F82250294660
:104B0000FEF738FC29462066D4F8F400FEF732FCA4
:104B10002946C4F8F400D4F88801FEF72BFCC4F849
:104B2000880138BD38120020780B00202A1200209E
:104B3000000080BFAC060108F8B57949044609F0C9
:104B4000E1FE7849204609F0DDFE2046FFF75EFFD2
:104B50002046754909F0D6FE744B1B7903F02003FB
:104B6000DBB2002B00F0CF80714DFFF79DFF204698
:104B7000704909F0C7FE286E6F49FEF7FBFBFEF790
:104B8000BFFD032201460023204609F07DFF2D6E64
:104B900000212846FEF78CFD012628B128464FF05B
:104BA0003E41FEF785FD04E028464FF07851FEF7C0
:104BB0009DFD00B90026F6B21EB120465F4909F0FE
:104BC000A1FE20465A4D09F0DEFE20465C4909F060
:104BD00099FED5F8F4005849FEF7CCFBFEF790FD9E
:104BE000032201460023204609F04EFFD5F8F45079
:104BF00000212846FEF75CFD012628B128464FF02B
:104C00003E41FEF755FD04E028464FF07851FEF78F
:104C10006DFD00B90026F6B21EB12046474909F0E5
:104C200071FE434D204609F0AEFE2046454909F08D
:104C300069FED5F888014049FEF79CFBFEF760FD50
:104C4000032201460023204609F01EFFD5F8880103
:104C5000FDF71CFF00223C4BFDF7BAFD00220023AC
:104C600006460F46FEF7D8F9012530B130463946E1
:104C70000022364BFEF7D0F905E0304639460022D7
:104C8000334BFEF7E7F900B90025EDB21DB1204620
:104C90002A4909F037FE204609F075FE20462D49C5
:104CA00009F030FE224BD3F8F4001F6E0146D3F812
:104CB0008861FEF75FFB394605463846FEF75AFB2A
:104CC00001462846FEF74EFA314605463046FEF7C5
:104CD00051FB01462846FEF745FAFBF779FBFDF745
:104CE000D5FE0DA3D3E90023FDF724FFFEF7BCF9A1
:104CF000032201460023204609F0C6FE2046BDE8F7
:104D0000F84009F040BE14492046BDE8F84009F0DB
:104D1000F9BD00BFAFF300800000000000408F40ED
:104D200097120108E8050108FC050108012500208B
:104D3000780B00201906010800007A4422060108B9
:104D40002A060108330601080000F03F0000D0BF2A
:104D50000000D03F3F0601084B060108AFF300807A
:104D600030B5002385B0394A039301930293127939
:104D700002F02002D2B2002A60D0354C1025FFF795
:104D800093FE0198216EFEF7EDF9D4F8F41001902E
:104D90000298FEF7E7F9D4F8881102900398FEF71D
:104DA000E1F9013D0390EDB20A2001F0F9FD002D7B
:104DB000E5D14FF083410398FEF7D4F94FF07651D7
:104DC00005460198FEF7D6FA22490446FEF770FC24
:104DD00030B920462049FEF789FC10B11E4C00E096
:104DE0001C4C1B4B4FF076515C660298FEF7C2FAE2
:104DF00018490446FEF75CFC30B920461649FEF718
:104E000075FC10B1144C00E0124C114B4FF0765170
:104E1000C3F8F8402846FEF7ADFA0E490446FEF7FF
:104E200047FC30B920460C49FEF760FC10B10A4C33
:104E300000E0084C064BC3F88C4105E0044AC2F878
:104E40008C315366C2F8F83005B030BD0125002022
:104E5000780B00200000C6C20000C64208B5012041
:104E6000D02104F01BFB044B00F001001A7960F321
:104E700045121A7108BD00BF0125002008B5124B6C
:104E800000221A665A66C3F8F420C3F8F820C3F863
:104E90008C214FF07E52C3F88821FFF7DFFF0B4BC8
:104EA00000280CBF052002201870094B1A7902F067
:104EB0002002D2B21AB1BDE80840FFF751BF5A78BC
:104EC00042F002025A7008BD780B00203812002010
:104ED0000125002005289DBF024B33F8100080B249
:104EE000002070475C120020024B03221A7007F06A
:104EF000B3BC00BF9224002038B5FEF7E3F90C4C98
:104F000005462946D4F810010AF0FAFF2946C4F8EC
:104F10001001E06F0AF0F4FF0023C4F8A431C4F8D4
:104F20008030C4F81431034B0122E0671A7038BD99
:104F3000780B00206404002008B5044B00221A609E
:104F4000FEF7DEFB024B186008BD00BF40120020D8
:104F50001C15002070B52948FFF7EEFF284B9B7801
:104F600003F02003DBB2002B25D0264B1B68B3F5E2
:104F7000967F06DD01F00EFD234B00F56A501830D8
:104F8000586201F007FD204B5B6A98420ED91C4B1A
:104F9000DB7803F08003DBB2002B25D11B4B1B78A1
:104FA000042B21D01A4B1B78032B1DD0194B1A68E8
:104FB000194B1A6070BD174B184C18682168FEF722
:104FC000CFF8154D104E286001F0E4FCB36A98420A
:104FD00013D901F0DFFC124B00F57A70B06219684A
:104FE0002868FEF765FB18B1BDE87040FFF77CBF8D
:104FF00020680C49FEF7B6F8206070BD000048C379
:1050000001250020081500209424002071120020A2
:1050100086120020581F0020981F00206C120020CC
:10502000601F00200AD7A33C054BDA7842F001024A
:10503000DA701A7842F009021A70FFF78BBF00BFCE
:1050400001250020104B0022C3F8A421C3F8102131
:10505000DA670E4B5A796FF3C3025A710C4A116822
:105060000C4A11600C4A11680C4A1160DA786FF32F
:105070000412DA709A7802F0FB026FF341029A7020
:10508000074B00221A707047780B00200125002082
:1050900020150020C8150020AC1500208815002020
:1050A0007112002070B51A4C0021D4F8185128460E
:1050B000FEF7FEFA05F1004600B92E46D4F884400A
:1050C00000212046FEF7F4FA04F1004100B9214620
:1050D0003046FEF70BFB0F4E60B129462046FEF727
:1050E000FDF9FEF70DFB01230028B8BF40423060F8
:1050F000736070BD21462846FEF7F0F9FEF700FB0D
:1051000001230028B8BF40427060336070BD00BF0B
:10511000780B0020A01300202DE9F04FB04B89B090
:10512000054618680C46FDF7B1FCA9A3D3E9002396
:10513000FDF74CFBFDF7C0FFFDF7A8FCA6A3D3E9E4
:105140000023FDF7F7FCFDF7B7FF00210646FEF749
:10515000AFFA4FF0000850B93046FDF797FC9EA318
:10516000D3E90023FDF776FF10B19E4E00E04646DE
:105170009D4B01271D609D4B1C609D4B1868201A9C
:10518000FEF7A4F89B4B1968FEF7F4F89A4B044617
:105190001868281AFEF79AF8054629462046FBF7B4
:1051A00015F90AF0FDFDFEF7ABFA944B00211880CB
:1051B0002046FEF77DFA00B90027FFB204F1004A4D
:1051C00007B9A246284600214FF00109FEF770FA00
:1051D00008B94FF000095FFA89F905F10041B9F10A
:1051E000000F00D129465046FEF762FA28B105F1BA
:1051F0000047B9F1000F07D103E027B104F10047E0
:1052000002E02F4600E027467D4BB3F90000FEF791
:105210005DF801463846FEF74BFA00283AD0794B44
:105220001868794B1B68C01AFEF750F800218146B8
:10523000FEF73EFA08B109F10049744BDFF8D4A13A
:10524000B3F90000FEF742F8014648464FF0010B63
:10525000FEF72EFA08B94FF0000B9AF80230DFF88B
:10526000B4916BF341038AF80230694B4FF0010AA5
:10527000B3F90000FEF72AF801463846FEF718FA9F
:1052800008B94FF0000A99F802306AF3820389F8EE
:10529000023006E05F4B9A7802F0FB026FF34102A6
:1052A0009A70DFF8709199F8013003F01003DBB2C7
:1052B000002B00F0C9814A4B1868FDF7E7FB44A3B7
:1052C000D3E90023FDF7C6FE002800F0BD8199F860
:1052D000023003F00403DBB2002B40F0B5814E4BEB
:1052E00019781A464D4B41B1CDF81C80C3F8148192
:1052F000CDF81880C3F8808005E0D3F81811D3F8F2
:1053000084300791069300231370454B1B681846A1
:105310000293FDF7BBFB82468B46FAF765FFFDF76C
:10532000CBFE594681465046FAF71CFFFDF7C4FEF6
:1053300005F1004B824649465846FEF71BF8514698
:10534000034620460193FEF715F8019B01461846D7
:10535000FDF708FF314D5146C5F818015846FEF7D4
:1053600009F8494682462046FEF704F801465046B1
:10537000FDF7F6FE2B4BC5F8840093F80090B9F1C9
:10538000000F53D0234BC5F87C809B7803F00203B9
:10539000DBB2002B40F05B81184BB3F90000FDF746
:1053A00095FF0299FDF7DCFE0AF02AFD4FF07651D9
:1053B00000F10040FDF7DEFF1B4B044693F9390076
:1053C000FDF784FF00F100413AE100BFAFF3008038
:1053D000000000909999C93F0000002C3333C33F6F
:1053E000941300209999193E98150020A0150020CB
:1053F000AC1500203015002020150020841200205C
:10540000821200201C1500200815002068120020C0
:10541000801200200125002064040020780B002069
:10542000EC14002013120020CD1C002038464FF051
:1054300088410124FEF75AF900B94C46E4B20394BE
:105440000CB1FFF72FFE00252F46884A039B9424BA
:1054500004FB0724B3B1D4F884000021FEF728F937
:1054600008B1834801E04FF07E503146FDF782FFDE
:10547000804B8146E858FDF729FF01464846FDF775
:1054800079FF1DE0D4F884904FF044414846FEF780
:105490000FF940B948464FF08841FEF727F920B18F
:1054A0004FF0884901E04FF0444931464846FDF746
:1054B00061FFFEF725F909210AF06AFCFDF706FFF6
:1054C0000290D4F880100298FDF74CFE6A4B81469A
:1054D00093F92FB0CBF10000FDF7F8FE824651465C
:1054E0004846FEF7E5F840B95846FDF7EFFE82461C
:1054F00051464846FEF7FAF800B1D146C4F880900C
:105500004846E169FDF736FF4FF07D518346D4F8F8
:105510008800FDF72FFFFDF7B9FA05F118036A4679
:10552000CDE904019958D4F88400FDF719FEFDF780
:10553000ADFA0022514BFDF7FDFA02460B46DDE9BC
:105540000401FDF745F9FDF7B7FD216AC4F88800AD
:10555000FDF710FF06F1004949468246FEF7A8F81C
:1055600030B950463146FEF7C1F810B1B24600E0FE
:10557000CA4602985946FDF7F5FD5146FDF7F0FD84
:105580003F4B8246B3F90000FDF7A0FE51460246AC
:10559000E06F0AF0D6FC49468246FEF789F830B93A
:1055A00050463146FEF7A2F818B1304602E04846B0
:1055B00000E05046334BE067514607EB030B0124F4
:1055C000FEF76CF800B9002401370435022F8BF880
:1055D00000407FF43AAF2C4B1A7802F00202D2B2AC
:1055E000002A34D09B7803F00203DBB27BBB274B4D
:1055F000B3F90000FDF76AFE254B1968FDF7B0FD11
:105600000AF0FEFBFEF77CF8042100B20AF0B6FBBC
:105610004042FDF75BFE1A4B0446B3F90000FDF76C
:1056200055FE124B21460246D3F8A4010AF089FC2C
:10563000114B044693F939004042FDF747FE0146FD
:105640002046FEF735F802E00620FFF755FC074B31
:10565000C3F8A481C3F87C80C3F810810A4B5A793F
:1056600042F008025A7109B0BDE8F08F780B0020B3
:10567000000080BFA0130020CD1C00200000D03F00
:105680009A1300209C130020012500208412002082
:10569000EC140020AFF300800C4B0022C3F854211F
:1056A000DA62C3F8C0200A4B1A7802F04002D2B284
:1056B00052B11B7903F06003602B05D1054B1868CC
:1056C000054B1968FFF728BD704700BF780B002015
:1056D00001250020C81500208815002038B501F0EC
:1056E00059F90E4C236A98429EBF236A03F57A73D8
:1056F000236212D90A4B1B79DB070ED50025032044
:1057000005F0E8FB656201F045F9064B00F57A709B
:105710001D70054BE0611D7038BD38BD942400201C
:1057200001250020711200208612002038B5504B50
:105730001B78042B40F092804E4A13781446032BBA
:1057400000F29580DFE803F060120502FFF7A4FF86
:1057500008E0FFF7A1FF484B1B68B3F5967F01DA1D
:1057600003232370BDE83840FFF7F4BB434CFFF739
:1057700093FF2378642043F001032370404B414D95
:1057800093F920305843FDF7A1FDFFF7D5FB01F059
:1057900001F96B6A984233D92378032043F0080358
:1057A000237005F0A3FB012005F094FB01F0F2F853
:1057B000354B00F56A501C68344B18306862196824
:1057C0002046FDF793FF90B1314B21461868FDF755
:1057D000C7FC304C4FF07E5520602946FDF768FF2E
:1057E00000B125602C4B03221A70022233E02A4AB2
:1057F000032313701F4A1370BDE83840FFF774BBD2
:10580000BDE83840FFF76ABF01F0C4F81D4CE369FA
:1058100098422CD9214B9A8C01329A84174B1A78D2
:1058200002F04002D2B25AB11B7903F06003602B40
:1058300006D101F0AFF800F59C500830606203E03B
:1058400001F0A8F80F4B586201F0A4F80D4B00F5D9
:105850007A7018620122074B1A7038BD0A4A002379
:1058600013600F4AC2F85431D362C2F8C03038BD59
:105870009224002086120020081500200125002017
:10588000CD1C002094240020981F0020601F0020C1
:10589000581F00206C1200207112002048240020A4
:1058A000780B002010B5254B93F90030834203DAC2
:1058B000234B00221A7000E088B9224B1A68224B51
:1058C0001A60224B1A68224B1A60224B93F920204F
:1058D000214B1A80214B47F230521A6026E00138E2
:1058E0000B244443A4B204F58C7080B206F0CCF9CA
:1058F000154B186004F58E7080B206F0C5F9144B94
:10590000186004F5907080B206F0B0F9124B782858
:10591000188001DD78221A8004F59174A0B206F097
:105920009FF94FF47A7358430C4B18600C4B9A78DC
:1059300002F0FD026FF382029A7010BD7012002017
:1059400098130020D81500208C120020A8150020E4
:1059500090120020CD1C0020781200207C12002024
:105960000125002038B5914B187800F04000C0B2F6
:1059700068B11B79002003F06003602B07D101F0B0
:1059800009F88B4B5B6D984294BF00200120874C37
:10599000E37860F38613E370DBB203F04002D2B227
:1059A000002A00F06B816FF3C713E37023786FF365
:1059B000C3032370637903F00803DBB2002B40F0CC
:1059C00067817C4B1B78062B00F26281DFE813F0C5
:1059D000D40059002D000E000700AC007700764B74
:1059E0001868764B1968FFF797FB1BE0724B186835
:1059F000724B1968FFF790FBA378D90707D46B4B5C
:105A00005B7803F08003DBB2002B00F0B2806C4BBC
:105A10001B783BB96B4B1B68B3F5967F02DA654B7D
:105A200004221A70FFF796FA32E1634B1868634B51
:105A30001968FFF771FBA378DA0707D45B4A52783D
:105A400002F08002D2B2002A00F0938003F002023A
:105A5000D2B2002A00F0FA8003F01003DBB2002B70
:105A600000F0168100F096FF514C636A984240F2B4
:105A70000F8100F08FFF00F56A501830606203223A
:105A8000F9E04D4B18684D4B1968FFF745FBA378BB
:105A9000D80706D4454A527802F08002D2B2002AD2
:105AA00067D003F00203DBB2002B00F0F18000F0BE
:105AB00071FF454B1B68C0183D4B5862D1E0434B0A
:105AC0001868434B1968FFF727FB637803F08003DE
:105AD000DBB2002B4DD0354B9B7803F00203DBB2D9
