:02000000C02A14
:08000800F500030E831203133F
:10001000B6000A08B7008A010B1D13288B1E13288F
:100020000B118316A203831203130C1D31299101B6
:100030008C10F111F408031D252815088316AA0059
:10004000831216088316AB002D297408023A031D8B
:1000500040288312031315088316AE008312160876
:100060008316AF002D082F02AD002C082E02AC0025
:10007000031CAD030314AD1F0310AD0CAC0C2D29F4
:100080007408043A031D5B288312031315088316B2
:10009000B200831216088316B30031083302B10090
:1000A00030083202B000031CB1030314B11F031067
:1000B000B10CB00C2D297408063A031D7F28831259
:1000C000031315088316B600831216088316B700AB
:1000D0003508831216028316B50034088312150200
:1000E0008316B400031CB5030314B51F0310350CAD
:1000F0008312AB008316340C8312AA002D29740BD3
:1001000098288312031315088316AC00831216086F
:100110008316AD002B082D02AB002A082C02AA0082
:10012000031CAB030314AB1F0310AB0CAA0C2D294B
:100130007408033A031DB3288312031315088316AA
:10014000B000831216088316B1002F083102AF00E9
:100150002E083002AE00031CAF030314AF1F0310C0
:10016000AF0CAE0C2D297408053A031D0A29831221
:10017000031315088316B400831216088316B500FE
:1001800033083502B30032083402B200031CB30353
:100190000314B31F0310B30CB20C2A088312A0007F
:1001A00083162B088312A10083162C088312A20049
:1001B00083162D088312A30083162E088312A40031
:1001C00083162F088312A500831630088312A60019
:1001D000831631088312A700831632088312A80001
:1001E000831633088312A900711583162B0B292956
:1001F0002D0B29292F0B2929310B2929330B2929CB
:100200007110831215088316B40083121608831622
:10021000B5002D297408073A031D292983160313F5
:100220003708831216028316B700360883121502A8
:100230008316B600031CB7030314B71F0310370C53
:100240008312AD008316360C8312AC00FF30F4002D
:100250002D2971117114FF30F400831203130C1156
:10026000F40A831203138C1C37298C10F4018312B7
:10027000031337088A00360E8300F50E750E090049
:1005800083308316031381003F30850002309F00C3
:10059000C03083128600403083168600603083129C
:1005A000870084308316870014178113F2012E30E0
:1005B0008A159C228A1102308A159A228A113130BA
:1005C0008312031390000430970091017F30920052
:1005D0004E3083169200F101711404308A159A226C
:1005E0008A1101308A1539228A110A1681200A12CD
:1005F000243083160313980090308312980019302A
:100600008316990083121A0883160C158C140B1785
:10061000F301FF308312AC00FF30AD002C08AA00BC
:100620002D08AB002A08A8002B08A9002808A6005E
:100630002908A7002608A4002708A5002408A2006E
:100640002508A3002208A0002308A1008316A0010A
:10065000A101A401A601A501A3017730A80077306C
:10066000A70001308A1539228A118B1701305325D2
:10067000711C432B04308A159A228A1108308A157E
:100680009C228A114B2B08308A159A228A11043039
:100690008A159C228A110A3083160313A20083163E
:1006A0000313A20803195D2B0B19582B9E25542BFD
:1006B0000B1183160313A2034F2B1D27382BEE00BB
:1006C0000A166E210A126C0808000A1681210A1205
:1006D0006C080800EE000A16FC210A126C080800DB
:1006E0000D3079230A30792B1D300A16AD240A12F9
:1006F0000800831203130C1E792B83120313990035
:10070000080083120313CD004D08EC00ED016430A6
:100710005F23831203136C08303E79238312031383
:100720004D08EC0064306A2383120313CD004D089A
:10073000EC00ED010A305F23831203136C08303E96
:100740007923831203134D08EC000A306A238312C5
:100750000313CD0030304D07792B83120313C500EE
:100760003030C5073A304502031CB82B0730C507A7
:10077000831203134508792B83120313C400440E1C
:100780000F39AD230F30831203134405AD2B8312B1
:100790000313C60083163A148312461FDE2B8316FA
:1007A000B91BD52B2B307923DE2B2D3079238316E3
:1007B0000313B909B809B80A0319B90A8316031350
:1007C00038088312EC00831639088312ED001030CC
:1007D000EE002730EF006523831203136C08031D1E
:1007E000022C83163A1C022C073083124605033C68
:1007F000031C022C38304605273C0318072C2030F8
:100800007923072C303E7923831603133A1083167D
:10081000031338088312C800831639088312C900ED
:100820008316B801B90110308312C7008312031375
:10083000C80DC90D8316B80DB90D27303902031C38
:100840002F2C031D272C10303802031C2F2C27308F
:1008500083160313B9021030B802031CB9038312C4
:100860000313C70B162C07304605043A031D3A2C18
:100870002E3079238316031338088312EC00831675
:1008800039088312ED00E830EE000330EF006523F5
:10089000831203136C08031D5E2C83163A1C5E2C16
:1008A000073083124605023C031C5E2C3830460597
:1008B0001F3C0318632C20307923632C303E7923AE
:1008C000831603133A108316031338088312C800E3
:1008D000831639088312C9008316B801B901103094
:1008E0008312C70083120313C80DC90D8316B80DF8
:1008F000B90D03303902031C8B2C031D832CE83007
:100900003802031C8B2C033083160313B902E83022
:10091000B802031CB90383120313C70B722C0730F0
:100920004605033A031D962C2E30792383160313B4
:1009300038088312EC00831639088312ED00643006
:100940005F23831203136C08031DB72C83163A1C14
:10095000B72C073083124605013C031CB72C3830F6
:100960004605173C0318BC2C20307923BC2C303EA4
:100970007923831603133A1083160313380883125E
:10098000C800831639088312C9008316B801B9015B
:1009900010308312C70083120313C80DC90D8316CC
:1009A000B80D0318D72C64303802031CDB2C6430DC
:1009B00083160313B80283120313C70BCB2C073023
:1009C0004605023A031DE62C2E30792383160313C5
:1009D00038088312EC00831639088312ED000A30C0
:1009E0005F23831203136C08031D062D83163A1C24
:1009F000062D073083124605031D062D38304605A7
:100A00000F3C03180B2D203079230B2D303E79231A
:100A1000831603133A108316031338088312C80091
:100A2000831639088312C9008316B801B901103042
:100A30008312C70083120313C80DC90D8316B80DA6
:100A40000318262D0A303802031C2A2D0A3083167B
:100A50000313B80283120313C70B1A2D0730460580
:100A6000013A031D352D2E307923303083160313C0
:100A70003807792B831203138C1E522D9818422DA0
:100A8000181D482D83120313181218161A08522D18
:100A9000831203131A08CA004A0879238312031326
:100AA0004A0808000034003A03195A2D00300A168B
:100AB000AD240A1201300A16AD240A12711F652DE9
:100AC00002300A16AD240A12692D03300A16AD242D
:100AD0000A1204300A16AD240A128A15BA228A11A3
:100AE00042308A15D3228A11003A031D7C2D023030
:100AF0000A16AD240A12802D03300A16AD240A12FC
:100B00008A15C9228A1105300A16AD240A128A15DF
:100B1000BA228A11EE308A15D3228A11003A031DB7
:100B2000962D02300A16AD240A129A2D03300A16A9
:100B3000AD240A128A15C9228A11742B3A25831210
:100B40000313CC004C1BCC12831203134C08031963
:100B5000B82E523A0319E62D133A0319062E0D3A10
:100B600003190F2E053A03191F2E0A3A03192D2EC9
:100B7000083A0319362E033A03193F2E1B3A03197C
:100B8000442E053A0319472E673A0319522E033AA9
:100B90000319522E013A0319522E073A0319522E05
:100BA000013A0319522E033A0319522E013A03193E
:100BB000522E0F3A0319522E763A0319A92E0C3AE7
:100BC0000319AE2E7D3A0319B32EB82E07300A163C
:100BD000AD240A12711D002E8A1598218A117111F7
:100BE00009300A16AD240A12711CFB2D0A300A16B0
:100BF000AD240A12042E0B300A16AD240A12042E5C
:100C000008300A16AD240A127423B82E0C300A16C6
:100C1000AD240A128A152A208A117423B82E0D30A9
:100C20000A16AD240A12711F192E0A16BC200A12C8
:100C30001D2E0E300A16AD240A127423B82E103061
:100C40000A16AD240A128A1539238A11812311301C
:100C50000A16AD240A127423B82E12300A16AD24D7
:100C60000A128A156D238A117423B82E28300A16A9
:100C7000AD240A128A152C248A117423B82E8A15E1
:100C800065248A117423B82E00305325B82E0F30F6
:100C90000A16AD240A12A0271C300A16AD240A1227
:100CA0007423B82E13300A16AD240A1283120313CC
:100CB0004C0879233A307923831203134C08313AD4
:100CC0000319782E033A03197D2E013A0319822E57
:100CD000073A0319872E013A03198C2E033A031998
:100CE000912E013A0319962E0F3A03199B2E9F2E2F
:100CF00015300A16AD240A129F2E17300A16AD249D
:100D00000A129F2E18300A16AD240A129F2E19308F
:100D10000A16AD240A129F2E14300A16AD240A12A8
:100D20009F2E1A300A16AD240A129F2E16300A166C
:100D3000AD240A129F2E1B300A16AD240A1270230E
:100D40003130831203134C028A1518258A1174233B
:100D5000B82E8A1504228A117423B82E70231F30EE
:100D60008A00002F002706300A16AD240A12742BC1
:100D70000800BA2E0800831603138614B926061538
:100D800083120313061DC02EB92683120313861087
:100D900083168610B92683120611831606110800E1
:100DA00083160313861083128610B9268316061540
:100DB00083120313061DD82EB92683160313861437
:100DC000B92E83120313D600D70108308312031300
:100DD00057020318072FD61FF02E83168614F52E00
:100DE00083120313861083168610831603130615C9
:100DF00083120313061DF82EB9268312031306115E
:100E00008316061103108312D60DD70AE52E83161A
:100E100003138614B926061583120313061D0C2F1F
:100E2000B92683120313D7018618D70A0611831631
:100E30000611B92683125708080083160313A90167
:100E4000831281010B1130308604BB265230E1261B
:100E500083120313D500D508031D342F83162308EE
:100E6000E126831603132914D026BB265430E1262D
:100E700083120313D500D508031D442F83162408BD
:100E8000E12683160313A915D026BB265830E12688
:100E900083120313D500D508031D542F831625088C
:100EA000E12683160313A914D026BB265630E1266B
:100EB00083120313D500D508031D642F831626085B
:100EC000E126831603132915D026ED308312031370
:100ED0000102031C652F8B130B1D6C2F831603134C
:100EE00027088312D200831628088312D1008312A8
:100EF0000313060830390319872FD10B802F0612F0
:100F0000D20B832F8612842F852F862F792F8B1754
:100F10000B1D882F08008312031359080A16EE24AC
:100F20000A12003A03199F2F8312031359080A1655
:100F3000EE240A12792383120313D90A8B2F080097
:100F4000E73083160313A800E730A700E7308316C5
:100F5000031323020318D72F83120313D80105307C
:100F60008312031358020318CE2F0A308316A200EF
:100F700083160313A2080319C92F0B19C42F3A258E
:100F8000003A0319BD2FD72F0B1183160313A203A9
:100F9000B82F1D2783120313D80AAF2F831603130C
:100FA000A30AA50AA60AA40AA703A803A62F8316C4
:100FB0000313A401A601A501A3017730A80077308F
:100FC000A700291CE62F8312D9018B278316031350
:100FD000A91CEE2F10308312D9008B278316031320
:100FE000291DF62F20308312D9008B278316031377
:0E0FF000A91DFE2F30308312D9008B2F080070
:10100000EE008A110A1648218A150A123A080800C9
:10101000EE008A110A166E218A150A126C08080061
:1010200083120313AE0083169F1703108312AE0DB5
:101030000310AE0D0310AE0D81302E079F00652208
:10104000831203131E08B00083161E088312AF001C
:101050002F08080000301020831203132F08831676
:10106000B800831230088316B90038088312EC00E8
:10107000831639088312ED002E30002083120313EB
:101080003A088316B80083123B088316B90009306A
:10109000B8070318B90A38088312EC008316390818
:1010A0008312ED0011300820831203136C0883169D
:1010B000B80083126D088316B90055308A11792360
:1010C0008A1562308A1179238A153A308A11792378
:1010D0008A152A308A11C7238A151E308A110A16EA
:1010E000AD248A150A1202301020831203132F0830
:1010F0008316B800831230088316B90038088312AB
:10110000EC00831639088312ED0031300020831281
:1011100003133A088316B80083123B088316B900FC
:101120000530B8070318B90A38088312EC00831693
:1011300039088312ED000A300820831203136C086B
:101140008316B80083126D088316B90055308A11D2
:1011500079238A1572308A1179238A153A308A11D7
:1011600079238A152B308A11C7238A151E308A11DC
:101170000A16AD248A150A120130102083120313B7
:101180002F088316B800831230088316B900380878
:101190008312EC00831639088312ED0031300020F1
:1011A000831203133A088316B80083123B08831690
:1011B000B9001930B8070318B90A38088312EC00CF
:1011C000831639088312ED000A30082083120313B6
:1011D0006C088316B80083126D088316B900553069
:1011E0008A1179238A156E308A1179238A153A304B
:1011F0008A1179238A152B308A11C7238A151E304C
:101200008A110A16AD248A150A120430102083129E
:1012100003132F088316B800831230088316B90011
:1012200038088312EC00831639088312ED00313040
:101230000020831203133A088316B80083123B0878
:101240008316B9000530B8070318B90A38088312A5
:10125000EC00831639088312ED000A30082083124F
:1012600003136C088316B80083126D088316B90047
:1012700055308A1179238A1579308A1179238A1594
:101280003A308A1179238A152B308A11C7238A159F
:101290001E308A110A16AD248A150A120330102056
:1012A000831203132F088316B800831230088316A5
:1012B000B90038088312EC00831639088312ED0058
:1012C00031300020831203133A088316B8008312CA
:1012D0003B088316B9000530B8070318B90A380867
:1012E0008312EC00831639088312ED000A300820BF
:1012F000831203136C088316B80083126D088316DB
:10130000B90055308A1179238A157A308A117923E8
:101310008A153A308A1179238A152B308A11C7230E
:101320008A151E308A110A16AD248A150A12080081
:10133000203083120313C2000130C1000830831231
:10134000031341020318E429303041078A1179233D
:101350008A153A308A1179238A158313831203136D
:101360004208840000088316B800840A0008B90007
:1013700030308A1179238A1578308A1179238A15B9
:101380008316031339088A11BC238A1583160313A5
:1013900038088A11BC238A1583160313B908031968
:1013A000D52902303902031CDB291F308A110A16A5
:1013B000AD248A150A128A1170238A15023083120D
:1013C0000313C207C10A9E2950308A1179238A1556
:1013D0003A308A1179238A15031083160313200DDE
:1013E000B800210DB9001330B9078030B8070318D1
:1013F000B90A2B308A11C7238A1522308A110A169E
:10140000AD248A150A1208000130F306731C0F2A56
:1014100024308A110A16AD248A150A12152A23309F
:101420008A110A16AD248A150A12FF30831203139B
:10143000AC00FF30AD002C08AA002D08AB002A0834
:10144000A8002B08A9002808A6002908A70026083C
:10145000A4002708A5002408A2002508A30022084C
:10146000A0002308A1008316A001A101711171142D
:10147000080083120313DB008101DC010A308312B0
:1014800003135C020318642A8316BD01831203133D
:101490005B0883163D020318602A0A30003A0319DC
:1014A000562A0B1D512A0B11FF3E4E2AF11F5C2AB2
:1014B000831203138C1A080083160313BD0A462AED
:1014C00083120313DC0A3E2A08000301093C031CB3
:1014D0006B2A013E662A831203131F15831203131E
:1014E0001F196E2A0800831203138716831607122A
:1014F0008312871172088316BD000830003A031961
:10150000952A83160313BD1F882A831207168B2A78
:101510008312031307128312031387150310831614
:10152000BD0D83128711FF3E7E2A83120313871499
:1015300087100800F204732AFF3AF205732AA02AE2
:10154000A12AA22AA32AA42AA52AA62AA72A0800F1
:10155000013083120313DD009F2283168617831246
:101560000313861BB52ADD0FAF2A9F2283120313B4
:101570005D080800831603130617A82283120313BD
:101580000613831606139F2283128613831686136F
:10159000080083160313061383120613A82283166A
:1015A000031306179F2A83120313DE00F601083087
:1015B00076020318F52A83120313DE1FE22A83162C
:1015C0000617E72A83120313061383160613A822AD
:1015D000003A03190134831203138613831686130A
:1015E00003108312DE0DF60AD72A8316031306179B
:1015F000A822003A03190134F60183120313061BD3
:10160000F60A8613831686139F2276080800831233
:101610000313DF00E00183160617F6010830760297
:101620000318232BA822003A031900340310831255
:101630000313E00D061B6014831203138613831635
:101640008613F60A0E2B831203135F08031D061779
:101650000319061383160613A822003A031900344F
:10166000831203138613831686139F228312600846
:10167000080083160313BF011030BE00F730831635
:1016800003133E020318692BBA22831603133E0884
:10169000D322003A031D602B83160313BF0A303098
:1016A0008A1179238A1578308A1179238A1583164D
:1016B00003133E088A11BC238A158A1170238A15E8
:1016C000C9220B1D612B0B11023083160313BE07B9
:1016D0003E2B831603133F080800BA224230D32260
:1016E000003A031D212C4730D322003A031D212C40
:1016F0007430D322003A031D212C6030D322003AEB
:10170000031D212CC922BA224230D322003A031DE4
:10171000212C7730D322003A031D212C0830D3220C
:10172000003A031D212C6030D322003A031D212CE6
:10173000C9220B110B1D9A2BBA224230D322003A38
:10174000031D212C4730D322003A031D212C4E309B
:10175000D322003A031D212C0030D322003A031D6E
:10176000212CC922BA224230D322003A031D212C57
:101770007730D322003A031D212C0630D322003AC1
:10178000031D212C1030D322003A031D212CC92225
:101790000B110B1DC92BBA224230D322003A031D74
:1017A000212C4130D322003A031D212CC9220B11D8
:1017B000F601193076020318E22B0B1DDD2B0B11FD
:1017C000F60AD92BBA224330D322003A031D212C2A
:1017D0000030072383160313B90001300723831653
:1017E0000313B800C9228316031338088312E200DA
:1017F000831639088312E300E4011030E1008312FC
:101800000313E20DE30DE40D03180A2C0A30640201
:10181000031C0F2C0A3083120313E40203148316F3
:101820000313B80DB90D8312E10BFF2B18308A1189
:10183000C7238A1520308A110A16AD248A150A1288
:1018400008008A1170238A15C92221308A110A16CC
:10185000AD248A150A1208008A113A258A15003A21
:1018600003192C2CBA224230D322003A031D5D2CDE
:101870004330D322003A031D5D2CC92229308A113E
:101880000A16AD248A150A128A113A258A15003AD9
:101890000319442CBA224230D322003A031D5D2C96
:1018A0004530D322003A031D5D2CC9222A308A110B
:1018B0000A16AD248A150A120800C9222B308A1193
:1018C0000A16AD248A150A120800BA22EE30D32275
:1018D000003A031D0D2DF430D322003A031D0D2DC7
:1018E000F430D322003A031D0D2DC922BA22EE3066
:1018F000D322003A031D0D2DF430D322003A031DEC
:101900000D2DBA22EF30D322003A031D0D2D0130E8
:10191000072383160313B800C92283160313B81ACA
:10192000762CBA22EE30D322003A031D0D2DF6306C
:10193000D322003A031D0D2DBA22EF30D322003AF4
:10194000031D0D2D0030072383160313B90000304B
:10195000072383160313B800C92226308A110A16FA
:10196000AD248A150A1228308A11C7238A15BA2293
:10197000EE30D322003A031D0D2DF430D322003A6D
:10198000031D0D2D2E30D322003A031D0D2DC9222B
:10199000BA22EE30D322003A031D0D2DF430D322AB
:1019A000003A031D0D2DBA22EF30D322003A031D59
:1019B0000D2D0130072383160313B800C9228316A7
:1019C0000313B81AC82CBA22EE30D322003A031DF2
:1019D0000D2DF630D322003A031D0D2DBA22EF3023
:1019E000D322003A031D0D2D003007238316031365
:1019F000B9000030072383160313B800C92227302B
:101A00008A110A16AD248A150A1228308A11C723B2
:101A10008A158A1170238A1508008A1170238A1585
:101A2000C92221308A110A16AD248A150A1208002B
:101A300083120313E5008316C1010A3083160313D2
:101A4000410203187B2D8312E508031D2A2D013066
:101A5000F206662D83120313650B312D0230F20658
:101A6000662D831203136508023A031D3A2D0430D4
:101A7000F206662D831203136508033A031D432DF6
:101A80000830F206662D831203136508043A031D1D
:101A90004C2D1030F206662D831203136508053AAB
:101AA000031D552D2030F206662D831203136508A1
:101AB000073A031D5E2D4030F206662D8312031394
:101AC0006508073A031D662D8030F20673228316DF
:101AD0000313C001C8308316031340020318772D87
:101AE0000B110B1D712D83160313C00A6A2D83166B
:081AF0000313C10A1D2D0800BB
:1020000083120313B8000716831607128312871171
:102010008712031790010830831203171002031868
:10202000222803138711B81F172807161A288312AE
:1020300003130712031083120313B80D8715031738
:10204000900A0B288316031307168312B80103178F
:102050009001083083120317100203183B28031362
:1020600087110310B80D071A38148312031387154C
:102070000317900A292883120313871638080800CB
:1020800083120313B9008316071283128711871274
:1020900003179001083083120317100203186128F8
:1020A00003138711B81F56280716592883120313E4
:1020B0000712031083120313B80D87150317900A34
:1020C0004A28831203179001083083120317100265
:1020D00003187B2803138711B91F7028071673286C
:1020E000831203130712031083120313B90D87150C
:1020F0000317900A642883120313871683160716A2
:1021000008008312031387162130B8004A3040209C
:102110008F30002083120317900010083A3A031DF5
:10212000BB2820300313B800D73040202230831260
:102130000313B80000304020303083120313B8007E
:1021400048304020343083120313B8000030402060
:10215000353083120313B800FC3040203630831230
:102160000313B800FF304020383083120313B80047
:102170000030402071170800A73000208312031799
:10218000900053300A1279230A163A300A12792342
:102190000A1630300A1279230A1678300A12792387
:1021A0000A168312031710080A12BC230A160A1211
:1021B00070230A16A930002083160313B900A83033
:1021C000002083160313B80058300A1279230A1628
:1021D0003A300A1279230A166B300A12C7230A16FC
:1021E0002530AD24AD30002083160313B900AC3088
:1021F000002083160313B80059300A1279230A16F7
:102200003A300A1279230A166B300A12C7230A16CB
:102210002530AD24AB30002083160313B900AA305B
:10222000002083160313B8005A300A1279230A16C5
:102230003A300A1279230A166B300A12C7230A169B
:102240002530AD2C083083120313BF00BA01BB0147
:102250006C08EE0C0318BB07BB0CBA0CBF0B29298A
:102260000800083083120313BF006E08BE00BA01D5
:10227000BB016C08BE0C0318BB07BB0CBA0CBF0B30
:102280003A296E08EC1BBB026C08EE1BBB0208006F
:10229000103083120313BF000310BA0DBB0DEC0DF9
:1022A000ED0D031C57296E08BA070318BB0ABF0BB4
:1022B0004C290800103083120313BF000310BA0D1D
:1022C000BB0DEC0DED0D031C6B296F08BB076E08F1
:1022D000BA070318BB0ABF0B5E2908008312031359
:1022E000BC011130BF007C29BC0DBE0D6E083C0244
:1022F0003E1803140318BC00EC0DED0DBF0B742940
:10230000080083120313BC01BD011130BF009629E0
:10231000BC0DBD0D6E083C026F08031C6F0F3D0223
:10232000031C9629BD006E08BC020314EC0DED0DD4
:10233000BF0B8829080083120313BC011130BF00B2
:102340006E086D06BE00ED1FB229ED09EC09EC0A1E
:102350000319ED0ABF08031DB2296C08BA006D0805
:10236000BB000800EE1FBC29EE09EE0ABC29BC0D1B
:102370006E083C020318BC00EC0DED0DBF0BB72935
:10238000BE1BA529080083120313BC01BD01113037
:10239000BF006F086D06BE00ED1FDB29ED09EC09DB
:1023A000EC0A0319ED0ABF08031DDB296C08BA000B
:1023B0006D08BB000800EF1FF129EF09EE09EE0AD6
:1023C0000319EF0AF129BC0DBD0D6E083C026F0820
:1023D000031C6F0F3D02031CF129BD006E08BC02F7
:1023E0000314EC0DED0DBF0BE329BE1BCE296C08C9
:1023F000BA006D08BB00080083120313C001083047
:10240000BF00EC0DC00DBE0D6E0840023E18031457
:102410000318C000BF0B012A4008EC00080083121B
:102420000313500C123E03178F000313500C4F0C74
:10243000303E03178D0003188F0A831603178C177D
:102440000C1400000000831203134F182B2A0317EB
:102450000C087F390800831203170C0D0E0D0800BD
:102460000D055517411756175017202AC529D4298D
:102470004F23D42B41294510D619AE183410C33739
:10248000F03CF23467347410A83129103218B01BB4
:10249000A024EE332E10D7376C33E730EE33A0266E
:1024A0006134F234EE3365390D055517411756176F
:1024B0005017A031EF36E539A03B693A6810412149
:1024C000D327CC2AD422CC2C20274F10D720522916
:1024D0004127D42C0D055434E939A0347310462912
:1024E000C522A0294F23D42B41294516A039E53216
:1024F000A02350262036E9316537F332A1060A00C1
:102500000D0550396F33E91655336F10D422532A15
:10251000202B3317311A2039E530E43CAE068A23EC
:1025200079396F1DA018781041225829D319301815
:102530002C10313CA024C4233318B0060A26693776
:10254000E5307210F332EE396F39731080274E2662
:102550004927C5060A00EE377410613BE134EC30C0
:102560006236E5060A00C3376D38E1397310F3327D
:10257000EE396F3920004136F434ED32F432721006
:10258000F332EE396F3920000D05C337ED36613770
:10259000E439BA068A202E172E1761376136EF33D9
:1025A000203B6F36F430E732F3060A212E172E1740
:1025B000E3306C362021EF377436EF30E432F20628
:1025C0008A212E172E17C3376D38E1397310F43274
:1025D000733A0D054B172E17AE2161366931F23073
:1025E000F432A021EF36F030F339A0396537F337F4
:1025F000F2068A242E172E1749194310F332EE39AA
:102600006F392031F539A039E330EE060A262E174E
:102610002E17CC34EE326139A0396537F33772109A
:10262000F432733A0D0548172E172E216139EF3613
:10263000653A6539A0396537F3377210F432733A69
:102640000D054E172E172E37E533613A65322029D6
:10265000D8165028CD060A292E172E17522C203AAC
:10266000E539F4068A292E172E175334EF3BA0398B
:10267000653A75380D0556172E17AE296539F637A8
:10268000203AE5397410A821C12AD4244F27A11477
:102690000D05B11638172E28EF3B6539A037753A6E
:1026A000F03A7410F432733A0D0580060A26E139C7
:1026B0007410522C203B6136F5327310F232E33243
:1026C000693B6532BA060A0028376F10EE32771080
:1026D000F630EC3AE539A9060A00F232E332693BFA
:1026E0006532203B6136F532731061396510002781
:1026F0004F2A203B61366932A1060A00CF25A10688
:102700000A000D0541376136EF33A031E8306E37EE
:1027100065367310F432733ABA060A000D05CC34EC
:10272000EE326139A0396537F3377210F432733AFB
:10273000BA060A000D0528366937E5307210F33203
:10274000EE396F3920376F3A2038F232F3326E3A71
:10275000A9060A000D05D332723B6F10F432733AAA
:1027600020397537EE34EE332E17AE060A000D050C
:1027700049194310E23A7310F33161372039753744
:10278000EE34EE332C10EC34733A6937671073363D
:10279000613B651061326439E539F33273172E17E6
:1027A0000D050010E432F634E332A8392910E6377B
:1027B0007537E4060A000D05C3376D38E13973102B
:1027C000E432F634E332203AE539F4060A000D0526
:1027D000D037F7327210EF3A7438753A203AE5394B
:1027E000F4060A00C13A78103100C13A781032007C
:1027F000C13A781033004236F532202645220029AE
:102800006532202645228023F23265372026452274
:10281000802C6536EC377710CC224400C232653804
:10282000653980060A226F3765170D0580068A1103
:102830002000202B6F36F4060A002023C124CC226E
:1028400044002032E5330D058024B221A031EF365B
:102850006D10E63069366532A1060A00A036F3062F
:102860000A000D05D332743A69376710F0377317D1
:10287000202958105028CD060A000D05D332743A8D
:1028800069376710EE326717202958105028CD0697
:102890000A00A0230D0580068A2069392038F2320B
:1028A000F33975396510E9393A003B10D4326D3887
:1028B000A034731D80068A2161366931F230F4320A
:1028C000A031EF36F030F339A0396537F33772179E
:1028D0002028F232F339A030EE3CA035E53C203A16
:1028E0006F10E3376E3A6937F5320D0580068A1BA3
:1028F00032182032E533203A75396E106937A0312D
:102900006117A0193010F332E3376E32F3100D0562
:102910005039E539731061377910EB32791077341B
:10292000653720326F37E5060A000D05C330EC34F9
:102930006239613AE9376E10E3376D38EC32F432C0
:102940000D0580068A2161366931F230F4346F3723
:10295000A03272396F39A1060A0083120313CE0028
:102960008316BB01BC0183120313CE080319CD2CBF
:1029700083163B088312CF0083163C088312D000D5
:102980000F22003A031DC72C83120313CE038316B4
:102990000313BB0A0319BC0AB32C831603133B08A9
:1029A0008312CF0083163C088312D0000F22003A16
:1029B0000319ED2C831603133B088312CF008316F3
:1029C0003C088312D0000F220A1279230A168316BC
:1029D0000313BB0A0319BC0ACD2C0800831203138E
:1029E000DA00153003178F0003135A0C7F390F3E9E
:1029F00003178D0003188F0A831603178C170C1406
:102A000000000000831203135A180A2D03170C0844
:102A10007F390800831203170C0D0E0D08000D23DB
:102A2000F2376E3AA022D321A027CB060A000D2947
:102A3000E5307210A022D321A027CB060A000D2674
:102A400065337410A022D321A027CB060A000D29DC
:0E2A5000E933683AA022D321A027CB060A0062
:103E000083168B13A4308700860119309900243063
:103E1000980083019030980086010030B427F001AB
:103E20008301A03084002030C6278C1E152F1A086D
:103E300098184B2F18194B2F80003A3C03192F2F3D
:103E4000000E0F39FD3E03192F2FFF3E03192F2FB0
:103E50000A3000020319312FFD3E031D4B2F840A47
:103E6000152FA030840000083A3C031D4B2F840A14
:103E7000FB01AC27FA000310FA0C203C031C4B2F6B
:103E8000AC27F300AC27F200AC27003E0319502FFB
:103E9000FF3E0319842F18120930B4271816102F6B
:103EA00083012830C62703100317730C8F00720C90
:103EB0008D003E3073020318812FAC278C00AC2795
:103EC0008E008F08031D7A2F8D08031D7A2FF400B2
:103ED0000C08F50070141F308C00303096278E01CE
:103EE0008A308C00972700308C002F3096270230C4
:103EF0008D027B2F9727FA0B5D2FAC277B080D30A7
:103F000003191230B427102FB327701C932F0317F7
:103F10008D018F0175088C0074089627FF308C0086
:103F20003F30962797271530B427952F8E0083169C
:103F30008C170C1555308D00AA308D008C140000A4
:103F4000000083128D0A03198F0A08003030000226
:103F5000001BF93E840A0800A627F100F10EA627EF
:103F60007104FB07080012308301F1007108D327A8
:103F7000003E031DBF2F0D30C2270A30C22FC227BB
:103F8000F10AB62F0C1EC22F99000800FC00083061
:103F9000FC0D07120318071687158711FF3E031D36
:103FA000C82F87148710820742346F346F347434FB
:103FB000203431342E3431340034453452345234C8
:103FC00000344334533455344D3400344F344B347F
:103FD0000034533455344334433445345334533428
:043FE0002134003454
:044000000034003454
:02400E00723FFF
:00000001FF
