:020000008D2A47
:08000800FE00030E8312031336
:10001000B9000A08BA008A018C1C1C288C10FA1D31
:1000200015284E30831692009829FA15EA30831667
:10003000031392008312B301831203130C1DAC2926
:1000400091018C10FA11013097064E308316920000
:10005000371A2E2883121718322892288312031376
:100060001718922883120313B308031D3F2815089D
:100070008316E000831216088316E100A729831275
:1000800003133308023A031D5A2815088316E400A7
:10009000831216088316E50063086502E300620810
:1000A0006402E200031CE3030314E31F0310E30CE8
:1000B000E20CA729831203133308043A031D7528A1
:1000C00015088316E800831216088316E9006708EE
:1000D0006902E70066086802E600031CE7030314F0
:1000E000E71F0310E70CE60CA7298312031333085C
:1000F000063A031D982915088316EC00831216088A
:100100008316ED006B086D02EB006A086C02EA00D2
:10011000031CEB030314EB1F0310EB0CEA0C6A083F
:10012000F500A72983120313330BAB281508831698
:10013000E200831216088316E30061086302E100FF
:1001400060086202E000031CE1030314E11F0310D6
:10015000E10CE00CA729831203133308033A031DB3
:10016000C62815088316E600831216088316E700D2
:1001700065086702E50064086602E400031CE50305
:100180000314E51F0310E50CE40CA72983120313E5
:100190003308053A031D7A2915088316EA008312ED
:1001A00016088316EB0069086B02E90068086A020A
:1001B000E800031CE9030314E91F0310E90CE80C31
:1001C000610B9829630B9829650B9829670B98296F
:1001D000690B9829B71CF8286408F0007730600292
:1001E0008312B4007730831662028312B5000529AA
:1001F000831603136008F000773062028312B400A4
:100200007730831664028312B500773083160313A8
:1002100066028312B6000310710DB700B801F11B1E
:10022000B803B80D7108B7070318B80AF11BB80373
:100230003408B7070318B80AB41BB8030230B7076D
:100240000318B80A0314B81F0310B80CB70C031432
:10025000B81F0310B80CB70C3708F1000310720D6B
:10026000B700B801F21BB803B80D7208B70703183E
:10027000B80AF21BB8033508B7070318B80AB51B4C
:10028000B8030230B7070318B80A0314B81F0310E5
:10029000B80CB70C0314B81F0310B80CB70C370810
:1002A000F2000310730DB700B801F31BB803B80DCB
:1002B0007308B7070318B80AF31BB8033608B70763
:1002C0000318B80AB61BB8030230B7070318B80AF8
:1002D0000314B81F0310B80CB70C0314B81F031095
:1002E000B80CB70C3708F30083166808F4007A10CE
:1002F0007A15A729831203133308073A031D982997
:1003000083166D08831216028316ED006C088312A3
:1003100015028316EC00031CED030314ED1F0310FC
:10032000ED0CEC0C6C08F600FF308312B300A7292B
:100330007A117A14FF3083120313B3008316371E29
:10034000A42983121714A7298312031317108312E9
:1003500003130C11B30AB4290B1DB4298B1EB42945
:100360000B1183160313B803831203133A088A0090
:0A037000390E8300FE0E7E0E090018
:04037A000034003417
:1003800083120313B10BF3297009B1000310B10CF0
:100390000310B10C0310B10C0530B1072D1FD52986
:1003A00051308A155E278A11F3297C1EE0295130CD
:1003B0008A1560278A1101308A155E278A11F32970
:1003C0007C1CEB2951308A1560278A1140308A1530
:1003D0005E278A11F32951308A1560278A1110305F
:1003E0008A155E278A110800013083120313B000BA
:1003F0001A307002031C1B2A7A181B2A7A1D152A30
:1004000023247A1183120313B00B152A7C190D2AA9
:1004100004308A155E278A11112A04308A15602754
:100420008A110A3083120313B0008A150A168E252A
:100430008A110A12F82904308A1560278A110800E7
:100440007A1D692A831203132E082F040319382AF0
:1004500031182E2AAE032E0A0319AF038312031399
:100460002E082F04031D692A70080317A900692AA2
:100470000A308312031729020318422A8316031332
:10048000A301492A0A308312031729028316031392
:10049000A3004B3070020318522AFF30831203135B
:1004A000AE00AF01831603132308700203185C2A01
:1004B000FF308312AE00AF010A3083120317290701
:1004C0007002031C692A0319692AFF300313AE0066
:1004D000AF010800143083120313B00002308A15F4
:1004E000DA258A118A150A168E258A110A127A1CB3
:1004F000862A83120313051E832AB00B862AAD17A2
:100500000230B000862A83120313AD137A186E2AC4
:1005100083120313051E6E2A08000330831603138B
:1005200081003F30850002309F00C030831286007A
:100530004030831686006030831287008430831633
:10054000870081171417FC012E308A1560278A1145
:1005500024308316031398009030831298001930CA
:100560008316990083121A083130900004309700E6
:1005700091017F3092004E3083169200FA0183126F
:10058000AD017A148A1505268A1104308A155E2772
:100590008A1101308A15DA258A110A168C210A126D
:1005A000831203179F01A001A1017A1FDA2A8A157D
:1005B00035268A11831603130C158C140B17FF3084
:1005C00083120317A90001308A15DA258A118A15CA
:1005D0000A16A7208A110A128A150A16EC218A1116
:1005E0000A1201308A150A16FB248A110A12773082
:1005F000F6007730F5000630F4000630F000803069
:100600008A1560278A118B122E308A1560278A116D
:1006100004308A155E278A117A1F122B20308A1522
:100620005E278A118A1505268A11FF308312031767
:10063000A9008B176A220A16AF220A12F4217A182F
:10064000FB2A83120313B001F701F8011030FB00FD
:10065000FF30AE00AF01AD111E307602031CAD15A8
:1006600083120313051E192C81010B118B168A1599
:100670002B278A11831203179B019C0199019A0170
:1006800024248A150A16AF208A110A128A150A161E
:1006900055228A110A1283160313B81B522BB8086D
:1006A000031D4B2B8B1224240A16AF220A124C2452
:1006B0007A1C772BFA1C772B0F307705031D632BE1
:1006C00083120313B00AC8308312031330020318D5
:1006D000192CAD172E308A1560278A118312031743
:1006E0002608F1002708F2002808F300DD2BFA1C89
:1006F000812B1B3070020318812B83120313B20B62
:10070000DD2B7A188F2BFA1C892B1B307002031CEF
:100710008F2BFA18BB2B233070020318BB2B02302F
:1007200083160313B8071030FB00FF308312AE00AE
:10073000AF018A1505268A1183120317AA01AB019E
:10074000AC01AD01AE01AF017A1CA92B0313051A50
:10075000192C2E308A1560278A1151308A1560278E
:100760008A1108308A155E278A118A150A168E2585
:100770008A110A12012CFA18D12B7108831203175F
:10078000A6007208A7007308A800FF30B000B101EE
:100790008A150A168E258A110A1201308312031354
:1007A000B100FA1483120313AD13B0016430B20028
:1007B00008308A155E278A11C02183160313D801D9
:1007C000D901DA01DB012022FB080319E92BFB0325
:1007D000EF2B8A1515208A118A15E3238A118312BB
:1007E0000317100883160313A000831203171108C0
:1007F00083160313A1008312031712088316031331
:10080000A200372623248A15DE268A118A15EB26B4
:100810008A11FB08031D302B0D308A150A160F2490
:100820008A110A120A308A150A160F248A110A122E
:10083000302B80308A1560278A11032B0A163A2242
:100840000A126C0808000800831603139F178930EA
:1008500083129F008A1527268A11831603131E0808
:1008600083120317990703189A0A03131E08031724
:100870009A07913003139F008A1527268A11831641
:1008800003131E08831203179B0703189C0A031304
:100890001E0803179C07080083120317990A0319FF
:1008A0009A0A9B0A03199C0A03149A1F03109A0CB4
:1008B000990C03149C1F03109C0C9B0CFB08031940
:1008C000D42C1A089807190897070318980A1C08C7
:1008D00096071B0895070318960A7B0B362E0830DF
:1008E00097070318980A083095070318960A7A1B89
:1008F000AB2C180883160313A6003F0883120317B6
:10090000170783160313A5000318A60ABF1BA60327
:1009100025088312031797008316031326088312F2
:1009200003179800160883160313A60040088312C5
:100930000317150783160313A5000318A60AC01B87
:10094000A6032508831203179500831603132608B0
:10095000831203179600831203171708AA001808BA
:10096000AB0004300313E100031083120317AB0C38
:10097000AA0C0313E10BB42C03171508AC001608DE
:10098000AD0004300313E100031083120317AD0C14
:10099000AC0C0313E10BC42C0317970198019501CC
:1009A00096019D019E01362E831203172B089A0291
:1009B0002A089902031C9A032D089C022C089B020A
:1009C000031C9C0383160313371C342D8312031757
:1009D0001C081A0783160313A600831203171B08AB
:1009E000190783160313A5000318A60A8312031719
:1009F0001A089C0219089B02031C9C03031083160F
:100A00000313250D83120317990083160313260D74
:100A1000831203179A0019080313EC0003171A082E
:100A20000313ED000330EE001E24831203136C0841
:100A30000317990003136D0803179A0003109B0D09
:100A40009C0D1B080313EC0003171C080313ED0097
:100A50000330EE001E24831203136C0803179B005F
:100A600003136D0803179C00831203171A088A15D5
:100A70000A1651248A110A128312031719088A15BB
:100A80000A1651248A110A123B308A150A160F24BD
:100A90008A110A12831203171C088A150A16512498
:100AA0008A110A12831203171B088A150A16512489
:100AB0008A110A123B308A150A160F248A110A126B
:100AC00083120317190883160313A5008312031753
:100AD0001A0883160313A60002308312031799071E
:100AE00003189A0A03149A1F03109A0C990C031402
:100AF0009A1F03109A0C990C19089000831603137F
:100B00002608831203179A0083160313250A8312FB
:100B10000317990003199A0A03149A1F03109A0CD9
:100B2000990C8A157D228A11831203171B088316DC
:100B30000313A500831203171C0883160313A600D2
:100B40000230831203179B0703189C0A03149C1F8F
:100B500003109C0C9B0C03149C1F03109C0C9B0CFF
:100B60001B089100831603132608831203179C00A9
:100B700083160313250A831203179B0003199C0A8B
:100B800003149C1F03109C0C9B0C8A15CE228A1107
:100B9000831603139F13A13083129F008A15272603
:100BA0008A11831203131E08031792002E082F04C4
:100BB000031DDF2D1208AE00AF01AE1BAF03831281
:100BC00003172E0892028A151F238A118312031716
:100BD00012088A150A1651248A110A123B308A1506
:100BE0000A160F248A110A128312031718088A158D
:100BF0000A1651248A110A128312031717088A153C
:100C00000A1651248A110A123B308A150A160F243B
:100C10008A110A128312031716088A150A1651241C
:100C20008A110A128312031715088A150A1651240D
:100C30008A110A123B308A150A160F248A110A12E9
:100C40008312031714088A150A1651248A110A12EE
:100C50008312031713088A150A1651248A110A12DF
:100C60003B308A150A160F248A110A120800FB0865
:100C70000319402E83160313D801D901DA01DB01D1
:100C800083120313AD1D4A2E77308316D80703183D
:100C9000D90A502E760883160313D8070318D90AE9
:100CA000750883160313DA070318DB0AD91B642EB1
:100CB0005908031D5F2EF1305802031C642EF030DA
:100CC00083160313C800782E83160313D91B6F2EC7
:100CD0005908031D742E063058020318742E06306E
:100CE00083160313C800782E831603135808C80010
:100CF00083160313DB1B882E5B08031D832EF13044
:100D00005A02031C882EF03083160313C9009C2E50
:100D100083160313DB1B932E5B08031D982E0630EE
:100D20005A020318982E063083160313C9009C2E0E
:0A0D3000831603135A08C9000800D7
:101000008A110A16D0218A150A123F0808008A118F
:101010000A16F9218A150A123F0808008A110A16D1
:1010200062228A150A126C08080083160313371906
:101030001B28B71E1D282E30602783160313D801E6
:10104000D901DA01DB01DE01DF017A1F2D288A11C7
:101050000A1603208A150A1239283B300A160F2473
:101060000A123B300A160F240A123B300A160F24CC
:101070000A12831203171008003C83160313D200D0
:10108000D301D21BD3032008D2070318D30AA01B15
:10109000D30352088312EC00831653088312ED0029
:1010A00083162A088312EE00EF01EE1BEF030720E0
:1010B000831203133F088316D2008312400883165D
:1010C000D3008312031710080313EC0083162808BB
:1010D0008312EE0000208312031340088316D30707
:1010E00083123F088316D2070318D30A0830D207A9
:1010F0000318D30A04308312C600031483160313A3
:10110000D31F0310D30CD20C8312C60B7D28831679
:101110005908D3075808D2070318D30AB71EA628C0
:10112000FD1B9728FD080319972808305E27FD1F2F
:101130009B2804305E27831203173108031DA4285F
:10114000F1303002031CA62820305E2783160313DB
:10115000371DBC2883120317981BB328980803195E
:10116000B32804305E2783120317981FBC28180A7F
:101170000319BC2808305E27FB08031DE3288312EF
:10118000031717080313EC00031718080313ED00E7
:10119000831629088312EE00EF01EE1BEF030720F0
:1011A000831203133F088316D80083124008831666
:1011B000D9008030D8070318D90A5908D207031874
:1011C000D30AD91BD303710883160313D202031C5D
:1011D000D303F11BD30A831203171108003C8316B3
:1011E0000313D400D501D41BD5032108D407031859
:1011F000D50AA11BD50354088312EC0083165508A9
:101200008312ED0083162F088312EE00EF01EE1B10
:10121000EF030720831203133F088316D4008312C1
:1012200040088316D5008312031711080313EC003E
:1012300083162D088312EE0000208312031340084A
:101240008316D50783123F088316D4070318D50ADF
:101250000830D4070318D50A04308312C6000314DB
:1012600083160313D51F0310D50CD40C8312C60BA1
:101270002F2983165B08D5075A08D4070318D50A07
:10128000371D542983120317961B4B2996080319FF
:101290004B2920305E2783120317961F5429160A04
:1012A0000319542902305E27FB08031D7B29831292
:1012B000031715080313EC00031716080313ED00BA
:1012C00083162E088312EE00EF01EE1BEF030720BA
:1012D000831203133F088316DA0083124008831633
:1012E000DB008030DA070318DB0A5B08D407031839
:1012F000D50ADB1BD503720883160313D402031C23
:10130000D503F21BD50A8312031713080313EC004D
:10131000031714080313ED00831633088312EE003D
:10132000EF01EE1BEF030720831203133F08831620
:10133000D600831240088316D7008030D6070318E2
:10134000D70A5708D600D701D61BD7038312031735
:101350001208003C83160313DC00DD01DC1BDD03F7
:101360002208DC070318DD0AA21BDD035C088312D8
:10137000EC0083165D088312ED0083163408831297
:10138000EE00EF01EE1BEF030720831203133F086B
:101390008316DC00831240088316DD0083120317D6
:1013A00012080313EC00831632088312EE000020AB
:1013B0008312031340088316DD0783123F08831648
:1013C000DC070318DD0A0830DC070318DD0A0430E7
:1013D0008312C600031483160313DD1F0310DD0CF4
:1013E000DC0C8312C60BEA2983165D08D7075C085C
:1013F000D6070318D70A3508003CA3000301A31B36
:10140000FF30570203190C2A570823060318803AA5
:1014100080390319122A192A831603132308560246
:101420000318192A831603132308D600D701D61BE5
:10143000D703030183160313B51BFF3057020319AB
:10144000292A570835060318803A80390319362AA5
:101450002F2A83160313560835020318362A8316DB
:1014600003133508D600D701D61BD703FB08031D8D
:10147000762A83160313BA080319762AC1080319BA
:10148000762A8312031717080313EC0003171808B2
:101490000313ED0083163A088312EE00EF01EE1BF2
:1014A000EF030E20831203136C088316D8008312F7
:1014B0006D088316D9008312031715080313EC0077
:1014C000031716080313ED00831641088312EE007C
:1014D000EF01EE1BEF030E20831203136C0883163B
:1014E000DA0083126D088316DB007C2A831603134F
:1014F000D801D901DA01DB010800831203171A08A9
:101500009807190897070318980AFB08031DCD2AA6
:10151000831603132C08003CA3002C088312031726
:1015200018021808831603132C060318803A803912
:101530000319A02A2C088312031798009701B42AD4
:10154000831603132308831203171802180883163F
:10155000031323060318803A8039031DB42A230895
:101560008312031798009701831203171D0897072A
:101570000318980A9D1B9803981BC62A170818047D
:101580000319C62A9703170A03199803831203172E
:10159000981FCD2A970A0319980A08008312031787
:1015A0001C0896071B0895070318960AFB08031DDD
:1015B0001E2B831603133108003CA300310883124D
:1015C0000317160216088316031331060318803A10
:1015D00080390319F12A3108831203179600950107
:1015E000052B83160313230883120317160216080C
:1015F0008316031323060318803A8039031D052B35
:1016000023088312031796009501831203171E08FF
:1016100095070318960A9E1B9603961B172B150811
:1016200016040319172B9503150A03199603831241
:101630000317961F1E2B950A0319960A08007308B4
:10164000831203179207FA1F692B0A3028078316A3
:101650000313A30073082302730823060318803AB8
:101660008039031D392BFF3083120317B000B101FD
:10167000692B0A3083120317280283160313A30071
:1016800023087302730823060318803A8039031D68
:101690004F2BFF3083120317B000B101692BFD1BE4
:1016A0005A2B1F307D02031C5A2B1E308312031746
:1016B0009202692BFD1F652BE2307D020318652B1A
:1016C0001E30831203179207692B7D0883120317BC
:1016D000920283120317120893070318940A921BAD
:1016E0009403831603133608003CA30036088312C4
:1016F0000317140214088316031336060318803ADE
:1017000080390319882B360883120317940093013C
:101710008316031323088312031714021408831675
:10172000031323060318803A8039031D9C2B2308DA
:101730008312031794009301080083120313CA1B3A
:10174000AD2B4A08031DA82BF1304902031CAD2B19
:10175000F03083120313CB00F0340301831603131C
:10176000BE1BFF3083124A020319BF2B4A0883169F
:101770003E060318803A80390319C62BCD2B8316F9
:1017800003133E08831249020318CD2B831603135B
:101790003E088312CB004B08080083120313CA1BB8
:1017A000D82B4A08031DDD2B063049020318DD2B18
:1017B000063083120313CB00063483120313490847
:1017C000CB004B080800700883120313C80083166F
:1017D000371C292C5508CB00831248088316540760
:1017E000CA000318CB0A5308CB025208CA02031CD2
:1017F000CB035509CD00CD0A540883124802831645
:10180000CC00031CCD035308CD075208CC070318A6
:10181000CD0A5509CF00CF0A540883124802831617
:10182000CE00031CCF035308CF025208CE02031C84
:10183000CF035508D1008312480883165407D000FF
:101840000318D10A5308D1075208D0070318D10A48
:10185000512C831603135309CB00CB0A5208831271
:1018600048028316CA00031CCB035308CD00831221
:10187000480883165207CC000318CD0A5509CF003B
:10188000CF0A5408831248028316CE00031CCF03EC
:101890005508D1008312480883165407D000031856
:1018A000D10A831603135708CF075608CE0703182B
:1018B000CF0A5708D1075608D0070318D10A57088E
:1018C000CB025608CA02031CCB035708CD025608A8
:1018D000CC02031CCD035F08CF075E08CE070318B8
:1018E000CF0A5F08D1075E08D0070318D10A5F0846
:1018F000CB075E08CA070318CB0A5F08CD075E084E
:10190000CC070318CD0A2708CE070318CF0AA71B58
:10191000CF032708D0070318D10AA71BD103270834
:10192000CA070318CB0AA71BCB032708CC07031849
:10193000CD0AA71BCD038312480883163E02031865
:10194000A32D4F0851020319AD2C4F08510603185F
:10195000803A80390319B32CE02C831603134E0808
:1019600050020318E02C030183160313BE1BFF3043
:1019700051020319C32C51083E060318803A8039DE
:101980000319C92CE02C831603133E0850020318D8
:10199000E02C831603133E085002A3002308CE0751
:1019A0000318CF0AA31BCF032308CA070318CB0AC7
:1019B000A31BCB032308CC070318CD0AA31BCD031D
:1019C0008316031351084F020319EE2C51084F06DA
:1019D0000318803A80390319F42C212D8316031340
:1019E00050084E020318212D030183160313BE1B5A
:1019F000FF304F020319042D4F083E060318803AAA
:101A0000803903190A2D212D831603133E084E0237
:101A10000318212D831603133E084E02A30023084A
:101A2000D0070318D10AA31BD1032308CA07031840
:101A3000CB0AA31BCB032308CC070318CD0AA31B97
:101A4000CD03831603134B084D0203192F2D4B08AA
:101A50004D060318803A80390319352D622D8316FF
:101A600003134A084C020318622D03018316031363
:101A7000BE1BFF304D020319452D4D083E060318CD
:101A8000803A803903194B2D622D831603133E08CB
:101A90004C020318622D831603133E084C02A30068
:101AA0002308CA070318CB0AA31BCB032308CE07BE
:101AB0000318CF0AA31BCF032308D0070318D10AAA
:101AC000A31BD103831603134D084B020319702D7A
:101AD0004D084B060318803A80390319762DA32D43
:101AE000831603134C084A020318A32D030183161F
:101AF0000313BE1BFF304B020319862D4B083E0615
:101B00000318803A803903198C2DA32D83160313F3
:101B10003E084A020318A32D831603133E084A0207
:101B2000A3002308CC070318CD0AA31BCD03230869
:101B3000CE070318CF0AA31BCF032308D00703182F
:101B4000D10AA31BD103831603134E088312C900C5
:101B500083164F088312CA009D23831203134B0878
:101B60008316C4004A088312C90083164B088312E7
:101B7000CA009D23831203134B088316C5004C082B
:101B80008312C90083164D088312CA009D23831255
:101B900003134B088316C60050088312C90083162E
:101BA00051088312CA009D23831203134B08831626
:101BB000C700080083120313E3008101E5010A3026
:101BC0008312031365020318042EE4018312031326
:101BD000630864020318002E0A30003A0319F52D39
:101BE0000B1DF02D0B11FF3EED2D8A1123248A15BC
:101BF000831203138C1A080083120313E40AE62DE0
:101C000083120313E50ADF2D080006308316031341
:101C1000C400C500C600C7007730C900C800FA106C
:101C2000A201A101A001A701DE01DF01DA01DB01B0
:101C3000D801D90183120317A2019D019E019501CC
:101C400096019701980193019401A50108001E30A7
:101C5000003A03192D2EFF3E282E831203131F1561
:101C6000831203131F19302E08000230DA25831661
:101C70000313D801D901DA01DB01DC01DD01EE013A
:101C800083160313EE1B482E10306E020318992E94
:101C9000A7308A110A1647218A150A120839031932
:101CA000482EE8308A110A1647218A150A1283162F
:101CB0000313D2008A110A1656218A150A128316B6
:101CC0000313D3008A110A1656218A150A128316A5
:101CD0000313D6008A110A1656218A150A12831692
:101CE0000313D7008A110A1656218A150A12831681
:101CF0000313D4008A110A1656218A150A12831674
:101D00000313D5008312871683165308D907520888
:101D1000D8070318D90A5508DB075408DA0703184F
:101D2000DB0A5708DD075608DC070318DD0AEE0A50
:101D3000402E083083160313D8070318D90A083039
:101D4000DA070318DB0A0830DC070318DD0A043061
:101D50008312E600031483160313D91F0310D90C52
:101D6000D80C8312E60BAA2E0430E6000314831667
:101D70000313DB1F0310DB0CDA0C8312E60BB62E09
:101D80000430E600031483160313DD1F0310DD0C7B
:101D9000DC0C8312E60BC22E83165808831203173D
:101DA0009F00831603135A0883120317A00083169B
:101DB00003135C0883120317A100080083160313A2
:101DC0009F13813083129F00272603108312031371
:101DD0001E0CE8000800FA1EFB2E323077020318B2
:101DE000F62E80305E2704305E272A2F8030602751
:101DF000043060272A2F83120313AD1F112F3230B6
:101E0000770203180C2F0230780203180C2F803051
:101E10005E2704305E272A2F803060270430602739
:101E20002A2F83120313AD1E262F32307702031898
:101E3000212FF808031D212F80305E2704305E27F4
:101E40002A2F80306027043060272A2F80306027B7
:101E50000430602F0800F708031D362F6430F700A8
:101E6000F808031D352F0830F800F803F7030800C1
:101E70007C0883160313EE0083128716831607125D
:101E8000831287110830003A0319592F8316031360
:101E9000EE1F4D2F83120716502F831203130712C4
:101EA000031083160313EE0D831287158711FF3E6F
:101EB000432F83120313871487100800FC04382F64
:061EC000FF3AFC05382F7B
:10200000F9213F080800A7304721E830472183160F
:102010000313D800562183160313D90056218316C3
:102020000313DC00562183160313DD0056218316AB
:102030000313DA00562183160313DB00831287167D
:10204000FB08031D5228831659088A1551248A114A
:102050008316031358088A1551248A113B308A15B8
:102060000F248A11831603135B088A1551248A11E1
:10207000831603135A088A1551248A113B308A1596
:102080000F248A11831603135D088A1551248A11BF
:10209000831603135C088A1551248A113B308A1574
:1020A0000F248A11831603133F08D802031CD90397
:1020B000BF1BD90A4008DA02031CDB03C01BDB0A82
:1020C0003D08DC02031CDD03BD1BDD0A0430DD021C
:1020D0008312031717080313EC00031718080313E0
:1020E000ED000B30EE00EF010020831203133F08D8
:1020F0008316D600831240088316D7001030D60707
:102100000318D70A05308312A000031483160313A3
:10211000D71F0310D70CD60C8312A00B852883166B
:102120005708D9025608D802031CD9038312031793
:102130001A0883160313D907831203171908831685
:102140000313D8070318D90A831203171A08831632
:102150000313D90783120317190883160313D8072B
:102160000318D90A831203179D0183160313D91B81
:10217000C4285908031DC0280B305802031CC4286A
:102180000130831203179D0083160313D91BCF2838
:102190005908031DD3280A3058020318D328FF30EA
:1021A000831203179D0083160313D801D9018312EC
:1021B000031715080313EC00031716080313ED00AB
:1021C0000B30EE00EF010020831203133F0883164B
:1021D000D600831240088316D7001030D6070318A4
:1021E000D70A05308312A000031483160313D71FE8
:1021F0000310D70CD60C8312A00BF42883165708B3
:10220000DB025608DA02031CDB03831203179E016C
:1022100083160313DB1B17295B08031D13290B30DF
:102220005A02031C17290130831203179E008316DC
:102230000313DB1B22295B08031D26290A305A02DF
:1022400003182629FF30831203179E0083160313F9
:10225000DA01DB01080083160313071283128711CA
:1022600087120830003A0319462983120313871195
:10227000BD1F3C2907163F298312031307120310C1
:1022800083120313BD0D8715FF3E32290800831208
:102290000313BD00BC0007162B218316031307167A
:1022A0005621831203133C1F871608000830003A9A
:1022B000031966298312031387110310BD0D071A32
:1022C0003D14831203138715FF3E5729831203130E
:1022D0003D08080083120313BD002B218312031352
:1022E000BC010830831203133C02031886298711AE
:1022F000BE1F7C2907167F298312031307120310C0
:1023000083120313BE0D8715BC0A712983120313B0
:1023100087168316071608008312031387164A30A0
:10232000BE0021306A218F3047213A3A031DC0296F
:10233000C73083120313BE0020306A2183120313B7
:10234000BE0122306A21483083120313BE003030B0
:102350006A2183120313BE0134306A21FC308312D8
:102360000313BE0035306A21FF3083120313BE0011
:1023700036306A2183120313BE0138306A217A177E
:102380000800083083120313C400BF01C0016C08A9
:10239000EE0C0318C007C00CBF0CC40BC829080002
:1023A000083083120313C4006E08C300BF01C001CC
:1023B0006C08C30C0318C007C00CBF0CC40BD92990
:1023C0006E08EC1BC0026C08EE1BC0020800103047
:1023D00083120313C4000310BF0DC00DEC0DED0DEF
:1023E000031CF6296E08BF070318C00AC40BEB29AB
:1023F0000800103083120313C4000310BF0DC00D7A
:10240000EC0DED0D031C0A2A6F08C0076E08BF070C
:102410000318C00AC40BFD29080083120313C1016D
:102420001130C4001B2AC10DC30D6E0841024318B0
:1024300003140318C100EC0DED0DC40B132A0800A2
:1024400083120313C101C2011130C400352AC10D2A
:10245000C20D6E0841026F08031C6F0F4202031C7D
:10246000352AC2006E08C1020314EC0DED0DC40B39
:10247000272A080083120313C1011130C4006E081B
:102480006D06C300ED1F512AED09EC09EC0A031992
:10249000ED0AC408031D512A6C08BF006D08C00076
:1024A0000800EE1F5B2AEE09EE0A5B2AC10D6E08DA
:1024B00041020318C100EC0DED0DC40B562AC31BDD
:1024C000442A080083120313C101C2011130C40061
:1024D0006F086D06C300ED1F7A2AED09EC09EC0ABE
:1024E0000319ED0AC408031D7A2A6C08BF006D08A1
:1024F000C0000800EF1F902AEF09EE09EE0A031949
:10250000EF0A902AC10DC20D6E0841026F08031C2C
:102510006F0F4202031C902AC2006E08C10203140E
:10252000EC0DED0DC40B822AC31B6D2A6C08BF0095
:102530006D08C000080083120313C5010830C400F1
:10254000EC0DC50DC30D6E084502431803140318A6
:10255000C500C40BA02A4508EC000800080083123F
:1025600003178D0178307402031CB82A20308D00C7
:10257000A83083120313CC00C430831203134C021F
:102580000318D22A831603178C130C148313831297
:1025900003134C08840003170C0880008D0A0313F2
:1025A000CC0ABC2A831603133908A400B81BDC2A02
:1025B000023038020318E12A023083160313B800F0
:1025C000EB2A83160313B81BEB2A15303802031CC1
:1025D000EB2A1430B8000800831203135A0C133E80
:1025E00003178F0003135A0C590C0D3E03178D006F
:1025F00003188F0A831603178C170C1400000000B1
:10260000831203135918082B03170C087F3908008D
:10261000831203170C0D0E0D08000D0555174117F9
:1026200056175017202B3317B11AED192014E31445
:1026300020193018371049376717A02B6F36E6334B
:1026400061376710CD3068396937E732F2060A2AF8
:10265000E8347310E9392023D2224510D327462AC3
:10266000D720D2222C10F332651047284C10EC34BE
:10267000E332EE39E5100D0580060A28F237E6341C
:10268000AD2AE637202B3317B11AED192039E53082
:10269000E43CAE068A2379396F1DA01978104122D7
:1026A0005829D31930180D05CC34EE326139A039D0
:1026B0006537F337F23920004F27CC24CE220D05A1
:1026C00000376F3AA030F63069366131EC320D05D3
:1026D000002161396F1000214D28301CB5060A0019
:1026E000D326C41A30180D05002A68396F3A74369B
:1026F00065104334801980188021EF36F030F339AB
:1027000020000D05C337ED366137E439BA060A26D5
:102710002E172E26E9397410F030F230ED068A2695
:102720002E17AE266F3269337910F030F230ED0695
:102730008A292E17AE29E8377710F332F43AF006DB
:102740000A272E172E27E53A74396136203B613669
:10275000F532F3060A292E17AE29E8377710F23240
:10276000E332693B6539A031E8306E376536F306F0
:102770000A212E17AE39F430723A2021EF37F416C1
:10278000CC37613265390D0580060A29E533E93910
:10279000F432721000103D1080060A1F80060A28CD
:1027A0006139E136653A65392036E9397410E63722
:1027B0007210F332741023000D05D332EC32633AF9
:1027C000653220386139E136653A6539A039653AB4
:1027D0003A1080060A27E53A7439613620296F36A7
:1027E0006C1D0010503A63343A00A02CE13B3A00D3
:0627F0000D05541D000060
:103000008A11C1218A153F0808008A11F9218A1501
:103010003F0808008A113A228A156C080800102817
:1030200011281228132814281528162817280800F4
:10303000013083120313CE000F20831686178312EC
:103040000313861B2528CE0F1F280F20831203137E
:103050004E08080083160313061718208312031363
:103060000613831606130F20831286138316861306
:103070000800831603130613831206131820831601
:10308000031306170F2883120313CD00FF01083026
:103090007F020318652883120313CD1F522883165D
:1030A00006175728831203130613831606131820D6
:1030B000003A03190134831203138613831686130F
:1030C00003108312CD0DFF0A47288316031306173A
:1030D0001820003A03190134FF0183120313061B61
:1030E000FF0A8613831686137F08080083120313D2
:1030F000CF00D00183160617FF0108307F020318A6
:1031000092281820003A0319003403108312031385
:10311000D00D061B501483120313861383168613D7
:10312000FF0A7D28831203134F08031D0617031996
:103130000613831606131820003A0319003483126D
:1031400003138613831686138312500808002A205F
:1031500042304320003A031D3928FA173928FA1F54
:103160008F2903307705031D8F292A204330432000
:10317000003A0319BE283920FD0185290030762048
:1031800083120317B3000130762083120317B200B5
:1031900039208312031732080313EC000317330896
:1031A0000313ED000F30EE000A20831203136C08A6
:1031B0000317B20003136D080317B3003108031D92
:1031C000E528F1303002031CED28FD0183120317BE
:1031D000B003300A0319B10385298312031730089D
:1031E000F03A031DFB28B108031DFB283208B0008C
:1031F0003308B100FD018312031733083102B30015
:1032000032083002B200031CB303B31F1329330F7B
:103210000D298930320203181329F0308312031765
:10322000B2070318B30A83120317B31B2429330808
:10323000031D1E2979303202031C2429F030831229
:103240000317B202031CB30383120317B31B342901
:103250003308031D2F2915303202031C3429143082
:1032600083120317B200B30183120317B31F44295B
:10327000330F3E29EC30320203184429EC3083121C
:103280000317B200FF30B3007D0883120317B400A8
:10329000B501B41BB50334080313EC00031735085C
:1032A0000313ED000330EE00EF010520831203133A
:1032B0003F080317B400031340080317B500330891
:1032C000B5073208B4070318B50A0310B40DB50DDD
:1032D0000310B40DB50D34080313EC0003173508C3
:1032E0000313ED00831642088312EE00EF01EE1B7C
:1032F000EF030520831203133F080317B4000313E1
:1033000040080317B5003508FD00FB08031D94298C
:1033100083120317300851243B300F249429FB08F3
:10332000031D94293B300F2C08002A20EE30432047
:10333000003A031DC429F6304320003A031DC42976
:103340002A20EF304320003A031DC42901307620A3
:1033500083160313A60039202A20EE304320003ABA
:10336000031DC429F7304320003A031DC4292A2035
:10337000EF304320003A031DC42901307620831624
:103380000313A500392001343920831203132D10B3
:10339000003483120313D2002A20EE304320003A77
:1033A000031DEA29F4304320003A031DEA29831261
:1033B000031352084320003A031DEA2939208312DF
:1033C0000313AD10520803172406031DE929031344
:1033D000AD14013439200034F90183160313A70119
:1033E0002A20EE304320003A031D502AD0304320DB
:1033F000003A031D502A2A20EF304320003A031DD3
:10340000502A0130762083120317A300392083123B
:1034100003172308553A031D102A2E30A400142A3E
:103420006E3083120317A400831203172408C921E6
:10343000003A0319502A0A30003A0319242A0B11C2
:103440000B1D202AFF3E1C2A9521831603132508F5
:103450008312A800831626088312A900F430C9211C
:10346000003A0319502A1E30003A03193C2A0B1166
:103470000B1D382AFF3E342A952183160313250895
:103480008312A600831626088312A70003172408B8
:10349000C921003A0319502A831203132D1408007E
:1034A000831203132D132D103928F90A83120313E5
:1034B0002D1CBE2B02307902031C602AAD18682A2D
:1034C00008307902031CBE2B83120313AD18BE2BE8
:1034D000F9019521013A031DBE2B83120313AD1C84
:1034E000912AF430C921831203132E082F040319E3
:1034F000822A831625088312A800831626088312C1
:10350000A900BE2B831203132908831626028312F7
:10351000AB002808831625028312AA00031CAB0304
:10352000BE2B831203172408C921831203132E080C
:103530002F040319A82A831625088312A6008316D0
:1035400026088312A7008316A70183122D13BE2B12
:10355000FC1BAF2A80300A125E270A16B32A80307D
:103560000A1260270A16831203132D1BB92AAC0115
:103570002D178312031327088316A6028312260829
:103580008316A502031CA60383122A08EC002B084D
:10359000ED0083162B088312EE00EF01EE1BEF0304
:1035A0000520831203133F08A2004008A300103037
:1035B000A2070318A30A2208EC002308ED0020301C
:1035C000EE000A20831203136C08A2006D08A3000A
:1035D00023088316A607831222088316A50703185B
:1035E000A60A25088312A200831626088312A300C8
:1035F0002C088316A500A601A51BA60383122C0880
:10360000EC000730EE000020831203133F08AC00EB
:103610002208AC070430AC072C08EC00ED01EC1BD1
:10362000ED030830EE000A20831203136C08AC008F
:10363000831626098312A300AC1FA30A831625084C
:1036400083122C02A200031CA303AC1B2D2B0930F8
:103650002C02031C2D2B0830AC0083120313AC1F6B
:10366000372BFD302C020318372BFD30AC008312B2
:1036700003132C08EC00831630088312EE000020A0
:10368000831203133F088316A50027082502270885
:1036900025060318803A8039031D502BA7035B2BA6
:1036A0008316031325082702270825060318803AE6
:1036B00080390319A70A8316031327082502270850
:1036C00025060318803A8039031D682BA703732B46
:1036D0008316031325082702270825060318803AB6
:1036E00080390319A70A83120313A31B832B230812
:1036F000031D7E2B09302202031C832B083083120A
:103700000313A200912B83120313A31F912B230FEA
:103710008D2BF83022020318912BF83083120313FB
:10372000A200831203132208EC00831643088312BD
:10373000EE000020831203133F088316A50025081E
:10374000A707A71BA92B15302702031CA92B0F3095
:10375000A70083160313A71FB32BF6302702031805
:10376000B32BF630A700FC1BBA2B80300A125E2761
:103770000A16BE2B80300A1260270A16FB08031DAA
:10378000D92B831203132D1CD52B83162708512404
:103790003B300F24831203132C085124831203138C
:1037A0002C0851243B300F24D92B3B300F243B30C5
:1037B0000F2C08008A11C1218A153F080800EE006D
:1037C0008A110D228A156C080800EE008A119B22CE
:1037D0008A156C080800831203135708D90058088B
:1037E000DA008A11EC228A15003A0319072C831299
:1037F00003135708D9005808DA008A11EC228A15F9
:103800000F2483120313D70A0319D80AEB2B0800DD
:103810007F3083120313D7000130D800EB2B8312C3
:1038200003130C1E0F2C831203139900080083123C
:103830000313D4005408EC00ED016430DF2383123D
:1038400003136C08303E0F24831203135408EC005A
:103850006430E52383120313D4005408EC00ED0117
:103860000A30DF23831203136C08303E0F248312C7
:1038700003135408EC000A30E52383120313D40029
:10388000303054070F2C303E83120313D4003A30EB
:103890005402031C4D2C0730D40783120313540821
:1038A0000F2C83120313D600560E0F3943240F300A
:1038B000831203135605432C83120313D400D41F21
:1038C000682C2D300F2483120313D409D40A6A2CD8
:1038D0002B300F24831203135408172C8312031365
:1038E0008C1E802C9818762C181D7C2C83120313A8
:1038F000181218161A08802C831203131A080F2C9A
:10390000003483120313D4016E2483120313D500F1
:1039100030305502031C842C3A3055020318842C95
:1039200030305502D4005408EC000A30EE00DA239F
:10393000831203133F08D4006E2483120313D500AF
:1039400030305502031C9C2C3A30550203189C2C35
:1039500030305502D4075408080083120313D401F1
:103960007A126E2483120313D50030305502031CE3
:10397000BD2C3A305502031CC32C83120313550887
:103980002D3A031DB12C8312031355082D3A031D44
:10399000D62C7A166E2483120313D50030305502CC
:1039A000031CCA2C3A3055020318CA2C303083123B
:1039B00003135502D4005408EC000A30EE00DA2359
:1039C000831203133F08D4006E2483120313D5001F
:1039D00030305502031CE42C3A3055020318E42C15
:1039E00030305502D4077A1EF72CD409D40A83123A
:1039F000031354080800003A0319052D831203131A
:103A0000D701D801EB230630F4005F308312031393
:103A1000D700D801EB237A1F142D9E308312031395
:103A2000D700D801EB231A2DA73083120313D70038
:103A3000D801EB23DF3083120313D700D801EB2327
:103A4000FA1F292D9E3083120313D700D801EB23D0
:103A50002F2DA73083120313D700D801EB23B730E3
:103A600083120313D700D801EB23831203132D1CF9
:103A70004B2D03172308553A031D442DBD30031366
:103A8000D700D801EB23512DC63083120313D70082
:103A9000D801EB23512DA73083120313D700D8018F
:103AA000EB238A11AF228A15CF3083120313D7007C
:103AB000D801EB2383160313B71C642DDB3083126C
:103AC000D700D801EB236A2DDD3083120313D70012
:103AD000D801EB239E3083120313D7000130D800A6
:103AE000EB2378307402031C782D32300F24082C1D
:103AF00031300F24082C831603178C130C158B13ED
:103B000055308D00AA308D008C148B178316031747
:103B10008C18862D831603170C1108006E2483124F
:103B20000313DC005C1BDC12831203135C08031913
:103B3000B72E4C3A0319B22D013A0319EF2D1E3A54
:103B40000319332E1D3A0319362E1C3A03195D2E24
:103B5000103A0319982E163A0319A02E6B3A03193E
:103B6000B02EB72E833083120313D7000130D80054
:103B7000EB2378307402031CC02D32300F24C22D89
:103B800031300F248A11AF228A15013083120313BA
:103B9000DC00A830DB00C430831203135B0203187F
:103BA000ED2D6F30D7000130D800EB2383120313C3
:103BB0005C0817247B3083120313D7000130D80030
:103BC000EB238313831203135B08840000085C2437
:103BD00083120313DC0ADB0ACB2D0824B72E023034
:103BE0000A125E270A166F3083120313D7000130C2
:103BF000D800EB23812483120313DC00DC037B3029
:103C0000D7000130D800EB23AD2483120313D4086E
:103C1000540803178C0078307402031C122E2030D5
:103C20000313DC07831203135C0803178D007B2545
:103C3000831203135C080F3A031D2D2E1230D40596
:103C4000203003178D0783160C14ED3083128C057A
:103C50000313540803178C047B2502300A126027D3
:103C60000A160824B72E0030FB24B72EB930831271
:103C70000313D7000130D800EB23831203171F086A
:103C80005C24C93083120313D7000130D800EB2322
:103C90008312031720085C24D03083120313D7004B
:103CA0000130D800EB23043083160313DD028312A6
:103CB000031721085C240824B72ED630831203137F
:103CC000D7000130D800EB23700817242C300F24C4
:103CD00052300F243A300F2471085C242C300F240A
:103CE0004E300F243A300F2472085C242C300F24FD
:103CF00059300F243A300F2473085C242C300F24E1
:103D000035300F243A300F24740817242C300F2438
:103D100036300F243A300F24750817242C300F2426
:103D200037300F243A300F24760817240824B72E92
:103D30001F308A00002F8A110A1200278A150A16DE
:103D40000A30831203179000143091001E300313C1
:103D5000A4002830A5008A11AE228A150824B72EA7
:103D6000E83083120313D700D801EB23082C080096
:103E000083168B13A4308700860119309900243063
:103E100098008301903098000030AE27F0018301B4
:103E2000A03084008C1E122F1A089818482F1819D9
:103E3000482F80003A3C03192C2F000E0F39FD3E0D
:103E400003192C2FFF3E03192C2F0A3000020319EF
:103E50002E2FFD3E031D482F840A122FA030840010
:103E600000083A3C031D482F840AFB01A627FA00EC
:103E70000310FA0C203C031C482FA627F300A627AA
:103E8000F200A627003E03194D2FFF3E03197E2F97
:103E900018120930AE2718160F2F83010317730C61
:103EA0008F00720C8D003E30730203187B2FA62703
:103EB0008C00A6278E008F08031D742F8D08031D0C
:103EC000742FF4000C08F50070141F308C00303093
:103ED00090278E018A308C00912700308C002F3083
:103EE000902702308D02752F9127FA0B572FA627A6
:103EF0007B080D3003191230AE270F2FAD27701C31
:103F00008D2F03178D018F0175088C007408902781
:103F1000FF308C003F30902791271530AE278F2F30
:103F20008E0083168C170C1555308D00AA308D002D
:103F30008C140000000083128D0A03198F0A0800F8
:103F400030300002001BF93E840A0800A027F1006F
:103F5000F10EA0277104FB07080012308301F10065
:103F60007108C027003E031DB92F0D30BC270A3051
:103F7000BC2FBC27F10AB02F0C1EBC2F99000800E3
:103F8000820742346F346F347434203431342E3429
:103F900031340034453452345234003443345334D1
:103FA00055344D3400344F344B340034533455348D
:0E3FB000433443344534533453342134003405
:02400E00723FFF
:00000001FF
