:02000000C02915
:08000800FD00030E8312031337
:10001000B9000A08BA008A018C1C10288C10B301A0
:10002000831203130C1D862991018C10F911B3085A
:10003000031D222815088316E00083121608831674
:10004000E1008129831203133308023A031D3D287E
:1000500015088316E400831216088316E50063086A
:100060006502E30062086402E200031CE303031478
:10007000E31F0310E30CE20C8129831203133308FE
:10008000043A031D582815088316E8008312160841
:100090008316E90067086902E70066086802E6005F
:1000A000031CE7030314E71F0310E70CE60C812988
:1000B000831203133308063A031D752815088316A7
:1000C000EC00831216088316ED006B086D02EB003E
:1000D0006A086C02EA00031CEB030314EB1F031015
:1000E000EB0CEA0C6A08F500812983120313330B29
:1000F0008E2815088316E200831216088316E30083
:1001000061086302E10060086202E000031CE10391
:100110000314E11F0310E10CE00C81298312031387
:100120003308033A031DA92815088316E600831235
:1001300016088316E70065086702E5006408660292
:10014000E400031CE5030314E51F0310E50CE40CB5
:100150008129831203133308053A031D5D2915080D
:100160008316EA00831216088316EB0069086B02F7
:10017000E90068086A02E800031CE9030314E91FA8
:100180000310E90CE80C610B7B29630B7B29650BE1
:100190007B29670B7B29690B7B29B71CDB2864084B
:1001A000F000773060028312B40077308316620269
:1001B0008312B500E828831603136008F000773037
:1001C00062028312B4007730831664028312B50092
:1001D00077308316031366028312B6000310710D85
:1001E000B700B801F11BB803B80D7108B7070318C1
:1001F000B80AF11BB8033408B7070318B80AB41BD0
:10020000B8030230B7070318B80A0314B81F031065
:10021000B80CB70C0314B81F0310B80CB70C370890
:10022000F1000310720DB700B801F21BB803B80D4E
:100230007208B7070318B80AF21BB8033508B707E6
:100240000318B80AB51BB8030230B7070318B80A79
:100250000314B81F0310B80CB70C0314B81F031015
:10026000B80CB70C3708F2000310730DB700B801D3
:10027000F31BB803B80D7308B7070318B80AF31BCC
:10028000B8033608B7070318B80AB61BB80302301C
:10029000B7070318B80A0314B81F0310B80CB70C3B
:1002A0000314B81F0310B80CB70C3708F3008316FB
:1002B0006808F40079107915812983120313330833
:1002C000073A031D7B2983166D08831216028316D5
:1002D000ED006C08831215028316EC00031CED037D
:1002E0000314ED1F0310ED0CEC0C6C08F600FF304E
:1002F0008312B300812979117914FF30831203131B
:10030000B300831203130C11B30A8E290B1D8E291F
:100310008B1E8E290B1183160313B803831203134C
:0E0320003A088A00390E8300FD0E7D0E09009A
:1003800003308316031381003F30850002309F0045
:10039000C03083128600403083168600603083129E
:1003A000870084308316870081171417FB012E30D5
:1003B0008A1514278A11243083160313980090306D
:1003C0008312980019308316990083121A0831306D
:1003D00090000430970091017F3092004E308316D8
:1003E0009200F9018312AE0179148A1505268A114B
:1003F00004308A1512278A1101308A15D8258A11EE
:100400000A168C210A12831203179F01A001A10171
:10041000791F0D2A8A1536268A11831603130C15A7
:100420008C140B17FF3083120317A70001308A15B5
:10043000D8258A118A150A16A7208A110A128A1548
:100440000A16EC218A110A1201308A150A16D524DF
:100450008A110A127730F6007730F5000630F40082
:100460000630F0008B1280308A1514278A112E3046
:100470008A1514278A1104308A1512278A11791FC8
:10048000452A20308A1512278A118A1505268A11D5
:10049000FF3083120317A7008B1714300313B0002B
:1004A00002308A15D8258A118A150A165C258A1108
:1004B0000A12791C752A83120313051E712AB00BC8
:1004C000752AFB1B682A80308A1512278A116C2A2C
:1004D00080308A1514278A11023083120313B0006A
:1004E000752A80308A1514278A117918502A8312A8
:1004F0000313051E502A80308A1514278A110430F0
:100500008A1514278A1120308A1512278A1114306F
:100510008A15D8258A1120308A1514278A110A16BF
:10052000AF220A12013083120313B0001A30700296
:10053000031CB92A79182E2A791DB32A3A24791175
:1005400083120313B00BB32A7B19AB2A04308A152C
:1005500012278A11AF2A04308A1514278A110A300B
:1005600083120313B0008A150A165C258A110A1239
:10057000962A83120313B001F7011030FA00FF30FE
:10058000AF00AE11783076020318AE158312031354
:10059000051E302C81010B118B1603179B019C014A
:1005A00099019A013B248A150A16AF208A110A1272
:1005B0008A150A163E228A110A1283160313B81BE3
:1005C000E42AB808031DDD2A8B123B240A16AF2249
:1005D0000A12F708031DEE2A6430F700F7036324BC
:1005E000791C1D2BF91C1D2B07307705031D032BD0
:1005F000FB1BFF2A80308A1512278A11032B8030BB
:100600008A1514278A110F307705031D0A2B8312D0
:100610000313B00AC8308312031330020318302CBE
:100620002E308A1514278A11831203172408F1002B
:100630002508F2002608F300B92BF91C272B1B30E4
:1006400070020318272B83120313B10BB92B7918EF
:10065000352BF91C2F2B1B307002031C352BF9187E
:10066000602B233070020318602B023083160313B3
:10067000B8071030FA00FF308312AF008A15052644
:100680008A1183120317A801A901AA01AB01AC01C9
:10069000AD01791C4E2B0313051A302C2E308A1510
:1006A00014278A1151308A1514278A1108308A15A7
:1006B00012278A118A150A165C258A110A121B2C28
:1006C000F918762B710883120317A4007208A5008D
:1006D0007308A600FF30AE00AF018A150A165C252C
:1006E0008A110A12013083120313B200F914831223
:1006F0000313B0080319802B80308A1514278A1140
:1007000083120313B0016430B100B20BB92B70092E
:10071000B2000310B20C0310B20C0310B20C05307F
:10072000B2072E1C9B2BAF08031D9B2B51308A1543
:1007300012278A11B92B7B1EA62B51308A1514273C
:100740008A1101308A1512278A11B92B7B1CB12B13
:1007500051308A1514278A1140308A1512278A11C0
:10076000B92B51308A1514278A1110308A15122797
:100770008A1183160313D801D901DA01DB01791D2F
:10078000FE2B8312AF080319D02B321CAF03831248
:100790000313AF08031DFE2B70080317A700FE2BE1
:1007A0000A308312031727020318DA2B8316031368
:1007B000A301E12B0A3083120317270283160313C8
:1007C000A3004B3070020318E92BFF308312031390
:1007D000AF0083160313230870020318F22BFF30B7
:1007E0008312AF000A308312031727077002031C1D
:1007F000FE2B0319FE2BFF300313AF00FA08031979
:10080000032CFA03092C8A1515208A118A15E12375
:100810008A1183120317100883160313A000831292
:100820000317110883160313A1008312031712087C
:1008300083160313A2004E263A248A15DF268A1156
:10084000FA08031DC62A0D308A150A16E9238A11F3
:100850000A120A308A150A16E9238A110A12C62AD0
:1008600080308A1514278A11322A0A163A220A126F
:100870006C0808000800831603139F178930831241
:100880009F008A1528268A11831603131E088312D7
:100890000317990703189A0A03131E0803179A07E8
:1008A000913003139F008A1528268A11831603139B
:1008B0001E08831203179B0703189C0A03131E08C4
:1008C00003179C07080083120317990A03199A0A51
:1008D0009B0A03199C0A03149A1F03109A0C990C83
:1008E00003149C1F03109C0C9B0CFA080319EB2C9F
:1008F0001A089807190897070318980A1C089607FA
:100900001B0895070318960A7A0B4D2E0830970797
:100910000318980A083095070318960A791BC22C09
:10092000180883160313A6003F088312031717073E
:1009300083160313A5000318A60ABF1BA6032508E8
:1009400083120317970083160313260883120317D5
:100950009800160883160313A60040088312031795
:10096000150783160313A5000318A60AC01BA603C8
:100970002508831203179500831603132608831294
:1009800003179600831203171708A8001808A90078
:1009900004300313E200031083120317A90CA80C00
:1009A0000313E20BCB2C03171508AA001608AB00A3
:1009B00004300313E200031083120317AB0CAA0CDC
:1009C0000313E20BDB2C03179701980195019601A5
:1009D0009D019E014D2E8312031729089A022808B3
:1009E0009902031C9A032B089C022A089B02031CF1
:1009F0009C0383160313371C4B2D831203171C080B
:100A00001A0783160313A600831203171B0819077E
:100A100083160313A5000318A60A831203171A08E6
:100A20009C0219089B02031C9C03031083160313EA
:100A3000250D83120317990083160313260D8312C5
:100A400003179A0019080313EC0003171A0803137D
:100A5000ED000330EE003524831203136C080317F6
:100A6000990003136D0803179A0003109B0D9C0D4A
:100A70001B080313EC0003171C080313ED000330DD
:100A8000EE003524831203136C0803179B00031335
:100A90006D0803179C00831203171A088A150A169B
:100AA0002B248A110A128312031719088A150A16B1
:100AB0002B248A110A123B308A150A16E9238A115F
:100AC0000A12831203171C088A150A162B248A118E
:100AD0000A12831203171B088A150A162B248A117F
:100AE0000A123B308A150A16E9238A110A12831268
:100AF0000317190883160313A500831203171A0896
:100B000083160313A60002308312031799070318F4
:100B10009A0A03149A1F03109A0C990C03149A1F33
:100B200003109A0C990C19089000831603132608D9
:100B3000831203179A0083160313250A83120317DF
:100B4000990003199A0A03149A1F03109A0C990C1E
:100B50008A157B228A11831203171B08831603133D
:100B6000A500831203171C0883160313A600023086
:100B7000831203179B0703189C0A03149C1F03107E
:100B80009C0C9B0C03149C1F03109C0C9B0C1B08BF
:100B90009100831603132608831203179C00831603
:100BA0000313250A831203179B0003199C0A0314DD
:100BB0009C1F03109C0C9B0C8A15CC228A11831657
:100BC00003139F13A13083129F008A1528268A11D0
:100BD000831203131E08031792002C082D04031D13
:100BE000F62D1208AC00AD01AC1BAD038312031748
:100BF0002C0892028A151D238A11831203171208EA
:100C00008A150A162B248A110A123B308A150A16F5
:100C1000E9238A110A128312031718088A150A1683
:100C20002B248A110A128312031717088A150A1631
:100C30002B248A110A123B308A150A16E9238A11DD
:100C40000A128312031716088A150A162B248A1112
:100C50000A128312031715088A150A162B248A1103
:100C60000A123B308A150A16E9238A110A128312E6
:100C7000031714088A150A162B248A110A128312E4
:100C8000031713088A150A162B248A110A123B30FF
:100C90008A150A16E9238A110A120800FA080319AC
:100CA000572E83160313D801D901DA01DB01831211
:100CB0000313AE1D612E77308316D8070318D90AA7
:100CC000672E760883160313D8070318D90A750808
:100CD00083160313DA070318DB0AD91B7B2E590886
:100CE000031D762EF1305802031C7B2EF030831644
:100CF0000313C8008F2E83160313D91B862E5908A1
:100D0000031D8B2E0630580203188B2E06308316D7
:100D10000313C8008F2E831603135808C8008316C8
:100D20000313DB1B9F2E5B08031D9A2EF1305A0222
:100D3000031C9F2EF03083160313C900B32E8316B5
:100D40000313DB1BAA2E5B08031DAF2E06305A02CD
:100D50000318AF2E063083160313C900B32E831673
:080D600003135A08C900080042
:101000008A110A16D0218A150A123F0808008A118F
:101010000A16F9218A150A123F0808008A110A16D1
:1010200062228A150A126C08080083160313371906
:101030001B28B71E1D282E30142783160313D80132
:10104000D901DA01DB01791F2B288A110A16032046
:101050008A150A1237283B300A16E9230A123B3058
:101060000A16E9230A123B300A16E9230A128312F0
:1010700003171008003C83160313D200D301D21BC0
:10108000D3032008D2070318D30AA01BD3035208A6
:101090008312EC00831653088312ED0083162A088E
:1010A0008312EE00EF01EE1BEF0307208312031300
:1010B0003F088316D200831240088316D3008312A0
:1010C000031710080313EC00831628088312EE00A0
:1010D00000208312031340088316D30783123F08AE
:1010E0008316D2070318D30A0830D2070318D30A8D
:1010F00004308312C600031483160313D31F031096
:10110000D30CD20C8312C60B7B2883165908D30745
:101110005808D2070318D30AB71EA428FC1B952829
:10112000FC080319952808301227FC1F9928043061
:101130001227831203172F08031DA228F1302E0255
:10114000031CA4282030122783160313371DBA2846
:1011500083120317981BB12898080319B12804308B
:10116000122783120317981FBA28180A0319BA28DE
:1011700008301227FA08031DE12883120317170805
:101180000313EC00031718080313ED008316290856
:101190008312EE00EF01EE1BEF030720831203130F
:1011A0003F088316D800831240088316D900803088
:1011B000D8070318D90A5908D2070318D30AD91B2C
:1011C000D303710883160313D202031CD303F11B4C
:1011D000D30A831203171108003C83160313D400AB
:1011E000D501D41BD5032108D4070318D50AA11BA8
:1011F000D50354088312EC00831655088312ED00C2
:1012000083162F088312EE00EF01EE1BEF03072079
:10121000831203133F088316D400831240088316F9
:10122000D5008312031711080313EC0083162D0851
:101230008312EE0000208312031340088316D507A3
:1012400083123F088316D4070318D50A0830D40741
:101250000318D50A04308312C6000314831603133F
:10126000D51F0310D50CD40C8312C60B2D29831661
:101270005B08D5075A08D4070318D50A371D522929
:1012800083120317961B4929960803194929203010
:10129000122783120317961F5229160A031952297F
:1012A00002301227FA08031D792983120317150843
:1012B0000313EC00031716080313ED0083162E0822
:1012C0008312EE00EF01EE1BEF03072083120313DE
:1012D0003F088316DA00831240088316DB00803053
:1012E000DA070318DB0A5B08D4070318D50ADB1BEF
:1012F000D503720883160313D402031CD503F21B13
:10130000D50A8312031713080313EC0003171408FC
:101310000313ED00831633088312EE00EF01EE1B7A
:10132000EF030720831203133F088316D6008312AE
:1013300040088316D7008030D6070318D70A57080D
:10134000D600D701D61BD703831203171208003C1F
:1013500083160313DC00DD01DC1BDD032208DC0740
:101360000318DD0AA21BDD035C088312EC00831660
:101370005D088312ED00831634088312EE00EF013E
:10138000EE1BEF030720831203133F088316DC00D4
:10139000831240088316DD0083120317120803131B
:1013A000EC00831632088312EE0000208312031330
:1013B00040088316DD0783123F088316DC070318F5
:1013C000DD0A0830DC070318DD0A04308312C6008A
:1013D000031483160313DD1F0310DD0CDC0C8312D2
:1013E000C60BE82983165D08D7075C08D6070318E3
:1013F000D70A3508003CA3000301A31BFF305702A6
:1014000003190A2A570823060318803A803903195A
:10141000102A172A83160313230856020318172AC3
:10142000831603132308D600D701D61BD703030165
:1014300083160313B51BFF3057020319272A5708D9
:1014400035060318803A80390319342A2D2A831669
:101450000313560835020318342A8316031335087C
:10146000D600D701D61BD703FA08031D742A8316AA
:101470000313BA080319742AC1080319742A8312C2
:10148000031717080313EC00031718080313ED00E4
:1014900083163A088312EE00EF01EE1BEF030E20D5
:1014A000831203136C088316D80083126D08831609
:1014B000D9008312031715080313EC00031716084D
:1014C0000313ED00831641088312EE00EF01EE1BBB
:1014D000EF030E20831203136C088316DA008312C5
:1014E0006D088316DB007A2A83160313D801D9010D
:1014F000DA01DB010800831203171A08980719089C
:1015000097070318980AFA08031DCB2A83160313BA
:101510002C08003CA3002C0883120317180218089B
:10152000831603132C060318803A803903199E2A68
:101530002C088312031798009701B22A831603130D
:1015400023088312031718021808831603132306AF
:101550000318803A8039031DB22A23088312031727
:1015600098009701831203171D0897070318980A1C
:101570009D1B9803981BC42A170818040319C42A32
:101580009703170A0319980383120317981FCB2A8E
:10159000970A0319980A0800831203171C08960774
:1015A0001B0895070318960AFA08031D1C2B8316BF
:1015B00003133108003CA3003108831203171602FD
:1015C00016088316031331060318803A803903196D
:1015D000EF2A31088312031796009501032B831617
:1015E0000313230883120317160216088316031326
:1015F00023060318803A8039031D032B2308831226
:10160000031796009501831203171E089507031808
:10161000960A9E1B9603961B152B15081604031994
:10162000152B9503150A0319960383120317961FAA
:101630001C2B950A0319960A0800730883120317D6
:101640009207F91F672B0A30260783160313A3009E
:1016500073082302730823060318803A8039031D98
:10166000372BFF3083120317AE00AF01672B0A3010
:1016700083120317260283160313A30023087302A1
:10168000730823060318803A8039031D4D2BFF3061
:1016900083120317AE00AF01672BFC1B582B1F30C2
:1016A0007C02031C582B1E30831203179202672BF7
:1016B000FC1F632BE2307C020318632B1E30831265
:1016C00003179207672B7C08831203179202831279
:1016D0000317120893070318940A921B94038316A6
:1016E00003133608003CA3003608831203171402C4
:1016F00014088316031336060318803A8039031939
:10170000862B360883120317940093018316031364
:1017100023088312031714021408831603132306E5
:101720000318803A8039031D9A2B2308831203176C
:1017300094009301080083120313CA1BAB2B4A08C1
:10174000031DA62BF1304902031CAB2BF030831292
:101750000313CB00F034030183160313BE1BFF30C9
:1017600083124A020319BD2B4A0883163E0603184A
:10177000803A80390319C42BCB2B831603133E0800
:10178000831249020318CB2B831603133E088312DE
:10179000CB004B08080083120313CA1BD62B4A0840
:1017A000031DDB2B063049020318DB2B06308312A6
:1017B0000313CB000634831203134908CB004B08F4
:1017C0000800700883120313C8008316371C272CE7
:1017D0005508CB008312480883165407CA00031823
:1017E000CB0A5308CB025208CA02031CCB0355098B
:1017F000CD00CD0A5408831248028316CC00031C86
:10180000CD035308CD075208CC070318CD0A55095C
:10181000CF00CF0A5408831248028316CE00031C5F
:10182000CF035308CF025208CE02031CCF03550842
:10183000D1008312480883165407D0000318D10A38
:101840005308D1075208D0070318D10A4F2C83162A
:1018500003135309CB00CB0A5208831248028316A4
:10186000CA00031CCB035308CD008312480883161B
:101870005207CC000318CD0A5509CF00CF0A5408EF
:10188000831248028316CE00031CCF035508D100F3
:101890008312480883165407D0000318D10A831610
:1018A00003135708CF075608CE070318CF0A570867
:1018B000D1075608D0070318D10A5708CB0256089B
:1018C000CA02031CCB035708CD025608CC02031CE6
:1018D000CD035F08CF075E08CE070318CF0A5F0865
:1018E000D1075E08D0070318D10A5F08CB075E084E
:1018F000CA070318CB0A5F08CD075E08CC07031898
:10190000CD0A2708CE070318CF0AA71BCF03270845
:10191000D0070318D10AA71BD1032708CA07031849
:10192000CB0AA71BCB032708CC070318CD0AA71B9C
:10193000CD038312480883163E020318A12D4F08D9
:1019400051020319AB2C4F0851060318803A803915
:101950000319B12CDE2C831603134E085002031812
:10196000DE2C030183160313BE1BFF305102031943
:10197000C12C51083E060318803A80390319C72C40
:10198000DE2C831603133E0850020318DE2C831648
:1019900003133E085002A3002308CE070318CF0A02
:1019A000A31BCF032308CA070318CB0AA31BCB032F
:1019B0002308CC070318CD0AA31BCD0383160313FA
:1019C00051084F020319EC2C51084F060318803AB6
:1019D00080390319F22C1F2D8316031350084E0271
:1019E00003181F2D030183160313BE1BFF304F0284
:1019F0000319022D4F083E060318803A8039031957
:101A0000082D1F2D831603133E084E0203181F2DA9
:101A1000831603133E084E02A3002308D0070318C1
:101A2000D10AA31BD1032308CA070318CB0AA31B9F
:101A3000CB032308CC070318CD0AA31BCD038316C1
:101A400003134B084D0203192D2D4B084D060318A7
:101A5000803A80390319332D602D831603134A0809
:101A60004C020318602D030183160313BE1BFF30C5
:101A70004D020319432D4D083E060318803A803964
:101A80000319492D602D831603133E084C020318D9
:101A9000602D831603133E084C02A3002308CA07D7
:101AA0000318CB0AA31BCB032308CE070318CF0AC6
:101AB000A31BCF032308D0070318D10AA31BD1030C
:101AC000831603134D084B0203196E2D4D084B0668
:101AD0000318803A80390319742DA12D831603133E
:101AE0004C084A020318A12D030183160313BE1BE1
:101AF000FF304B020319842D4B083E060318803A31
:101B0000803903198A2DA12D831603133E084A023A
:101B10000318A12D831603133E084A02A3002308CD
:101B2000CC070318CD0AA31BCD032308CE07031847
:101B3000CF0AA31BCF032308D0070318D10AA31B86
:101B4000D103831603134E088312C90083164F086E
:101B50008312CA009B23831203134B088316C4000D
:101B60004A088312C90083164B088312CA009B23BC
:101B7000831203134B088316C5004C088312C90057
:101B800083164D088312CA009B23831203134B084C
:101B90008316C60050088312C900831651088312A9
:101BA000CA009B23831203134B088316C700080047
:101BB00083120313E4008101E5010A308312031349
:101BC00065020318042E8316EE01831203136408C2
:101BD00083166E020318002E0A30003A0319F52D01
:101BE0000B1DF02D0B11FF3EED2D8A113A248A15A5
:101BF000831203138C1A080083160313EE0AE52DD3
:101C000083120313E50ADD2D080006308316031343
:101C1000C400C500C600C7007730C900C800F9106D
:101C2000A001A101A201D801D901DA01DB01DE0185
:101C3000DF01A7018312AC01AD01F80103179D017B
:101C40009E01930194019701980195019601080066
:101C50001E30003A03192E2EFF3E292E8312031345
:101C60001F15831203131F19312E08000230D825C7
:101C700083160313D801D901DA01DB01DC01DD0190
:101C8000EE0183160313EE1B492E10306E0203186B
:101C90009A2EA7308A110A1647218A150A12083986
:101CA0000319492EE8308A110A1647218A150A12AB
:101CB00083160313D2008A110A1656218A150A12B6
:101CC00083160313D3008A110A1656218A150A12A5
:101CD00083160313D6008A110A1656218A150A1292
:101CE00083160313D7008A110A1656218A150A1281
:101CF00083160313D4008A110A1656218A150A1274
:101D000083160313D5008312871683165308D90749
:101D10005208D8070318D90A5508DB075408DA0710
:101D20000318DB0A5708DD075608DC070318DD0A2D
:101D3000EE0A412E083083160313D8070318D90A78
:101D40000830DA070318DB0A0830DC070318DD0A5D
:101D500004308312E600031483160313D91F031003
:101D6000D90CD80C8312E60BAB2E0430E60003141A
:101D700083160313DB1F0310DB0CDA0C8312E60B54
:101D8000B72E0430E600031483160313DD1F03107F
:101D9000DD0CDC0C8312E60BC32E8316580883126D
:101DA00003179F00831603135A0883120317A0001A
:101DB000831603135C0883120317A100080083161F
:101DC00003139F13813083129F0028260310831270
:101DD00003131E0CE80008007B0883160313EE00B3
:101DE0008312871683160712831287110830003A70
:101DF00003190D2F83160313EE1F012F83120716ED
:101E0000042F831203130712031083160313EE0D1E
:101E1000831287158711FF3EF72E83120313871451
:0E1E200087100800FB04EC2EFF3AFB05EC2EA9
:10200000F9213F080800A7304721E830472183160F
:102010000313D800562183160313D90056218316C3
:102020000313DC00562183160313DD0056218316AB
:102030000313DA00562183160313DB00831287167D
:10204000FA08031D5228831659088A152B248A1171
:102050008316031358088A152B248A113B308A15DE
:10206000E9238A11831603135B088A152B248A112E
:10207000831603135A088A152B248A113B308A15BC
:10208000E9238A11831603135D088A152B248A110C
:10209000831603135C088A152B248A113B308A159A
:1020A000E9238A11831603133F08D802031CD903BE
:1020B000BF1BD90A4008DA02031CDB03C01BDB0A82
:1020C0003D08DC02031CDD03BD1BDD0A0430DD021C
:1020D0008312031717080313EC00031718080313E0
:1020E000ED000B30EE00EF010020831203133F08D8
:1020F0008316D600831240088316D7001030D60707
:102100000318D70A05308312A000031483160313A3
:10211000D71F0310D70CD60C8312A00B852883166B
:102120005708D9025608D802031CD9038312031793
:102130001A0883160313D907831203171908831685
:102140000313D8070318D90A831203171A08831632
:102150000313D90783120317190883160313D8072B
:102160000318D90A831203179D0183160313D91B81
:10217000C4285908031DC0280B305802031CC4286A
:102180000130831203179D0083160313D91BCF2838
:102190005908031DD3280A3058020318D328FF30EA
:1021A000831203179D0083160313D801D9018312EC
:1021B000031715080313EC00031716080313ED00AB
:1021C0000B30EE00EF010020831203133F0883164B
:1021D000D600831240088316D7001030D6070318A4
:1021E000D70A05308312A000031483160313D71FE8
:1021F0000310D70CD60C8312A00BF42883165708B3
:10220000DB025608DA02031CDB03831203179E016C
:1022100083160313DB1B17295B08031D13290B30DF
:102220005A02031C17290130831203179E008316DC
:102230000313DB1B22295B08031D26290A305A02DF
:1022400003182629FF30831203179E0083160313F9
:10225000DA01DB01080083160313071283128711CA
:1022600087120830003A0319462983120313871195
:10227000BD1F3C2907163F298312031307120310C1
:1022800083120313BD0D8715FF3E32290800831208
:102290000313BD00BC0007162B218316031307167A
:1022A0005621831203133C1F871608000830003A9A
:1022B000031966298312031387110310BD0D071A32
:1022C0003D14831203138715FF3E5729831203130E
:1022D0003D08080083120313BD002B218312031352
:1022E000BC010830831203133C02031886298711AE
:1022F000BE1F7C2907167F298312031307120310C0
:1023000083120313BE0D8715BC0A712983120313B0
:1023100087168316071608008312031387164A30A0
:10232000BE0021306A218F3047213A3A031DC0296F
:10233000C73083120313BE0020306A2183120313B7
:10234000BE0122306A21483083120313BE003030B0
:102350006A2183120313BE0134306A21FC308312D8
:102360000313BE0035306A21FF3083120313BE0011
:1023700036306A2183120313BE0138306A2179177F
:102380000800083083120313C400BF01C0016C08A9
:10239000EE0C0318C007C00CBF0CC40BC829080002
:1023A000083083120313C4006E08C300BF01C001CC
:1023B0006C08C30C0318C007C00CBF0CC40BD92990
:1023C0006E08EC1BC0026C08EE1BC0020800103047
:1023D00083120313C4000310BF0DC00DEC0DED0DEF
:1023E000031CF6296E08BF070318C00AC40BEB29AB
:1023F0000800103083120313C4000310BF0DC00D7A
:10240000EC0DED0D031C0A2A6F08C0076E08BF070C
:102410000318C00AC40BFD29080083120313C1016D
:102420001130C4001B2AC10DC30D6E0841024318B0
:1024300003140318C100EC0DED0DC40B132A0800A2
:1024400083120313C101C2011130C400352AC10D2A
:10245000C20D6E0841026F08031C6F0F4202031C7D
:10246000352AC2006E08C1020314EC0DED0DC40B39
:10247000272A080083120313C1011130C4006E081B
:102480006D06C300ED1F512AED09EC09EC0A031992
:10249000ED0AC408031D512A6C08BF006D08C00076
:1024A0000800EE1F5B2AEE09EE0A5B2AC10D6E08DA
:1024B00041020318C100EC0DED0DC40B562AC31BDD
:1024C000442A080083120313C101C2011130C40061
:1024D0006F086D06C300ED1F7A2AED09EC09EC0ABE
:1024E0000319ED0AC408031D7A2A6C08BF006D08A1
:1024F000C0000800EF1F902AEF09EE09EE0A031949
:10250000EF0A902AC10DC20D6E0841026F08031C2C
:102510006F0F4202031C902AC2006E08C10203140E
:10252000EC0DED0DC40B822AC31B6D2A6C08BF0095
:102530006D08C000080083120313C5010830C400F1
:10254000EC0DC50DC30D6E084502431803140318A6
:10255000C500C40BA02A4508EC000800080083123F
:1025600003178D0178307402031CB82A20308D00C7
:10257000A83083120313CC00C430831203134C021F
:102580000318D22A831603178C130C148313831297
:1025900003134C08840003170C0880008D0A0313F2
:1025A000CC0ABC2A831603133908A400B81BDC2A02
:1025B000023038020318E12A023083160313B800F0
:1025C000EB2A83160313B81BEB2A15303802031CC1
:1025D000EB2A1430B8000800831203135B0C133E7F
:1025E00003178F0003135B0C5A0C0D3E03178D006D
:1025F00003188F0A831603178C170C1400000000B1
:10260000831203135A18082B03170C087F3908008C
:10261000831203170C0D0E0D08000D0555174117F9
:1026200056175017202B3317B11AED192014E31445
:1026300020193018371049376717A02B6F36E6334B
:1026400061376710CD3068396937E732F2060A2AF8
:10265000E8347310E9392023D2224510D327462AC3
:10266000D720D2222C10F332651047284C10EC34BE
:10267000E332EE39E5100D0580060A28F237E6341C
:10268000AD2AE637202B3317B11AED192039E53082
:10269000E43CAE068A2379396F1DA01978104122D7
:1026A0005829D31930180D0500276F10C131E332B6
:1026B000EC32F237ED32F432F2390D0500214D28BB
:1026C000301C3510C230F2370D0580294D223518E7
:1026D0003010C230F2370D0500276F10C230F237CC
:1026E0000D058021E8306E376536A0366F32651DE6
:1026F000202A68396F3A743665104334801980187F
:1027000000276F10C3376D38E139F3060A000D0555
:10271000C337ED366137E439BA060A262E172E265E
:10272000E9397410F030F230ED068A262E17AE2605
:102730006F3269337910F030F230ED068A292E17A6
:10274000AE29E8377710F332F43AF0060A272E174D
:102750002E27E53A74396136203B6136F532F306AF
:102760000A292E17AE29E8377710F232E332693B97
:102770006539A031E8306E376536F3060A212E1729
:10278000AE39F430723A2021EF37F416CC3761328B
:1027900065390D0580060A29E533E939F4327210EE
:1027A00000103D1080060A1F80060A286139E136B4
:1027B000653A65392036E9397410E6377210F3321C
:1027C000741023000D05D332EC32633A65322038A1
:1027D0006139E136653A6539A039653A3A108006C3
:1027E0000A27E53A7439613620296F366C1D0010CE
:1027F000503A63343A00A02CE13B3A000D05541DD9
:022800000000D6
:103000008A11C1218A153F0808008A11F9218A1501
:103010003F0808008A113A228A156C080800102817
:1030200011281228132814281528162817280800F4
:10303000013083120313CE000F20831686178312EC
:103040000313861B2528CE0F1F280F20831203137E
:103050004E08080083160313061718208312031363
:103060000613831606130F20831286138316861306
:103070000800831603130613831206131820831601
:10308000031306170F2883120313CD00FE01083027
:103090007E020318652883120313CD1F522883165E
:1030A00006175728831203130613831606131820D6
:1030B000003A03190134831203138613831686130F
:1030C00003108312CD0DFE0A47288316031306173B
:1030D0001820003A03190134FE0183120313061B62
:1030E000FE0A8613831686137E08080083120313D4
:1030F000CF00D00183160617FE0108307E020318A8
:1031000092281820003A0319003403108312031385
:10311000D00D061B501483120313861383168613D7
:10312000FE0A7D28831203134F08031D0617031997
:103130000613831606131820003A0319003483126D
:1031400003138613831686138312500808002A205F
:1031500042304320003A031D3928F9173928F91F56
:103160008F2903307705031D8F292A204330432000
:10317000003A0319BE283920FC0185290030762049
:1031800083120317B1000130762083120317B000B9
:1031900039208312031730080313EC00031731089A
:1031A0000313ED000F30EE000A20831203136C08A6
:1031B0000317B00003136D080317B1002F08031D98
:1031C000E528F1302E02031CED28FC0183120317C1
:1031D000AE032E0A0319AF038529831203172E08A5
:1031E000F03A031DFB28AF08031DFB283008AE0092
:1031F0003108AF00FC018312031731082F02B10020
:1032000030082E02B000031CB103B11F1329310F87
:103210000D298930300203181329F0308312031767
:10322000B0070318B10A83120317B11B2429310810
:10323000031D1E2979303002031C2429F03083122B
:103240000317B002031CB10383120317B11B342907
:103250003108031D2F2915303002031C3429143086
:1032600083120317B000B10183120317B11F442961
:10327000310F3E29EC30300203184429EC30831220
:103280000317B000FF30B1007C0883120317B200AF
:10329000B301B21BB30332080313EC000317330866
:1032A0000313ED000330EE00EF010520831203133A
:1032B0003F080317B200031340080317B300310897
:1032C000B3073008B2070318B30A0310B20DB30DE9
:1032D0000310B20DB30D32080313EC0003173308CB
:1032E0000313ED00831642088312EE00EF01EE1B7C
:1032F000EF030520831203133F080317B2000313E3
:1033000040080317B3003308FC00FA08031D942992
:10331000831203172E082B243B30E9239429FA0843
:10332000031D94293B30E92B08002A20EE3043206E
:10333000003A031DC429F6304320003A031DC42976
:103340002A20EF304320003A031DC42900307620A4
:1033500083160313A60039202A20EE304320003ABA
:10336000031DC429F7304320003A031DC4292A2035
:10337000EF304320003A031DC42900307620831625
:103380000313A500392001343920831203132E10B2
:10339000003483120313D2002A20EE304320003A77
:1033A000031DEA29F4304320003A031DEA29831261
:1033B000031352084320003A031DEA2939208312DF
:1033C0000313AE10520803172306031DE929031344
:1033D000AE140134392000342A20EE304320003A64
:1033E000031D3A2AD0304320003A031D3A2A2A20EE
:1033F000EF304320003A031D3A2A01307620831231
:103400000317A2003920831203172208553A031D1F
:103410000C2A2E30A300102A6E3083120317A3004B
:10342000831203172308C921003A03193A2A0130ED
:103430000A12D8250A16952183160313250883122C
:10344000A800831626088312A900F430C921003A87
:1034500003193A2A01300A12D8250A169521831633
:10346000031325088312A600831626088312A700DB
:103470002E140800831203132E103928F80A831221
:1034800003132E1C982B02307802031C492AAE1815
:10349000512A08307802031C982B83120313AE18AC
:1034A000982BF801952183120313D300AE1C752AC3
:1034B000AF080319642A831625088312A80083160F
:1034C00026088312A900722A83120313290883167F
:1034D00026028312AB002808831625028312AA0055
:1034E000031CAB03F430C921982B83120313AF08DC
:1034F0000319852A831625088312A6008316260839
:103500008312A700AC01AD01942B8312031327088B
:103510008316A602831226088316A502031CA6039F
:1035200083122A08EC002B08ED0083162B08831267
:10353000EE00EF01EE1BEF030520831203133F089B
:10354000A2004008A3001030A2070318A30A220813
:10355000EC002308ED002030EE000A208312031354
:103560006C08A2006D08A30023088316A607831227
:1035700022088316A5070318A60A25088312A200AD
:10358000831626088312A3002C088316A500831235
:103590002D088316A60083122C08EC002D08ED00E0
:1035A0000330EE00EF010520831203133F08AC0047
:1035B0004008AD002308AD072208AC070318AD0A88
:1035C0000230AC070318AD0A0314AD1F0310AD0C95
:1035D000AC0C0314AD1F0310AD0CAC0C8316260805
:1035E00083122D02A3008316250883122C02A20049
:1035F000031CA303AD1B082B2D08031D032B09304F
:103600002C02031C082B083083120313AC00AD01FD
:1036100083120313AD1F182B2D0F122BFD302C021C
:103620000318182BFD3083120313AC00FF30AD00DC
:10363000831203132C08EC00831630088312EE006B
:103640000020831203133F088316A50027082502D4
:10365000270825060318803A8039031D312BA7035C
:103660003C2B831603132508270227082506031879
:10367000803A80390319A70A831603132708250205
:10368000270825060318803A8039031D492BA70314
:10369000542B831603132508270227082506031831
:1036A000803A80390319A70A83120313A31B642BE2
:1036B0002308031D5F2B09302202031C642B0830F2
:1036C00083120313A200722B83120313A31F722B06
:1036D000230F6E2BF83022020318722BF83083125E
:1036E0000313A200831203132208EC00831643087D
:1036F0008312EE000020831203133F088316A500F7
:103700002508A707A71B8A2B10302702031C8A2B2A
:103710000F30A70083160313A71F942BFB3027023B
:103720000318942BFB30A700831203172308C92129
:10373000FA08031DB32B831203132E1CAF2B831621
:1037400027082B243B30E923831203132D082B2455
:10375000831203132C082B243B30E923B32B3B307B
:10376000E9233B30E92B08008A11C1218A153F0863
:103770000800EE008A110D228A156C080800EE0080
:103780008A119B228A156C080800831203135808BB
:10379000DA005908DB008A11EC228A15003A031975
:1037A000E12B831203135808DA005908DB008A1151
:1037B000EC228A15E92383120313D80A0319D90AC4
:1037C000C52B08008B3083120313D8000130D900B9
:1037D000C52B831203130C1EE92B831203139900CC
:1037E000080083120313D5005508EC00ED01643086
:1037F000B923831203136C08303EE92383120313A9
:103800005508EC006430BF2383120313D50055081C
:10381000EC00ED010A30B923831203136C08303E2B
:10382000E923831203135508EC000A30BF238312E7
:103830000313D50030305507E92B303E83120313B4
:10384000D5003A305502031C272C0730D5078312C8
:1038500003135508E92B83120313D700570E0F39B2
:103860001D240F308312031357051D2C83120313DD
:10387000D500D51F422C2D30E92383120313D5091F
:10388000D50A442C2B30E923831203135508F12B5E
:10389000831203138C1E5A2C9818502C181D562C6A
:1038A00083120313181218161A085A2C83120313C2
:1038B0001A08E92B003483120313D501482483121C
:1038C0000313D60030305602031C5E2C3A305602E9
:1038D00003185E2C30305602D5005508EC000A3033
:1038E000EE00B423831203133F08D500482483124B
:1038F0000313D60030305602031C762C3A305602A1
:103900000318762C30305602D5075508080083126C
:103910000313D5017912482483120313D6003030E3
:103920005602031C972C3A305602031C9D2C83121E
:10393000031356082D3A031D8B2C831203135608CC
:103940002D3A031DB02C7916482483120313D60098
:1039500030305602031CA42C3A3056020318A42C13
:103960003030831203135602D5005508EC000A309C
:10397000EE00B423831203133F08D50048248312BA
:103980000313D60030305602031CBE2C3A305602C8
:103990000318BE2C30305602D507791ED12CD5091C
:1039A000D50A8312031355080800003A0319DF2CC7
:1039B00083120313D801D901C5230630F4005F3008
:1039C00083120313D800D901C523791FEE2C92303E
:1039D00083120313D800D901C523F42C8F3083122E
:1039E0000313D800D901C523F91FFD2CEA30831237
:1039F0000313D800D901C523032DE7308312031325
:103A0000D800D901C523831203132E1C192D0317C7
:103A10002208553A031D122DA3300313D800D901F3
:103A2000C5231F2DB13083120313D800D901C5233C
:103A30001F2DBF3083120313D800D901C5238A116B
:103A4000AF228A15C93083120313D800D901C523C8
:103A500083160313B71C322DE3308312D800D9012B
:103A6000C523382DE53083120313D800D901C523AF
:103A7000AA3083120313D8000130D900C52378304F
:103A80007402031C462D3230E923E22B3130E92346
:103A9000E22B831603178C130C158B1355308D00F6
:103AA000AA308D008C148B17831603178C18542D95
:103AB000831603170C110800482483120313DD003A
:103AC0005D1BDD12831203135D080319852E4C3A2A
:103AD0000319802D013A0319BD2D1E3A0319012E39
:103AE0001D3A0319042E1C3A03192B2E103A031900
:103AF000662E163A03196E2E6B3A03197E2E852E0A
:103B00008F3083120313D8000130D900C5237830D9
:103B10007402031C8E2D3230E923902D3130E923BD
:103B20008A11AF228A15013083120313DD00A830F9
:103B3000DC00C430831203135C020318BB2D7B30FE
:103B4000D8000130D900C523831203135D08F12387
:103B5000873083120313D8000130D900C5238313A3
:103B6000831203135C0884000008362483120313B5
:103B7000DD0ADC0A992DE223852E02300A12122773
:103B80000A167B3083120313D8000130D900C523F5
:103B90005B2483120313DD00DD038730D80001307E
:103BA000D900C523872483120313D50855080317AA
:103BB0008C0078307402031CE02D20300313DD07E5
:103BC000831203135D0803178D0049258312031325
:103BD0005D080F3A031DFB2D1230D5052030031769
:103BE0008D0783160C14ED3083128C0503135508D2
:103BF00003178C04492502300A1214270A16E223FF
:103C0000852E0030D524852EC53083120313D800AD
:103C10000130D900C523831203171F083624D5307D
:103C200083120313D8000130D900C5238312031770
:103C300020083624DC3083120313D8000130D90069
:103C4000C523043083160313DD02831203172108F2
:103C50003624E223852EE23083120313D80001308C
:103C6000D900C5237008F1232C30E9235230E92311
:103C70003A30E923710836242C30E9234E30E92309
:103C80003A30E923720836242C30E9235930E923ED
:103C90003A30E923730836242C30E9233530E92300
:103CA0003A30E9237408F1232C30E9233630E92334
:103CB0003A30E9237508F1232C30E9233730E92322
:103CC0003A30E9237608F123E223852E1F308A005B
:103CD000002F8A110A1200278A150A160A30831249
:103CE00003179000143091001E300313A4002830F5
:103CF000A5008A11AE228A15E223852EF4308312A4
:0C3D00000313D800D901C523E22B0800F2
:103E000083168B13A4308700860119309900243063
:103E100098008301903098000030AE27F0018301B4
:103E2000A03084008C1E122F1A089818482F1819D9
:103E3000482F80003A3C03192C2F000E0F39FD3E0D
:103E400003192C2FFF3E03192C2F0A3000020319EF
:103E50002E2FFD3E031D482F840A122FA030840010
:103E600000083A3C031D482F840AFB01A627FA00EC
:103E70000310FA0C203C031C482FA627F300A627AA
:103E8000F200A627003E03194D2FFF3E03197E2F97
:103E900018120930AE2718160F2F83010317730C61
:103EA0008F00720C8D003E30730203187B2FA62703
:103EB0008C00A6278E008F08031D742F8D08031D0C
:103EC000742FF4000C08F50070141F308C00303093
:103ED00090278E018A308C00912700308C002F3083
:103EE000902702308D02752F9127FA0B572FA627A6
:103EF0007B080D3003191230AE270F2FAD27701C31
:103F00008D2F03178D018F0175088C007408902781
:103F1000FF308C003F30902791271530AE278F2F30
:103F20008E0083168C170C1555308D00AA308D002D
:103F30008C140000000083128D0A03198F0A0800F8
:103F400030300002001BF93E840A0800A027F1006F
:103F5000F10EA0277104FB07080012308301F10065
:103F60007108C027003E031DB92F0D30BC270A3051
:103F7000BC2FBC27F10AB02F0C1EBC2F99000800E3
:103F8000820742346F346F347434203431342E3429
:103F900031340034453452345234003443345334D1
:103FA00055344D3400344F344B340034533455348D
:0E3FB000433443344534533453342134003405
:044000000034003454
:02400E00723FFF
:00000001FF
