:020000040000FA
:0600000003EF2CF01200DA
:020006001200E6
:0600080022EF21F01200BE
:02000E00C250DE
:08001000020B01E0010E1200D9
:0600180018EF21F01200B8
:02001E000600DA
:10002000C05A0000C603000022000000C2590000B0
:1000300000010000FE000000CF5800000002000098
:10004000F3000000B3580000210400001C00000071
:10005000A5580000560400000E000000945800004F
:08006000ED000000110000009A
:0800680030C400F0016A00BE83
:100070000168D89001320032D89001320032010E6E
:100080000016000E011600504BE02E0EE66E26EC18
:1000900015F0E55200018935000E891907E6D88070
:1000A000FF0E8755000E8855000E895506E2040E96
:1000B000E66E18EC15F0E55210D0D8808951FF0A91
:1000C00006E6000E875DFF0E8859FF0E895905E28E
:1000D000080EE66E18EC15F0E55200018C35000EA6
:1000E0008C1907E6D880FF0E8A55000E8B55000E3E
:1000F0008C5506E2200EE66E18EC15F0E55210D095
:10010000D8808C51FF0A06E6000E8A5DFF0E8B59DF
:10011000FF0E8C5905E2020EE66E18EC15F0E55262
:100120001200010EE66E020EE66E7BEC2AF0E5523E
:10013000E55200D01200010EE66EE66E7BEC2AF06E
:10014000E552E552F3CF02F0F4CF03F01D681E68CC
:1001500002C022F003C023F0C7EC28F01BC000F05F
:100160001CC001F000C0F3FF01C0F4FF00D012007A
:10017000E66A040EE66E7BEC2AF0E552E55200D00A
:100180001200D9CFE6FFE1CFD9FF020EE126000130
:100190008D6B8E6B8F6B8DC08AF08EC08BF08FC095
:1001A0008CF08DC087F08EC088F08FC089F0DE6A39
:1001B000010EDD6ED9CFE9FFDACFEAFFEE50ED1088
:1001C00032E0AFDFF3CF00F0F4CF01F0026A01BEFE
:1001D00002680050000187270150882302508923BC
:1001E000AADFF3CF00F0F4CF01F0026A01BE02688B
:1001F000005000018A2701508B2302508C23B8DF66
:10020000F3CF00F0F4CF01F0026A01BE02680050A3
:1002100000018D2701508E2302508F23DF06010E2F
:1002200001E2DB06C7D70301A751006E016A005047
:1002300001101DE138C400F0016A00BE0168026AC5
:1002400001BE026800500001872701508823025038
:10025000892339C400F0016A00BE0168026A01BE48
:10026000026800508A2701508B2302508C23080E0D
:10027000E66E87C000F088C001F089C002F0800EF1
:100280000026000E0122022200C0E6FF01C0E6FFA8
:1002900002C0E6FF03EC11F0E552E552E552E552EB
:1002A0001CC09CF01DC09DF0080EE66E8AC000F0D8
:1002B0008BC001F08CC002F0800E0026000E0122DF
:1002C000022200C0E6FF01C0E6FF02C0E6FF03EC29
:1002D00011F0E552E552E552E5521CC09EF01DC0FA
:1002E0009FF0080EE66E8DC000F08EC001F08FC04A
:1002F00002F0800E0026000E0122022200C0E6FF5E
:1003000001C0E6FF02C0E6FF03EC11F0E552E55242
:10031000E552E5521CC0A0F01DC0A1F09CC090F0B9
:100320009DC091F09EC092F09FC093F0A0C094F049
:10033000A1C095F000018D6B8E6B8F6B8DC08AF024
:100340008EC08BF08FC08CF08DC087F08EC088F08F
:100350008FC089F0000ED36FD46BD16FD26BCF6F8B
:10036000D06BC96FCA6BC76FC86B020EE15C02E24B
:10037000E16AE552E16EE552E7CFD9FF1200D9CF2D
:10038000E6FFE1CFD9FF0B0EE126BDEC27F0080E0A
:10039000DB6A090EDB6A0A0EDB6A050EDB6A060EF3
:1003A000DB6A070EDB6A020EDB6A030EDB6A040EF1
:1003B000DB6A0301A751006E016A0050011061E081
:1003C000200EE66E18EC15F0E552DE6A010EDD6EC9
:1003D000D9CFE9FFDACFEAFFEE50ED104DE003ECA4
:1003E00028F0A6C000F0A7C001F0026A01BE0268B2
:1003F000D950020FE96EDACFEAFF0050EE26015025
:10040000EE220250EE221D681E68A8C022F0A9C08C
:1004100023F0C7EC28F01BC000F01CC001F0026AFA
:1004200001BE0268D950050FE96EDACFEAFF00502D
:10043000EE260150EE220250EE221D681E68AAC070
:1004400022F0ABC023F0C7EC28F01BC000F01CC0AA
:1004500001F0026A01BE0268D950080FE96EDACFD6
:10046000EAFF0050EE260150EE220250EE22DF0697
:10047000010E01E2DB06ACD7200EE66E26EC15F08D
:10048000E552080EE66E020EDBCF00F0030EDBCF66
:1004900001F0040EDBCF02F0800E0026000E0122D8
:1004A000022200C0E6FF01C0E6FF02C0E6FF03EC47
:1004B00011F0E552E552E552E5521CC0ACF01DC00A
:1004C000ADF0080EE66E050EDBCF00F0060EDBCFBA
:1004D00001F0070EDBCF02F0800E0026000E012295
:1004E000022200C0E6FF01C0E6FF02C0E6FF03EC07
:1004F00011F0E552E552E552E5521CC0B0F01DC0C6
:10050000B1F0080EE66EDBCF00F0090EDBCF01F094
:100510000A0EDBCF02F0800E0026000E012202221E
:1005200000C0E6FF01C0E6FF02C0E6FF03EC11F0E9
:10053000E552E552E552E5521CC0AEF01DC0AFF0E9
:100540000001A26BA36B0B0EE15C02E2E16AE552D3
:10055000E16EE552E7CFD9FF1200D9CFE6FFE1CF38
:10056000D9FF080EE12603EC28F00001AC51A65D8E
:10057000006EA751AD55016E00C0DEFF01C0DDFF6A
:100580001D681E68A8C022F0A9C023F0C7EC28F09F
:100590000001B0511B5C006EB1511C58016E040E7D
:1005A00000C0DBFF050E01C0DBFF1D681E68AAC08E
:1005B00022F0ABC023F0C7EC28F00001AE511B5C69
:1005C000006EAF511C58016E020E00C0DBFF030E1F
:1005D00001C0DBFF010EE66EDECF03F0DDCF04F0DD
:1005E000030E0402F3CF04F00302F3CF03F0F45040
:1005F0000426010E0326000E0422056A04BE0568C7
:1006000003C0E6FF04C0E6FF05C0E6FF03EC11F0FF
:10061000E552E552E552E5521CC000F01DC001F064
:100620001EC002F021682268236800C01CF001C0CF
:100630001DF002C01EF012EC29F019C000F01AC023
:1006400001F01BC002F000C0DEFF01C0DDFFD9CF0A
:10065000E9FFDACFEAFF00018751EE5E8851ED5ADB
:10066000D9CFE9FFDACFEAFF9651EE269751ED2276
:10067000DECF00F0DDCF01F0013404E200500A08C3
:10068000000E015406E2040E8727000E88238923FA
:1006900011D0DECF00F0DDCF01F0D880015004E7AB
:1006A000F60E005CFF0E015805E2040E875F000E97
:1006B000885B895B800E891505E0872B000E8823F7
:1006C000892314D08935000E891907E6D880000ED9
:1006D0008755000E8855000E895505E28707000EE4
:1006E000885B895B03D0876B886B896B010EE66E34
:1006F000020EDBCF00F0030EDBCF01F00102F3CFDF
:1007000001F00002F3CF00F0F4500126010E0026A4
:10071000000E012200C0E6FF01C0E6FF79EC11F0F7
:10072000E552E552E552020EF3CFDBFF030EF4CFA4
:10073000DBFFD950020FE96EDACFEAFF00018A51E0
:10074000EE5E8B51ED5A020EDBCF00F0030EDBCFD5
:1007500001F0013404E200500A08000E015406E2E0
:10076000040E8A27000E8B238C2313D0020EDBCFBE
:1007700000F0030EDBCF01F0D880015004E7F60E45
:10078000005CFF0E015805E2040E8A5F000E8B5BD1
:100790008C5B800E8C1505E08A2B000E8B238C233E
:1007A00014D08C35000E8C1907E6D880000E8A55BF
:1007B000000E8B55000E8C5505E28A07000E8B5BF0
:1007C0008C5B03D08A6B8B6B8C6B080EE15C02E256
:1007D000E16AE552E16EE552E7CFD9FF1200D9CFC9
:1007E000E6FFE1CFD9FF020EE126FD0EDBCF1DF0C3
:1007F000FE0EDBCF1EF00001EB511D5CBB6FEC5118
:100800001E58BC6FD880BC5104E7FD0EBB5DFF0EC7
:10081000BC5904E2FD0EBB6FBC690DD0BC3504E2CF
:10082000BB510808000EBC5504E2080EBB6FBC6B40
:1008300002D0BCC0BCF029C400F0016A00BE01684F
:100840000050BB03F3CFE9F0F4CFEAF0BC03F35060
:10085000EA270150BB03F350EA27C551BB25006EC0
:10086000C651BC21016ED880015004E7F00E005C37
:10087000FF0E015804E2F00EC56FC66917D0C551CE
:10088000BB25026EC651BC21036E033404E2025044
:100890001008000E035404E2100EC56FC66B06D09C
:1008A000C551BB25C56FC651BC21C66FC5C002F07E
:1008B000C6C003F0D89002360336D880035004E750
:1008C000FC0E025CFF0E035804E2FC0E006E016891
:1008D00019D0C5C004F0C6C005F0D890043605365E
:1008E000053404E204500408000E055404E2040E2A
:1008F000006E016A07D0C5C000F0C6C001F0D890F4
:10090000003601360050E9270150EA23CD51BB5D86
:10091000046EBC51CE55056E3CC406F0076A06BE97
:100920000768000106500402F3CF02F0F4CF03F091
:100930000502F350032607500402F3500326D88023
:10094000035004E7F80E025CFF0E035804E2F80EB1
:10095000006E01683FD00001CD51BB5D0A6EBC51F5
:10096000CE550B6E3CC40CF00D6A0CBE0D68000138
:100970000C500A02F3CF08F0F4CF09F00B02F35049
:1009800009260D500A02F3500926093404E20850E2
:100990000808000E095404E2080E006E016A1AD01D
:1009A0000001CD51BB5D0E6EBC51CE550F6E3CC4E7
:1009B00010F0116A10BE1168000110500E02F3CF42
:1009C00000F0F4CF01F00F02F350012611500E0297
:1009D000F350012600500001E9270150EA23030EDD
:1009E000EAAF02D0D89003D0E95D000EEA59D87082
:1009F000066A076A06360001800E071414E0E9C093
:100A000008F0EAC009F0086C091E000E0922D8900F
:100A1000095004E6030E085C000E0958D870046AF9
:100A2000056A04360DD0030E0001EAAF02D0D8905B
:100A300003D0E95D000EEA59D870046A056A0436ED
:100A40000450051008E00001EC3504E2EB510A08FF
:100A5000000EEC5502E3000E01D0010E026E036A97
:100A60000250031017E00301A3510C6E0D6A010E32
:100A70000C1801E10D5008E0A3510E6E0F6A0E50E4
:100A80000F1002E0000E01D0010E0A6E0B6A0A5030
:100A90000B1002E0000E01D0010E006E016A005042
:100AA000011023E0030EE66E070E1D6E1E6AD7C00E
:100AB00022F0D8C023F0C7EC28F01B500001D52548
:100AC000006E1C50D621016E040E0026000E01227D
:100AD00000C0E6FF01C0E6FF79EC11F0E552E552F7
:100AE000E552F3CFD7F0F4CFD8F00001D880EA5127
:100AF00004E7FB0EE95DFF0EEA5904E2FB0EE96F25
:100B0000EA690DD0EA3504E2E9510F08000EEA5512
:100B100004E20F0EE96FEA6B02D0EAC0EAF0BBC054
:100B2000CDF0BCC0CEF0020EE15C02E2E16AE5521B
:100B3000E16EE552E7CFD9FF1200D9CFE6FFE1CF52
:100B4000D9FF040EE1260301A851006E016A00508E
:100B5000011001E000D0040EE15C02E2E16AE5521E
:100B6000E16EE552E7CFD9FF1200D9CFE6FFE1CF22
:100B7000D9FF030EE126010EE66E91EC00F00001B4
:100B80009051F324006E9151F420016E010E002665
:100B9000000E012200C0E6FF01C0E6FF79EC11F073
:100BA000E552E552E552F3CF90F0F4CF91F0010E0B
:100BB000E66E9BEC00F000019251F324006E93511D
:100BC000F420016E010E0026000E012200C0E6FF97
:100BD00001C0E6FF79EC11F0E552E552E552F3CFA2
:100BE00092F0F4CF93F0010EE66EB8EC00F0000145
:100BF0009451F324006E9551F420016E010E0026ED
:100C0000000E012200C0E6FF01C0E6FF79EC11F002
:100C1000E552E552E552F3CF94F0F4CF95F00001A0
:100C20009C51905D966F9D519159976F9E51925D29
:100C3000986F9F519359996F30C400F0016A00BEBC
:100C40000168010E0016000E0116005052E0965188
:100C50009825006E97519921016E070E0102F3CF7E
:100C600001F00002F3CF00F0F4500126050E00263B
:100C7000000E01220A0E226E236A00C01DF001C080
:100C80001EF074EC28F01DC000F01EC001F0026AD6
:100C900001BE026800C0DFFF010E01C0DBFF020ED3
:100CA00002C0DBFF00019651985D986F97519959EA
:100CB000996F070E9903F3CF99F09803F3CF98F04B
:100CC000F4509927050E9827000E99230A0E226EDC
:100CD000236A98C01DF099C01EF074EC28F01DC066
:100CE00098F01EC099F0000EDFCF96F0010EDBCF1A
:100CF00097F096C000F097C001F0026A01BE02684A
:100D0000005000018727015088230250892325C401
:100D100000F0016A00BE016800C001F0006A006CCA
:100D2000011E000E0122026A01BE026889510218EA
:100D3000E8AE02D0023406D00050875D01508859D9
:100D40000250895910E225C487F0886B87BF8869F3
:100D500087C088F0876B876D881F000E8823896B9A
:100D600088BF896926D025C403F0046A03BE0468DD
:100D700003C004F0036A056A04BE056805508919BA
:100D8000E8AE02D0893506D08751035C88510458FB
:100D9000895105580CE225C487F0886B87BF8869A4
:100DA00087C088F0876B896B88BF896902D089C04A
:100DB00089F098C000F099C001F0026A01BE026893
:100DC00000508A2701508B2302508C232AC400F044
:100DD000016A00BE016800C001F0006A006C011EDB
:100DE000000E0122026A01BE02688C510218E8AEB0
:100DF00002D0023406D000508A5D01508B59025057
:100E00008C5910E22AC48AF08B6B8ABF8B698AC026
:100E10008BF08A6B8A6D8B1F000E8B238C6B8BBFC4
:100E20008C6926D02AC403F0046A03BE046803C098
:100E300004F0036A056A04BE056805508C19E8AE23
:100E400002D08C3506D08A51035C8B5104588C51EA
:100E500005580CE22AC48AF08B6B8ABF8B698AC062
:100E60008BF08A6B8C6B8BBF8C6902D08CC08CF042
:100E7000A051945D9A6FA15195599B6F020EE66E39
:100E8000016A9A25006E9B51012200C0E6FF01C055
:100E9000E6FF79EC11F0E552E552E552F3CFC1F0EF
:100EA000F4CFC2F0C1C003F0C2C004F0056A04BEB2
:100EB000056800018D510324006E8E510420016EDF
:100EC0008F510520026E2FC406F0076A06BE076820
:100ED00006C007F0066A066C071E000E0722086AA5
:100EE00007BE086802500818E8AE02D0083406D0E1
:100EF0000650005C075001580850025810E22FC4F9
:100F00008DF08E6B8DBF8E698DC08EF08D6B8D6D6B
:100F10008E1F000E8E238F6B8EBF8F6948D0C1C08D
:100F20000CF0C2C00DF00E6A0DBE0E688D510C247F
:100F3000096E8E510D200A6E8F510E200B6E2FC43C
:100F40000FF0106A0FBE10680FC010F00F6A116A20
:100F500010BE116811500B18E8AE02D00B3406D049
:100F600009500F5C0A5010580B5011580CE22FC456
:100F70008DF08E6B8DBF8E698DC08EF08D6B8F6BFB
:100F80008EBF8F6914D0C1C012F0C2C013F0146AB2
:100F900013BE14688D0EE96E000EEA6EEE50122438
:100FA0008D6FEE5013208E6FEE5014208F6F800ED9
:100FB0008F1505E08D2B000E8E238F2314D08F35D7
:100FC000000E8F1907E6D880000E8D55000E8E5545
:100FD000000E8F5505E28D07000E8E5B8F5B03D0F0
:100FE0008D6B8E6B8F6BADEC02F0030EE15C02E259
:100FF000E16AE552E16EE552E7CFD9FF120096C0F3
:10100000BDF097C0BEF0040EE66E21C405F0066A7E
:1010100005BE066800010550BD03F3CF03F0F4CF11
:1010200004F0BE03F3500001042606500001BD0386
:10103000F3500001042623C409F00A6A09BE0A68B5
:101040000001BD51CF5D076ED051BE55086E07C07F
:101050001DF008C01EF009C022F00AC023F0C7EC42
:1010600028F003501B24006E04501C20016E080E53
:101070000026000E0122026A01BE026800C0E6FFDF
:1010800001C0E6FF02C0E6FF03EC11F0E552E552B5
:10109000E552E5521CC0B2F01DC0B3F01EC0B4F062
:1010A000080EE66E22C403F0046A03BE0468056AF3
:1010B00004BE056887C01CF088C01DF089C01EF002
:1010C00003C021F004C022F005C023F012EC29F087
:1010D00019C000F01AC001F01BC002F0D890003611
:1010E00001360236800E0026000E0122022200C0C8
:1010F000E6FF01C0E6FF02C0E6FF03EC11F0E55297
:10110000E552E552E5521C500001B2271D50B323B1
:101110001E50B423DFC000F0E0C001F0026A01BE3F
:1011200002680050B25F0150B35B0250B45B98C0DC
:10113000BFF099C0C0F0040EE66E26C405F0066A42
:1011400005BE06680550BF03F3CF03F0F4CF04F0EB
:10115000C003F3500001042606500001BF03F35002
:101160000001042628C409F00A6A09BE0A680001C1
:10117000BF51D15D076ED251C055086E07C01DF03A
:1011800008C01EF009C022F00AC023F0C7EC28F006
:1011900003501B24006E04501C20016E080E002614
:1011A000000E0122026A01BE026800C0E6FF01C013
:1011B000E6FF02C0E6FF03EC11F0E552E552E5520E
:1011C000E5521CC0B5F01DC0B6F01EC0B7F0080E49
:1011D000E66E27C403F0046A03BE0468056A04BE11
:1011E00005688AC01CF08BC01DF08CC01EF003C0C7
:1011F00021F004C022F005C023F012EC29F019C040
:1012000000F01AC001F01BC002F0D8900036013681
:101210000236800E0026000E0122022200C0E6FFE8
:1012200001C0E6FF02C0E6FF03EC11F0E552E55213
:10123000E552E5521C500001B5271D50B6231E5043
:10124000B723DFC000F0E0C001F0026A01BE02680F
:101250000050B55F0150B65B0250B75BC16BC26B0B
:10126000040EE66E2BC409F00A6A09BE0A680B6A0E
:101270000ABE0B68C1C006F0C2C007F0086A07BE0C
:10128000086806C01CF007C01DF008C01EF009C0A9
:1012900021F00AC022F00BC023F012EC29F019C093
:1012A00003F01AC004F01BC005F02DC40FF0106A43
:1012B0000FBE1068116A10BE11680001C151D35DE4
:1012C0000C6ED451C2550D6E0E6A0DBE0E680CC068
:1012D0001CF00DC01DF00EC01EF00FC021F010C09C
:1012E00022F011C023F012EC29F003501924006EF3
:1012F00004501A20016E05501B20026E080E0026B5
:10130000000E0122022200C0E6FF01C0E6FF02C07B
:10131000E6FF03EC11F0E552E552E552E5521CC040
:10132000B8F01DC0B9F01EC0BAF0080EE66E2CC4AD
:1013300003F0046A03BE0468056A04BE05688DC034
:101340001CF08EC01DF08FC01EF003C021F004C041
:1013500022F005C023F012EC29F019C000F01AC0E9
:1013600001F01BC002F0800E0026000E01220222B6
:1013700000C0E6FF01C0E6FF02C0E6FF03EC11F08B
:10138000E552E552E552E5521C500001B8271D50C8
:10139000B9231E50BA232EC400F0016A00BE0168B2
:1013A000006C011E000E0122026A01BE0268BA51E1
:1013B0000218E8AE02D0023406D00050B85D0150E9
:1013C000B9590250BA590DE22EC4B8F0B96BB8BF82
:1013D000B969B86DB91F000EB923BA6BB9BFBA6944
:1013E00020D02EC403F0046A03BE0468056A04BE5C
:1013F00005680550BA19E8AE02D0BA3506D0B85122
:10140000035CB9510458BA51055809E22EC4B8F02A
:10141000B96BB8BFB969BA6BB9BFBA6902D0BAC003
:10142000BAF034EC00F0BDC0CFF0BEC0D0F0BFC009
:10143000D1F0C0C0D2F0C1C0D3F0C2C0D4F012000D
:10144000D9CFE6FFE1CFD9FF030EE126040EE66E09
:1014500018EC15F0E55200C400F001C401F002C41C
:1014600002F0D00E0026070E0122000E022200C05C
:10147000DFFF010E01C0DBFF020E02C0DBFFD9CF90
:10148000E9FFDACFEAFF04010051EE5C0151EE58AA
:101490000251EE5801E3F3D7800EE66E18EC15F01A
:1014A000E55245EC1CF0CFEC1EF0BFEC01F0C1ECB6
:1014B00000F0800EE66E26EC15F0E552040EE66EA6
:1014C00026EC15F0E552030EE15C02E2E16AE5521A
:1014D000E16EE552E7CFD9FF1200D9CFE6FFE1CFA9
:1014E000D9FF030EE1260301A56BD1EC20F014C354
:1014F000DFF015C3E0F00001770EDF5F000EE05B68
:1015000016C3E1F017C3E2F0770EE15F000EE25B75
:1015100018C3E7F019C3E8F0770EE75F000EE85B49
:1015200012C300F013C301F0026A01BE0268A50EE7
:10153000216E226A236A00C01CF001C01DF002C0A7
:101540001EF012EC29F019C000F01AC001F01BC007
:1015500002F0770E0026000E01220222EE0E216E0E
:10156000226A236A00C01CF001C01DF002C01EF0F8
:101570009AEC28F01CC000F01DC001F01EC002F063
:1015800000C0D5F001C0D6F00301B26B030EE15CE0
:1015900002E2E16AE552E16EE552E7CFD9FF1200BF
:1015A000B5EC05F02CDDB9EC1BF000EC1CF06DEC9B
:1015B0001CF0DDEC1FF016EF2CF0000E0001E76FC1
:1015C000E86BDD6FDE6BDB6FDC6BD56FD66B8F0E80
:1015D000D76FD86B000EA26FA36BA46FA56BE96FDA
:1015E000EA6BB86FB96BBA6BB9BFBA69B8C0B5F07E
:1015F000B9C0B6F0BAC0B7F0B8C0B2F0B9C0B3F075
:06160000BAC0B4F01200B4
:0A160600D9CFE6FFE1CFD9FFFD0EBA
:10161000DBCFE9FFFE0EDBCFEAFFEF50006E016A81
:10162000005001100EE0FD0EDBCFE9FFDB2AFE0EBD
:10163000DBCFEAFF01E3DB2AEF50E66E0ED8E5527E
:10164000E6D7E552E7CFD9FF1200970EE66E020EFD
:10165000E66ED9DFE552E5521200D9CFE6FFE1CFC1
:10166000D9FF9E50100B01E0010E006E016A005080
:10167000011001E1F6D7FE0EDB50AD6EE552E7CF6B
:10168000D9FF1200D9CFE6FFE1CFD9FFE652FE0E17
:10169000DB50006E016A640E226E236A00C01DF0EA
:1016A00001C01EF074EC28F01DC000F01EC001F057
:1016B0000050DF6EDFCF00F0300E0024E66ECDDF8D
:1016C000E552640E006E00C023F0FE0EDBCF1EF06C
:1016D0001FEC2CF0FE0E1AC0DBFFDB50006E016A1F
:1016E0000A0E226E236A00C01DF001C01EF074ECC9
:1016F00028F01DC000F01EC001F00050DF6EDFCFEB
:1017000000F0300E0024E66EA8DFE5520A0E006EEF
:1017100000C023F0FE0EDBCF1EF01FEC2CF0FE0EFF
:101720001AC0DBFFDBCF00F0300E0024E66E95DF41
:10173000E552E552E552E7CFD9FF1200D9CFE6FFD7
:10174000E1CFD9FFFE0EDBCF00F0016A00BE0168D9
:101750000001800E011412E02D0EE66E7EDFE552D0
:10176000FE0EDBCF00F0016A00BE0168006C011EB6
:10177000000E0122FE0E00C0DBFF04D02B0EE66E31
:101780006CDFE552FE0EDBCF00F0016A00BE01689F
:101790000050E66E77DFE552E552E7CFD9FF120041
:1017A000D9CFE6FFE1CFD9FFFE0EDB50006E016A14
:1017B000013404E200500908000E01540BE2370E18
:1017C000006EFE0EDBCFE7FF0050E726FE0EE7CFF0
:1017D000DBFF0AD0300E006EFE0EDBCFE7FF0050BD
:1017E000E726FE0EE7CFDBFFDB50E66E36DFE55285
:1017F000E552E7CFD9FF1200D9CFE6FFE1CFD9FFFD
:10180000FE0EDB50006E016A040ED89001320032E9
:10181000E804FBE10050E66EC3DFE552FE0EDBCFCD
:1018200000F00F0E0014E66EBBDFE552E552E7CF85
:10183000D9FF1200D9CFE6FFE1CFD9FFFD0EDBCFF4
:1018400000F0FE0EDBCF01F001C000F0016A005095
:10185000E66ED2DFE552FF0EE76EFD0EDBCF00F045
:10186000FE0EDBCF01F0E7500016016A0050E66E75
:10187000C3DFE552E552E7CFD9FF12000D0EE66E49
:10188000ECDEE5520A0EE66EE8DEE5521200D9CF34
:10189000E6FFE1CFD9FFE65203012151EA6A230FA7
:1018A000E96E030EEA22EF50DF6E010E2125006E75
:1018B000016A000E01227F0E0014216FDF5000D05C
:1018C000E552E552E7CFD9FF1200D9CFE6FFE1CFCD
:1018D000D9FFE6529E50200B01E0010E006E016A16
:1018E0000050011027E0AB50020B01E0010E026E28
:1018F000036A025003100BE1AB50040B01E0010E30
:10190000046E056A0450051002E1000E01D0010EBC
:10191000006E016A0050011005E0AB98AB88AE5034
:10192000DF6E08D0AE50DF6EDF50E66E96DEE55219
:10193000DF5002D0000E00D0E552E552E7CFD9FFCC
:101940001200D9CFE6FFE1CFD9FF020EE126BDDFBD
:10195000DF6EDF50026E036AD890035004E6300E4B
:10196000025C000E03580CE3DF50046E056A053478
:1019700004E204503908000E055402E3000E01D0C1
:10198000010E006E016A00500110E1E1DF50006EAF
:10199000016A300E005E000E015A0A0E0102F3CFFA
:1019A00001F00002F3CF00F0F4500126010E00C058
:1019B000DBFF8BDFDF6EDF50026E036AD8900350CF
:1019C00004E6300E025C000E03580CE3DF50046E98
:1019D000056A053404E204503908000E055402E398
:1019E000000E01D0010E006E016A00500110E1E10D
:1019F000DF50006E016A300E005E000E015A010ECB
:101A0000DBCFE7FF0050E726010EE7CFDBFFDB501F
:101A1000006E020EE15C03E200D0E16AE552E16E85
:101A20000050E552E7CFD9FF1200D9CFE6FFE1CF52
:101A3000D9FF030EE126020EDB6A47DFDF6EDFCF40
:101A400004F0056A04BE0568D890055004E6300E1F
:101A5000045C000E05580EE3DFCF06F0076A06BEF1
:101A60000768073404E206503908000E075402E301
:101A7000000E01D0010E026E036A025003100AE04C
:101A8000DFCF08F0096A08BE09682D0E081801E1C9
:101A9000095002E1000E01D0010E006E016A0050F3
:101AA0000110CBE1DFCF00F0016A00BE01682D0E0E
:101AB000001801E1015028E1010EF36E020EF3CF90
:101AC000DBFF03DFDF6EDFCF02F0036A02BE0368D5
:101AD000D890035004E6300E025C000E03580EE36B
:101AE000DFCF04F0056A04BE0568053404E2045043
:101AF0003908000E055402E3000E01D0010E006EFD
:101B0000016A00500110DDE1DFCF00F0016A00BE84
:101B10000168300E005E000E015A0A0E0102F3CF7A
:101B200001F00002F3CF00F0F4500126010E00C0D6
:101B3000DBFFCBDEDF6EDFCF02F0036A02BE03689D
:101B4000D890035004E6300E025C000E03580EE3FA
:101B5000DFCF04F0056A04BE0568053404E20450D2
:101B60003908000E055402E3000E01D0010E006E8C
:101B7000016A00500110DDE1DFCF00F0016A00BE14
:101B80000168300E005E000E015A010EDBCFE7FF48
:101B90000050E726010EE7CFDBFF020EDB50006EA0
:101BA000016A005001100BE0010EDB50006E016A6B
:101BB000006C011E000E0122010E00C0DBFF010EB1
:101BC000DB50006E016A00C0F3FF01C0F4FF030E9A
:101BD000E15C03E200D0E16AE552E16EE552E7CF55
:101BE000D9FF1200D9CFE6FFE1CFD9FFFE0EDB50BF
:101BF000006E016A005001100AE0000EE66E010E50
:101C0000E66E01DDE552E55203011A6B1B6B600EB7
:101C1000E66E010EE66EF7DCE552E5520301A751D0
:101C2000006E016A0050011008E0AA0EE66E010E77
:101C3000E66EE9DCE552E55207D0B30EE66E010E22
:101C4000E66EE1DCE552E552EE0EE66E010EE66E62
:101C5000DADCE552E5520301A851006E016A00503A
:101C6000011008E0AA0EE66E010EE66ECCDCE5522D
:101C7000E55207D0B30EE66E010EE66EC4DCE55207
:101C8000E552C30EE66E010EE66EBDDCE552E5528E
:101C90000301A951006E016A0050011008E0AA0E6C
:101CA000E66E010EE66EAFDCE552E55207D0B30EEC
:101CB000E66E010EE66EA7DCE552E55205EC16F085
:101CC000D00EE66E010EE66E9EDCE552E55230C4A3
:101CD00000F0016A00BE0168D89001320032010EA6
:101CE0000016000E0116005008E0EA0EE66E010E26
:101CF000E66E89DCE552E55207D0EC0EE66E010E89
:101D0000E66E81DCE552E552B60EE66E020EE66E38
:101D10007ADCE552E55203011B3504E21A517708DB
:101D2000000E1B5505E2320EE66E97DCE55204D03C
:101D3000310EE66E92DCE55288DCE552E7CFD9FF42
:101D40001200D9CFE6FFE1CFD9FF090EE126BDDDB4
:101D5000E76E020EE7CFDBFFDBCFE6FFE66A3EEC85
:101D60002BF0E552E552F3CF00F0F4CF01F0005034
:101D700001100BE0020EDBCFE6FFE66A50EC2BF021
:101D8000E552E552020EF3CFDBFF020EDB50006E90
:101D9000016A005001E1015001E12AD24D0E001804
:101DA00001E1015001E15ED14C0E001801E101504A
:101DB00001E1F1D0420E001801E1015001E1E8D04B
:101DC0003F0E001801E1015001E1D7D0520E00187A
:101DD00001E1015036E04E0E001801E101500AE029
:101DE000530E001801E1015001E003D2E66AFADE69
:101DF000E552FFD1D10EE66E020EE66E03EC0BF05B
:101E0000E552E552ACC0E6FF99DCE552E10EE66E24
:101E1000020EE66E03EC0BF0E552E552AEC0E6FFB3
:101E20008DDCE552E80EE66E020EE66E03EC0BF07A
:101E3000E552E552B0C0E6FF81DCE55225EC0BF03F
:101E4000D8D1EE0EE66E020EE66E03EC0BF0E55214
:101E5000E55212C3E6FF16DCE5522C0EE66E2DECC1
:101E60000BF0E552520EE66E2DEC0BF0E5523A0EF9
:101E7000E66E2DEC0BF0E55214C300F015C301F033
:101E8000770E005E000E015A0050E66E57DCE552F8
:101E90002C0EE66E2DEC0BF0E5524E0EE66E2DECA0
:101EA0000BF0E5523A0EE66E2DEC0BF0E55216C340
:101EB00000F017C301F0770E005E000E015A0050CB
:101EC000E66E3CDCE5522C0EE66E2DEC0BF0E55296
:101ED000590EE66E2DEC0BF0E5523A0EE66E2DEC47
:101EE0000BF0E55218C300F019C301F0770E005E45
:101EF000000E015A0050E66E21DCE5522C0EE66E13
:101F00002DEC0BF0E552350EE66E2DEC0BF0E552A4
:101F10003A0EE66E2DEC0BF0E5521AC3E6FF42ECEA
:101F20000BF0E5522C0EE66E2DEC0BF0E552360E62
:101F3000E66E2DEC0BF0E5523A0EE66E2DEC0BF052
:101F4000E5521CC3E6FF42EC0BF0E5522C0EE66EA8
:101F50002DEC0BF0E552370EE66E2DEC0BF0E55252
:101F60003A0EE66E2DEC0BF0E5521EC3E6FF42EC96
:101F70000BF0E55225EC0BF03CD1000EE66E020EA4
:101F8000E66E03EC0BF0E552E55225EC0BF031D197
:101F900080EC3EF02ED19B0EE66E020EE66E03EC58
:101FA0000BF0E552E55203011B3504E21A517708A4
:101FB000000E1B5506E2320EE66E2DEC0BF0E552DC
:101FC00005D0310EE66E2DEC0BF0E55205EC16F067
:101FD000010EF36E030EF3CFDBFF210EDE6E040E57
:101FE000DD6EDECF00F0DDCF01F03C0ED880005476
:101FF000040E015434E3870EE66E020EE66E03EC27
:102000000BF0E552E552030EDBCFF3FFDB2AF35072
:10201000E66E42EC0BF0E552930EE66E020EE66EB3
:1020200003EC0BF0E552E552DECFE9FFDDCFEAFF2E
:10203000EFCF00F0016A00BE0168080E00C0DBFFB0
:10204000DBCF00F0016A00BE01680050E66E9EEC36
:102050000BF0E552DF2A010E01E3DB2AC2D725ECA3
:102060000BF0C7D0020EE66E18EC15F0E552870EA5
:10207000E66E020EE66E03EC0BF0E552E55261DC13
:10208000006E016A0006000E015A030E00C0DBFF5D
:10209000930EE66E020EE66E03EC0BF0E552E5528F
:1020A000C4DC080EF3CFDBFF03011B3504E21A5139
:1020B0007708000E1B5508E2200EF36E040EF3CFD6
:1020C000DBFF050EDB6A04D0040EDB6A050EDB6A5B
:1020D000080EDBCF00F0016A00BE01680050E66E1A
:1020E000030EDB50E76E040EDBCF02F0050EDBCFF4
:1020F00003F0E7500226000E03220250E66EC5EC04
:1021000015F0E552E552030EDB50006E016A300E09
:10211000026E040E036E210E025E040E035A02507C
:10212000001802E1035001185BE103011B3504E2D2
:102130001A517708000E1B5505E2040EDB6A050EE6
:10214000DB6A07D0200EF36E040EF3CFDBFF050E23
:10215000DB6A080EDB90DB94DB96DB9ADB9CDB9E74
:10216000030EDB50E76E040EDBCF02F0050EDBCF73
:1021700003F0E7500226000E03220250E66EACEC9C
:1021800015F0E552006E016A00BE0168ED0E001602
:10219000000E0116080EDBCF04F0056A04BE0568C8
:1021A00000500410E76E080EE7CFDBFFDBCF00F036
:1021B000016A00BE01680050E66E030EDB50E76E58
:1021C000040EDBCF02F0050EDBCF03F0E750022652
:1021D000000E03220250E66EC5EC15F0E552E55202
:1021E000020EE66E26EC15F0E55225EC0BF001D060
:1021F00000D0090EE15C02E2E16AE552E16EE552CF
:06220000E7CFD9FF120038
:0A220600D9CFE6FFE1CFD9FFD95090
:10221000FC0FE96EFF0EDA20EA6E020ED890EB504A
:10222000000A06E6000EEE5C000EEE58000EEF58B7
:102230003CE2FC0EDBCF03F0FD0EDBCF04F0FE0E24
:10224000DBCF05F021682268236803C01CF004C0BE
:102250001DF005C01EF012EC29F019C003F01AC0E1
:1022600004F01BC005F0FB0EDB501F0B03C000F099
:1022700004C001F005C002F006E0D890023201323D
:102280000032E806FAE121682268236800C01CF0E9
:1022900001C01DF002C01EF012EC29F019C000F0C0
:1022A0001AC001F01BC002F019D0FC0EDBCF06F003
:1022B000FD0EDBCF07F0FE0EDBCF08F0FB0EDB5090
:1022C0001F0B06C000F007C001F008C002F006E0D6
:1022D000D890023201320032E806FAE100C01CF068
:1022E00001C01DF002C01EF000D0E552E7CFD9FFBB
:1022F0001200D9CFE6FFE1CFD9FFFD0EDBCF02F010
:10230000FE0EDBCF03F00001800E03141DE0FD0E76
:10231000DBCF04F0FE0EDBCF05F0046C051E000ED3
:102320000522FC0EDB50066E065004C000F005C00E
:1023300001F005E0D89001320032E804FBE1006CC6
:10234000011E000E012214D0FD0EDBCF07F0FE0EA1
:10235000DBCF08F0FC0EDB50096E095007C000F01F
:1023600008C001F005E0D89001320032E804FBE13A
:1023700000C0F3FF01C0F4FF00D0E552E7CFD9FF62
:102380001200D9CFE6FFE1CFD9FF0A0EE126FD0EFC
:10239000DBCF00F0FE0EDBCF01F0040ED89001324F
:1023A0000032E804FBE10050DF6E0F0EE76EFD0E19
:1023B000DBCF00F0FE0EDBCF01F0E7500016016A24
:1023C000010E00C0DBFFDF50E76EFB0EDBCFE9FF45
:1023D000FC0EDBCFEAFFE750E926000EEA22EF50C1
:1023E000E66ED950040FE96EDACFEAFFE552E75006
:1023F000EE6EED6ADF2ADF50E76EFB0EDBCFE9FF02
:10240000FC0EDBCFEAFFE750E926000EEA22EF5090
:10241000E66ED950060FE96EDACFEAFFE552E750D3
:10242000EE6EED6A010EDB50046E056A060EDBCF20
:1024300002F0070EDBCF03F0040EDB50025C006EEF
:10244000050EDB500358016E00C01DF001C01EF0E8
:1024500004C022F005C023F0C7EC28F0020E1BC018
:10246000DBFF030E1CC0DBFF040EDBCF02F0050E0A
:10247000DBCF03F002C0E6FF03C0E6FF040EE66E0A
:10248000020EDBCFE6FF030EDBCFE6FF32DFE552C5
:10249000E552E552E552E7CF03F0E552E7CF02F00F
:1024A0000250F324006E0350F420016E080E00C0A9
:1024B000DBFF090E01C0DBFF080EDBCF00F0090EC9
:1024C000DBCF01F000C0F3FF01C0F4FF0A0EE15CB6
:1024D00003E200D0E16AE552E16EE552E7CFD9FFB1
:1024E0001200D9CFE6FFE1CFD9FF030EE126FD0EA2
:1024F000DBCF00F0FE0EDBCF01F00001800E0114F7
:102500000BE0D950FD0FE96EFF0EDA20EA6E8C0E5B
:10251000EE26180EED22EBD7FD0EDBCF00F0FE0EFF
:10252000DBCF01F0D890015004E68C0E005C180E51
:1025300001580BE3D950FD0FE96EFF0EDA20EA6E69
:102540008C0EEE5E180EED5AE7D7FD0EDBCF02F0D3
:10255000FE0EDBCF03F0D890035004E6460E025C7B
:102560000C0E0358006A016A0036020E00C0DBFF41
:10257000DB50006E016A005001100AE0D950FD0FD7
:10258000E96EFF0EDA20EA6E460EEE5E0C0EED5A94
:10259000ED0EE66E000EE66EFD0EDBCF00F0FE0ED9
:1025A000DBCF01F0026A01BE026801C002F000C088
:1025B00001F000C001F0006A230E0026060E012281
:1025C000000E0222460E216E0C0E226E236A00C0FF
:1025D0001CF001C01DF002C01EF09AEC28F01CC0D7
:1025E00000F01DC001F01EC002F00006000E015AEE
:1025F000025A00C0E6FF01C0E6FFC3DEE552E55225
:10260000E552E552F3CFDEFFF4CFDDFF020EDB50E3
:10261000006E016A005001100CE01D681E68DECFDC
:1026200022F0DDCF23F0C7EC28F01BC0DEFF1CC07A
:10263000DDFFDECF00F0DDCF01F000C0F3FF01C011
:10264000F4FF030EE15C03E200D0E16AE552E16EC3
:10265000E552E7CFD9FF1200D9CFE6FFE1CFD9FF8E
:10266000FD0EDBCF00F0FE0EDBCF01F0230E0026C7
:10267000060E012200C0E6FF01C0E6FF32DFE55290
:10268000E55200D0E552E7CFD9FF1200D9CFE6FFDF
:10269000E1CFD9FF060EE126FD0EDBCF02F0FE0EE4
:1026A000DBCF03F00001800E03140BE0FD0EDBCF47
:1026B00000F0FE0EDBCF01F0006C011E000E0122C7
:1026C00006D0FD0EDBCF00F0FE0EDBCF01F0020ED8
:1026D00000C0DBFF030E01C0DBFFFB0EDBCF02F00F
:1026E000FC0EDBCF03F0800E03140BE0FB0EDBCF00
:1026F00000F0FC0EDBCF01F0006C011E000E012289
:1027000006D0FB0EDBCF00F0FC0EDBCF01F000C0EB
:10271000DEFF01C0DDFFD950FB0FE96EFF0EDA20AE
:10272000EA6EEE50ED101FE1FD0EDBCF00F0FE0E65
:10273000DBCF01F0800E01140BE0DD0EF36E040E12
:10274000F3CFDBFFF90EF36E050EF3CFDBFF0AD0FC
:10275000230EF36E040EF3CFDBFF060EF36E050EB1
:10276000F3CFDBFFE9D0D950FD0FE96EFF0EDA2081
:10277000EA6EEE50ED1019E1FB0EDBCF00F0FC0E1F
:10278000DBCF01F0800E01140BE0460EF36E040E59
:10279000F3CFDBFF0C0EF36E050EF3CFDBFF04D09F
:1027A000040EDB6A050EDB6AC7D0020EDBCF00F039
:1027B000030EDBCF01F0DECF02F0DDCF03F00350DC
:1027C0000118E8AE02D0013404D00050025C015080
:1027D00003582BE3C60EE66E030EE66E020EDBCF49
:1027E00002F0030EDBCF03F002C003F0026A02C066
:1027F0001DF003C01EF0DECF22F0DDCF23F074EC1D
:1028000028F01DC000F01EC001F000C0E6FF01C0AE
:10281000E6FFB7DDE552E552E552E552040EF3CF8F
:10282000DBFF050EF4CFDBFF33D0C60EE66E030EE2
:10283000E66EDECF04F0DDCF05F004C005F0046ADB
:1028400004C01DF005C01EF0020EDBCF22F0030E07
:10285000DBCF23F074EC28F01DC002F01EC003F0A3
:1028600002C0E6FF03C0E6FF8CDDE552E552E5520B
:10287000E552F3CF00F0F4CF01F0230ED8800056DC
:10288000060E0156040E00C0DBFF050E01C0DBFF83
:10289000FB0EDBCF00F0FC0EDBCF01F00001800E61
:1028A000011430E0FD0EDBCF00F0FE0EDBCF01F0B7
:1028B000013404E200500008000E015412E2040E3C
:1028C000DBCF00F0050EDBCF01F0460ED8800056BE
:1028D0000C0E0156040E00C0DBFF050E01C0DBFF2D
:1028E00010D0040EDBCF00F0050EDBCF01F0460E5A
:1028F00000260C0E0122040E00C0DBFF050E01C0F5
:10290000DBFF1AD0FD0EDBCF00F0FE0EDBCF01F0B7
:10291000800E011411E0040EDBCF00F0050EDBCFBA
:1029200001F08C0ED8800056180E0156040E00C01F
:10293000DBFF050E01C0DBFF040EDBCF00F0050E50
:10294000DBCF01F000C0F3FF01C0F4FF060EE15C35
:1029500003E200D0E16AE552E16EE552E7CFD9FF2C
:1029600012003F0E926E020EC16EC00E816E400EBE
:10297000936E600E826E840E946EC78CF18E120080
:10298000D9CFE6FFE1CFD9FF020EE126E66AE66A7B
:102990007BEC2AF0E552E552F3CF00F0F4CF01F0E2
:1029A000030ED89001320032E804FBE100C0DEFFE4
:1029B00001C0DDFF010EE66EDE500201FE250001C2
:1029C000006EDD500201FF210001016E010E0026A4
:1029D000000E012200C0E6FF01C0E6FF8ADCE552DE
:1029E000E552E552F3CFFEF2F4CFFFF232C402F02B
:1029F000036A02BE03680201FF510318E8AE02D069
:102A0000033404D00250FE5D0350FF59D870006AB1
:102A1000016A0036010E00140301A66F020EE15C8C
:102A200002E2E16AE552E16EE552E7CFD9FF12001A
:102A3000D9CFE6FFE1CFD9FFFE0EDB500201FD1337
:102A400043EC28F0E552E7CFD9FF1200D9CFE6FFDB
:102A5000E1CFD9FFFE0EDB50006E016A001C0201BF
:102A6000FD1743EC28F0E552E7CFD9FF1200D9CF8C
:102A7000E6FFE1CFD9FFE65283DF0301A651046EE2
:102A8000056A0450051008E1A451066E076A065055
:102A9000071002E0000E01D0010E026E036A025020
:102AA00003100BE10301A351086E096A040E081814
:102AB00001E1095002E0000E01D0010E006E016A32
:102AC0000050DF6EDF50006E016A0050011037E0E9
:102AD000000EE96E040EEA6EEE500401095DEE5040
:102AE0000A59EE500B5916E3800EE66EA1DFE5524F
:102AF000040EE66E9DDFE55200C409F401C40AF439
:102B000002C40BF4F40E04010927010E0A23000E7F
:102B10000B2314D0040EE66E99DFE552800EE66EAC
:102B200095DFE55200C409F401C40AF402C40BF4B1
:102B3000640E04010927000E0A230B2308D0040E9B
:102B4000E66E84DFE552800EE66E80DFE552E552E8
:102B5000E552E7CFD9FF1200D9CFE6FFE1CFD9FF89
:102B6000E652FE0EDB50A96EA69EA680A850DF6E30
:102B7000A66ADFCF00F0016A00BE0168005000D0F5
:102B8000E552E552E7CFD9FF1200D9CFE6FFE1CFFA
:102B9000D9FFE652FE0EDB50E66EDEDFE552DF6E59
:102BA000DFCF00F0016A00BE0168FD0EDBCF02F04E
:102BB000036A02BE03680250001802E103500118C4
:102BC0001FE0FD0EDBCF00F0016A00BE016800507F
:102BD000A86EFE0EDB50A96EA69EA684F29E550E30
:102BE000A76EAA0EA76EA682A650020B01E0010EE8
:102BF000006E016A0050011001E0F6D7F28EA69433
:102C0000E552E552E7CFD9FF1200D9CFE6FFE1CF79
:102C1000D9FF050EE12603011B3504E21A5177089E
:102C2000000E1B5508E2200EF36E030EF3CFDBFF00
:102C3000040EDB6A04D0030EDB6A040EDB6A210E8D
:102C4000DE6E040EDD6EDECF00F0DDCF01F03C0E57
:102C5000D8800054040E01541AE3030EDBCF00F0B9
:102C6000DB2A040EDBCF01F001E3DB2A0050E66E25
:102C700073DFE552E66EDECFE9FFDDCFEAFFE55216
:102C8000E750EF6EDF2A010E01E3DB2ADCD7050EE9
:102C9000E15C02E2E16AE552E16EE552E7CFD9FF7D
:102CA0001200D9CFE6FFE1CFD9FF050EE126FE0ED7
:102CB000DB50006E016A010E001801E1015005E1D0
:102CC000030EDB6A040EDB6A07D0200EF36E030EE0
:102CD000F3CFDBFF040EDB6A210EDE6E040EDD6E29
:102CE000DECF00F0DDCF01F03C0ED8800054040EA2
:102CF00001541EE3DFCFE9FFDF2A010EDBCFEAFF3D
:102D000001E3DB2AEFCF00F0016A00BE016800504A
:102D1000E66E030EDBCF02F0DB2A040EDBCF03F0FE
:102D200001E3DB2A0250E66E30DFE552E552D8D7E8
:102D3000050EE15C02E2E16AE552E16EE552E7CFA1
:082D4000D9FF12003EEF0CF078
:082D4800D9CFE6FFE1CFD9FF6E
:102D5000020EE126FD0EDBCFF2F3FE0EDBCFF3F326
:102D6000F2C3F0F3F3C3F1F3F2C3EEF3F3C3EFF303
:102D7000FD0EDBCFF4F3FE0EDBCFF5F330C400F035
:102D8000016A00BE0168010E0016000E0116005017
:102D900001E19BD0B20EE96E000EEA6EEE5000012A
:102DA000B55D036EEE50B659046EEE50B759056E20
:102DB0000001B851035C006EB9510458016EBA515C
:102DC0000558026E00500301F0270150F123B5C0F1
:102DD00006F0B6C007F0B7C008F021682268236883
:102DE00006C01CF007C01DF008C01EF012EC29F050
:102DF00019C006F01AC007F01BC008F00650000109
:102E0000B225036E0750B321046E0850B421056E3D
:102E10000001B851035C006EB9510458016EBA51FB
:102E20000558026E00500301F2270150F323B5C08C
:102E300006F0B6C007F0B7C008F021682268236822
:102E400006C01CF007C01DF008C01EF012EC29F0EF
:102E500019C006F01AC007F01BC008F00001B251FB
:102E6000065C036EB3510758046EB4510858056EE2
:102E700003500001B825006E0450B921016E0550C1
:102E8000BA21026E00500301EE270150EF23B20E6B
:102E9000E96E000EEA6E0001B551EE24036EB651E4
:102EA000EE20046EB751EE20056E03500001B825E8
:102EB000006E0450B921016E0550BA21026E005017
:102EC0000301F4270150F52372D0B2C003F0B3C060
:102ED00004F0B4C005F021682268236803C01CF028
:102EE00004C01DF005C01EF012EC29F019C003F05B
:102EF0001AC004F01BC005F00001B851035C006E5D
:102F0000B9510458016EBA510558026E00500301C0
:102F1000F0270150F123B80EE96E000EEA6EEE5074
:102F20000001B25D006EEE50B359016EEE50B4591F
:102F3000026E00500301F2270150F323B5C003F0E5
:102F4000B6C004F0B7C005F021682268236803C04A
:102F50001CF004C01DF005C01EF012EC29F019C0D1
:102F600003F01AC004F01BC005F003500001B8259F
:102F7000006E0450B921016E0550BA21026E005056
:102F80000301EE270150EF23B80EE96E000EEA6E42
:102F90000001B551EE24006EB651EE20016EB7511E
:102FA000EE20026E00500301F4270150F523020EBB
:102FB000E15C02E2E16AE552E16EE552E7CFD9FF5A
:102FC0001200D9CFE6FFE1CFD9FF100EE1260301B1
:102FD000EF51F119E8AE02D0F13504D0F051EE5DB9
:102FE000F151EF5905E2F0C300F0F1C301F004D054
:102FF000EEC300F0EFC301F0026A01BE02680A0EE0
:1030000000C0DBFF0B0E01C0DBFF0C0E02C0DBFFBC
:10301000F2C303F0F3C304F0056A04BE0568D95097
:103020000A0FE96EDACFEAFF020EEB500518E8AEA0
:1030300002D0053406D00350EE5C0450EE58055023
:10304000EE5808E2F2C300F0F3C301F0026A01BED9
:10305000026809D00A0EDBCF00F00B0EDBCF01F0C7
:103060000C0EDBCF02F00A0E00C0DBFF0B0E01C01E
:10307000DBFF0C0E02C0DBFFF4C303F0F5C304F06A
:10308000056A04BE0568D9500A0FE96EDACFEAFF77
:10309000020EEB500518E8AE02D0053406D00350FE
:1030A000EE5C0450EE580550EE5808E2F4C300F010
:1030B000F5C301F0026A01BE026809D00A0EDBCF37
:1030C00000F00B0EDBCF01F00C0EDBCF02F00A0E8E
:1030D00000C0DBFF0B0E01C0DBFF0C0E02C0DBFFEC
:1030E000FD0EDBCF03F0FE0EDBCF04F0056A04BE5D
:1030F0000568D9500A0FE96EDACFEAFF0350EE5C9B
:10310000006E0450EE58016E0550EE58026E0D0E22
:1031100000C0DBFF0E0E01C0DBFF0F0E02C0DBFFA5
:103120000D0EDBCF00F00E0EDBCF01F00F0EDBCF6C
:1031300002F00234000E021807E6D880000E005498
:10314000000E0154000E025401E34FD1A50E036E90
:10315000046A056AFD0EDBCF06F0FE0EDBCF07F03A
:10316000086A07BE08680650035C006E07500458E2
:10317000016E08500558026E01C002F000C001F057
:1031800000C001F0006A00C01CF001C01DF002C0C8
:103190001EF00D0EDBCF21F00E0EDBCF22F00F0E56
:1031A000DBCF23F09AEC28F0040E1CC0DBFF050EE9
:1031B0001DC0DBFF060E1EC0DBFFFD0EDBCF03F0E4
:1031C000FE0EDBCF04F0056A04BE056837C406F0C6
:1031D000076A06BE0768086A07BE08680650035CEF
:1031E000006E07500458016E08500558026E01C069
:1031F00002F000C001F000C001F0006A00C01CF045
:1032000001C01DF002C01EF00D0EDBCF21F00E0E2E
:10321000DBCF22F00F0EDBCF23F09AEC28F0070E65
:103220001CC0DBFF080E1DC0DBFF090E1EC0DBFF4C
:10323000070EDBCF03F0080EDBCF04F0090EDBCF67
:1032400005F0D950040FE96EDACFEAFF020EEB5019
:103250000518E8AE02D0053406D00350EE5C0450E9
:10326000EE580550EE580AE2040EDBCF00F0050ED2
:10327000DBCF01F0060EDBCF02F009D0070EDBCF6B
:1032800000F0080EDBCF01F0090EDBCF02F0010EDB
:1032900000C0DBFF020E01C0DBFF030E02C0DBFF3C
:1032A000D950010FE96EDACFEAFF020ED890EB5049
:1032B000000A06E6000EEE5C010EEE58000EEF5816
:1032C00001E390D00001010EFE6FB2C01CF0B3C04C
:1032D0001DF0B4C01EF0DBCF21F0020EDBCF22F0D8
:1032E000030EDBCF23F012EC29F019C0B2F01AC0A4
:1032F000B3F01BC0B4F0800E0001B227000EB32360
:10330000B423216A010E226E236AB2C01CF0B3C03E
:103310001DF0B4C01EF09AEC28F01CC0B2F01DC025
:10332000B3F01EC0B4F0B5C01CF0B6C01DF0B7C0FD
:103330001EF0010EDBCF21F0020EDBCF22F0030ED8
:10334000DBCF23F012EC29F019C0B5F01AC0B6F0AB
:103350001BC0B7F0800E0001B527000EB623B723BF
:10336000216A010E226E236AB5C01CF0B6C01DF0A2
:10337000B7C01EF09AEC28F01CC0B5F01DC0B6F026
:103380001EC0B7F0B8C01CF0B9C01DF0BAC01EF026
:10339000010EDBCF21F0020EDBCF22F0030EDBCFDC
:1033A00023F012EC29F019C0B8F01AC0B9F01BC014
:1033B000BAF0800E0001B827000EB923BA23216AA3
:1033C000010E226E236AB8C01CF0B9C01DF0BAC04D
:1033D0001EF09AEC28F01CC0B8F01DC0B9F01EC059
:1033E000BAF002D00001FE6B02D00001FE6B100E9D
:1033F000E15C02E2E16AE552E16EE552E7CFD9FF16
:103400001200D9CFE6FFE1CFD9FF040EE126020E6C
:10341000D5C0DBFF030ED6C0DBFF020EDBCF02F010
:10342000030EDBCF03F00001800E031403E0006AFB
:10343000016A17D0020EDBCF04F0030EDBCF05F0DC
:10344000053404E204509508000E055404E2950E7C
:10345000006E016A06D0020EDBCF00F0030EDBCF58
:1034600001F0020E00C0DBFF030E01C0DBFF020E05
:10347000DBCFE6FF030EDBCFE6FF66DCE552E5526D
:10348000020EDBCFE6FF030EDBCFE6FF9ADDE5524F
:10349000E5520001FE51006E016A0050011009E082
:1034A000020EDBCFE6FF030EDBCFE6FF4DDCE5527D
:1034B000E552040EE15C02E2E16AE552E16EE5529A
:1034C000E7CFD9FF1200D9CFE6FFE1CFD9FF060E33
:1034D000E1263AC404F0056A04BE056804500510EC
:1034E00002E1000E01D0010E026E036A0301B05129
:1034F00000010214006E016A005001103EE03AC45F
:1035000000F0016A00BE0168026A01BE026887C05D
:103510001CF088C01DF089C01EF000C021F001C061
:1035200022F002C023F09AEC28F01CC0DFFF010E4D
:103530001DC0DBFF020E1EC0DBFF3AC400F0016AB3
:1035400000BE0168026A01BE02688AC01CF08BC01E
:103550001DF08CC01EF000C021F001C022F002C09E
:1035600023F09AEC28F0030E1CC0DBFF040E1DC0F4
:10357000DBFF050E1EC0DBFF0BD0030EDB6A040E63
:10358000DB6A050EDB6ADF6A010EDB6A020EDB6AAC
:103590000301AC51006E016A005001100AE0D9CF5E
:1035A000E9FFDACFEAFF770EEE26000EEE22EE22DA
:1035B00011D0EAC300F0EBC301F0026A01BE026859
:1035C000D9CFE9FFDACFEAFF0050EE260150EE2214
:1035D0000250EE22ECC300F0EDC301F0026A01BE1E
:1035E0000268D950030FE96EDACFEAFF0050EE26E9
:1035F0000150EE220250EE22D9CFE9FFDACFEAFFE6
:10360000020ED890EB50000A06E6010EEE5C000EAA
:10361000EE58000EEF5805E2010E006E016A026AD4
:1036200021D0DFCF03F0010EDBCF04F0020EDBCFA1
:1036300005F00534000E051807E6D880A50E0354E2
:10364000000E0454000E055405E2A50E006E016A3A
:10365000026A08D0DFCF00F0010EDBCF01F0020ECE
:10366000DBCF02F000C0F7F3D950030FE96EDACFD9
:10367000EAFF020ED890EB50000A06E6010EEE5C5F
:10368000000EEE58000EEF5805E2010E006E016AC2
:10369000026A23D0030EDBCF03F0040EDBCF04F06D
:1036A000050EDBCF05F00534000E051807E6D880BF
:1036B000A50E0354000E0454000E055405E2A50E99
:1036C000006E016A026A09D0030EDBCF00F0040E1F
:1036D000DBCF01F0050EDBCF02F000C0F6F3060EE3
:1036E000E15C02E2E16AE552E16EE552E7CFD9FF23
:1036F00012000301E951006E016A0050011038E028
:103700000301E851006E016A0050011024E000013D
:103710008051816E0F0B1AE0812F90EF1BF080918A
:10372000832F94EF1BF08093842F98EF1BF08095EC
:10373000822F9CEF1BF08097852FA0EF1BF08099C4
:10374000862F88EF1BF0809B88EF1BF00301E86B4E
:10375000E8C3E9F30DD00301010EE86F00013F0E4D
:10376000806F03D000010F0E806F00018051811225
:1037700012000301E951006E016A005001103FE0A0
:103780000301B06B0001010E826F82C084F082C021
:1037900083F082C081F0520E866F86C085F02E0EB7
:1037A000E66E18EC15F0E55200C403F401C404F40D
:1037B00002C405F4000EE96E040EEA6E0401035122
:1037C000EE5C0451EE580551EE5818E3190E03272C
:1037D000000E042305230201FD51006E016A005012
:1037E000800B06E1800EE66E18EC15F0E55205D070
:1037F000800EE66E26EC15F0E55202D8DBD71200FB
:1038000000DEEEC381F0F0C383F0F2C384F0F4C3B2
:1038100082F059DE0301F7510001856F0301F65173
:103820000001866F1200D9CFE6FFE1CFD9FFE65243
:103830000301B06BDF6ADFCF00F0016A00BE0168F0
:10384000D890015004E6040E005C000E015811E20D
:10385000DFCFE9FFEA6AE9BEEA68D890E936EA36DE
:10386000EE0EE926030EEA22010EEE6EED6ADF2A65
:10387000E2D70301520EF76FF7C3F6F3E96BE86B7B
:0A388000E552E552E7CFD9FF120030
:06388A000301F86BF96B6D
:103890000001C36BC46B00C41EF401C41FF402C456
:1038A00020F4320E04011E27000E1F23202384EC77
:1038B00029F0420EE66EA6EC29F0E552006E016A90
:1038C0000050011005E096EC29F00301A86B04D02C
:1038D0000301010EA86F00D01200D9CFE6FFE1CF9F
:1038E000D9FF020EE1260301A851006E016A0050C3
:1038F000011001E1DBD0000EE96E040EEA6EEE501D
:1039000004011E5DEE501F59EE50205901E3CBD04B
:1039100000C41EF401C41FF402C420F4320E1E279A
:10392000000E1F23202384EC29F0430EE66EA6EC44
:1039300029F0E552006E016A0050011001E0ADD09F
:10394000E66AE2EC29F0E552036E03C004F0036A74
:1039500003C0E6FF04C0E6FF010EE66EE2EC29F0CC
:10396000E552E552E7CF04F0E552E7CF03F000015E
:103970000310006E04C001F0026A01BE0268460E28
:10398000216E0C0E226E236A00C01CF001C01DF0D7
:1039900002C01EF012EC29F019C000F01AC001F0AC
:1039A0001BC002F0080E216E070E226E236A00C0B3
:1039B0001CF001C01DF002C01EF09AEC28F01CC0E3
:1039C00000F01DC001F01EC002F0460E00260C0ED5
:1039D0000122000E022200C0F8F301C0F9F396ECB8
:1039E00029F00301D890F95104E68C0EF85D180E09
:1039F000F95904E38C0EF85F180EF95BFA51F85D83
:103A0000006EF951FB55016E00C0DEFF01C0DDFF05
:103A1000DECF00F0DDCF01F0013404E30050BA083E
:103A2000F30E015409E3D9CFE9FFDACFEAFF460EDE
:103A3000EE260C0EED2213D0DECF00F0DDCF01F02C
:103A4000013404E2005046080C0E015408E2D9CFBC
:103A5000E9FFDACFEAFF460EEE5E0C0EED5A010EDC
:103A6000E66EDE500001C3250001006EDD5000014E
:103A7000C4210001016E010E0026000E012200C0CB
:103A8000E6FF01C0E6FF79EC11F0E552E552E552A0
:103A9000F3CFC3F0F4CFC4F005D096EC29F00001C9
:103AA000C36BC46B03D00001C36BC46B020EE15C3B
:103AB00002E2E16AE552E16EE552E7CFD9FF12007A
:103AC000D9CFE6FFE1CFD9FF040EE12684EC29F03F
:103AD000EE0EE66EA6EC29F0E552006E016A00508B
:103AE000011001E06ED0F60EE66EA6EC29F0E5526C
:103AF000006E016A0050011001E063D084EC29F0EF
:103B0000EF0EE66EA6EC29F0E552006E016A005059
:103B1000011001E056D0010EE66EE2EC29F0E5520C
:103B2000006E00C001F0006A020E00C0DBFF030E51
:103B300001C0DBFF96EC29F084EC29F0EE0EE66E76
:103B4000A6EC29F0E552006E016A0050011001E078
:103B500038D0F70EE66EA6EC29F0E552006E016A49
:103B60000050011001E02DD084EC29F0EF0EE66E3C
:103B7000A6EC29F0E552006E016A0050011001E048
:103B800020D0010EE66EE2EC29F0E552E76E020E5F
:103B9000DBCF00F0030EDBCF01F0E750001200C0D6
:103BA000DEFF01C0DDFF96EC29F00301010EA96FD5
:103BB000DECF00F0DDCF01F000C0F3FF01C0F4FF65
:103BC00005D096EC29F0F36AF46A00D0040EE15CAB
:103BD00002E2E16AE552E16EE552E7CFD9FF120059
:103BE000D9CFE6FFE1CFD9FFFE0EDB50026E036AAC
:103BF00004016451046E056A0450021802E1055084
:103C0000031802E0000E01D0010E006E016A00C030
:103C1000AAF30301AA51006E016A005001100DE0E1
:103C200000C41BF401C41CF402C41DF40A0E0401F8
:103C30001B27000E1C231D230CD000C41BF401C441
:103C40001CF402C41DF4230E04011B27000E1C23C8
:103C50001D2384EC29F0EE0EE66EA6EC29F0E55269
:103C6000006E016A0050011001E01DD0F40EE66EF6
:103C7000A6EC29F0E552006E016A0050011001E047
:103C800012D0FE0EDB50E66EA6EC29F0E552006E77
:103C9000016A0050011001E006D096EC29F0030102
:103CA000010EA96F04D096EC29F00301A96BE5522F
:103CB000E7CFD9FF1200D9CFE6FFE1CFD9FF030E3E
:103CC000E126050EE66E24C405F0066A05BE066808
:103CD000FB0EDBCF1DF0FC0EDBCF1EF004016551A7
:103CE0001D5C036E66511E58046E03C01DF004C0B7
:103CF0001EF005C022F006C023F0F4EC28F01BC033
:103D000000F01CC001F0100E0026000E0122026A15
:103D100000C0E6FF01C0E6FF02C0E6FF03EC11F0C1
:103D2000E552E552E552E5521CC0DFFF010E1DC011
:103D3000DBFF020E1EC0DBFF67C403F068C404F0A3
:103D4000056A04BE0568FD0EDBCF09F0FE0EDBCF71
:103D50000AF00B6AD9CFE9FFDACFEAFF0950EE2467
:103D6000066E0A50EE20076E0B50EE20086E0650CD
:103D7000035C006E07500458016E08500558026E2F
:103D800000C0F3FF01C0F4FF030EE15C03E200D0CA
:103D9000E16AE552E16EE552E7CFD9FF1200D9CFD3
:103DA000E6FFE1CFD9FF080EE126000E04016B6F9C
:103DB0006C6B696F6A6B676F686B050EDB6A060E6A
:103DC000DB6A070EDB6A020EDB6A030EDB6A040E97
:103DD000DB6A84EC29F0EE0EE66EA6EC29F0E552E3
:103DE000006E016A0050011001E0DAD0D00EE66EDC
:103DF000A6EC29F0E552006E016A0050011001E0C6
:103E0000CFD084EC29F0EF0EE66EA6EC29F0E55257
:103E1000006E016A0050011001E0C2D0010EE66E92
:103E2000E2EC29F0E552E76E010EE7CFDBFF96ECFE
:103E300029F0010EDB50006E016A550E001801E1F9
:103E4000015004E104012E0E646F03D004016E0ED4
:103E5000646F050EDB6A060EDB6A070EDB6A020E74
:103E6000DB6A030EDB6A040EDB6A200EDF6EDF50B6
:103E7000006E016A0050011047E004016451E66ED3
:103E8000AFDEE552000EE96E040EEA6EEE5004015C
:103E90001B5DEE501C59EE501D5901E3F3D710DEA7
:103EA000F3CF00F0F4CF01F0026AD950020FE96EAF
:103EB000DACFEAFF0050EE260150EE220250EE2249
:103EC000F40EE66E8DDEE552000EE96E040EEA6E2B
:103ED000EE5004011B5DEE501C59EE501D5901E3DC
:103EE000F3D7EEDDF3CF00F0F4CF01F0026AD95042
:103EF000050FE96EDACFEAFF0050EE260150EE2200
:103F00000250EE22DF06B3D76BC4E6FF6CC4E6FFB7
:103F1000050E036ED950050FE96EDACFEAFF0350A4
:103F20001F0BEECF00F0EECF01F0EECF02F006E077
:103F3000D890023201320032E806FAE100C0E6FF12
:103F400001C0E6FFB8DEE552E552E552E552F3CF97
:103F500067F4F4CF68F40401676D681F000E6823EE
:103F6000050E036ED950020FE96EDACFEAFF035057
:103F70001F0BEECF00F0EECF01F0EECF02F006E027
:103F8000D890023201320032E806FAE100C065F44E
:103F900001C066F404016451E66E22DEE55203D0EE
:103FA00004016E0E646F080EE15C02E2E16AE55204
:103FB000E16EE552E7CFD9FF1200D9CFE6FFE1CF9E
:103FC000D9FF020EE1260301A951006E016A0050DB
:103FD00001104DE075DDF3CFDEFFF4CFDDFF000E05
:103FE000E96E040EEA6E04011B51EE5C1C51EE58A2
:103FF0001D51EE583CE30301AA51006E016A0050C6
:10400000011009E0F40EE66EEBDDE552DECF6BF455
:10401000DDCF6CF42CD004016451E66EE1DDE55295
:10402000010EE66E6BC4E6FF6CC4E6FFDECFE6FF72
:10403000DDCFE6FF40DEE552E552E552E5520401F0
:104040006951F324006E6A51F420016E010E0026BE
:10405000000E012200C0E6FF01C0E6FF79EC11F07E
:10406000E552E552E552F3CF69F4F4CF6AF4020E5B
:10407000E15C02E2E16AE552E16EE552E7CFD9FF89
:0240800012002C
:0E408200D9CFE6FFE1CFD9FFE652530EE66E2E
:10409000A2EC2BF0E552310EE66E64EC2BF0E5520B
:1040A000840EE66EBEEC2BF0E55230C400F0016ADF
:1040B00000BE0168040ED89001320032E804FBE132
:1040C000010E0014E8B0BD80E8A0BD90DF6ADF50AB
:1040D000006E016AD890015004E6090E005C000EE3
:1040E000015809E2DF50EA6A000FE96E030EEA2286
:1040F000EF6ADF2AECD7DF6ADF50006E016AD890E2
:10410000015004E6070E005C000E01580DE2EA6A59
:10411000DF34FE0BEA36E96E120EE926030EEA22C0
:10412000EE6AED6ADF2AE8D7770E0301186F196B84
:10413000166F176B146F156B0A6B0B6B0C6B0D6B9B
:10414000096B0E6B0F6B106B0301A56BA5C3A4F37A
:104150000301226B22C321F322C320F39D9AF28A2A
:10416000F28CDF6ADF50006E016A013404E2005015
:104170000A08000E01540FE3DF50030DF3CFE9FFEF
:10418000F4CFEAFF000EE926040EEA22EE6AEE6A98
:10419000EE6ADF2AE7D7F28EE552E552E7CFD9FF84
:1041A0001200D9CFE6FFE1CFD9FFE652DF6ADF5038
:1041B000006E016AD890015004E6070E005C000E04
:1041C000015831E230C402F0036A02BE0368D8909D
:1041D00003320232010E0214070DF3CF00F0F4CFC8
:1041E00001F0560E0026040E0122DF500F010024BC
:1041F000E96E000E0120EA6EEF50EA6A000FE96EE8
:10420000030EEA22EF50E66EEA6ADF34FE0BEA366E
:10421000E96E120EE926030EEA22E552E750EE6E31
:10422000ED6ADF2AC4D7E552E552E7CFD9FF120085
:10423000DACFE4FFE2CFDAFFE65200D0E552E5CF75
:10424000DAFF1100DACFE4FFE2CFDAFFE9CFE4FFD3
:10425000EACFE4FFF6CFE4FFF7CFE4FFF5CFE4FFCA
:10426000F3CFE4FFF4CFE4FFFACFE4FF00EE15F064
:10427000140EE80403E3EECFE4FFFBD700EE00F0FA
:10428000150EE80403E3EECFE4FFFBD7E652D9CFE7
:10429000E6FFE1CFD9FF050EE126F250040B01E065
:1042A000010E296E2A6A29502A1026E079EC1BF0AB
:1042B0000401002B000E01230223000EE96E040E00
:1042C000EA6EEE50065DEE500759EE50085907E2CF
:1042D0000301A4512B6E2C6A2B502C1002E1000E0E
:1042E00001D0010E296E2A6A29502A1004E0030128
:1042F0000A6B0301A46BF2949E50040B01E0010EC3
:104300002B6E2C6A2B502C1009E09D50040B01E001
:10431000010E2D6E2E6A2D502E1002E1000E01D0DE
:10432000010E296E2A6A29502A1001E1C1D0020E1D
:10433000BECFDBFF030EBFCFDBFF020EDBCF29F0CA
:10434000030EDBCF2AF02B6A2B5003011019E8AEC5
:1043500002D0103506D00E51295C0F512A58105149
:104360002B5805E2FF0E0E5F0F5B000E105B020E76
:10437000DBCF2CF0030EDBCF2DF02E6A0E512C5C20
:10438000296E0F512D582A6E10512E582B6E29C0B0
:10439000DEFF2AC0DDFF020EDBCF0EF3030EDBCF04
:1043A0000FF3106BD9CFE9FFDACFEAFFC40ED88044
:1043B000EE54090EED5406E209510A6F096B010E25
:1043C000116F74D00951296E2A6AD8902A5004E6D8
:1043D000090E295C000E2A5869E2D9CFE9FFDACF2D
:1043E000EAFF010E0F0B06E0EC52D890ED32EF32EF
:1043F000E806FAE1DECF29F0DDCF2AF02AC029F065
:104400002A6A010E291801E12A5023E1DECF29F0A2
:10441000DDCF2AF0FF0E2916000E2A1629C0DEFF76
:104420002AC0DDFFD9CFE9FFDACFEAFFEE0ED88050
:10443000EE54000EED5403E2EE0EDE6EDD6A030173
:104440000951EA6A000FE96E030EEA22DFCFEFFF9F
:1044500006D003010B2B000E0C230D23116B092B2F
:1044600009512B6E2C6A070E2B1801E12C5006E126
:1044700011512D6E2E6A2D502E1002E1000E01D02A
:10448000010E296E2A6A29502A1010E000C406F491
:1044900001C407F402C408F47D0E04010627000ECF
:1044A000072308230301010EA46FA56FBD709E941E
:1044B0009E50200B01E0010E2B6E2C6A2B502C100D
:1044C00009E09D50200B01E0010E2D6E2E6A2D504B
:1044D0002E1002E1000E01D0010E296E2A6A295029
:1044E0002A1027E0AB50020B01E0010E296E2A6A68
:1044F00029502A1008E0AE50E76E040EE7CFDBFF2C
:10450000AB98AB8815D0010E03012225296E2A6ACB
:10451000000E2A227F0E2914226FAE50E66E225121
:10452000EA6A230FE96E030EEA22E552E750EF6EC6
:104530009E9A050EE15C02E2E16AE552E16EE55207
:10454000E7CFD9FFE55200EE14F0150EE80403E3BF
:10455000E5CFEDFFFBD700EE28F0140EE80403E3EF
:10456000E5CFEDFFFBD7E5CFFAFFE5CFF4FFE5CFD1
:10457000F3FFE5CFF5FFE5CFF7FFE5CFF6FFE5CF9A
:0C458000EAFFE5CFE9FFE5CFDAFF11000C
:04458C0000C412F461
:1045900001C413F402C414F4DC0E04011227050E46
:1045A0001323000E142300C415F401C416F402C42E
:1045B00017F4880E1527130E1623000E172300C4B8
:1045C0000CF401C40DF402C40EF4D00E0C27070E37
:1045D0000D23000E0E231200D9CFE6FFE1CFD9FF45
:1045E000030EE1260301A451006E016A0050011080
:1045F00018E1D950FC0FE96EFF0EDA20EA6E0401D3
:104600000051EE24006E0151EE20016E0251EE20A9
:10461000026E00C0DFFF010E01C0DBFF020E02C010
:10462000DBFFD9CFE9FFDACFEAFF04010051EE5CEE
:104630000151EE580251EE58D870006A016A0036F6
:104640000050006E030EE15C03E200D0E16AE55227
:10465000E16E0050E552E7CFD9FF12000301A951E6
:10466000006E016A0050011034E0EBC000F0ECC0B5
:1046700001F00006000E015A0001800E011404E052
:104680000001D96BDA6B1CD0EBC002F0ECC003F078
:104690000206000E035A033404E2025000087D0EA5
:1046A000035405E20001D96B7D0EDA6F09D0EBC02F
:1046B000D9F0ECC0DAF00001010ED95F000EDA5B30
:1046C000D9C0E6FFDAC0E6FFEFEC03F0E552E552B1
:1046D00003D00001D56BD66B120011EC2CF0020E4A
:1046E000E66E18EC15F0E5521200D9CFE6FFE1CFE7
:1046F000D9FF080EE126FB0EDBCF1DF0FC0EDBCF51
:104700001EF0040148511D5C006E49511E58016E97
:10471000040E00C0DBFF050E01C0DBFFFD0EDBCF8A
:104720001DF0FE0EDBCF1EF0040146511D5C006E35
:1047300047511E58016E060E00C0DBFF070E01C078
:10474000DBFF060EDBCF1DF0070EDBCF1EF0060EE3
:10475000DBCF22F0070EDBCF23F0C7EC28F01BC025
:1047600004F01CC005F0040EDBCF1DF0050EDBCFFE
:104770001EF0040EDBCF22F0050EDBCF23F0C7ECDA
:1047800028F004501B24026E05501C20036E00010B
:10479000800E031403E0006A016A57D0060EDBCFD7
:1047A0001DF0070EDBCF1EF0060EDBCF22F0070E4A
:1047B000DBCF23F0C7EC28F01BC008F01CC009F0C9
:1047C000040EDBCF1DF0050EDBCF1EF0040EDBCF99
:1047D00022F0050EDBCF23F0C7EC28F008501B2495
:1047E000066E09501C20076E073404E206501408B8
:1047F000000E075404E2140E006E016A26D0060E65
:10480000DBCF1DF0070EDBCF1EF0060EDBCF22F054
:10481000070EDBCF23F0C7EC28F01BC00AF01CC04A
:104820000BF0040EDBCF1DF0050EDBCF1EF0040EE7
:10483000DBCF22F0050EDBCF23F0C7EC28F00A50C7
:104840001B24006E0B501C20016E020E00C0DBFF0B
:10485000030E01C0DBFF060EDBCFE6FF070EDBCF4A
:10486000E6FF040EDBCFE6FF050EDBCFE6FF46ECEE
:1048700013F0E552E552E552E5520301F851F35CBD
:10488000006EF951F458016E00C0DEFF01C0DDFF7B
:10489000DECFE6FFDDCFE6FF71EC12F0E552E55228
:1048A000F3CF00F0F4CF01F0006C011E000E0122E6
:1048B000C80E1D6E1E6A020EDBCF22F0030EDBCF88
:1048C00023F0C7EC28F01BC002F01CC003F000016D
:1048D00002500002F3CFDBF0F4CFDCF00102F35022
:1048E0000001DC27035000010002F3500001DC2727
:1048F000140E226E236ADBC01DF0DCC01EF074ECC7
:1049000028F01DC0DBF01EC0DCF0DECFE6FFDDCFFF
:10491000E6FF2CEC13F0E552E552F3CF00F0F4CFB4
:1049200001F0006C011E000E0122C80E1D6E1E6AF1
:10493000020EDBCF22F0030EDBCF23F0C7EC28F012
:104940001BC002F01CC003F0000102500002F3CFB4
:10495000DDF0F4CFDEF00102F3500001DE2703505A
:1049600000010002F3500001DE27140E226E236ABC
:10497000DDC01DF0DEC01EF074EC28F01DC0DDF0BF
:104980001EC0DEF0080EE15C02E2E16AE552E16E73
:10499000E552E7CFD9FF12000301AD51006E016A65
:1049A000005001101DE0B151006E016A005001106D
:1049B0000AE146C44AF447C44BF448C44CF449C421
:1049C0004DF4010EB16F4CC4E6FF4DC4E6FF4AC47E
:1049D000E6FF4BC4E6FF89DEE552E552E552E552BB
:1049E000EBC0E6FFECC0E6FFEFEC03F0E552E5526A
:1049F00012000301AD51026E036A0250031006E07B
:104A0000A851046E056A0450051002E1000E01D0A1
:104A1000010E006E016A0050011012E0000EE66EF9
:104A2000E66AE66EE66A61DEE552E552E552E55277
:104A3000320EE66EE66AEFEC03F0E552E5520BD07B
:104A4000000E0001E76FE86B0001DD6FDE6B000117
:084A5000DB6FDC6B03DE1200DA
:084A5800D9CFE6FFE1CFD9FF41
:104A6000E6520201FD6B2E0EE66E26EC15F0E552C5
:104A7000200EDF6EDF50006E016A0050011009E069
:104A8000DF50EA6AA40FE96E030EEA22EF6ADF063E
:104A9000F1D7DDEC0AF013EC1CF0E552E552E7CF5C
:104AA000D9FF1200D9CFE6FFE1CFD9FFE652F29E3F
:104AB000D3DFB1EC14F0190EE66EE66A3C0EE66E3A
:104AC000C2EC2AF0E552E552E552B6EC2AF005ECCC
:104AD00016F041EC20F020EC0AF06DEC23F0010E12
:104AE000E66EF2EC0DF0E5520301B06B0001D56B00
:104AF000D66B2E0EE66E26EC15F0E552040EE66E31
:104B000018EC15F0E55200C403F401C404F402C427
:104B100005F47D0E04010327000E04230523030181
:104B2000A36BA1EC0EF00301A551026E036A0250C3
:104B300003100EE1000EE96E040EEA6E040103514B
:104B4000EE5C0451EE580551EE5802E2000E01D021
:104B5000010E006E016A0050011017E000C403F45A
:104B600001C404F402C405F4190E04010327000E65
:104B7000042305230301A551006E016A00500110B2
:104B800002E06DEC0AF0D0EC0AF08050100B01E06E
:104B9000010E006E016A0050011001E10BD103010A
:104BA000A351006E016A005001E1015001E1D1D032
:104BB000010E001801E1015001E19DD0050E001821
:104BC00001E1015001E17BD0040E001801E1015028
:104BD00041E0020E001801E1015001E0E6D02E0E86
:104BE000E66E26EC15F0E552080EE66E18EC15F0B0
:104BF000E5520301A451006E016A005001100EE05D
:104C0000C6EC22F00301B251006E016A005001109F
:104C100003E0CCEC24F001D0B16B1BD0000EE96EA8
:104C2000040EEA6EEE500401125DEE501359EE5080
:104C300014590FE200C412F401C413F402C414F4B2
:104C4000E80E1227030E1323000E14230301040E93
:104C5000A36FABD02E0EE66E26EC15F0E552200EBB
:104C6000E66E18EC15F0E552000EE96E040EEA6EE1
:104C7000EE500401155DEE501659EE50175910E232
:104C800000C40FF401C410F402C411F4100E0F2775
:104C9000270E1023000E11230301050EA36F0FD062
:104CA000E80EE66E030EE66EE66AECEC22F0E552E4
:104CB000E552E552000903E00301020EA36F2E0E38
:104CC000E66E26EC15F0E552040EE66E18EC15F0D3
:104CD000E552F9EC24F0100EE66E270EE66EE66A59
:104CE000ECEC22F0E552E552E552000903E0030145
:104CF000020EA36F5AD0A451006E016A0050011039
:104D00001AE02E0EE66E26EC15F0E552080EE66E61
:104D100018EC15F0E552C6EC22F00001D63504E29D
:104D2000D5511808000ED65505E20301010EB06FEB
:104D3000020EA36F0DD0000E0001E76FE86B0001BB
:104D4000DD6FDE6B0001DB6FDC6B0001D56FD66BB6
:104D50002CD0180E030113AF02D0D89003D0125DEF
:104D6000000E1359D870006A016A00360050030122
:104D7000AF13770E03011FAF02D0D89003D01E5D92
:104D8000000E1F59D870006A016A003600C0ACF3EB
:104D9000C6EC22F00301AF51006E016A0050011011
:104DA00003E0010EB06FA36F00D037EC15F0A2EC5A
:104DB00016F00FD02E0EE66E26EC15F0E552040E1E
:104DC000E66E18EC15F0E5520301AF6BAFC3B0F31C
:0E4DD000A36BA7D6E552E552E7CFD9FF12003C
:024DDE00D9CF2B
:104DE000E6FFE1CFD9FFE6529498829A080EDF6E73
:104DF000DFCF00F0016A00BE01680050011021E021
:104E00008296FE0EDBCF00F0016A00BE0168005002
:104E1000800B02E0828801D08298FE0EDBCFF3FF88
:104E2000F39EF346F3CFDBFF010EE66E2DEC2CF084
:104E3000E5528286010EE66E2DEC2CF0E552DF067F
:104E4000D7D7E552E552E7CFD9FF1200D9CFE6FF19
:104E5000E1CFD9FFE652FE0EDB50E66EC0DFE55231
:104E6000948810D8DF6EFE0EDB50006E016A005091
:104E7000400B01E1828ADF5000D0E552E552E7CFD6
:104E8000D9FF1200D9CFE6FFE1CFD9FF020EE1260C
:104E9000080EDF6EDFCF00F0016A00BE016800502F
:104EA000011022E08296010EE66E2DEC2CF0E55208
:104EB000010EDBCFF3FFF39EF346F3CFDBFF82500F
:104EC000100B01E0010E006E016A010E001801E1F5
:104ED000015002E1010EDB808286010EE66E2DECB0
:104EE0002CF0E552DF06D6D7010EDB50006E020E25
:104EF000E15C03E200D0E16AE552E16E0050E55268
:104F0000E7CFD9FF1200D9CFE6FFE1CFD9FFE652B4
:104F1000FD0EDB50E66E63DFE552080EDF6EDFCF7D
:104F200000F0016A00BE0168005001101FE0829687
:104F3000FE0EDB50006E016A0050800B02E082889A
:104F400001D08298FE0EDBCFF3FFF39EF346F3CF42
:104F5000DBFF010EE66E2DEC2CF0E5528286010E91
:104F6000E66E2DEC2CF0E552DF06D9D7828A9488C4
:104F7000E552E552E7CFD9FF1200828A210EE66E94
:104F80004A0EE66EC0DFE552E5528F0EE66E5EDF3A
:104F9000E552E86EE850006E016A3A0E001801E131
:104FA000015030E1200EE66EC70EE66EACDFE55232
:104FB000E552220EE66EE66AA6DFE552E552300EB5
:104FC000E66E480EE66E9FDFE552E552340EE66E61
:104FD000E66A99DFE552E552350EE66EFC0EE66EA6
:104FE00092DFE552E552360EE66EE6688CDFE5525A
:104FF000E552380EE66EE66A86DFE552E5520301B9
:10500000010EA76F1200D9CFE6FFE1CFD9FFE6521C
:10501000A70EE66E1BDFE552DF6EE80EE66E16DFCA
:10502000E5520001A66FA76B2DDF006E016A00C07C
:1050300001F0006A00500001A6130150A71322DFFF
:105040000001A86FA96B1EDF006E016A00C001F0AD
:10505000006A00500001A8130150A91313DF0001DA
:10506000AA6FAB6B0FDF006E016A00C001F0006A2F
:1050700000500001AA130150AB13828AE552E55299
:10508000E7CFD9FF1200D9CFE6FFE1CFD9FF020E5B
:10509000E1260201FD51DF6E9498828ADE52080EED
:1050A000DD6E010EDB50006E016A0050011010E051
:1050B0008296DF50006E016A0050800B02E0828809
:1050C00001D08298DF9EDF468286010EDB06E9D79B
:1050D00082828292020EE15C02E2E16AE552E16EB6
:0850E000E552E7CFD9FF1200F1
:0850E800156A23AE7DEF28F0EC
:1050F000226C231EE86A2322151E1EAE85EF28F0BF
:105100001D6C1E1EE86A1E22151EEDEC2BF01EBE45
:1051100095EF28F015AE000C1D6C1E1EE86A1E22CD
:10512000196C1A1EE86A1A22000C15BE8CEF28F0C2
:105130001688FF0C156A23AEA5EF28F0216C221EFD
:10514000231EE86A22222322151E1EAEAFEF28F08E
:105150001C6C1D1E1E1EE86A1D221E22151E85ECDB
:105160002BF01EBEC2EF28F015AE000C1C6C1D1EED
:105170001E1EE86A1D221E22186C191E1A1E1922F4
:105180001A22000C15BEB6EF28F01688FF0C1EC0C0
:1051900028F01DC027F01D502202F4CF1CF0F3CFE1
:1051A0001BF01E502302F4CF1EF0F3CF1DF022029D
:1051B000F3501C26F4501D22E86A1E2227502302B9
:1051C000F3501C26F4501D22E86A1E2223AEEDEF98
:1051D00028F027501D5E28501E5A28AE000C225081
:1051E0001D5E23501E5A000C1DC027F01D502202C8
:1051F000F4CF1CF0F3CF1BF01E502302F4CF1EF0AF
:10520000F3CF1DF02202F3501C26F4501D22E86A51
:105210001E2227502302F3501C26F4501D22E86A58
:105220001E22000C1EC028F01DC027F01CC026F056
:105230001C502102F4CF1AF0F3CF19F01D502202B6
:10524000F4CF1CF0F3CF1BF02102F3501A26F450D8
:105250001B22E86A1C2226502202F3501A26F45020
:105260001B22E86A1C221E502102F3501B26F45018
:105270001C221E5022021D6AE86A1D22F3501C26C1
:10528000F4501D2226502302F3501B26F4501C22FA
:105290001E6AE86A1D221E2227502302F3501C2694
:1052A000F4501D22E86A1E2228502302F3501D26C6
:0652B000F4501E22000C68
:0A52B600010EE66E2DEC2CF0E5521F
:1052C0001200D9CFE6FFE1CFD9FFE652010EDF6E23
:1052D000F2DF938E8150800B01E0010E006E016AB7
:1052E0000050011009E1DF2ADF50006E016A005012
:1052F000011001E101D0EED7DEDFDF5000D0E55232
:10530000E552E7CFD9FF1200D9CFE6FFE1CFD9FFB1
:10531000E652938CD6DFDF6E819C939CCCDF819E1E
:10532000939EE552E552E7CFD9FF1200D9CFE6FFB1
:10533000E1CFD9FFE652939C819CC3DFDF6E938C53
:10534000BADFE552E552E7CFD9FF1200D9CFE6FF29
:10535000E1CFD9FFE652080EDF6EDF50006E016A22
:10536000005001101BE0FE0EDB50006E016A005081
:10537000800B02E0938C02D0819C939CA2DF0009F9
:105380000BE0819E939EFE0EDBCFF3FFF39EF34670
:10539000F3CFDBFFDF06E1D7010E0FD0938C91DF57
:1053A000000909E08150400B01E0010EDF6E819E93
:1053B000939EDF5002D0010E00D0E552E552E7CFB8
:1053C000D9FF1200D9CFE6FFE1CFD9FF020EE126C7
:1053D000010EDB6A938C080EDF6EDF50006E016AEF
:1053E000005001101BE06DDF000916E0010EDBCF5D
:1053F000F3FFF39EF346F3CFDBFF8150400B01E058
:10540000010E006E016A0050011002E0010EDB8007
:10541000819E939EDF06E1D7000E12D0FE0EDB5078
:10542000E8B0818CE8A0819C939C4BDF000906E0EA
:10543000819E939E010EDB5003D002D0000E00D05F
:10544000006E020EE15C02E2E16AE552E16E00509C
:08545000E552E7CFD9FF12007D
:085458001E0EF66E000EF76E49
:10546000000EF86E02010900F550F86F0900F550C2
:10547000F96F03E1F86701D03DD00900F550F36FF3
:105480000900F550F46F0900F550F56F09000900A7
:10549000F550E96E0900F550EA6E090009000900AF
:1054A000F550F66F0900F550F76F09000900F6CFC7
:1054B000FAF2F7CFFBF2F8CFFCF2F3C2F6FFF4C238
:1054C000F7FFF5C2F8FF0201F65302E1F75307E0D8
:1054D0000900F550EE6EF607F8E2F707F9D7FAC2C1
:1054E000F6FFFBC2F7FFFCC2F8FF0201F807000E4F
:0654F000F95BBFD71200BA
:0A54F600D9CFE6FFE1CFD9FF030E86
:10550000E126FD0EDB50E8B0C188E8A0C198FE0E90
:10551000DB50006E016A030ED89000360136E804B5
:10552000FBE10050E66ED6EC2BF0E55248EC2CF097
:1055300007EC00F0000901E0FBD738EC2CF0F3CFCA
:10554000DEFFF4CFDDFFDECF00F0DDCF01F000C0E5
:10555000F3FF01C0F4FF030EE15C03E200D0E16A57
:10556000E552E16EE552E7CFD9FF12000A0EE66E72
:10557000040EE66EAB0EE66E07EC2BF0E552E5523C
:04558000E5521200DE
:0C558400D9CFE6FFDACFE6FFE1CFD9FF78
:10559000E2CFDAFFAC6AAB6AFD0EDBB0AC88DBA20F
:1055A00002D0AC8CAB8CDBB4AC8EDBA602D0AB886B
:1055B00001D0AB8ADBB8AC849E98DBBAAC86DBAC9E
:1055C00002D09D8A01D09D9A9E9ADBAE02D09D8822
:1055D00001D09D98FB0EDB50AF6EFB0EFC0EDBCFB7
:1055E00001F001C000F0016A0050B06EAC8AAB8ED1
:1055F000949C948EAC50100B04E0AC50800B01E1F5
:0E560000948CE552E5CFDAFFE7CFD9FF120018
:02560E00D9CFF2
:10561000E6FFDACFE6FFE1CFD9FFE2CFDAFFC26AD9
:10562000C06AFC0EDB407F0B3C0BC26EFB0EDBCF77
:10563000E6FFFC0EDB38F00B300BE552E710C16ED5
:10564000FD0EDB50040DF350380B016EFD0EDB3800
:105650000F0B070B006EFD0EDB50800B00100110CE
:10566000C06EFC0EDBAE03D09E9C9D8CF28CC28083
:0C567000E552E5CFDAFFE7CFD9FF1200CA
:04567C00F36AF46A6F
:10568000FF0EE124E96EFF0EE220EA6EED6607D020
:10569000600EEF6404D07B0EEF6001D0F32A12009D
:1056A000FF0EE124E96EFF0EE220EA6EEDCFF4FF7B
:1056B000EFCFF3FFF46607D0600EF36404D07B0EE7
:0856C000F36001D0F39A12001F
:0856C800D9CFE6FFDACFE6FFBF
:1056D000E1CFD9FFE2CFDAFFFD0EDB507E0BCD6EBE
:1056E000FD0EDBAC02D0CD8E01D0CD9ECF6ACE6A4E
:1056F0009E90DBAE02D09D8001D09D90CD80E55282
:0A570000E5CFDAFFE7CFD9FF120072
:06570A001A6A196A186A10
:10571000180EE76ED8901C361D361E361836193610
:105720001A362150185C2250195823501A5807E392
:105730002150185E2250195A23501A5A1C2AE72E5B
:04574000EAD7120092
:0C574400D9CFE6FFDACFE6FFE1CFD9FFB6
:10575000E2CFDAFFFD0EDB507F0BD56ED76AD66A3B
:10576000F294FD0EDBAE02D0F28A01D0F29AD58E11
:0C577000E552E5CFDAFFE7CFD9FF1200C9
:04577C00D9CFE6FF9C
:10578000DACFE6FFE1CFD9FFE2CFDAFFFD0EDB5043
:105790000F0BBD6EFD0EDBAE02D09E949D849484F3
:0C57A000E552E5CFDAFFE7CFD9FF120099
:0457AC00D9CFE6FF6C
:1057B000DACFE6FFE1CFD9FFE2CFDAFFC30EC214A2
:1057C000006EFD0EDB407F0B3C0B0010C26EE552FD
:0A57D000E5CFDAFFE7CFD9FF1200A2
:0657DA001A6A196A100EA4
:1057E000E76ED8901D361E3619361A362250195CCF
:1057F00023501A5805E32250195E23501A5A1D2AC5
:06580000E72EF0D71200B4
:0A58060015EE00F025EE00F0F86A40
:10581000169C2CEC2AF003EC00F052EC25F0FBD7A0
:02582000120074
:0E58220004013D6B0301AD6B12001200D9CFE3
:0E583000E6FFE1CFD9FFE552E7CFD9FF120026
:02583E001A6AE4
:10584000080EE76ED8901E361A3623501A5C02E313
:0A5850001A6E1E2AE72EF7D7120089
:06585A00FF0EE350E84ED2
:105860001200000000D000D000D0E82EFAD71200BD
:10587000C450036E026AC3500210F36E03C0F4FFFB
:02588000120014
:0E58820000EE00F00F0EEE6AEA62FDD7120093
:04589000C2821200BE
:0C5894000032628EB4D4ECFAFFFAECD4BF
:0558A000B48E6232002D
:0B58A5000001020304050602000103DD
:0358B000040506E6
:0D58B3001204D80D101204D802101428069B
:0F58C000320600042B000008001A000044050403
:0158CF000DCB
:1058D0000A436F6D6D616E64733A0D0A4C2E2E2E65
:1058E0004C69737420706172616D0D0A4D2E2E2EFD
:1058F0004D6F6469667920706172616D0D0A532E77
:105900002E2E53686F772073657475700D0A4E2EB6
:105910002E2E4E65757472616C2076616C756573A0
:105920000D0A522E2E2E53686F77207265636569BB
:10593000766572206368616E6E656C730D0A422E27
:105940002E2E737461727420426F6F742D4C6F61D0
:105950006465720D0A000D0A526567697374657299
:105960002000203D20000D0A3E000D0A50617261AA
:105970006D65746572206C69737420666F72207334
:1059800065742023000D0A53656C6563746564209B
:10599000706172616D65746572207365743A200080
:1059A0000D0A4E65757472616C20526F6C6C3A0012
:1059B000204E69636B3A00205961773A000D0A5412
:0259C0003A00AB
:0E59C2000D0A55415658204558502D31384693
:1059D000323532302028432920323030382D3920DA
:1059E000496E672E204D616872696E676572202668
:1059F000204567616E200D0A546869732069732021
:105A00004652454520534F4654574152452C20732A
:105A100065652047504C206C6963656E7365210D88
:105A20000A000D0A5541565020564558502D313820
:105A300046323532302072656164792E0D0A47791D
