:020000040000FA
:060000009BEF45F0120029
:020006001200E6
:060008005CEF3BF012006A
:02000E00C250DE
:08001000020B01E0010E1200D9
:0600180052EF3BF0120064
:02001E000400DC
:10002000088C0000650F00000C000000E68B00004B
:10003000A900000022000000CA8B00001D0F000074
:100040001C000000A88B00008700000022000000B8
:100050000101A55103E08050100B13E1040EE66E80
:1000600025EC14F0E552080EE66E32EC14F0E55281
:100070000101AA5105E0200EE66E25EC14F0E552D0
:100080000FD0080EE66E25EC14F0E552040EE66E75
:1000900032EC14F0E552200EE66E32EC14F0E5522C
:1000A0001200D30EE66E750EE66E44EC35F0E552A6
:1000B000E5520101AA5101E169D1DAEC3DF0C40E2B
:1000C000E66E750EE66E44EC35F0E552E552470EED
:1000D000E66E030EE66E2FC114F030C115F0166AFD
:1000E000176A15AE02D016681768E80E0B6E030E7D
:1000F0000C6E0D6A0E6A14C006F015C007F016C02B
:1001000008F017C009F0B9EC43F002C014F003C0C6
:1001100015F004C016F005C017F0020E1526000EEB
:10012000162217220B6A040E0C6E0D6A0E6A14C09A
:1001300006F015C007F016C008F017C009F0DDEC96
:1001400040F006C014F007C015F008C016F009C052
:1001500017F014C0E6FF15C0E6FF16C0E6FF17C093
:10016000E6FFD2EC36F0186E060EE15E1850010183
:10017000800E301509E02FC114F030C115F0146C59
:10018000151E000E152204D02FC114F030C115F039
:10019000153404E214508008000E155408E2BC0E19
:1001A000E66E750EE66E44EC35F0E552E552D3ECA2
:1001B00035F0AD0EE66E750EE66E44EC35F0E552A8
:1001C000E552470EE66E030EE66E33C114F034C1FD
:1001D00015F0166A176A15AE02D016681768E80E91
:1001E0000B6E030E0C6E0D6A0E6A14C006F015C07D
:1001F00007F016C008F017C009F0B9EC43F002C0D0
:1002000014F003C015F004C016F005C017F0020E7C
:100210001526000E162217220B6A040E0C6E0D6AAC
:100220000E6A14C006F015C007F016C008F017C01B
:1002300009F0DDEC40F006C014F007C015F008C06E
:1002400016F009C017F014C0E6FF15C0E6FF16C08F
:10025000E6FF17C0E6FFD2EC36F0186E060EE15E40
:1002600018500101800E341509E033C114F034C177
:1002700015F0146C151E000E152204D033C114F0B5
:1002800034C115F0153404E214508008000E1554E2
:1002900008E2BC0EE66E750EE66E44EC35F0E552F3
:1002A000E552D3EC35F09E0EE66E750EE66E44EC2C
:1002B00035F0E552E552470EE66E030EE66E31C1AB
:1002C00014F032C115F0166A176A15AE02D016681E
:1002D0001768E80E0B6E030E0C6E0D6A0E6A14C0E2
:1002E00006F015C007F016C008F017C009F0B9EC09
:1002F00043F002C014F003C015F004C016F005C0AE
:1003000017F0020E1526000E162217220B6A040E95
:100310000C6E0D6A0E6A14C006F015C007F016C008
:1003200008F017C009F0DDEC40F006C014F007C07B
:1003300015F008C016F009C017F014C0E6FF15C08C
:10034000E6FF16C0E6FF17C0E6FFD2EC36F0186EE7
:10035000060EE15E18500101D890325104E6800E7D
:10036000315D030E325907E3323504E23151800822
:10037000040E325508E2BC0EE66E750EE66E44ECD5
:1003800035F0E552E552D3EC35F008D0870EE66E35
:10039000750EE66E44EC35F0E552E5521200D9CF09
:1003A000E6FFE1CFD9FF030EE126020EDB6A100E55
:1003B000DE6EDD6ADECF14F0DDCF15F0153404E219
:1003C0001450F608000E155428E392EC42F0DFCFEB
:1003D000E6FFB4EC42F0E552000911E1020EDB2A1F
:1003E000830EE66E750EE66E44EC35F0E552E5528E
:1003F000DFCFE6FFF6EC35F0E552D3EC35F0A4ECB8
:1004000042F0020EE66EE66A81EC0DF0E552E5522E
:10041000020EDE26000EDD22CDD7020EDB50146E5A
:10042000030EE15C03E200D0E16AE552E16E145094
:10043000E552E7CFD9FF1200D9CFE6FFE1CFD9FFD0
:10044000050EE1260F012C390F0B010B09E0730E8D
:10045000E66E750EE66E44EC35F0E552E55208D0D6
:10046000630EE66E750EE66E44EC35F0E552E5522D
:10047000580EE66E750EE66E44EC35F0E552E55228
:100480000101A75101E10FD1A76BD950010FE96E0E
:10049000DACFEAFFE90EEE6E000EED6E010EDF6EB2
:1004A000DFCF14F0070EE76E1418E8AE02D0143454
:1004B00003D0E750D880145401E29BD0300EDF24E3
:1004C000E66E64EC35F0E552520EE66E750EE66EA1
:1004D00044EC35F0E552E552D950010FE96EDACF20
:1004E000EAFFEECFF3FFEDCFF4FF020EEE26000E93
:1004F000EF22F3CFE9FFF4CFEAFF030EEECFDBFFED
:10050000040EEDCFDBFF030EDBCFE6FF040EDBCFE7
:10051000E6FF0AEC36F0E552E552090EE66E64ECB1
:1005200035F0E552250EE66EE66AFF0EE76E030E25
:10053000DBCF14F0040EDBCF15F0E7501416156A6C
:10054000166A176A640E0B6E0C6A0D6A0E6A14C086
:1005500006F015C007F016C008F017C009F0B9EC96
:1005600043F002C014F003C015F004C016F005C03B
:1005700017F0F00E0B6E0C6A0D6A0E6A14C006F0CE
:1005800015C007F016C008F017C009F0DDEC40F008
:1005900006C014F007C015F008C016F009C017F027
:1005A00014C0E6FF15C0E6FF16C0E6FF17C0E6FF61
:1005B000D2EC36F0186E060EE15E1850030EDBCF5B
:1005C00014F0040EDBCF15F0000E1416FF0E1516F6
:1005D000145002E1010E151808E04C0EE66E750E7F
:1005E000E66E44EC35F0E552E552D3EC35F0DF2A07
:1005F00057D7460EE66E750EE66E44EC35F0E552C2
:10060000E552020E086E096A06C30DF007C30EF02C
:100610003EEC41F0030E06C0DBFF040E07C0DBFF1B
:10062000D950030FE96EDACFEAFF800EEE26130EE3
:10063000ED22E66A030EE66EDBCF14F0040EDBCF8C
:1006400015F0166A176A14C0E6FF15C0E6FF16C05B
:10065000E6FF17C0E6FFD2EC36F0186E060EE15E3C
:100660001850370EE66E750EE66E44EC35F0E55226
:10067000E552E66AE66AD9C114F0DAC115F0DBC1C9
:1006800016F0176A14C0E6FF15C0E6FF16C0E6FFB5
:1006900017C0E6FFD2EC36F0186E060EE15E185079
:1006A000D3EC35F008D0270EE66E750EE66E44ECFE
:1006B00035F0E552E552050EE15C02E2E16AE552F1
:1006C000E16EE552E7CFD9FF1200D9CFE6FFE1CFC7
:1006D000D9FF070EE126160EE66E750EE66E44ECA7
:1006E00035F0E552E55292EC42F0420EE66EB4EC83
:1006F00042F0E552000901E0B3D2470EE66EB4ECD9
:1007000042F0E552000901E0ABD2740EE66EB4ECA3
:1007100042F0E552000901E0A3D2700EE66EB4EC9F
:1007200042F0E552000901E09BD2A4EC42F0320E07
:10073000E66EE66A81EC0DF0E552E5520A0EE66ED1
:10074000750EE66E44EC35F0E552E552060EDB6AB6
:10075000DBCF14F0080EE76E1418E8AE02D01434A4
:1007600003D0E750D880145401E22AD292EC42F030
:10077000420EE66EB4EC42F0E552000901E070D2A0
:10078000720EE66EB4EC42F0E552000901E068D268
:10079000060EDBCFE6FFB4EC42F0E552000901E0C3
:1007A0005FD2A4EC42F00A0EE66EE66A81EC0DF030
:1007B000E552E55292EC42F0430EE66EB4EC42F0A4
:1007C000E552000901E04CD2010EE66EE8EC42F081
:1007D000E552DE6EDD6AA4EC42F03A0EE66EE66AA1
:1007E000060EDBCF14F0156A166A176A14AE03D032
:1007F00015681668176814C0E6FF15C0E6FF16C036
:10080000E6FF17C0E6FFD2EC36F0186E060EE15E8A
:100810001850060EDB50080A01E122D10F0A01E14F
:1008200007D1010A01E1D2D0030A01E1AED0010AE9
:1008300070E0070A6DE0010A2FE0030A2CE0010ACC
:1008400001E0AAD1040EE66E750EE66E44EC35F0BA
:10085000E552E552000EE66E750EE66E44EC35F09C
:10086000E552E552DFCFE6FFF6EC35F0E552D9CFA1
:10087000E9FFDACFEAFF420EEE1801E1ED5008E0A1
:10088000DE0EE66E740EE66E44EC35F0E552E5528F
:10089000D3EC35F081D180D1D40EE66E740EE66EC5
:1008A00044EC35F0E552E552E66AE66A020EDBCF2B
:1008B00014F0030EDBCF15F0166A176A16C017F096
:1008C00015C016F014C015F0146ADECF18F0DDCF95
:1008D00019F0FF0E1816000E19161A6A1B6A185026
:1008E0001412195015121A5016121B50171214C058
:1008F000E6FF15C0E6FF16C0E6FF17C0E6FFD2EC24
:1009000036F01C6E060EE15E1C50D3EC35F044D17F
:1009100043D1CA0EE66E740EE66E44EC35F0E55235
:10092000E552E66AE66A020EDBCF14F0030EDBCF77
:1009300015F0166A176A16C017F015C016F014C025
:1009400015F0146ADECF18F0DDCF19F0FF0E18167F
:10095000000E19161A6A1B6A185014121950151233
:100960001A5016121B50171214C0E6FF15C0E6FFEE
:1009700016C0E6FF17C0E6FFD2EC36F01C6E060E7E
:10098000E15E1C50D3EC35F007D1C20EE66E740E5A
:10099000E66E44EC35F0E552E552E66AE66ADECFF3
:1009A00014F0DDCF15F0166A176A14C0E6FF15C003
:1009B000E6FF16C0E6FF17C0E6FFD2EC36F0186E71
:1009C000060EE15E1850D3EC35F0E6D0BB0EE66EB5
:1009D000740EE66E44EC35F0E552E552E66AE66ADE
:1009E000DECF14F0DDCF15F0166A176A14C0E6FFEB
:1009F00015C0E6FF16C0E6FF17C0E6FFD2EC36F0E2
:100A0000186E060EE15E1850D9CFE9FFDACFEAFF83
:100A1000100EEE1801E1ED5008E0A70EE66E740E20
:100A2000E66E44EC35F0E552E552D3EC35F0B4D047
:100A30009E0EE66E740EE66E44EC35F0E552E5521D
:100A4000000EE66E750EE66E44EC35F0E552E552AA
:100A5000DFCFE6FFF6EC35F0E552D3EC35F09CD075
:100A6000950EE66E740EE66E44EC35F0E552E552F6
:100A7000DECF14F0DDCF15F0050ED890153214320C
:100A8000E804FBE1030E1416000E1516030E1418ED
:100A900001E115502AE0020E141801E115501CE086
:100AA000010E141801E115500EE0145001E115502B
:100AB00001E024D08F0EE66E740EE66E44EC35F045
:100AC000E552E5521BD0890EE66E740EE66E44ECDC
:100AD00035F0E552E55212D0820EE66E740EE66EE7
:100AE00044EC35F0E552E55209D07B0EE66E740E0B
:100AF000E66E44EC35F0E552E55200D0DF50100BC5
:100B000008E0760EE66E740EE66E44EC35F0E552C3
:100B1000E552DECF14F0DDCF15F0030E1416000EF3
:100B20001516030E141801E115502AE0020E1418D0
:100B300001E115501CE0010E141801E115500EE002
:100B4000145001E1155001E024D06D0EE66E740ED4
:100B5000E66E44EC35F0E552E5521BD0660EE66ECB
:100B6000740EE66E44EC35F0E552E55212D05A0EA2
:100B7000E66E740EE66E44EC35F0E552E55209D0AF
:100B80004D0EE66E740EE66E44EC35F0E552E5521D
:100B900000D0D3EC35F000D0D9CFE9FFDACFEAFFAF
:100BA000020EEECFDBFF030EEDCFDBFF320EE66E63
:100BB000E66A81EC0DF0E552E552060EDB2AC8D557
:100BC0005AEC31F0320EE66EE66A81EC0DF0E55239
:100BD000E55292EC42F0430EE66EB4EC42F0E55280
:100BE000000901E03DD0E66AE8EC42F0E552E76E2C
:100BF000050EE7CFDBFF010EE66EE8EC42F0E552B2
:100C0000E76E040EE7CFDBFFA4EC42F0210EE66EA8
:100C1000740EE66E44EC35F0E552E552E66A010EDC
:100C2000E66E040EDBCF14F0050EDBCF15F0166A6E
:100C3000176A14C0E6FF15C0E6FF16C0E6FF17C02E
:100C4000E6FFD2EC36F0186E060EE15E18501A0E72
:100C5000E66E740EE66E44EC35F0E552E5520AD0CD
:100C6000A4EC42F0130EE66E740EE66E44EC35F022
:100C7000E552E552070EE15C02E2E16AE552E16EFF
:100C8000E552E7CFD9FF1200BB0EE66E730EE66E9B
:100C900044EC35F0E552E55224EC36F0000901E170
:100CA000FBD792EC42F0420EE66EB4EC42F0E55215
:100CB000000901E03BD0430EE66EB4EC42F0E55291
:100CC000000901E033D0A4EC42F09F0EE66E730EF3
:100CD000E66E44EC35F0E552E55224EC36F00009BE
:100CE00001E1FBD792EC42F0420EE66EB4EC42F02A
:100CF000E552000901E01AD0450EE66EB4EC42F070
:100D0000E552000901E012D0A4EC42F0320EE66E8A
:100D1000E66A81EC0DF0E552E5529A0EE66E730E2E
:100D2000E66E44EC35F0E552E5520AD0A4EC42F010
:100D3000130EE66E740EE66E44EC35F0E552E552A5
:100D40001200D9CFE6FFE1CFD9FF070EE126870ECB
:100D5000E66E730EE66E44EC35F0E552E5520101A5
:100D6000AD5101E1EAD0550E01014B5D09E1780E6C
:100D7000E66E730EE66E44EC35F0E552E55208D0AF
:100D8000690EE66E730EE66E44EC35F0E552E55200
:100D9000F40EE66EFDEC32F0E552000901E1CDD033
:100DA000230EE66EE66A81EC0DF0E552E552AAEC00
:100DB00032F0DF6E010E47C1DBFF020E48C1DBFFE0
:100DC000600EE66E730EE66E44EC35F0E552E552C9
:100DD000E66AE66A010EDBCF14F0020EDBCF15F0F7
:100DE000166A176A14C0E6FF15C0E6FF16C0E6FFD4
:100DF00017C0E6FFD2EC36F0186E060EE15E185012
:100E00004CC1E6FFFDEC32F0E552000901E195D05E
:100E10000A0EE66EE66A81EC0DF0E552E552AAECA8
:100E200032F0DF6E030E47C1DBFF040E48C1DBFF6B
:100E3000580EE66E730EE66E44EC35F0E552E55260
:100E4000E66AE66A030EDBCF14F0040EDBCF15F082
:100E5000166A176A14C0E6FF15C0E6FF16C0E6FF63
:100E600017C0E6FFD2EC36F0186E060EE15E1850A1
:100E7000500EE66E730EE66E44EC35F0E552E55228
:100E8000010EDBCF16F0020EDBCF17F016C0E6FF27
:100E900017C0E6FF050EE66E20CF1AF01B6A1ABED9
:100EA0001B68030EDBCF08F0040EDBCF09F01AC07D
:100EB0000DF01BC00EF011EC41F006C018F007C099
:100EC00019F0100E1826000E192218C0E6FF19C0DE
:100ED000E6FF1BEC0EF0E552E552E552E552E7CF96
:100EE00017F0E552E7CF16F01650F324146E1750A2
:100EF000F420156E050E14C0DBFF060E15C0DBFFD7
:100F0000E66AE66A050EDBCF14F0060EDBCF15F0BD
:100F1000166A176A14C0E6FF15C0E6FF16C0E6FFA2
:100F200017C0E6FFD2EC36F0186E060EE15E1850E0
:100F3000D3EC35F0D3EC35F00AD0A4EC42F0130E2C
:100F4000E66E740EE66E44EC35F0E552E552070E9F
:100F5000E15C02E2E16AE552E16EE552E7CFD9FFDA
:100F60001200D9CFE6FFE1CFD9FF020EE126010E34
:100F7000F36EFE0EDB5004E0D890F336E806FCE199
:100F8000F350E76E010EE7CFDBFFDF6ADFCF14F02F
:100F90000A0EE76E1418E8AE02D0E73402D0E7502C
:100FA000145C0FE2010EDB5001014E1B00EC14F04B
:100FB000C80EE66EE66A81EC0DF0E552E552DF2AD6
:100FC000E5D7020EE15C02E2E16AE552E16EE5522C
:100FD000E7CFD9FF1200D9CFE6FFE1CFD9FFE65224
:100FE000430EE66E730EE66E44EC35F0E552E552C4
:100FF0000A0EE66E730EE66E44EC35F0E552E552ED
:10100000F00EE66E720EE66E44EC35F0E552E552F7
:10101000B30EE66E720EE66E44EC35F0E552E55224
:1010200024EC36F0000901E1FBD7010EE66EF9EC85
:101030003AF0E55228EC00F072EC1CF00101B651D8
:1010400001E148D28050100B0FE0A5510DE001C125
:1010500027F10101286B27BF286902C129F101018D
:101060002A6B29BF2A6907D0000E0101296F2A6B5C
:101070000101276F286BA2EC31F0000EE66EE66AE4
:10108000E66EE66A99EC23F0E552E552E552E55248
:101090000101AB513CE0E66A010EE66E2DC114F091
:1010A0002EC115F0166A176A15AE02D016681768B9
:1010B0000B0ED8901436153616361736E806F9E1B9
:1010C000F60E0B6E0D0E0C6E0D6A0E6A14C006F055
:1010D00015C007F016C008F017C009F0DDEC40F0AD
:1010E00006C014F007C015F008C016F009C017F0CC
:1010F00014C0E6FF15C0E6FF16C0E6FF17C0E6FF06
:10110000D2EC36F0186E060EE15E185008D0AF0E25
:10111000E66E720EE66E44EC35F0E552E5520101E2
:10112000AC5106E03F0EE66E64EC35F0E55205D0BA
:10113000200EE66E64EC35F0E5520101FF5151E0FE
:10114000AB0EE66E720EE66E44EC35F0E552E552FB
:10115000200EE66E010EE66EF7C214F0F8C215F02E
:10116000166A176A15AE02D0166817680B0ED8906B
:101170001436153616361736E806F9E1F60E0B6EFC
:101180000D0E0C6E0D6A0E6A14C006F015C007F045
:1011900016C008F017C009F0DDEC40F006C014F0EE
:1011A00007C015F008C016F009C017F014C0E6FF1C
:1011B00015C0E6FF16C0E6FF17C0E6FFD2EC36F01A
:1011C000186E060EE15E1850A70EE66E720EE66E01
:1011D00044EC35F0E552E552FBC2E6FF64EC35F035
:1011E000E5520101FE5101E184D0A20EE66E720EBD
:1011F000E66E44EC35F0E552E552200EE66EE66A06
:10120000FDC214F0156A166A176A14C0E6FF15C00D
:10121000E6FF16C0E6FF17C0E6FFD2EC36F0186E08
:10122000060EE15E18509F0EE66E720EE66E44ECFE
:1012300035F0E552E552200EE66EE66AFCC214F087
:10124000156A166A176A14C0E6FF15C0E6FF16C0D5
:10125000E6FF17C0E6FFD2EC36F0186E060EE15E30
:1012600018509B0EE66E720EE66E44EC35F0E552B9
:10127000E552200EE66E020EE66EFEC214F0FFC2CC
:1012800015F0166A176A15AE02D01668176814C0F2
:10129000E6FF15C0E6FF16C0E6FF17C0E6FFD2EC7A
:1012A00036F0186E060EE15E1850970EE66E720E5E
:1012B000E66E44EC35F0E552E552200EE66E010E86
:1012C000E66EF1C214F0F2C215F0166A176A15AE96
:1012D00002D01668176814C0E6FF15C0E6FF16C0F6
:1012E000E6FF17C0E6FFD2EC36F0186E060EE15EA0
:1012F0001850E66AE66AE5C2E6FFE6C2E6FF31ECB0
:101300000FF0E552E552F3CF18F0F4CF19F00001D9
:10131000800E191411E0E5C2E6FFE6C2E6FF31ECEB
:101320000FF0E552E552F3CF14F0F4CF15F0146C42
:10133000151E000E15220CD0E5C2E6FFE6C2E6FF40
:1013400031EC0FF0E552E552F3CF14F0F4CF15F085
:10135000166A176A15AE02D01668176814C0E6FF41
:1013600015C0E6FF16C0E6FF17C0E6FFD2EC36F068
:101370001A6E060EE15E1A500201800EE61506E1B5
:101380006E0EE66E64EC35F0E55205D0730EE66E37
:1013900064EC35F0E552200EE66E64EC35F0E55273
:1013A000E66AE66AE7C2E6FFE8C2E6FF31EC0FF064
:1013B000E552E552F3CF18F0F4CF19F00001800E9A
:1013C000191411E0E7C2E6FFE8C2E6FF31EC0FF0C6
:1013D000E552E552F3CF14F0F4CF15F0146C151E5E
:1013E000000E15220CD0E7C2E6FFE8C2E6FF31ECA2
:1013F0000FF0E552E552F3CF14F0F4CF15F0166A72
:10140000176A15AE02D01668176814C0E6FF15C03B
:10141000E6FF16C0E6FF17C0E6FFD2EC36F01A6E04
:10142000060EE15E1A500201800EE81506E1650E17
:10143000E66E64EC35F0E55205D0770EE66E64ECAE
:1014400035F0E552900EE66E720EE66E44EC35F025
:10145000E552E552200EE66EE66A27C114F028C177
:1014600015F0166A176A15AE02D01668176814C010
:10147000E6FF15C0E6FF16C0E6FF17C0E6FFD2EC98
:1014800036F0186E060EE15E18508C0EE66E720E87
:10149000E66E44EC35F0E552E552200EE66EE66A63
:1014A00029C114F02AC115F0166A176A15AE02D0C8
:1014B0001668176814C0E6FF15C0E6FF16C0E6FF01
:1014C00017C0E6FFD2EC36F0186E060EE15E18503B
:1014D000D3EC35F00101B66BADD5E552E552E7CF5F
:1014E000D9FF1200D9CFE6FFE1CFD9FF040EE126E4
:1014F000780EE66E720EE66E44EC35F0E552E5527B
:10150000E66A010EE66E28EC44F0E552E552F3CFB0
:1015100014F0F4CF15F0166A15BE1668320E0C6E74
:101520000D6A0E6A14C007F015C008F016C009F065
:101530005CEC41F004C014F005C015F006C016F0D4
:10154000050E1426000E152216220A0E0C6E0D6AC8
:101550000E6A14C007F015C008F016C009F0B0EC10
:1015600040F007C014F008C015F009C016F0176A63
:1015700016BE176814C0DFFF010E15C0DBFF020E98
:1015800016C0DBFF030E17C0DBFF700EE66E720E97
:10159000E66E44EC35F0E552E552560EE66E030E6B
:1015A000E66ED9CFE9FFDACFEAFFEECFE6FFEECF66
:1015B000E6FFEECFE6FFEFCFE6FFD2EC36F0146E9B
:1015C000060EE15E1450D9CFE9FFDACFEAFFD890DA
:1015D000030EEB50000A08E6D00EEE5C070EEE5844
:1015E000000EEE58000EEE5818E3DECF07F0DECF07
:1015F00008F0DECF09F0DDCF0AF0DD52DD520A340B
:10160000000E0A1809E6D880B80E07540B0E0854CD
:10161000000E0954000E0A5408E25D0EE66E720ECA
:10162000E66E44EC35F0E552E552D3EC35F0E66A6F
:10163000020EE66E28EC44F0E552E552F3CF14F0CA
:10164000F4CF15F0166A15BE1668320E0C6E0D6AD0
:101650000E6A14C007F015C008F016C009F05CEC63
:1016600041F004C014F005C015F006C016F0050ED8
:101670001426000E152216220A0E0C6E0D6A0E6A32
:1016800014C007F015C008F016C009F0B0EC40F027
:1016900007C014F008C015F009C016F0176A16BE8E
:1016A000176814C0DFFF010E15C0DBFF020E16C065
:1016B000DBFF030E17C0DBFF550EE66E720EE66E03
:1016C00044EC35F0E552E552560EE66E030EE66E3A
:1016D000D9CFE9FFDACFEAFFEECFE6FFEECFE6FFA4
:1016E000EECFE6FFEFCFE6FFD2EC36F0146E060E3B
:1016F000E15E1450D9CFE9FFDACFEAFFD890030EAC
:10170000EB50000A08E6D00EEE5C070EEE58000E15
:10171000EE58000EEE5818E3DECF07F0DECF08F0EB
:10172000DECF09F0DDCF0AF0DD52DD520A34000EC3
:101730000A1809E6D880B80E07540B0E0854000E9C
:101740000954000E0A5408E25D0EE66E720EE66E53
:1017500044EC35F0E552E552D3EC35F0E66A040E80
:10176000E66E28EC44F0E552E552F3CF14F0F4CFE6
:1017700015F0166A15BE1668320E0C6E0D6A0E6AEA
:1017800014C007F015C008F016C009F05CEC41F079
:1017900004C014F005C015F006C016F0050E14269E
:1017A000000E152216220A0E0C6E0D6A0E6A14C067
:1017B00007F015C008F016C009F0B0EC40F007C003
:1017C00014F008C015F009C016F0176A16BE1768A5
:1017D00014C0DFFF010E15C0DBFF020E16C0DBFFD9
:1017E000030E17C0DBFF4D0EE66E720EE66E44EC84
:1017F00035F0E552E552560EE66E030EE66ED9CF91
:10180000E9FFDACFEAFFEECFE6FFEECFE6FFEECF5D
:10181000E6FFEFCFE6FFD2EC36F0146E060EE15E87
:101820001450D9CFE9FFDACFEAFFD890030EEB507E
:10183000000A08E6D00EEE5C070EEE58000EEE58D9
:10184000000EEE5818E3DECF07F0DECF08F0DECF53
:1018500009F0DDCF0AF0DD52DD520A34000E0A181D
:1018600009E6D880B80E07540B0E0854000E095430
:10187000000E0A5408E25D0EE66E720EE66E44EC4F
:1018800035F0E552E552D3EC35F0D3EC35F0E66AAD
:10189000E66A28EC44F0E552E552F3CF14F0F4CFB9
:1018A00015F0166A15BE16682E0E0C6E0D6A0E6ABD
:1018B00014C007F015C008F016C009F05CEC41F048
:1018C00004C014F005C015F006C016F0090E142669
:1018D000000E15221622110E0C6E0D6A0E6A14C02F
:1018E00007F015C008F016C009F0B0EC40F007C0D2
:1018F00014F008C015F009C016F0176A16BE176874
:1019000014C0DFFF010E15C0DBFF020E16C0DBFFA7
:10191000030E17C0DBFF460EE66E720EE66E44EC59
:1019200035F0E552E552560EE66E020EE66ED9CF60
:10193000E9FFDACFEAFFEECFE6FFEECFE6FFEECF2C
:10194000E6FFEFCFE6FFD2EC36F0146E060EE15E56
:101950001450D9CFE9FFDACFEAFFD890030EEB504D
:10196000000A08E6840EEE5C030EEE58000EEE58F8
:10197000000EEE5809E22E0EE66E720EE66E44EC94
:1019800035F0E552E5521AD0D9CFE9FFDACFEAFFB8
:10199000D890030EEB50000A08E6B60EEE5C030E7C
:1019A000EE58000EEE58000EEE5808E21B0EE66EE2
:1019B000720EE66E44EC35F0E552E552D3EC35F0AC
:1019C000E66A030EE66E28EC44F0E552E552F3CFEA
:1019D00014F0F4CF15F0166A15BE1668320E0C6EB0
:1019E0000D6A0E6A14C007F015C008F016C009F0A1
:1019F0005CEC41F004C014F005C015F006C016F010
:101A0000050E1426000E152216220A0E0C6E0D6A03
:101A10000E6A14C007F015C008F016C009F0B0EC4B
:101A200040F007C014F008C015F009C016F0176A9E
:101A300016BE176814C0DFFF010E15C0DBFF020ED3
:101A400016C0DBFF030E17C0DBFF130EE66E720E2F
:101A5000E66E44EC35F0E552E552560EE66E030EA6
:101A6000E66ED9CFE9FFDACFEAFFEECFE6FFEECFA1
:101A7000E6FFEECFE6FFEFCFE6FFD2EC36F0146ED6
:101A8000060EE15E1450D9CFE9FFDACFEAFFD89015
:101A9000030EEB50000A08E6B80EEE5C0B0EEE5893
:101AA000000EEE58000EEE5818E3DECF07F0DECF42
:101AB00008F0DECF09F0DDCF0AF0DD52DD520A3446
:101AC000000E0A1809E6D880A00E07540F0E08541D
:101AD000000E0954000E0A5408E2BC0EE66E750EA4
:101AE000E66E44EC35F0E552E552D3EC35F0040EE9
:101AF000E15C02E2E16AE552E16EE552E7CFD9FF2F
:021B00001200D1
:0E1B0200D9CFE6FFE1CFD9FF030EE126F25066
:101B1000200B01E0010EE76E020EE7CFDBFFF29A29
:101B2000FD0EDBCFDEFFDBCFDDFFD9CFE9FFDACF64
:101B3000EAFFEE50ED1008E0F2A4FED7F294DF06C3
:101B4000010E01E2DB06F1D7020EDB50E8B0F28AAB
:101B5000E8A0F29A030EE15C02E2E16AE552E16E6E
:101B6000E552E7CFD9FF1200D9CFE6FFE1CFD9FF89
:101B7000050EE126F250200B01E0010EE76E040E87
:101B8000E7CFDBFFF29ADE6ADD6ADECF14F0DDCF4D
:101B900015F0FD0EDBCF16F0FE0EDBCF17F00A0EB0
:101BA0001702F3CF17F01602F3CF16F0F4501726F2
:101BB00015501718E8AE02D0173404D01650145C34
:101BC0001750155828E2080EF36E020EF3CFDBFF14
:101BD000030EDB6AD950020FE96EDACFEAFFEE504E
:101BE000ED1009E0F2A4FED7F294020EDB06030E1C
:101BF00001E2DB06EFD7FDEC2CF09EAA07D0040E25
:101C0000DB50E8B0F28AE8A0F29A0BD0DF2A010E8E
:101C100001E3DB2ABAD7040EDB50E8B0F28AE8A071
:101C2000F29A050EE15C02E2E16AE552E16EE552EC
:101C3000E7CFD9FF1200D9CFE6FFE1CFD9FFFD0EE4
:101C4000DBCF16F0FE0EDBCF17F00001800E17146D
:101C50001BE0FD0EDBCF18F0FE0EDBCF19F0186C89
:101C6000191E000E1922FC0EDB5018C014F019C00A
:101C700015F005E0D89015321432E804FBE1146C3D
:101C8000151E000E152212D0FD0EDBCF1AF0FE0E2F
:101C9000DBCF1BF0FC0EDB501AC014F01BC015F09C
:101CA00005E0D89015321432E804FBE114C0F3FFCC
:101CB00015C0F4FF00D0E552E7CFD9FF1200D9CF0D
:101CC000E6FFE1CFD9FFD950FB0FE96EFF0EDA2016
:101CD000EA6ED890030EEB50000A08E6000EEE5CA8
:101CE000000EEE58000EEE58000EEE5830E2FB0EDD
:101CF000DBCF18F0FC0EDBCF19F0FD0EDBCF1AF0B6
:101D0000FE0EDBCF1BF0000E186C191E19221A1ED6
:101D10001A221B1E1B22FA0EDB501F0B18C014F0D8
:101D200019C015F01AC016F01BC017F007E0D890C4
:101D30001732163215321432E806F9E1000E146C2F
:101D4000151E1522161E1622171E172219D0D9503D
:101D5000FB0FE96EFF0EDA20EA6EFA0EDB501F0B66
:101D6000EECF14F0EECF15F0EECF16F0EECF17F069
:101D700007E0D8901732163215321432E806F9E12E
:101D800014C006F015C007F016C008F017C009F01F
:101D900000D0E552E7CFD9FF12003F0E926E020E3F
:101DA000C16EC00E816E400E936E600E826E840E08
:101DB000946EC78CF19E1200D9CFE6FFE1CFD9FF18
:101DC000E652DF6ADFCF14F0040EE76E1418E8AEB7
:101DD00002D0E73402D0E750145C11E2DFCFE9FF14
:101DE000EA6AE9BEEA68D890E936EA36550EE9268D
:101DF000010EEA22010EEE6EED6ADF2AE3D7010141
:101E0000770E536F53C154F10101A66B000E01010F
:101E1000116F126B01010F6F106B01010D6F0E6BD3
:101E20000101496F4A6B0101636F646B01013A6BF9
:101E30003B6B0101366B36C135F10101156F166B35
:101E40000101136F146B0101176F186B01014D6BCA
:101E50000101D96BDA6BDB6BE552E552E7CFD9FFB5
:101E60001200D9CFE6FFE1CFD9FFFD0EDBCF14F092
:101E7000FE0EDBCF15F0166A176A15AE02D0166893
:101E80001768790E0B6E480E0C6E0D6A0E6A14C040
:101E900006F015C007F016C008F017C009F0B9EC3D
:101EA00043F002C014F003C015F004C016F005C0E2
:101EB00017F0A00E0B6E860E0C6E010E0D6E0E6AE4
:101EC00014C006F015C007F016C008F017C009F0DE
:101ED000DDEC40F006C014F007C015F008C016F0A5
:101EE00009C017F014C0F3FF15C0F4FF00D0E5528D
:101EF000E7CFD9FF1200D9CFE6FFE1CFD9FFFD0E22
:101F0000DBCF14F0FE0EDBCF15F0166A176A15AEA4
:101F100002D016681768A00E0B6E860E0C6E010EAE
:101F20000D6E0E6A14C006F015C007F016C008F05A
:101F300017C009F0B9EC43F002C014F003C015F06B
:101F400004C016F005C017F0790E0B6E480E0C6E2B
:101F50000D6A0E6A14C006F015C007F016C008F02E
:101F600017C009F0DDEC40F006C014F007C015F012
:101F700008C016F009C017F014C0F3FF15C0F4FF35
:101F800000D0E552E7CFD9FF1200D9CFE6FFE1CF6D
:101F9000D9FFFE0EDB50A96EA69EA680A8CFA4F2A4
:101FA000A66A0201A45100D0E552E7CFD9FF120082
:101FB00001010451146E156A153404E214507708B7
:101FC000000E155405E2200E0201A86FA96B03D084
:101FD0000201A86BA96B1D0EA56F0F0EA66F380E20
:101FE000D880A5550F0EA65515E3A8C214F0A9C2B6
:101FF00015F0A82B000EA9231450E66EC6DFE5529B
:10200000A5C2E9FFA6C2EAFFEF6E0201A52B000EF2
:10201000A623E5D72ECFDCF1020E0F01E76E2D19B6
:10202000E8AE02D0E73402D0E7502D5D02E2020EA6
:102030000ED0140EE76E2D19E8AE02D02D3503D068
:10204000E750D8802D5502E2140E01D02D512D6F8E
:102050001200D9CFE6FFE1CFD9FF020EE126FE0E36
:10206000DBCFE6FF92DFE552DF6EFD0EDB50DF5C7B
:102070001DE0FD0EDB50A86EFE0EDB50A96EA69E85
:10208000A684F250800B01E0010EE76E010EE7CF4F
:10209000DBFFF29E550EA76EAA0EA76EA682A6B211
:1020A000FED7010EDB5001E0F28EA694020EE15C39
:1020B00002E2E16AE552E16EE552E7CFD9FF120094
:1020C000D9CFE6FFE1CFD9FF050EE126FE0EDB04F6
:1020D00005E1030EDB6A040EDB6A07D0200EF36E07
:1020E000030EF3CFDBFF040EDB6A1D0EDE6E0F0E58
:1020F000DD6EDECF14F0DDCF15F0380ED88014542D
:102100000F0E155419E3DFCFE9FFDF2A010EDBCFF5
:10211000EAFF01E3DB2AEF50E66E030EDBCF14F09B
:10212000DB2A040EDBCF15F001E3DB2A1450E66E48
:1021300090DFE552E552DDD7050EE15C02E2E16A8F
:10214000E552E16EE552E7CFD9FF1200D9CFE6FFA5
:10215000E1CFD9FF020EE1262BDF020EE15C02E2A5
:10216000E16AE552E16EE552E7CFD9FF1200D9CF1F
:10217000E6FFE1CFD9FFFD0EDBCF14F0FE0EDBCF83
:1021800015F00001800E15140BE0D950FD0FE96E1B
:10219000FF0EDA20EA6E8C0EEE26180EED22EBD73B
:1021A000FD0EDBCF14F0FE0EDBCF15F0D8901550EE
:1021B00004E68C0E145C180E15580BE3D950FD0F75
:1021C000E96EFF0EDA20EA6E8C0EEE5E180EED5A06
:1021D000E7D7FD0EDBCF14F0FE0EDBCF15F014C0F9
:1021E000F3FF15C0F4FF00D0E552E7CFD9FF12008E
:1021F000D9CFE6FFE1CFD9FFFD0EDBCF14F0FE0E05
:10220000DBCF15F0D880155004E7BA0E145CF30E3E
:1022100015580BE2D950FD0FE96EFF0EDA20EA6E79
:102220008C0EEE26180EED22E7D7FD0EDBCF14F054
:10223000FE0EDBCF15F0D890155004E6460E145C68
:102240000C0E15580BE3D950FD0FE96EFF0EDA2086
:10225000EA6E8C0EEE5E180EED5AE7D7FD0EDBCF60
:1022600014F0FE0EDBCF15F014C0F3FF15C0F4FF21
:1022700000D0E552E7CFD9FF1200D9CFE6FFE1CF7A
:10228000D9FFFD0EDBCF14F0FE0EDBCF15F0040EF0
:10229000D89015321432E804FBE114C0AAF20F0EF4
:1022A000E76EFD0EDBCF14F0FE0EDBCF15F0E7502E
:1022B0001416156A14C0ABF2FB0EDBCF14F0FC0E43
:1022C000DBCF15F00201AA51020D1450F324E96E80
:1022D0001550F420EA6EEECFAEF2EDCFAFF2FB0E6A
:1022E000DBCF14F0FC0EDBCF15F0AA2BAA51020DA8
:1022F0001450F324E96E1550F420EA6EEECFB0F2DC
:10230000EDCFB1F2AE51B05D146EB151AF55156E57
:10231000AB51166E176A000116501402F3CFACF2DF
:10232000F4CFADF21502F3500201AD2717500001B2
:102330001402F3500201AD27040EE66EACC2E6FFB4
:10234000ADC2E6FF78DCE552E552E5520201AE513E
:10235000F324B26FAF51F420B36FB2C2F3FFB3C234
:10236000F4FF00D0E552E7CFD9FF1200D9CFE6FF46
:10237000E1CFD9FFFD0EDBCF14F0FE0EDBCF15F061
:102380000001800E15140BE0D950FD0FE96EFF0E11
:10239000DA20EA6E8C0EEE26180EED22EBD7FD0E3B
:1023A000DBCF14F0FE0EDBCF15F0D890155004E60D
:1023B0008C0E145C180E15580BE3D950FD0FE96E06
:1023C000FF0EDA20EA6E8C0EEE5E180EED5AE7D79D
:1023D000FD0EDBCF14F0FE0EDBCF15F0D8901550BC
:1023E00004E6460E145C0C0E155802E2000E01D0F5
:1023F000010E0201B66FB6510AE0D950FD0FE96E29
:10240000FF0EDA20EA6E460EEE5E0C0EED5A870ED7
:10241000E66E000EE66EFD0EDBCF14F0FE0EDBCF97
:1024200015F0166A15BE166815C016F014C015F022
:1024300014C015F0146A230E1426060E1522000E81
:102440001622460E0C6E0C0E0D6E0E6A14C007F0AE
:1024500015C008F016C009F0B0EC40F007C014F049
:1024600008C015F009C016F014C0E6FF15C0E6FF5D
:1024700004DFE552E552E552E552F3CFB4F2F4CF72
:10248000B5F20201B65104E0B46DB51F000EB523DC
:10249000B4C2F3FFB5C2F4FF00D0E552E7CFD9FFD5
:1024A0001200D9CFE6FFE1CFD9FFFD0EDBCF14F04C
:1024B000FE0EDBCF15F0230E1426060E152214C0D7
:1024C000E6FF15C0E6FF52DFE552E55200D0E552C7
:1024D000E7CFD9FF1200D9CFE6FFE1CFD9FFFD0E3C
:1024E000DBCF14F0FE0EDBCF15F00001800E1514CB
:1024F0000CE0FD0EDBCFBBF2FE0EDBCFBCF2020127
:10250000BB6DBC1F000EBC2306D0FD0EDBCFBBF2A3
:10251000FE0EDBCFBCF20201BD6BBE6BBCAF02D0C6
:10252000BD69BE69FB0EDBCF14F0FC0EDBCF15F0EE
:102530000001800E15140CE0FB0EDBCFB7F2FC0E91
:10254000DBCFB8F20201B76DB81F000EB82306D07A
:10255000FB0EDBCFB7F2FC0EDBCFB8F20201B96B9A
:10256000BA6BB8AF02D0B969BA69D950FB0FE96E3E
:10257000FF0EDA20EA6EEE50ED1016E1FD0EDBCF15
:1025800014F0FE0EDBCF15F00001800E151406E0EE
:102590000201DD0EC36FF90EC46F05D00201230ED8
:1025A000C36F060EC46FD9D0D950FD0FE96EFF0E70
:1025B000DA20EA6EEE50ED1014E1FB0EDBCF14F0E2
:1025C000FC0EDBCF15F00001800E151406E00201B1
:1025D000460EC36F0C0EC46F03D00201C36BC46BF5
:1025E000BCD0BBC214F0BCC215F0BDC216F0BEC256
:1025F00017F0050ED8901436153616361736E8063D
:10260000F9E114C006F015C007F016C008F017C0B5
:1026100009F0B7C20BF0B8C20CF0B9C20DF0BAC2E3
:102620000EF0DDEC40F006C0BFF207C0C0F208C0FB
:10263000C1F209C0C2F2D8900201C251000A08E6F4
:10264000000EBF5D010EC059000EC159000EC259E7
:1026500012E2A90EE66E000EE66EBFC2E6FFC0C231
:10266000E6FF0BDEE552E552E552E552F3CFC3F249
:10267000F4CFC4F23FD0C007000EC15BC25BC9C03B
:1026800014F0CAC015F0166A176A15AE02D01668A3
:102690001768BFC218F0C0C219F0C1C21AF0C2C296
:1026A0001BF0020ED8901B321A3219321832E8068B
:1026B000F9E118501426195015221A5016221B50F1
:1026C000172214C0C3F215C0C4F20201800EC41553
:1026D00003E0C36BC46B0ED0C43504E2C3512308BE
:1026E000060EC45505E2230EC36F060EC46F02D05A
:1026F000C4C2C4F2FB0EDBCF14F0FC0EDBCF15F02E
:102700000001800E15141AE0FD0EDBCF14F0FE0E52
:10271000DBCF15F0153404E214500008000E1554F8
:1027200007E20201460ED880C3570C0EC45705D0ED
:10273000460E0201C3270C0EC4230FD0FD0EDBCFC3
:1027400014F0FE0EDBCF15F0800E151406E002012A
:102750008C0ED880C357180EC457C3C2F3FFC4C22F
:10276000F4FF00D0E552E7CFD9FF1200D9CFE6FF42
:10277000E1CFD9FF0201C56BC66BC76B010EC86FF5
:10278000C83504E2C7510008000EC85530E2C551F3
:10279000C503F3CF14F0F4CF15F0C603F3500001D6
:1027A0001526C6C2E8FF0201C503F3500001152635
:1027B000FD0EDBCF16F0FE0EDBCF17F0175015180D
:1027C000E8AE02D0153404D01450165C15501758DA
:1027D00005E20201C751C55FC851C65B0201D8902E
:1027E000C833C733C751C527C851C623C9D7C5C2C7
:1027F000F3FFC6C2F4FF00D0E552E7CFD9FF1200C5
:102800004EC1C9F2828A949882960201080ECA6F5C
:10281000CA5116E0C9AF02D0828801D08298C99F00
:10282000C947010EE66EB7EC45F0E5528286010E0F
:10283000E66EB7EC45F0E55282960201CA07E8D78A
:1028400082828292828694881200D9CFE6FFE1CFFD
:10285000D9FFFE0EDB5001014E13D2DFE552E7CF68
:10286000D9FF1200D9CFE6FFE1CFD9FFFE0EDB1C66
:1028700001014E17C5DFE552E7CFD9FF1200010174
:10288000CD07000ECE5BCD51CE113DE125C114F038
:1028900026C115F0FF0ED8801456000E1556030EF3
:1028A000D89015321432E804FBE1050E010114241E
:1028B000CD6F000E1520CE6F0101B85105E0510E0D
:1028C000E66EC3DFE5521FD001014EA909D0510EBB
:1028D000E66EC8DFE552010EE66EB7DFE55213D0B3
:1028E0004EA109D0510EE66EBDDFE552400EE66EF8
:1028F000ACDFE55208D0510EE66EB4DFE552100EA3
:10290000E66EA3DFE55212000F012C51E840E840CB
:102910003F0B010B4DE02E0EE66EA4DFE55214C115
:1029200014F0156A000EE76E1418E8AE02D01434E5
:1029300003D0E750D880145405E2040EE66E85DF1C
:10294000E55211D014C114F0156AFF0EE76E141889
:10295000E8AE02D0E73402D0E750145C04E2080E7F
:10296000E66E73DFE55216C114F0156A000EE76ECD
:102970001418E8AE02D0143403D0E750D8801454B1
:1029800005E2200EE66E61DFE55211D016C114F0AB
:10299000156AFF0EE76E1418E8AE02D0E73402D0D5
:1029A000E750145C04E2020EE66E4FDFE5522AD0D7
:1029B0002C51E00BE838E840010B24E02E0EE66EC7
:1029C00051DFE5520101523504E251510008000E79
:1029D000525505E2080EE66E38DFE55207D0800E4C
:1029E000521504E0040EE66E30DFE5520101503569
:1029F00004E24F51F008000E505504E2200EE66E3E
:102A000024DFE5521200E66AE66A28EC44F0E5525B
:102A1000E552F3CF14F0F4CF15F0030ED890153231
:102A20001432E804FBE114C0CBF215C0CCF2010E65
:102A3000E66EDCC116F0176A16BE17681650020162
:102A4000CB25146E1750CC21156E14C0E6FF15C0AF
:102A5000E6FF1BEC0EF0E552E552E552F3CFDCF158
:102A6000DCC114F0156A14BE15682ECF16F0176A73
:102A700016BE176815501718E8AE02D0173404D0E8
:102A80001650145C1750155802E3000E01D0010EC9
:102A9000010B0101A96FA95124E0D5C114F0D6C1E1
:102AA00015F0D7C116F0D8C117F0400E1416156AEC
:102AB000166A176A145015101610171009E1800EC7
:102AC000E66EC3DEE552040EE66EBFDEE55208D0C8
:102AD000800EE66EC7DEE552040EE66EC3DEE552FA
:102AE0002ED0B75124E0D5C114F0D6C115F0D7C10E
:102AF00016F0D8C117F0800E1416156A166A176AF8
:102B0000145015101610171009E1800EE66E9DDEA8
:102B1000E552040EE66E99DEE55208D0800EE66EB0
:102B2000A1DEE552040EE66E9DDEE55208D0800E71
:102B3000E66E98DEE552040EE66E94DEE552120073
:022B4000120081
:0E2B4200D9CFE6FFE1CFD9FF030EE126010E49
:102B5000DB6A020EDB6A0F0154513EE1FE0EDB50D0
:102B6000DF6EFD0EDB50D880DF5436E303010051E9
:102B7000520DF3CFE9FFF4CFEAFF000EE926020E73
:102B8000EA22E9CF18F0EACF19F0DF500F0118243C
:102B9000E96E000E1920EA6EEF50166E176A0A0EE3
:102BA000086E096A010EDBCF0DF0020EDBCF0EF0CE
:102BB00011EC41F006501624146E07501720156EC4
:102BC000300E145E000E155A010E14C0DBFF020E0B
:102BD00015C0DBFFDF2AC5D7010EDBCF14F0020ED4
:102BE000DBCF15F014C0F3FF15C0F4FF030EE15C5A
:102BF00003E200D0E16AE552E16EE552E7CFD9FF8A
:102C00001200D9CFE6FFE1CFD9FF100EE1260C0E5E
:102C1000DB6A0D0EDB6A0E0EDB6A0F0EDB6A0F013C
:102C2000545101E0CED0FD0EDB50F90FE66EFE0EE2
:102C3000DBCFE6FF86DFE552E552F3CF14F0F4CFA9
:102C400015F0166A176A15AE02D01668176814C018
:102C5000DFFF010E15C0DBFF020E16C0DBFF030E07
:102C600017C0DBFFFD0EDB50FB0FE66EFD0EDB50E9
:102C7000FA0FE66E66DFE552E552F3CF14F0F4CFBB
:102C800015F0166A176A15AE02D016681768040E9A
:102C900014C0DBFF050E15C0DBFF060E16C0DBFF00
:102CA000070E17C0DBFFFD0EDBCFE6FFFD0EDB508E
:102CB000FD0FE66E46DFE552E552F3CF14F0F4CF98
:102CC00015F0166A176A15AE02D016681768080E56
:102CD00014C0DBFF090E15C0DBFF0A0E16C0DBFFB8
:102CE0000B0E17C0DBFFD9CFE9FFDACFEAFFEECF3B
:102CF00018F0EECF19F0EECF1AF0EFCF1BF0C00EA8
:102D00000B6E270E0C6E090E0D6E0E6A18C006F0C3
:102D100019C007F01AC008F01BC009F0B9EC43F065
:102D200002C018F003C019F004C01AF005C01BF06F
:102D3000040EDBCF1CF0050EDBCF1DF0060EDBCF43
:102D40001EF0070EDBCF1FF0100E0B6E270E0C6E61
:102D50000D6A0E6A1CC006F01DC007F01EC008F008
:102D60001FC009F0B9EC43F002C01CF003C01DF015
:102D700004C01EF005C01FF01C5018261D5019225B
:102D80001E501A221F501B22D950080FE96EDACFAD
:102D9000EAFF1850EE24146E1950EE20156E1A50EA
:102DA000EE20166E1B50EE20176E0C0E14C0DBFFCB
:102DB0000D0E15C0DBFF0E0E16C0DBFF0F0E17C089
:102DC000DBFF0C0EDBCF14F00D0EDBCF15F00E0E7B
:102DD000DBCF16F00F0EDBCF17F014C006F015C0D6
:102DE00007F016C008F017C009F0100EE15C03E20E
:102DF00000D0E16AE552E16EE552E7CFD9FF12005B
:102E0000D9CFE6FFE1CFD9FFE65250CF52FF030101
:102E10000051520DF3CFE9FFF4CFEAFF000EE9268F
:102E2000020EEA22E9CF14F0EACF15F00F0150515B
:102E30000F011424E96E000E1520EA6EEFCFDFFFBC
:102E40000F014F51505D21E22C0EDF5C1EE02A0E77
:102E5000DF5C1BE003010051520DF3CFE9FFF4CF1B
:102E6000EAFF000EE926020EEA22E9CF14F0EACFCB
:102E700015F00F01502B50510F011424E96E000E74
:102E80001520EA6EEFCFDFFFDBD75005536F502BD5
:102E90005251535D02E3000E01D0010E546FE55212
:102EA000E552E7CFD9FF1200ABDFAADFA9DF0301AC
:102EB0000051520DF3CFE9FFF4CFEAFF000EE926EF
:102EC000020EEA22E9CF14F0EACF15F00F015251B9
:102ED0000F011424E96E000E1520EA6EEF50410830
:102EE00002E0000E01D0010E0101B66F89DF53CF61
:102EF000E6FF52CFE6FF85DEE552E55206C0D5F289
:102F000007C0D6F208C0D7F209C0D8F279DF0301B2
:102F10000051520DF3CFE9FFF4CFEAFF000EE9268E
:102F2000020EEA22E9CF14F0EACF15F00F01525158
:102F30000F011424E96E000E1520EA6EEF505308BD
:102F400009E1000E0201D56DD61FD623D71FD72366
:102F5000D81FD82355DF53CFE6FF52CFE6FF51DE0F
:102F6000E552E55206C0D9F207C0DAF208C0DBF23A
:102F700009C0DCF245DF03010051520DF3CFE9FF38
:102F8000F4CFEAFF000EE926020EEA22E9CF14F0A0
:102F9000EACF15F00F0152510F011424E96E000E13
:102FA0001520EA6EEF50570809E1000E0201D96DB5
:102FB000DA1FDA23DB1FDB23DC1FDC2321DF020E19
:102FC0000F01535DE66E52CFE6FFBBDDE552E552E1
:102FD000F3CF14F0F4CF15F00A0E1502F3CF15F06D
:102FE0001402F3CF14F0F450152614C0E6FF15C0F8
:102FF000E6FF53CFE6FF53CFE6FFA3DDE552E552F0
:10300000E552E7CF15F0E552E7CF14F01450F32462
:103010000201F56F1550F420F66FF5C214F0F6C2F8
:1030200015F0166A176A15AE02D0166817680F0EEB
:103030000B6E020E0C6E0D6A0E6A14C006F015C0FF
:1030400007F016C008F017C009F0B9EC43F002C051
:1030500014F003C015F004C016F005C017F00A0EF6
:10306000D8901732163215321432E806F9E114C03E
:10307000F5F215C0F6F2C4DE030E0F01535DE66EE5
:1030800052CFE6FF5EDDE552E552F3CF14F0F4CF08
:1030900015F00A0E1502F3CF15F01402F3CF14F059
:1030A000F450152614C0E6FF15C0E6FF0F015305C6
:1030B000E66E5305E66E45DDE552E552E552E7CF93
:1030C00015F0E552E7CF14F01450F3240201F76F26
:1030D0001550F420F86FF7C214F0F8C215F0166A14
:1030E000176A15AE02D016681768F60E0B6E0D0E35
:1030F0000C6E0D6A0E6A14C006F015C007F016C0FB
:1031000008F017C009F0B9EC43F002C014F003C096
:1031100015F004C016F005C017F00B0ED89017324A
:10312000163215321432E806F9E114C0F7F215C070
:10313000F8F266DE65DE64DE63DE03010051520DE7
:10314000F3CFE9FFF4CFEAFF000EE926020EEA22F0
:10315000E9CF14F0EACF15F00F0152510F011424FA
:10316000E96E000E1520EA6EEFCFFBF2120048DE8A
:1031700047DE46DE53CFE6FF52CFE6FF42DDE552A3
:10318000E55206C0D5F207C0D6F208C0D7F209C092
:10319000D8F236DE03010051520DF3CFE9FFF4CF30
:1031A000EAFF000EE926020EEA22E9CF14F0EACF88
:1031B00015F00F0152510F011424E96E000E152075
:1031C000EA6EEF50530809E1000E0201D56DD61FDB
:1031D000D623D71FD723D81FD82312DE53CFE6FF1D
:1031E00052CFE6FF0EDDE552E55206C0D9F207C028
:1031F000DAF208C0DBF209C0DCF202DE03010051A2
:10320000520DF3CFE9FFF4CFEAFF000EE926020EDC
:10321000EA22E9CF14F0EACF15F00F0152510F0165
:103220001424E96E000E1520EA6EEF50570809E1EC
:10323000000E0201D96DDA1FDA23DB1FDB23DC1F4E
:10324000DC23DEDD53CFE6FF52CFE6FF7ADCE5522A
:10325000E552F3CFFDF2D4DD53CFE6FF52CFE6FFC8
:1032600070DCE552E552F3CFFCF2CADD030E0F012C
:10327000535DE66E52CFE6FF64DCE552E552F3CFD4
:1032800014F0F4CF15F0640E1502F3CF15F014020C
:10329000F3CF14F0F450152614C0E6FF15C0E6FF76
:1032A00053CFE6FF0F015305E66E4BDCE552E552C6
:1032B000E552E7CF15F0E552E7CF14F01450F324B0
:1032C0000201FE6F1550F420FF6F9ADD020E0F0110
:1032D000535DE66E52CFE6FF34DCE552E552F3CFA4
:1032E00014F0F4CF15F00A0E1502F3CF15F0140206
:1032F000F3CF14F0F450152614C0E6FF15C0E6FF16
:1033000053CFE6FF53CFE6FF1CDCE552E552E55212
:10331000E7CF15F0E552E7CF14F01450F324020183
:10332000EF6F1550F420F06F010E0201FD5D1BE3FD
:10333000050EFC5D18E3FEC214F0FFC215F0166A1C
:10334000176A15AE02D0166817681734000E1718E2
:1033500009E6D880960E1454000E1554000E16542B
:10336000000E175402E2000E01D0010E0101B66FEB
:1033700012000F01506B03010051520DF3CFE9FF12
:10338000F4CFEAFF000EE926020EEA22510EE926EA
:10339000000EEA22EFCF4FFF0051520DF3CFE9FFAD
:1033A000F4CFEAFF000EE926020EEA22500EE926CB
:1033B000000EEA22EFCF7FFF0F017F51010A05E0E7
:1033C000010A01E004D0D3DE02D06EDD00D003019B
:1033D000002B010E001702070101B65101E12ED1A9
:1033E0000F017F51EA6AFE0FE96E010EEA22EF50EB
:1033F0000AE17F51EA6AFE0FE96E010EEA22010E30
:10340000EF6E0F014C2B2C0E0F014C03F350E76EA7
:103410004B19E8AE02D0E73402D0E7504B5D01E330
:1034200098D00101B66B0F014B2BCDC2D1F2CEC2A9
:10343000D2F2CFC2D3F2D0C2D4F2D5C2DDF2D6C21C
:10344000DEF2D7C2DFF2D8C2E0F2D9C2E1F2DAC2CC
:10345000E2F2DBC2E3F2DCC2E4F2D5C27BFFD6C209
:103460007CFFD7C27DFFD8C27EFF600E0B6EEA0ED6
:103470000C6E0D6A0E6A7BCF06F07CCF07F07DCF15
:1034800008F07ECF09F0DDEC40F006C07BFF07C0FE
:103490007CFF08C07DFF09C07EFF0F01800E7E15F6
:1034A00009E0000E7B6D7C1F7C237D1F7D237E1F2A
:1034B0007E2302D07ECF7EFF7BCF14F07CCF15F031
:1034C0007DCF16F07ECF17F0F60E0B6E0D0E0C6E44
:1034D0000D6A0E6A14C006F015C007F016C008F099
:1034E00017C009F0B9EC43F002C014F003C015F0A6
:1034F00004C016F005C017F00B0ED8901732163224
:1035000015321432E806F9E114C07BFF15C07CFFC8
:1035100016C07DFF17C07EFF7BCFE6FF7CCFE6FFA6
:1035200051EC12F0E552E552F3CFEDF2F4CFEEF2AA
:103530000F017F5108E1EFC2F3F2F0C2F4F2010192
:10354000010EBB6F05D07F0503E10101010EBA6FCB
:1035500075D0DD0EE96E020EEA6EEE500201D55D09
:10356000146EEE50D659156EEE50D759166EEE50B9
:10357000D859176E14C0E5F215C0E6F2E10EE96EF7
:10358000020EEA6EEE50D95D146EEE50DA59156EE9
:10359000EE50DB59166EEE50DC59176E14C0E7F290
:1035A00015C0E8F2080EE66EEDC21CF0EEC21DF08A
:1035B0001E6A1F6A1DAE02D01E681F68E7C218F09F
:1035C000E8C219F01A6A1B6A19AE02D01A681B68A1
:1035D00018C006F019C007F01AC008F01BC009F0A7
:1035E0001CC00BF01DC00CF01EC00DF01FC00EF073
:1035F000B9EC43F002C014F003C015F004C016F09B
:1036000005C017F014C0E6FF15C0E6FF16C0E6FFC0
:1036100017C0E6FF5FEC0EF0206E050EE15E205055
:1036200006C0E7F207C0E8F20F017F5107E102018F
:10363000F351EF5DF16FF451F059F26F1200D9CFF1
:10364000E6FFE1CFD9FF0F014D5101E1ECD0010AB6
:1036500001E181D0020A45E0010A01E0F4D0FE0E4A
:10366000DB500301081B03010151520DF3CFE9FFA9
:10367000F4CFEAFF000EE926020EEA22E9CF14F0A9
:10368000EACF15F00F014E514E2B0F011424E96EB5
:10369000000E1520EA6EFE0EDBCFEFFFDB502A088E
:1036A00007E10F01556B55CF57FF030E4D6F18D033
:1036B000FE0EDB5024080CE10301086B08C351FF28
:1036C00008C34EFF0201FA6B0F01010E4D6F08D0C7
:1036D0004F0E0F014E5D02E34D6B02D008C356FF43
:1036E000B2D0020E575D18E2FE0EDBCFE6FF100EE1
:1036F0005503F350E552E724556F410EF36EFE0E6D
:10370000DBCFF4FFF350F45C03E3C90E552702D07E
:10371000300E555F572B1ED05551565D02E0000EFE
:1037200001D0010E0201F96FF95112E003010151BC
:10373000520DF3CFE9FFF4CFEAFF000EE926020EA7
:10374000EA22510EE926000EEA224ECFEFFF022BAD
:103750000F014D6B78D0FE0EDB500301081B0201F8
:10376000FA51060DF3CF14F0F4CF15F0650E1426C0
:103770000F0E15220F0151510F011424E96E000E96
:103780001520EA6EEF50F36EFE0EDB50F35C06E0A0
:10379000010E0201FA5D02E2FA2BE1D70201FA51B1
:1037A000060DF3CF14F0F4CF15F0650E14260F0EAE
:1037B00015220F0151510F011424E96E000E15203E
:1037C000EA6EEF50F36EFE0EDB50F35C29E1040E5F
:1037D0000F01515D23E103010251010808E2800E4F
:1037E000E66E25EC14F0E5520F014D6B16D0012B5F
:1037F000010E01170151520DF3CFE9FFF4CFEAFF9B
:10380000000EE926020EEA22500EE926000EEA22F8
:10381000FAC2EFFF0F01020E4D6F01D0512B02D003
:103820000F014D6B10D0FE0EDB5024080BE103019D
:10383000086B08C351FF08C34EFF0201FA6B0F016A
:10384000010E4D6F00D0E552E7CFD9FF1200D9CF5E
:10385000E6FFE1CFD9FFE6520F01506B0301016B88
:1038600001C300F301C302F3DF6ADF50010809E37B
:10387000DF50EA6AFE0FE96E010EEA22EF6ADF2AE4
:10388000F4D70F014C6B02015F0EFB6F000EFE6F51
:10389000FF6BFC6FFD6FF56FF66BF76FF86B020156
:1038A000F16FF26BCD6FCE6BCF6BD06BCEAF02D022
:1038B000CF69D069E56FE66BE76FE86B0F014B6B83
:1038C0000101CB6BCC6B640E0101D36FD46B010192
:1038D000B66B0201F96B0F014D6BE552E552E7CF74
:1038E000D9FF120003010251000813E2020EE66E36
:1038F00025EC14F0E552040EE66E32EC14F0E552BD
:1039000038DD0101B65104E0B96B0101CB6BCC6B22
:1039100031D0D5C114F0D6C115F0D7C116F0D8C139
:1039200017F00F0E1416156A166A176A1450151040
:10393000161017101FE1CBC114F0CCC115F0166A98
:10394000176A15AE02D0166817681734000E1718DC
:1039500009E6D880140E1454000E1554000E1654A7
:10396000000E175403E20101B66B04D00101CB2B0A
:10397000000ECC23020EE66E32EC14F0E55201018B
:10398000B65106E0040EE66E32EC14F0E55205D0B6
:0C399000040EE66E25EC14F0E552120067
:04399C000101AA512A
:1039A00001E15DD1DAEC3DF02FC1D1F030C1D2F0B0
:1039B00031C1D5F032C1D6F033C1D3F034C1D4F027
:1039C00034CF14F0156A14BE156814500001D15F8D
:1039D0001550D25B35CF14F0156A14BE156814501B
:1039E000D35F1550D45B32CF14F0156A14BE15683E
:1039F0001450D55F1550D65B040ED65FD1C0D7F0FA
:103A0000D2C0D8F0050EE66E13C114F014C115F043
:103A10000B0E1502F3CF15F01402F3CF14F0F4508F
:103A2000152614C0E6FF15C0E6FF1BEC0EF0E552AC
:103A3000E552E552F3500001D15FF450D25B050E20
:103A4000E66E13C114F014C115F00F0E1502F3CF7A
:103A500015F01402F3CF14F0F450152614C0E6FF4D
:103A600015C0E6FF1BEC0EF0E552E552E552F3CF30
:103A7000D9F0F4CFDAF019C114F01AC115F0D890CA
:103A80001436153614500001D1271550D22319C110
:103A9000DBF01AC1DCF0D1C016F0D2C017F00A0E6C
:103AA0000D6E0E6A16C008F017C009F08AEC40F0DF
:103AB00008C016F009C017F0D880175004E7FF0EB1
:103AC000165CFF0E175803E2146815682DD0D1C09C
:103AD00018F0D2C019F00A0E0D6E0E6A18C008F068
:103AE00019C009F08AEC40F008C018F009C019F0BC
:103AF000193404E218500108000E195404E2010EB2
:103B0000146E156A11D0D1C014F0D2C015F00A0E8F
:103B10000D6E0E6A14C008F015C009F08AEC40F072
:103B200008C014F009C015F014C035F1D3C0DDF0A1
:103B3000D4C0DEF0050EE66E15C114F016C115F006
:103B40000B0E1502F3CF15F01402F3CF14F0F4505E
:103B5000152614C0E6FF15C0E6FF1BEC0EF0E5527B
:103B6000E552E552F3500001D35FF450D45B050EEB
:103B7000E66E15C114F016C115F00F0E1502F3CF45
:103B800015F01402F3CF14F0F450152614C0E6FF1C
:103B900015C0E6FF1BEC0EF0E552E552E552F3CFFF
:103BA000DFF0F4CFE0F01BC114F01CC115F0D89089
:103BB0001436153614500001D3271550D4231BC1D9
:103BC000E1F01CC1E2F0D3C016F0D4C017F00A0E29
:103BD0000D6E0E6A16C008F017C009F08AEC40F0AE
:103BE00008C016F009C017F0D880175004E7FF0E80
:103BF000165CFF0E175803E2146815682DD0D3C069
:103C000018F0D4C019F00A0E0D6E0E6A18C008F034
:103C100019C009F08AEC40F008C018F009C019F08A
:103C2000193404E218500108000E195404E2010E80
:103C3000146E156A11D0D3C014F0D4C015F00A0E5A
:103C40000D6E0E6A14C008F015C009F08AEC40F041
:103C500008C014F009C015F014C036F103D00101FA
:103C6000636B646B120001011951010113270101FB
:103C70001A51010114230101C551C61160E135C17A
:103C800014F0156A14BE156814500101132715505D
:103C9000142321CF14F00001146C156A14BE1568AA
:103CA00014C015F0146A010114511518E8AE02D0C1
:103CB000153404D01450135D155014590AE221CF65
:103CC00013F1136D146B13BF146913C114F1136B4B
:103CD0001ED021CF16F0176A16BE176816C017F04F
:103CE000166A17501419E8AE02D0143504D01351D7
:103CF000165C1451175809E221CF13F1146B13BF4E
:103D0000146913C114F1136B02D014C114F1800EA5
:103D1000141507E0010E1325136F000E1421146F04
:103D20000ED0143504E213510008000E145505E2BC
:103D3000010E135F000E145B02D0136B146B1200A4
:103D400001011B510101152701011C51010116231D
:103D50000101C551C61160E136C114F0156A14BEE7
:103D600015681450010115271550162326CF14F09D
:103D70000001146C156A14BE156814C015F0146A9D
:103D8000010116511518E8AE02D0153404D01450B4
:103D9000155D155016590AE226CF15F1156D166BF3
:103DA00015BF166915C116F1156B1ED026CF16F07A
:103DB000176A16BE176816C017F0166A175016193C
:103DC000E8AE02D0163504D01551165C16511758BE
:103DD00009E226CF15F1166B15BF166915C116F14C
:103DE000156B02D016C116F1800E161507E0010EF4
:103DF0001525156F000E1621166F0ED0163504E22C
:103E000015510008000E165505E2010E155F000E53
:103E1000165B02D0156B166B120001012B510101CC
:103E20000B2701012C5101010C230101AB513FE093
:103E30000101800E2C1509E02BC114F02CC115F0E6
:103E4000146C151E000E152204D02BC114F02CC1C9
:103E500015F0153404E214500A08000E155404E25B
:103E600001014F69506B23D00101523504E25151D9
:103E70001E08000E525506E21E0E01010B5F000ED9
:103E80000C5B15D0D880525104E7E20E515DFF0E55
:103E9000525906E21E0E01010B27000E0C2307D01B
:103EA000515101010B5F0101525101010C5B0101F4
:103EB0000B510101172701010C51010118232BCFD0
:103EC00014F00001146C156A14BE156814C015F0C6
:103ED000146A010118511518E8AE02D0153404D047
:103EE0001450175D155018590AE22BCF17F1176DB2
:103EF000186B17BF186917C118F1176B1ED02BCF9D
:103F000016F0176A16BE176816C017F0166A175013
:103F10001819E8AE02D0183504D01751165C1851A4
:103F2000175809E22BCF17F1186B17BF186917C183
:103F300018F1176B02D018C118F1800E181507E0A0
:103F4000010E1725176F000E1821186F0ED01835A7
:103F500004E217510008000E185505E2010E175F24
:103F6000000E185B02D0176B186B800E181507E057
:103F7000010E1725176F000E1821186F0ED0183577
:103F800004E217510008000E185505E2010E175FF4
:103F9000000E185B02D0176B186B1200E66A010E58
:103FA000E66E28EC44F0E552E552F3500101192782
:103FB000F4501A23E66A020EE66E28EC44F0E5524D
:103FC000E552F35001011B27F4501C23120001019C
:103FD000D8901A3319330101D8901C331B330101D7
:103FE000C63504E2C5510008000EC65561E2010164
:103FF00019510101132701011A5101011423010173
:104000001B510101152701011C510101162301015A
:10401000010EC51901E1C6514AE10101AA5114E19D
:1040200034CF14F0156A14BE15681450010113271B
:104030001550142335CF14F0156A14BE15681450AA
:104040000101152715501623080E0101156A1325C5
:10405000146E14511522040ED89015321432E8044F
:10406000FBE114C01FF115C020F1080E0101156A13
:104070001525146E16511522040ED89015321432DF
:10408000E804FBE114C021F115C022F10101236B0A
:10409000246B0101366B36C135F136C115F10101D2
:1040A000166B15BF166915C113F116C114F1B1D005
:1040B00001011F510101195F0101205101011A5B2A
:1040C0000101215101011B5F0101225101011C5B12
:1040D0000F012CA13AD00101195101011B2500014A
:1040E000E56F01011A5101011C210001E66F010178
:1040F000195101011B5F01011A5101011C5BE5C04F
:1041000019F1E6C01AF10101D89019371A37030ED8
:104110000D6E0E6A19C108F01AC109F08AEC40F060
:1041200008C019F109C01AF10101D8901B371C37DA
:10413000030E0D6E0E6A1BC108F01CC109F08AEC5B
:1041400040F008C01BF109C01CF1020EE66E19C157
:10415000E6FF1AC1E6FF1BEC0EF0E552E552E55210
:10416000F3CF07F1F4CF08F1010EE66E19C1E6FFB7
:104170001AC1E6FF1BEC0EF0E552E552E552F3CF13
:1041800019F1F4CF1AF16FDD020EE66E1BC1E6FFE6
:104190001CC1E6FF1BEC0EF0E552E552E552F3CFF1
:1041A00009F1F4CF0AF1010EE66E1BC1E6FF1CC156
:1041B000E6FF1BEC0EF0E552E552E552F3CF1BF1A2
:1041C000F4CF1CF1BDDDE66A040EE66E28EC44F087
:1041D000E552E552F3CF0BF1F4CF0CF10101D89089
:1041E0000C330B33D8900C330B33010123512411C2
:1041F00004E10BC123F10CC124F1235101010B5F38
:104200000101245101010C5B0BC11DF10CC11EF118
:1042100004DE1200CEEC1CF0040EE66E1DCF18F08A
:10422000196A18BE1968010118500703F3CF16F078
:10423000F4CF17F00803F3500001172619500101BD
:104240000703F350000117261FCF1CF01D6A1CBE88
:104250001D680101075101010D5D1A6E0E5101012A
:1042600008551B6E1AC008F01BC009F01CC00DF0E9
:104270001DC00EF011EC41F016500624146E1750BC
:104280000720156E14C0E6FF15C0E6FF1BEC0EF00C
:10429000E552E552E552F3CF5DF1F4CF5EF1010155
:1042A000C551C61126E1080EE66E1ECF16F0176A3C
:1042B00016BE1768010116501303F3CF14F0F4CFA4
:1042C00015F01403F35000011526175001011303D4
:1042D000F3500001152614C0E6FF15C0E6FF1BECE5
:1042E0000EF0E552E552E552F35001015D27F4501E
:1042F0005E230101275101015D5F01012851010188
:104300005E5B040EE66E22CF18F0196A18BE1968BB
:10431000010118500903F3CF16F0F4CF17F00A0388
:10432000F35000011726195001010903F350000151
:10433000172624CF1CF01D6A1CBE1D6801010951FF
:1043400001010F5D1A6E105101010A551B6E1AC052
:1043500008F01BC009F01CC00DF01DC00EF011ECE0
:1043600041F016500624146E17500720156E14C025
:10437000E6FF15C0E6FF1BEC0EF0E552E552E552F4
:10438000F3CF5FF1F4CF60F10101C551C61126E111
:10439000080EE66E23CF16F0176A16BE17680101E5
:1043A00016501503F3CF14F0F4CF15F01603F350A5
:1043B00000011526175001011503F35000011526C1
:1043C00014C0E6FF15C0E6FF1BEC0EF0E552E55207
:1043D000E552F35001015F27F45060230101295198
:1043E00001015F5F01012A510101605B040EE66E6D
:1043F00027CF18F0196A18BE1968010118500B036D
:10440000F3CF16F0F4CF17F00C03F350000117268A
:10441000195001010B03F3500001172629CF1CF09E
:104420001D6A1CBE1D6801010B510101115D1A6E50
:10443000125101010C551B6E1AC008F01BC009F087
:104440001CC00DF01DC00EF011EC41F016500624FA
:10445000146E17500720156E14C0E6FF15C0E6FF56
:104460001BEC0EF0E552E552E552F3CF61F1F4CFCB
:1044700062F1080EE66E28CF16F0176A16BE1768AE
:10448000010116501703F3CF14F0F4CF15F0180301
:10449000F35000011526175001011703F3500001D6
:1044A000152614C0E6FF15C0E6FF1BEC0EF0E55222
:1044B000E552E552F35001016127F45062232ACFFF
:1044C00014F00001146C156A14BE156801016251E4
:1044D0001518E8AE02D0153404D01450615D1550A3
:1044E000625907E22ACF61F1616D626B61BF626957
:1044F00018D02ACF16F0176A16BE1768175062191F
:10450000E8AE02D0623504D06151165C6251175892
:1045100006E22ACF61F1626B61BF626902D062C1BB
:1045200062F184EF14F0010E0101C96FCA6B010141
:104530000051146E156AD890155004E61A0E145CDA
:10454000000E15582AE30101A55101E126D0A7511B
:1045500021E0FDEC2CF00101A76B0101C907000E61
:10456000CA5BCA3504E2C9510008000ECA5512E3FD
:1045700001014EB506D0040EE66E25EC14F0E552AE
:1045800005D0040EE66E32EC14F0E5520A0E01017D
:10459000C96FCA6B25EC2EF0CAD7040EE66E32EC5A
:1045A00014F0E55212000101A75158E00101C8358D
:1045B00004E2C7510008000EC8550FE20101CD51B9
:1045C000010B04E10101C707000EC85B0101C751DF
:1045D000C81102E125C13CF141D00A0E01013C5D48
:1045E00004E20001E76BE86B05D00A0E3C5D0001B8
:1045F000E76FE86B4B0E010126AF02D0D89003D0D5
:10460000255D000E265903E20101C769C86B01014F
:1046100026510001E819E8AE02D0E83507D0E7518D
:104620000101255D0001E8510101265903E2010164
:10463000C769C86B0A0E01013C25146E156A010199
:1046400015502619E8AE02D0263504D02551145C49
:104650002651155803E20101C769C86B1200140EF8
:104660000101C96FCA6B020EE66EE66AB4EC0DF08A
:10467000E552E55225EC2EF00101A55112E180A88A
:104680000FD00101C907000ECA5BC951CA1107E169
:104690000101010EB76F020E0101C96FCA6B01D093
:1046A000B76B0101A551DFE08050100BDCE0120078
:1046B000D9CFE6FFE1CFD9FFE552E7CFD9FF12000E
:1046C000D5C114F0D6C115F0D7C116F0D8C117F076
:1046D0000F0E1416156A166A176A14501510161064
:1046E000171026E1010125C114F026C115F0250798
:1046F000000E265B0001800E151404E00101256BFD
:10470000266B16D0010125C116F026C117F025072A
:10471000000E265B173404E21650F008000E175402
:1047200004E2F00E256F266B03D02507000E265BF2
:104730001200D9CFE6FFE1CFD9FF0101B95101E164
:10474000AAD0010127510101DF25146E0101285172
:104750000101E021156ED880155004E7890E145C24
:10476000FF0E155805E20101890E276F286921D037
:10477000010127510101DF25166E010128510101B8
:10478000E021176E173404E216507708000E175414
:1047900005E20101770E276F286B0BD0010127512D
:1047A0000101DF250101276F28510101E0210101ED
:1047B000286F010129510101E325146E01012A51DD
:1047C0000101E421156ED880155004E7890E145CB0
:1047D000FF0E155805E20101890E296F2A6921D0C3
:1047E000010129510101E325166E01012A51010140
:1047F000E421176E173404E216507708000E1754A0
:1048000005E20101770E296F2A6B0BD001012951B6
:104810000101E3250101296F2A510101E421010170
:104820002A6F01012B510101E725146E01012C5162
:104830000101E821156ED880155004E7890E145C3B
:10484000FF0E155805E20101890E2B6F2C6921D04E
:1048500001012B510101E725166E01012C510101C7
:10486000E821176E173404E216507708000E17542B
:1048700005E20101770E2B6F2C6B0BD001012B5140
:104880000101E72501012B6F2C510101E8210101F4
:104890002C6F61EF28F0FB0EDBCF08F0FC0EDBCFB6
:1048A00009F00201E751085C0101F86F0201E851CB
:1048B00009580101F96FFD0EDBCF08F0FE0EDBCFCA
:1048C00009F00201E551085C0101FA6F0201E651AD
:1048D00009580101FB6F800EF91509E0F8C114F0C9
:1048E000F9C115F0146C151E000E152204D0F8C184
:1048F00014F0F9C115F0D890155004E6010E145CBF
:10490000000E155819E2800EFB1509E0FAC116F0E9
:10491000FBC117F0166C171E000E172204D0FAC147
:1049200016F0FBC117F0D890175004E6010E165C84
:10493000000E175801E2BBD3800EFB1509E0FAC147
:1049400014F0FBC115F0146C151E000E152204D0D6
:10495000FAC114F0FBC115F0800EF91509E0F8C199
:1049600016F0F9C117F0166C171E000E172204D0AE
:10497000F8C116F0F9C117F015501718E8AE02D0BB
:10498000173404D01650145C1750155811E2800EDD
:10499000F91509E0F8C1F6F1F9C1F7F1F66DF71F65
:1049A000000EF72304D0F8C1F6F1F9C1F7F110D0E9
:1049B000800EFB1509E0FAC1F6F1FBC1F7F1F66DC7
:1049C000F71F000EF72304D0FAC1F6F1FBC1F7F18F
:1049D000F6C114F0F7C115F0166A176A15AE02D0C9
:1049E00016681768D8901750000A08E6640E145C21
:1049F000000E1558000E1658000E17582EE2FA51E8
:104A0000FA03F3CF16F0F4CF17F0FB03F3500001D5
:104A10001726FBC1E8FF0101FA03F3500001172636
:104A2000F8C108F0F9C109F0F8C10DF0F9C10EF0B4
:104A300011EC41F016500624146E17500720156E25
:104A400014C0E6FF15C0E6FFB6EC13F0E552E552E0
:104A5000F3CFF6F1F4CFF7F103D0640EF66FF76BF6
:104A6000140E0101065D146E000E145C04E20101D7
:104A7000F46BF56B15D0140E065D156E166A1634C0
:104A800004E215500008010E165405E20101F46B12
:104A9000010EF56F05D0140E065D0101F46FF56B84
:104AA000F4C106F0F5C107F0086A096A07AE02D042
:104AB000086809681E0E0B6E0C6A0D6A0E6AB9EC66
:104AC00043F002C006F003C007F004C008F005C0C0
:104AD00009F0640E0B6E0C6A0D6A0E6ADDEC40F094
:104AE00006C0F2F107C0F3F1F2C11CF0F3C11DF0F2
:104AF0001E6A1F6A1DAE02D01E681F68F6C118F03C
:104B0000F7C119F01A6A1B6A19AE02D01A681B683D
:104B100018C006F019C007F01AC008F01BC009F051
:104B20001CC00BF01DC00CF01EC00DF01FC00EF01D
:104B3000B9EC43F002C014F003C015F004C016F045
:104B400005C017F0080ED8901732163215321432FD
:104B5000E806F9E114C0EEF115C0EFF116C0F0F16E
:104B600017C0F1F1FAC1E6FFFBC1E6FFF8C1E6FFAD
:104B7000F9C1E6FF6BEC12F0E552E552E552E55261
:104B8000F3CFFCF1F4CFFDF1F6C114F0F7C115F04D
:104B9000166A176A15AE02D016681768D8901750B3
:104BA000000A08E6640E145C000E1558000E165834
:104BB000000E175801E2F0D00101BA5101E1ECD02A
:104BC0000201F7510101FC5D146EFD510201F8551F
:104BD000156E14C0E6FF15C0E6FFF8EC10F0E552C4
:104BE000E552F3CFECF1F4CFEDF10101D880ED51B6
:104BF00004E7DD0EEC5DF90EED5905E2DD0EEC6F1C
:104C0000F90EED6F0ED0ED3504E2EC512308060EDF
:104C1000ED5505E2230EEC6F060EED6F02D0EDC1EF
:104C2000EDF1DF6BE06B800EED1509E0ECC118F0E3
:104C3000EDC119F0186C191E000E192204D0ECC138
:104C400018F0EDC119F0460ED88018560C0E195602
:104C50001A6A1B6A19AE02D01A681B68EEC114F0FA
:104C6000EFC115F0F0C116F0F1C117F0050E145E9A
:104C7000000E155A165A175A14C006F015C007F040
:104C800016C008F017C009F018C00BF019C00CF0DE
:104C90001AC00DF01BC00EF0B9EC43F002C006F0D4
:104CA00003C007F004C008F005C009F0460E0B6E03
:104CB0000C0E0C6E0D6A0E6ADDEC40F0050E062639
:104CC000000E0722082209220B680C680D680E6886
:104CD000B9EC43F002C0E3F103C0E4F10201F635A0
:104CE00004E2F5511408000EF65555E2ECC118F037
:104CF000EDC119F0186C191E000E19221A6A1B6AF0
:104D000019AE02D01A681B68D8801B50FF0A08E64B
:104D1000B50E185CFF0E1958FF0E1A58FF0E1B58DF
:104D200006E2B50E146E15681668176830D0ECC12F
:104D30001CF0EDC11DF01C6C1D1E000E1D221E6A14
:104D40001F6A1DAE02D01E681F681F34000E1F1898
:104D500009E6D8804B0E1C54000E1D54000E1E5444
:104D6000000E1F5406E24B0E146E156A166A176A7F
:104D70000ED0ECC114F0EDC115F0146C151E000E30
:104D80001522166A176A15AE02D01668176814C085
:104D9000E7F115C0E8F1A0D001012D510101FC5D42
:104DA000146EFD5101012E55156E14C0E6FF15C09D
:104DB000E6FFB7EC10F0E552E552F3CFECF1F4CF9B
:104DC000EDF1080EE66EECC1E6FFEDC1E6FFB6ECD4
:104DD00011F0E552E552F3CF18F0F4CF19F01A6A4A
:104DE0001B6A19AE02D01A681B6818C006F019C0F9
:104DF00007F01AC008F01BC009F0EEC10BF0EFC1BC
:104E00000CF0F0C10DF0F1C10EF0B9EC43F002C0AE
:104E100014F003C015F004C016F005C017F014C05C
:104E2000E6FF15C0E6FF16C0E6FF17C0E6FF5FEC21
:104E30000EF01C6E050EE15E1C5006C0DFF107C0CF
:104E4000E0F1080EE66EECC1E6FFEDC1E6FF51ECC5
:104E500012F0E552E552F3CF18F0F4CF19F01A6AC8
:104E60001B6A19AE02D01A681B68000E186C191E56
:104E700019221A1E1A221B1E1B2218C006F019C066
:104E800007F01AC008F01BC009F0EEC10BF0EFC12B
:104E90000CF0F0C10DF0F1C10EF0B9EC43F002C01E
:104EA00014F003C015F004C016F005C017F014C0CC
:104EB000E6FF15C0E6FF16C0E6FF17C0E6FF5FEC91
:104EC0000EF01C6E050EE15E1C5006C0E3F107C03B
:104ED000E4F10101E76BE86B0101800EE21502E0ED
:104EE000FF0E01D0010E146E800EE01502E0FF0EE1
:104EF00001D0010E145C29E1E151F625146EE25156
:104F0000F721156ED880155004E7000E145CFF0ED3
:104F1000155803E2E16BE26917D0E151F625166EF0
:104F2000E251F721176E173404E216500008010E03
:104F3000175404E2E16B010EE26F06D0E151F62551
:104F4000E16FE251F721E26F02D0E16BE26BE1C168
:104F500016F0E2C117F00D6A010E0E6E16C008F0D1
:104F600017C009F08AEC40F008C016F009C017F02D
:104F70000101DF511624146EE0511720156E1450F4
:104F80000101272715502823D880285104E7890ECE
:104F9000275DFF0E285904E2890E276F28690DD07E
:104FA000283504E227517708000E285504E2770ED1
:104FB000276F286B02D028C128F10101800EE61569
:104FC00002E0FF0E01D0010E146E800EE41502E027
:104FD000FF0E01D0010E145C29E1E551F625146E97
:104FE000E651F721156ED880155004E7000E145CC9
:104FF000FF0E155803E2E56BE66917D0E551F6257B
:10500000166EE651F721176E173404E216500008A9
:10501000010E175404E2E56B010EE66F06D0E55170
:10502000F625E56FE651F721E66F02D0E56BE66BFA
:10503000E5C116F0E6C117F00D6A010E0E6E16C03E
:1050400008F017C009F08AEC40F008C016F009C05B
:1050500017F00101E3511624146EE4511720156E68
:1050600014500101292715502A23D8802A5104E71A
:10507000890E295DFF0E2A5904E2890E296F2A69DB
:105080000DD02A3504E229517708000E2A5504E292
:10509000770E296F2A6B02D02AC12AF10101E7514C
:1050A00001012B270101E85101012C2307D0000E3B
:1050B000E76FE86BE36FE46BDF6FE06B0101010EFC
:1050C000B96FE552E7CFD9FF12000101005101018C
:1050D000256F266B01C127F10101286B27BF2869C5
:1050E00002C129F101012A6B29BF2A6903C12BF1F1
:1050F00001012C6B2BBF2C6972EC1CF00101A65135
:1051000003E0A55101E18BD0B65101E188D0AB514C
:1051100070E001010451146E156A153404E2145054
:105120007708000E15540FE20101020EEB6F000E1E
:10513000E66EE66AE66EE66A99EC23F0E552E55221
:10514000E552E55255D00101800E281509E027C12E
:1051500014F028C115F0146C151E000E152204D091
:1051600027C114F028C115F0153404E214500A08C0
:10517000000E155418E30101800E2A1509E029C11B
:1051800016F02AC117F0166C171E000E172204D055
:1051900029C116F02AC117F0173404E216500A0884
:1051A000000E175414E2E5C2E9F2E6C2EAF2E7C2E1
:1051B000EBF2E8C2ECF2000E0101E96FEA6BE56F79
:1051C000E66BE16FE26BEB6B0101B96B11D0010192
:1051D000010EEB6FEBC2E6FFECC2E6FFE9C2E6FFB1
:1051E000EAC2E6FF99EC23F0E552E552E552E552BA
:1051F00016D001014EB506D0040EE66E25EC14F073
:10520000E55205D0040EE66E32EC14F0E552EB0EDA
:10521000E66E750EE66E44EC35F0E552E55212008E
:10522000000E0201EB6FEC6B0201E96FEA6B01010A
:10523000E96FEA6BE76FE86BE56FE66BE36FE46BD2
:10524000E16FE26BDF6FE06BEB6B0101B96B12009A
:10525000D9CFE6FFE1CFD9FFFD0EDBCF14F0FE0E74
:10526000DBCF15F0010E186E0F013351E76E1818E1
:10527000E8AE02D0E73402D0E750185C02E23351C6
:1052800001D0010E166E176A16BE17681550171852
:10529000E8AE02D0173404D01650145C17501558DD
:1052A00016E2010E196E3351E76E1918E8AE02D0FE
:1052B000E73402D0E750195C02E2335101D0010E0D
:1052C0000F01006F016B800B01E0016918D0FD0E2A
:1052D000DBCF1AF0FE0EDBCF1BF01B3404E21A50BA
:1052E000F008000E1B5405E20F01F00E006F016B79
:1052F00006D0FD0EDBCF00FFFE0EDBCF01FF0F015E
:10530000005100D0E552E7CFD9FF1200D9CFE6FF18
:10531000E1CFD9FFFD0EDBCF59F1FE0EDBCF5AF105
:1053200059C157F15AC158F159C155F15AC156F1F5
:10533000FD0EDBCF5BF1FE0EDBCF5CF10F012CA18C
:1053400062D001015D5101015F5D166E6051010186
:105350005E55176E01016151165C146E625117584B
:10536000156E145001015727155058230868096815
:105370005FC10DF060C10EF011EC41F0065001016B
:105380005D25166E07505E21176E01016151165C96
:10539000146E62511758156E14500101592715509B
:1053A0005A23086809685FC10DF060C10EF011EC66
:1053B00041F001015D51065C166E5E510758176E93
:1053C000165001016125146E17506221156E14509C
:1053D000010155271550562301015F5101015D253B
:1053E000166E0101605101015E21176E1650010118
:1053F0006125146E17506221156E145001015B2750
:1054000015505C2345D0086809685DC10DF05EC188
:105410000EF011EC41F001016151065C146E625115
:105420000758156E145001015727155058230101D4
:10543000615101015D5D146E5E5101016255156E91
:1054400014500101592715505A23086809685FC193
:105450000DF060C10EF011EC41F006500101612524
:10546000146E07506221156E145001015527155016
:10547000562301015F5101016125146E0101605144
:1054800001016221156E145001015B2715505C2348
:10549000E552E7CFD9FF1200D9CFE6FFE1CFD9FF20
:1054A000010156515819E8AE02D0583504D0575171
:1054B000555D5851565905E257C10FFF58C110FFAD
:1054C00004D055C10FFF56C110FF0F01116B10BF63
:1054D000116959C114F05AC115F0166A15BE166843
:1054E00011511618E8AE02D0163406D014500F5DD4
:1054F000155010591650115908E259C10FFF5AC1E1
:1055000010FF116B10BF116902D011CF11FF5BC1E9
:1055100014F05CC115F0166A15BE16681151161804
:10552000E8AE02D0163406D014500F5D1550105955
:105530001650115908E25BC10FFF5CC110FF116BDF
:1055400010BF116902D011CF11FFFD0EDBCF14F097
:10555000FE0EDBCF15F0166A15BE16680F0EE96E4B
:105560000F0EEA6E1450EE5C126F1550EE58136F6A
:105570001650EE58146FFD0EDBCF14F0FE0EDBCF8D
:1055800015F033CF16F0176A16BE176815501718A6
:10559000E8AE02D0173404D01650145C17501558DA
:1055A00006E2066B076B086B010E046F38D11435E9
:1055B000000E141907E6D880000E1255000E135580
:1055C000000E145501E32AD1F00E176E186A196AFD
:1055D000FD0EDBCF1AF0FE0EDBCF1BF01C6A1BBEEC
:1055E0001C681A50175C146E1B501858156E1C500E
:1055F0001958166E15C016F014C015F014C015F029
:10560000146A14C007F015C008F016C009F012CFD4
:105610000CF013CF0DF014CF0EF0B0EC40F007C03B
:1056200009FF08C00AFF09C00BFFFD0EDBCF17F012
:10563000FE0EDBCF18F0196A18BE196833CF1AF0C6
:105640001B6A1C6A1AAE02D01B681C681A50175CD1
:10565000146E1B501858156E1C501958166E15C034
:1056600016F014C015F014C015F0146A14C007F039
:1056700015C008F016C009F012CF0CF013CF0DF0D2
:1056800014CF0EF0B0EC40F007C00CFF08C00DFFC7
:1056900009C00EFF090EE96E0F0EEA6E020EEB5006
:1056A0000F010E19E8AE02D00E3506D00C51EE5C9B
:1056B0000D51EE580E51EE5807E209CF06FF0ACF02
:1056C00007FF0BCF08FF06D00CCF06FF0DCF07FF5B
:1056D0000ECF08FFD8900851000A06E6000E065DBE
:1056E000010E0759000E085901E396D0010E046F10
:1056F0005DC117F05EC118F0196A18BE196817C0AD
:1057000007F018C008F019C009F006CF0CF007CF59
:105710000DF008CF0EF05CEC41F004C014F005C0B1
:1057200015F006C016F00C6A010E0D6E0E6A14C05C
:1057300007F015C008F016C009F0B0EC40F007C043
:1057400014F008C015F009C016F014C05DF115C0C2
:105750005EF15FC117F060C118F0196A18BE1968D0
:1057600017C007F018C008F019C009F006CF0CF0F8
:1057700007CF0DF008CF0EF05CEC41F004C014F040
:1057800005C015F006C016F00C6A010E0D6E0E6A0B
:1057900014C007F015C008F016C009F0B0EC40F0D6
:1057A00007C014F008C015F009C016F014C05FF16E
:1057B00015C060F161C117F062C118F0196A18BE16
:1057C000196817C007F018C008F019C009F006CF13
:1057D0000CF007CF0DF008CF0EF05CEC41F004C0E8
:1057E00014F005C015F006C016F00C6A010E0D6E1F
:1057F0000E6A14C007F015C008F016C009F0B0EC2E
:1058000040F007C014F008C015F009C016F014C02D
:1058100061F115C062F101D0046B01D0046BE55257
:10582000E7CFD9FF12000101635101014925146E30
:105830000101645101014A21156E01012551142411
:105840000F01176F0101265115200F01186F800EEF
:10585000181503E0176B186B0DD0183504E21751BB
:10586000D808000E185504E2D80E176F186B02D036
:1058700018CF18FF17CFE6FF18CFE6FF47DDE55238
:10588000E55217CFE6FF18CFE6FF06DEE552E552F8
:105890000F01045107E017CFE6FF18CFE6FF36DD12
:1058A000E552E55255C1E6FF56C1E6FFD1DCE552AF
:1058B000E5520101556F566B5BC1E6FF5CC1E6FF27
:1058C000C7DCE552E55201015B6F5C6B57C1E6FF37
:1058D00058C1E6FFBDDCE552E5520101576F586B38
:1058E00059C1E6FF5AC1E6FFB3DCE552E5520101BA
:1058F000596F5A6B12000101C551C6112DE10F01FC
:105900002F5103E10F01365127E02FCF14F0156A14
:1059100014BE156813C108F014C109F014C00DF0CD
:1059200015C00EF08AEC40F008C019FF09C01AFF3C
:1059300036CF14F0156A14BE156815C108F016C1EB
:1059400009F014C00DF015C00EF08AEC40F008C04C
:105950001BFF09C01CFF06D0010E0F011B6F1C6B43
:10596000196F1A6B770E0F011927000E1A23010108
:105970000551146E156A14500F011B2715501C2376
:10598000010E1AAF02D0D89003D0195D000E1A593B
:1059900004E2010E146E156A0FD01A3504E2195193
:1059A000F008000E1A5504E2F00E146E156A04D0C9
:1059B00019CF14F01ACF15F014C053F1010E1CAF1B
:1059C00002D0D89003D01B5D000E1C5904E2010EDA
:1059D000146E156A0FD01C3504E21B51F008000E3E
:1059E0001C5504E2F00E146E156A04D01BCF14F09F
:1059F0001CCF15F014C054F11200000EE66EE66ADA
:105A000003EC45F0E552E552F29400010F0E806F71
:105A10000F0E811255C181F05BC182F057C183F036
:105A200059C184F053C185F054C186F0C7EC44F0ED
:105A3000F3CF14F0F4CF15F0A90E145C000E155836
:105A400001E2F4D7F29EF2A4FED7F2940101B05124
:105A500005E000013F0E806F3F0E81120101B07121
:105A600000018051816E0F0B12E0812F39EF2DF074
:105A70008091832F3DEF2DF08093842F41EF2DF007
:105A80008095822F31EF2DF0809731EF2DF0F28E3F
:105A9000C7EC44F0F3CF14F0F4CF15F0A90E145C6A
:105AA000000E155801E2F4D7F29EF2A4FED70001D1
:105AB0008051816E300B0EE0852F60EF2DF08099C4
