:020000040000FA
:06000000B5EF35F012001F
:020006001200E6
:06000800EFEF2CF01200E6
:02000E00C250DE
:08001000020B01E0010E1200D9
:06001800E5EF2CF01200E0
:02001E000400DC
:100020003C6C0000F10100000C0000001A6C0000A4
:100030008E02000022000000FE6B0000B0020000F3
:100040001C000000DC6B0000CF010000220000005B
:10005000D9CFE6FFE1CFD9FF030EE126F250200B06
:1000600001E0010EE76E020EE7CFDBFFF29AFD0E14
:10007000DBCFDEFFDBCFDDFFD9CFE9FFDACFEAFF51
:10008000EE50ED1008E0F2A4FED7F294DF06010E68
:1000900001E2DB06F1D7020EDB50E8B0F28AE8A0FD
:1000A000F29A030EE15C02E2E16AE552E16EE5528A
:1000B000E7CFD9FF1200D9CFE6FFE1CFD9FF050E78
:1000C000E126F250200B01E0010EE76E040EE7CFAF
:1000D000DBFFF29ADE6ADD6ADECF14F0DDCF15F0C9
:1000E000FD0EDBCF16F0FE0EDBCF17F00A0E170267
:1000F000F3CF17F01602F3CF16F0F4501726155071
:100100001718E8AE02D0173404D01650145C1750FC
:10011000155828E2080EF36E020EF3CFDBFF030E34
:10012000DB6AD950020FE96EDACFEAFFEE50ED102C
:1001300009E0F2A4FED7F294020EDB06030E01E200
:10014000DB06EFD79FEC1AF09EAA07D0040EDB5017
:10015000E8B0F28AE8A0F29A0BD0DF2A010E01E3A0
:10016000DB2ABAD7040EDB50E8B0F28AE8A0F29A94
:10017000050EE15C02E2E16AE552E16EE552E7CF8D
:10018000D9FF1200D9CFE6FFE1CFD9FFFD0EDBCFBB
:1001900016F0FE0EDBCF17F00001800E17141BE0E7
:1001A000FD0EDBCF18F0FE0EDBCF19F0186C191E18
:1001B000000E1922FC0EDB5018C014F019C015F007
:1001C00005E0D89015321432E804FBE1146C151EDA
:1001D000000E152212D0FD0EDBCF1AF0FE0EDBCF83
:1001E0001BF0FC0EDB501AC014F01BC015F005E02C
:1001F000D89015321432E804FBE114C0F3FF15C0A7
:10020000F4FF00D0E552E7CFD9FF1200D9CFE6FFC7
:10021000E1CFD9FFD950FB0FE96EFF0EDA20EA6E6D
:10022000D890030EEB50000A08E6000EEE5C000EBC
:10023000EE58000EEE58000EEE5830E2FB0EDBCF0B
:1002400018F0FC0EDBCF19F0FD0EDBCF1AF0FE0E1E
:10025000DBCF1BF0000E186C191E19221A1E1A2271
:100260001B1E1B22FA0EDB501F0B18C014F019C006
:1002700015F01AC016F01BC017F007E0D89017321F
:10028000163215321432E806F9E1000E146C151E10
:100290001522161E1622171E172219D0D950FB0F31
:1002A000E96EFF0EDA20EA6EFA0EDB501F0BEECF7E
:1002B00014F0EECF15F0EECF16F0EECF17F007E00A
:1002C000D8901732163215321432E806F9E114C00C
:1002D00006F015C007F016C008F017C009F000D0EE
:1002E000E552E7CFD9FF12003F0E926E020EC16EAB
:1002F000C00E816E400E936E600E826E840E946E00
:10030000C78CF19E1200D9CFE6FFE1CFD9FFE652AC
:10031000DF6ADFCF14F0040EE76E1418E8AE02D0E7
:10032000E73402D0E750145C11E2DFCFE9FFEA6A5C
:10033000E9BEEA68D890E936EA36550EE926010E9C
:10034000EA22010EEE6EED6ADF2AE3D70101770E95
:10035000536F53C154F10101966B000E0101116FEF
:10036000126B01010F6F106B01010D6F0E6B01011C
:10037000496F4A6B0101636F646B01013A6B3B6B20
:100380000101366B36C135F10101156F166B0101A4
:10039000136F146B0101176F186B01014D6B010195
:1003A000C96BCA6BCB6BE552E552E7CFD9FF1200A0
:1003B000D9CFE6FFE1CFD9FFFD0EDBCF14F0FE0E63
:1003C000DBCF15F0166A176A15AE02D016681768EB
:1003D000790E0B6E480E0C6E0D6A0E6A14C006F094
:1003E00015C007F016C008F017C009F007EC34F08C
:1003F00002C014F003C015F004C016F005C017F0D9
:10040000A00E0B6E860E0C6E010E0D6E0E6A14C0E1
:1004100006F015C007F016C008F017C009F0C7ECC9
:1004200030F006C014F007C015F008C016F009C07F
:1004300017F014C0F3FF15C0F4FF00D0E552E7CF6A
:10044000D9FF1200D9CFE6FFE1CFD9FFFD0EDBCFF8
:1004500014F0FE0EDBCF15F0166A176A15AE02D047
:1004600016681768A00E0B6E860E0C6E010E0D6ED0
:100470000E6A14C006F015C007F016C008F017C0C9
:1004800009F007EC34F002C014F003C015F004C00A
:1004900016F005C017F0790E0B6E480E0C6E0D6A43
:1004A0000E6A14C006F015C007F016C008F017C099
:1004B00009F0C7EC30F006C014F007C015F008C012
:1004C00016F009C017F014C0F3FF15C0F4FF00D0F8
:1004D000E552E7CFD9FF1200D9CFE6FFE1CFD9FF30
:1004E000E652FE0EDB50A96EA69EA680A850DF6ED7
:1004F000A66ADF5000D0E552E552E7CFD9FF1200DF
:10050000D9CFE6FFE1CFD9FF050EE1260101045165
:10051000146E156A153404E214507708000E155451
:1005200008E2200EF36E030EF3CFDBFF040EDB6A4E
:1005300004D0030EDB6A040EDB6AB00EDE6E020E20
:10054000DD6EDECF14F0DDCF15F0CB0ED880145465
:10055000020E15541AE3030EDBCF14F0DB2A040E4F
:10056000DBCF15F001E3DB2A1450E66EB5DFE55270
:10057000E66EDECFE9FFDDCFEAFFE552E750EF6E32
:10058000DF2A010E01E3DB2ADCD7C1C2CCF1020E67
:100590000201E76EC019E8AE02D0E73402D0E7509E
:1005A000C05D02E2020E0ED0140EE76EC019E8AE76
:1005B00002D0C03503D0E750D880C05502E2140EF7
:1005C00001D0C051C06F050EE15C02E2E16AE55264
:1005D000E16EE552E7CFD9FF1200D9CFE6FFE1CFB8
:1005E000D9FF020EE126FE0EDBCFE6FF75DFE552F6
:1005F000DF6EFD0EDB50DF5C1DE0FD0EDB50A86EF4
:10060000FE0EDB50A96EA69EA684F250800B01E080
:10061000010EE76E010EE7CFDBFFF29E550EA76ECF
:10062000AA0EA76EA682A6B2FED7010EDB5001E08D
:10063000F28EA694020EE15C02E2E16AE552E16EFE
:10064000E552E7CFD9FF1200D9CFE6FFE1CFD9FFBE
:10065000050EE126FE0EDB0405E1030EDB6A040E47
:10066000DB6A07D0200EF36E030EF3CFDBFF040E20
:10067000DB6AB00EDE6E020EDD6EDECF14F0DDCF73
:1006800015F0CB0ED8801454020E155419E3DFCFA9
:10069000E9FFDF2A010EDBCFEAFF01E3DB2AEF509F
:1006A000E66E030EDBCF14F0DB2A040EDBCF15F071
:1006B00001E3DB2A1450E66E90DFE552E552DDD708
:1006C000050EE15C02E2E16AE552E16EE552E7CF38
:1006D000D9FF1200D9CFE6FFE1CFD9FF020EE12604
:1006E0000FDF020EE15C02E2E16AE552E16EE552E3
:1006F000E7CFD9FF1200D9CFE6FFE1CFD9FFFD0E3A
:10070000DBCF14F0FE0EDBCF15F00001800E1514C8
:100710000BE0D950FD0FE96EFF0EDA20EA6E8C0E69
:10072000EE26180EED22EBD7FD0EDBCF14F0FE0EF9
:10073000DBCF15F0D890155004E68C0E145C180E23
:1007400015580BE3D950FD0FE96EFF0EDA20EA6E63
:100750008C0EEE5E180EED5AE7D7FD0EDBCF14F0CF
:10076000FE0EDBCF15F014C0F3FF15C0F4FF00D070
:10077000E552E7CFD9FF1200D9CFE6FFE1CFD9FF8D
:100780000A0EE126FD0EDBCF14F0FE0EDBCF15F0D6
:10079000040ED89015321432E804FBE11450DF6ED9
:1007A0000F0EE76EFD0EDBCF14F0FE0EDBCF15F063
:1007B000E7501416156A010E14C0DBFF156ADF340A
:1007C000FE0B1536146EFB0EDB501424E96EFC0E86
:1007D000DB501520EA6E040EEECFDBFF050EEDCFE9
:1007E000DBFFDF2A156ADF34FE0B1536146EFB0EB5
:1007F000DB501424E96EFC0EDB501520EA6E060E69
:10080000EECFDBFF070EEDCFDBFF010EDB50186EE6
:10081000196A060EDBCF16F0070EDBCF17F0040EB9
:10082000DB50165C146E050EDB501758156E14C0A5
:1008300008F015C009F018C00DF019C00EF0FBEC5F
:1008400030F0020E06C0DBFF030E07C0DBFF040E14
:10085000DBCF16F0050EDBCF17F016C0E6FF17C092
:10086000E6FF040EE66E020EDBCFE6FF030EDBCFE3
:10087000E6FF88DCE552E552E552E552E7CF17F096
:10088000E552E7CF16F01650F324146E1750F420FB
:10089000156E080E14C0DBFF090E15C0DBFF080E35
:1008A000DBCF14F0090EDBCF15F014C0F3FF15C039
:1008B000F4FF0A0EE15C03E200D0E16AE552E16E6A
:1008C000E552E7CFD9FF1200D9CFE6FFE1CFD9FF3C
:1008D000030EE126FD0EDBCF14F0FE0EDBCF15F08C
:1008E0000001800E15140BE0D950FD0FE96EFF0ECC
:1008F000DA20EA6E8C0EEE26180EED22EBD7FD0EF6
:10090000DBCF14F0FE0EDBCF15F0D890155004E6C7
:100910008C0E145C180E15580BE3D950FD0FE96EC0
:10092000FF0EDA20EA6E8C0EEE5E180EED5AE7D757
:10093000FD0EDBCF14F0FE0EDBCF15F0D890155076
:1009400004E6460E145C0C0E155802E2000E01D0AF
:10095000010EE76E020EE7CFDBFFDB500AE0D95055
:10096000FD0FE96EFF0EDA20EA6E460EEE5E0C0E0B
:10097000ED5ACF0EE66E010EE66EFD0EDBCF14F0E3
:10098000FE0EDBCF15F0166A15BE166815C016F000
:1009900014C015F014C015F0146A230E1426060EA8
:1009A0001522000E1622460E0C6E0C0E0D6E0E6AEF
:1009B00014C007F015C008F016C009F09AEC30F02A
:1009C00007C014F008C015F009C016F014C0E6FF07
:1009D00015C0E6FFD1DEE552E552E552E552F3CF10
:1009E000DEFFF4CFDDFF020EDB500CE00868096883
:1009F000DECF0DF0DDCF0EF0FBEC30F006C0DEFFF9
:100A000007C0DDFFDECF14F0DDCF15F014C0F3FF1B
:100A100015C0F4FF030EE15C03E200D0E16AE55289
:100A2000E16EE552E7CFD9FF1200D9CFE6FFE1CF63
:100A3000D9FFFD0EDBCF14F0FE0EDBCF15F0230E39
:100A40001426060E152214C0E6FF15C0E6FF3CDF93
:100A5000E552E55200D0E552E7CFD9FF1200D9CFD9
:100A6000E6FFE1CFD9FF0E0EE126FD0EDBCF18F039
:100A7000FE0EDBCF19F00001800E19140BE0FD0E05
:100A8000DBCF14F0FE0EDBCF15F0146C151E000E3C
:100A9000152206D0FD0EDBCF14F0FE0EDBCF15F0D5
:100AA000166A176A15AE02D016681768040E14C0CD
:100AB000DBFF050E15C0DBFF060E16C0DBFF070EC1
:100AC00017C0DBFFFB0EDBCF18F0FC0EDBCF19F0FD
:100AD000800E19140BE0FB0EDBCF14F0FC0EDBCF05
:100AE00015F0146C151E000E152206D0FB0EDBCF80
:100AF00014F0FC0EDBCF15F0166A176A15AE02D0A3
:100B00001668176814C0DFFF010E15C0DBFF020E68
:100B100016C0DBFF030E17C0DBFFD950FB0FE96ED9
:100B2000FF0EDA20EA6EEE50ED101FE1FD0EDBCF76
:100B300014F0FE0EDBCF15F0800E15140BE0DD0E69
:100B4000F36E0C0EF3CFDBFFF90EF36E0D0EF3CF49
:100B5000DBFF0AD0230EF36E0C0EF3CFDBFF060E85
:100B6000F36E0D0EF3CFDBFF32D1D950FD0FE96EDE
:100B7000FF0EDA20EA6EEE50ED1018E1FB0EDBCF2F
:100B800014F0FC0EDBCF15F0800E15140AE0460EB3
:100B9000F36E0C0EF3CFDBFFF36E0D0EF3CFDBFF26
:100BA00004D00C0EDB6A0D0EDB6A11D1040EDBCF14
:100BB00014F0050EDBCF15F0060EDBCF16F0070E96
:100BC000DBCF17F0050ED8901436153616361736CB
:100BD000E806F9E114C006F015C007F016C008F0E9
:100BE00017C009F0DFCF0BF0010EDBCF0CF0020EC7
:100BF000DBCF0DF0030EDBCF0EF0C7EC30F0080EAC
:100C000006C0DBFF090E07C0DBFF0A0E08C0DBFFD2
:100C10000B0E09C0DBFFD950080FE96EDACFEAFFEF
:100C2000D890030EEB50000A08E6000EEE5C010EB1
:100C3000EE58000EEE58000EEE5816E28E0EE66EDE
:100C4000020EE66E080EDBCFE6FF090EDBCFE6FFF5
:100C500093DDE552E552E552E5520C0EF3CFDBFF92
:100C60000D0EF4CFDBFF61D0D950080FE96EDACF5B
:100C7000EAFFEE52EE06000EEE5AEE5AAEC214F045
:100C8000AFC215F0166A176A15AE02D0166817685B
:100C9000080EDBCF18F0090EDBCF19F00A0EDBCF00
:100CA0001AF00B0EDBCF1BF0020ED8901B321A325B
:100CB00019321832E806F9E1185014261950152295
:100CC0001A5016221B5017220C0E14C0DBFF0D0EFB
:100CD00015C0DBFF0C0EDBCF16F00D0EDBCF17F0CF
:100CE0000001800E171403E0146A156A18D00C0E68
:100CF000DBCF18F00D0EDBCF19F0193404E21850D9
:100D00002308060E195405E2230E146E060E156E06
:100D100006D00C0EDBCF14F00D0EDBCF15F00C0E51
:100D200014C0DBFF0D0E15C0DBFFFB0EDBCF14F094
:100D3000FC0EDBCF15F00001800E15142EE0FD0E29
:100D4000DBCF14F0FE0EDBCF15F0153404E21450A7
:100D50000008000E155411E20C0EDBCF14F00D0E3E
:100D6000DBCF15F0460ED88014560C0E155614C065
:100D7000DBFF0D0E15C0DBFF0FD00C0EDBCF14F028
:100D80000D0EDBCF15F0460E14260C0E152214C0E6
:100D9000DBFF0D0E15C0DBFF1AD0FD0EDBCF14F00C
:100DA000FE0EDBCF15F0800E151411E00C0EDBCF1C
:100DB00014F00D0EDBCF15F08C0ED8801456180EE3
:100DC00015560C0E14C0DBFF0D0E15C0DBFF0C0E0C
:100DD000DBCF14F00D0EDBCF15F014C0F3FF15C000
:100DE000F4FF0E0EE15C03E200D0E16AE552E16E31
:100DF000E552E7CFD9FF1200D9CFE6FFE1CFD9FF07
:100E0000040EE126DE6ADD6A020EDB6A010EF36E75
:100E1000030EF3CFDBFF020EDBCF14F0030EDBCFAC
:100E200015F0153404E214500008000E15544DE27C
:100E3000000EDFCF08F0010EDBCF09F0DECF0DF0A2
:100E4000DDCF0EF0FBEC30F006C014F007C015F05B
:100E5000FD0EDBCF16F0FE0EDBCF17F01750151886
:100E6000E8AE02D0153404D01450165C1550175853
:100E70000EE2020EDBCF14F0030EDBCF15F0D9CF5C
:100E8000E9FFDACFEAFF1450EE5E1550ED5A020E7C
:100E9000DBCF14F0030EDBCF15F0D89015321432EF
:100EA000020E14C0DBFF030E15C0DBFF020EDBCF0A
:100EB00014F0030EDBCF15F0D9CFE9FFDACFEAFF4C
:100EC0001450EE261550ED22A6D7DECF14F0DDCF5C
:100ED00015F014C0F3FF15C0F4FF040EE15C03E24B
:100EE00000D0E16AE552E16EE552E7CFD9FF12008A
:100EF000D9CFE6FFE1CFD9FF020EE1264EC1DFFFD9
:100F0000828A94988296DE52080EDD6E010EDB50C6
:100F100016E0DFAE02D0828801D08298DF9EDF46E5
:100F2000010EE66ED1EC35F0E5528286010EE66EDA
:100F3000D1EC35F0E5528296010EDB06E7D78282CE
:100F4000829282869488020EE15C02E2E16AE552B6
:100F5000E16EE552E7CFD9FF1200D9CFE6FFE1CF2E
:100F6000D9FFFE0EDB5001014E13C2DFE552E7CF81
:100F7000D9FF1200D9CFE6FFE1CFD9FFFE0EDB1C6F
:100F800001014E17B5DFE552E7CFD9FF120001018D
:100F9000BD07000EBE5BBD51BE113DE125C114F081
:100FA00026C115F0FF0ED8801456000E1556030EFC
:100FB000D89015321432E804FBE1050E0101142427
:100FC000BD6F000E1520BE6F0101A85105E0510E46
:100FD000E66EC3DFE5521FD001014EA909D0510EC4
:100FE000E66EC8DFE552010EE66EB7DFE55213D0BC
:100FF0004EA109D0510EE66EBDDFE552400EE66E01
:10100000ACDFE55208D0510EE66EB4DFE552100EAB
:10101000E66EA3DFE55212000201BF51E840E8404E
:101020003F0B010B4DE02E0EE66EA4DFE55214C11E
:1010300014F0156A000EE76E1418E8AE02D01434EE
:1010400003D0E750D880145405E2040EE66E85DF25
:10105000E55211D014C114F0156AFF0EE76E141892
:10106000E8AE02D0E73402D0E750145C04E2080E88
:10107000E66E73DFE55216C114F0156A000EE76ED6
:101080001418E8AE02D0143403D0E750D8801454BA
:1010900005E2200EE66E61DFE55211D016C114F0B4
:1010A000156AFF0EE76E1418E8AE02D0E73402D0DE
:1010B000E750145C04E2020EE66E4FDFE5522AD0E0
:1010C000BF51E00BE838E840010B24E02E0EE66E3D
:1010D00051DFE5520101523504E251510008000E82
:1010E000525505E2080EE66E38DFE55207D0800E55
:1010F000521504E0040EE66E30DFE5520101503572
:1011000004E24F51F008000E505504E2200EE66E46
:1011100024DFE5521200D9CFE6FFE1CFD9FF020E5E
:10112000E126E66AE66AC7EC33F0E552E552F3CF12
:1011300014F0F4CF15F0030ED89015321432E804F1
:10114000FBE114C0DEFF15C0DDFF010EE66ECCC171
:1011500016F0176A16BE1768DE501624146EDD509E
:101160001720156E14C0E6FF15C0E6FFC2EC00F0B4
:10117000E552E552E552F3CFCCF1CCC114F0156A3B
:1011800014BE1568C1C216F0176A16BE176815504E
:101190001718E8AE02D0173404D01650145C17505C
:1011A000155802E3000E01D0010E010B0101996FE9
:1011B000995124E0C5C114F0C6C115F0C7C116F09D
:1011C000C8C117F0400E1416156A166A176A145033
:1011D00015101610171009E1800EE66EBEDEE552FE
:1011E000040EE66EBADEE55208D0800EE66EC2DE70
:1011F000E552040EE66EBEDEE5522ED0A75124E085
:10120000C5C114F0C6C115F0C7C116F0C8C117F0AA
:10121000800E1416156A166A176A145015101610E7
:10122000171009E1800EE66E98DEE552040EE66EB8
:1012300094DEE55208D0800EE66E9CDEE552040E88
:10124000E66E98DEE55208D0800EE66E93DEE5523B
:10125000040EE66E8FDEE552020EE15C02E2E16A08
:0E126000E552E16EE552E7CFD9FF1200120011
:02126E00D9CFD6
:10127000E6FFE1CFD9FF0C0EE12601019A5101E111
:10128000E3D038EC2BF0060E2FC1DBFF070E30C188
:10129000DBFF0A0E31C1DBFF0B0E32C1DBFF080E94
:1012A00033C1DBFF090E34C1DBFFC7C214F0156A7E
:1012B00014BE1568D950060FE96EDACFEAFF145054
:1012C000EE5E1550ED5AC8C214F0156A14BE1568CA
:1012D000D950080FE96EDACFEAFF1450EE5E1550D0
:1012E000ED5AC5C214F0156A14BE1568D9500A0F1C
:1012F000E96EDACFEAFF1450EE5E1550ED5AD95080
:101300000A0FE96EDACFEAFFEE52040EED5E050E2B
:10131000E66E13C116F014C117F00B0E1702F3CFCF
:1013200017F01602F3CF16F0F450172616C0E6FF9A
:1013300017C0E6FFC2EC00F0E552E552E552F3CFEC
:1013400014F0F4CF15F0D950060FE96EDACFEAFFAA
:101350001450EE5E1550ED5A0101356B060EDBCFD1
:1013600014F0070EDBCF15F0153404E214500A0810
:10137000000E155403E2010E356F0FD0060EDBCFC1
:1013800014F0070EDBCF15F0D890155004E60A0EC6
:10139000145C000E155801E2356908680968080EEA
:1013A000DBCF0DF0090EDBCF0EF0FBEC30F0080EBA
:1013B00006C0DBFF090E07C0DBFF050EE66E15C198
:1013C00016F016C117F00B0E1702F3CF17F0160226
:1013D000F3CF16F0F450172616C0E6FF17C0E6FF4D
:1013E000C2EC00F0E552E552E552F3CF14F0F4CF31
:1013F00015F0D950080FE96EDACFEAFF1450EE5E0F
:101400001550ED5A0101366B080EDBCF14F0090EB2
:10141000DBCF15F0153404E214500A08000E155401
:1014200003E2010E366F0FD0080EDBCF14F0090E69
:10143000DBCF15F0D890155004E60A0E145C000EB0
:10144000155801E2366903D00101636B646B0C0E21
:10145000E15C02E2E16AE552E16EE552E7CFD9FFD5
:101460001200010119510101132701011A51010153
:1014700014230101B551B6115FE1B4C214F00001AB
:10148000146C156A14BE156814C015F0146A0101B5
:1014900014511518E8AE02D0153404D01450135D61
:1014A000155014590AE2B4C213F1136D146B13BF33
:1014B000146913C114F1136B1ED0B4C216F0176A6D
:1014C00016BE176816C017F0166A17501419E8AE42
:1014D00002D0143504D01351165C1451175809E288
:1014E000B4C213F1146B13BF146913C114F1136B5D
:1014F00002D014C114F135C114F0156A14BE156878
:101500001450132715501423800E141507E0010EF4
:101510001325136F000E1421146F0ED0143504E23E
:1015200013510008000E145505E2010E135F000E62
:10153000145B02D0136B146B120001011B510101EB
:10154000152701011C51010116230101B551B611E6
:101550005FE1B9C214F00001146C156A14BE15687D
:1015600014C015F0146A010116511518E8AE02D026
:10157000153404D01450155D155016590AE2B9C23D
:1015800015F1156D166B15BF166915C116F1156BA2
:101590001ED0B9C216F0176A16BE176816C017F02B
:1015A000166A17501619E8AE02D0163504D0155138
:1015B000165C1651175809E2B9C215F1166B15BF22
:1015C000166915C116F1156B02D016C116F136C198
:1015D00014F0156A14BE15681450152715501623FB
:1015E000800E161507E0010E1525156F000E162149
:1015F000166F0ED0163504E215510008000E165570
:1016000005E2010E155F000E165B02D0156B166B1E
:101610001200D9CFE6FFE1CFD9FF020EE12601018A
:101620002B5101010B2701012C5101010C23010158
:101630009B513FE00101800E2C1509E02BC114F0F5
:101640002CC115F0146C151E000E152204D02BC1F0
:1016500014F02CC115F0153404E214500A08000EE1
:10166000155404E201014F69506B23D0010152353A
:1016700004E251511E08000E525506E21E0E0101F1
:101680000B5F000E0C5B15D0D880525104E7E20EC0
:10169000515DFF0E525906E21E0E01010B27000E8E
:1016A0000C2307D0515101010B5F0101525101017F
:1016B0000C5B01010B510101172701010C510101C4
:1016C0001823BEC214F00001146C156A14BE15680C
:1016D00014C015F0146A010118511518E8AE02D0B3
:1016E000153404D01450175D155018590AE2BEC2C3
:1016F00017F1176D186B17BF186917C118F1176B21
:101700001ED0BEC216F0176A16BE176816C017F0B4
:10171000166A17501819E8AE02D0183504D01751C0
:10172000165C1851175809E2BEC217F1186B17BFA3
:10173000186917C118F1176B02D018C118F1800E83
:10174000181507E0010E1725176F000E1821186FE6
:101750000ED0183504E217510008000E185505E2A6
:10176000010E175F000E185B02D0176B186B800E0E
:10177000181507E0010E1725176F000E1821186FB6
:101780000ED0183504E217510008000E185505E276
:10179000010E175F000E185B02D0176B186B020E5C
:1017A000E15C02E2E16AE552E16EE552E7CFD9FF82
:1017B0001200E66A010EE66EC7EC33F0E552E55220
:1017C000F35001011927F4501A23E66A020EE66E5F
:1017D000C7EC33F0E552E552F35001011B27F450FA
:1017E0001C231200D9CFE6FFE1CFD9FF020EE1267C
:1017F0000101D8901A3319330101D8901C331B33DF
:101800000101B63504E2B5510008000EB65569E293
:10181000010119510101132701011A51010114237A
:1018200001011B510101152701011C510101162362
:101830000101010EB51901E1B65152E1080E010195
:101840001327000E1423080E01011527000E16237E
:1018500001019A5118E1C7C214F0156A14BE156847
:10186000010113511424136F14511520146FC8C2B1
:1018700014F0156A14BE1568010115511424156F72
:1018800016511520166F13C114F014C115F0040E73
:10189000D89015321432E804FBE114C01FF115C0D2
:1018A00020F115C114F016C115F0040ED8901532B0
:1018B0001432E804FBE114C021F115C022F101014A
:1018C000236B246B0101366B36C135F136C115F13E
:1018D0000101166B15BF166915C113F116C114F17C
:1018E000B3D001011F510101195F01012051010114
:1018F0001A5B0101215101011B5F0101225101010C
:101900001C5B0201BFA13CD00101195101011B2543
:10191000146E01011A5101011C21156E14C0DEFF65
:1019200015C0DDFF0101195101011B5F01011A51B1
:1019300001011C5BDECF19F1DDCF1AF10101D89056
:1019400019371A37030E0D6E0E6A19C108F01AC145
:1019500009F074EC30F008C019F109C01AF1010166
:10196000D8901B371C37030E0D6E0E6A1BC108F092
:101970001CC109F074EC30F008C01BF109C01CF167
:10198000020EE66E19C1E6FF1AC1E6FFC2EC00F0D6
:10199000E552E552E552F3CF07F1F4CF08F1010E1D
:1019A000E66E19C1E6FF1AC1E6FFC2EC00F0E5528F
:1019B000E552E552F3CF19F1F4CF1AF152DD020EE0
:1019C000E66E1BC1E6FF1CC1E6FFC2EC00F0E5526B
:1019D000E552E552F3CF09F1F4CF0AF1010EE66EBC
:1019E0001BC1E6FF1CC1E6FFC2EC00F0E552E55268
:1019F000E552F3CF1BF1F4CF1CF19FDDE66A040E34
:101A0000E66EC7EC33F0E552E552F3CF0BF1F4CFBD
:101A10000CF10101D8900C330B33D8900C330B33FD
:101A200001012351241104E10BC123F10CC124F164
:101A3000235101010B5F0101245101010C5B0BC11A
:101A40001DF10CC11EF1E5DD020EE15C02E2E16A6E
:101A5000E552E16EE552E7CFD9FF120037EC09F00D
:101A6000040EE66EB0C218F0196A18BE19680101BA
:101A700018500703F3CF16F0F4CF17F00803F35014
:101A800000011726195001010703F3500001172622
:101A9000B2C21CF01D6A1CBE1D6801010751010184
:101AA0000D5D1A6E0E51010108551B6E1AC008F02B
:101AB0001BC009F01CC00DF01DC00EF0FBEC30F097
:101AC00016500624146E17500720156E14C0E6FF3A
:101AD00015C0E6FFC2EC00F0E552E552E552F3CF47
:101AE0005DF1F4CF5EF10101B551B61126E1080EAA
:101AF000E66EB1C216F0176A16BE176801011650DD
:101B00001303F3CF14F0F4CF15F01403F3500001D6
:101B10001526175001011303F3500001152614C0B8
:101B2000E6FF15C0E6FFC2EC00F0E552E552E552D3
:101B3000F35001015D27F4505E230101275101019B
:101B40005D5F0101285101015E5B040EE66EB5C2C6
:101B500018F0196A18BE1968010118500903F3CF6B
:101B600016F0F4CF17F00A03F350000117261950AE
:101B700001010903F35000011726B7C21CF01D6ACA
:101B80001CBE1D680101095101010F5D1A6E105143
:101B900001010A551B6E1AC008F01BC009F01CC0D9
:101BA0000DF01DC00EF0FBEC30F016500624146E44
:101BB00017500720156E14C0E6FF15C0E6FFC2ECF3
:101BC00000F0E552E552E552F3CF5FF1F4CF60F15A
:101BD0000101B551B61126E1080EE66EB6C216F047
:101BE000176A16BE1768010116501503F3CF14F0DB
:101BF000F4CF15F01603F35000011526175001011C
:101C00001503F3500001152614C0E6FF15C0E6FFCA
:101C1000C2EC00F0E552E552E552F35001015F27B6
:101C2000F45060230101295101015F5F01012A5134
:101C30000101605B040EE66EBAC218F0196A18BEA4
:101C40001968010118500B03F3CF16F0F4CF17F009
:101C50000C03F35000011726195001010B03F35038
:101C600000011726BCC21CF01D6A1CBE1D680101C4
:101C70000B510101115D1A6E125101010C551B6EC1
:101C80001AC008F01BC009F01CC00DF01DC00EF0FA
:101C9000FBEC30F016500624146E17500720156E1A
:101CA00014C0E6FF15C0E6FFC2EC00F0E552E552B5
:101CB000E552F3CF61F1F4CF62F1080EE66EBBC2DC
:101CC00016F0176A16BE1768010116501703F3CFF6
:101CD00014F0F4CF15F01803F35000011526175037
:101CE00001011703F3500001152614C0E6FF15C0CB
:101CF000E6FFC2EC00F0E552E552E552F350010177
:101D00006127F4506223BDC214F00001146C156AFF
:101D100014BE1568010162511518E8AE02D01534E1
:101D200004D01450615D1550625907E2BDC261F1E3
:101D3000616D626B61BF626918D0BDC216F0176A2F
:101D400016BE176817506219E8AE02D0623504D08B
:101D50006151165C6251175806E2BDC261F1626BB7
:101D600061BF626902D062C162F10CEF08F0010E3E
:101D70000101B96FBA6B01010051146E156AD89058
:101D8000155004E61A0E145C000E15582AE30101E2
:101D9000955101E126D0975121E09FEC1AF0010105
:101DA000976B0101B907000EBA5BBA3504E2B9516D
:101DB0000008000EBA5512E301014EB506D0040E1C
:101DC000E66EADEC07F0E55205D0040EE66EBAEC17
:101DD00007F0E5520A0E0101B96FBA6BEBEC27F080
:101DE000CAD7040EE66EBAEC07F0E5521200D9CF5E
:101DF000E6FFE1CFD9FF020EE1260101975156E03F
:101E00000101B83504E2B7510008000EB8550FE2E1
:101E10000101BD51010B04E10101B707000EB85BE0
:101E20000101B751B81102E125C13CF13FD00A0EC2
:101E300001013C5D03E2DE6ADD6A04D00A0E3C5D0E
:101E4000DE6EDD6A4B0E010126AF02D0D89003D0C2
:101E5000255D000E265903E20101B769B86BDECF9C
:101E600014F0DDCF15F0010126511518E8AE02D0AF
:101E7000153404D01450255D1550265903E2010194
:101E8000B769B86B0A0E01013C25146E156A010191
:101E900015502619E8AE02D0263504D02551145C21
:101EA0002651155803E20101B769B86B020EE15CD7
:101EB00002E2E16AE552E16EE552E7CFD9FF120096
:101EC000140E0101B96FBA6B020EE66EE66A5BECA6
:101ED00000F0E552E552EBEC27F00101955112E1DB
:101EE00080A80FD00101B907000EBA5BB951BA1131
:101EF00007E10101010EA76F020E0101B96FBA6B74
:101F000001D0A76B01019551DFE08050100BDCE0A0
:021F10001200BD
:0E1F1200D9CFE6FFE1CFD9FF030EE126010E85
:101F2000DB6A020EDB6A02018A512BE1FE0EDB50F6
:101F3000DF6EFD0EDB50D880DF5423E3D950010F54
:101F4000E96EDACFEAFF0A0EEC02F3CFEDFFEF0203
:101F5000F3CFEEFFF450ED26DF50EA6A350FE96E5D
:101F6000020EEA22EF50D00F146E156AD950010FFD
:101F7000E96EDACFEAFF1450EE261550ED22DF2A83
:101F8000D8D7010EDBCF14F0020EDBCF15F014C052
:101F9000F3FF15C0F4FF030EE15C03E200D0E16A39
:101FA000E552E16EE552E7CFD9FF1200D9CFE6FF47
:101FB000E1CFD9FF100EE1260C0EDB6A0D0EDB6AB5
:101FC0000E0EDB6A0F0EDB6A02018A5101E0CED0F1
:101FD000FD0EDB50F90FE66EFE0EDBCFE6FF99DF5C
:101FE000E552E552F3CF14F0F4CF15F0166A176AF4
:101FF00015AE02D01668176814C0DFFF010E15C0B9
:10200000DBFF020E16C0DBFF030E17C0DBFFFD0E69
:10201000DB50FB0FE66EFD0EDB50FA0FE66E79DF4C
:10202000E552E552F3CF14F0F4CF15F0166A176AB3
:1020300015AE02D016681768040E14C0DBFF050E3B
:1020400015C0DBFF060E16C0DBFF070E17C0DBFF57
:10205000FD0EDBCFE6FFFD0EDB50FD0FE66E59DF18
:10206000E552E552F3CF14F0F4CF15F0166A176A73
:1020700015AE02D016681768080E14C0DBFF090EF3
:1020800015C0DBFF0A0E16C0DBFF0B0E17C0DBFF0F
:10209000D9CFE9FFDACFEAFFEECF18F0EECF19F093
:1020A000EECF1AF0EFCF1BF0C00E0B6E270E0C6EAA
:1020B000090E0D6E0E6A18C006F019C007F01AC09E
:1020C00008F01BC009F007EC34F002C018F003C0A0
:1020D00019F004C01AF005C01BF0040EDBCF1CF091
:1020E000050EDBCF1DF0060EDBCF1EF0070EDBCF9B
:1020F0001FF0100E0B6E270E0C6E0D6A0E6A1CC0C0
:1021000006F01DC007F01EC008F01FC009F007EC64
:1021100034F002C01CF003C01DF004C01EF005C066
:102120001FF01C5018261D5019221E501A221F5035
:102130001B22D950080FE96EDACFEAFF1850EE24BF
:10214000146E1950EE20156E1A50EE20166E1B50AC
:10215000EE20176E0C0E14C0DBFF0D0E15C0DBFF5A
:102160000E0E16C0DBFF0F0E17C0DBFF0C0EDBCF11
:1021700014F00D0EDBCF15F00E0EDBCF16F00F0EA8
:10218000DBCF17F014C006F015C007F016C008F03A
:1021900017C009F0100EE15C03E200D0E16AE552DD
:1021A000E16EE552E7CFD9FF120085C288F2020145
:1021B0008805896F8551EA6A350FE96E020EEA22B9
:1021C000EF502C0822E08551EA6A350FE96E020EC5
:1021D000EA22EF502A0819E08651855D14E2855104
:1021E000EA6A350FE96E020EEA22EF502C080BE086
:1021F0008551EA6A350FE96E020EEA22EF502A088D
:1022000002E0852BE9D78505896F852B8851895D8B
:1022100002E3000E01D0010E8A6F1200C6DFC5DF97
:10222000C4DF02018851EA6A350FE96E020EEA2224
:10223000EF50410802E0000E01D0010E0101A66F2F
:10224000B4DF89C2E6FF88C2E6FFB0DEE552E552A0
:1022500006C013F207C014F208C015F209C016F246
:10226000A4DF02018851EA6A350FE96E020EEA2204
:10227000EF50530808E1000E136D141F1423151FAF
:102280001523161F162391DF89C2E6FF88C2E6FFD9
:102290008DDEE552E55206C017F207C018F208C0FD
:1022A00019F209C01AF281DF02018851EA6A350F7A
:1022B000E96E020EEA22EF50570808E1000E176D92
:1022C000181F1823191F19231A1F1A236EDF020E55
:1022D0000201895DE66E88C2E6FF1BDEE552E5522B
:1022E000F3CF14F0F4CF15F00A0E1502F3CF15F06A
:1022F0001402F3CF14F0F450152614C0E6FF15C0F5
:10230000E6FF89C2E6FF89C2E6FF03DEE552E55239
:10231000E552E7CF15F0E552E7CF14F01450F3245F
:102320000201036F1550F420046F03C214F004C2BD
:1023300015F0166A176A15AE02D0166817680F0EE8
:102340000B6E020E0C6E0D6A0E6A14C006F015C0FC
:1023500007F016C008F017C009F007EC34F002C00F
:1023600014F003C015F004C016F005C017F00A0EF3
:10237000D8901732163215321432E806F9E114C03B
:1023800003F215C004F211DF030E0201895DE66E4F
:1023900088C2E6FFBEDDE552E552F3CF14F0F4CF7C
:1023A00015F00A0E1502F3CF15F01402F3CF14F056
:1023B000F450152614C0E6FF15C0E6FF020189059A
:1023C000E66E8905E66EA5DDE552E552E552E7CFFA
:1023D00015F0E552E7CF14F01450F3240201056F15
:1023E0001550F420066F05C214F006C215F0166AE7
:1023F000176A15AE02D016681768F60E0B6E0D0E32
:102400000C6E0D6A0E6A14C006F015C007F016C0F7
:1024100008F017C009F007EC34F002C014F003C054
:1024200015F004C016F005C017F00B0ED890173247
:10243000163215321432E806F9E114C005F215C05F
:1024400006F2B3DEB2DEB1DEB0DE02018851EA6A26
:10245000350FE96E020EEA22EFCF02F21200A5DE7E
:10246000A4DEA3DE89C2E6FF88C2E6FF9FDDE55257
:10247000E55206C013F207C014F208C015F209C0F5
:1024800016F293DE02018851EA6A350FE96E020EF8
:10249000EA22EF50530808E1000E136D141F1423B5
:1024A000151F1523161F162380DE89C2E6FF88C27A
:1024B000E6FF7CDDE552E55206C017F207C018F2D0
:1024C00008C019F209C01AF270DE02018851EA6AE6
:1024D000350FE96E020EEA22EF50570808E1000EB0
:1024E000176D181F1823191F19231A1F1A235DDED1
:1024F00089C2E6FF88C2E6FF0CDDE552E552F3CF64
:1025000008F253DE89C2E6FF88C2E6FF02DDE5522B
:10251000E552F3CF07F249DE030E0201895DE66E54
:1025200088C2E6FFF6DCE552E552F3CF14F0F4CFB3
:1025300015F0640E1502F3CF15F01402F3CF14F06A
:10254000F450152614C0E6FF15C0E6FF89C2E6FF69
:1025500002018905E66EDDDCE552E552E552E7CF82
:1025600015F0E552E7CF14F01450F3240201096F7F
:102570001550F4200A6F19DE020E0201895DE66E25
:1025800088C2E6FFC6DCE552E552F3CF14F0F4CF83
:1025900015F00A0E1502F3CF15F01402F3CF14F064
:1025A000F450152614C0E6FF15C0E6FF89C2E6FF09
:1025B00089C2E6FFAEDCE552E552E552E7CF15F001
:1025C000E552E7CF14F01450F32402012D6F15509B
:1025D000F4202E6F010E085D03E3050E075D02E295
:1025E000000E01D0010E0101A66F1200D9CFE6FF47
:1025F000E1CFD9FF040EE12602010151010A05E0F5
:10260000010A01E004D02BDF02D008DE00D0010176
:10261000A65101E142D15A0E0101E76EFE19E8AE62
:1026200002D0E73402D0E750FE5D01E3C1D00101E2
:10263000A66B0101FE2B0BC20FF20CC210F20DC2F1
:1026400011F20EC212F213C21BF214C21CF215C216
:102650001DF216C21EF217C21FF218C220F219C2D2
:1026600021F21AC222F213C206F014C207F015C2F8
:1026700008F016C209F0600E0B6EEA0E0C6E0D6AC1
:102680000E6AC7EC30F006C0DEFF07C0DEFF08C0F0
:10269000DEFF09C0DDFFDD52DD52D9CFE9FFDACF21
:1026A000EAFFD890030EEB50000A08E6000EEE5C3D
:1026B000000EEE58000EEE58000EEE5815E2D9CF7F
:1026C000E9FFDACFEAFFEECF14F0EECF15F0EECF50
:1026D00016F0EFCF17F0000E146C151E1522161E03
:1026E0001622171E17220CD0D9CFE9FFDACFEAFF46
:1026F000EECF14F0EECF15F0EECF16F0EFCF17F0CF
:1027000014C0DFFF010E15C0DBFF020E16C0DBFF99
:10271000030E17C0DBFFD9CFE9FFDACFEAFFEECF18
:1027200014F0EECF15F0EECF16F0EFCF17F0F60E57
:102730000B6E0D0E0C6E0D6A0E6A14C006F015C0FD
:1027400007F016C008F017C009F007EC34F002C01B
:1027500014F003C015F004C016F005C017F00B0EFE
:10276000D8901732163215321432E806F9E114C047
:10277000DFFF010E15C0DBFF020E16C0DBFF030EEC
:1027800017C0DBFF000EDFCFE6FF010EDBCFE6FF59
:1027900015EC05F0E552E552F3CF2BF2F4CF2CF215
:1027A0000201016B015104E02DC231F22EC232F25E
:1027B0001B0EE96E020EEA6EEE500201135D146EFE
:1027C000EE501459156EEE501559166EEE501659FE
:1027D000176E14C023F215C024F21F0EE96E020E0C
:1027E000EA6EEE50175D146EEE501859156EEE50ED
:1027F0001959166EEE501A59176E14C025F215C0ED
:1028000026F2080EE66E2BC21CF02CC21DF01E6ACA
:102810001F6A1DAE02D01E681F6825C218F026C2AE
:1028200019F01A6A1B6A19AE02D01A681B6818C020
:1028300006F019C007F01AC008F01BC009F01CC050
:102840000BF01DC00CF01EC00DF01FC00EF007EC09
:1028500034F002C014F003C015F004C016F005C037
:1028600017F014C0E6FF15C0E6FF16C0E6FF17C05C
:10287000E6FF06EC01F0206E050EE15E205006C07A
:1028800025F207C026F20201016B015106E0315129
:102890002D5D2F6F32512E59306F040EE15C02E234
:1028A000E16AE552E16EE552E7CFD9FF1200D9CFD8
:1028B000E6FFE1CFD9FF0201335101E1B7D0010AB0
:1028C0006FE0020A32E0010A01E0C1D0FE0EDB50E7
:1028D0000101FD1B02018651EA6A350FE96E020E05
:1028E000EA22FE0EDBCFEFFF862BDB502A0803E047
:1028F000500E865D06E18B6B8BC28DF2030E336F3B
:1029000013D0FE0EDB5024080DE10101FD6BFDC16B
:1029100087F2FDC185F2FDC186F20201016B010E55
:10292000336F02D0FDC18CF292D0020E8D5D2FE28A
:10293000410EF36EFE0EDBCFF4FFF350F45C15E3B3
:10294000100E8B03F350146E156AFE0EDB50166EDC
:10295000176A0A0E1626000E1722410E165E000E8A
:10296000175A145016248B6F10D0100E8B03F3508F
:10297000146E156AFE0EDB50166E176A300E165E68
:10298000000E175A145016248B6F8D2B08D08B51C4
:102990008C5D02E0000E01D0010E006F336B57D04A
:1029A000FE0EDB500101FD1B02010151060DF3CFAC
:1029B00014F0F4CF15F0F10E1426010E15228751F4
:1029C0000F011424E96E000E1520EA6EEF50F36E2D
:1029D000FE0EDB50F35C06E0010E0201015D02E237
:1029E000012BE2D702010151060DF3CF14F0F4CF11
:1029F00015F0F10E1426010E152287510F01142433
:102A0000E96E000E1520EA6EEF50F36EFE0EDB50FD
:102A1000F35C09E1040E0201875D03E1020E336FEE
:102A200001D0872B02D00201336B11D0FE0EDB5098
:102A300024080CE10101FD6BFDC187F2FDC185F2A7
:102A4000FDC186F20201016B010E336F00D0E55229
:102A5000E7CFD9FF1200D9CFE6FFE1CFD9FFE65289
:102A60000201866B86C285F2200E346F5F0E026F04
:102A7000000E096F0A6B076F086F036F046B056F19
:102A8000066B2F6F306B236F246B256F266B010154
:102A9000FE6B0101BB6BBC6B640E0101C36FC46BA9
:102AA0000101A66B0201006B336BE552E552E7CFE3
:102AB000D9FF12000201005115E0020EE66EADECE6
:102AC00007F0E552040EE66EBAEC07F0E55202019B
:102AD000006B8CDD0101A65104E0AA6B0101BB6B08
:102AE000BC6B31D0C5C114F0C6C115F0C7C116F01A
:102AF000C8C117F00F0E1416156A166A176A14501B
:102B00001510161017101FE1BBC114F0BCC115F051
:102B1000166A176A15AE02D0166817681734000EC9
:102B2000171809E6D880140E1454000E1554000E20
:102B30001654000E175403E20101A66B04D00101E4
:102B4000BB2B000EBC23020EE66EBAEC07F0E5527A
:102B50000101A65106E0040EE66EBAEC07F0E5525C
:0E2B600005D0040EE66EADEC07F0E552120053
:022B6E00D9CFBD
:102B7000E6FFE1CFD9FF020EE126FD0EDBCF16F016
:102B8000FE0EDBCF17F0010E1A6E0201C651E76E82
:102B90001A18E8AE02D0E73402D0E7501A5C02E21D
:102BA000C65101D0010E186E196A18BE1968175067
:102BB0001918E8AE02D0193404D01850165C195018
:102BC000175814E2010E1B6EC651E76E1B18E8AED3
:102BD00002D0E73402D0E7501B5C02E2C65101D0BC
:102BE000010E146E156A14BE156817D0FD0EDBCFEA
:102BF0001CF0FE0EDBCF1DF01D3404E21C50F0086B
:102C0000000E1D5404E2F00E146E156A06D0FD0E7F
:102C1000DBCF14F0FE0EDBCF15F014C0DEFF15C0C5
:102C2000DDFFDF50146E020EE15C03E200D0E16ACA
:102C3000E552E16E1450E552E7CFD9FF1200D9CF2B
:102C4000E6FFE1CFD9FF020EE126FD0EDBCF59F101
:102C5000FE0EDBCF5AF159C157F15AC158F159C193
:102C600055F15AC156F1FD0EDBCF5BF1FE0EDBCF05
:102C70005CF10201BFA162D001015D5101015F5D04
:102C8000166E605101015E55176E01016151165CAF
:102C9000146E62511758156E1450010157271550C4
:102CA0005823086809685FC10DF060C10EF0FBECA5
:102CB00030F0065001015D25166E07505E21176E3B
:102CC00001016151165C146E62511758156E145053
:102CD0000101592715505A23086809685FC10DF092
:102CE00060C10EF0FBEC30F001015D51065C166E28
:102CF0005E510758176E165001016125146E17506A
:102D00006221156E145001015527155056230101FB
:102D10005F5101015D25166E0101605101015E21C7
:102D2000176E165001016125146E17506221156E41
:102D3000145001015B2715505C2345D008680968D1
:102D40005DC10DF05EC10EF0FBEC30F00101615190
:102D5000065C146E62510758156E14500101572716
:102D6000155058230101615101015D5D146E5E51E2
:102D700001016255156E14500101592715505A234F
:102D8000086809685FC10DF060C10EF0FBEC30F01F
:102D9000065001016125146E07506221156E145012
:102DA000010155271550562301015F51010161258D
:102DB000146E0101605101016221156E1450010170
:102DC0005B2715505C23020EE15C02E2E16AE552EA
:102DD000E16EE552E7CFD9FF1200D9CFE6FFE1CF90
:102DE000D9FF100EE126010156515819E8AE02D064
:102DF000583504D05751555D5851565905E257C1C1
:102E000014F058C115F004D055C114F056C115F096
:102E1000166A15BE16680A0E14C0DBFF0B0E15C02D
:102E2000DBFF0C0E16C0DBFF59C117F05AC118F0BA
:102E3000196A18BE1968D9500A0FE96EDACFEAFF8D
:102E4000020EEB501918E8AE02D0193406D0175014
:102E5000EE5C1850EE581950EE5808E259C114F0C3
:102E60005AC115F0166A15BE166809D00A0EDBCFD6
:102E700014F00B0EDBCF15F00C0EDBCF16F00A0EA4
:102E800014C0DBFF0B0E15C0DBFF0C0E16C0DBFF02
:102E90005BC117F05CC118F0196A18BE1968D950E7
:102EA0000A0FE96EDACFEAFF020EEB501918E8AE0E
:102EB00002D0193406D01750EE5C1850EE58195055
:102EC000EE5808E25BC114F05CC115F0166A15BE3D
:102ED000166809D00A0EDBCF14F00B0EDBCF15F00D
:102EE0000C0EDBCF16F00A0E14C0DBFF0B0E15C064
:102EF000DBFF0C0E16C0DBFFFD0EDBCF17F0FE0E66
:102F0000DBCF18F0196A18BE1968D9500A0FE96E9C
:102F1000DACFEAFF1750EE5C146E1850EE58156EBB
:102F20001950EE58166E0D0E14C0DBFF0E0E15C0B4
:102F3000DBFF0F0E16C0DBFFFD0EDBCF14F0FE0E25
:102F4000DBCF15F0C6C216F0176A16BE176815500B
:102F50001718E8AE02D0173404D01650145C17507E
:102F600015580AE2010EDB6A020EDB6A030EDB6A09
:102F70000101010EFF6F85D10D0EDBCF14F00E0E97
:102F8000DBCF15F00F0EDBCF16F01634000E16183F
:102F900007E6D880000E1454000E1554000E165487
:102FA00001E36DD1F00E176E186A196AFD0EDBCFC2
:102FB0001AF0FE0EDBCF1BF01C6A1BBE1C681A50F9
:102FC000175C146E1B501858156E1C501958166E4D
:102FD00015C016F014C015F014C015F0146A14C012
:102FE00007F015C008F016C009F00D0EDBCF0CF08D
:102FF0000E0EDBCF0DF00F0EDBCF0EF09AEC30F0A3
:10300000040E07C0DBFF050E08C0DBFF060E09C07B
:10301000DBFFFD0EDBCF17F0FE0EDBCF18F0196AD9
:1030200018BE1968C6C21AF01B6A1C6A1AAE02D012
:103030001B681C681A50175C146E1B501858156ECC
:103040001C501958166E15C016F014C015F014C097
:1030500015F0146A14C007F015C008F016C009F086
:103060000D0EDBCF0CF00E0EDBCF0DF00F0EDBCF15
:103070000EF09AEC30F0070E07C0DBFF080E08C018
:10308000DBFF090E09C0DBFF070EDBCF17F0080ED0
:10309000DBCF18F0090EDBCF19F0D950040FE96E21
:1030A000DACFEAFF020EEB501918E8AE02D019345D
:1030B00006D01750EE5C1850EE581950EE580AE240
:1030C000040EDBCF14F0050EDBCF15F0060EDBCFC0
:1030D00016F009D0070EDBCF14F0080EDBCF15F089
:1030E000090EDBCF16F0010E14C0DBFF020E15C077
:1030F000DBFF030E16C0DBFFD950010FE96EDACFFC
:10310000EAFF020ED890EB50000A06E6000EEE5CD5
:10311000010EEE58000EEF5801E3AED00101010E92
:10312000FF6F5DC117F05EC118F0196A18BE19680B
:1031300017C007F018C008F019C009F0DBCF0CF079
:10314000020EDBCF0DF0030EDBCF0EF028EC31F0DA
:1031500004C014F005C015F006C016F0800E142649
:10316000000E152216220C6A010E0D6E0E6A14C096
:1031700007F015C008F016C009F09AEC30F007C04F
:1031800014F008C015F009C016F014C05DF115C0A8
:103190005EF15FC117F060C118F0196A18BE1968B6
:1031A00017C007F018C008F019C009F0010EDBCFF6
:1031B0000CF0020EDBCF0DF0030EDBCF0EF028EC8F
:1031C00031F004C014F005C015F006C016F0800EF2
:1031D0001426000E152216220C6A010E0D6E0E6AC0
:1031E00014C007F015C008F016C009F09AEC30F0D2
:1031F00007C014F008C015F009C016F014C05FF144
:1032000015C060F161C117F062C118F0196A18BEEB
:10321000196817C007F018C008F019C009F0010EAE
:10322000DBCF0CF0020EDBCF0DF0030EDBCF0EF088
:1032300028EC31F004C014F005C015F006C016F0FB
:10324000800E1426000E152216220C6A010E0D6E39
:103250000E6A14C007F015C008F016C009F09AEC09
:1032600030F007C014F008C015F009C016F014C003
:1032700061F115C062F102D00101FF6B02D00101C2
:10328000FF6B100EE15C02E2E16AE552E16EE5528D
:10329000E7CFD9FF1200D9CFE6FFE1CFD9FF040E67
:1032A000E1260101635101014925166E01016451B6
:1032B00001014A21176E010125511624146E265171
:1032C0001720156E020E14C0DBFF030E15C0DBFFC6
:1032D000020EDBCF16F0030EDBCF17F00001800EDD
:1032E000171403E0146A156A17D0020EDBCF18F02A
:1032F000030EDBCF19F0193404E21850D808000E81
:10330000195404E2D80E146E156A06D0020EDBCFF3
:1033100014F0030EDBCF15F0020E14C0DBFF030E1A
:1033200015C0DBFF020EDBCFE6FF030EDBCFE6FFAF
:1033300086DCE552E552020EDBCFE6FF030EDBCF63
:10334000E6FF4BDDE552E5520101FF5109E0020EB7
:10335000DBCFE6FF030EDBCFE6FF71DCE552E55283
:1033600055C1E6FF56C1E6FFB7EC15F0E552E55250
:103370000101556F566B5BC1E6FF5CC1E6FFB7EC20
:1033800015F0E552E55201015B6F5C6B57C1E6FF3A
:1033900058C1E6FFB7EC15F0E552E5520101576F51
:1033A000586B59C1E6FF5AC1E6FFB7EC15F0E5527C
:1033B000E5520101596F5A6B040EE15C02E2E16AC9
:1033C000E552E16EE552E7CFD9FF1200D9CFE6FF13
:1033D000E1CFD9FF040EE1260101B551B6112FE16D
:1033E0000201C25103E10201C95129E0C2C214F035
:1033F000156A14BE156813C108F014C109F014C091
:103400000DF015C00EF074EC30F008C0DEFF09C0FE
:10341000DDFFC9C214F0156A14BE156815C108F0A5
:1034200016C109F014C00DF015C00EF074EC30F0A8
:10343000020E08C0DBFF030E09C0DBFF0CD0010E3B
:10344000F36E020EF3CFDBFF030EDB6A020EDBCF5F
:10345000DEFFDBCFDDFF0101A15105E0770EDE26A7
:10346000000EDD2205D001010651DE26000EDD2210
:1034700001010551146E156AD950020FE96EDACFB9
:10348000EAFF1450EE261550ED22DECF16F0DDCF08
:1034900017F0D890175004E6010E165C000E17586E
:1034A00004E2010E146E156A13D0DECF18F0DDCFE2
:1034B00019F0193404E21850F008000E195404E20F
:1034C000F00E146E156A04D0DECF14F0DDCF15F0C7
:1034D00014C053F1020EDBCF16F0030EDBCF17F052
:1034E000D890175004E6010E165C000E175804E23F
:1034F000010E146E156A17D0020EDBCF18F0030E02
:10350000DBCF19F0193404E21850F008000E1954FA
:1035100004E2F00E146E156A06D0020EDBCF14F032
:10352000030EDBCF15F014C054F1040EE15C02E28F
:10353000E16AE552E16EE552E7CFD9FF1200000ED5
:10354000E66EE66A1DEC35F0E552E552F2940001B4
:103550000F0E806F0F0E811255C181F05BC182F09A
:1035600057C183F059C184F053C185F054C186F02E
:10357000E1EC34F0F3CF14F0F4CF15F0A90E145CA5
:10358000000E155801E2F4D7F29EF2A4FED7F29491
:103590000101A05105E000013F0E806F3F0E811236
:1035A0000101A07100018051816E0F0B12E0812F8B
:1035B000DBEF1AF08091832FDFEF1AF08093842FD6
:1035C000E3EF1AF08095822FD3EF1AF08097D3EFB4
:1035D0001AF0F28EE1EC34F0F3CF14F0F4CF15F0E2
:1035E000A90E145C000E155801E2F4D7F29EF2A465
:1035F000FED700018051816E300B0EE0852F02EF67
:103600001BF08099862F06EF1BF0809B00000000C6
:0C36100000000000FAEF1AF0F28E120029
:04361C00D9CFE6FF1D
:10362000E1CFD9FFE552E7CFD9FF1200C5C114F0B1
:10363000C6C115F0C7C116F0C8C117F00F0E141699
:10364000156A166A176A145015101610171026E11D
:10365000010125C114F026C115F02507000E265BD7
:103660000001800E151404E00101256B266B16D0B5
:10367000010125C116F026C117F02507000E265BB3
:10368000173404E21650F008000E175404E2F00E4E
:10369000256F266B03D02507000E265B1200D9CFBD
:1036A000E6FFE1CFD9FF0E0EE1260101AA5171E03C
:1036B000010127510201ED25146E0101285102017B
:1036C000EE21156ED880155004E7100E145CFF0E25
:1036D000155805E20101100E276F286921D001015C
:1036E00027510201ED25166E010128510201EE213C
:1036F000176E173404E21650F008000E175405E256
:103700000101F00E276F286B0BD001012751020138
:10371000ED250101276F28510201EE210101286FDB
:10372000010129510201F125146E01012A51020102
:10373000F221156ED880155004E7100E145CFF0EB0
:10374000155805E20101100E296F2A6921D00101E7
:1037500029510201F125166E01012A510201F221BF
:10376000176E173404E21650F008000E175405E2E5
:103770000101F00E296F2A6B0BD0010129510201C2
:10378000F1250101296F2A510201F22101012A6F5D
:1037900030D3FB0EDBCF08F0FC0EDBCF09F00201CB
:1037A0002551085C146E26510958156E080E14C078
:1037B000DBFF090E15C0DBFFFD0EDBCF08F0FE0EB0
:1037C000DBCF09F002012351085C146E2451095823
:1037D000156E0A0E14C0DBFF0B0E15C0DBFF2DC1EA
:1037E00014F02EC115F0166A176A15AE02D01668CD
:1037F0001768680E145E000E155A165A175A0C0EEA
:1038000014C0DBFF0D0E15C0DBFF080EDBCF16F07A
:10381000090EDBCF17F00001800E17140BE0080E25
:10382000DBCF14F0090EDBCF15F0146C151E000E63
:10383000152206D0080EDBCF14F0090EDBCF15F0F1
:10384000145015101EE10A0EDBCF1AF00B0EDBCF61
:103850001BF0800E1B140BE00A0EDBCF18F00B0ED2
:10386000DBCF19F0186C191E000E192206D00A0EB3
:10387000DBCF18F00B0EDBCF19F01850191001E157
:10388000B8D20A0EDBCF18F00B0EDBCF19F0800E8A
:1038900019140BE00A0EDBCF16F00B0EDBCF17F07E
:1038A000166C171E000E172206D00A0EDBCF16F07C
:1038B0000B0EDBCF17F0080EDBCF1CF0090EDBCFB1
:1038C0001DF0800E1D140BE0080EDBCF1AF0090E60
:1038D000DBCF1BF01A6C1B1E000E1B2206D0080E3D
:1038E000DBCF1AF0090EDBCF1BF017501B18E8AE28
:1038F00002D01B3404D01A50165C1B5017581BE220
:10390000080EDBCF1EF0090EDBCF1FF0800E1F1458
:103910000BE0080EDBCF14F0090EDBCF15F0146CB2
:10392000151E000E152206D0080EDBCF14F0090E6E
:10393000DBCF15F01AD00A0EDBCF20F00B0EDBCF59
:1039400021F0800E21140BE00A0EDBCF14F00B0ED9
:10395000DBCF15F0146C151E000E152206D00A0ED2
:10396000DBCF14F00B0EDBCF15F0060E14C0DBFF1F
:10397000070E15C0DBFF060EDBCF14F0070EDBCF02
:1039800015F0166A176A15AE02D016681768D89037
:103990001750000A08E6640E145C000E1558000E5D
:1039A0001658000E175835E20A0EDBCF08F00B0E42
:1039B000DBCF09F00A0EDBCF0DF00B0EDBCF0EF0E4
:1039C000FBEC30F006C016F007C017F0080EDBCF96
:1039D00008F0090EDBCF09F0080EDBCF0DF0090E61
:1039E000DBCF0EF0FBEC30F016500624146E1750AF
:1039F0000720156E14C0E6FF15C0E6FFFCEC06F0CC
:103A0000E552E552060EF3CFDBFF070EF4CFDBFFE6
:103A100007D0640EF36E060EF3CFDBFF070EDB6AF2
:103A20000A0EDBCFE6FF0B0EDBCFE6FF080EDBCF87
:103A3000E6FF090EDBCFE6FF2FEC05F0E552E5527D
:103A4000E552E552F3CF16F0F4CF17F00C0EDB5031
:103A5000165C146E0D0EDB501758156E14C0E6FF81
:103A600015C0E6FF7BEC03F0E552E552040EF3CF00
:103A7000DBFF050EF4CFDBFF060EDBCF14F0070EE5
:103A8000DBCF15F0166A176A15AE02D016681768F4
:103A9000330E0B6E0C6A0D6A0E6A14C006F015C068
:103AA00007F016C008F017C009F007EC34F002C0A8
:103AB00014F003C015F004C016F005C017F0080E8E
:103AC000D8901732163215321432E806F9E114C0D4
:103AD000DFFF010E15C0DBFF020E16C0DBFF030E79
:103AE00017C0DBFF080EE66E040EDBCFE6FF050E07
:103AF000DBCFE6FF64EC04F0E552E552F3CF18F0BB
:103B0000F4CF19F01A6A1B6A19AE02D01A681B6842
:103B100018C006F019C007F01AC008F01BC009F061
:103B2000DFCF0BF0010EDBCF0CF0020EDBCF0DF080
:103B3000030EDBCF0EF007EC34F002C014F003C02C
:103B400015F004C016F005C017F014C0E6FF15C04C
:103B5000E6FF16C0E6FF17C0E6FF06EC01F01C6E9C
:103B6000050EE15E1C5006C0EDF207C0EEF2020148
:103B7000800EF01502E0FF0E01D0010E146E800ED3
:103B8000EE1502E0FF0E01D0010E145C31E1060ECD
:103B9000DB50EF250001146E070EDB500201F0210F
:103BA0000001156E800E151404E00201EF6BF06B3E
:103BB0001ED0060EDB500201EF250001166E070E27
:103BC000DB500201F0210001176E173404E2165099
:103BD0000008000E175404E20201EF6BF06B07D0EF
:103BE000060EDB500201EF27070EDB50F02302D058
:103BF000EF6BF06BEFC216F0F0C217F00D6A010E1A
:103C00000E6E16C008F017C009F074EC30F008C052
:103C100016F009C017F00201ED511624146EEE5192
:103C20001720156E14500101272715502823D8801E
:103C3000285104E7100E275DFF0E285904E2100EEC
:103C4000276F28690DD0283504E22751F008000EAF
:103C5000285504E2F00E276F286B02D028C128F106
:103C6000080EE66E040EDBCFE6FF050EDBCFE6FFA7
:103C700015EC05F0E552E552F3CF18F0F4CF19F04A
:103C80001A6A1B6A19AE02D01A681B68000E186CFB
:103C9000191E19221A1E1A221B1E1B2218C006F0FA
:103CA00019C007F01AC008F01BC009F0DFCF0BF0F5
:103CB000010EDBCF0CF0020EDBCF0DF0030EDBCFDD
:103CC0000EF007EC34F002C014F003C015F004C08D
:103CD00016F005C017F014C0E6FF15C0E6FF16C0C9
:103CE000E6FF17C0E6FF06EC01F01C6E050EE15E74
:103CF0001C5006C0F1F207C0F2F20201800EF4156A
:103D000002E0FF0E01D0010E146E800EF21502E0EB
:103D1000FF0E01D0010E145C31E1060EDB50F325DD
:103D20000001146E070EDB500201F4210001156E34
:103D3000800E151404E00201F36BF46B1ED0060E26
:103D4000DB500201F3250001166E070EDB50020165
:103D5000F4210001176E173404E216500008000E1B
:103D6000175404E20201F36BF46B07D0060EDB502C
:103D70000201F327070EDB50F42302D0F36BF46B40
:103D8000F3C216F0F4C217F00D6A010E0E6E16C0E3
:103D900008F017C009F074EC30F008C016F009C044
:103DA00017F00201F1511624146EF2511720156E0E
:103DB00014500101292715502A23D8802A5104E7DD
:103DC000100E295DFF0E2A5904E2100E296F2A6990
:103DD0000DD02A3504E22951F008000E2A5504E2DC
:103DE000F00E296F2A6B02D02AC12AF10101010EBF
:103DF000AA6F0E0EE15C02E2E16AE552E16EE55265
:103E0000E7CFD9FF1200010100510101256F266B98
:103E100001C127F10101286B27BF286902C129F1DF
:103E200001012A6B29BF2A6903C12BF101012C6B07
:103E30002BBF2C695AEC15F00101965103E0955106
:103E400001E16AD0A65168E001010451146E156ABF
:103E5000153404E214507708000E15540DE20101E8
:103E6000A96B000EE66EE66AE66EE66A18DCE552BD
:103E7000E552E552E55250D00101800E281509E0C7
:103E800027C114F028C115F0146C151E000E152260
:103E900004D027C114F028C115F0153404E21450E1
:103EA0000A08000E155418E30101800E2A1509E0D6
:103EB00029C116F02AC117F0166C171E000E172222
:103EC00004D029C116F02AC117F0173404E21650A5
:103ED0000A08000E175412E223C227F224C228F265
:103EE00025C229F226C22AF2000E0201F36FF46BFA
:103EF000EF6FF06B0101010EA96FAA6B29C2E6FFFB
:103F00002AC2E6FF27C2E6FF28C2E6FF4FEC1BF0FD
:103F1000E552E552E552E5521200000E0201F36F40
:103F2000F46BF16FF26BEF6FF06BED6FEE6B010105
:043F3000AA6B120066
:0C3F34008EEC31F0420EE66EB0EC31F085
:103F4000E552000901E039D0470EE66EB0EC31F0E1
:103F5000E552000901E031D0740EE66EB0EC31F0AC
:103F6000E552000901E029D0720EE66EB0EC31F0A6
:103F7000E552000901E021D0A0EC31F08EEC31F0E7
:103F8000420EE66EB0EC31F0E552000901E015D0CA
:103F90004C0EE66EB0EC31F0E552000901E00DD0B8
:103FA000A0EC31F0320EE66EE66A28EC00F0E55245
:103FB000E5520101010E9B6F04D001019B6BA0EC47
:103FC00031F01200D9CFE6FFE1CFD9FF0B0EE12689
:103FD00001019B5101E14BD18EEC31F0430EE66EB5
:103FE000B0EC31F0E552000902E1000E01D0010E03
:103FF00001019C13E66AE4EC31F0E552166E176A93
:1040000016C017F0166A16C0E6FF17C0E6FF010ECD
:10401000E66EE4EC31F0E552E552E7CF17F0E552F9
:10402000E7CF16F000011610146E17C015F0040E3D
:1040300014C0DBFF050E15C0DBFFA0EC31F0040E51
:10404000DBCF18F0050EDBCF19F01A6A1B6A19AE28
:1040500002D01A681B68F60E0B6E0D0E0C6E0D6A00
:104060000E6A18C006F019C007F01AC008F01BC08D
:1040700009F007EC34F002C018F003C019F004C0D6
:104080001AF005C01BF00B0ED8901B321A321932F1
:104090001832E806F9E118C014F019C015F01AC07A
:1040A00016F01BC017F0230E145E060E155A000EF4
:1040B000165A175A060E14C0DBFF070E15C0DBFF99
:1040C000080E16C0DBFF090E17C0DBFF060EDBCFA4
:1040D000E6FF070EDBCFE6FF7BEC03F0E552E5528F
:1040E000F3CF2DF1F4CF2EF1D950040FE96EDACFD2
:1040F000EAFF0F0E0D6E0E6AEECF08F0EDCF09F05D
:1041000074EC30F008C0EEFF09C0EDFF040EDBCF09
:10411000DEFFDBCFDDFF0101503504E24F51F00837
:10412000000E505508E20101516B526B01014F071F
:10413000000E505B9CD0F00E4F1901E1505107E189
:10414000DECF4FF1DDCF50F10101516B526B010118
:10415000DE504F5D146EDD505059156E14C0DEFFF9
:1041600015C0DDFFDECF14F0DDCF15F0153404E30C
:1041700014508808FF0E155405E3F00EDE26000EDD
:10418000DD2213D0DECF14F0DDCF15F0153404E2BC
:1041900014507808000E155408E2D9CFE9FFDACFA1
:1041A000EAFFF00EEE5E000EED5ADECF16F0DDCF28
:1041B00017F0D880175004E7EC0E165CFF0E175866
:1041C00004E2EC0E146E156813D0DECF18F0DDCFCC
:1041D00019F0193404E218501408000E195404E2BE
:1041E000140E146E156A04D0DECF14F0DDCF15F076
:1041F00014C0DEFF15C0DDFF080EE66E51C118F0D9
:1042000052C119F0030E1902F3CF19F01802F3CFBF
:1042100018F0F4501926DE501824166EDD501920BF
:10422000176ED89016361736D89016361736CAC27B
:104230001AF01B6A1ABE1B6800011A501602F3CF4F
:1042400014F0F4CF15F01702F35015261B50160288
:10425000F350152614C0E6FF15C0E6FFC2EC00F0CF
:10426000E552E552E552F3CF51F1F4CF52F10B0E86
:10427000E15C02E2E16AE552E16EE552E7CFD9FF87
:1042800012008EEC31F0EE0EE66EB0EC31F0E5523D
:10429000000901E04BD0F60EE66EB0EC31F0E552CD
:1042A000000901E043D08EEC31F0EF0EE66EB0EC89
:1042B00031F0E552000901E039D0010EE66EE4EC80
:1042C00031F0E5520101476F486B47C148F1476B38
:1042D000A0EC31F08EEC31F0EE0EE66EB0EC31F089
:1042E000E552000901E022D0F70EE66EB0EC31F0A5
:1042F000E552000901E01AD08EEC31F0EF0EE66EC7
:10430000B0EC31F0E552000901E010D0010EE66E8C
:10431000E4EC31F0E552146E156A145001014713B4
:1043200015504813A0EC31F0010E06D0A0EC31F08E
:1043300001019D6B000E00D01200D9CFE6FFE1CF46
:10434000D9FF8EEC31F0EE0EE66EB0EC31F0E552B6
:10435000000901E01FD0F40EE66EB0EC31F0E5523A
:10436000000901E017D0FE0EDBCFE6FFB0EC31F024
:10437000E552000901E00ED0A0EC31F0FE0EDB505A
:1043800001014C5D02E0000E01D0010E01019E6FA3
:10439000010E04D0A0EC31F0000E00D0E552E7CFC2
:1043A000D9FF1200D9CFE6FFE1CFD9FFE652000EC8
:1043B0000101C16FC26B0101496F4A6B8EEC31F094
:1043C000EE0EE66EB0EC31F0E552000901E05DD092
:1043D000D00EE66EB0EC31F0E552000901E055D0A8
:1043E0008EEC31F0EF0EE66EB0EC31F0E5520009E4
:1043F00001E04BD0010EE66EE4EC31F0E552010134
:104400004B6FA0EC31F0550E01014B5D04E1010151
:104410002E0E4C6F03D001016E0E4C6F4CC1E6FFA7
:104420008CDFE552000901E130D00A0EE66EE66A43
:1044300028EC00F0E552E55224DFDF6E47C140F181
:1044400048C141F10101426BF40EE66E76DFE552A0
:10445000000901E11AD01E0EE66EE66A28EC00F0B3
:10446000E552E5520EDFDF6E47C13DF148C13EF136
:1044700001013F6B4CC1E6FF60DFE552000901E13D
:1044800004D00101010E9D6F06D00101A86BA8C1E7
:104490009DF1A0EC31F0E552E552E7CFD9FF1200D3
:1044A000D9CFE6FFE1CFD9FF060EE1260101C12BEE
:1044B000000EC22301019D5101E1A2D1080E0101AC
:1044C000C2AF02D0D89003D0C15D000EC25903E341
:1044D00001019E510FE1200E0101C2AF02D0D89020
:1044E00003D0C15D000EC25901E28AD101019E5183
:1044F00001E086D10101C16BC26BC3DE010801E09E
:104500007FD101019E5123E0F40EE66E16DFE552E5
:104510000101B751B81107E047C140F148C141F16D
:104520000101426B13D047C117F048C118F0196A56
:1045300001014051175C146E41511858156E4251DB
:104540001958166E14C045F115C046F159D14CC129
:10455000E6FFF3DEE5520101B751B8110CE047C1A7
:104560003DF148C13EF101013F6B0101A86B010122
:10457000496B4A6B45D101014EBF06D0800EE66EF5
:10458000ADEC07F0E55205D0800EE66EBAEC07F010
:10459000E5520101A85106E10101436B446B0101A1
:1045A000010EA86F01013D510101475F01013E511C
:1045B0000101485B050EE66EB3C216F0176A16BE1F
:1045C0001768010116504503F3CF14F0F4CF15F02E
:1045D0004603F35000011526175001014503F3501F
:1045E0000001152614C0E6FF15C0E6FFC2EC00F07E
:1045F000E552E552E552F35001014727F4504823B4
:1046000043C1DEFF44C1DDFF030EE66E070E086EF8
:10461000096A43C10DF044C10EF0FBEC30F00650C6
:1046200001014725146E07504821156E14C0E6FF9E
:1046300015C0E6FFC2EC00F0E552E552E552F3CFBB
:1046400043F1F4CF44F10101DE50435D146EDD50BF
:104650004459156E040E14C0DBFF050E15C0DBFFB8
:10466000D880445104E7FE0E435DFF0E445904E236
:10467000FE0E436F44690DD0443504E243510808EF
:10468000000E445504E2080E436F446B02D044C14F
:1046900044F1B8C214F0156A14BE156843C108F09D
:1046A00044C109F014C00DF015C00EF0FBEC30F061
:1046B000020E06C0DBFF030E07C0DBFF020EDBCFDE
:1046C00014F0030EDBCF15F0010115504A19E8AEC6
:1046D00002D04A3504D04951145C4A51155804E2BD
:1046E0004907000E4A5B14D0020EDBCF14F0030E14
:1046F000DBCF15F04A511518E8AE02D0153404D0BE
:104700001450495D15504A5903E2492B000E4A23C3
:10471000020EDBCF14F0030EDBCF15F015504A1953
:10472000E8AE02D04A3504D04951145C4A511558BC
:1047300003E24907000E4A5BCBC21AF01B6A1ABE9D
:104740001B68040EDBCF16F0050EDBCF17F0D88008
:10475000175004E7FB0E165CFF0E175804E2FB0E21
:10476000146E156817D0040EDBCF18F0050EDBCFE2
:1047700019F0193404E218500808000E195404E224
:10478000080E146E156A06D0040EDBCF14F0050E69
:10479000DBCF15F014C008F015C009F01AC00DF0F9
:1047A0001BC00EF0FBEC30F006500101492707500A
:1047B0004A23D8804A5104E7FB0E495DFF0E4A594F
:1047C00004E2FB0E496F4A690DD04A3504E24951B3
:1047D0000F08000E4A5504E20F0E496F4A6B02D0D3
:1047E0004AC14AF101014EBF06D0800EE66EADEC23
:1047F00007F0E55205D0800EE66EBAEC07F0E55200
:10480000060EE15C02E2E16AE552E16EE552E7CFB5
:04481000D9FF1200BA
:0C481400D9CFE6FFE1CFD9FFFD0EDBCFCE
:10482000F6FFFE0EDBCFF7FF0800F5500FE0FD0EA0
:10483000DBCFF6FFDB2AFE0EDBCFF7FF01E3DB2A3F
:104840000800F550E66E06D8E552E8D7E552E7CF06
:10485000D9FF1200D9CFE6FFE1CFD9FF9EA8FED73E
:10486000FE0EDB50AD6EE552E7CFD9FF1200D9CF77
:10487000E6FFE1CFD9FF640E146E14C00EF0FE0EF9
:10488000DBCF09F0C3EC35F00950300FE66EE2DF04
:10489000E552640E146E14C00EF0FE0EDBCF09F06C
:1048A000C3EC35F0FE0E05C0DBFF0A0E146E14C01B
:1048B0000EF0FE0EDBCF09F0C3EC35F00950300FDF
:1048C000E66EC8DFE5520A0E146E14C00EF0FE0E3E
:1048D000DBCF09F0C3EC35F0FE0E05C0DBFFDB508B
:1048E000300FE66EB7DFE552E552E7CFD9FF120091
:1048F000D9CFE6FFE1CFD9FFFE0EDBCF14F01434A1
:104900000BE32D0EE66EA6DFE552FE0EDB50FF0D2B
:10491000FE0EF3CFDBFF04D02B0EE66E9BDFE552DD
:10492000FE0EDBCFE6FFA3DFE552E552E7CFD9FF6E
:1049300012000D0EE66E8EDFE5520A0EE66E8ADF7D
:10494000E5521200D9CFE6FFE1CFD9FFFE0EDB50D2
:10495000090808E2FE0EDB50410FF60FE66E7ADF23
:10496000E55206D0FE0EDB50300FE66E73DFE552E7
:10497000E552E7CFD9FF1200D9CFE6FFE1CFD9FF4B
:10498000FE0EDB380F0BE66EDDDFE552FE0EDB5070
:104990000F0BE66ED7DFE552E552E7CFD9FF1200E5
:1049A000D9CFE6FFE1CFD9FFFD0EDBCF14F0FE0E2D
:1049B000DBCF15F015C014F0156A1450E66EDCDF7D
:1049C000E552FD0EDBCFE6FFD7DFE552E552E7CF3C
:1049D000D9FF1200D9CFE6FFE1CFD9FFE6529EAA58
:1049E00013D0AB50020B03E1AB50040B05E0AB98C6
:1049F000AB88AE50DF6E08D0AE50DF6EDFCFE6FF83
:104A000029DFE552DF5002D0000E00D0E552E5521A
:104A1000E7CFD9FF1200D9CFE6FFE1CFD9FF020ED1
:104A2000E126010EDB6AD6DFDF6E300EDF5CFBE3D2
:104A3000DF503908F8E3300EDF5C0A0D010EF3CFCA
:104A4000DBFFC8DFDF6E300EDF5CFBE3DF503908D1
:104A5000F8E3300EDF5C146E010EDBCFE7FF14507D
:104A6000E726010EE7CFDBFFDB50146E020EE15CA0
:104A700003E200D0E16AE552E16E1450E552E7CF5F
:104A8000D9FF1200D9CFE6FFE1CFD9FF030EE1260F
:104A9000010EDB6A020EDB6A9DDFDF6E300EDF5C2B
:104AA00003E3DF50390803E22D0EDF5CF5E12D0E44
:104AB000DF5C0DE1010EF36E020EF3CFDBFF8ADF48
:104AC000DF6E300EDF5CFBE3DF503908F8E3300EB9
:104AD000DF5C0A0D010EF3CFDBFF7CDFDF6E300EF3
:104AE000DF5CFBE3DF503908F8E3300EDF5C146E67
:104AF000010EDBCFE7FF1450E726010EE7CFDBFF07
:104B0000020EDB5006E0010EDB50FF0D010EF3CF6D
:104B1000DBFF010EDB50146E030EE15C03E200D0FC
:104B2000E16AE552E16E1450E552E7CFD9FF120079
:104B3000D9CFE6FFE1CFD9FF170EE126D950FB0F01
:104B4000E96EFF0EDA20EA6ED890030EEB50000AF1
:104B500008E6000EEE5C000EEE58000EEE58000E59
:104B6000EE5823E22D0EE66E75DEE552FB0EDBCF2E
:104B700006F0FC0EDBCF07F0FD0EDBCF08F0FE0EDB
:104B8000DBCF09F00B680C680D680E6807EC34F099
:104B9000FB0E02C0DBFFFC0E03C0DBFFFD0E04C0FA
:104BA000DBFFFE0E05C0DBFF04D0200EE66E52DEFA
:104BB000E5520C0EDB6AFB0EDBCF06F0FC0EDBCF02
:104BC00007F0FD0EDBCF08F0FE0EDBCF09F00A0E7A
:104BD0000B6E0C6A0D6A0E6AC7EC30F00F0E06C041
:104BE000DBFF100E07C0DBFF110E08C0DBFF120E4B
:104BF00009C0DBFF0F0EDBCF18F0100EDBCF19F072
:104C0000110EDBCF1AF0120EDBCF1BF00A0E0B6E6B
:104C10000C6A0D6A0E6A18C006F019C007F01AC0B7
:104C200008F01BC009F007EC34F002C018F003C014
:104C300019F004C01AF005C01BF0D950FB0FE96E43
:104C4000FF0EDA20EA6E1850EE5C146E1950EE5822
:104C5000156E1A50EE58166E1B50EE58176E0D0E4C
:104C600014C0DBFFDB50300FE66ED9CF14F0DACF83
:104C700015F00C0EDBCFF3FFDB2AF350166E176A2C
:104C800016BE176814501624E96E15501720EA6EE8
:104C9000E552E750EF6ED9500F0FE96EDACFEAFF19
:104CA000FB0EEECFDBFFFC0EEECFDBFFFD0EEECFFB
:104CB000DBFFFE0EEECFDBFFFB0EDBCF07F0FC0EC3
:104CC000DBCF08F0FD0EDBCF09F0FE0EDBCF0AF0E4
:104CD0000A34000E0A1809E6D880000E0754000EA8
:104CE0000854000E0954000E0A5401E264D70C0E59
:104CF000DBCF14F0FA0EDB28E76E1418E8AE02D012
:104D0000E73402D0E750145C16E2FA0EDBCF15F060
:104D1000000EE76E1518E8AE02D0153403D0E75048
:104D2000D880155408E2300EE66E94DDE5522E0E62
:104D3000E66E90DDE552FA0EDBCFE6FF0C0EDB509F
:104D4000E552E75CFF0FE76E0E0EE7CFDBFFDBCF30
:104D500014F0143439E20E0EDBCF14F0156A166A23
:104D6000176A14AE03D0156816681768130E14C0BE
:104D7000DBFF140E15C0DBFF150E16C0DBFF160E91
:104D800017C0DBFFD950130FE96EDACFEAFFD890D6
:104D9000030EEB50000A08E6000EEE5C000EEE5823
:104DA000000EEE58000EEE580FE3300EE66E52DDA8
:104DB000E552D950130FE96EDACFEAFFEE06000E86
:104DC000EE5AEE5AEE5ADED70C0EDB06D9CF14F0AF
:104DD000DACF15F0DBCF16F0176A16BE176814503D
:104DE0001624E96E15501720EA6EEF50E66E32DD9C
:104DF000E552FA0EDB50F36E0C0EDB50F35C12E161
:104E00000C0EDBCF14F0000EE76E1418E8AE02D0E3
:104E1000143403D0E750D880145404E22E0EE66E0A
:104E200019DDE5520C0EDBCF14F0000EE76E1418FE
:104E3000E8AE02D0143403D0E750D8801454C4E351
:104E4000F90EDB5005E0F90EDBCFE6FF03DDE5529E
:104E5000170EE15C02E2E16AE552E16EE552E7CF4E
:044E6000D9FF120064
:0C4E6400620EE66E660EE66E0AEC24F0AC
:104E7000E552E5521200D9CFE6FFE1CFD9FFFE0E91
:104E8000DB500BE0420EE66E640EE66E0AEC24F098
:104E9000E552E5520101010E046FA80EE66E640EA4
:104EA000E66E0AEC24F0E552E55201019A5109E060
:104EB000590EE66E660EE66E0AEC24F0E552E552F7
:104EC00008D0490EE66E660EE66E0AEC24F0E55256
:104ED000E552400EE66E660EE66E0AEC24F0E552F0
:104EE000E55201019B5109E0590EE66E660EE66E31
:104EF0000AEC24F0E552E55208D0490EE66E660E43
:104F0000E66E0AEC24F0E552E5523A0EE66E660EC5
:104F1000E66E0AEC24F0E552E55201019D5116E0DF
:104F2000550E01014B5D09E1310EE66E660EE66E2F
:104F30000AEC24F0E552E55208D0280EE66E660E23
:104F4000E66E0AEC24F0E552E55208D0490EE66E12
:104F5000660EE66E0AEC24F0E552E55280EC02F0B3
:104F60001C0EE66E660EE66E0AEC24F0E552E55283
:104F70000201BF417F0B010B06E0330EE66E2AEC07
:104F800024F0E55205D0310EE66E2AEC24F0E5520D
:104F9000010EE66E660EE66E0AEC24F0E552E5526E
:104FA00001010451146E156A153404E21450770897
:104FB000000E155406E2320EE66E2AEC24F0E5529D
:104FC00005D0310EE66E2AEC24F0E5524BDFE552B7
:104FD000E7CFD9FF1200D9CFE6FFE1CFD9FF090E05
:104FE000E1260101A55101E042D2EAEC24F0E76E8E
:104FF000020EE7CFDBFFDB5001E139D2020EDBCF3F
:10500000E6FF76EC34F0E552F3CF14F0F4CF15F070
:105010001450151009E0020EDBCFE6FF88EC34F0E7
:10502000E552020EF3CFDBFF020EDB503F0A01E137
:1050300014D27D0A01E10CD2100A01E1ACD11C0AA4
:1050400001E180D11D0A01E179D11E0A62E0010A65
:1050500001E00DD2E60EE66E650EE66E0AEC24F077
:10506000E552E55201010451146E156A153404E24B
:1050700014507708000E155406E2320EE66E2AEC44
:1050800024F0E55205D0310EE66E2AEC24F0E5520C
:1050900080EC02F0010EF36E030EF3CFDBFFB00ED7
:1050A000DE6E020EDD6EDECF14F0DDCF15F0CB0E1E
:1050B000D8801454020E15542AE3DA0EE66E650EFB
:1050C000E66E0AEC24F0E552E552030EDBCFF3FF67
:1050D000DB2AF350E66E37EC24F0E552D60EE66E8E
:1050E000650EE66E0AEC24F0E552E552DECFE9FFEC
:1050F000DDCFEAFF080EEFCFDBFFDBCFE6FF78EC7A
:1051000024F0E552DF2A010E01E3DB2ACCD7AADE28
:10511000AED180B811D1020EE66EADEC07F0E552CB
:10512000DA0EE66E650EE66E0AEC24F0E552E55204
:105130000BEC25F0FF0FE76E030EE7CFDBFFD60E7B
:10514000E66E650EE66E0AEC24F0E552E55242EC9E
:1051500025F0E76E080EE7CFDBFF01010451146E66
:10516000156A153404E214507708000E155408E24D
:10517000200EF36E040EF3CFDBFF050EDB6A04D0C6
:10518000040EDB6A050EDB6A030EDB50146E156A33
:10519000BF0E166E020E176EB00E165E020E175A76
:1051A0001650141802E11750151802E1080EDB968C
:1051B000080EDBCFE6FF030EDB50E76E040EDBCFFD
:1051C00014F0050EDBCF15F0E7501426000E152263
:1051D0001450E66EEDEC02F0E552E552030EDB50A2
:1051E000146E156ABF0E166E020E176EB00E165EA6
:1051F000020E175A1650141802E1175015184EE1F6
:1052000001010451146E156A153404E21450770834
:10521000000E155405E2040EDB6A050EDB6A07D0AA
:10522000200EF36E040EF3CFDBFF050EDB6A080ED3
:10523000DB90DB94DB96DB9ADB9CDB9EDBCFE6FF2F
:10524000030EDB50E76E040EDBCF14F0050EDBCF50
:1052500015F0E7501426000E15221450E66E6CEC83
:1052600002F0E552ED0BE552E710E76E080EE7CFCE
:10527000DBFFDBCFE6FF030EDB50E76E040EDBCF78
:1052800014F0050EDBCF15F0E7501426000E1522A2
:105290001450E66EEDEC02F0E552E5520201BB352A
:1052A00004E3FF0EBB03F35001D0BB51166E176A27
:1052B00016BE1768BEC218F0196A18BE1968000138
:1052C00018501602F3CF14F0F4CF15F01702F35074
:1052D000152619501602F3501526153404E2145001
:1052E0007F08000E155423E27F0E146EBBC20EF031
:1052F00014C009F05AEC30F0080E09C0DBFFDBCF18
:10530000E6FFBE0E166E020E176EB00E165E020E91
:10531000175A040EDB501624146E050EDB501720AE
:10532000156E1450E66EEDEC02F0E552E552020EF9
:10533000E66EBAEC07F0E55295DD99D0E66A9BDDA2
:10534000E55295D0C60EE66E650EE66E0AEC24F0C8
:10535000E552E55237C1E6FF78EC24F0E552BF0E86
:10536000E66E650EE66E0AEC24F0E552E55238C1B1
:10537000E6FF78EC24F0E552B90EE66E650EE66EB7
:105380000AEC24F0E552E55239C1E6FF78EC24F04E
:10539000E55268DD6CD0B40EE66E650EE66E0AEC82
:1053A00024F0E552E55200C1E6FF37EC24F0E55267
:1053B000B00EE66E650EE66E0AEC24F0E552E5529C
:1053C00001C1E6FF78EC24F0E552AC0EE66E650E06
:1053D000E66E0AEC24F0E552E55202C1E6FF78ECF5
:1053E00024F0E552A80EE66E650EE66E0AEC24F097
:1053F000E552E55203C1E6FF78EC24F0E552A40E35
:10540000E66E650EE66E0AEC24F0E552E55204C144
:10541000E6FF37EC24F0E552A00EE66E650EE66E70
:105420000AEC24F0E552E55205C1E6FF37EC24F022
:10543000E5529C0EE66E650EE66E0AEC24F0E5522F
:10544000E55206C1E6FF37EC24F0E5520BDD0FD044
:1054500080B803D0F29E80EC3EF0150EE66E650E2D
:10546000E66E0AEC24F0E552E552FCDC00D0090EB1
:10547000E15C02E2E16AE552E16EE552E7CFD9FF75
:02548000120018
:0E548200D9CFE6FFE1CFD9FFE6529498829A87
:10549000080EDF6EDF501AE08296FE0EDBAE02D001
:1054A000828801D08298DBCFF3FFF39EF346F3CFDF
:1054B000DBFF010EE66ED1EC35F0E5528286010E7F
:1054C000E66ED1EC35F0E552DF06E4D7E552E55261
:1054D000E7CFD9FF1200D9CFE6FFE1CFD9FFE652DF
:1054E000FE0EDBCFE6FFCDDFE55294880BD8DF6EF2
:1054F000FE0EDBAC828ADF5000D0E552E552E7CFEA
:10550000D9FF1200D9CFE6FFE1CFD9FF020EE12685
:10551000080EDF6EDF5016E08296010EE66ED1ECCB
:1055200035F0E552010EDBCFF3FFF39EF346F3CFE8
:10553000DBFF82B8DB808286E66ED1EC35F0E55287
:10554000DF06E8D7010EDB50146E020EE15C03E2C9
:1055500000D0E16AE552E16E1450E552E7CFD9FF81
:105560001200D9CFE6FFE1CFD9FFE652FD0EDBCF27
:10557000E6FF87DFE552080EDF6EDF501AE0829605
:10558000FE0EDBAE02D0828801D08298DBCFF3FF23
:10559000F39EF346F3CFDBFF010EE66ED1EC35F060
:1055A000E5528286010EE66ED1EC35F0E552DF065B
:1055B000E4D7828A9488E552E552E7CFD9FF1200FA
:1055C000D9CFE6FFE1CFD9FFE65201019A6B828A7B
:1055D000210EE66E4A0EE66EC4DFE552E5528F0EEE
:1055E000E66E79DFE552DF6E3A0EDF5C30E1200EC9
:1055F000E66EC70EE66EB5DFE552E552220EE66EA8
:10560000E66AAFDFE552E552300EE66E480EE66E12
:10561000A8DFE552E552340EE66EE66AA2DFE552F7
:10562000E552350EE66EFC0EE66E9BDFE552E55266
:10563000360EE66EE66895DFE552E552380EE66E08
:10564000E66A8FDFE552E5520101010E9A6FE552DD
:10565000E552E7CFD9FF12000101376B0101386B2A
:105660000101396BADDF01019A5101E041D812000F
:10567000D9CFE6FFE1CFD9FFE652A70EE66E2BDFCA
:10568000E552DF6EE80EE66E26DFE55201012F6F70
:10569000306B38DF146E156A14C015F0146A14509C
:1056A00001012F13155030132DDF0101316F326BC3
:1056B00029DF146E156A14C015F0146A1450010124
:1056C0003113155032131EDF0101336F346B1ADFB3
:1056D000146E156A14C015F0146A145001013313C6
:1056E00015503413828AE552E552E7CFD9FF1200F4
:1056F000D9CFE6FFE1CFD9FF070EE126020EE66E15
:10570000E66A5BEC00F0E552E552010EDB6A020E40
:10571000DB6A030EDB6A040EDB6A050EDB6A060E2B
:10572000DB6ADF6A100EDF5C28E2A70EE66ED3DECE
:10573000E552080B01E1F9D79BDFD950010FE96E63
:10574000DACFEAFF01012F51EE263051ED22D95078
:10575000030FE96EDACFEAFF01013351EE2634512F
:10576000ED22D950050FE96EDACFEAFF0101315180
:10577000EE263251ED22DF2AD5D7040EE66E010E59
:10578000DBCFE6FF020EDBCFE6FFC2EC00F0E55216
:10579000E552E552DE52F3CFDEFFF4CFDDFFDD52FE
:1057A000040EE66E030EDBCFE6FF040EDBCFE6FF52
:1057B000C2EC00F0E552E552E552030EF3CFDBFFF9
:1057C000040EF4CFDBFFE66E050EDBCFE6FF060E20
:1057D000DBCFE6FFC2EC00F0E552E552E552050EE4
:1057E000F3CFDBFF060EF4CFDBFF010EDBCF16F0AD
:1057F000020EDBCF17F0D880175004E79D0E165C21
:10580000FF0E175804E29D0E146E156817D0010E96
:10581000DBCF18F0020EDBCF19F0193404E2185078
:105820006308000E195404E2630E146E156A06D064
:10583000010EDBCF14F0020EDBCF15F014C037F1F0
:10584000030EDBCF16F0040EDBCF17F0D880175015
:1058500004E79D0E165CFF0E175804E29D0E146EB1
:10586000156817D0030EDBCF18F0040EDBCF19F04C
:10587000193404E218506308000E195404E2630E50
:10588000146E156A06D0030EDBCF14F0040EDBCFC6
:1058900015F014C038F1050EDBCF16F0060EDBCF85
:1058A00017F0000E165E040E175AD880175004E742
:1058B0009D0E165CFF0E175804E29D0E146E1568BF
:1058C0001FD0050EDBCF18F0060EDBCF19F0000E4F
:1058D000185E040E195A193404E218506308000EB9
:1058E000195404E2630E146E156A0AD0050EDBCF5C
:1058F00014F0060EDBCF15F0000E145E040E155AE0
:1059000014C039F1070EE15C02E2E16AE552E16E92
:08591000E552E7CFD9FF1200B8
:08591800D9CFE6FFE1CFD9FF72
:10592000FE0EDB500101A55D28E09D9AFE0EDBCF47
:10593000A5F1A5510BE0680EE66EE66A3C0EE66E38
:1059400082EC33F0E552E552E5520AD01A0EE66ECB
:10595000E66A3C0EE66E82EC33F0E552E552E55223
:10596000FE0EDB50E8B09D8AE8A09D9A0A0EE66E16
:10597000E66A28EC00F0E552E552E552E7CFD9FFA0
:105980001200530EE66E39EC35F0E552310EE66E3C
:10599000C0EC34F0E552840EE66E70EC35F0E55262
:1059A0000201BF390F0B010BE8B0BD80E8A0BD902C
:1059B000FE0EE66E55EC35F0E5524E0ECB6E010153
:1059C000FD6BE66AA9DFE5521200DACFE4FFE2CF11
:1059D000DAFFE65200D0E552E5CFDAFF1100DACF68
:1059E000E4FFE2CFDAFFE9CFE4FFEACFE4FFF6CF4E
:1059F000E4FFF7CFE4FFF5CFE4FFF3CFE4FFF4CF0C
:105A0000E4FFFACFE4FF00EE00F0140EE80403E335
:105A1000EECFE4FFFBD700EE14F00E0EE80403E334
:105A2000EECFE4FFFBD7E652D9CFE6FFE1CFD9FFB7
:105A3000E6529EA20DD09E920101985103E04E0EB7
:105A4000CB6E2BD1010E986FEA0ECB6E0201DA6B92
:105A50009EA43DD1CC6A9E920101986BBECFDEF22E
:105A6000BFCFDFF20201E06BDE0EE96E020EEA6EDE
:105A7000020EEB50DD19E8AE02D0DD3506D0DB5169
:105A8000EE5CDC51EE58DD51EE5805E2FF0EDB5FB7
:105A9000DC5B000EDD5BDB0EE96E020EEA6EEE50A3
