:020000040000FA
:06000000B6EF1CF0120037
:020006001200E6
:0600080008EF15F01200E4
:02000E00C250DE
:08001000020B01E0010E1200D9
:06001800FEEF14F01200DF
:02001E000400DC
:10002000283B0000000200009A0000006E3A000029
:1000300000010000BA000000FA390000840300004B
:1000400074000000DE390000BA0100001C0000004E
:10005000430EE66E300EE66EF3EC0CF0E552E55220
:100060000301655101E111D1F8EC16F03D0EE66E89
:10007000300EE66EF3EC0CF0E552E552470EE66EFC
:10008000030EE66E23C31EF024C31FF0206A216A0C
:100090001FAE02D020682168E80E0B6E030E0C6EB6
:1000A0000D6A0E6A1EC006F01FC007F020C008F0DF
:1000B00021C009F043EC1BF002C01EF003C01FF08A
:1000C00004C020F005C021F0020E1F26000E2022E1
:1000D00021220B6A040E0C6E0D6A0E6A1EC006F019
:1000E0001FC007F020C008F021C009F0A7EC19F0EC
:1000F00006C01EF007C01FF008C020F009C021F0A4
:100100001EC0E6FF1FC0E6FF20C0E6FF21C0E6FFDD
:1001100093EC0EF0226E060EE15E225082EC0DF0A2
:10012000370EE66E300EE66EF3EC0CF0E552E5525B
:10013000470EE66E030EE66E27C31EF028C31FF0BF
:10014000206A216A1FAE02D020682168E80E0B6E7B
:10015000030E0C6E0D6A0E6A1EC006F01FC007F07B
:1001600020C008F021C009F043EC1BF002C01EF0D3
:1001700003C01FF004C020F005C021F0020E1F26AE
:10018000000E202221220B6A040E0C6E0D6A0E6AEC
:100190001EC006F01FC007F020C008F021C009F003
:1001A000A7EC19F006C01EF007C01FF008C020F031
:1001B00009C021F01EC0E6FF1FC0E6FF20C0E6FF19
:1001C00021C0E6FF93EC0EF0226E060EE15E225097
:1001D00082EC0DF02F0EE66E300EE66EF3EC0CF0B6
:1001E000E552E552470EE66E030EE66E25C31EF09D
:1001F00026C31FF0206A216A1FAE02D02068216842
:10020000E80E0B6E030E0C6E0D6A0E6A1EC006F031
:100210001FC007F020C008F021C009F043EC1BF01C
:1002200002C01EF003C01FF004C020F005C021F082
:10023000020E1F26000E202221220B6A040E0C6ED5
:100240000D6A0E6A1EC006F01FC007F020C008F03D
:1002500021C009F0A7EC19F006C01EF007C01FF07E
:1002600008C020F009C021F01EC0E6FF1FC0E6FF55
:1002700020C0E6FF21C0E6FF93EC0EF0226E060ED2
:10028000E15E225082EC0DF008D0180EE66E300EC2
:10029000E66EF3EC0CF0E552E5521200D9CFE6FF22
:1002A000E1CFD9FF030EE126020EDB6A100EDE6EEF
:1002B000DD6ADECF1EF0DDCF1FF01F3404E21E50DA
:1002C000F608000E1F5428E325EC08F0DFCFE6FF08
:1002D00047EC08F0E552000911E1020EDB2A140E8A
:1002E000E66E300EE66EF3EC0CF0E552E552DFCF31
:1002F000E6FFA5EC0DF0E55282EC0DF037EC08F0CE
:10030000020EE66EE66A2DEC10F0E552E552020EA2
:10031000DE26000EDD22CDD7020EDB501E6E030E50
:10032000E15C03E200D0E16AE552E16E1E50E55265
:10033000E7CFD9FF1200D9CFE6FFE1CFD9FF050EF5
:10034000E1260101C9390F0B010B09E0040EE66E2D
:10035000300EE66EF3EC0CF0E552E55208D0F40EE8
:10036000E66E2F0EE66EF3EC0CF0E552E552E90E68
:10037000E66E2F0EE66EF3EC0CF0E552E55203014B
:10038000615101E10FD1616BD950010FE96EDACFF4
:10039000EAFF900EEE6E000EED6E010EDF6EDFCF07
:1003A0001EF0070EE76E1E18E8AE02D01E3403D012
:1003B000E750D8801E5401E29BD0300EDF24E66E59
:1003C00013EC0DF0E552E30EE66E2F0EE66EF3EC45
:1003D0000CF0E552E552D950010FE96EDACFEAFF91
:1003E000EECFF3FFEDCFF4FF020EEE26000EEF226C
:1003F000F3CFE9FFF4CFEAFF030EEECFDBFF040EED
:10040000EDCFDBFF030EDBCFE6FF040EDBCFE6FF15
:10041000B9EC0DF0E552E552090EE66E13EC0DF065
:10042000E552250EE66EE66AFF0EE76E030EDBCFA1
:100430001EF0040EDBCF1FF0E7501E161F6A206A65
:10044000216A640E0B6E0C6A0D6A0E6A1EC006F0FD
:100450001FC007F020C008F021C009F043EC1BF0DA
:1004600002C01EF003C01FF004C020F005C021F040
:10047000F00E0B6E0C6A0D6A0E6A1EC006F01FC0ED
:1004800007F020C008F021C009F0A7EC19F006C061
:100490001EF007C01FF008C020F009C021F01EC0E8
:1004A000E6FF1FC0E6FF20C0E6FF21C0E6FF93EC99
:1004B0000EF0226E060EE15E2250030EDBCF1EF020
:1004C000040EDBCF1FF0000E1E16FF0E1F161E506F
:1004D00002E1010E1F1808E0DD0EE66E2F0EE66E3B
:1004E000F3EC0CF0E552E55282EC0DF0DF2A57D721
:1004F000D70EE66E2F0EE66EF3EC0CF0E552E552E9
:10050000020E086E096A70C30DF071C30EF008EC9C
:100510001AF0030E06C0DBFF040E07C0DBFFD95044
:10052000030FE96EDACFEAFF800EEE26130EED22FE
:10053000E66A030EE66EDBCF1EF0040EDBCF1FF083
:10054000206A216A1EC0E6FF1FC0E6FF20C0E6FF4A
:1005500021C0E6FF93EC0EF0226E060EE15E225003
:10056000C80EE66E2F0EE66EF3EC0CF0E552E55287
:10057000E66AE66A80C31EF081C31FF082C320F0E2
:10058000216A1EC0E6FF1FC0E6FF20C0E6FF21C0B3
:10059000E6FF93EC0EF0226E060EE15E225082EC36
:1005A0000DF008D0B80EE66E2F0EE66EF3EC0CF0F0
:1005B000E552E552050EE15C02E2E16AE552E16EC8
:1005C000E552E7CFD9FF12000101C979C9390F0BF4
:1005D000010B09E0040EE66E300EE66EF3EC0CF053
:1005E000E552E55208D0F40EE66E2F0EE66EF3ECFF
:1005F0000CF0E552E55200019C699D6900019A6981
:100600009B699AC098F09BC099F09AC096F09BC0E5
:1006100097F09AC094F09BC095F09AC092F09BC05E
:1006200093F09AC090F09BC091F00301806B816BB6
:10063000826B706B716B616B010E5F6F1200D9CFB3
:10064000E6FFE1CFD9FF020EE126A70EE66E2F0EE0
:10065000E66EF3EC0CF0E552E55225EC08F0430EA3
:10066000E66E47EC08F0E552000901E043D0E66A87
:100670007BEC08F0E552206E216A20C021F0206A50
:1006800020C0E6FF21C0E6FF010EE66E7BEC08F01D
:10069000E552E552E7CF21F0E552E7CF20F0000127
:1006A00020101E6E21C01FF01EC0DEFF1FC0DDFF28
:1006B00037EC08F0E66A010EE66EDECF1EF0DDCF05
:1006C0001FF0206A216A1EC0E6FF1FC0E6FF20C09F
:1006D000E6FF21C0E6FF93EC0EF0226E060EE15E0F
:1006E0002250A10EE66E2F0EE66EF3EC0CF0E552F2
:1006F000E5520AD037EC08F09A0EE66E2F0EE66E41
:10070000F3EC0CF0E552E552020EE15C02E2E16A24
:10071000E552E16EE552E7CFD9FF12006F0EE66EAB
:100720002F0EE66EF3EC0CF0E552E552D3EC0DF033
:10073000000901E1FBD725EC08F0420EE66E47EC1C
:1007400008F0E552000901E045D0430EE66E47ECA3
:1007500008F0E552000901E03DD037EC08F03E0E0C
:10076000E66E2F0EE66EF3EC0CF0E552E552D3EC9C
:100770000DF0000901E1FBD725EC08F0420EE66E12
:1007800047EC08F0E552000901E024D0450EE66E82
:1007900047EC08F0E552000901E01CD037EC08F006
:1007A000800EE66E37EC13F0E552640EE66EE66AF4
:1007B0002DEC10F0E552E552800EE66E44EC13F09D
:1007C000E552390EE66E2F0EE66EF3EC0CF0E552B4
:1007D000E5520AD037EC08F09A0EE66E2F0EE66E60
:1007E000F3EC0CF0E552E5521200D9CFE6FFE1CF71
:1007F000D9FFE652260EE66E2F0EE66EF3EC0CF0F5
:10080000E552E5520301675101E179D0550E3B5D98
:1008100009E1170EE66E2F0EE66EF3EC0CF0E552D2
:10082000E55208D0080EE66E2F0EE66EF3EC0CF0E3
:10083000E552E552F40EE66E6EEC0AF0E552000960
:1008400001E15DD0230EE66EE66A2DEC10F0E55274
:10085000E55221EC0AF0DF6EFF0EE66E2E0EE66E1C
:10086000F3EC0CF0E552E552E66AE66A39C31EF095
:100870003AC31FF0206A216A1EC0E6FF1FC0E6FFD0
:1008800020C0E6FF21C0E6FF93EC0EF0226E060EBC
:10089000E15E22503CC3E6FF6EEC0AF0E55200092F
:1008A00001E12DD00A0EE66EE66A2DEC10F0E5525D
:1008B000E55221EC0AF0DF6EF70EE66E2E0EE66EC4
:1008C000F3EC0CF0E552E552E66AE66A39C31EF035
:1008D0003AC31FF0206A216A1EC0E6FF1FC0E6FF70
:1008E00020C0E6FF21C0E6FF93EC0EF0226E060E5C
:1008F000E15E225082EC0DF082EC0DF00AD037EC74
:1009000008F09A0EE66E2F0EE66EF3EC0CF0E55250
:10091000E552E552E552E7CFD9FF1200D9CFE6FF05
:10092000E1CFD9FF020EE126010EF36EFE0EDB5081
:1009300004E0D890F336E806FCE1F350E76E010ED0
:10094000E7CFDBFFDF6ADFCF1EF00A0EE76E1E186F
:10095000E8AE02D0E73402D0E7501E5C0FE2010E91
:10096000DB5003013E1B0DEC13F0C80EE66EE66A89
:100970002DEC10F0E552E552DF2AE5D7020EE15CDE
:1009800002E2E16AE552E16EE552E7CFD9FF1200DB
:10099000D9CFE6FFE1CFD9FF040EE126E30EE66EE4
:1009A0002E0EE66EF3EC0CF0E552E552E66AE66ACE
:1009B00003EC1BF0E552E552F3CF1EF0F4CF1FF02D
:1009C000206A1FBE20682E0E0C6E0D6A0E6A1EC0B5
:1009D00007F01FC008F020C009F026EC1AF004C090
:1009E0001EF005C01FF006C020F0090E1E26000EE6
:1009F0001F222022110E0C6E0D6A0E6A1EC007F017
:100A00001FC008F020C009F07AEC19F007C01EF0F2
:100A100008C01FF009C020F0216A20BE21681EC056
:100A2000DFFF010E1FC0DBFF020E20C0DBFF030E45
:100A300021C0DBFF200EE66EE66AE66AE66AE66A39
:100A4000E66A93EC0EF01E6E060EE15E1E50DC0EA2
:100A5000E66E2E0EE66EF3EC0CF0E552E552560E05
:100A6000E66E020EE66ED9CFE9FFDACFEAFFEECFEF
:100A7000E6FFEECFE6FFEECFE6FFEFCFE6FF93EC2B
:100A80000EF01E6E060EE15E1E5082EC0DF0E66A60
:100A9000010EE66E03EC1BF0E552E552F3CF1EF0BB
:100AA000F4CF1FF0206A1FBE2068310E0C6E0D6A55
:100AB0000E6A1EC007F01FC008F020C009F026EC27
:100AC0001AF004C01EF005C01FF006C020F0050E8D
:100AD0001E26000E1F2220220A0E0C6E0D6A0E6AC0
:100AE0001EC007F01FC008F020C009F07AEC19F012
:100AF00007C01EF008C01FF009C020F0216A20BE08
:100B000021681EC0DFFF010E1FC0DBFF020E20C0E8
:100B1000DBFF030E21C0DBFF200EE66EE66A010E4E
:100B2000E66EE66AE66AE66A93EC0EF01E6E060E64
:100B3000E15E1E50D40EE66E2E0EE66EF3EC0CF067
:100B4000E552E552560EE66E030EE66ED9CFE9FF8A
:100B5000DACFEAFFEECFE6FFEECFE6FFEECFE6FF1D
:100B6000EFCFE6FF93EC0EF01E6E060EE15E1E5018
:100B700082EC0DF0E66A020EE66E03EC1BF0E55225
:100B8000E552F3CF1EF0F4CF1FF0206A1FBE20689D
:100B9000310E0C6E0D6A0E6A1EC007F01FC008F001
:100BA00020C009F026EC1AF004C01EF005C01FF0AA
:100BB00006C020F0050E1E26000E1F2220220A0E5F
:100BC0000C6E0D6A0E6A1EC007F01FC008F020C030
:100BD00009F07AEC19F007C01EF008C01FF009C038
:100BE00020F0216A20BE21681EC0DFFF010E1FC059
:100BF000DBFF020E20C0DBFF030E21C0DBFF200E57
:100C0000E66EE66A030EE66EE66AE66AE66A93EC6C
:100C10000EF01E6E060EE15E1E50CC0EE66E2E0E1F
:100C2000E66EF3EC0CF0E552E552560EE66E030E5E
:100C3000E66ED9CFE9FFDACFEAFFEECFE6FFEECFDF
:100C4000E6FFEECFE6FFEFCFE6FF93EC0EF01E6E71
:100C5000060EE15E1E5082EC0DF0E66A040EE66EB2
:100C600003EC1BF0E552E552F3CF1EF0F4CF1FF07A
:100C7000206A1FBE2068310E0C6E0D6A0E6A1EC0FF
:100C800007F01FC008F020C009F026EC1AF004C0DD
:100C90001EF005C01FF006C020F0050E1E26000E37
:100CA0001F2220220A0E0C6E0D6A0E6A1EC007F06B
:100CB0001FC008F020C009F07AEC19F007C01EF040
:100CC00008C01FF009C020F0216A20BE21681EC0A4
:100CD000DFFF010E1FC0DBFF020E20C0DBFF030E93
:100CE00021C0DBFF200EE66EE66A020EE66EE66AC3
:100CF000E66AE66A93EC0EF01E6E060EE15E1E508A
:100D0000C40EE66E2E0EE66EF3EC0CF0E552E552E4
:100D1000560EE66E030EE66ED9CFE9FFDACFEAFF94
:100D2000EECFE6FFEECFE6FFEECFE6FFEFCFE6FF3A
:100D300093EC0EF01E6E060EE15E1E5082EC0DF07E
:100D4000E66A030EE66E03EC1BF0E552E552F3CFC4
:100D50001EF0F4CF1FF0206A1FBE2068310E0C6E0B
:100D60000D6A0E6A1EC007F01FC008F020C009F00F
:100D700026EC1AF004C01EF005C01FF006C020F0DB
:100D8000050E1E26000E1F2220220A0E0C6E0D6A72
:100D90000E6A1EC007F01FC008F020C009F07AECF0
:100DA00019F007C01EF008C01FF009C020F0216A2A
:100DB00020BE21681EC0DFFF010E1FC0DBFF020E38
:100DC00020C0DBFF030E21C0DBFF200EE66EE66ACB
:100DD000030EE66EE66AE66AE66A93EC0EF01E6EB5
:100DE000060EE15E1E50BC0EE66E2E0EE66EF3ECB5
:100DF0000CF0E552E552560EE66E030EE66ED9CFC4
:100E0000E9FFDACFEAFFEECFE6FFEECFE6FFEECF67
:100E1000E6FFEFCFE6FF93EC0EF01E6E060EE15EEE
:100E20001E5082EC0DF0040EE15C02E2E16AE55234
:100E3000E16EE552E7CFD9FF12001200D9CFE6FFED
:100E4000E1CFD9FFE652F29E1CEC11F037EC1BF01B
:100E5000190EE66EE66A3C0EE66EBEEC1AF0E5523E
:100E6000E552E552530EE66E3AEC1CF0E552310EB7
:100E7000E66EFCEC1BF0E552840EE66E71EC1CF0A5
:100E8000E5520101C9390F0B010BE8B0BD80E8A0A4
:100E9000BD90FE0EE66E56EC1CF0E5524E0ECB6E8B
:100EA000F29ADF6ADFCF1EF0080EE76E1E18E8AE7A
:100EB00002D0E73402D0E7501E5C17E2DFCFE9FF33
:100EC000EA6AE9BEEA685F0EE926030EEA22EF6AE3
:100ED000DFCFE9FFEA6AE9BEEA68670EE926030E9A
:100EE000EA22000EEF6EDF2ADDD70301010E5F6FED
:100EF0002BEC11F091EC18F00101C96B2E0EE66E8F
:100F000044EC13F0E552800EE66E44EC13F0E5522B
:100F1000020EE66E37EC13F0E552F28CF28E040E00
:100F2000E66E37EC13F0E552640EE66EE66A2DECE1
:100F300010F0E552E552B6EC16F000019C699D698F
:100F400000019A699B699AC098F09BC099F09AC079
:100F500096F09BC097F09AC094F09BC095F09AC011
:100F600092F09BC093F09AC090F09BC091F0030167
:100F7000706B716B9DEC0AF0B6EC08F0320EE66E09
:100F8000E66A2DEC10F0E552E552640EE66EE66A74
:100F90002DEC10F0E552E552010EE66E5AEC13F01E
:100FA000E552230EE66EE66A2DEC10F0E552E552AE
:100FB00003015F5103E18050100B13E1040EE66E54
:100FC00037EC13F0E552080EE66E44EC13F0E552F0
:100FD0000301655105E0200EE66E37EC13F0E55293
:100FE0000FD0080EE66E37EC13F0E552040EE66EF5
:100FF00044EC13F0E552200EE66E44EC13F0E5529B
:10100000D2EC13F0D5D7E552E552E7CFD9FF120065
:10101000010EE66ED2EC1CF0E5521200D9CFE6FFCD
:10102000E1CFD9FFE652010EDF6EF2DF938E81BE73
:1010300004D0DF2A01E101D0FAD7EADFDF5000D087
:10104000E552E552E7CFD9FF1200D9CFE6FFE1CF55
:10105000D9FFE652938CE2DFDF6E819C939CD8DF50
:10106000819E939EE552E552E7CFD9FF1200D9CF7A
:10107000E6FFE1CFD9FFE652939C819CCFDFDF6E84
:10108000938CC6DFE552E552E7CFD9FF1200D9CFE6
:10109000E6FFE1CFD9FFE652080EDF6EDF5017E022
:1010A000FE0EDBAE02D0938C02D0819C939CB6DF07
:1010B00000090BE0819E939EFE0EDBCFF3FFF39EB3
:1010C000F346F3CFDBFFDF06E9D7010E0FD0938C99
:1010D000A5DF000909E08150400B01E0010EDF6E41
:1010E000819E939EDF5002D0010E00D0E552E55262
:1010F000E7CFD9FF1200D9CFE6FFE1CFD9FF020E2B
:10110000E126DF6A938CDE52080EDD6E010EDB50A5
:1011100010E084DF00090BE0DF9EDF4681AC02D0E7
:10112000000EDF80819E939E010EDB06EFD7000E3E
:1011300011D0FE0EDB50E8B0818CE8A0819C939C1E
:101140006DDF000905E0819E939EDF5003D002D041
:10115000000E00D01E6E020EE15C02E2E16AE55272
:10116000E16E1E50E552E7CFD9FF12006EDF420E4E
:10117000E66E8DDFE552000901E05CD0470EE66EB9
:1011800086DFE552000901E055D0740EE66E7FDF80
:10119000E552000901E04ED0720EE66E78DFE552AE
:1011A000000901E047D063DF50DF420EE66E6FDFDB
:1011B000E552000901E03ED0770EE66E68DFE552A9
:1011C000000901E037D0080EE66E61DFE552000944
:1011D00001E030D0720EE66E5ADFE552000901E000
:1011E00029D045DF020EE66EE66A2DEC10F0E552DE
:1011F000E5522BDF420EE66E4ADFE552000901E0C0
:1012000019D0770EE66E43DFE552000901E012D0F7
:10121000060EE66E3CDFE552000901E00BD0100E31
:10122000E66E35DFE552000901E004D020DF03015E
:10123000010E666F37EF08F0D9CFE6FFE1CFD9FF97
:10124000060EE1260301665101E1F1D0FEDE430EF8
:10125000E66E1DDFE552000905E009DF0301416B81
:10126000426BE5D0E66A47DFE552206E216A20C076
:1012700021F0206A20C0E6FF21C0E6FF010EE66EE5
:101280003ADFE552E552E7CF21F0E552E7CF20F013
:10129000000120101E6E21C01FF0040E1EC0DBFFD7
:1012A000050E1FC0DBFFE3DED950040FE96EDACF75
:1012B000EAFF0F0E0D6E0E6AEECF08F0EDCF09F0CB
:1012C000A0EC1CF008C0EEFF09C0EDFF040EDBCF60
:1012D000DEFFDBCFDDFF0301403504E23F51F008C4
:1012E000000E405508E20301416B426B03013F07CA
:1012F000000E405B9CD0F00E3F1901E1405107E128
:10130000DECF3FF3DDCF40F30301416B426B0301BE
:10131000DE503F5D1E6EDD5040591F6E1EC0DEFF69
:101320001FC0DDFFDECF1EF0DDCF1FF01F3404E352
:101330001E508808FF0E1F5405E3F00EDE26000E37
:10134000DD2213D0DECF1EF0DDCF1FF01F3404E20C
:101350001E507808000E1F5408E2D9CFE9FFDACFFB
:10136000EAFFF00EEE5E000EED5ADECF20F0DDCF8C
:1013700021F0D880215004E7EC0E205CFF0E2158AC
:1013800004E2EC0E1E6E1F6813D0DECF22F0DDCF1C
:1013900023F0233404E222501408000E235404E204
:1013A000140E1E6E1F6A04D0DECF1EF0DDCF1FF0BC
:1013B0001EC0DEFF1FC0DDFF080EE66E41C322F037
:1013C00042C323F0030E2302F3CF23F02202F3CF14
:1013D00022F0F4502326DE502224206EDD502320FC
:1013E000216ED89020362136D89020362136D4C1AF
:1013F00024F0256A24BE2568000124502002F3CF82
:101400001EF0F4CF1FF02102F3501F2625502002BA
:10141000F3501F261EC0E6FF1FC0E6FFD8EC10F0F9
:10142000E552E552E552F3CF41F3F4CF42F3060E15
:10143000E15C02E2E16AE552E16EE552E7CFD9FFF5
:10144000120003DEEE0EE66E22DEE552000901E038
:101450003FD0F60EE66E1BDEE552000901E038D003
:10146000F4DDEF0EE66E13DEE552000901E030D048
:10147000010EE66E40DEE5520301396F3A6B39C367
:101480003AF3396BF4DDE1DDEE0EE66E00DEE55297
:10149000000901E01DD0F70EE66EF9DDE552000906
:1014A00001E016D0D2DDEF0EE66EF1DDE552000967
:1014B00001E00ED0010EE66E1EDEE5521E6E1F6AC2
:1014C0001E50030139131F503A13D1DD010E05D010
:1014D000CEDD0301676B000E00D01200D9CFE6FF0E
:1014E000E1CFD9FFB2DDEE0EE66ED1DDE5520009A7
:1014F00001E01CD0F40EE66ECADDE552000901E001
:1015000015D0FE0EDBCFE6FFC2DDE552000901E09B
:101510000DD0ADDDFE0EDB5003013C5D02E0000EA0
:1015200001D0010E0301686F010E03D0A0DD000E93
:1015300000D0E552E7CFD9FF1200D9CFE6FFE1CFC7
:10154000D9FFE652000E03017E6F7F6B0301376FF8
:10155000386B7BDDEE0EE66E9ADDE552000901E0A8
:1015600058D0D00EE66E93DDE552000901E051D06F
:101570006CDDEF0EE66E8BDDE552000901E049D02F
:10158000010EE66EB8DDE55203013B6F70DD550ECE
:1015900003013B5D04E103012E0E3C6F03D0030108
:1015A0006E0E3C6F3CC3E6FF99DFE552000901E196
:1015B00030D00A0EE66EE66A2DEC10F0E552E552E8
:1015C00040DFDF6E39C330F33AC331F30301326BCE
:1015D000F40EE66E83DFE552000901E11AD01E0E1B
:1015E000E66EE66A2DEC10F0E552E5522ADFDF6E7A
:1015F00039C32DF33AC32EF303012F6B3CC3E6FF2F
:101600006DDFE552000901E104D00301010E676FAF
:1016100005D003016D6B6DC367F329DDE552E5521B
:10162000E7CFD9FF1200D9CFE6FFE1CFD9FF060EF1
:10163000E12603017E2B000E7F230301675101E1A8
:10164000AAD1080E03017FAF02D0D89003D07E5DEF
:10165000000E7F5903E3030168510FE1200E0301DF
:101660007FAF02D0D89003D07E5D000E7F5901E29B
:1016700092D10301685101E08ED103017E6B7F6B33
:10168000E0DE010801E087D10301685123E0F40E98
:10169000E66E24DFE55203017451751107E039C38A
:1016A00030F33AC331F30301326B13D039C321F065
:1016B0003AC322F0236A03013051215C1E6E31517E
:1016C00022581F6E32512358206E1EC035F31FC0A2
:1016D00036F361D13CC3E6FF01DFE55203017451EB
:1016E00075110CE039C32DF33AC32EF303012F6BB0
:1016F00003016D6B0301376B386B4DD103013EBFA6
:1017000006D0800EE66E37EC13F0E55205D0800E61
:10171000E66E44EC13F0E55203016D5106E103015E
:10172000336B346B0301010E6D6F03012D51030107
:10173000395F03012E5103013A5B050EE66EBDC110
:1017400020F0216A20BE2168030120503503F3CF29
:101750001EF0F4CF1FF03603F35000011F26215076
:1017600003013503F35000011F26100E1E26000E44
:101770001F221EC0E6FF1FC0E6FFD8EC10F0E552A6
:10178000E552E552F35003013927F4503A2333C3AD
:10179000DEFF34C3DDFF030EE66E070E086E096A36
:1017A00033C30DF034C30EF0DBEC19F00650030127
:1017B00039251E6E07503A211F6E040E1E26000E9C
:1017C0001F221EC0E6FF1FC0E6FFD8EC10F0E55256
:1017D000E552E552F3CF33F3F4CF34F30301DE5097
:1017E000335D1E6EDD5034591F6E040E1EC0DBFFCC
:1017F000050E1FC0DBFFD880345104E7FE0E335DB9
:10180000FF0E345904E2FE0E336F34690DD03435C7
:1018100004E233510808000E345504E2080E336F19
:10182000346B02D034C334F3C2C11EF01F6A1EBE33
:101830001F6833C308F034C309F01EC00DF01FC089
:101840000EF0DBEC19F0020E06C0DBFF030E07C042
:10185000DBFF020EDBCF1EF0030EDBCF1FF0030118
:101860001F503819E8AE02D0383504D037511E5C0D
:1018700038511F5804E23707000E385B14D0020EAF
:10188000DBCF1EF0030EDBCF1FF038511F18E8AE80
:1018900002D01F3404D01E50375D1F50385903E268
:1018A000372B000E3823020EDBCF1EF0030EDBCFEA
:1018B0001FF01F503819E8AE02D0383504D0375128
:1018C0001E5C38511F5803E23707000E385BD5C144
:1018D00024F0256A24BE2568040EDBCF20F0050E17
:1018E000DBCF21F0D880215004E7FB0E205CFF0EF7
:1018F000215804E2FB0E1E6E1F6817D0040EDBCFCA
:1019000022F0050EDBCF23F0233404E22250080836
:10191000000E235404E2080E1E6E1F6A06D0040E49
:10192000DBCF1EF0050EDBCF1FF01EC008F01FC07E
:1019300009F024C00DF025C00EF0DBEC19F00650C4
:101940000301372707503823D880385104E7FB0EAE
:10195000375DFF0E385904E2FB0E376F38690DD042
:10196000383504E237510F08000E385504E20F0EE7
:10197000376F386B02D038C338F303013EBF06D04F
:10198000800EE66E37EC13F0E55205D0800EE66E61
:1019900044EC13F0E552060EE15C02E2E16AE55226
:0A19A000E16EE552E7CFD9FF120017
:0619AA00D9CFE6FFE1CFFA
:1019B000D9FFFD0EDBCFE9FFFE0EDBCFEAFFEF50D4
:1019C0000EE0FD0EDBCFE9FFDB2AFE0EDBCFEAFFE8
:1019D00001E3DB2AEF50E66E26D8E552EAD7E5525E
:1019E000E7CFD9FF1200D9CFE6FFE1CFD9FFFD0E37
:1019F000DBCFF6FFFE0EDBCFF7FF0800F5500FE060
:101A0000FD0EDBCFF6FFDB2AFE0EDBCFF7FF01E397
:101A1000DB2A0800F550E66E06D8E552E8D7E55215
:101A2000E7CFD9FF1200D9CFE6FFE1CFD9FF9EA8BB
:101A3000FED7FE0EDB50AD6EE552E7CFD9FF1200A8
:101A4000D9CFE6FFE1CFD9FF640E1E6E1EC00EF0A7
:101A5000FE0EDBCF09F0C4EC1CF00950300FE66E2F
:101A6000E2DFE552640E1E6E1EC00EF0FE0EDBCFEE
:101A700009F0C4EC1CF0FE0E05C0DBFF0A0E1E6E62
:101A80001EC00EF0FE0EDBCF09F0C4EC1CF00950B6
:101A9000300FE66EC8DFE5520A0E1E6E1EC00EF055
:101AA000FE0EDBCF09F0C4EC1CF0FE0E05C0DBFF20
:101AB000DB50300FE66EB7DFE552E552E7CFD9FFD6
:101AC0001200D9CFE6FFE1CFD9FFFE0EDBCF1EF02B
:101AD0001E340BE32D0EE66EA6DFE552FE0EDB5044
:101AE000FF0DFE0EF3CFDBFF04D02B0EE66E9BDF67
:101AF000E552FE0EDBCFE6FFA3DFE552E552E7CF6E
:101B0000D9FF12000D0EE66E8EDFE5520A0EE66E6C
:101B10008ADFE5521200D9CFE6FFE1CFD9FFFE0EF2
:101B2000DB50090808E2FE0EDB50410FF60FE66EAF
:101B30007ADFE55206D0FE0EDB50300FE66E73DF23
:101B4000E552E552E7CFD9FF1200D9CFE6FFE1CF4A
:101B5000D9FFFE0EDB380F0BE66EDDDFE552FE0E21
:101B6000DB500F0BE66ED7DFE552E552E7CFD9FF2A
:101B70001200D9CFE6FFE1CFD9FFFD0EDBCF1EF07B
:101B8000FE0EDBCF1FF01FC01EF01F6A1E50E66E58
:101B9000DCDFE552FD0EDBCFE6FFD7DFE552E55295
:101BA000E7CFD9FF1200D9CFE6FFE1CFD9FFE65248
:101BB0009EAA13D0AB50020B03E1AB50040B05E01F
:101BC000AB98AB88AE50DF6E08D0AE50DF6EDFCF83
:101BD000E6FF29DFE552DF5002D0000E00D0E552CB
:101BE000E552E7CFD9FF1200D9CFE6FFE1CFD9FF09
:101BF000020EE126010EDB6AD6DFDF6E300EDF5CFF
:101C0000FBE3DF503908F8E3300EDF5CE76E010ECE
:101C1000E7CFDBFF0A0E1E6E010EDBCFE7FF1E5083
:101C2000E702010EF3CFDBFFBEDFDF6E300EDF5CBD
:101C3000FBE3DF503908F8E3300EDF5C1E6E010E67
:101C4000DBCFE7FF1E50E726010EE7CFDBFFDB50BF
:101C50001E6E020EE15C03E200D0E16AE552E16E25
:101C60001E50E552E7CFD9FF1200D9CFE6FFE1CFF2
:101C7000D9FF020EE126010EDB6A0301636B93DFDD
:101C8000DF6E300EDF5C03E3DF50390803E22D0E18
:101C9000DF5CF5E12D0EDF5C0BE10301010E636FEC
:101CA00082DFDF6E300EDF5CFBE3DF503908F8E3E4
:101CB000300EDF5CE76E010EE7CFDBFF0A0E1E6E13
:101CC000010EDBCFE7FF1E50E702010EF3CFDBFF73
:101CD0006ADFDF6E300EDF5CFBE3DF503908F8E3CC
:101CE000300EDF5C1E6E010EDBCFE7FF1E50E726D5
:101CF000010EE7CFDBFF0301635106E0010EDB506D
:101D0000FF0D010EF3CFDBFF010EDB501E6E020E46
:101D1000E15C03E200D0E16AE552E16E1E50E5525B
:101D2000E7CFD9FF1200D9CFE6FFE1CFD9FF170ED9
:101D3000E126D950FB0FE96EFF0EDA20EA6ED8904B
:101D4000030EEB50000A08E6000EEE5C000EEE58A3
:101D5000000EEE58000EEE5823E22D0EE66E63DE06
:101D6000E552FB0EDBCF06F0FC0EDBCF07F0FD0EDD
:101D7000DBCF08F0FE0EDBCF09F00B680C680D68B6
:101D80000E6843EC1BF0FB0E02C0DBFFFC0E03C031
:101D9000DBFFFD0E04C0DBFFFE0E05C0DBFF04D041
:101DA000200EE66E40DEE5520C0EDB6AFB0EDBCF4A
:101DB00006F0FC0EDBCF07F0FD0EDBCF08F0FE0EC9
:101DC000DBCF09F00A0E0B6E0C6A0D6A0E6AA7ECE7
:101DD00019F00F0E06C0DBFF100E07C0DBFF110E5F
:101DE00008C0DBFF120E09C0DBFF0F0EDBCF22F0B5
:101DF000100EDBCF23F0110EDBCF24F0120EDBCF61
:101E000025F00A0E0B6E0C6A0D6A0E6A22C006F0EF
:101E100023C007F024C008F025C009F043EC1BF0F4
:101E200002C022F003C023F004C024F005C025F056
:101E3000D950FB0FE96EFF0EDA20EA6E2250EE5CFD
:101E40001E6E2350EE581F6E2450EE58206E255003
:101E5000EE58216E0D0E1EC0DBFFDB50300FE66E1C
:101E6000D9CF1EF0DACF1FF00C0EDBCFF3FFDB2A49
:101E7000F350206E216A20BE21681E502024E96E96
:101E80001F502120EA6EE552E750EF6ED9500F0F38
:101E9000E96EDACFEAFFFB0EEECFDBFFFC0EEECFF2
:101EA000DBFFFD0EEECFDBFFFE0EEECFDBFFFB0E0A
:101EB000DBCF07F0FC0EDBCF08F0FD0EDBCF09F027
:101EC000FE0EDBCF0AF00A34000E0A1809E6D880AD
:101ED000000E0754000E0854000E0954000E0A5458
:101EE00001E264D70C0EDBCF1EF0FA0EDB28E76EA2
:101EF0001E18E8AE02D0E73402D0E7501E5C16E2AE
:101F0000FA0EDBCF1FF0000EE76E1F18E8AE02D00E
:101F10001F3403D0E750D8801F5408E2300EE66E1D
:101F200082DDE5522E0EE66E7EDDE552FA0EDBCF47
:101F3000E6FF0C0EDB50E552E75CFF0FE76E0E0E7E
:101F4000E7CFDBFFDBCF1EF01E3439E20E0EDBCF16
:101F50001EF01F6A206A216A1EAE03D01F68206827
:101F60002168130E1EC0DBFF140E1FC0DBFF150E11
:101F700020C0DBFF160E21C0DBFFD950130FE96E26
:101F8000DACFEAFFD890030EEB50000A08E6000E05
:101F9000EE5C000EEE58000EEE58000EEE580FE309
:101FA000300EE66E40DDE552D950130FE96EDACF00
:101FB000EAFFEE06000EEE5AEE5AEE5ADED70C0E8F
:101FC000DB06D9CF1EF0DACF1FF0DBCF20F0216A7D
:101FD00020BE21681E502024E96E1F502120EA6E89
:101FE000EF50E66E20DDE552FA0EDB50F36E0C0E7C
:101FF000DB50F35C12E10C0EDBCF1EF0000EE76E3F
:102000001E18E8AE02D01E3403D0E750D8801E540C
:1020100004E22E0EE66E07DDE5520C0EDBCF1EF05D
:10202000000EE76E1E18E8AE02D01E3403D0E75053
:10203000D8801E54C4E3F90EDB5005E0F90EDBCF67
:10204000E6FFF1DCE552170EE15C02E2E16AE552DF
:0A205000E16EE552E7CFD9FF120060
:06205A00D9CFE6FFE1CF43
:10206000D9FF030EE126F250200B01E0010EE76ECE
:10207000020EE7CFDBFFF29ADE6ADD6ADECF1EF0EA
:10208000DDCF1FF0FD0EDBCF20F0FE0EDBCF21F009
:102090001F502118E8AE02D0213404D020501E5C1D
:1020A00021501F5808E2F2A4FED7F294DF2A010E55
:1020B00001E3DB2AE3D7020EDB50E8B0F28AE8A0A6
:1020C000F29A030EE15C02E2E16AE552E16EE5524A
:1020D000E7CFD9FF1200D9CFE6FFE1CFD9FF050E38
:1020E000E126F250200B01E0010EE76E040EE7CF6F
:1020F000DBFFF29ADE6ADD6ADECF1EF0DDCF1FF075
:10210000FD0EDBCF20F0FE0EDBCF21F00A0E210208
:10211000F3CF21F02002F3CF20F0F45021261F50FE
:102120002118E8AE02D0213404D020501E5C21508A
:102130001F582BE2020EDB6A030EDB6A020EDBCFB6
:102140001EF0030EDBCF1FF0D8901F5004E6080EE0
:102150001E5C000E1F5809E2F2A4FED7F294020E94
:10216000DB2A030E01E3DB2AE9D71DEC07F09EAA68
:1021700007D0040EDB50E8B0F28AE8A0F29A0BD048
:10218000DF2A010E01E3DB2AB7D7040EDB50E8B0EB
:10219000F28AE8A0F29A050EE15C02E2E16AE552F9
:1021A000E16EE552E7CFD9FF1200000000001200F7
:1021B000D9CFE6FFE1CFD9FFFD0EDBCF20F0FE0E39
:1021C000DBCF21F00001800E21141BE0FD0EDBCFE0
:1021D00022F0FE0EDBCF23F0226C231E000E232202
:1021E000FC0EDB5022C01EF023C01FF005E0D8908B
:1021F0001F321E32E804FBE11E6C1F1E000E1F2260
:1022000012D0FD0EDBCF24F0FE0EDBCF25F0FC0E4E
:10221000DB5024C01EF025C01FF005E0D8901F320F
:102220001E32E804FBE11EC0F3FF1FC0F4FF00D024
:10223000E552E7CFD9FF12003F0E926E020EC16E3B
:10224000C00E816E400E936E600E826E840E946E90
:10225000C78CF18E12000301010E466F46C345F391
:1022600046C344F346C343F30301770E476F47C3A6
:1022700048F30301606B000E0301116F126B030141
:102280000F6F106B03010D6F0E6B0301376F386B0F
:1022900003015D6F5E6B0301596F5A6B0301576F4A
:1022A000586B03012B6B2C6B03012A6B2AC329F398
:1022B0000301156F166B0301136F146B0301176F86
:1022C000186B03013D6B0301806B816B826B120005
:1022D000D9CFE6FFE1CFD9FF020EE126E66AE66A32
:1022E00003EC1BF0E552E552F3CF1EF0F4CF1FF0E4
:1022F000030ED8901F321E32E804FBE11EC0DEFF41
:102300001FC0DDFF010EE66E83C320F0216A20BEF0
:102310002168DE5020241E6EDD5021201F6E010E2C
:102320001E26000E1F221EC0E6FF1FC0E6FF40DF74
:10233000E552E552E552F3CF83F383C31EF01F6AE3
:102340001EBE1F68CBC120F0216A20BE21681F502D
:102350002118E8AE02D0213404D020501E5C215058
:102360001F5802E3000E01D0010E010B0301646F40
:1023700064511CE0320E03017BAF02D0D89003D031
:102380007A5D000E7B5909E2800EE66E70D9E55247
:10239000040EE66E6CD9E55208D0800EE66E74D954
:1023A000E552040EE66E70D9E55253D003016E512A
:1023B00026E0320E03017BAF02D0D89003D07A5DC5
:1023C000000E7B5913E2020E03017DAF02D0D890BC
:1023D00003D07C5D000E7D5909E2800EE66E47D980
:1023E000E552040EE66E43D9E55208D0800EE66E43
:1023F0004BD9E552040EE66E47D9E5522AD06C510E
:1024000020E0320E03017BAF02D0D89003D07A5D7A
:10241000000E7B590DE203017C517D1109E1800E14
:10242000E66E25D9E552040EE66E21D9E55208D0B4
:10243000800EE66E29D9E552040EE66E25D9E552E6
:1024400008D0800EE66E20D9E552040EE66E1CD947
:10245000E552020EE15C02E2E16AE552E16EE5520C
:10246000E7CFD9FF120003017807000E795B78519E
:1024700079113DE1030100511E6E1F6AFF0ED880E5
:102480001E56000E1F56030ED8901F321E32E8044F
:10249000FBE1050E03011E24786F000E1F20796FEB
:1024A00003016D5105E0510EE66EE1D8E5521FD0F3
:1024B00003013EA909D0510EE66EE6D8E552010EA1
:1024C000E66ED5D8E55213D03EA109D0510EE66E86
:1024D000DBD8E552400EE66ECAD8E55208D0510E60
:1024E000E66ED2D8E552100EE66EC1D8E552120063
:1024F0000101C951E840E8403F0B010B4DE02E0EB1
:10250000E66EC2D8E55214C31EF01F6A000EE76ED5
:102510001E18E8AE02D01E3403D0E750D8801E54F7
:1025200005E2040EE66EA3D8E55211D014C31EF0E6
:102530001F6AFF0EE76E1E18E8AE02D0E73402D025
:10254000E7501E5C04E2080EE66E91D8E55216C311
:102550001EF01F6A000EE76E1E18E8AE02D01E3491
:1025600003D0E750D8801E5405E2200EE66E7FD8D7
:10257000E55211D016C31EF01F6AFF0EE76E1E183B
:10258000E8AE02D0E73402D0E7501E5C04E2020E4F
:10259000E66E6DD8E5522AD0C951E00BE838E84024
:1025A000010B24E02E0EE66E6FD8E5520301423592
:1025B00004E241510008000E425505E2080EE66EA5
:1025C00056D8E55207D0800E421504E0040EE66EA0
:1025D0004ED8E5520301403504E23F51F008000EA9
:1025E000405504E2200EE66E42D8E5521200030187
:1025F0007A517B110DE1640E7A6F7B6B03017C5184
:102600007D1103E1080E7C6F7D6B7C07000E7D5B06
:1026100003017A07000E7B5B1200D9CFE6FFE1CF02
:10262000D9FF020EE1263EC3DFFF828A949882968C
:10263000DE52080EDD6E010EDB500CE0DFAE02D084
:10264000828801D08298DF9EDF4682868296010EC4
:10265000DB06F1D7828282929488020EE15C02E26C
:10266000E16AE552E16EE552E7CFD9FF1200D9CF1A
:10267000E6FFE1CFD9FFFE0EDB5003013E13CDDFB5
:10268000E552E7CFD9FF1200D9CFE6FFE1CFD9FF5E
:10269000FE0EDB1C03013E17C0DFE552E7CFD9FF7A
:0226A000120026
:0E26A200F50EE66E300EE66EF3EC0CF0E5522F
:1026B000E5521200D9CFE6FFE1CFD9FFFE0EDB5085
:1026C00008E0000EE66E020EE66ED5EC0CF0E55268
:1026D000E552840EE66E030EE66ED5EC0CF0E55284
:1026E000E5520301655109E0EB0EE66E300EE66E31
:1026F000F3EC0CF0E552E55208D0DB0EE66E300E3E
:10270000E66EF3EC0CF0E552E552D20EE66E300EBA
:10271000E66EF3EC0CF0E552E55225EC08F0420EC3
:10272000E66E47EC08F0E552000909E1C90EE66ED5
:10273000300EE66EF3EC0CF0E552E55208D0DB0EFD
:10274000E66E300EE66EF3EC0CF0E552E55237EC37
:1027500008F0BE0EE66E300EE66EF3EC0CF0E552BD
:10276000E55225EC08F0EE0EE66E47EC08F0E55277
:10277000000909E1C90EE66E300EE66EF3EC0CF0CE
:10278000E552E55208D0DB0EE66E300EE66EF3EC55
:102790000CF0E552E55237EC08F083DFE552E7CF65
:1027A000D9FF1200D9CFE6FFE1CFD9FF040EE12611
:1027B000D3EC0DF0E76E030EE7CFDBFFDB5001E15A
:1027C00013D1030EDBCFE6FFB2EC1BF0E552F3CFE3
:1027D0001EF0F4CF1FF01E501F1009E0030EDBCFD8
:1027E000E6FFC4EC1BF0E552030EF3CFDBFF030E54
:1027F000DB503F0A01E1EFD07D0A01E1E8D00C0A8D
:1028000001E1E1D07F0A66E0030A64E0010A62E0C8
:10281000070A60E0010A5EE0030A5CE0010A5AE090
:102820000F0A58E06B0A52E01B0A4CE0030A46E02C
:10283000080A40E00A0A16E0050A10E00D0A0AE05C
:10284000130A04E0520A01E0CFD0CED09BEC01F095
:1028500028DFCAD0C8EC04F024DFC6D028EC00F092
:1028600020DFC2D0AA0EE66E300EE66EF3EC0CF05E
:10287000E552E552E66AE66A4EEC01F01E6E1F6A0A
:10288000206A216A1EC0E6FF1FC0E6FF20C0E6FFE7
:1028900021C0E6FF93EC0EF0226E060EE15E2250A0
:1028A000970EE66E300EE66EF3EC0CF0E552E55254
:1028B000F8DE9AD01FEC03F0F4DE96D08EEC03F035
:1028C000F0DE92D0F5EC03F0ECDE8ED0E66AF2DEBC
:1028D000E5528AD0870EE66E300EE66EF3EC0CF011
:1028E000E552E552030EDBCFE6FF13EC0DF0E552A7
:1028F0003A0EE66E13EC0DF0E552030EDB50380A8B
:102900004EE00F0A43E0010A38E0030A2DE0010A15
:1029100022E0070A17E0010A0CE0030A01E048D0B0
:10292000820EE66E300EE66EF3EC0CF0E552E552E8
:102930003FD07D0EE66E300EE66EF3EC0CF0E55205
:10294000E55236D0790EE66E300EE66EF3EC0CF002
:10295000E552E5522DD0730EE66E300EE66EF3ECC6
:102960000CF0E552E55224D06E0EE66E300EE66EA7
:10297000F3EC0CF0E552E5521BD0670EE66E300E1C
:10298000E66EF3EC0CF0E552E55212D0620EE66E04
:10299000300EE66EF3EC0CF0E552E55209D05B0E1A
:1029A000E66E300EE66EF3EC0CF0E552E55200D028
:1029B00082EC0DF0030EDB50CF0FE66E8EEC04F0D0
:1029C000E5526FDE11D0E4EC02F06BDE0DD082EC4C
:1029D0000DF080EC3EF0000EE66E010EE66ED5ECDA
:1029E0000CF0E552E5525DDE040EE15C02E2E16AC4
:0C29F000E552E16EE552E7CFD9FF12007E
:0429FC00DACFE4FF4B
:102A0000E2CFDAFFE65200D0E552E5CFDAFF11005F
:102A1000DACFE4FFE2CFDAFFE9CFE4FFEACFE4FF69
:102A2000E6529EA203D09E9200019E6B9EA40BD103
:102A3000CC6A9E920301626BBECFA2F0BFCFA3F01F
:102A40000001A46BA20EE96E000EEA6E020EEB50BE
:102A5000A119E8AE02D0A13506D09F51EE5CA0517D
:102A6000EE58A151EE5805E2FF0E9F5FA05B000EED
:102A7000A15B9F0EE96E000EEA6EEE50A25D176E2E
:102A8000EE50A359186EEE50A459196E010E1F0B8B
:102A900017C014F018C015F019C016F006E0D89051
:102AA000163215321432E806FAE114C0A5F015C04A
:102AB000A6F0A2C09FF0A3C0A0F0A4C0A1F00001A6
:102AC0009E5101E1BDD0020E9E5D05E1A5C092F0D0
:102AD000A6C093F0B5D0040E9E5D05E1A5C096F0AA
:102AE000A6C097F0ADD0060E9E5D08E1A5C09AF095
:102AF000A6C09BF09A510301026FA2D09E0505E18A
:102B0000A5C090F0A6C091F09BD0030E9E5D05E19C
:102B1000A5C094F0A6C095F093D0050E9E5D01E08F
:102B200077D0A5C098F0A6C099F091C014F0156AAE
:102B3000010E141801E115506AE193C016F0176AEE
:102B4000010E161801E1175062E195C018F0196ADC
:102B5000010E181801E119505AE197C01AF01B6ACA
:102B6000010E1A1801E11B5052E199C01CF01D6AB8
:102B7000010E1C1801E11D504AE10101C9417F0B02
:102B8000010B1AE0000194510301006FFF0E0001D8
:102B90009015146E156A770E145E000E155A14C047
:102BA00004F3FF0E9215146E156A770E145E000E74
:102BB000155A14C005F319D0000190510301006F9C
:102BC000FF0E00019215146E156A770E145E000E4A
:102BD000155A14C004F3FF0E9415146E156A770E7F
:102BE000145E000E155A14C005F3FF0E9615146EF0
:102BF000156A770E145E000E155A14C006F398512C
:102C00000301016F03015F6B010E616F19D00DD0DD
:102C1000070E9E5D0AE1A5C09CF0A6C09DF09C51E8
:102C20000301036F00019E690BD00301616B010E6C
:102C30005F6F0301802B000E8123822300019E69B8
:102C40009E9400019E2BF250040B06E0F250200BE4
:102C500003E0F2940101CA07E552E5CFEAFFE5CFB0
:082C6000E9FFE5CFDAFF1100E6
:082C6800D9CFE6FFE1CFD9FF4F
:102C7000E65294988296829A080EDF6EDF5015E035
:102C8000010EE66ED2EC1CF0E5528296FE0EDBAE33
:102C900002D0828801D08298DBCFF3FFF39EF34607
:102CA000F3CFDBFF8286DF06E9D7E552E552E7CFB7
:102CB000D9FF1200D9CFE6FFE1CFD9FF020EE126FE
:102CC00094888296829A010EDB6A080EDF6EDF50CE
:102CD00013E0010EE66ED2EC1CF0E5528296010E76
:102CE000DB50E824FE0BE76E010EE7CFDBFF82B876
:102CF000DB808286DF06EBD7010EDB501E6E020EF4
:102D0000E15C03E200D0E16AE552E16E1E50E5525B
:102D1000E7CFD9FF1200D9CFE6FFE1CFD9FFE652C6
:102D20008288FE0EDBCFE6FF9FDFE552C3DFDF6E5A
:102D3000FE0EDBAC828ADF5000D0E552E552E7CFD1
:102D4000D9FF1200D9CFE6FFE1CFD9FFFE0EDBCFCE
:102D5000E6FF8ADFE552FD0EDBCFE6FF85DFE552B9
:102D6000828A9488E552E7CFD9FF1200828A4A0E00
:102D7000E66E210EE66EE6DFE552E5528F0EE66E58
:102D8000CADFE5523A0831E1D70EE66E200EE66E54
:102D9000D9DFE552E552E66A220EE66ED3DFE55250
:102DA000E552480EE66E300EE66ECCDFE552E55297
:102DB000E66A340EE66EC6DFE552E552FC0EE66EBC
:102DC000350EE66EBFDFE552E552E668360EE66E7A
:102DD000B9DFE552E552E66A380EE66EB3DFE5523A
:102DE000E5520301010E656F02D00301656B12000D
:102DF000D9CFE6FFE1CFD9FFE652828A9488A70EA9
:102E0000E66E89DFE552DF6EA90EE66E84DFE552DD
:102E10001E6E1F6A1EC01FF01E6A1EC0E6FF1FC086
:102E2000E6FFA80EE66E77DFE552E552E7CF1FF02A
:102E3000E552E7CF1EF003011E10236F1FC024F3DD
:102E4000AB0EE66E68DFE5521E6E1F6A1EC01FF0F5
:102E50001E6A1EC0E6FF1FC0E6FFAA0EE66E5BDF1D
:102E6000E552E552E7CF1FF0E552E7CF1EF0030130
:102E70001E10256F1FC026F3AD0EE66E4CDFE55227
:102E80001E6E1F6A1EC01FF01E6A1EC0E6FF1FC016
:102E9000E6FFAC0EE66E3FDFE552E552E7CF1FF0EE
:102EA000E552E7CF1EF003011E10276F1FC028F365
:0C2EB0009488E552E552E7CFD9FF1200EC
:042EBC005265663ABB
:102EC000202009005961773A202009005069746375
:102ED000683A0900526F6C6C3A20090042617474C0
:102EE0003A09000D0A416E616C6F672063682E20FD
:102EF000746573740D0A000954656D703A200050B2
:102F0000726573733A200900547970653A09534D1C
:102F1000443530300D0A00547970653A09424D50FD
:102F20003038350D0A000D0A4261726F6D657465A7
:102F30007220746573740D0A004F4B0D0A000D0A60
:102F40003732302064656720696E207E333020730D
:102F500065632E210D0A507265737320616E7920AE
:102F60006B657920746F20636F6E742E0D0A000DEF
:102F70000A43616C69622E20636F6D706173732EFA
:102F800020507265737320616E79206B65792074AF
:102F90006F20636F6E742E0D0A004641494C0D0A76
:102FA000006465670D0A000D0A436F6D70617373ED
:102FB00020746573740D0A00286E6F206E6577208B
:102FC00076616C73290D0A006D530D0A476C6974A4
:102FD000636865733A09004761703A090020464109
:102FE000494C003A092030780052782076616C73A1
:102FF0003A0D0A000D0A506F732E2052782050505F
:103000004D0D0A000D0A4E65672E20527820505053
:103010004D0D0A00093078000D0A284163632E2007
:103020006E6F742070726573656E74290D0A0044AA
:10303000553A202020090046423A2009004C523AD5
:103040002009000D0A416363656C65726F6D6574DC
:10305000657220746573743A0D0A00426565706587
:103060007200417578330059656C6C6F770041755B
:10307000783100477265656E0052656400426C7578
:10308000650041757832000D0A4F757470757420B3
:10309000746573740D0A002064657669636528732E
:1030A0002920666F756E640D0A000D0A49324320AF
:1030B00064657669636573202E2E2E0D0A004261C9
:1030C000726F6D6574657220004F4E4C494E450D10
:1030D0000A00436F6D7061737320006E6F7420611E
:1030E0007661696C61626C650D0A004F4E4C494E09
:0A30F000450D0A00000D0A23200020
:0630FA00D9CFE6FFE1CF93
:10310000D9FFE652FE0EDB50A96EA69EA680A850FF
:10311000DF6EA66ADF5000D0E552E552E7CFD9FF57
:103120001200D9CFE6FFE1CFD9FF050EE12603015A
:1031300001511E6E1F6A1F3404E21E507708000EF4
:103140001F5408E2200EF36E030EF3CFDBFF040ED4
:10315000DB6A04D0030EDB6A040EDB6ABA0EDE6E95
:10316000010EDD6EDECF1EF0DDCF1FF0D50ED88054
:103170001E54010E1F541AE3030EDBCF1EF0DB2A90
:10318000040EDBCF1FF001E3DB2A1E50E66EB5DF35
:10319000E552E66EDECFE9FFDDCFEAFFE552E7500C
:1031A000EF6EDF2A010E01E3DB2ADCD7CBC183F30C
:1031B000020E0101E76ECA19E8AE02D0E73402D070
:1031C000E750CA5D03E2020ECA6F0DD0140EE76E1F
:1031D000CA19E8AE02D0CA3503D0E750D880CA5524
:1031E00002E2140ECA6F050EE15C02E2E16AE552EA
:1031F000E16EE552E7CFD9FF1200D9CFE6FFE1CF6C
:10320000D9FF020EE126FE0EDBCFE6FF76DFE552A8
:10321000DF6EFD0EDB50DF5C1DE0FD0EDB50A86EA7
:10322000FE0EDB50A96EA69EA684F250800B01E034
:10323000010EE76E010EE7CFDBFFF29E550EA76E83
:10324000AA0EA76EA682A6B2FED7010EDB5001E041
:10325000F28EA694020EE15C02E2E16AE552E16EB2
:10326000E552E7CFD9FF1200D9CFE6FFE1CFD9FF72
:10327000050EE126FE0EDB0405E1030EDB6A040EFB
:10328000DB6A07D0200EF36E030EF3CFDBFF040ED4
:10329000DB6ABA0EDE6E010EDD6EDECF1EF0DDCF14
:1032A0001FF0D50ED8801E54010E1F5419E3DFCF36
:1032B000E9FFDF2A010EDBCFEAFF01E3DB2AEF5053
:1032C000E66E030EDBCF1EF0DB2A040EDBCF1FF011
:1032D00001E3DB2A1E50E66E90DFE552E552DDD7B2
:1032E000050EE15C02E2E16AE552E16EE552E7CFEC
:0432F000D9FF1200F0
:0C32F400006A0EAE85EF19F00C6C0D1E88
:103300000E1EE86A0D220E22001E09AE8FEF19F084
:10331000076C081E091EE86A08220922001E1DEC1F
:103320001CF009BEA2EF19F000AE000C076C081EDD
:10333000091EE86A08220922036C041E051E0422E5
:103340000522000C00BE96EF19F00188FF0C006A00
:10335000E86A0EAEB4EF19F00B6C0C1E0D1E0E1EBB
:103360000C220D220E22001E09AEBFEF19F0066CD2
:10337000071E081E091E072208220922001ED8EC7B
:103380001BF009BED6EF19F000AE000C066C071E4C
:10339000081E091EE86A072208220922026C031E81
:1033A000041E051E032204220522000C00BEC6EFE7
:1033B00019F00188FF0C09C013F008C012F0085082
:1033C0000D02F4CF07F0F3CF06F009500E02F4CF50
:1033D00009F0F3CF08F00D02F3500726F45008224D
:1033E000E86A092212500E02F3500726F450082210
:1033F000E86A09220EAE01EF1AF01250085E13506F
:10340000095A13AE000C0D50085E0E50095A000CFC
:1034100008C012F008500D02F4CF07F0F3CF06F009
:1034200009500E02F4CF09F0F3CF08F00D02F3506B
:103430000726F4500822E86A092212500E02F350BF
:103440000726F4500822E86A0922000C09C013F08C
:1034500008C012F007C011F007500C02F4CF05F0BD
:10346000F3CF04F008500D02F4CF07F0F3CF06F0CD
:103470000C02F3500526F4500622E86A0722115088
:103480000D02F3500526F4500622E86A072209507F
:103490000C02F3500626F450072209500D02086A68
:1034A000E86A0822F3500726F450082211500E0251
:1034B000F3500626F4500722096AE86A0822092216
:1034C00012500E02F3500726F4500822E86A09222F
:0E34D00013500E02F3500826F4500922000C8F
:0234DE001E0EC0
:1034E000F66E000EF76E000EF86E01010900F55041
:1034F000DB6F0900F550DC6F03E1DB6701D03DD0E5
:103500000900F550D66F0900F550D76F0900F55046
:10351000D86F09000900F550E96E0900F550EA6E10
:10352000090009000900F550D96F0900F550DA6F5C
:1035300009000900F6CFDDF1F7CFDEF1F8CFDFF1BA
:10354000D6C1F6FFD7C1F7FFD8C1F8FF0101D953A3
:1035500002E1DA5307E00900F550EE6ED907F8E210
:10356000DA07F9D7DDC1F6FFDEC1F7FFDFC1F8FFEB
:0C3570000101DB07000EDC5BBFD712007E
:04357C00D9CFE6FFBE
:10358000DACFE6FFE1CFD9FFE2CFDAFFAC6AAB6A70
:10359000FD0EDBB0AC88DBA202D0AC8CAB8CDBB414
:1035A000AC8EDBA602D0AB8801D0AB8ADBB8AC8492
:1035B0009E98DBBAAC86DBAC02D09D8A01D09D9A86
:1035C0009E9ADBAE02D09D8801D09D98FB0EDB5009
:1035D000AF6EFB0EFC0EDBCF1FF01FC01EF01F6A8C
:1035E0001E50B06EAC8AAB8E949C948EAC50100B77
:1035F00004E0AC50800B01E1948CE552E5CFDAFF9A
:06360000E7CFD9FF120024
:0A360600D9CFE6FFE1CFD9FF030E94
:10361000E126FD0EDB50E8B0C188E8A0C198FE0E9F
:10362000DB50080DF350E66E89EC1CF0E552EDEC32
:103630001CF007EC00F0000901E0FBD7DDEC1CF00A
:10364000F3CFDEFFF4CFDDFFDECF1EF0DDCF1FF0C6
:103650001EC0F3FF1FC0F4FF030EE15C03E200D0C5
:10366000E16AE552E16EE552E7CFD9FF12000A0E9A
:10367000E66E040EE66EAB0EE66E7BEC1BF0E552DA
:06368000E552E5521200C4
:0A36860006500B02F3CF02F0F4CF60
:1036900003F00C02F3500326000EF420046E0650D3
:1036A0000D02F3500426000EF420056E06500E02A3
:1036B000F350052607500B02F3500326F450042262
:1036C000000E052207500C02F3500426F450052288
:1036D00007500D02F350052608500B02F350042644
:1036E000F450052208500C02F350052609500B0235
:0636F000F3500526120054
:0A36F600D9CFE6FFDACFE6FFE1CFFF
:10370000D9FFE2CFDAFFC26AC06AFC0EDB407F0B52
:103710003C0BC26EFB0EDBCFE6FFFC0EDB38F00B82
:10372000300BE552E710C16EFD0EDB50040DF35077
:10373000380B1F6EFD0EDB380F0B070B1E6EFD0ED8
:10374000DB50800B1E101F10C06EFC0EDBAE03D0D2
:103750009E9C9D8CF28CC280E552E5CFDAFFE7CFCC
:04376000D9FF12007B
:0C376400F36AF46AFF0EE124E96EFF0E28
:10377000E220EA6EED6607D0600EEF6404D07B0EA7
:10378000EF6001D0F32A1200FF0EE124E96EFF0E74
:10379000E220EA6EEDCFF4FFEFCFF3FFF46607D03F
:1037A000600EF36404D07B0EF36001D0F39A120034
:1037B000056A046A036A026A200EE76ED89006362C
:1037C00007360836093602360336043605360B50FE
:1037D000025C0C5003580D5004580E50055809E374
:1037E0000B50025E0C50035A0D50045A0E50055AED
:0837F000062AE72EE4D71200BF
:0837F800D9CFE6FFDACFE6FFAE
:10380000E1CFD9FFE2CFDAFFFD0EDB507E0BCD6EAC
:10381000FD0EDBAC02D0CD8E01D0CD9ECF6ACE6A3C
:103820009E90DBAE02D09D8001D09D90CD80E55270
:0A383000E5CFDAFFE7CFD9FF120061
:06383A00056A046A036A3E
:10384000180EE76ED8900736083609360336043668
:1038500005360C50035C0D5004580E50055807E314
:103860000C50035E0D50045A0E50055A072AE72EDD
:04387000EAD7120081
:0C387400D9CFE6FFDACFE6FFE1CFD9FFA5
:10388000E2CFDAFFFD0EDB507F0BD56ED76AD66A2A
:10389000F294FD0EDBAE02D0F28A01D0F29AD58E00
:0C38A000E552E5CFDAFFE7CFD9FF1200B8
:0438AC00D9CFE6FF8B
:1038B000DACFE6FFE1CFD9FFE2CFDAFFFD0EDB5032
:1038C000FB0BCA6ECC6A9E92FD0EDBAE02D09D82CF
:1038D00001D09D92CA84E552E5CFDAFFE7CFD9FF48
:0238E0001200D4
:0E38E200D9CFE6FFDACFE6FFE1CFD9FFE2CF84
:1038F000DAFFFD0EDB500F0BBD6EFD0EDBAE02D00E
:103900009E949D849484E552E5CFDAFFE7CFD9FFFA
:023910001200A3
:0E391200D9CFE6FFDACFE6FFE1CFD9FFE2CF53
:10392000DAFFC30EC2141E6EFD0EDB407F0B3C0B94
:103930001E10C26EE552E5CFDAFFE7CFD9FF1200C5
:10394000056A046A100EE76ED89008360936043608
:1039500005360D50045C0E50055805E30D50045E0D
:0C3960000E50055A082AE72EF0D712007E
:04396C0015EE00F064
:1039700025EE00F0F86A019C6FEC1AF003EC00F001
:083980001EEC07F0FBD712005A
:08398800056A080EE76ED890F5
:10399000093605360E50055C02E3056E092AE72E4E
:0439A000F7D7120043
:0C39A400FF0EE350E84E1200000000D0BF
:0A39B00000D000D0E82EFAD7120074
:0639BA00C450216E206ADA
:0C39C000C3502010F36E21C0F4FF120071
:0439CC0000EE00F019
:0A39D0000F0EEE6AEA62FDD7120046
:0439DA00C282120093
:0239DE001204D1
:1039E000D80D101204D80210142806320600042B39
:0A39F0000000080028000044050450
:0639FA000D0A50726F6619
:103A0000692D55666F20544553542056332E313559
:103A10006D335F3138662072656164792E0D0A520C
:103A2000783A2050504D20436F6D706F7369746504
:103A30000D0A4553433A2050504D0D0A4779726F95
:103A4000733A2041445852533330302028526F6C1F
:103A50006C2F50697463682F596177290D0A41638F
:0E3A600063656C65726F6D657465727320002E
:023A6E000D0A3F
:103A7000436F6D6D616E64733A0D0A412E2E416E77
:103A8000616C6F672063682E0D0A422E2E426F6FA5
:103A9000740D0A432E2E436F6D706173732074652D
:103AA00073740D0A4B2E2E43616C69622E20436F96
:103AB0006D706173730D0A492E2E49324320627571
:103AC00073207363616E0D0A4C2E2E4C696E656116
:103AD0007220746573740D0A482E2E4261726F2E27
:103AE00020746573740D0A4E2E2E4E6567617465E1
:103AF0002052782D50504D0D0A522E2E52582074BF
:103B00006573740D0A532E2E53657475700D0A314A
:103B10002D382E2E506F776572206F757470757406
:083B200020746573740D0A00A6
:083B28000D0A50726F66692D51
:103B300055666F20544553542056332E31356D331E
:103B40005F3138660D0A436F707972696768742057
:103B500028632920323030372D3920472E4B2E2034
:103B60004567616E202620572E204D616872696E70
:103B70006765720D0A436F6D6573207769746820FD
:103B80004142534F4C5554454C59204E4F205741BC
:103B90005252414E54590D0A54686973206973207A
:103BA0004652454520534F4654574152452C2073A9
:103BB00065652047504C206C6963656E7365210D07
:023BC0000A00F9
:107D00007D0EFA6E1FD0F926420C6F0C6F0C740CAE
:107D1000200C320C2E0C300C000C450C520C520C6A
:107D2000000C430C530C550C4D0C000C4F0C4B0C21
:107D3000000C530C550C430C430C450C530C530CCA
:107D4000210C000C0001F29EA66AD56AA40E946E66
:107D5000936A190EAF6E240EAC6ED86A900EAB6E9D
:107D6000816A010ED0EC3FF0106AD86A00EE60F034
:107D7000200EBFEC3FF09EAAFED7AE50ABB256D05D
:107D8000ABB454D0EF6E3A08D8B4DAEF3EF0EF3827
:107D90000F0BFD0FD8B4DAEF3EF0FF0FD8B4DAEFD7
:107DA0003EF00A0EEF5CD8B4DCEF3EF0FD0FD8A435
:107DB00016EF3FF0E92ADFD700EE60F0EF503A0807
:107DC000D8A416EF3FF0E92A186AB6EC3FF0166E19
:107DD0004008D8A016EF3FF0B6EC3FF0126EB6ECBC
:107DE0003FF0116EC00E1114136E3F0E1114146E7D
:107DF000B6EC3FF0000FD8B403EF3FF0FF0FD8B45C
:107E000069EF3FF031D010EE60F016C019F0B6EC1B
:107E10003FF0E66E192EFBD7B6EC3FF01850D8B401
:107E20001CEF3FF01B0ED0EC3FF09FD7AB98130E2A
:107E3000D0EC3FF0AB8899D7280EBFEC3FF0125042
:107E4000D8A42CEF3FF01150D8A42CEF3FF050EC09
:107E50003FF038EC3FF008D07D0E125CD8B034EF24
:107E60003FF038EC3FF000D0250ED0EC3FF07DD74E
:107E70009EEC3FF000EE60F010EE20F01450000F8A
:107E8000D8B447EF3FF0196EE652192EFDD716C051
:107E900019F0EE50E66E192EFCD780EC3FF0120080
:107EA00060C01CF061C01DF062C01EF063C01FF016
:107EB000EF0E616ED8907D0E1A6E1A321AC062F003
:107EC000000E1A6E1A321AC060F0F00E636E108047
:107ED0001200CFEC3FF010A00FD0116A126A136AA3
:107EE0009EEC3FF01CC020F01DC021F01EC022F00F
:107EF0001FC023F080EC3FF02B0ED0EC3FF0FFD7FB
:107F0000AAEC3FF0940E97EC3FF00A0000EE20F050
:107F1000020E1A6E200E196EEE50F56E0F00192E1D
:107F2000FBD7840E97EC3FF01A2EF4D71200A66E02
:107F3000550EA76EAA0EA76EA6821200AAEC3FF0FD
:107F400000EE20F0400E196E0900F550EE6E192E6D
:107F5000FBD71200F86A12C0F7FF13C0F6FF120039
:107F6000300EEF5CEFBCF90FE92A1200B0EC3FF0E5
:107F7000176E173AB0EC3FF01710182612001B6E60
:107F800082928296080E196E1B368298D8B082882B
:107F900082868296192EF8D7828282921200250E4E
:107FA000196E195083EC3EF0000FD8A4DFEF3FF0BC
:107FB0000D0EE4EC3FF00A0EE4EC3FF01200E4ECAE
:107FC0003FF0192A192AEDD79EA8FED7AD6E1200F0
:107FD00000000000000000000000000000000000A1
:107FE0000000000000000000000000000000000091
:107FF000000000000000000000000000000012006F
:020000040030CA
:0100010002FC
:010002001EDF
:010003001EDE
:0100050001F9
:010006008178
:00000001FF
