:020000040000FA
:06000000ADEF22F012003A
:020006001200E6
:06000800B0EF1BF0120036
:02000E00C250DE
:08001000020B01E0010E1200D9
:06001800A6EF1BF0120030
:02001E000300DD
:100020006F46000000010000ED000000E845000000
:100030000003000087000000CC450000BB02000068
:040040001C000000A0
:0C004400010EE66EC9EC22F0E55212003D
:10005000D9CFE6FFE1CFD9FFE652010EDF6EF2DF26
:10006000938E81BE04D0DF2A01E101D0FAD7EADF06
:10007000DF5000D0E552E552E7CFD9FF1200D9CFCB
:10008000E6FFE1CFD9FFE652938CE2DFDF6E819C81
:10009000939CD8DF819E939EE552E552E7CFD9FF2E
:1000A0001200D9CFE6FFE1CFD9FFE652939C819CA5
:1000B000CFDFDF6E938CC6DFE552E552E7CFD9FF85
:1000C0001200D9CFE6FFE1CFD9FFE652080EDF6E6E
:1000D000DF5017E0FE0EDBAE02D0938C02D0819C85
:1000E000939CB6DF00090BE0819E939EFE0EDBCF52
:1000F000F3FFF39EF346F3CFDBFFDF06E9D7010EF4
:100100000FD0938CA5DF000909E08150400B01E07E
:10011000010EDF6E819E939EDF5002D0010E00D053
:10012000E552E552E7CFD9FF1200D9CFE6FFE1CF84
:10013000D9FF020EE126DF6A938CDE52080EDD6ED7
:10014000010EDB5010E084DF00090BE0DF9EDF468C
:1001500081AC02D0000EDF80819E939E010EDB06F3
:10016000EFD7000E11D0FE0EDB50E8B0818CE8A076
:10017000819C939C6DDF000905E0819E939EDF507A
:1001800003D002D0000E00D0146E020EE15C02E239
:10019000E16AE552E16E1450E552E7CFD9FF120053
:1001A0006EDF420EE66E8DDFE552000901E03ED0C3
:1001B000470EE66E86DFE552000901E037D0740E87
:1001C000E66E7FDFE552000901E030D0720EE66E88
:1001D00078DFE552000901E029D063DF50DF420EED
:1001E000E66E6FDFE552000901E020D0770EE66E83
:1001F00068DFE552000901E019D0080EE66E61DF04
:10020000E552000901E012D0720EE66E5ADFE552A7
:10021000000901E00BD045DF020EE66EE66AD9EC7C
:1002200009F0E552E5520201010E9D6F02019D6B3E
:1002300051EF00F0D9CFE6FFE1CFD9FF060EE1265E
:1002400002019D5101E101D11ADF430EE66E39DF53
:10025000E552000905E025DF02014C6B4D6BE5D04E
:10026000E66A63DFE552166E176A16C017F0166A63
:1002700016C0E6FF17C0E6FF010EE66E56DFE55238
:10028000E552E7CF17F0E552E7CF16F00001161060
:10029000146E17C015F0040E14C0DBFF050E15C058
:1002A000DBFFFFDED950040FE96EDACFEAFF0F0E55
:1002B0000D6E0E6AEECF08F0EDCF09F097EC22F04C
:1002C00008C0EEFF09C0EDFF040EDBCFDEFFDBCF81
:1002D000DDFF02014B3504E24A51F008000E4B5598
:1002E00008E202014C6B4D6B02014A07000E4B5BAA
:1002F0009CD0F00E4A1901E14B5107E1DECF4AF2E2
:10030000DDCF4BF202014C6B4D6B0201DE504A5DBA
:10031000146EDD504B59156E14C0DEFF15C0DDFFA5
:10032000DECF14F0DDCF15F0153404E31450880847
:10033000FF0E155405E3F00EDE26000EDD2213D06D
:10034000DECF14F0DDCF15F0153404E21450780838
:10035000000E155408E2D9CFE9FFDACFEAFFF00E1C
:10036000EE5E000EED5ADECF16F0DDCF17F0D8802E
:10037000175004E7EC0E165CFF0E175804E2EC0E63
:10038000146E156813D0DECF18F0DDCF19F01934D4
:1003900004E218501408000E195404E2140E146EEE
:1003A000156A04D0DECF14F0DDCF15F014C0DEFFE7
:1003B00015C0DDFF080EE66E4CC218F04DC219F0F4
:1003C000030E1902F3CF19F01802F3CF18F0F4500E
:1003D0001926DE501824166EDD501920176ED8909D
:1003E00016361736D89016361736D5C21AF01B6A4D
:1003F0001ABE1B6800011A501602F3CF14F0F4CF96
:1004000015F01702F35015261B501602F35015264F
:1004100014C0E6FF15C0E6FF73EC0AF0E552E552A2
:10042000E552F3CF4CF2F4CF4DF20201A751A811DF
:100430000BE1DECF66F2DDCF67F20201D8906637BE
:100440006737D8906637673707D00201A751A811E0
:1004500003E10201666B676B060EE15C02E2E16A92
:10046000E552E16EE552E7CFD9FF120008DEEE0E4D
:10047000E66E27DEE552000901E03FD0F60EE66E9B
:1004800020DEE552000901E038D0F9DDEF0EE66E1E
:1004900018DEE552000901E030D0010EE66E45DEBF
:1004A000E5520201426F436B42C243F2426BF9DDF7
:1004B000E6DDEE0EE66E05DEE552000901E01DD038
:1004C000F70EE66EFEDDE552000901E016D0D7DD3D
:1004D000EF0EE66EF6DDE552000901E00ED0010EEA
:1004E000E66E23DEE552146E156A145002014213C3
:1004F00015504313D6DD010E05D0D3DD02019E6BEE
:10050000000E00D01200D9CFE6FFE1CFD9FFB7DD52
:10051000EE0EE66ED6DDE552000901E01CD0F40EC9
:10052000E66ECFDDE552000901E015D0FE0EDBCF0F
:10053000E6FFC7DDE552000901E00DD0B2DDFE0E99
:10054000DB500201475D02E0000E01D0010E020106
:100550009F6F010E03D0A5DD000E00D0E552E7CF5E
:10056000D9FF1200D9CFE6FFE1CFD9FFE652000E46
:100570000201B36FB46B0201446F456B80DDEE0E78
:10058000E66E9FDDE552000901E058D0D00EE66E20
:1005900098DDE552000901E051D071DDEF0EE66E05
:1005A00090DDE552000901E049D0010EE66EBDDDA7
:1005B000E5520201466F75DD550E0201465D04E10C
:1005C00002012E0E476F03D002016E0E476F47C225
:1005D000E6FF99DFE552000901E130D00A0EE66E30
:1005E000E66AD9EC09F0E552E55240DFDF6E42C21F
:1005F0003BF243C23CF202013D6BF40EE66E83DF38
:10060000E552000901E11AD01E0EE66EE66AD9EC49
:1006100009F0E552E5522ADFDF6E42C238F243C2EA
:1006200039F202013A6B47C2E6FF6DDFE55200097D
:1006300001E104D00201010E9E6F05D00201A46BFE
:10064000A4C29EF22EDDE552E552E7CFD9FF12009B
:10065000D9CFE6FFE1CFD9FF060EE1260201B32B89
:10066000000EB42302019E5101E1BFD1020E02012E
:10067000B4AF02D0D89003D0B35D000EB45903E3F9
:1006800002019F510FE1080E0201B4AF02D0D890D1
:1006900003D0B35D000EB45901E2A7D102019F510E
:1006A00001E0A3D10201B36BB46BE0DE010801E00D
:1006B0009CD102019F5123E0F40EE66E24DFE55247
:1006C0000201A951AA1107E042C23BF243C23CF227
:1006D00002013D6B13D042C217F043C218F0196AF1
:1006E00002013B51175C146E3C511858156E3D5178
:1006F0001958166E14C040F215C041F276D147C2A7
:10070000E6FF01DFE5520201A951AA110CE042C245
:1007100038F243C239F202013A6B0201A46B0201C2
:10072000446B456B62D1020149BF06D0800EE66E74
:100730002DEC0EF0E55205D0800EE66E3AEC0EF090
:10074000E5520201A45106E102013E6B3F6B02013A
:10075000010EA46F020138510201425F02013951BA
:100760000201435B050EE66EBEC216F0176A16BEA6
:100770001768020116504003F3CF14F0F4CF15F0C0
:100780004103F35000011526175002014003F350B6
:1007900000011526100E1426000E152214C0E6FFC7
:1007A00015C0E6FF73EC0AF0E552E552E552F3504E
:1007B00002014227F45043233EC2DEFF3FC2DDFF69
:1007C000030EE66E070E086E096A3EC20DF03FC2C8
:1007D0000EF093EC1FF0065002014225146E0750F4
:1007E0004321156E040E1426000E152214C0E6FFD8
:1007F00015C0E6FF73EC0AF0E552E552E552F3CF7F
:100800003EF2F4CF3FF20201DE503E5D146EDD5049
:100810003F59156E040E14C0DBFF050E15C0DBFF3B
:10082000D8803F5104E7FE0E3E5DFF0E3F5904E2C3
:10083000FE0E3E6F3F690DD03F3504E23E51080881
:10084000000E3F5504E2080E3E6F3F6B02D03FC2E0
:100850003FF2C3C214F0156A14BE15683EC208F018
:100860003FC209F014C00DF015C00EF093EC1FF05C
:10087000020E06C0DBFF030E07C0DBFF020EDBCF5C
:1008800014F0030EDBCF15F0020115504519E8AE48
:1008900002D0453504D04451145C4551155804E24A
:1008A0004407000E455B14D0020EDBCF14F0030E9C
:1008B000DBCF15F045511518E8AE02D0153404D041
:1008C0001450445D1550455903E2442B000E452356
:1008D000020EDBCF14F0030EDBCF15F015504519D7
:1008E000E8AE02D0453504D04451145C455115584A
:1008F00004E24407000E455B14D0020EDBCF14F077
:10090000030EDBCF15F045511518E8AE02D01534B3
:1009100004D01450445D1550455903E2442B000E99
:100920004523D6C21AF01B6A1ABE1B68040EDBCF21
:1009300016F0050EDBCF17F0D880175004E7F80E3D
:10094000165CFF0E175804E2F80E146E156817D0E7
:10095000040EDBCF18F0050EDBCF19F0193404E2DA
:1009600018500808000E195404E2080E146E156A97
:1009700006D0040EDBCF14F0050EDBCF15F014C04B
:1009800008F015C009F01AC00DF01BC00EF093EC72
:100990001FF006500201442707504523D8804551D7
:1009A00004E7FB0E445DFF0E455904E2FB0E446F65
:1009B00045690DD0453504E244510F08000E4555F8
:1009C00004E20F0E446F456B02D045C245F20201AE
:1009D00049BF06D0800EE66E2DEC0EF0E55205D034
:1009E000800EE66E3AEC0EF0E5520201A751A81116
:1009F00023E102019E511BE0040E44C268F245C28D
:100A000069F2000A06E00201D89068376937E80405
:100A1000FBE1040E3EC26AF23FC26BF2000A06E03E
:100A20000201D8906A376B37E804FBE105D0020178
:100A3000686B696B6A6B6B6B060EE15C02E2E16AE4
:0C0A4000E552E16EE552E7CFD9FF12004D
:040A4C000201195139
:100A50000201132702011A51020114230201A751B6
:100A6000A8115FE1BFC214F00001146C156A14BE36
:100A7000156814C015F0146A020114511518E8AE77
:100A800002D0153404D01450135D155014590AE2E5
:100A9000BFC213F2136D146B13BF146913C214F2A7
:100AA000136B1ED0BFC216F0176A16BE176816C0A9
:100AB00017F0166A17501419E8AE02D0143504D096
:100AC0001351165C1451175809E2BFC213F2146B8C
:100AD00013BF146913C214F2136B02D014C214F2C0
:100AE0002DC214F0156A14BE156814501327155042
:100AF0001423800E141507E0010E1325136F000E4A
:100B00001421146F0ED0143504E213510008000EA6
:100B1000145505E2010E135F000E145B02D0136B37
:100B2000146B120002011B510201152702011C5116
:100B3000020116230201A751A8115FE1C4C214F0FB
:100B40000001146C156A14BE156814C015F0146AFF
:100B5000020116511518E8AE02D0153404D0145015
:100B6000155D155016590AE2C4C215F2156D166BC3
:100B700015BF166915C216F2156B1ED0C4C216F049
:100B8000176A16BE176816C017F0166A175016199E
:100B9000E8AE02D0163504D01551165C1651175820
:100BA00009E2C4C215F2166B15BF166915C216F21A
:100BB000156B02D016C216F22EC214F0156A14BEBE
:100BC00015681450152715501623800E161507E0CA
:100BD000010E1525156F000E1621166F0ED0163555
:100BE00004E215510008000E165505E2010E155FCE
:100BF000000E165B02D0156B166B1200D9CFE6FF04
:100C0000E1CFD9FF020EE12603C214F0156A14BE2B
:100C10001568145002010B2715500C2302019D5139
:100C20003BE00201033504E3FF0E0303F35001D060
:100C30000351146E0A0EE76E1418E8AE02D0143495
:100C400003D0E750D880145404E202014A694B6B88
:100C500023D002014D3504E24C511E08000E4D55C3
:100C600006E21E0E02010B5F000E0C5B15D0D88051
:100C70004D5104E7E20E4C5DFF0E4D5906E21E0E8B
:100C800002010B27000E0C2307D04C5102010B5F11
:100C900002014D5102010C5B02010B5102011727A9
:100CA00002010C5102011823C9C214F00001146C96
:100CB000156A14BE156814C015F0146A02011851A3
:100CC0001518E8AE02D0153404D01450175D155035
:100CD00018590AE2C9C217F2176D186B17BF1869C5
:100CE00017C218F2176B1ED0C9C216F0176A16BECB
:100CF000176816C017F0166A17501819E8AE02D018
:100D0000183504D01751165C1851175809E2C9C29A
:100D100017F2186B17BF186917C218F2176B02D0B9
:100D200018C218F2800E181507E0010E1725176F6C
:100D3000000E1821186F0ED0183504E21751000864
:100D4000000E185505E2010E175F000E185B02D069
:100D5000176B186B800E181507E0010E1725176F1B
:100D6000000E1821186F0ED0183504E21751000834
:100D7000000E185505E2010E175F000E185B02D039
:100D8000176B186B020EE15C02E2E16AE552E16E5C
:100D9000E552E7CFD9FF1200010EE66E020EE66EB5
:100DA00002EC21F0E552E552F35002011927F4500C
:100DB0001A23010EE66EE66E02EC21F0E552E552D2
:100DC000F35002011B27F4501C231200D9CFE6FF79
:100DD000E1CFD9FF020EE126010E02011925196F9C
:100DE000000E1A211A6FD8901A331933010E02011E
:100DF0001B251B6F000E1C211C6FD8901C331B334E
:100E00000201A83504E2A7510008000EA85569E2C6
:100E1000020119510201132702011A510201142380
:100E200002011B510201152702011C510201162368
:100E30000201010EA71901E1A85152E1080E0201B9
:100E40001327000E1423080E02011527000E162387
:100E500002019C5118E1D2C214F0156A14BE156843
:100E6000020113511424136F14511520146FD3C2AF
:100E700014F0156A14BE1568020115511424156F7B
:100E800016511520166F13C214F014C215F0040E7B
:100E9000D89015321432E804FBE114C021F215C0D9
:100EA00022F215C214F016C215F0040ED8901532B5
:100EB0001432E804FBE114C023F215C024F202014D
:100EC000256B266B02012E6B2EC22DF22EC215F25F
:100ED0000201166B15BF166915C213F216C214F281
:100EE000B9D0020121510201195F02012251020110
:100EF0001A5B0201235102011B5F0201245102010E
:100F00001C5B0201CAA13CD00201195102011B2540
:100F1000146E02011A5102011C21156E14C0DEFF6D
:100F200015C0DDFF0201195102011B5F02011A51B8
:100F300002011C5BDECF19F2DDCF1AF20201D8905C
:100F400019371A37030E0D6E0E6A19C208F01AC24D
:100F500009F040EC1FF008C019F209C01AF20201B2
:100F6000D8901B371C37030E0D6E0E6A1BC208F09B
:100F70001CC209F040EC1FF008C01BF209C01CF2B3
:100F800019C26CF21AC26DF21BC26EF21CC26FF271
:100F9000010EE66E0201156A1925146E1A5115220A
:100FA00014C0E6FF15C0E6FF73EC0AF0E552E55207
:100FB000E552F3CF07F2F4CF08F248DD010EE66EFA
:100FC0000201156A1B25146E1C51152214C0E6FF80
:100FD00015C0E6FF73EC0AF0E552E552E552F3CF97
:100FE00009F2F4CF0AF29EDDE66A040EE66E02EC28
:100FF00021F0E552E552F3CF0BF2F4CF0CF20201EF
:10100000D8900C330B33D8900C330B33020125519D
:10101000261104E10BC225F20CC226F22551020171
:101020000B5F0201265102010C5B0BC21FF20CC2C6
:1010300020F2E4DD0BC270F20CC271F213C272F244
:1010400014C273F215C274F216C275F217C276F2A8
:1010500018C277F2020EE15C02E2E16AE552E16E4B
:10106000E552E7CFD9FF1200F4EC18F0040EE66E5B
:10107000BBC218F0196A18BE19680201185007039C
:10108000F3CF16F0F4CF17F00803F3500001172642
:10109000195002010703F35000011726BDC21CF0CE
:1010A0001D6A1CBE1D680201075102010D5D1A6E0A
:1010B0000E51020108551B6E1AC008F01BC009F042
:1010C0001CC00DF01DC00EF093EC1FF0165006244E
:1010D000146E17500720156E080E1426000E1522E8
:1010E00014C0E6FF15C0E6FF73EC0AF0E552E552C6
:1010F000E552F3CF58F2F4CF59F20201A751A811EB
:101100002AE1080EE66EBCC216F0176A16BE176812
:10111000020116501303F3CF14F0F4CF15F01403AB
:10112000F35000011526175002011303F35000017C
:101130001526800E1426000E152214C0E6FF15C0D9
:10114000E6FF73EC0AF0E552E552E552F350020176
:101150005827F450592301C214F0156A14BE1568BB
:1011600014500201585F1550595B040EE66EC0C260
:1011700018F0196A18BE1968020118500903F3CF54
:1011800016F0F4CF17F00A03F35000011726195098
:1011900002010903F35000011726C2C21CF01D6AA8
:1011A0001CBE1D680201095102010F5D1A6E10512B
:1011B00002010A551B6E1AC008F01BC009F01CC0C2
:1011C0000DF01DC00EF093EC1FF016500624146EA7
:1011D00017500720156E080E1426000E152214C095
:1011E000E6FF15C0E6FF73EC0AF0E552E552E55262
:1011F000F3CF5AF2F4CF5BF20201A751A8112AE112
:10120000080EE66EC1C216F0176A16BE1768020114
:1012100016501503F3CF14F0F4CF15F01603F35066
:1012200000011526175002011503F3500001152681
:10123000800E1426000E152214C0E6FF15C0E6FF2E
:1012400073EC0AF0E552E552E552F35002015A27D9
:10125000F4505B2302C214F0156A14BE15681450D2
:1012600002015A5F15505B5B040EE66EC5C218F0B2
:10127000196A18BE1968020118500B03F3CF16F053
:10128000F4CF17F00C03F350000117261950020198
:101290000B03F35000011726C7C21CF01D6A1CBEC9
:1012A0001D6802010B510201115D1A6E12510201FB
:1012B0000C551B6E1AC008F01BC009F01CC00DF0C5
:1012C0001DC00EF093EC1FF016500624146E17503C
:1012D0000720156E080E1426000E152214C0E6FF16
:1012E00015C0E6FF73EC0AF0E552E552E552F3CF84
:1012F0005CF2F4CF5DF2080EE66EC6C216F0176A15
:1013000016BE1768020116501703F3CF14F0F4CF7E
:1013100015F01803F35000011526175002011703AA
:10132000F35000011526800E1426000E152214C05D
:10133000E6FF15C0E6FF73EC0AF0E552E552E55210
:10134000F35002015C27F4505D23C8C214F0000181
:10135000146C156A14BE156802015D511518E8AECB
:1013600002D0153404D014505C5D15505D5907E26D
:10137000C8C25CF25C6D5D6B5CBF5D6918D0C8C2B1
:1013800016F0176A16BE176817505D19E8AE02D03E
:101390005D3504D05C51165C5D51175806E2C8C239
:1013A0005CF25D6B5CBF5D6902D05DC25DF263EFB4
:0213B0000DF03E
:0E13B200D9CFE6FFE1CFD9FF030EE126F250BE
:1013C000200B01E0010EE76E020EE7CFDBFFF29A81
:1013D000FD0EDBCFDEFFDBCFDDFFD9CFE9FFDACFBC
:1013E000EAFFEE50ED1008E0F2A4FED7F294DF061B
:1013F000010E01E2DB06F1D7020EDB50E8B0F28A03
:10140000E8A0F29A030EE15C02E2E16AE552E16EC5
:10141000E552E7CFD9FF1200D9CFE6FFE1CFD9FFE0
:10142000050EE126F250200B01E0010EE76E040EDE
:10143000E7CFDBFFF29ADE6ADD6ADECF14F0DDCFA4
:1014400015F0FD0EDBCF16F0FE0EDBCF17F00A0E07
:101450001702F3CF17F01602F3CF16F0F450172649
:1014600015501718E8AE02D0173404D01650145C8B
:101470001750155828E2080EF36E020EF3CFDBFF6B
:10148000030EDB6AD950020FE96EDACFEAFFEE50A5
:10149000ED1009E0F2A4FED7F294020EDB06030E73
:1014A00001E2DB06EFD7A7EC12F09EAA07D0040EEC
:1014B000DB50E8B0F28AE8A0F29A0BD0DF2A010EE6
:1014C00001E3DB2ABAD7040EDB50E8B0F28AE8A0C9
:1014D000F29A050EE15C02E2E16AE552E16EE55244
:1014E000E7CFD9FF1200D9CFE6FFE1CFD9FFFD0E3C
:1014F000DBCF16F0FE0EDBCF17F00001800E1714C5
:101500001BE0FD0EDBCF18F0FE0EDBCF19F0186CE0
:10151000191E000E1922FC0EDB5018C014F019C061
:1015200015F005E0D89015321432E804FBE1146C94
:10153000151E000E152212D0FD0EDBCF1AF0FE0E86
:10154000DBCF1BF0FC0EDB501AC014F01BC015F0F3
:1015500005E0D89015321432E804FBE114C0F3FF23
:1015600015C0F4FF00D0E552E7CFD9FF1200D9CF64
:10157000E6FFE1CFD9FFD950FC0FE96EFF0EDA206C
:10158000EA6E020ED890EB50000A06E6000EEE5C02
:10159000000EEE58000EEF583CE2FC0EDBCF17F0C9
:1015A000FD0EDBCF18F0FE0EDBCF19F00C680D68D6
:1015B0000E6817C007F018C008F019C009F0C0EC99
:1015C0001FF004C017F005C018F006C019F0FB0E9C
:1015D000DB501F0B17C014F018C015F019C016F01F
:1015E00006E0D890163215321432E806FAE10C689B
:1015F0000D680E6814C007F015C008F016C009F099
:10160000C0EC1FF004C014F005C015F006C016F0C1
:1016100016D0D950FC0FE96EFF0EDA20EA6EFB0EF1
:10162000DB501F0BEECF14F0EECF15F0EECF16F01F
:1016300006E0D890163215321432E806FAE114C0EA
:1016400007F015C008F016C009F000D0E552E7CF4A
:10165000D9FF12003F0E926E020EC16EC00E816E57
:10166000400E936E600E826E840E946EC78CF19E57
:101670001200D9CFE6FFE1CFD9FFE652DF6ADFCF14
:1016800014F0040EE76E1418E8AE02D0E73402D06E
:10169000E750145C11E2DFCFE9FFEA6AE9BEEA68CD
:1016A000D890E936EA36500EE926020EEA22010EFB
:1016B000EE6EED6ADF2AE3D70201770E4E6F4EC25F
:1016C0004FF20201976B000E0201116F126B0201C3
:1016D0000F6F106B02010D6F0E6B0201446F456BB3
:1016E0000201646F656B0201606F616B02015E6FE6
:1016F0005F6B0201326B336B02012E6B2EC22DF237
:101700000201156F166B0201136F146B0201176F44
:10171000186B02011D6B1E6B0201486B0201B56B59
:10172000B66BB76BE552E552E7CFD9FF1200D9CFC0
:10173000E6FFE1CFD9FF060EE126DE6ADE6A010E82
:10174000DE6EDD6ADD52DD52040EDB6A050EDB6AF9
:10175000DECF07F0DECF08F0DECF09F0DDCF0AF0F4
:10176000DD52DD520A34000E0A1809E6D880000E58
:101770000754000E0854000E0954000E0A5401E3E9
:101780007ED0FB0EDBCF1CF0FC0EDBCF1DF0FD0E80
:10179000DBCF1EF0FE0EDBCF1FF0040EDBCF18F008
:1017A000050EDBCF19F01A6A1B6A19AE02D01A684F
:1017B0001B68040EDBCF14F0050EDBCF15F0166AA4
:1017C000176A15AE02D01668176814C006F015C067
:1017D00007F016C008F017C009F018C00BF019C0C8
:1017E0000CF01AC00DF01BC00EF042EC21F01F509F
:1017F0000518E8AE02D0053408D002501C5C035036
:101800001D5804501E5805501F580EE2DFCF14F02B
:10181000010EDBCF15F0D950040FE96EDACFEAFFE5
:101820001450EE5E1550ED5AD9CFE9FFDACFEAFF3A
:10183000EECF14F0EECF15F0EECF16F0EFCF17F09D
:10184000D890173216321532143214C0DFFF010E51
:1018500015C0DBFF020E16C0DBFF030E17C0DBFF57
:10186000DFCF14F0010EDBCF15F0D950040FE96E75
:10187000DACFEAFF1450EE261550ED2269D7040E98
:10188000DBCF14F0050EDBCF15F014C0F3FF15C04D
:10189000F4FF060EE15C03E200D0E16AE552E16E7E
:1018A000E552E7CFD9FF1200D9CFE6FFE1CFD9FF4C
:1018B000020EE126E66AE66A02EC21F0E552E55204
:1018C000F3CF14F0F4CF15F0030ED8901532143284
:1018D000E804FBE114C0DEFF15C0DDFF010EE66E7B
:1018E000B8C216F0176A16BE1768DE501624146EBA
:1018F000DD501720156E010E1426000E152214C09F
:10190000E6FF15C0E6FFEFDDE552E552E552F3CF05
:10191000B8F2B8C214F0156A14BE1568CCC216F03D
:10192000176A16BE176815501718E8AE02D017349C
:1019300004D01650145C1750155802E3000E01D065
:10194000010E010B02019B6F9B511CE0320E020144
:10195000B0AF02D0D89003D0AF5D000EB05909E20D
:10196000800EE66E7AD9E552040EE66E76D9E5521F
:1019700008D0800EE66E7ED9E552040EE66E7AD966
:10198000E55252D0A55126E0320E0201B0AF02D08E
:10199000D89003D0AF5D000EB05913E2020E0201E1
:1019A000B2AF02D0D89003D0B15D000EB25909E2B7
:1019B000800EE66E52D9E552040EE66E4ED9E5521F
:1019C00008D0800EE66E56D9E552040EE66E52D966
:1019D000E5522AD0A35120E0320E0201B0AF02D06E
:1019E000D89003D0AF5D000EB0590DE20201B151A5
:1019F000B21109E1800EE66E30D9E552040EE66EB2
:101A00002CD9E55208D0800EE66E34D9E552040E8A
:101A1000E66E30D9E55208D0800EE66E2BD9E5523D
:101A2000040EE66E27D9E552020EE15C02E2E16A9D
:101A3000E552E16EE552E7CFD9FF12000201AD0792
:101A4000000EAE5BAD51AE113DE102010051146ECE
:101A5000156AFF0ED8801456000E1556030ED89046
:101A600015321432E804FBE1050E02011424AD6FB7
:101A7000000E1520AE6F0201A45105E0510EE66E76
:101A8000ECD8E5521FD0020149A909D0510EE66EEB
:101A9000F1D8E552010EE66EE0D8E55213D049A127
:101AA00009D0510EE66EE6D8E552400EE66ED5D866
:101AB000E55208D0510EE66EDDD8E552100EE66E06
:101AC000CCD8E55212000201CA51E840E8403F0B71
:101AD000010B4DE02E0EE66ECDD8E55214C214F087
:101AE000156A000EE76E1418E8AE02D0143403D065
:101AF000E750D880145405E2040EE66EAED8E552E5
:101B000011D014C214F0156AFF0EE76E1418E8AE77
:101B100002D0E73402D0E750145C04E2080EE66E0F
:101B20009CD8E55216C214F0156A000EE76E141820
:101B3000E8AE02D0143403D0E750D880145405E244
:101B4000200EE66E8AD8E55211D016C214F0156A3E
:101B5000FF0EE76E1418E8AE02D0E73402D0E7506B
:101B6000145C04E2020EE66E78D8E5522AD0CA511F
:101B7000E00BE838E840010B24E02E0EE66E7AD840
:101B8000E55202014D3504E24C510008000E4D555E
:101B900005E2080EE66E61D8E55207D0800E4D15BD
:101BA00004E0040EE66E59D8E55202014B3504E21A
:101BB0004A51F008000E4B5504E2200EE66E4DD857
:101BC000E55212000201AF51B0110DE1640EAF6F8A
:101BD000B06B0201B151B21103E1080EB16FB26BEB
:101BE000B107000EB25B0201AF07000EB05B12003E
:101BF000D9CFE6FFE1CFD9FF020EE12649C2DFFFD0
:101C0000828A94988296DE52080EDD6E010EDB50B9
:101C100016E0DFAE02D0828801D08298DF9EDF46D8
:101C2000010EE66EC9EC22F0E5528286010EE66EE8
:101C3000C9EC22F0E5528296010EDB06E7D78282DC
:101C4000829282869488020EE15C02E2E16AE552A9
:101C5000E16EE552E7CFD9FF1200D9CFE6FFE1CF21
:101C6000D9FFFE0EDB5002014913C2DFE552E7CF78
:101C7000D9FF1200D9CFE6FFE1CFD9FFFE0EDB1C62
:101C800002014917B5DFE552E7CFD9FF1200D9CFDE
:101C9000E6FFE1CFD9FFE652DF6ADFCF14F0170E7F
:101CA000E76E1418E8AE02D0143403D0E750D880A1
:101CB00014541BE3DFCFE9FFEA6AE9BEEA68D89073
:101CC000E936EA36660EE926020EEA22EECFE6FF94
:101CD000EFCFE6FFCCEC1AF0E552E5523B0EE66E94
:101CE00026EC1AF0E552DF2AD8D795EC1AF0E55227
:081CF000E552E7CFD9FF120015
:081CF800D9CFE6FFE1CFD9FFCF
:101D0000020EE126FD0EDBCF54F2FE0EDBCF55F2C4
:101D100054C252F255C253F254C250F255C251F25B
:101D2000FD0EDBCF56F2FE0EDBCF57F20201CAA149
:101D300062D00201585102015A5D166E5B510201D8
:101D40005955176E02015C51165C146E5D5117589F
:101D5000156E145002015227155053230868096864
:101D60005AC20DF05BC20EF093EC1FF00650020158
:101D70005825166E07505921176E02015C51165CEA
:101D8000146E5D511758156E1450020154271550EA
:101D90005523086809685AC20DF05BC20EF093EC37
:101DA0001FF002015851065C166E59510758176E04
:101DB000165002015C25146E17505D21156E1450EB
:101DC000020150271550512302015A510201582592
:101DD000166E02015B5102015921176E1650020165
:101DE0005C25146E17505D21156E145002015627A4
:101DF0001550572345D00868096858C20DF059C2DC
:101E00000EF093EC1FF002015C51065C146E5D5104
:101E10000758156E14500201522715505323020122
:101E20005C510201585D146E595102015D55156EE9
:101E300014500201542715505523086809685AC2E6
:101E40000DF05BC20EF093EC1FF0065002015C2512
:101E5000146E07505D21156E145002015027155065
:101E6000512302015A5102015C25146E02015B519B
:101E700002015D21156E145002015627155057239B
:101E8000020EE15C02E2E16AE552E16EE552E7CF63
:101E9000D9FF1200D9CFE6FFE1CFD9FF100EE1261E
:101EA000020151515319E8AE02D0533504D05251BA
:101EB000505D5351515905E252C214F053C215F00E
:101EC00004D050C214F051C215F0166A15BE16683F
:101ED0000A0E14C0DBFF0B0E15C0DBFF0C0E16C084
:101EE000DBFF54C217F055C218F0196A18BE196802
:101EF000D9500A0FE96EDACFEAFF020EEB5019183B
:101F0000E8AE02D0193406D01750EE5C1850EE58E7
:101F10001950EE5808E254C214F055C215F0166A72
:101F200015BE166809D00A0EDBCF14F00B0EDBCFFE
:101F300015F00C0EDBCF16F00A0E14C0DBFF0B0EF3
:101F400015C0DBFF0C0E16C0DBFF56C217F057C2E0
:101F500018F0196A18BE1968D9500A0FE96EDACF5D
:101F6000EAFF020EEB501918E8AE02D0193406D081
:101F70001750EE5C1850EE581950EE5808E256C251
:101F800014F057C215F0166A15BE166809D00A0E6D
:101F9000DBCF14F00B0EDBCF15F00C0EDBCF16F001
:101FA0000A0E14C0DBFF0B0E15C0DBFF0C0E16C0B3
:101FB000DBFFFD0EDBCF17F0FE0EDBCF18F0196A4A
:101FC00018BE1968D9500A0FE96EDACFEAFF175028
:101FD000EE5C146E1850EE58156E1950EE58166ED1
:101FE0000D0E14C0DBFF0E0E15C0DBFF0F0E16C06A
:101FF000DBFF0D0EDBCF14F00E0EDBCF15F00F0E56
:10200000DBCF16F01634000E161807E6D880000E47
:102010001454000E1554000E165401E36DD1F00E49
:10202000176E186A196AFD0EDBCF1AF0FE0EDBCFB1
:102030001BF01C6A1BBE1C681A50175C146E1B50E8
:102040001858156E1C501958166E15C016F014C08D
:1020500015F014C015F0146A14C007F015C008F08C
:1020600016C009F00D0EDBCF0CF00E0EDBCF0DF01D
:102070000F0EDBCF0EF066EC1FF0040E07C0DBFF87
:10208000050E08C0DBFF060E09C0DBFFFD0EDBCF2F
:1020900017F0FE0EDBCF18F0196A18BE1968D1C20E
:1020A0001AF01B6A1C6A1AAE02D01B681C681A5010
:1020B000175C146E1B501858156E1C501958166E6C
:1020C00015C016F014C015F014C015F0146A14C031
:1020D00007F015C008F016C009F00D0EDBCF0CF0AC
:1020E0000E0EDBCF0DF00F0EDBCF0EF066EC1FF007
:1020F000070E07C0DBFF080E08C0DBFF090E09C092
:10210000DBFF070EDBCF17F0080EDBCF18F0090E50
:10211000DBCF19F0D950040FE96EDACFEAFF020ED7
:10212000EB501918E8AE02D0193406D01750EE5C07
:102130001850EE581950EE580AE2040EDBCF14F096
:10214000050EDBCF15F0060EDBCF16F009D0070E1B
:10215000DBCF14F0080EDBCF15F0090EDBCF16F045
:10216000010E14C0DBFF020E15C0DBFF030E16C00C
:10217000DBFFD950010FE96EDACFEAFF020ED890EB
:10218000EB50000A06E6000EEE5C010EEE58000E63
:10219000EF5801E3AED00101010EF76F58C217F0FE
:1021A00059C218F0196A18BE196817C007F018C08C
:1021B00008F019C009F0DBCF0CF0020EDBCF0DF0F8
:1021C000030EDBCF0EF0C0EC1FF004C014F005C00E
:1021D00015F006C016F0800E1426000E15221622E9
:1021E0000C6A010E0D6E0E6A14C007F015C008F0DF
:1021F00016C009F066EC1FF007C014F008C015F017
:1022000009C016F014C058F215C059F25AC217F09E
:102210005BC218F0196A18BE196817C007F018C019
:1022200008F019C009F0010EDBCF0CF0020EDBCF75
:102230000DF0030EDBCF0EF0C0EC1FF004C014F065
:1022400005C015F006C016F0800E1426000E1522EB
:1022500016220C6A010E0D6E0E6A14C007F015C02E
:1022600008F016C009F066EC1FF007C014F008C0B3
:1022700015F009C016F014C05AF215C05BF25CC22A
:1022800017F05DC218F0196A18BE196817C007F078
:1022900018C008F019C009F0010EDBCF0CF0020ED7
:1022A000DBCF0DF0030EDBCF0EF0C0EC1FF004C04F
:1022B00014F005C015F006C016F0800E1426000EAE
:1022C000152216220C6A010E0D6E0E6A14C007F05C
:1022D00015C008F016C009F066EC1FF007C014F036
:1022E00008C015F009C016F014C05CF215C05DF20C
:1022F00002D00101F76B02D00101F76B100EE15C17
:1023000002E2E16AE552E16EE552E7CFD9FF120041
:10231000D9CFE6FFE1CFD9FF040EE12602016451D7
:1023200002014425166E0201655102014521176E16
:102330000201005100011624146E000E1720156EC4
:10234000020E14C0DBFF030E15C0DBFF020EDBCF55
:1023500016F0030EDBCF17F0800E171403E0146A9B
:10236000156A17D0020EDBCF18F0030EDBCF19F081
:10237000193404E21850D808000E195404E2D80E9B
:10238000146E156A06D0020EDBCF14F0030EDBCFFD
:1023900015F0020E14C0DBFF030E15C0DBFF020EAA
:1023A000DBCFE6FF030EDBCFE6FFA6DCE552E5520E
:1023B000020EDBCFE6FF030EDBCFE6FF6BDDE5525F
:1023C000E5520101F75109E0020EDBCFE6FF030EF3
:1023D000DBCFE6FF91DCE552E552040EE15C02E260
:1023E000E16AE552E16EE552E7CFD9FF1200D9CF9D
:1023F000E6FFE1CFD9FF040EE1260201A751A811A3
:102400002FE10201CD5103E10201D45129E0CDC2F7
:1024100014F0156A14BE156813C208F014C209F04E
:1024200014C00DF015C00EF040EC1FF008C0DEFF28
:1024300009C0DDFFD4C214F0156A14BE156815C2B8
:1024400008F016C209F014C00DF015C00EF040ECF3
:102450001FF0020E08C0DBFF030E09C0DBFF0CD02B
:10246000010EF36E020EF3CFDBFF030EDB6A020EEA
:10247000DBCFDEFFDBCFDDFF770EDE26000EDD22B9
:1024800002010551146E156AD950020FE96EDACFB8
:10249000EAFF1450EE261550ED22DECF16F0DDCF08
:1024A00017F0D890175004E6010E165C000E17586E
:1024B00004E2010E146E156A13D0DECF18F0DDCFE2
:1024C00019F0193404E21850F008000E195404E20F
:1024D000F00E146E156A04D0DECF14F0DDCF15F0C7
:1024E00014C04EF2020EDBCF16F0030EDBCF17F056
:1024F000D890175004E6010E165C000E175804E23F
:10250000010E146E156A17D0020EDBCF18F0030E01
:10251000DBCF19F0193404E21850F008000E1954FA
:1025200004E2F00E146E156A06D0020EDBCF14F032
:10253000030EDBCF15F014C04FF2040EE15C02E293
:10254000E16AE552E16EE552E7CFD9FF12000201E0
:1025500000510201826F836B01C284F2856B84BFDC
:10256000856902C286F2876B86BF876903C288F2DB
:10257000896B88BF896950C28AF251C28BF256C2F8
:102580008CF257C28DF252C28EF253C28FF254C2F5
:1025900090F255C291F202014E510201926F936B7B
:0C25A00002014F510201946F956B120074
:0425AC00D80EE66EF1
:1025B000400EE66E06EC1AF0E552E5521200D9CF55
:1025C000E6FFE1CFD9FFFE0EDB500BE0000EE66E1A
:1025D000010EE66EE8EC19F0E552E5520201010E3B
:1025E000046F6B0EE66E010EE66EE8EC19F0E55234
:1025F000E55202019C5109E0CF0EE66E400EE66EF8
:1026000006EC1AF0E552E55208D0BF0EE66E400E19
:10261000E66E06EC1AF0E552E552B60EE66E400E96
:10262000E66E06EC1AF0E552E55202019D5109E012
:10263000CF0EE66E400EE66E06EC1AF0E552E5525D
:1026400008D0BF0EE66E400EE66E06EC1AF0E552BC
:10265000E552B00EE66E400EE66E06EC1AF0E5525C
:10266000E55202019E5116E0550E0201465D09E158
:10267000A70EE66E400EE66E06EC1AF0E552E55245
:1026800008D09E0EE66E400EE66E06EC1AF0E5529D
:10269000E55208D0BF0EE66E400EE66E06EC1AF06C
:1026A000E552E55257EC1EF0920EE66E400EE66ED5
:1026B00006EC1AF0E552E5520201CA417F0B010B0C
:1026C00006E0330EE66E26EC1AF0E55205D0310E28
:1026D000E66E26EC1AF0E552770EE66E400EE66ED8
:1026E00006EC1AF0E552E55202010451146E156A27
:1026F000153404E214507708000E155406E2320E29
:10270000E66E26EC1AF0E55205D0310EE66E26ECA8
:102710001AF0E5524BDFE552E7CFD9FF1200D9CFCF
:10272000E6FFE1CFD9FF090EE126E6EC1AF0E76EED
:10273000020EE7CFDBFFDB5001E1EBD1020EDBCF76
:10274000E6FFB1EC21F0E552F3CF14F0F4CF15F031
:102750001450151009E0020EDBCFE6FFC3EC21F0A8
:10276000E552020EF3CFDBFF020EDB503F0A01E120
:10277000C6D17D0A01E1C1D1100A01E161D11C0A73
:1027800001E135D11D0A01E12ED11E0A62E0010AE4
:1027900001E0BFD15C0EE66E400EE66E06EC1AF06C
:1027A000E552E55202010451146E156A153404E233
:1027B00014507708000E155406E2320EE66E26EC31
:1027C0001AF0E55205D0310EE66E26EC1AF0E5520D
:1027D00057EC1EF0010EF36E030EF3CFDBFFBB0EC2
:1027E000DE6E020EDD6EDECF14F0DDCF15F0D60EFC
:1027F000D8801454020E15542AE3500EE66E400E93
:10280000E66E06EC1AF0E552E552030EDBCFF3FF5D
:10281000DB2AF350E66E33EC1AF0E5524C0EE66E0E
:10282000400EE66E06EC1AF0E552E552DECFE9FF07
:10283000DDCFEAFF080EEFCFDBFFDBCFE6FF74EC66
:102840001AF0E552DF2A010E01E3DB2ACCD7AEDE17
:1028500060D1020EE66E2DEC0EF0E552500EE66EE3
:10286000400EE66E06EC1AF0E552E55207EC1BF05E
:10287000FF0FE76E030EE7CFDBFF4C0EE66E400E58
:10288000E66E06EC1AF0E552E55248EC1BF0E76EF6
:10289000080EE7CFDBFF02010451146E156A1534F0
:1028A00004E214507708000E155408E2200EF36E6F
:1028B000040EF3CFDBFF050EDB6A04D0040EDB6AE7
:1028C000050EDB6A030EDB50146E156ACA0E166E17
:1028D000020E176EBB0E165E020E175A1650141813
:1028E00002E11750151802E1080EDB96080EDBCF47
:1028F000E6FF030EDB50E76E040EDBCF14F0050E8F
:10290000DBCF15F0E7501426000E15221450E66EAA
:10291000C3EC1EF0E552E552030EDB50146E156A4F
:10292000CA0E166E020E176EBB0E165E020E175AF8
:102930001650141802E1175015184EE10201045107
:10294000146E156A153404E214507708000E1554FD
:1029500005E2040EDB6A050EDB6A07D0200EF36E7B
:10296000040EF3CFDBFF050EDB6A080EDB90DB9471
:10297000DB96DB9ADB9CDB9EDBCFE6FF030EDB50B6
:10298000E76E040EDBCF14F0050EDBCF15F0E75039
:102990001426000E15221450E66E43EC1EF0E5528C
:1029A000ED0BE552E710E76E080EE7CFDBFFDBCF5C
:1029B000E6FF030EDB50E76E040EDBCF14F0050ECE
:1029C000DBCF15F0E7501426000E15221450E66EEA
:1029D000C3EC1EF0E552E552020EE66E3AEC0EF044
:1029E000E552E4DD96D0E66AEADDE55292D03C0E8F
:1029F000E66E400EE66E06EC1AF0E552E5522FC286
:102A0000E6FF74EC1AF0E552350EE66E400EE66E07
:102A100006EC1AF0E552E55230C2E6FF74EC1AF00B
:102A2000E5522F0EE66E400EE66E06EC1AF0E55209
:102A3000E55231C2E6FF74EC1AF0E552B7DD69D019
:102A40002A0EE66E400EE66E06EC1AF0E552E552EE
:102A500000C2E6FF33EC1AF0E552260EE66E400E99
:102A6000E66E06EC1AF0E552E55201C2E6FF74ECA0
:102A70001AF0E552220EE66E400EE66E06EC1AF0F3
:102A8000E552E55202C2E6FF74EC1AF0E5521E0E62
:102A9000E66E400EE66E06EC1AF0E552E55203C211
:102AA000E6FF74EC1AF0E5521A0EE66E400EE66E82
:102AB00006EC1AF0E552E55204C2E6FF33EC1AF0D8
:102AC000E552160EE66E400EE66E06EC1AF0E55282
:102AD000E55205C2E6FF33EC1AF0E552120EE66E3F
:102AE000400EE66E06EC1AF0E552E55206C2E6FF2D
:102AF00033EC1AF0E5525ADD0CD080EC3EF0000EBB
:102B0000E66E030EE66EE8EC19F0E552E5524EDD96
:102B100000D0090EE15C02E2E16AE552E16EE552A5
:062B2000E7CFD9FF12000F
:0A2B2600010E0201AB6FAC6B02015F
:102B30000051146E156AD890155004E61A0E145CF4
:102B4000000E155827E3965101E024D098511FE05C
:102B5000A7EC12F00201986BAB07000EAC5BAC3532
:102B600004E2AB510008000EAC5511E349B506D0A4
:102B7000040EE66E2DEC0EF0E55205D0040EE66E66
:102B80003AEC0EF0E5520A0E0201AB6FAC6B8FEC23
:102B900013F0CDD7040EE66E3AEC0EF0E5521200BB
:102BA000D9CFE6FFE1CFD9FF020EE126020198510D
:102BB0003DE0AA3504E2A9510008000EAA550CE236
:102BC000AD51010B03E1A907000EAA5BA951AA119F
:102BD00002E100C237F22AD00A0E375D03E2DE6A54
:102BE000DD6A04D00A0E375DDE6EDD6A4B0E005DD5
:102BF00002E2A969AA6B0051146E156ADECF16F0C5
:102C0000DDCF17F015501718E8AE02D0173404D0F6
:102C10001650145C1750155802E2A969AA6B0A0EE7
:102C20003725D880005502E2A969AA6B020EE15C43
:102C300002E2E16AE552E16EE552E7CFD9FF120008
:102C4000140E0201AB6FAC6B020EE66EE66A0CEC82
:102C50000AF0E552E5528FEC13F0020196510FE0B5
:102C600080A80CD0AB07000EAC5BAB51AC1105E1FA
:102C7000010EA56F020EAB6FAC6B01D0A56B965128
:102C8000E3E18050100BE0E01200D9CFE6FFE1CF86
:102C9000D9FF020EE126F29E2AEC0BF0190EE66E29
:102CA000E66A3C0EE66EBDEC20F0E552E552E552D8
:102CB00036EC21F0530EE66E31EC22F0E552310E87
:102CC000E66ED7EC21F0E552840EE66E68EC22F059
:102CD000E5520201CA390F0B010BE8B0BD80E8A034
:102CE000BD90FE0EE66E4DEC22F0E5524E0ECB6E20
:102CF000100EDF6EDF5009E0DF50EA6A960FE96ED2
:102D0000020EEA22EF6ADF06F5D70201010E966F86
:102D1000496B2E0EE66E3AEC0EF0E55239EC0BF0F4
:102D20000201770E366F36C235F236C234F257ECF6
:102D30001EF0F28CF28E040EE66E2DEC0EF0E552D3
:102D4000010EE66EE66A0CEC0AF0E552E552C2ECC2
:102D50001DF002012F6B306B316B9C5102E003ECD4
:102D600018F002013769010EE66EE66A0CEC0AF013
:102D7000E552E552D0EC00F0B2EC02F0010EE66E46
:102D8000DFEC12F0E5520201010E066F06C205F2F9
:102D9000A66B010E046F04C200F2800EE66E3AECE0
:102DA0000EF0E552F29A2E0EE66E3AEC0EF0E55277
:102DB000040EE66E2DEC0EF0E55202019C5105E08A
:102DC000200EE66E2DEC0EF0E55239EC0BF0020110
:102DD0003769F28E35DF57EC1EF0A5DE0201965101
:102DE00001E0D7D7AB6BAC6BAF6BB06BB16BB26BB9
:102DF000100EA76FA86BA969AA6B1E0E065D02E3F1
:102E0000000E01D0010EA16F80A8EDD0000EE66E7D
:102E1000E66A15EC22F0E552E552F294F28AE2EC11
:102E20000DF0000E02011B6F1C6B196F1A6BCCECBE
:102E300006F0000E0201E76ECB19E8AE02D0CB35EA
:102E400003D0E750D880CB5501E2F3D71AEC01F05C
:102E500028EC03F0F29ACCEC06F057EC1EF0E6EC0E
:102E600006F00201965120E097511EE0AF510F0B82
:102E700003E1AB2B000EAC23C80EACAF02D0D89050
:102E800003D0AB5D000EAC590EE2010EA56F2E0E05
:102E9000E66E3AEC0EF0E5520201036B03C202F259
:102EA00003C201F271D09FD0975110E00051146E0F
:102EB000156A153404E214501A08000E155406E37E
:102EC000010EDB06DB50000801E25ED0965118E1EE
:102ED00097510AE00051146E156A153404E214503B
:102EE0001A08000E15540CE2975135E10051166E88
:102EF000176A173404E216502208000E17542BE309
:102F0000020E0201CB27100E0201A76FA86BA96960
:102F1000AA6B39EC0BF0000E0201256F266B236FB4
:102F2000246B216F226B965104E08050100B01E05E
:102F30005AD02E0EE66E3AEC0EF0E552510EE66EC9
:102F40003AEC0EF0E552080EE66E2DEC0EF0E5526E
:102F50008FEC13F03BD0975108E14A694B6B8FEC33
:102F600013F0010E0201AD6FAE6B010E976FA56BF2
:102F7000AB6BAC6BDE52640EDD6E080EE66E2DECB4
:102F80000EF0E5521EEC0DF002015E6B5F6B606BA4
:102F9000616B06DE0201A83504E2A7510008000EAD
:102FA000A85504E2A707000EA85B04D034EC08F093
:102FB00088EC11F007C20DF208C20EF209C20FF23E
:102FC0000AC210F20BC211F20CC212F2F7EC11F0AD
:102FD000A7EC12F054EC0CF00201A751A81102E189
:102FE00047EC0EF011D7800EE66E3AEC0EF0E5528B
:102FF000D9D6020EE15C02E2E16AE552E16EE552E9
:06300000E7CFD9FF12002A
:0A300600D9CFE6FFE1CFD9FFE65273
:10301000020EE66EE66A0CEC0AF0E552E552020199
:103020005E6B5F6B0201606B616B0201626B636BD5
:10303000DF6A100EDF5C24E2A70EE66E4DEC1DF099
:10304000E552080B01E1F8D703EC1EF0020127510D
:1030500002015E270201285102015F2302012B5168
:103060000201602702012C51020161230201295152
:103070000201622702012A5102016323DF2AD9D704
:10308000040EE66E080E0201156A5E25146E5F518D
:10309000152214C0E6FF15C0E6FF73EC0AF0E552F6
:1030A000E552E552F3CF5EF2F4CF5FF2040EE66E26
:1030B000080E0201156A6025146E6151152214C0B4
:1030C000E6FF15C0E6FF73EC0AF0E552E552E55263
:1030D000F3CF60F2F4CF61F2040EE66E080E020147
:1030E000156A6225146E6351152214C0E6FF15C0DF
:1030F000E6FF73EC0AF0E552E552E552F3CF62F2D7
:10310000F4CF63F20201D8805F5104E79D0E5E5D4B
:10311000FF0E5F5904E29D0E146E15680FD05F35E7
:1031200004E25E516308000E5F5504E2630E146E04
:10313000156A04D05EC214F05FC215F014C02FF2FD
:103140000201D880615104E79D0E605DFF0E615958
:1031500004E29D0E146E15680FD0613504E26051D3
:103160006308000E615504E2630E146E156A04D004
:1031700060C214F061C215F014C030F262C216F0E1
:1031800063C217F0000E165E040E175AD88017504F
:1031900004E79D0E165CFF0E175804E29D0E146E98
:1031A00015681BD062C218F063C219F0000E185ED9
:1031B000040E195A193404E218506308000E195409
:1031C00004E2630E146E156A08D062C214F063C282
:1031D00015F0000E145E040E155A14C031F2E552BB
:1031E000E552E7CFD9FF1200D9CFE6FFE1CFD9FFF3
:1031F000060EE12602019C5101E1D2D003EC1EF043
:1032000027C25EF228C25FF229C262F22AC263F2CA
:103210002BC260F22CC261F2D2C214F0156A14BE45
:103220001568145002015E5F15505F5BD3C214F045
:10323000156A14BE156814500201605F1550615B79
:10324000D0C214F0156A14BE156814500201625FF2
:103250001550635B040E635F0201A751A81114E1CE
:103260005EC278F25FC279F260C27AF261C27BF22A
:1032700062C27CF263C27DF232C27EF233C27FF25E
:1032800064C280F265C281F2050EE66E13C214F0CC
:1032900014C215F0F10E1502F3CF15F0FF0E140253
:1032A000F3501526F10E1402F3CF14F0F450152646
:1032B000100E1426000E152214C0E6FF15C0E6FFFE
:1032C00073EC0AF0E552E552E552F35002015E5FFD
:1032D000F4505F5B02012D6B02015F3504E25E5129
:1032E0000A08000E5F5503E202012D690CD00A0E98
:1032F0005FAF02D0D89003D05E5D000E5F5903E24D
:103300000201010E2D6F0201606D611F000E61232D
:10331000050EE66E15C214F016C215F0F10E150278
:10332000F3CF15F0FF0E1402F3501526F10E140220
:10333000F3CF14F0F4501526100E1426000E1522AB
:1033400014C0E6FF15C0E6FF73EC0AF0E552E55243
:10335000E552F3500201605FF450615B02011B51C2
:103360000201605F02011C510201615B02012E6BD0
:103370000201613504E260510A08000E615503E262
:1033800002012E690CD00A0E61AF02D0D89003D092
:10339000605D000E615903E20201010E2E6F0ED036
:1033A0000201646B656B0201786B796B7A6B7B6BE6
:1033B0007C6B7D6B7E6B7F6B806B816B060EE15C43
:1033C00002E2E16AE552E16EE552E7CFD9FF120071
:1033D000D9CFE6FFE1CFD9FFFD0EDBCFE9FFFE0E2F
:1033E000DBCFEAFFEF500EE0FD0EDBCFE9FFDB2A7B
:1033F000FE0EDBCFEAFF01E3DB2AEF50E66E26D8B4
:10340000E552EAD7E552E7CFD9FF1200D9CFE6FF60
:10341000E1CFD9FFFD0EDBCFF6FFFE0EDBCFF7FFCE
:103420000800F5500FE0FD0EDBCFF6FFDB2AFE0EA5
:10343000DBCFF7FF01E3DB2A0800F550E66E06D884
:10344000E552E8D7E552E7CFD9FF1200D9CFE6FF22
:10345000E1CFD9FF9EA8FED7FE0EDB50AD6EE55240
:10346000E7CFD9FF1200D9CFE6FFE1CFD9FF640E35
:10347000146E14C00EF0FE0EDBCF09F0BBEC22F090
:103480000950300FE66EE2DFE552640E146E14C090
:103490000EF0FE0EDBCF09F0BBEC22F0FE0E05C0F5
:1034A000DBFF0A0E146E14C00EF0FE0EDBCF09F027
:1034B000BBEC22F00950300FE66EC8DFE5520A0E71
:1034C000146E14C00EF0FE0EDBCF09F0BBEC22F040
:1034D000FE0E05C0DBFFDB50300FE66EB7DFE552B6
:1034E000E552E7CFD9FF1200D9CFE6FFE1CFD9FFF0
:1034F000FE0EDBCF14F014340BE32D0EE66EA6DFC8
:10350000E552FE0EDB50FF0DFE0EF3CFDBFF04D0C5
:103510002B0EE66E9BDFE552FE0EDBCFE6FFA3DF50
:10352000E552E552E7CFD9FF12000D0EE66E8EDFB1
:10353000E5520A0EE66E8ADFE5521200D9CFE6FFA9
:10354000E1CFD9FFFE0EDB50090808E2FE0EDB508A
:10355000410FF60FE66E7ADFE55206D0FE0EDB5025
:10356000300FE66E73DFE552E552E7CFD9FF120068
:10357000D9CFE6FFE1CFD9FFFE0EDB380F0BE66EA9
:10358000DDDFE552FE0EDB500F0BE66ED7DFE552B6
:10359000E552E7CFD9FF1200D9CFE6FFE1CFD9FF3F
:1035A000FD0EDBCF14F0FE0EDBCF15F015C014F0CE
:1035B000156A1450E66EDCDFE552FD0EDBCFE6FF48
:1035C000D7DFE552E552E7CFD9FF1200D9CFE6FFAA
:1035D000E1CFD9FFE6529EAA13D0AB50020B03E114
:1035E000AB50040B05E0AB98AB88AE50DF6E08D053
:1035F000AE50DF6EDFCFE6FF29DFE552DF5002D0AD
:10360000000E00D0E552E552E7CFD9FF1200D9CF26
:10361000E6FFE1CFD9FF020EE126010EDB6AD6DF1D
:10362000DF6E300EDF5CFBE3DF503908F8E3300E6D
:10363000DF5CE76E010EE7CFDBFF0A0E146E010EB2
:10364000DBCFE7FF1450E702010EF3CFDBFFBEDF55
:10365000DF6E300EDF5CFBE3DF503908F8E3300E3D
:10366000DF5C146E010EDBCFE7FF1450E726010E7E
:10367000E7CFDBFFDB50146E020EE15C03E200D00B
:10368000E16AE552E16E1450E552E7CFD9FF12002E
:10369000D9CFE6FFE1CFD9FF020EE126010EDB6AAA
:1036A00002019A6B93DFDF6E300EDF5C03E3DF50C5
:1036B000390803E22D0EDF5CF5E12D0EDF5C0BE136
:1036C0000201010E9A6F82DFDF6E300EDF5CFBE3DA
:1036D000DF503908F8E3300EDF5CE76E010EE7CF0C
:1036E000DBFF0A0E146E010EDBCFE7FF1450E7027A
:1036F000010EF3CFDBFF6ADFDF6E300EDF5CFBE332
:10370000DF503908F8E3300EDF5C146E010EDBCFBA
:10371000E7FF1450E726010EE7CFDBFF02019A51C5
:1037200006E0010EDB50FF0D010EF3CFDBFF010EB3
:10373000DB50146E020EE15C03E200D0E16AE55258
:0C374000E16E1450E552E7CFD9FF1200F3
:04374C00DACFE4FFED
:10375000E2CFDAFFE65200D0E552E5CFDAFF110002
:10376000DACFE4FFE2CFDAFFE9CFE4FFEACFE4FF0C
:10377000E6529EA20DD09E920201995103E04E0E98
:10378000CB6E3AD1010E996FEA0ECB6E00019E6BA3
:103790009EA448D1CC6A9E920201996BBECFA2F042
:1037A000BFCFA3F00001A46BA20EE96E000EEA6E7B
:1037B000020EEB50A119E8AE02D0A13506D09F5100
:1037C000EE5CA051EE58A151EE5805E2FF0E9F5F4E
:1037D000A05B000EA15B9F0EE96E000EEA6EEE503C
:1037E000A25D236EEE50A359246EEE50A459256EAF
:1037F000010E1F0B23C020F024C021F025C022F0B1
:1038000006E0D890223221322032E806FAE120C0C8
:10381000A5F021C0A6F0A2C09FF0A3C0A0F0A4C054
:10382000A1F0BD704E0ECB6EBD50010B206E02019B
:10383000CA390F0B010B201821E000019E5101E154
:103840001CD0020E9E5D05E1A5C092F0A6C093F0CB
:1038500014D0040E9E5D05E1A5C096F0A6C097F0B9
:103860000CD0060E9E5D08E1A5C09AF0A6C09BF0A4
:103870009A510201056F01D0BFD0D1D000019E0541
:1038800005E1A5C090F0A6C091F0C9D0030E9E5DE1
:1038900005E1A5C094F0A6C095F0C1D0050E9E5DCF
:1038A00001E09DD0A5C098F0A6C099F091C020F08D
:1038B000216A010E201801E1215001E08FD093C050
:1038C00022F0236A010E221801E1235001E086D084
:1038D00095C024F0256A010E241801E1255001E06D
:1038E0007DD097C026F0276A010E261801E12750E7
:1038F00075E199C028F0296A010E281801E12950C4
:103900006DE10201CA417F0B010B28E000019451D7
:103910000201006FFF0E00019015226E236A34C26F
:1039200024F0256A24BE25682450225C206E255090
:103930002358216E20C001F2FF0E9215226E236AD9
:1039400035C224F0256A24BE25682450225C206EEE
:1039500025502358216E20C002F227D0000190513B
:103960000201006FFF0E00019215226E236A34C21D
:1039700024F0256A24BE25682450225C206E255040
:103980002358216E20C001F2FF0E9415226E236A87
:1039900035C224F0256A24BE25682450225C206E9E
:1039A00025502358216E20C002F2FF0E9615226E7C
:1039B000236A36C224F0256A24BE25682450225C7E
:1039C000206E25502358216E20C003F29851020129
:1039D000046F0201966B010E986F21D00DD0070E77
:1039E0009E5D0AE1A5C09CF0A6C09DF09C5102011D
:1039F000066F00019E6913D00201986B010E966F4D
:103A00000201B52B000EB623B72300019E69020107
:103A1000CA390F0B010B02E0BD8001D0BD909E940E
:103A200000019E2BF250040B06E0F250200B03E045
:103A3000F2940201CB07E552E5CFEAFFE5CFE9FFBB
:063A4000E5CFDAFF1100E2
:0A3A4600D9CFE6FFE1CFD9FFE65229
:103A50009498829A080EDF6EDF501AE08296FE0E6E
:103A6000DBAE02D0828801D08298DBCFF3FFF39ED9
:103A7000F346F3CFDBFF010EE66EC9EC22F0E55210
:103A80008286010EE66EC9EC22F0E552DF06E4D72D
:103A9000E552E552E7CFD9FF1200D9CFE6FFE1CFDB
:103AA000D9FFE652FE0EDBCFE6FFCDDFE55294886C
:103AB0000BD8DF6EFE0EDBAC828ADF5000D0E55201
:103AC000E552E7CFD9FF1200D9CFE6FFE1CFD9FF0A
:103AD000020EE126080EDF6EDF5016E08296010E20
:103AE000E66EC9EC22F0E552010EDBCFF3FFF39E48
:103AF000F346F3CFDBFF82B8DB808286E66EC9EC4B
:103B000022F0E552DF06E8D7010EDB50146E020EFC
:103B1000E15C03E200D0E16AE552E16E1450E55247
:103B2000E7CFD9FF1200D9CFE6FFE1CFD9FFE652A8
:103B3000FD0EDBCFE6FF87DFE552080EDF6EDF50BC
:103B40001AE08296FE0EDBAE02D0828801D0829807
:103B5000DBCFF3FFF39EF346F3CFDBFF010EE66E00
:103B6000C9EC22F0E5528286010EE66EC9EC22F025
:103B7000E552DF06E4D7828A9488E552E552E7CF22
:103B8000D9FF1200828A210EE66E4A0EE66ECBDF66
:103B9000E552E5528F0EE66E80DFE552E86E3A0E92
:103BA000E85C30E1200EE66EC70EE66EBCDFE55243
:103BB000E552220EE66EE66AB6DFE552E552300EB9
:103BC000E66E480EE66EAFDFE552E552340EE66E65
:103BD000E66AA9DFE552E552350EE66EFC0EE66EAA
:103BE000A2DFE552E552360EE66EE6689CDFE5524E
:103BF000E552380EE66EE66A96DFE552E5520201BE
:103C0000010E9C6F1200D9CFE6FFE1CFD9FFE6523B
:103C1000A70EE66E42DFE552DF6EE80EE66E3DDF90
:103C2000E5520201276F286B4FDF146E156A14C02E
:103C300015F0146A1450020127131550281344DF9D
:103C40000201296F2A6B40DF146E156A14C015F04B
:103C5000146A14500201291315502A1335DF02018A
:103C60002B6F2C6B31DF146E156A14C015F0146ABB
:103C7000145002012B1315502C13828AE552E55281
:063C8000E7CFD9FF12009E
:0A3C8600D9CFE6FFE1CFD9FFE652E7
:103C9000FE0EDB50A96EA69EA680A850DF6EA66A17
:103CA000DF5000D0E552E552E7CFD9FF1200D9CF5F
:103CB000E6FFE1CFD9FF050EE12602010451146EA3
:103CC000156A153404E214507708000E155408E202
:103CD000200EF36E030EF3CFDBFF040EDB6A04D07D
:103CE000030EDB6A040EDB6ABB0EDE6E020EDD6EB7
:103CF000DECF14F0DDCF15F0D60ED8801454020EAE
:103D000015541AE3030EDBCF14F0DB2A040EDBCFCD
:103D100015F001E3DB2A1450E66EB5DFE552E66EDE
:103D2000DECFE9FFDDCFEAFFE552E750EF6EDF2A95
:103D3000010E01E3DB2ADCD7CCC2B8F2020E02018D
:103D4000E76ECB19E8AE02D0E73402D0E750CB5D86
:103D500003E2020ECB6F0DD0140EE76ECB19E8AE66
:103D600002D0CB3503D0E750D880CB5502E2140EF9
:103D7000CB6F050EE15C02E2E16AE552E16EE552CD
:103D8000E7CFD9FF1200D9CFE6FFE1CFD9FF020E6E
:103D9000E126FE0EDBCFE6FF76DFE552DF6EFD0E9D
:103DA000DB50DF5C1DE0FD0EDB50A86EFE0EDB502D
:103DB000A96EA69EA684F250800B01E0010EE76E6C
:103DC000010EE7CFDBFFF29E550EA76EAA0EA76E7F
:103DD000A682A6B2FED7010EDB5001E0F28EA694B9
:103DE000020EE15C02E2E16AE552E16EE552E7CFE4
:103DF000D9FF1200D9CFE6FFE1CFD9FF050EE126AA
:103E0000FE0EDB0405E1030EDB6A040EDB6A07D05D
:103E1000200EF36E030EF3CFDBFF040EDB6ABB0E46
:103E2000DE6E020EDD6EDECF14F0DDCF15F0D60EA5
:103E3000D8801454020E155419E3DFCFE9FFDF2AAE
:103E4000010EDBCFEAFF01E3DB2AEF50E66E030E43
:103E5000DBCF14F0DB2A040EDBCF15F001E3DB2A05
:103E60001450E66E90DFE552E552DDD7050EE15CB9
:103E700002E2E16AE552E16EE552E7CFD9FF1200B6
:103E8000006A0EAE49EF1FF00D6C0E1EE86A0E229E
:103E9000001E09AE51EF1FF0086C091EE86A0922E6
:103EA000001E97EC22F009BE61EF1FF000AE000C7F
:103EB000086C091EE86A0922046C051EE86A0522DE
:103EC000000C00BE58EF1FF00188FF0C006A0EAE18
:103ED00071EF1FF00C6C0D1E0E1EE86A0D220E22F3
:103EE000001E09AE7BEF1FF0076C081E091EE86A72
:103EF00008220922001EF8EC21F009BE8EEF1FF007
:103F000000AE000C076C081E091EE86A0822092290
:103F1000036C041E051E04220522000C00BE82EF65
:103F20001FF00188FF0C09C013F008C012F0085000
:103F30000D02F4CF07F0F3CF06F009500E02F4CFD4
:103F400009F0F3CF08F00D02F3500726F4500822D1
:103F5000E86A092212500E02F3500726F450082294
:103F6000E86A09220EAEB9EF1FF01250085E135036
:103F7000095A13AE000C0D50085E0E50095A000C81
:103F800009C013F008C012F007C011F007500C026E
:103F9000F4CF05F0F3CF04F008500D02F4CF07F092
:103FA000F3CF06F00C02F3500526F4500622E86A1F
:103FB000072211500D02F3500526F4500622E86A3C
:103FC000072209500C02F3500626F450072209502C
:103FD0000D02086AE86A0822F3500726F450082206
:103FE00011500E02F3500626F4500722096AE86ABF
:103FF0000822092212500E02F3500726F45008221C
:10400000E86A092213500E02F3500826F4500922E0
:02401000000CA2
:0E4012002C373A002C363A002C353A002C5947
:104020003A002C4E3A002C523A000D0A543A002025
:104030005961773A0020507463683A000D0A4E6562
:10404000757472616C20526F6C6C3A00203D2000D8
:104050000D0A526567697374657220000D0A50611C
:1040600072616D65746572206C69737420666F721D
:10407000207365742023000D0A53656C65637465B5
:104080006420706172616D65746572207365743A45
:1040900020005468726F74746C6520436800534D3F
:1040A000443530300D0A00424D503038350D0A008D
:1040B0004261726F2000436F6D7061737320006EF8
:1040C0006F7420617661696C61626C650D0A004FE6
:0C40D0004E4C494E450D0A000D0A3E0002
:0440DC001E0EF66E50
:1040E000000EF76E000EF86E01010900F550F26F38
:1040F0000900F550F36F03E1F26701D03DD00900EC
:10410000F550ED6F0900F550EE6F0900F550EF6FB7
:1041100009000900F550E96E0900F550EA6E090042
:1041200009000900F550F06F0900F550F16F090022
:104130000900F6CFF4F1F7CFF5F1F8CFF6F1EDC1C4
:10414000F6FFEEC1F7FFEFC1F8FF0101F05302E106
:10415000F15307E00900F550EE6EF007F8E2F107C1
:10416000F9D7F4C1F6FFF5C1F7FFF6C1F8FF010179
:0A417000F207000EF35BBFD7120048
:06417A00D9CFE6FFDACF09
:10418000E6FFE1CFD9FFE2CFDAFFAC6AAB6AFD0E02
:10419000DBB0AC88DBA202D0AC8CAB8CDBB4AC8ED9
:1041A000DBA602D0AB8801D0AB8ADBB8AC849E988A
:1041B000DBBAAC86DBAC02D09D8A01D09D9A9E9A78
:1041C000DBAE02D09D8801D09D98FB0EDB50AF6E18
:1041D000FB0EFC0EDBCF15F015C014F0156A145061
:1041E000B06EAC8AAB8E949C948EAC50100B04E0F5
:1041F000AC50800B01E1948CE552E5CFDAFFE7CFBC
:04420000D9FF1200D0
:0C420400D9CFE6FFE1CFD9FF030EE12681
:10421000FD0EDB50E8B0C188E8A0C198FE0EDB506F
:10422000080DF350E66E80EC22F0E552E4EC22F04B
:1042300007EC00F0000901E0FBD7D4EC22F0F3CF4B
:10424000DEFFF4CFDDFFDECF14F0DDCF15F014C0BC
:10425000F3FF15C0F4FF030EE15C03E200D0E16A56
:10426000E552E16EE552E7CFD9FF12000A0EE66E85
:10427000040EE66EAB0EE66E7AEC21F0E552E552E6
:04428000E5521200F1
:0C42840006500B02F3CF02F0F4CF03F061
:104290000C02F3500326000EF420046E06500D02AB
:1042A000F3500426000EF420056E06500E02F35063
:1042B000052607500B02F3500326F4500422000E8B
:1042C000052207500C02F3500426F4500522075033
:1042D0000D02F350052608500B02F3500426F4504B
:1042E000052208500C02F350052609500B02F3502A
:0442F000052612008D
:0C42F400D9CFE6FFDACFE6FFE1CFD9FF1B
:10430000E2CFDAFFC26AC06AFC0EDB407F0B3C0BD7
:10431000C26EFB0EDBCFE6FFFC0EDB38F00B300B82
:10432000E552E710C16EFD0EDB50040DF350380B63
:10433000156EFD0EDB380F0B070B146EFD0EDB50F8
:10434000800B14101510C06EFC0EDBAE03D09E9CCB
:104350009D8CF28CC280E552E5CFDAFFE7CFD9FF22
:02436000120049
:0E436200F36AF46AFF0EE124E96EFF0EE2201A
:10437000EA6EED6607D0600EEF6404D07B0EEF604E
:1043800001D0F32A1200FF0EE124E96EFF0EE220B5
:10439000EA6EEDCFF4FFEFCFF3FFF46607D0600EC7
:0E43A000F36404D07B0EF36001D0F39A120098
:0243AE00D9CF65
:1043B000E6FFDACFE6FFE1CFD9FFE2CFDAFFFD0E6D
:1043C000DB507E0BCD6EFD0EDBAC02D0CD8E01D06E
:1043D000CD9ECF6ACE6A9E90DBAE02D09D8001D08A
:1043E0009D90CD80E552E5CFDAFFE7CFD9FF1200EF
:1043F000056A046A036A180EE76ED8900736083615
:1044000009360336043605360C50035C0D5004584B
:104410000E50055807E30C50035E0D50045A0E5021
:0A442000055A072AE72EEAD712001A
:06442A00D9CFE6FFDACF56
:10443000E6FFE1CFD9FFE2CFDAFFE652E652FC0E0B
:10444000DBCFDEFFDBCFDDFF010EDB50D76EDF50B1
:10445000D66EE552E552E552E5CFDAFFE7CFD9FF58
:02446000120048
:0E446200D9CFE6FFDACFE6FFE1CFD9FFE2CFF8
:10447000DAFFFD0EDB507F0BD56ED76AD66AF29459
:10448000FD0EDBAE02D0F28A01D0F29AD58EE55253
:0A449000E5CFDAFFE7CFD9FF1200F5
:06449A00D9CFE6FFDACFE6
:1044A000E6FFE1CFD9FFE2CFDAFFFD0EDB50FB0BD9
:1044B000CA6ECC6A9E92FD0EDBAE02D09D8201D008
:1044C0009D92CA84E552E5CFDAFFE7CFD9FF12000B
:1044D000D9CFE6FFDACFE6FFE1CFD9FFE2CFDAFFAF
:1044E000FD0EDB500F0BBD6EFD0EDBAE02D09E94B9
:1044F0009D849484E552E5CFDAFFE7CFD9FF12001F
:10450000D9CFE6FFDACFE6FFE1CFD9FFE2CFDAFF7E
:10451000C30EC214146EFD0EDB407F0B3C0B141057
:0E452000C26EE552E5CFDAFFE7CFD9FF1200F9
:02452E00056A1C
:10453000046A100EE76ED890083609360436053640
:104540000D50045C0E50055805E30D50045E0E50EE
:0A455000055A082AE72EF0D71200E2
:06455A0015EE00F025EE55
:1045600000F0F86A019C6EEC20F003EC00F045ECE2
:0645700016F0FBD712005B
:0A457600056A080EE76ED8900936BA
:1045800005360E50055C02E3056E092AE72EF7D7C3
:02459000120017
:0E459200FF0EE350E84E1200000000D000D0F3
:0845A00000D0E82EFAD712004A
:0845A800C450176E166AC350DF
:0A45B0001610F36E17C0F4FF12009E
:0645BA0000EE00F00F0E00
:0845C000EE6AEA62FDD7120069
:0445C800C282120099
:0445CC001204D80DF0
:1045D000101204D80210142806320600042B04001E
:0845E0000800140000040504AA
:0845E8000D0A436F6D6D616E59
:1045F00064733A0D0A4C2E2E2E4C69737420706130
:1046000072616D0D0A4D2E2E2E4D6F6469667920F4
:10461000706172616D0D0A532E2E2E53686F7720D4
:1046200073657475700D0A4E2E2E2E4E657574725C
:10463000616C2076616C7565730D0A522E2E2E53B7
:10464000686F77207265636569766572206368615B
:104650006E6E656C730D0A422E2E2E737461727429
:0F46600020426F6F742D4C6F616465720D0A00FC
:01466F000D3D
:104670000A5541565020332E31356D335F3138663F
:1046800020436F707972696768742028632920322B
:104690003030372D3920472E4B2E204567616E2054
:1046A0002620572E204D616872696E6765720D0A6B
:1046B00054686973206973204652454520534F461C
:1046C00054574152452C207365652047504C206C4F
:1046D0006963656E7365210D0A000D0A55415650D8
:1046E0002056332E31356D335F3138662072656167
:1046F00064792E0D0A44656275673A204F46460D6F
:104700000A52783A2050504D204F6464204368612B
:104710006E6E656C0D0A4553433A2050504D0D0A9C
:104720004779726F733A20414458525333303020E6
:1047300028596177292C20494447333030202852AA
:104740006F6C6C2F5069746368290D0A416363654F
:0C4750006C65726F6D65746572732000FB
:107D00007D0EFA6E1FD0F926420C6F0C6F0C740CAE
:107D1000200C320C2E0C300C000C450C520C520C6A
:107D2000000C430C530C550C4D0C000C4F0C4B0C21
:107D3000000C530C550C430C430C450C530C530CCA
:107D4000210C000C0001F29EA66AD56AA40E946E66
:107D5000936A190EAF6E240EAC6ED86A900EAB6E9D
:107D6000816A010ED0EC3FF0106AD86A00EE60F034
:107D7000200EBFEC3FF09EAAFED7AE50ABB256D05D
:107D8000ABB454D0EF6E3A08D8B4DAEF3EF0EF3827
:107D90000F0BFD0FD8B4DAEF3EF0FF0FD8B4DAEFD7
:107DA0003EF00A0EEF5CD8B4DCEF3EF0FD0FD8A435
:107DB00016EF3FF0E92ADFD700EE60F0EF503A0807
:107DC000D8A416EF3FF0E92A186AB6EC3FF0166E19
:107DD0004008D8A016EF3FF0B6EC3FF0126EB6ECBC
:107DE0003FF0116EC00E1114136E3F0E1114146E7D
:107DF000B6EC3FF0000FD8B403EF3FF0FF0FD8B45C
:107E000069EF3FF031D010EE60F016C019F0B6EC1B
:107E10003FF0E66E192EFBD7B6EC3FF01850D8B401
:107E20001CEF3FF01B0ED0EC3FF09FD7AB98130E2A
:107E3000D0EC3FF0AB8899D7280EBFEC3FF0125042
:107E4000D8A42CEF3FF01150D8A42CEF3FF050EC09
:107E50003FF038EC3FF008D07D0E125CD8B034EF24
:107E60003FF038EC3FF000D0250ED0EC3FF07DD74E
:107E70009EEC3FF000EE60F010EE20F01450000F8A
:107E8000D8B447EF3FF0196EE652192EFDD716C051
:107E900019F0EE50E66E192EFCD780EC3FF0120080
:107EA00060C01CF061C01DF062C01EF063C01FF016
:107EB000EF0E616ED8907D0E1A6E1A321AC062F003
:107EC000000E1A6E1A321AC060F0F00E636E108047
:107ED0001200CFEC3FF010A00FD0116A126A136AA3
:107EE0009EEC3FF01CC020F01DC021F01EC022F00F
:107EF0001FC023F080EC3FF02B0ED0EC3FF0FFD7FB
:107F0000AAEC3FF0940E97EC3FF00A0000EE20F050
:107F1000020E1A6E200E196EEE50F56E0F00192E1D
:107F2000FBD7840E97EC3FF01A2EF4D71200A66E02
:107F3000550EA76EAA0EA76EA6821200AAEC3FF0FD
:107F400000EE20F0400E196E0900F550EE6E192E6D
:107F5000FBD71200F86A12C0F7FF13C0F6FF120039
:107F6000300EEF5CEFBCF90FE92A1200B0EC3FF0E5
:107F7000176E173AB0EC3FF01710182612001B6E60
:107F800082928296080E196E1B368298D8B082882B
:107F900082868296192EF8D7828282921200250E4E
:107FA000196E195083EC3EF0000FD8A4DFEF3FF0BC
:107FB0000D0EE4EC3FF00A0EE4EC3FF01200E4ECAE
:107FC0003FF0192A192AEDD79EA8FED7AD6E1200F0
:107FD00000000000000000000000000000000000A1
:107FE0000000000000000000000000000000000091
:107FF000000000000000000000000000000012006F
:020000040030CA
:0100010002FC
:010002001EDF
:010003001EDE
:0100050001F9
:010006008178
:00000001FF
