:020000040000FA
:0600000010EF1EF01200DB
:020006001200E6
:0600080040EF18F01200A9
:02000E00C250DE
:08001000020B01E0010E1200D9
:0600180036EF18F01200A3
:02001E000300DD
:10002000AA3D000000020000E9000000AE3C000014
:1000300000010000FC000000923C0000870000006E
:040040001C000000A0
:0C004400030119510301132703011A5195
:1000500003011423030174515FE18BC01EF0000102
:100060001E6C1F6A1EBE1F681EC01FF01E6A0301A1
:1000700014511F18E8AE02D01F3404D01E50135D77
:100080001F5014590AE28BC013F3136D146B13BF86
:10009000146913C314F3136B1ED08BC020F0216AB4
:1000A00020BE216820C021F0206A21501419E8AE3A
:1000B00002D0143504D01351205C1451215809E2A8
:1000C0008BC013F3146B13BF146913C314F3136BB6
:1000D00002D014C314F329C31EF01F6A1EBE1F688A
:1000E0001E5013271F501423800E141507E0010E15
:1000F0001325136F000E1421146F0ED0143504E273
:1001000013510008000E145505E2010E135F000E96
:10011000145B02D0136B146B120003011B5103011B
:10012000152703011C5103011623030174515FE1DC
:1001300090C01EF000011E6C1F6A1EBE1F681EC00C
:100140001FF01E6A030116511F18E8AE02D01F34BB
:1001500004D01E50155D1F5016590AE290C015F3C9
:10016000156D166B15BF166915C316F3156B1ED0EA
:1001700090C020F0216A20BE216820C021F0206AB2
:1001800021501619E8AE02D0163504D01551205C66
:100190001651215809E290C015F3166B15BF166968
:1001A00015C316F3156B02D016C316F32AC31EF03F
:1001B0001F6A1EBE1F681E5015271F501623800E73
:1001C000161507E0010E1525156F000E1621166F86
:1001D0000ED0163504E215510008000E165505E242
:1001E000010E155F000E165B02D0156B166B120028
:1001F000D9CFE6FFE1CFD9FF020EE12603C31EF0FF
:100200001F6A1EBE1F681E5003010B271F500C23C0
:1002100003016B5168E00A0E030132251E6E1F6A4E
:100220001EBE1F681EC0DEFF1FC0DDFF03C31EF021
:100230001F6A1EBE1F68DECF20F0DDCF21F02150E7
:100240001F18E8AE02D01F3404D01E50205C1F508F
:10025000215804E203014469456B45D00A0E325D22
:100260001E6E1F6A1EBE1F681EC0DEFF1FC0DDFFA0
:1002700003C31EF01F6A1EBE1F68DECF20F0DDCF55
:1002800021F01F502118E8AE02D0213404D02050B4
:100290001E5C21501F5804E203014469456B23D0C2
:1002A0000301473504E246511E08000E475506E299
:1002B0001E0E03010B5F000E0C5B15D0D88047515A
:1002C00004E7E20E465DFF0E475906E21E0E0301EB
:1002D0000B27000E0C2307D0465103010B5F0301CF
:1002E000475103010C5B03010B5103011727030165
:1002F0000C510301182395C01EF000011E6C1F6AEB
:100300001EBE1F681EC01FF01E6A030118511F1871
:10031000E8AE02D01F3404D01E50175D1F5018598C
:100320000AE295C017F3176D186B17BF186917C34A
:1003300018F3176B1ED095C020F0216A20BE2168EB
:1003400020C021F0206A21501819E8AE02D01835DB
:1003500004D01751205C1851215809E295C017F3B9
:10036000186B17BF186917C318F3176B02D018C39F
:1003700018F3020EE15C02E2E16AE552E16EE55239
:10038000E7CFD9FF1200010EE66E020EE66E9BEC7F
:100390001CF0E552E552F35003011927F4501A23DB
:1003A000010EE66EE66E9BEC1CF0E552E552F35052
:1003B00003011B27F4501C231200D9CFE6FFE1CF25
:1003C000D9FF020EE126010E03011925196F000E57
:1003D0001A211A6FD8901A331933010E03011B2505
:1003E0001B6F000E1C211C6FD8901C331B330301A4
:1003F0007451000866E20301195103011327030138
:100400001A510301142303011B5103011527030192
:100410001C51030116230301740552E1080E030168
:100420001327000E1423080E03011527000E1623B0
:1004300003016A5118E19EC01EF01F6A1EBE1F68AC
:10044000030113511E24136F14511F20146F9FC0FA
:100450001EF01F6A1EBE1F68030115511E24156F72
:1004600016511F20166F13C31EF014C31FF0040E85
:10047000D8901F321E32E804FBE11EC01DF31FC0DE
:100480001EF315C31EF016C31FF0040ED8901F32C2
:100490001E32E804FBE11EC01FF31FC020F303015E
:1004A000216B226B03012A6B2AC329F32AC315F39C
:1004B0000301166B15BF166915C313F316C314F3A6
:1004C0009DD003011D510301195F03011E5103015A
:1004D0001A5B03011F5103011B5F0301205103013C
:1004E0001C5B000196A13CD00301195103011B259F
:1004F0001E6E03011A5103011C211F6E1EC0DEFF78
:100500001FC0DDFF0301195103011B5F03011A51D5
:1005100003011C5BDECF19F3DDCF1AF30301D89082
:1005200019371A37030E0D6E0E6A19C308F01AC375
:1005300009F0B4EC1BF008C019F309C01AF3030169
:10054000D8901B371C37030E0D6E0E6A1BC308F0C4
:100550001CC309F0B4EC1BF008C01BF309C01CF36A
:10056000010EE66E03011F6A19251E6E1A511F2225
:100570001EC0E6FF1FC0E6FF52EC11F0E552E55247
:10058000E552F3CF07F3F4CF08F35CDD010EE66E1E
:1005900003011F6A1B251E6E1C511F221EC0E6FF91
:1005A0001FC0E6FF52EC11F0E552E552E552F3CFE1
:1005B00009F3F4CF0AF3B1DDE66A040EE66E9BECB4
:1005C0001CF0E552E552F3CF0BF3F4CF0CF303012B
:1005D000D8900C330B33D8900C330B3303012151DB
:1005E000221104E10BC321F30CC322F321510301B7
:1005F0000B5F0301225103010C5BFADD020EE15C8B
:1006000002E2E16AE552E16EE552E7CFD9FF12005E
:10061000D2EC16F0040EE66E87C022F0236A22BEEA
:100620002368030122500703F3CF20F0F4CF21F019
:100630000803F35000012126235003010703F35060
:100640000001212689C026F0276A26BE27680301FB
:10065000075103010D5D246E0E5103010855256EEF
:1006600024C008F025C009F026C00DF027C00EF008
:10067000DAEC1BF0205006241E6E215007201F6E5E
:10068000080E1E26000E1F221EC0E6FF1FC0E6FF3A
:1006900052EC11F0E552E552E552F3CF56F3F4CFA8
:1006A00057F3030174512AE1080EE66E88C020F06A
:1006B000216A20BE2168030120501303F3CF1EF0EE
:1006C000F4CF1FF01403F35000011F262150030143
:1006D0001303F35000011F26800E1E26000E1F225A
:1006E0001EC0E6FF1FC0E6FF52EC11F0E552E552D6
:1006F000E552F35003015627F450572301C31EF06F
:100700001F6A1EBE1F681E500301565F1F50575BB5
:10071000040EE66E8CC022F0236A22BE2368030119
:1007200022500903F3CF20F0F4CF21F00A03F35055
:1007300000012126235003010903F3500001212663
:100740008EC026F0276A26BE2768030109510301DF
:100750000F5D246E105103010A55256E24C008F068
:1007600025C009F026C00DF027C00EF0DAEC1BF012
:10077000205006241E6E215007201F6E080E1E26D4
:10078000000E1F221EC0E6FF1FC0E6FF52EC11F054
:10079000E552E552E552F3CF58F3F4CF59F3030194
:1007A00074512AE1080EE66E8DC020F0216A20BE49
:1007B0002168030120501503F3CF1EF0F4CF1FF082
:1007C0001603F35000011F26215003011503F350B7
:1007D00000011F26800E1E26000E1F221EC0E6FFEF
:1007E0001FC0E6FF52EC11F0E552E552E552F3501E
:1007F00003015827F450592302C31EF01F6A1EBE7E
:100800001F681E500301585F1F50595B040EE66EAF
:1008100091C022F0236A22BE2368030122500B03F9
:10082000F3CF20F0F4CF21F00C03F3500001212688
:10083000235003010B03F3500001212693C026F03F
:10084000276A26BE276803010B510301115D246E40
:10085000125103010C55256E24C008F025C009F083
:1008600026C00DF027C00EF0DAEC1BF02050062455
:100870001E6E215007201F6E080E1E26000E1F221E
:100880001EC0E6FF1FC0E6FF52EC11F0E552E55234
:10089000E552F3CF5AF3F4CF5BF3080EE66E92C045
:1008A00020F0216A20BE2168030120501703F3CFF6
:1008B0001EF0F4CF1FF01803F35000011F26215043
:1008C00003011703F35000011F26800E1E26000EA1
:1008D0001F221EC0E6FF1FC0E6FF52EC11F0E552DA
:1008E000E552E552F35003015A27F4505B2394C0BC
:1008F0001EF000011E6C1F6A1EBE1F6803015B51C3
:100900001F18E8AE02D01F3404D01E505A5D1F508D
:100910005B5907E294C05AF35A6D5B6B5ABF5B692F
:1009200018D094C020F0216A20BE216821505B19A4
:10093000E8AE02D05B3504D05A51205C5B5121589F
:1009400006E294C05AF35B6B5ABF5B6902D05BC38B
:100950005BF3030174512DE1000199512AE000017C
:10096000A05127E099C01EF01F6A1EBE1F6813C366
:1009700008F014C309F01EC00DF01FC00EF0B4EC57
:100980001BF008C05CF309C05DF3A0C01EF01F6A35
:100990001EBE1F6815C308F016C309F01EC00DF077
:1009A0001FC00EF0B4EC1BF008C05EF309C05FF38B
:1009B00007D0000E03015E6F5F6B03015C6F5D6B20
:0409C000CEEF12F074
:0C09C400D9CFE6FFE1CFD9FFFD0EDBCF5D
:1009D000E9FFFE0EDBCFEAFFEF5010E0FD0EDBCFAC
:1009E000E9FFFE0EDBCFEAFFEF50E66E13D8E552CB
:1009F000FD0EDB2AFE0E01E3DB2AE8D7E552E7CF46
:100A0000D9FF1200190EE66E010EE66EDBDFE5522D
:100A1000E5521200D9CFE6FFE1CFD9FF9EA8FED75D
:100A2000FE0EDB50AD6EE552E7CFD9FF1200D9CFF5
:100A3000E6FFE1CFD9FFE652FE0EDB50DF6E640E1B
:100A40001E6E1EC00EF0DFCF09F01EEC1EF0FE0E73
:100A500009C0DBFFDB50300FE66EDCDFE552640ED1
:100A60001E6E1EC00EF0DFCF09F01EEC1EF005C09A
:100A7000DFFF0A0E1E6E1EC00EF0DFCF09F01EEC67
:100A80001EF0FE0E09C0DBFFDB50300FE66EC2DF4A
:100A9000E5520A0E1E6E1EC00EF0DFCF09F01EECEE
:100AA0001EF005C0DFFF300EDF24E66EB3DFE55237
:100AB000E552E552E7CFD9FF1200D9CFE6FFE1CFEB
:100AC000D9FFE652FE0EDB50300FDF6EDF503908E3
:100AD00002E2070EDF26DFCFE6FF9CDFE552E5529C
:100AE000E552E7CFD9FF1200D9CFE6FFE1CFD9FF1A
:100AF000FE0EDB380F0BE66EE0DFE552FE0EDB503C
:100B00000F0BE66EDADFE552E552E7CFD9FF1200B0
:100B1000D9CFE6FFE1CFD9FFFD0EDBCF1EF0FE0EF1
:100B2000DBCF1FF01FC01EF01F6A1E50E66EDCDF19
:100B3000E552FF0EE76EFD0EDBCF1EF0FE0EDBCFA3
:100B40001FF0E7501E161F6A1E50E66ECDDFE552FD
:100B5000E552E7CFD9FF1200D9CFE6FFE1CFD9FFA9
:100B6000FE0EDBCF1EF01E340BE32D0EE66E52DFC1
:100B7000E552FE0EDB50FF0DFE0EF3CFDBFF04D07F
:100B80002B0EE66E47DFE552FE0EDBCFE6FF4FDFB2
:100B9000E552E552E7CFD9FF12000D0EE66E3ADFBF
:100BA000E5520A0EE66E36DFE5521200D9CFE6FFB7
:100BB000E1CFD9FFE6529EAA13D0AB50020B03E15E
:100BC000AB50040B05E0AB98AB88AE50DF6E08D09D
:100BD000AE50DF6EDFCFE6FF1DDFE552DF5002D003
:100BE000000E00D0E552E552E7CFD9FF1200D9CF71
:100BF000E6FFE1CFD9FF020EE126010EDB6AD6DF68
:100C0000DF6E300EDF5CFBE3DF503908F8E3300EB7
:100C1000DF5CE76E010EE7CFDBFF0A0E1E6E010EF2
:100C2000DBCFE7FF1E50E702010EF3CFDBFFBEDF95
:100C3000DF6E300EDF5CFBE3DF503908F8E3300E87
:100C4000DF5C1E6E010EDBCFE7FF1E50E726010EB4
:100C5000E7CFDBFFDB501E6E020EE15C03E200D04B
:100C6000E16AE552E16E1E50E552E7CFD9FF12006E
:100C7000D9CFE6FFE1CFD9FF020EE126010EDB6AF4
:100C80000301686B93DFDF6E300EDF5C03E3DF5040
:100C9000390803E22D0EDF5CF5E12D0EDF5C0BE180
:100CA0000301010E686F82DFDF6E300EDF5CFBE355
:100CB000DF503908F8E3300EDF5CE76E010EE7CF56
:100CC000DBFF0A0E1E6E010EDBCFE7FF1E50E702B0
:100CD000010EF3CFDBFF6ADFDF6E300EDF5CFBE37C
:100CE000DF503908F8E3300EDF5C1E6E010EDBCFFB
:100CF000E7FF1E50E726010EE7CFDBFF0301685137
:100D000006E0010EDB50FF0D010EF3CFDBFF010EFD
:100D1000DB501E6E020EE15C03E200D0E16AE55298
:100D2000E16E1E50E552E7CFD9FF1200D9CFE6FFA2
:100D3000E1CFD9FFFE0EDB500AE0000EE66E020E98
:100D4000E66E40DEE552E5520301010E046F5F0ED0
:100D5000E66E020EE66E36DEE552E55203016A519A
:100D600008E0A80EE66E020EE66E2CDEE552E552B5
:100D700007D0B10EE66E020EE66E24DEE552E552B5
:100D8000000EE66E010EE66E1DDEE552E552030131
:100D90006B5108E0A80EE66E020EE66E13DEE55219
:100DA000E55207D0B10EE66E020EE66E0BDEE5529E
:100DB000E552C10EE66E020EE66E04DEE552E55225
:100DC00003016C5114E0550E0301405D08E1C70EAC
:100DD000E66E020EE66EF6DDE552E55207D0D00E65
:100DE000E66E020EE66EEEDDE552E55207D0B10E7C
:100DF000E66E020EE66EE6DDE552E552DCEC1AF038
:100E0000D90EE66E020EE66EDDDDE552E55200011A
:100E100096417F0B010B08E0E50EE66E020EE66ED2
:100E2000D1DDE552E55207D0E70EE66E020EE66E22
:100E3000C9DDE552E552BF0EE66E010EE66EC2DD7B
:100E4000E552E552030104511E6E1F6A1F3404E28D
:100E50001E507708000E1F5405E2320EE66EDADDF2
:100E6000E55204D0310EE66ED5DDE552CBDDE5521C
:100E7000E7CFD9FF1200D9CFE6FFE1CFD9FF090EA6
:100E8000E12694DEE76E020EE7CFDBFFDBCFE6FF65
:100E900012EC1DF0E552F3CF1EF0F4CF1FF01E5000
:100EA0001F1009E0020EDBCFE6FF24EC1DF0E55237
:100EB000020EF3CFDBFF020EDB503F0A01E1D1D17E
:100EC0007D0A01E1CCD1100A01E153D11C0A01E1F4
:100ED0002DD11D0A01E126D11E0A5EE0010A04E0BF
:100EE0004C0A01E0C9D1C8D1A40EE66E010EE66E2F
:100EF00069DDE552E552030104511E6E1F6A1F347D
:100F000004E21E507708000E1F5405E2320EE66E12
:100F100081DDE55204D0310EE66E7CDDE552DCEC7D
:100F20001AF0010EF36E030EF3CFDBFF870EDE6EB9
:100F3000000EDD6EDECF1EF0DDCF1FF0A20ED880DA
:100F40001E54000E1F5426E3090EE66E010EE66ED7
:100F500039DDE552E552030EDBCFF3FFDB2AF35018
:100F6000E66E65DDE552150EE66E010EE66E2ADDD3
:100F7000E552E552DECFE9FFDDCFEAFF080EEFCF05
:100F8000DBFFDBCFE6FFE8DDE552DF2A010E01E300
:100F9000DB2AD0D737DD70D1020EE66E84EC13F079
:100FA000E552090EE66E010EE66E0CDDE552E552E5
:100FB0001EDEFF0FE76E030EE7CFDBFF150EE66EBA
:100FC000010EE66EFFDCE552E55252DEE76E080EDA
:100FD000E7CFDBFF030104511E6E1F6A1F3404E2DA
:100FE0001E507708000E1F5408E2200EF36E040E08
:100FF000F3CFDBFF050EDB6A04D0040EDB6A050EBF
:10100000DB6A030EDB501E6E1F6A960E206E000E0A
:10101000216E870E205E000E215A20501E1802E11C
:1010200021501F1802E1080EDB96080EDBCFE6FF09
:10103000030EDB50E76E040EDBCF1EF0050EDBCF98
:101040001FF0E7501E26000E1F221E50E66E48ECD1
:101050001BF0E552E552030EDB501E6E1F6A960E22
:10106000206E000E216E870E205E000E215A205049
:101070001E1802E121501F184EE1030104511E6E9B
:101080001F6A1F3404E21E507708000E1F5405E249
:10109000040EDB6A050EDB6A07D0200EF36E040E29
:1010A000F3CFDBFF050EDB6A080EDB90DB94DB96EB
:1010B000DB9ADB9CDB9EDBCFE6FF030EDB50E76EAB
:1010C000040EDBCF1EF0050EDBCF1FF0E7501E260F
:1010D000000E1F221E50E66EC8EC1AF0E552ED0B12
:1010E000E552E710E76E080EE7CFDBFFDBCFE6FF48
:1010F000030EDB50E76E040EDBCF1EF0050EDBCFD8
:101100001FF0E7501E26000E1F221E50E66E48EC10
:101110001BF0E552E552020EE66E91EC13F0E5523B
:1011200071DCAAD0E66A02DEE552A6D0DA0EE66EDF
:10113000010EE66E47DCE552E5522BC3E6FF0CDDFF
:10114000E552EA0EE66E010EE66E3CDCE552E55233
:101150002CC3E6FF01DDE552F10EE66E010EE66EF0
:1011600031DCE552E5522DC3E6FFF6DCE5524ADC00
:1011700083D0F70EE66E010EE66E24DCE552E552F2
:1011800000C3E6FF54DCE5522C0EE66E43DCE5526C
:10119000520EE66E3FDCE5523A0EE66E3BDCE5525F
:1011A00001C3E6FFD9DCE5522C0EE66E33DCE552D6
:1011B0004E0EE66E2FDCE5523A0EE66E2BDCE55263
:1011C00002C3E6FFC9DCE5522C0EE66E23DCE552D5
:1011D000590EE66E1FDCE5523A0EE66E1BDCE55258
:1011E00003C3E6FFB9DCE5522C0EE66E13DCE552D4
:1011F000350EE66E0FDCE5523A0EE66E0BDCE5527C
:1012000004C3E6FF14DCE5522C0EE66E0AEC05F092
:10121000E552360EE66E0AEC05F0E5523A0EE66E41
:101220000AEC05F0E55205C3E6FF17EC05F0E552C0
:101230002C0EE66E0AEC05F0E552370EE66E0AEC6F
:1012400005F0E5523A0EE66E0AEC05F0E55206C3EB
:10125000E6FF17EC05F0E55202EC05F00DD080EC4E
:101260003EF01D0EE66E010EE66EE2EC04F0E55275
:10127000E55202EC05F000D0090EE15C02E2E16A01
:0C128000E552E16EE552E7CFD9FF120005
:04128C00010EE66EFB
:101290002CEC1EF0E5521200D9CFE6FFE1CFD9FFCA
:1012A000E652010EDF6EF2DF938E81BE04D0DF2A9C
:1012B00001E101D0FAD7EADFDF5000D0E552E55274
:1012C000E7CFD9FF1200D9CFE6FFE1CFD9FFE65231
:1012D000938CE2DFDF6E819C939CD8DF819E939E8E
:1012E000E552E552E7CFD9FF1200D9CFE6FFE1CFB3
:1012F000D9FFE652939C819CCFDFDF6E938CC6DFD3
:10130000E552E552E7CFD9FF1200D9CFE6FFE1CF92
:10131000D9FFE652080EDF6EDF5017E0FE0EDBAE9F
:1013200002D0938C02D0819C939CB6DF00090BE025
:10133000819E939EFE0EDBCFF3FFF39EF346F3CF29
:10134000DBFFDF06E9D7010E0FD0938CA5DF000984
:1013500009E08150400B01E0010EDF6E819E939EFB
:10136000DF5002D0010E00D0E552E552E7CFD9FFA1
:101370001200D9CFE6FFE1CFD9FF020EE126010E20
:10138000DB6A938C080EDF6EDF5012E085DF000908
:101390000DE0010EDBCFF3FFF39EF346F3CFDBFF4F
:1013A00081BCDB80819E939EDF06EED7000E12D0BB
:1013B000FE0EDB50E8B0818CE8A0819C939C6CDF32
:1013C000000906E0819E939E010EDB5003D002D0FF
:1013D000000E00D01E6E020EE15C02E2E16AE552F0
:1013E000E16E1E50E552E7CFD9FF12006CDF420ECE
:1013F000E66E8BDFE552000901E003D00301010E28
:101400006B6F75EF09F0D9CFE6FFE1CFD9FF040E7E
:10141000E12603016B5101E1E1D0030E03017915CF
:1014200001E0DCD050DF430EE66E6FDFE5520009CD
:1014300005E05BDF0301466B476BD0D0010EE66E23
:1014400098DFE5521E6E1EC0E6FFE66A92DFE552A7
:10145000E552E7CF1EF0000EF3501E10DE6EDD6A7F
:1014600044DFD9CFE9FFDACFEAFF0F0E0D6E0E6A27
:10147000EECF08F0EDCF09F0B4EC1BF008C0EEFFA2
:1014800009C0EDFF0301453504E24451F008000EA8
:10149000455508E20301466B476B03014407000E04
:1014A000455B9CD0F00E441901E1455107E1DECFC8
:1014B00044F3DDCF45F30301466B476B0301DE5078
:1014C000445D1E6EDD5045591F6E1EC0DEFF1FC0FD
:1014D000DDFFDECF1EF0DDCF1FF01F3404E31E5012
:1014E0008808FF0E1F5405E3F00EDE26000EDD22F5
:1014F00013D0DECF1EF0DDCF1FF01F3404E21E50EC
:101500007808000E1F5408E2D9CFE9FFDACFEAFFCE
:10151000F00EEE5E000EED5ADECF20F0DDCF21F0B2
:10152000D880215004E7EC0E205CFF0E215804E225
:10153000EC0E1E6E1F6813D0DECF22F0DDCF23F03D
:10154000233404E222501408000E235404E2140E43
:101550001E6E1F6A04D0DECF1EF0DDCF1FF01EC04E
:10156000DEFF1FC0DDFF080EE66E46C322F047C354
:1015700023F0030E2302F3CF23F02202F3CF22F055
:10158000F4502326DE502224206EDD502320216ECD
:10159000D89020362136D89020362136A1C024F0AC
:1015A000256A24BE2568000124502002F3CF1EF0D6
:1015B000F4CF1FF02102F3501F2625502002F350D4
:1015C0001F261EC0E6FF1FC0E6FF52EC11F0E552D9
:1015D000E552E552F3CF46F3F4CF47F3040EE15C56
:1015E00002E2E16AE552E16EE552E7CFD9FF12006F
:1015F0006ADEEE0EE66E89DEE552000901E03ED0BD
:10160000F60EE66E82DEE552000901E037D05BDEC1
:10161000EF0EE66E7ADEE552000901E02FD0010EF2
:10162000E66EA7DEE552000EF3500101FC6FFD6B84
:101630005CDE49DEEE0EE66E68DEE552000901E092
:101640001DD0F70EE66E61DEE552000901E016D00E
:101650003ADEEF0EE66E59DEE552000901E00ED0EB
:10166000010EE66E86DEE5521E6E1F6A1E500101F7
:10167000FC131F50FD1339DE010E05D036DE0301C9
:101680006C6B000E00D01200D9CFE6FFE1CFD9FF7E
:101690001ADEEE0EE66E39DEE552000901E01CD0DE
:1016A000F40EE66E32DEE552000901E015D0FE0EC2
:1016B000DBCFE6FF2ADEE552000901E00DD015DEA2
:1016C000FE0EDB500301415D02E0000E01D0010E71
:1016D00003016D6F010E03D008DE000E00D0E5524D
:1016E000E7CFD9FF1200000E03017B6F03013E6FAD
:1016F0003F6BE9DDEE0EE66E08DEE552000901E023
:101700005ED0D00EE66E01DEE552000901E057D052
:10171000DADDEF0EE66EF9DDE552000901E04FD0AB
:10172000010EE66E26DEE5520301406FDEDD550E4A
:101730000301405D04E103012E0E416F03D003015C
:101740006E0E416F41C3E6FF9FDFE552000901E1E4
:1017500036D003010A0E7C6F7C5106E0F294F2A4AD
:10176000FED703017C07F8D743DFFCC137F3FDC187
:1017700038F30301396BF40EE66E86DFE55200099B
:1017800001E11DD003011E0E7C6F7C5106E0F29436
:10179000F2A4FED703017C07F8D72ADFFCC134F39B
:1017A000FDC135F30301366B41C3E6FF6DDFE55242
:1017B000000901E104D00301010E6C6F05D00301A3
:1017C000726B72C36CF391DD1200D9CFE6FFE1CFEB
:1017D000D9FF060EE12603017B2B03016C5101E1C9
:1017E0009DD1080E03017B5D03E303016D5109E107
:1017F000200E03017B5D01E291D103016D5101E0F7
:101800008DD103017B6BF4DE010801E087D1030178
:101810006D5123E0F40EE66E37DFE552030175519A
:10182000761107E0FCC137F3FDC138F30301396BD2
:1018300013D0FCC121F0FDC122F0236A030137510E
:10184000215C1E6E385122581F6E39512358206E6C
:101850001EC03CF31FC03DF361D141C3E6FF14DF5E
:10186000E5520301755176110CE0FCC134F3FDC162
:1018700035F30301366B03013E6B3F6B0301726B63
:101880004DD1030143BF06D0800EE66E84EC13F009
:10189000E55205D0800EE66E91EC13F0E55203019F
:1018A000725106E103013A6B3B6B0301010E726F4B
:1018B000030134510101FC5F030135510101FD5B5E
:1018C000050EE66E8AC020F0216A20BE2168030161
:1018D00020503C03F3CF1EF0F4CF1FF03D03F35034
:1018E00000011F26215003013C03F35000011F2675
:1018F000100E1E26000E1F221EC0E6FF1FC0E6FFB0
:1019000052EC11F0E552E552E552F3500101FC278B
:10191000F450FD233AC3DEFF3BC3DDFF030EE66E4A
:10192000070E086E096A3AC30DF03BC30EF0DAECFD
:101930001BF006500101FC251E6E0750FD211F6E95
:10194000040E1E26000E1F221EC0E6FF1FC0E6FF6B
:1019500052EC11F0E552E552E552F3CF3AF3F4CFF1
:101960003BF30301DE503A5D1E6EDD503B591F6EA6
:10197000040E1EC0DBFF050E1FC0DBFFD8803B51ED
:1019800004E7FE0E3A5DFF0E3B5904E2FE0E3A6F8D
:101990003B690DD03B3504E23A510808000E3B5537
:1019A00004E2080E3A6F3B6B02D03BC33BF38FC09F
:1019B0001EF01F6A1EBE1F683AC308F03BC309F041
:1019C0001EC00DF01FC00EF0DAEC1BF0020E06C0B8
:1019D000DBFF030E07C0DBFF020EDBCF1EF0030EA2
:1019E000DBCF1FF003011F503F19E8AE02D03F3597
:1019F00004D03E511E5C3F511F5804E23E07000ECA
:101A00003F5B14D0020EDBCF1EF0030EDBCF1FF0C6
:101A10003F511F18E8AE02D01F3404D01E503E5D67
:101A20001F503F5903E23E2B000E3F23020EDBCF37
:101A30001EF0030EDBCF1FF01F503F19E8AE02D09F
:101A40003F3504D03E511E5C3F511F5803E23E0714
:101A5000000E3F5BA2C024F0256A24BE2568040E58
:101A6000DBCF20F0050EDBCF21F0D880215004E73A
:101A7000FB0E205CFF0E215804E2FB0E1E6E1F6859
:101A800017D0040EDBCF22F0050EDBCF23F023347A
:101A900004E222500808000E235404E2080E1E6ED1
:101AA0001F6A06D0040EDBCF1EF0050EDBCF1FF041
:101AB0001EC008F01FC009F024C00DF025C00EF0B4
:101AC000DAEC1BF0065003013E2707503F23D88075
:101AD0003F5104E7FB0E3E5DFF0E3F5904E2FB0E53
:101AE0003E6F3F690DD03F3504E23E510F08000EB6
:101AF0003F5504E20F0E3E6F3F6B02D03FC33FF3F2
:101B0000030143BF06D0800EE66E84EC13F0E5526D
:101B100005D0800EE66E91EC13F0E552060EE15C06
:101B200002E2E16AE552E16EE552E7CFD9FF120029
:101B3000D9CFE6FFE1CFD9FFFD0EDBCF1EF0FE0EC1
:101B4000DBCF1FF01F3404E21E50F008000E1F54BC
:101B500002E2F00E2CD0FD0EDBCF1EF0FE0EDBCF2E
:101B60001FF09DC020F0216A20BE21681F5021185F
:101B7000E8AE02D0213404D020501E5C21501F5802
:101B800003E200019D5113D0FD0EDBCF1EF0FE0ECF
:101B9000DBCF1FF0D8901F5004E6010E1E5C000E34
:101BA0001F5802E2010E03D0FD0EDB5000D0E552BB
:101BB000E7CFD9FF1200D9CFE6FFE1CFD9FF030E5F
:101BC000E12600C3DFFF000196A14FD0DF500301E3
:101BD000582503014E6F000E0301592103014F6F79
:101BE0000301565103014E5F0301575103014F5B3F
:101BF000DF501E6E1F6A030158511E5C0301506FB7
:101C0000030159511F580301516F0301565103013C
:101C100050270301575103015123DF501E6E1F6AE5
:101C2000030158511E5C0301526F030159511F58A3
:101C30000301536F030156510301525F03015751D2
:101C40000301535BDF50030158250301546F000E5D
:101C5000030159210301556F030156510301542714
:101C600003015751030155232ED0DF501E6E1F6A0A
:101C7000030156511E5C03014E6F030157511F585B
:101C800003014F6FDF50030156250301506F000E13
:101C9000030157210301516FDF501E6E1F6A0301BC
:101CA00058511E5C0301526F030159511F58030123
:101CB000536FDF50030158250301546F000E0301D9
:101CC00059210301556F03015A51030152270301A2
:101CD0005B510301532303015A51030154270301AC
:101CE0005B510301552303015A5103014E5F030168
:101CF0005B5103014F5B03015A510301505F030124
:101D00005B510301515B030162510301522703013F
:101D1000635103015323030162510301542703015B
:101D20006351030155230301625103014E2703014F
:101D3000635103014F230301625103015027030143
:101D400063510301512303013E5103015227030153
:101D50003F510301532303013E5103015427030163
:101D60003F510301552303013E5103014E27030157
:101D70003F5103014F2303013E510301502703014B
:101D80003F510301512300019D51D880DF5401E3ED
:101D90004CD10301555103015319E8AE02D053351C
:101DA00007D052510301545D0301535103015559AA
:101DB00043E29DC01EF01F6A1EBE1F6803015551FD
:101DC0001F18E8AE02D01F3404D01E50545D1F50BF
:101DD000555932E29DC020F0216A20BE2168205072
:101DE000545D1E6E215055591F6E010E1EC0DBFF43
:101DF000020E1FC0DBFF010EDBCF08F0020EDBCFAF
:101E000009F008500301522709505323010EDBCF7C
:101E100008F0020EDBCF09F0085003014E270950ED
:101E20004F23010EDBCF08F0020EDBCF09F0085084
:101E30000301502709505123030153510301551940
:101E4000E8AE02D0553507D054510301525D03016D
:101E500055510301535943E29DC01EF01F6A1EBE37
:101E60001F68030153511F18E8AE02D01F3404D07D
:101E70001E50525D1F50535932E29DC020F0216A1E
:101E800020BE21682050525D1E6E215053591F6E96
:101E9000010E1EC0DBFF020E1FC0DBFF010EDBCFF9
:101EA00008F0020EDBCF09F0085003015427095057
:101EB0005523010EDBCF08F0020EDBCF09F00850EE
:101EC00003014E2709504F23010EDBCF08F0020E0D
:101ED000DBCF09F0085003015027095051230301BB
:101EE000515103014F19E8AE02D04F3507D04E5182
:101EF0000301505D03014F510301515943E29DC05D
:101F00001EF01F6A1EBE1F68030151511F18E8AE64
:101F100002D01F3404D01E50505D1F50515932E280
:101F20009DC020F0216A20BE21682050505D1E6EA9
:101F3000215051591F6E010E1EC0DBFF020E1FC043
:101F4000DBFF010EDBCF08F0020EDBCF09F00850FB
:101F500003014E2709504F23010EDBCF08F0020E7C
:101F6000DBCF09F008500301522709505323010E1B
:101F7000DBCF08F0020EDBCF09F008500301542735
:101F80000950552303014F5103015119E8AE02D006
:101F9000513507D0505103014E5D030151510301EA
:101FA0004F5943E29DC01EF01F6A1EBE1F68030109
:101FB0004F511F18E8AE02D01F3404D01E504E5DA2
:101FC0001F504F5932E29DC020F0216A20BE216887
:101FD00020504E5D1E6E21504F591F6E010E1EC0C7
:101FE000DBFF020E1FC0DBFF010EDBCF08F0020E8D
:101FF000DBCF09F008500301502709505123010E8F
:10200000DBCF08F0020EDBCF09F0085003015227A6
:1020100009505323010EDBCF08F0020EDBCF09F08D
:102020000850030154270950552352C3E6FF53C3F8
:10203000E6FF7EDDE552E5520301486F4EC3E6FF41
:102040004FC3E6FF75DDE552E5520301496F50C30A
:10205000E6FF51C3E6FF6CDDE552E55203014A6F2E
:1020600054C3E6FF55C3E6FF63DDE552E5520301C5
:102070004B6F030EE15C02E2E16AE552E16EE5526C
:10208000E7CFD9FF120003017451000807E2010EE7
:1020900003015E6F5F6B03015C6F5D6B03016F514A
:1020A00006E0770E03015C27000E5D2309D00301D3
:1020B00006511E6E1F6A1E5003015C271F505D23D0
:1020C000030105511E6E1F6A1E5003015E271F503B
:1020D0005F23010E03015DAF02D0D89003D05C5D99
:1020E000000E5D5904E2010E1E6E1F6A0FD05D35B1
:1020F00004E25C51F008000E5D5504E2F00E1E6E25
:102100001F6A04D05CC31EF05DC31FF01EC04CF3F9
:10211000010E03015FAF02D0D89003D05E5D000EC8
:102120005F5904E2010E1E6E1F6A0FD05F3504E294
:102130005E51F008000E5F5504E2F00E1E6E1F6A3D
:1021400004D05EC31EF05FC31FF01EC04DF312002B
:10215000000EE66EE66A78EC1DF0E552E552F29468
:1021600000010F0E806F0F0E811248C381F04BC328
:1021700082F049C383F04AC384F059EC1DF0F3CFD9
:102180001EF0F4CF1FF0ED0E1E5C000E1F5801E292
:10219000F4D7F29EF2A4FED7F29403016E5105E04B
:1021A00000013F0E806F3F0E811203016E7100012E
:1021B0008051816E0F0B12E0812FE0EF10F08091C3
:1021C000832FE4EF10F08093842FE8EF10F08095D8
:1021D000822FD8EF10F08097D8EF10F0F28E59ECE4
:1021E0001DF0F3CF1EF0F4CF1FF0ED0E1E5C000EBD
:1021F0001F5801E2F4D7F29EF2A4FED700018051ED
:10220000816E300B0EE0852F07EF11F08099862F3D
:102210000BEF11F0809B0000000000000000FFEFBA
:0A22200010F0F28EF2A4FED71200B7
:06222A00D9CFE6FFE1CF71
:10223000D9FF030EE126000EE66EE66A78EC1DF08B
:10224000E552E552010EDB6A0A0EF36E010EDBCF9A
:10225000F4FFF350F45C19E2DF6AFE0EDB50DF5C42
:1022600011E203010A0E7C6F7C5106E0F294F2A4A5
:10227000FED703017C07F8D7A8EC10F09EBA05D072
:10228000DF2AEBD7010EDB2ADFD7030EE15C02E287
:10229000E16AE552E16EE552E7CFD9FF1200000096
:1022A00000001200D9CFE6FFE1CFD9FFFD0EDBCF52
:1022B00020F0FE0EDBCF21F00001800E21141BE088
:1022C000FD0EDBCF22F0FE0EDBCF23F0226C231EAF
:1022D000000E2322FC0EDB5022C01EF023C01FF094
:1022E00005E0D8901F321E32E804FBE11E6C1F1E71
:1022F000000E1F2212D0FD0EDBCF24F0FE0EDBCF2E
:1023000025F0FC0EDB5024C01EF025C01FF005E0B8
:10231000D8901F321E32E804FBE11EC0F3FF1FC03D
:10232000F4FF00D0E552E7CFD9FF12003F0E926EC6
:10233000020EC16EC00E816E400E936E600E826EF4
:10234000840E946EC78CF18E12000301010E4B6F48
:102350004BC34AF34BC349F34BC348F30301770E16
:102360004C6F4CC34DF30301656B000E0301116FFD
:10237000126B03010F6F106B03010D6F0E6B0301E6
:102380003E6F3F6B0301626F636B03015E6F5F6BB8
:1023900003015C6F5D6B03012E6B2F6B03012A6BD6
:1023A0002AC329F30301156F166B0301136F146B16
:1023B0000301176F186B0301426B1200D9CFE6FFC0
:1023C000E1CFD9FF020EE126E66AE66A9BEC1CF03B
:1023D000E552E552F3CF1EF0F4CF1FF0030ED89074
:1023E0001F321E32E804FBE11EC0DEFF1FC0DDFF0E
:1023F000010EE66E7DC320F0216A20BE2168DE500A
:1024000020241E6EDD5021201F6E010E1E26000EA0
:102410001F221EC0E6FF1FC0E6FF44DFE552E55263
:10242000E552F3CF7DF37DC31EF01F6A1EBE1F6809
:1024300098C020F0216A20BE21681F502118E8AE04
:1024400002D0213404D020501E5C21501F5802E3DA
:10245000000E01D0010E010B0301696F695116E0F6
:10246000320E0301795D09E2800EE66E4DD9E55228
:10247000040EE66E49D9E55208D0800EE66E51D9B9
:10248000E552040EE66E4DD9E55240D0030173517A
:102490001AE0320E0301795D0DE2020E03017A5D4E
:1024A00009E2800EE66E30D9E552040EE66E2CD9B4
:1024B000E55208D0800EE66E34D9E552040EE66E81
:1024C00030D9E55223D0715119E0320E0301795D04
:1024D0000CE203017A5109E1800EE66E15D9E5524E
:1024E000040EE66E11D9E55208D0800EE66E19D9B9
:1024F000E552040EE66E15D9E55208D0800EE66E60
:1025000010D9E552040EE66E0CD9E552020EE15CDC
:1025100002E2E16AE552E16EE552E7CFD9FF12002F
:10252000030178073AE1030100511E6E1F6AFF0E96
:10253000D8801E56000E1F56030ED8901F321E3232
:10254000E804FBE1050E1E240301786F03017251BC
:1025500005E0510EE66ED8D8E5521FD0030143A91D
:1025600009D0510EE66EDDD8E552010EE66ECCD8EC
:10257000E55213D043A109D0510EE66ED2D8E552F0
:10258000400EE66EC1D8E55208D0510EE66EC9D8AD
:10259000E552100EE66EB8D8E552120000019651D1
:1025A000E840E8403F0B010B4DE02E0EE66EB9D837
:1025B000E55214C31EF01F6A000EE76E1E18E8AE47
:1025C00002D01E3403D0E750D8801E5405E2040E1A
:1025D000E66E9AD8E55211D014C31EF01F6AFF0EA2
:1025E000E76E1E18E8AE02D0E73402D0E7501E5C5A
:1025F00004E2080EE66E88D8E55216C31EF01F6A84
:10260000000EE76E1E18E8AE02D01E3403D0E7506D
:10261000D8801E5405E2200EE66E76D8E55211D021
:1026200016C31EF01F6AFF0EE76E1E18E8AE02D03A
:10263000E73402D0E7501E5C04E2020EE66E64D876
:10264000E5522AD09651E00BE838E840010B24E02F
:102650002E0EE66E66D8E5520301473504E2465178
:102660000008000E475505E2080EE66E4DD8E5520B
:1026700007D0800E471504E0040EE66E45D8E552FB
:102680000301453504E24451F008000E455504E2CB
:10269000200EE66E39D8E55212000301795108E1A7
:1026A000640E796F03017A5102E1080E7A6F7A079E
:1026B000030179071200D9CFE6FFE1CFD9FF020E5F
:1026C000E12643C3DFFF828A94988296DE52080E89
:1026D000DD6E010EDB500CE0DFAE02D0828801D04F
:1026E0008298DF9EDF4682868296010EDB06F1D756
:1026F00082828292020EE15C02E2E16AE552E16EC0
:10270000E552E7CFD9FF1200D9CFE6FFE1CFD9FFDD
:10271000FE0EDB5003014313CEDFE552E7CFD9FFB6
:102720001200D9CFE6FFE1CFD9FFFE0EDB1C03017B
:0C2730004317C1DFE552E7CFD9FF1200CC
:04273C000301010E86
:10274000776F030100511E6E1F6AD8901F5004E678
:102750001A0E1E5C000E1F5820E3645101E01DD0CC
:10276000665118E0A8EC10F00301666B770777510B
:10277000000810E343B506D0040EE66E84EC13F0B7
:10278000E55205D0040EE66E91EC13F0E55203011C
:102790000A0E776F3BEC07F0D4D7040EE66E91EC8F
:1027A00013F0E5521200D9CFE6FFE1CFD9FF020EB8
:1027B000E126030166513CE0763504E275510008DC
:1027C000000E76550BE278B103D07507000E765BEC
:1027D0007551761102E100C333F32AD00A0E335D3E
:1027E00003E2DE6ADD6A04D00A0E335DDE6EDD6A66
:1027F0004B0E005D02E27569766B00511E6E1F6A1A
:10280000DECF20F0DDCF21F01F502118E8AE02D03E
:10281000213404D020501E5C21501F5802E27569FB
:10282000766B0A0E3325D880005502E27569766B07
:10283000020EE15C02E2E16AE552E16EE552E7CFA9
:10284000D9FF12000301140E776F020EE66E15EC2D
:1028500011F0E5523BEC07F0030164510AE080A857
:1028600007D0770704E1010E736F020E776F01D076
:10287000736B6451EAE18050100BE7E01200D9CF8E
:10288000E6FFE1CFD9FF020EE126F29E96EC11F0B1
:10289000190EE66EE66A3C0EE66E56EC1CF0E5524A
:1028A000E552E552CFEC1CF0530EE66E94EC1DF0B1
:1028B000E552310EE66E38EC1DF0E552840EE66E00
:1028C000CBEC1DF0E552000196390F0B010BE8B07F
:1028D000BD80E8A0BD90FE0EE66EB0EC1DF0E552A6
:1028E0004E0ECB6EDF6A080EDF5C11E2DF50EA6A43
:1028F000640FE96E030EEA22EF6ADF50EA6A6C0F9A
:10290000E96E030EEA22000EEF6EDF2AECD7030118
:10291000010E646F436B2E0EE66E91EC13F0E552E0
:10292000A5EC11F0DCEC1AF0F28CF28E040EE66EDF
:1029300084EC13F0E552010EE66E15EC11F0E55251
:1029400018EC1AF003012B6B2C6B2D6B6A5102E013
:10295000EBEC15F003013369010EE66E15EC11F096
:10296000E552F6EC09F073EC0BF0010EE66E96EC16
:1029700006F0E5520301770E066F06C305F3010E5C
:10298000046F04C300F3800EE66E91EC13F0E55281
:10299000F29A2E0EE66E91EC13F0E552040EE66EFE
:1029A00084EC13F0E55203016A5105E0200EE66E57
:1029B00084EC13F0E552A5EC11F003013369F28EBB
:1029C00041DFDCEC1AF0BADE0301645101E0D7D735
:1029D000776B796B7A6B100E746F7569766B1E0E60
:1029E000065D02E3000E01D0010E6F6F80A8E3D0F8
:1029F000000EE66EE66A78EC1DF0E552E552F294C0
:102A0000F28A4DEC13F0000E03011B6F1C6B196F63
:102A10001A6BC3EC01F0000E0001E76E9719E8AEE7
:102A200002D0973503D0E750D880975501E2F3D70D
:102A300003EC0AF0E5EC0BF0F29AC3EC01F0DCECED
:102A40001AF0DDEC01F00301645120E065511EE055
:102A50000F0E791501E1772B77511E6E1F6AD89002
:102A60001F5004E6C80E1E5C000E1F580EE2010E39
:102A7000736F2E0EE66E91EC13F0E55230C301F346
:102A800031C302F332C303F373D095D0655110E024
:102A900000511E6E1F6A1F3404E21E501A08000EF9
:102AA0001F5406E3010EDB06DB50000801E260D094
:102AB000645118E165510AE000511E6E1F6A1F340F
:102AC00004E21E501A08000E1F540CE2655133E157
:102AD0000051206E216A213404E220502208000EA9
:102AE000215429E3020E000197270301100E746F91
:102AF0007569766BA5EC11F003011D6B1E6B1F6BE6
:102B0000206B216B226B645104E08050100B01E0BC
:102B100052D02E0EE66E91EC13F0E552510EE66E99
:102B200091EC13F0E552080EE66E84EC13F0E552DA
:102B30003BEC07F039D065510DE101C330F302C31E
:102B400031F303C332F34469456B3BEC07F00301F7
:102B5000010E786F010E656F736B776BDE52640E3A
:102B6000DD6E080EE66E84EC13F0E55290EC12F088
:102B700003015C6B5D6B5E6B5F6B15DE0301745173
:102B8000000802E2740704D008EC03F0DBEC0DF05F
:102B900007C30DF308C30EF309C30FF30AC310F301
:102BA0000BC311F30CC312F343EC10F0A8EC10F0BC
:102BB000DEEC11F01BD7800EE66E91EC13F0E552BF
:102BC000E7D6020EE15C02E2E16AE552E16EE5520F
:062BD000E7CFD9FF12005F
:0A2BD600D9CFE6FFE1CFD9FFE652A8
:102BE000020EE66E15EC11F0E55203015C6B5D6BB5
:102BF00003015E6B5F6B0301606B616BDF6A100E3C
:102C0000DF5C1CE262EC1AF00301235103015C2734
:102C10000301245103015D230301275103015E27B2
:102C20000301285103015F2303012551030160279C
:102C30000301265103016123DF2AE1D7040EE66E6A
:102C4000080E03011F6A5C251E6E5D511F221EC007
:102C5000E6FF1FC0E6FF52EC11F0E552E552E552E7
:102C6000F3CF5CF3F4CF5DF3040EE66E080E0301C0
:102C70001F6A5E251E6E5F511F221EC0E6FF1FC029
:102C8000E6FF52EC11F0E552E552E552F3CF5EF368
:102C9000F4CF5FF3040EE66E080E03011F6A602591
:102CA0001E6E61511F221EC0E6FF1FC0E6FF52ECE0
:102CB00011F0E552E552E552F3CF60F3F4CF61F342
:102CC0000301D8805D5104E79D0E5C5DFF0E5D59E8
:102CD00004E29D0E1E6E1F680FD05D3504E25C514C
:102CE0006308000E5D5504E2630E1E6E1F6A04D079
:102CF0005CC31EF05DC31FF01EC02BF30301D88020
:102D00005F5104E79D0E5E5DFF0E5F5904E29D0E6C
:102D10001E6E1F680FD05F3504E25E516308000E1F
:102D20005F5504E2630E1E6E1F6A04D05EC31EF080
:102D30005FC31FF01EC02CF360C320F061C321F0FD
:102D4000000E205E040E215AD880215004E79D0E0B
:102D5000205CFF0E215804E29D0E1E6E1F681BD0E2
:102D600060C322F061C323F0000E225E040E235ADA
:102D7000233404E222506308000E235404E2630E5D
:102D80001E6E1F6A08D060C31EF061C31FF0000EE4
:102D90001E5E040E1F5A1EC02DF3E552E552E7CF0A
:102DA000D9FF120003016A5101E15CD162EC1AF013
:102DB00023C35CF324C35DF325C360F326C361F32F
:102DC00027C35EF328C35FF39EC01EF01F6A1EBEBA
:102DD0001F681E5003015C5F1F505D5B9FC01EF0AB
:102DE0001F6A1EBE1F681E5003015E5F1F505F5B9F
:102DF0009CC01EF01F6A1EBE1F681E500301605F4C
:102E00001F50615B040E615F605103012E270301B7
:102E1000615103012F23080EE66E040EE66E080EC4
:102E2000236A2E25226E2F51232222C0E6FF23C0C3
:102E3000E6FF52EC11F0E552E552E552F3CF20F0F7
:102E4000F4CF21F09BC024F0256A24BE2568000140
:102E500024502002F3CF1EF0F4CF1FF02102F350D4
:102E60001F2625502002F3501F26800E1E26000E1E
:102E70001F221EC0E6FF1FC0E6FF52EC11F0E55214
:102E8000E552E552F3CF60F3F4CF61F3030E030193
:102E9000791543E10301635103016119E8AE02D0E2
:102EA000613507D060510301625D03016151030187
:102EB000635905E20301622B000E632314D0030162
:102EC000615103016319E8AE02D0633507D0625146
:102ED0000301605D030163510301615904E20301D1
:102EE0006207000E635B0301D880635104E7F60EAE
:102EF000625DFF0E635904E2F60E626F63690DD0E6
:102F0000633504E262510A08000E635504E20A0EBA
:102F1000626F636B02D063C363F30301D8802F51E8
:102F200004E7F60E2E5DFF0E2F5907E20A0E2E253E
:102F30002E6F000E2F212F6F0ED02F3504E22E5151
:102F40000A08000E2F5505E20A0E2E5F000E2F5BB9
:102F500002D02FC32FF3050EE66E13C31EF014C369
:102F60001FF0F10E1F02F3CF1FF0FF0E1E02F350F1
:102F70001F26F10E1E02F3CF1EF0F4501F26100E76
:102F80001E26000E1F221EC0E6FF1FC0E6FF52ECE9
:102F900011F0E552E552E552F35003015C5FF45045
:102FA0005D5B0301195103015C5F03011A510301C9
:102FB0005D5B0301296B03015D3504E25C510A0886
:102FC000000E5D5503E2030129690CD00A0E5DAFC6
:102FD00002D0D89003D05C5D000E5D5903E203017E
:102FE000010E296F050EE66E15C31EF016C31FF005
:102FF000F10E1F02F3CF1FF0FF0E1E02F3501F262B
:10300000F10E1E02F3CF1EF0F4501F26100E1E26E6
:10301000000E1F221EC0E6FF1FC0E6FF52EC11F09B
:10302000E552E552E552F35003015E5FF4505F5BF9
:1030300003012A6B03015F3504E25E510A08000EAA
:103040005F5503E203012A690CD00A0E5FAF02D07C
:10305000D89003D05E5D000E5F5903E20301010EBC
:0C3060002A6F03D00301626B636B120047
:04306C00DACFE4FFD4
:10307000E2CFDAFFE65200D0E552E5CFDAFF1100E9
:10308000DACFE4FFE2CFDAFFE6529EA20DD09E92A5
:103090000301675103E04E0ECB6E39D1010E676F0D
:1030A000EA0ECB6E0201F76B9EA442D1CC6A9E92CF
:1030B0000301676BBD704E0ECB6EBD50010B146EDD
:1030C000000196390F0B010B141846E00201F7516D
:1030D00005E1BECFE9F2BFCFEAF23DD0020EF75DC7
:1030E0000EE1BECFEDF2BFCFEEF2EB51ED5DEB6F37
:1030F000EC51EE59EC6FD890EC33EB332CD0040E3E
:10310000F75D0EE1BECFF1F2BFCFF2F2EF51F15D0C
:10311000EF6FF051F259F06FD890F033EF331BD0CE
:10312000060EF75D17E1BECFF5F2BFCFF6F2F35111
:10313000F55DF36FF451F659F46FD890F433F3332F
:10314000F4C214F0156A010E141801E1155001E0E3
:10315000DED001D0DCD0E9D00201F7050EE1BECF10
:10316000EBF2BFCFECF2E951EB5DE96FEA51EC59BC
:10317000EA6FD890EA33E933D8D0030EF75D0EE159
:10318000BECFEFF2BFCFF0F2ED51EF5DED6FEE513C
:10319000F059EE6FD890EE33ED33C7D0050EF75DE2
:1031A00037E1BECFF3F2BFCFF4F2F151F35DF16F2F
:1031B000F251F459F26FD890F233F133EAC214F0BD
:1031C000156A010E141801E1155021E1ECC216F048
:1031D000176A010E161801E1175019E1EEC218F036
:1031E000196A010E181801E1195011E1F0C21AF024
:1031F0001B6A010E1A1801E11B5009E1F2C21CF012
:103200001D6A010E1C1801E11D5001E18ED07FD016
:10321000070EF75D01E07BD0F551BE5CF56FF6510E
:10322000BF58F66FD890F633F533F6C214F0156A2E
:10323000010E141801E1155001E069D0000196411A
:103240007F0B010B2FE00201F1510301006FFF0E14
:103250000201ED15146E156A770E145E000E155AF4
:1032600014C001F3FF0EEB15146E156A770E145E91
:10327000000E155A14C002F3FF0EE915146E156AFC
:10328000770E145E000E155A14C003F3F3510301B8
:10329000046F0201EF510301056F0201F5510301B3
:1032A000066F2ED00201F3510301006FFF0E0201E1
:1032B000E915146E156A770E145E000E155A14C0C7
:1032C00001F3FF0EEF15146E156A770E145E000EF3
:1032D000155A14C002F3FF0EF515146E156A770E19
:1032E000145E000E155A14C003F3ED510301046F70
:1032F0000201F1510301056F0201EB510301066F59
:103300000301646B010E666F0201F7690ED00301C1
:10331000666B010E646F0201F769000196390F0BAD
:10332000010B02E0BD8001D0BD909E940201F72BFD
:10333000F250040B06E0F250200B03E0F29400017F
:0A3340009707E552E5CFDAFF110010
:06334A00D9CFE6FFE1CF40
:10335000D9FFE652828894988296829A080EDF6E90
:10336000DF5010E08296FE0EDBAE02D0828801D0E4
:103370008298DBCFF3FFF39EF346F3CFDBFF828629
:10338000DF06EED79488FE0EDB6A080EDF6EDF5094
:103390000FE08296FE0EDBCFF3FFF39EF346F3CFF2
:1033A000DBFF82A802D0FE0EDB808286DF06EFD72D
:1033B000828AFE0EDB5000D0E552E552E7CFD9FFFE
:1033C0001200D9CFE6FFE1CFD9FFE652949882965A
:1033D000829A080EDF6EDF5010E08296FE0EDBAEA2
:1033E00002D0828801D08298DBCFF3FFF39EF346B0
:1033F000F3CFDBFF8286DF06EED7080EDF6EDF50ED
:1034000010E08296FD0EDBAE02D0828801D0829859
:10341000DBCFF3FFF39EF346F3CFDBFF8286DF06BD
:10342000EED7828A9488E552E552E7CFD9FF1200A1
:10343000D9CFE6FFE1CFD9FFE652828A4A0EE66E87
:10344000210EE66EBEDFE552E5528F0EE66E7DDFA1
:10345000E552DF6E3A0EDF5C30E1D70EE66E200EED
:10346000E66EAFDFE552E552E66A220EE66EA9DFB0
:10347000E552E552480EE66E300EE66EA2DFE552EA
:10348000E552E66A340EE66E9CDFE552E552FC0E2C
:10349000E66E350EE66E95DFE552E552E668360ECD
:1034A000E66E8FDFE552E552E66A380EE66E89DF9A
:1034B000E552E5520301010E6A6FE552E552E7CF8E
:1034C000D9FF1200D9CFE6FFE1CFD9FFE652828AB9
:1034D0009488A70EE66E39DFE552DF6EA90EE66E20
:1034E00034DFE5521E6E1F6A1EC01FF01E6A1EC02A
:1034F000E6FF1FC0E6FFA80EE66E27DFE552E552A5
:10350000E7CF1FF0E552E7CF1EF003011E10236F37
:103510001FC024F3AB0EE66E18DFE5521E6E1F6A65
:103520001EC01FF01E6A1EC0E6FF1FC0E6FFAA0EE7
:10353000E66E0BDFE552E552E7CF1FF0E552E7CF2D
:103540001EF003011E10256F1FC026F3AD0EE66EA0
:10355000FCDEE5521E6E1F6A1EC01FF01E6A1EC0F2
:10356000E6FF1FC0E6FFAC0EE66EEFDEE552E55269
:10357000E7CF1FF0E552E7CF1EF003011E10276FC3
:103580001FC028F39488E552E552E7CFD9FF120017
:10359000D9CFE6FFE1CFD9FFE652FE0EDB50A96E90
:1035A000A69EA680A850DF6EA66ADF5000D0E55226
:1035B000E552E7CFD9FF1200D9CFE6FFE1CFD9FF1F
:1035C000050EE126030104511E6E1F6A1F3404E23A
:1035D0001E507708000E1F5408E2200EF36E030EF3
:1035E000F3CFDBFF040EDB6A04D0030EDB6A040EAC
:1035F000DB6A870EDE6E000EDD6EDECF1EF0DDCFE5
:103600001FF0A20ED8801E54000E1F541AE3030EA2
:10361000DBCF1EF0DB2A040EDBCF1FF001E3DB2A39
:103620001E50E66EB5DFE552E66EDECFE9FFDDCF78
:10363000EAFFE552E750EF6EDF2A010E01E3DB2AD5
:10364000DCD798C07DF3020E0001E76E9719E8AE53
:1036500002D0E73402D0E750975D03E2020E976F85
:103660000DD0140EE76E9719E8AE02D0973503D04F
:10367000E750D880975502E2140E976F050EE15C73
:1036800002E2E16AE552E16EE552E7CFD9FF1200AE
:10369000D9CFE6FFE1CFD9FFE652FE0EDBCFE6FF42
:1036A00077DFE552DF6EFD0EDB50DF5C12E0FD0ED2
:1036B000DB50A86EFE0EDB50A96EA69EA684F29E7D
:1036C000550EA76EAA0EA76EA682A6B2FED7F28EE0
:1036D000A694E552E552E7CFD9FF1200D9CFE6FF15
:1036E000E1CFD9FF050EE126FE0EDB0405E1030E56
:1036F000DB6A040EDB6A07D0200EF36E030EF3CFF5
:10370000DBFF040EDB6A870EDE6E000EDD6EDECFA1
:103710001EF0DDCF1FF0A20ED8801E54000E1F54E5
:1037200019E3DFCFE9FFDF2A010EDBCFEAFF01E378
:10373000DB2AEF50E66E030EDBCF1EF0DB2A040E11
:10374000DBCF1FF001E3DB2A1E50E66EA1DFE5525E
:10375000E552DDD7050EE15C02E2E16AE552E16E79
:08376000E552E7CFD9FF12008A
:08376800006A0EAEBDEF1BF07C
:103770000D6C0E1EE86A0E22001E09AEC5EF1BF08E
:10378000086C091EE86A0922001EFAEC1DF009BE49
:10379000D5EF1BF000AE000C086C091EE86A092288
:1037A000046C051EE86A0522000C00BECCEF1BF07D
:1037B0000188FF0C09C013F008C012F008500D0278
:1037C000F4CF07F0F3CF06F009500E02F4CF09F062
:1037D000F3CF08F00D02F3500726F4500822E86AF0
:1037E000092212500E02F3500726F4500822E86A0C
:1037F00009220EAE00EF1CF01250085E1350095A59
:0E38000013AE000C0D50085E0E50095A000C5D
:02380E001E0E8C
:10381000F66E000EF76E000EF86E00010900F5500E
:10382000A86F0900F550A96F03E1A86701D03DD04A
:103830000900F550A36F0900F550A46F0900F55079
:10384000A56F09000900F550E96E0900F550EA6E10
:10385000090009000900F550A66F0900F550A76F8F
:1038600009000900F6CFAAF0F7CFABF0F8CFACF023
:10387000A3C0F6FFA4C0F7FFA5C0F8FF0001A65340
:1038800002E1A75307E00900F550EE6EA607F8E243
:10389000A707F9D7AAC0F6FFABC0F7FFACC0F8FF87
:0C38A0000001A807000EA95BBFD71200B2
:0438AC00D9CFE6FF8B
:1038B000DACFE6FFE1CFD9FFE2CFDAFFAC6AAB6A3D
:1038C000FD0EDBB0AC88DBA202D0AC8CAB8CDBB4E1
:1038D000AC8EDBA602D0AB8801D0AB8ADBB8AC845F
:1038E0009E98DBBAAC86DBAC02D09D8A01D09D9A53
:1038F0009E9ADBAE02D09D8801D09D98FB0EDB50D6
:10390000AF6EFB0EFC0EDBCF1FF01FC01EF01F6A58
:103910001E50B06EAC8AAB8E949C948EAC50100B43
:1039200004E0AC50800B01E1948CE552E5CFDAFF66
:06393000E7CFD9FF1200F1
:0A393600D9CFE6FFE1CFD9FF030E61
:10394000E126FD0EDB50E8B0C188E8A0C198FE0E6C
:10395000DB50080DF350E66EE3EC1DF0E55247EC4A
:103960001EF007EC00F0000901E0FBD737EC1EF079
:10397000F3CFDEFFF4CFDDFFDECF1EF0DDCF1FF093
:103980001EC0F3FF1FC0F4FF030EE15C03E200D092
:10399000E16AE552E16EE552E7CFD9FF12000A0E67
:1039A000E66E040EE66EAB0EE66EDBEC1CF0E55246
:0639B000E552E552120091
:0A39B600D9CFE6FFDACFE6FFE1CF3C
:1039C000D9FFE2CFDAFFC26AC06AFC0EDB407F0B90
:1039D0003C0BC26EFB0EDBCFE6FFFC0EDB38F00BC0
:1039E000300BE552E710C16EFD0EDB50040DF350B5
:1039F000380B1F6EFD0EDB380F0B070B1E6EFD0E16
:103A0000DB50800B1E101F10C06EFC0EDBAE03D00F
:103A10009E9C9D8CF28CC280E552E5CFDAFFE7CF09
:043A2000D9FF1200B8
:0C3A2400F36AF46AFF0EE124E96EFF0E65
:103A3000E220EA6EED6607D0600EEF6404D07B0EE4
:103A4000EF6001D0F32A1200FF0EE124E96EFF0EB1
:103A5000E220EA6EEDCFF4FFEFCFF3FFF46607D07C
:103A6000600EF36404D07B0EF36001D0F39A120071
:103A7000D9CFE6FFDACFE6FFE1CFD9FFE2CFDAFF19
:103A8000FD0EDB507E0BCD6EFD0EDBAC02D0CD8E7D
:103A900001D0CD9ECF6ACE6A9E90DBAE02D09D80D3
:103AA00001D09D90CD80E552E5CFDAFFE7CFD9FF79
:023AB000120002
:0E3AB200D9CFE6FFDACFE6FFE1CFD9FFE2CFB2
:103AC000DAFFE652E652D650DF6E010ED7CFDBFFAB
:103AD000DECF1EF0DDCF1FF01EC0F3FF1FC0F4FFCE
:103AE000E552E552E552E5CFDAFFE7CFD9FF120004
:103AF000D9CFE6FFDACFE6FFE1CFD9FFE2CFDAFF99
:103B0000E652E652FC0EDBCFDEFFDBCFDDFF010E1F
:103B1000DB50D76EDF50D66EE552E552E552E5CF69
:083B2000DAFFE7CFD9FF120024
:083B2800D9CFE6FFDACFE6FF7A
:103B3000E1CFD9FFE2CFDAFFFD0EDB507F0BD56E70
:103B4000D76AD66AF294FD0EDBAE02D0F28A01D0BB
:103B5000F29AD58EE552E5CFDAFFE7CFD9FF120012
:103B6000D9CFE6FFDACFE6FFE1CFD9FFE2CFDAFF28
:103B7000FD0EDB50FB0BCA6ECC6A9E92FD0EDBAED7
:103B800002D09D8201D09D92CA84E552E5CFDAFF32
:063B9000E7CFD9FF12008F
:0A3B9600D9CFE6FFDACFE6FFE1CF5A
:103BA000D9FFE2CFDAFFFD0EDB500F0BBD6EFD0E2D
:103BB000DBAE02D09E949D849484E552E5CFDAFF7B
:063BC000E7CFD9FF12005F
:0A3BC600D9CFE6FFDACFE6FFE1CF2A
:103BD000D9FFE2CFDAFFC30EC2141E6EFD0EDB402A
:103BE0007F0B3C0B1E10C26EE552E5CFDAFFE7CF2C
:043BF000D9FF1200E7
:0C3BF400056A046A100EE76ED8900836CF
:103C00000936043605360D50045C0E50055805E3A0
:103C10000D50045E0E50055A082AE72EF0D7120008
:103C200015EE00F025EE00F0F86A019C07EC1CF0A0
:0C3C300003EC00F03FEC14F0FBD7120096
:043C3C00056A080EFF
:103C4000E76ED890093605360E50055C02E3056E26
:083C5000092AE72EF7D7120044
:083C5800FF0EE350E84E1200DC
:0E3C6000000000D000D000D0E82EFAD71200ED
:023C6E00C45040
:103C7000216E206AC3502010F36E21C0F4FF1200A1
:0E3C800000EE00F00F0EEE6AEA62FDD71200B1
:023C8E00C282F0
:023C9000120020
:0E3C92001204D80D101204D8021014280632A5
:0E3CA0000600042B0000080028000044050464
:023CAE00436F62
:103CB0006D7061737320000D0A52656769737465D6
:103CC000722000203D20000D0A3E000D0A436F6D5A
:103CD0006D616E64733A0D0A4C2E2E2E4C6973740E
:103CE00020706172616D0D0A4D2E2E2E4D6F64692C
:103CF000667920706172616D0D0A532E2E2E536805
:103D00006F772073657475700D0A4E2E2E2E4E65DA
:103D1000757472616C2076616C7565730D0A522E34
:103D20002E2E53686F772072656365697665722001
:103D30006368616E6E656C730D0A422E2E2E73746D
:103D400061727420426F6F742D4C6F616465720DE7
:103D50000A000D0A506172616D65746572206C69AC
:103D6000737420666F72207365742023000D0A53EC
:103D7000656C656374656420706172616D657465FE
:103D800072207365743A20000D0A4E657574726175
:103D90006C20526F6C6C3A0020507463683A0020BB
:0A3DA0005961773A000D0A543A0009
:063DAA000D0A55415650C0
:103DB0002056332E31356D335F3138662028632924
:103DC000203230303720496E672E20576F6C66677F
:103DD000616E67204D616872696E6765720D0A5485
:103DE000686973206973204652454520534F4654F5
:103DF000574152452C207365652047504C206C6913
:103E000063656E7365210D0A000D0A5541565020F9
:103E100056332E31356D335F3138662072656164FB
:103E2000792E0D0A4779726F3A2031782041445833
:103E300052533330302C20317820494447333030CE
:103E40000D0A4C696E6561722073656E736F7273D3
:103E500020004F4E4C494E450D0A006E6F74206194
:103E60007661696C61626C650D0A004261726F2057
:103E700000424D503038350D0A00534D4435303036
:103E80000D0A005468726F74746C652043680033C7
:033E9000003100FE
:107D00007D0EFA6E1FD0F926420C6F0C6F0C740CAE
:107D1000200C320C2E0C300C000C450C520C520C6A
:107D2000000C430C530C550C4D0C000C4F0C4B0C21
:107D3000000C530C550C430C430C450C530C530CCA
:107D4000210C000C0001F29EA66AD56AA40E946E66
:107D5000936A190EAF6E240EAC6ED86A900EAB6E9D
:107D6000816A010ED0EC3FF0106AD86A00EE60F034
:107D7000200EBFEC3FF09EAAFED7AE50ABB256D05D
:107D8000ABB454D0EF6E3A08D8B4DAEF3EF0EF3827
:107D90000F0BFD0FD8B4DAEF3EF0FF0FD8B4DAEFD7
:107DA0003EF00A0EEF5CD8B4DCEF3EF0FD0FD8A435
:107DB00016EF3FF0E92ADFD700EE60F0EF503A0807
:107DC000D8A416EF3FF0E92A186AB6EC3FF0166E19
:107DD0004008D8A016EF3FF0B6EC3FF0126EB6ECBC
:107DE0003FF0116EC00E1114136E3F0E1114146E7D
:107DF000B6EC3FF0000FD8B403EF3FF0FF0FD8B45C
:107E000069EF3FF031D010EE60F016C019F0B6EC1B
:107E10003FF0E66E192EFBD7B6EC3FF01850D8B401
:107E20001CEF3FF01B0ED0EC3FF09FD7AB98130E2A
:107E3000D0EC3FF0AB8899D7280EBFEC3FF0125042
:107E4000D8A42CEF3FF01150D8A42CEF3FF050EC09
:107E50003FF038EC3FF008D07D0E125CD8B034EF24
:107E60003FF038EC3FF000D0250ED0EC3FF07DD74E
:107E70009EEC3FF000EE60F010EE20F01450000F8A
:107E8000D8B447EF3FF0196EE652192EFDD716C051
:107E900019F0EE50E66E192EFCD780EC3FF0120080
:107EA00060C01CF061C01DF062C01EF063C01FF016
:107EB000EF0E616ED8907D0E1A6E1A321AC062F003
:107EC000000E1A6E1A321AC060F0F00E636E108047
:107ED0001200CFEC3FF010A00FD0116A126A136AA3
:107EE0009EEC3FF01CC020F01DC021F01EC022F00F
:107EF0001FC023F080EC3FF02B0ED0EC3FF0FFD7FB
:107F0000AAEC3FF0940E97EC3FF00A0000EE20F050
:107F1000020E1A6E200E196EEE50F56E0F00192E1D
:107F2000FBD7840E97EC3FF01A2EF4D71200A66E02
:107F3000550EA76EAA0EA76EA6821200AAEC3FF0FD
:107F400000EE20F0400E196E0900F550EE6E192E6D
:107F5000FBD71200F86A12C0F7FF13C0F6FF120039
:107F6000300EEF5CEFBCF90FE92A1200B0EC3FF0E5
:107F7000176E173AB0EC3FF01710182612001B6E60
:107F800082928296080E196E1B368298D8B082882B
:107F900082868296192EF8D7828282921200250E4E
:107FA000196E195083EC3EF0000FD8A4DFEF3FF0BC
:107FB0000D0EE4EC3FF00A0EE4EC3FF01200E4ECAE
:107FC0003FF0192A192AEDD79EA8FED7AD6E1200F0
:107FD00000000000000000000000000000000000A1
:107FE0000000000000000000000000000000000091
:107FF000000000000000000000000000000012006F
:020000040030CA
:0100010002FC
:010002001EDF
:010003001EDE
:0100050001F9
:010006008178
:00000001FF
